{
  "_format": "hh-sol-artifact-1",
  "contractName": "StakingPoolV3",
  "sourceName": "contracts/cgateStaking.sol",
  "abi": [
    {
      "anonymous": false,
      "inputs": [
        {
          "indexed": false,
          "internalType": "uint8",
          "name": "version",
          "type": "uint8"
        }
      ],
      "name": "Initialized",
      "type": "event"
    },
    {
      "anonymous": false,
      "inputs": [
        {
          "indexed": true,
          "internalType": "address",
          "name": "newOwner",
          "type": "address"
        }
      ],
      "name": "OwnershipTransferProposed",
      "type": "event"
    },
    {
      "anonymous": false,
      "inputs": [
        {
          "indexed": true,
          "internalType": "address",
          "name": "voter",
          "type": "address"
        },
        {
          "indexed": false,
          "internalType": "bool",
          "name": "approve",
          "type": "bool"
        }
      ],
      "name": "VoteCasted",
      "type": "event"
    },
    {
      "inputs": [],
      "name": "CG8_TOKEN_ADDRESS",
      "outputs": [
        {
          "internalType": "address",
          "name": "",
          "type": "address"
        }
      ],
      "stateMutability": "view",
      "type": "function"
    },
    {
      "inputs": [],
      "name": "PANCAKE_FACTORY_ADDRESS",
      "outputs": [
        {
          "internalType": "address",
          "name": "",
          "type": "address"
        }
      ],
      "stateMutability": "view",
      "type": "function"
    },
    {
      "inputs": [],
      "name": "PANCAKE_ROUTER_ADDRESS",
      "outputs": [
        {
          "internalType": "address",
          "name": "",
          "type": "address"
        }
      ],
      "stateMutability": "view",
      "type": "function"
    },
    {
      "inputs": [],
      "name": "USDC_TOKEN_ADDRESS",
      "outputs": [
        {
          "internalType": "address",
          "name": "",
          "type": "address"
        }
      ],
      "stateMutability": "view",
      "type": "function"
    },
    {
      "inputs": [],
      "name": "admin",
      "outputs": [
        {
          "internalType": "address",
          "name": "",
          "type": "address"
        }
      ],
      "stateMutability": "view",
      "type": "function"
    },
    {
      "inputs": [],
      "name": "cancelOwnershipTransfer",
      "outputs": [],
      "stateMutability": "nonpayable",
      "type": "function"
    },
    {
      "inputs": [
        {
          "internalType": "bool",
          "name": "approve",
          "type": "bool"
        }
      ],
      "name": "castVote",
      "outputs": [],
      "stateMutability": "nonpayable",
      "type": "function"
    },
    {
      "inputs": [
        {
          "internalType": "uint256",
          "name": "poolId",
          "type": "uint256"
        },
        {
          "internalType": "uint256",
          "name": "stakeId",
          "type": "uint256"
        }
      ],
      "name": "claimIndividualReward",
      "outputs": [
        {
          "internalType": "uint256",
          "name": "",
          "type": "uint256"
        }
      ],
      "stateMutability": "nonpayable",
      "type": "function"
    },
    {
      "inputs": [
        {
          "internalType": "uint256",
          "name": "poolId",
          "type": "uint256"
        }
      ],
      "name": "claimReward",
      "outputs": [],
      "stateMutability": "nonpayable",
      "type": "function"
    },
    {
      "inputs": [
        {
          "internalType": "uint256",
          "name": "_timePeriod",
          "type": "uint256"
        },
        {
          "internalType": "address",
          "name": "_stakeToken",
          "type": "address"
        },
        {
          "internalType": "address",
          "name": "_rewardToken",
          "type": "address"
        },
        {
          "internalType": "uint256",
          "name": "_rewardPercent",
          "type": "uint256"
        },
        {
          "internalType": "uint256",
          "name": "_referralRewardPercent",
          "type": "uint256"
        }
      ],
      "name": "createStakingPool",
      "outputs": [],
      "stateMutability": "nonpayable",
      "type": "function"
    },
    {
      "inputs": [],
      "name": "finalizeOwnershipTransfer",
      "outputs": [],
      "stateMutability": "nonpayable",
      "type": "function"
    },
    {
      "inputs": [],
      "name": "getCurrentCgatePrice",
      "outputs": [
        {
          "internalType": "uint256",
          "name": "",
          "type": "uint256"
        }
      ],
      "stateMutability": "view",
      "type": "function"
    },
    {
      "inputs": [
        {
          "internalType": "address",
          "name": "tokenA",
          "type": "address"
        },
        {
          "internalType": "address",
          "name": "tokenB",
          "type": "address"
        }
      ],
      "name": "getPair",
      "outputs": [
        {
          "internalType": "address",
          "name": "",
          "type": "address"
        }
      ],
      "stateMutability": "view",
      "type": "function"
    },
    {
      "inputs": [
        {
          "internalType": "uint256",
          "name": "poolId",
          "type": "uint256"
        },
        {
          "internalType": "uint256",
          "name": "stakeId",
          "type": "uint256"
        },
        {
          "internalType": "address",
          "name": "user",
          "type": "address"
        }
      ],
      "name": "getPendingReward",
      "outputs": [
        {
          "internalType": "uint256",
          "name": "",
          "type": "uint256"
        }
      ],
      "stateMutability": "view",
      "type": "function"
    },
    {
      "inputs": [],
      "name": "getPrice",
      "outputs": [
        {
          "internalType": "uint256",
          "name": "",
          "type": "uint256"
        }
      ],
      "stateMutability": "view",
      "type": "function"
    },
    {
      "inputs": [],
      "name": "getPriceInverse",
      "outputs": [
        {
          "internalType": "uint256",
          "name": "",
          "type": "uint256"
        }
      ],
      "stateMutability": "view",
      "type": "function"
    },
    {
      "inputs": [
        {
          "internalType": "address",
          "name": "user",
          "type": "address"
        },
        {
          "internalType": "uint256",
          "name": "poolId",
          "type": "uint256"
        }
      ],
      "name": "getReferrals",
      "outputs": [
        {
          "internalType": "address[]",
          "name": "",
          "type": "address[]"
        }
      ],
      "stateMutability": "view",
      "type": "function"
    },
    {
      "inputs": [
        {
          "internalType": "address",
          "name": "pair",
          "type": "address"
        }
      ],
      "name": "getReserves",
      "outputs": [
        {
          "internalType": "uint112",
          "name": "reserve0",
          "type": "uint112"
        },
        {
          "internalType": "uint112",
          "name": "reserve1",
          "type": "uint112"
        }
      ],
      "stateMutability": "view",
      "type": "function"
    },
    {
      "inputs": [
        {
          "internalType": "uint256",
          "name": "poolId",
          "type": "uint256"
        },
        {
          "internalType": "address",
          "name": "user",
          "type": "address"
        }
      ],
      "name": "getTotalPendingRewardsForPool",
      "outputs": [
        {
          "internalType": "uint256",
          "name": "",
          "type": "uint256"
        }
      ],
      "stateMutability": "view",
      "type": "function"
    },
    {
      "inputs": [],
      "name": "getTotalPoolsCount",
      "outputs": [
        {
          "internalType": "uint256",
          "name": "",
          "type": "uint256"
        }
      ],
      "stateMutability": "view",
      "type": "function"
    },
    {
      "inputs": [
        {
          "internalType": "address",
          "name": "user",
          "type": "address"
        },
        {
          "internalType": "address",
          "name": "referrer",
          "type": "address"
        }
      ],
      "name": "getTotalReferralRewardByReferrer",
      "outputs": [
        {
          "internalType": "uint256",
          "name": "",
          "type": "uint256"
        }
      ],
      "stateMutability": "view",
      "type": "function"
    },
    {
      "inputs": [
        {
          "internalType": "address",
          "name": "user",
          "type": "address"
        }
      ],
      "name": "getTotalReferralRewards",
      "outputs": [
        {
          "internalType": "uint256",
          "name": "",
          "type": "uint256"
        }
      ],
      "stateMutability": "view",
      "type": "function"
    },
    {
      "inputs": [
        {
          "internalType": "address",
          "name": "",
          "type": "address"
        }
      ],
      "name": "hasVoted",
      "outputs": [
        {
          "internalType": "bool",
          "name": "",
          "type": "bool"
        }
      ],
      "stateMutability": "view",
      "type": "function"
    },
    {
      "inputs": [
        {
          "internalType": "address[]",
          "name": "_initialVoters",
          "type": "address[]"
        }
      ],
      "name": "initialize",
      "outputs": [],
      "stateMutability": "nonpayable",
      "type": "function"
    },
    {
      "inputs": [],
      "name": "poolAddress",
      "outputs": [
        {
          "internalType": "address",
          "name": "",
          "type": "address"
        }
      ],
      "stateMutability": "view",
      "type": "function"
    },
    {
      "inputs": [
        {
          "internalType": "address",
          "name": "",
          "type": "address"
        },
        {
          "internalType": "uint256",
          "name": "",
          "type": "uint256"
        }
      ],
      "name": "poolReferrers",
      "outputs": [
        {
          "internalType": "address",
          "name": "",
          "type": "address"
        }
      ],
      "stateMutability": "view",
      "type": "function"
    },
    {
      "inputs": [
        {
          "internalType": "uint256",
          "name": "",
          "type": "uint256"
        }
      ],
      "name": "pools",
      "outputs": [
        {
          "internalType": "uint256",
          "name": "timePeriod",
          "type": "uint256"
        },
        {
          "internalType": "address",
          "name": "stakeToken",
          "type": "address"
        },
        {
          "internalType": "address",
          "name": "rewardToken",
          "type": "address"
        },
        {
          "internalType": "uint256",
          "name": "rewardPercentPerStakedTokenPerYear",
          "type": "uint256"
        },
        {
          "internalType": "uint256",
          "name": "referralRewardPercent",
          "type": "uint256"
        },
        {
          "internalType": "bool",
          "name": "isActive",
          "type": "bool"
        },
        {
          "internalType": "uint256",
          "name": "totalStakes",
          "type": "uint256"
        }
      ],
      "stateMutability": "view",
      "type": "function"
    },
    {
      "inputs": [
        {
          "internalType": "address",
          "name": "newOwner",
          "type": "address"
        }
      ],
      "name": "proposeOwnershipTransfer",
      "outputs": [],
      "stateMutability": "nonpayable",
      "type": "function"
    },
    {
      "inputs": [],
      "name": "proposedOwner",
      "outputs": [
        {
          "internalType": "address",
          "name": "",
          "type": "address"
        }
      ],
      "stateMutability": "view",
      "type": "function"
    },
    {
      "inputs": [
        {
          "internalType": "address",
          "name": "",
          "type": "address"
        },
        {
          "internalType": "uint256",
          "name": "",
          "type": "uint256"
        },
        {
          "internalType": "uint256",
          "name": "",
          "type": "uint256"
        }
      ],
      "name": "referrals",
      "outputs": [
        {
          "internalType": "address",
          "name": "",
          "type": "address"
        }
      ],
      "stateMutability": "view",
      "type": "function"
    },
    {
      "inputs": [
        {
          "internalType": "address",
          "name": "",
          "type": "address"
        },
        {
          "internalType": "address",
          "name": "",
          "type": "address"
        },
        {
          "internalType": "uint256",
          "name": "",
          "type": "uint256"
        }
      ],
      "name": "referrerRewards",
      "outputs": [
        {
          "internalType": "uint256",
          "name": "",
          "type": "uint256"
        }
      ],
      "stateMutability": "view",
      "type": "function"
    },
    {
      "inputs": [
        {
          "internalType": "address",
          "name": "",
          "type": "address"
        }
      ],
      "name": "referrers",
      "outputs": [
        {
          "internalType": "address",
          "name": "",
          "type": "address"
        }
      ],
      "stateMutability": "view",
      "type": "function"
    },
    {
      "inputs": [
        {
          "internalType": "address",
          "name": "newAdmin",
          "type": "address"
        }
      ],
      "name": "setAdmin",
      "outputs": [],
      "stateMutability": "nonpayable",
      "type": "function"
    },
    {
      "inputs": [
        {
          "internalType": "address",
          "name": "_cg8Address",
          "type": "address"
        }
      ],
      "name": "setCg8Address",
      "outputs": [],
      "stateMutability": "nonpayable",
      "type": "function"
    },
    {
      "inputs": [
        {
          "internalType": "address",
          "name": "_factory",
          "type": "address"
        }
      ],
      "name": "setFactory",
      "outputs": [],
      "stateMutability": "nonpayable",
      "type": "function"
    },
    {
      "inputs": [
        {
          "internalType": "address",
          "name": "_poolAddress",
          "type": "address"
        }
      ],
      "name": "setPoolAddress",
      "outputs": [],
      "stateMutability": "nonpayable",
      "type": "function"
    },
    {
      "inputs": [
        {
          "internalType": "uint256",
          "name": "poolId",
          "type": "uint256"
        },
        {
          "internalType": "uint256",
          "name": "newPercentInBIPS",
          "type": "uint256"
        }
      ],
      "name": "setReferralRewardPercent",
      "outputs": [],
      "stateMutability": "nonpayable",
      "type": "function"
    },
    {
      "inputs": [
        {
          "internalType": "uint256",
          "name": "poolId",
          "type": "uint256"
        },
        {
          "internalType": "uint256",
          "name": "_newRewardPercentInBIPS",
          "type": "uint256"
        }
      ],
      "name": "setRewardPercent",
      "outputs": [],
      "stateMutability": "nonpayable",
      "type": "function"
    },
    {
      "inputs": [
        {
          "internalType": "uint256",
          "name": "poolId",
          "type": "uint256"
        },
        {
          "internalType": "address",
          "name": "_newRewardToken",
          "type": "address"
        }
      ],
      "name": "setRewardToken",
      "outputs": [],
      "stateMutability": "nonpayable",
      "type": "function"
    },
    {
      "inputs": [
        {
          "internalType": "address",
          "name": "_router",
          "type": "address"
        }
      ],
      "name": "setRouter",
      "outputs": [],
      "stateMutability": "nonpayable",
      "type": "function"
    },
    {
      "inputs": [
        {
          "internalType": "address",
          "name": "_referrer",
          "type": "address"
        },
        {
          "internalType": "uint256",
          "name": "_percentInBIPS",
          "type": "uint256"
        }
      ],
      "name": "setSpecialReferrerRewardPercent",
      "outputs": [],
      "stateMutability": "nonpayable",
      "type": "function"
    },
    {
      "inputs": [
        {
          "internalType": "uint256",
          "name": "poolId",
          "type": "uint256"
        },
        {
          "internalType": "uint256",
          "name": "_newTimePeriod",
          "type": "uint256"
        }
      ],
      "name": "setTimePeriod",
      "outputs": [],
      "stateMutability": "nonpayable",
      "type": "function"
    },
    {
      "inputs": [
        {
          "internalType": "address",
          "name": "_usdcAddress",
          "type": "address"
        }
      ],
      "name": "setUSDCAddress",
      "outputs": [],
      "stateMutability": "nonpayable",
      "type": "function"
    },
    {
      "inputs": [
        {
          "internalType": "address",
          "name": "",
          "type": "address"
        }
      ],
      "name": "signers",
      "outputs": [
        {
          "internalType": "bool",
          "name": "",
          "type": "bool"
        }
      ],
      "stateMutability": "view",
      "type": "function"
    },
    {
      "inputs": [
        {
          "internalType": "address",
          "name": "",
          "type": "address"
        }
      ],
      "name": "specialReferrersPercents",
      "outputs": [
        {
          "internalType": "uint256",
          "name": "",
          "type": "uint256"
        }
      ],
      "stateMutability": "view",
      "type": "function"
    },
    {
      "inputs": [
        {
          "internalType": "uint256",
          "name": "poolId",
          "type": "uint256"
        },
        {
          "internalType": "uint256",
          "name": "_amount",
          "type": "uint256"
        },
        {
          "internalType": "address",
          "name": "referrer",
          "type": "address"
        }
      ],
      "name": "stake",
      "outputs": [],
      "stateMutability": "nonpayable",
      "type": "function"
    },
    {
      "inputs": [
        {
          "internalType": "uint256",
          "name": "poolId",
          "type": "uint256"
        }
      ],
      "name": "togglePoolStatus",
      "outputs": [],
      "stateMutability": "nonpayable",
      "type": "function"
    },
    {
      "inputs": [
        {
          "internalType": "address",
          "name": "user",
          "type": "address"
        },
        {
          "internalType": "uint256",
          "name": "poolId",
          "type": "uint256"
        }
      ],
      "name": "totalStakeCount",
      "outputs": [
        {
          "internalType": "uint256",
          "name": "count",
          "type": "uint256"
        }
      ],
      "stateMutability": "view",
      "type": "function"
    },
    {
      "inputs": [
        {
          "internalType": "address",
          "name": "user",
          "type": "address"
        },
        {
          "internalType": "uint256",
          "name": "poolId",
          "type": "uint256"
        }
      ],
      "name": "totalUnstakeAllowed",
      "outputs": [
        {
          "internalType": "uint256",
          "name": "totalWithdrawable",
          "type": "uint256"
        }
      ],
      "stateMutability": "view",
      "type": "function"
    },
    {
      "inputs": [
        {
          "internalType": "uint256",
          "name": "poolId",
          "type": "uint256"
        }
      ],
      "name": "unStake",
      "outputs": [],
      "stateMutability": "nonpayable",
      "type": "function"
    },
    {
      "inputs": [
        {
          "internalType": "uint256",
          "name": "poolId",
          "type": "uint256"
        },
        {
          "internalType": "uint256",
          "name": "_stakeId",
          "type": "uint256"
        }
      ],
      "name": "unStakeIndividual",
      "outputs": [],
      "stateMutability": "nonpayable",
      "type": "function"
    },
    {
      "inputs": [
        {
          "internalType": "uint256",
          "name": "newPrice",
          "type": "uint256"
        }
      ],
      "name": "updateCurrentCgatePrice",
      "outputs": [],
      "stateMutability": "nonpayable",
      "type": "function"
    },
    {
      "inputs": [
        {
          "internalType": "address",
          "name": "",
          "type": "address"
        },
        {
          "internalType": "uint256",
          "name": "",
          "type": "uint256"
        },
        {
          "internalType": "uint256",
          "name": "",
          "type": "uint256"
        }
      ],
      "name": "userStakes",
      "outputs": [
        {
          "internalType": "uint256",
          "name": "amount",
          "type": "uint256"
        },
        {
          "internalType": "uint256",
          "name": "lastWithdrawTimestamp",
          "type": "uint256"
        },
        {
          "internalType": "uint256",
          "name": "rewardWithdrawnTillNow",
          "type": "uint256"
        },
        {
          "internalType": "uint256",
          "name": "stakeTime",
          "type": "uint256"
        },
        {
          "internalType": "address",
          "name": "referrer",
          "type": "address"
        },
        {
          "internalType": "uint256",
          "name": "depositedValueInDollars",
          "type": "uint256"
        }
      ],
      "stateMutability": "view",
      "type": "function"
    },
    {
      "inputs": [
        {
          "internalType": "address",
          "name": "",
          "type": "address"
        }
      ],
      "name": "users",
      "outputs": [
        {
          "internalType": "uint256",
          "name": "totalStaked",
          "type": "uint256"
        },
        {
          "internalType": "uint256",
          "name": "activeStakes",
          "type": "uint256"
        },
        {
          "internalType": "uint256",
          "name": "totalRewardWithdrawnTillNow",
          "type": "uint256"
        },
        {
          "internalType": "uint256",
          "name": "referralIncomeWithdrawnTillNow",
          "type": "uint256"
        },
        {
          "internalType": "uint256",
          "name": "totalReferrers",
          "type": "uint256"
        }
      ],
      "stateMutability": "view",
      "type": "function"
    },
    {
      "inputs": [
        {
          "internalType": "address",
          "name": "",
          "type": "address"
        },
        {
          "internalType": "uint256",
          "name": "",
          "type": "uint256"
        }
      ],
      "name": "usersStakesPerPool",
      "outputs": [
        {
          "internalType": "uint256",
          "name": "",
          "type": "uint256"
        }
      ],
      "stateMutability": "view",
      "type": "function"
    },
    {
      "inputs": [
        {
          "internalType": "uint256",
          "name": "",
          "type": "uint256"
        }
      ],
      "name": "voters",
      "outputs": [
        {
          "internalType": "address",
          "name": "",
          "type": "address"
        }
      ],
      "stateMutability": "view",
      "type": "function"
    },
    {
      "inputs": [
        {
          "internalType": "address",
          "name": "receiver",
          "type": "address"
        },
        {
          "internalType": "contract IERC20",
          "name": "_token",
          "type": "address"
        }
      ],
      "name": "withdrawDumpToken",
      "outputs": [],
      "stateMutability": "nonpayable",
      "type": "function"
    },
    {
      "inputs": [
        {
          "internalType": "address payable",
          "name": "_receiver",
          "type": "address"
        }
      ],
      "name": "withdrawEth",
      "outputs": [],
      "stateMutability": "nonpayable",
      "type": "function"
    }
  ],
  "bytecode": "0x608060405234801561001057600080fd5b50614183806100206000396000f3fe608060405234801561001057600080fd5b506004361061038e5760003560e01c806398d5fdca116101de578063c01b35a11161010f578063dbe4a261116100ad578063f43434391161007c578063f43434391461097c578063f851a44014610984578063fa8f683e14610997578063fb58d2cf146109cd57600080fd5b8063dbe4a26114610923578063e6a4390514610936578063e7ee123314610949578063e9e15b4f1461096957600080fd5b8063c57830cd116100e9578063c57830cd146108d7578063c79bdb46146108ea578063d153b60c146108fd578063da58c7d91461091057600080fd5b8063c01b35a11461089e578063c0d78655146108b1578063c114fcfa146108c457600080fd5b8063ae169a501161017c578063b820a1cd11610156578063b820a1cd1461085d578063bdd13d4a14610870578063bf2ce80814610883578063bf41c2a41461089657600080fd5b8063ae169a501461080c578063b3d673d81461081f578063b401cdca1461083257600080fd5b8063a224cee7116101b8578063a224cee7146106e3578063a87430ba146106f6578063aaf5bfc31461075b578063ac4afa381461076e57600080fd5b806398d5fdca146106b557806399672158146106bd5780639dda7fee146106d057600080fd5b8063509173a1116102c3578063704b6c02116102615780637ade2642116102305780637ade26421461067f5780637b542a2a14610687578063855c5d461461069a5780638cd05ecb146106a257600080fd5b8063704b6c0214610623578063736c0d5b146106365780637628a37d146106595780637ace48e71461066c57600080fd5b80635bb478081161029d5780635bb47808146105b65780635d3eea91146105c9578063686e9222146105dc5780636b38e0491461061057600080fd5b8063509173a11461057d57806353a640911461059057806357a8773e146105a357600080fd5b806328ac7c511161033057806334144b0f1161030a57806334144b0f146104a05780633e99c1e4146104e95780634a3b68cc146105235780634ae77bcf1461054c57600080fd5b806328ac7c511461044c57806329a166161461045f57806332a00d8e1461048057600080fd5b806321040fc31161036c57806321040fc31461040b578063216b31c11461041e57806323452b9c1461043157806325e160631461043957600080fd5b8063047ac00e1461039357806309eef43e146103a85780631755ff21146103e0575b600080fd5b6103a66103a1366004613b70565b6109e0565b005b6103cb6103b6366004613ba7565b60396020526000908152604090205460ff1681565b60405190151581526020015b60405180910390f35b6045546103f3906001600160a01b031681565b6040516001600160a01b0390911681526020016103d7565b6103a6610419366004613ba7565b610c9b565b6103a661042c366004613bc4565b610d8d565b6103a6610e44565b6103a6610447366004613ba7565b610f15565b603a546103f3906001600160a01b031681565b61047261046d366004613bdd565b611004565b6040519081526020016103d7565b61049361048e366004613c16565b6111c5565b6040516103d79190613c42565b6104b36104ae366004613c8f565b611245565b6040805196875260208701959095529385019290925260608401526001600160a01b0316608083015260a082015260c0016103d7565b6104fc6104f7366004613ba7565b6112af565b604080516dffffffffffffffffffffffffffff9384168152929091166020830152016103d7565b6103f3610531366004613ba7565b6040602081905260009182529020546001600160a01b031681565b61047261055a366004613cc4565b604760209081526000938452604080852082529284528284209052825290205481565b603d546103f3906001600160a01b031681565b61047261059e366004613d05565b611324565b6103a66105b1366004613ba7565b611387565b6103a66105c4366004613ba7565b6113fb565b6103a66105d7366004613bc4565b61146f565b6103f36105ea366004613c16565b60486020908152600092835260408084209091529082529020546001600160a01b031681565b61047261061e366004613b70565b61175d565b6103a6610631366004613ba7565b611b50565b6103cb610644366004613ba7565b60446020526000908152604090205460ff1681565b6103a6610667366004613bdd565b611bc4565b6103a661067a366004613d4c565b6120ab565b6104726121b9565b6103a6610695366004613bc4565b6122bb565b603454610472565b6104726106b0366004613ba7565b612312565b6104726123f6565b6103a66106cb366004613d05565b6124a2565b6104726106de366004613c16565b61261c565b6103a66106f1366004613dd9565b612748565b610733610704366004613ba7565b604260205260009081526040902080546001820154600283015460038401546004909401549293919290919085565b604080519586526020860194909452928401919091526060830152608082015260a0016103d7565b6103a6610769366004613ba7565b612975565b6107c961077c366004613bc4565b603e60205260009081526040902080546001820154600283015460038401546004850154600586015460069096015494956001600160a01b039485169593909416939192909160ff169087565b604080519788526001600160a01b039687166020890152949095169386019390935260608501919091526080840152151560a083015260c082015260e0016103d7565b6103a661081a366004613bc4565b6129e9565b603c546103f3906001600160a01b031681565b610472610840366004613c16565b604360209081526000928352604080842090915290825290205481565b6103a661086b366004613b70565b612e1b565b6103a661087e366004613e8b565b612f6a565b6103a6610891366004613b70565b6130e1565b6103a66131e3565b6103f36108ac366004613c8f565b61338d565b6103a66108bf366004613ba7565b6133d2565b6104726108d2366004613e8b565b613446565b603b546103f3906001600160a01b031681565b6103a66108f8366004613b70565b61349f565b6037546103f3906001600160a01b031681565b6103f361091e366004613bc4565b613601565b6103a6610931366004613c16565b61362b565b6103f3610944366004613d05565b613699565b610472610957366004613ba7565b60416020526000908152604090205481565b6103a6610977366004613ba7565b613734565b6104726137a8565b6033546103f3906001600160a01b031681565b6104726109a5366004613c16565b6001600160a01b03919091166000908152603f60209081526040808320938352929052205490565b6103a66109db366004613eb0565b61387b565b816034548110610a265760405162461bcd60e51b815260206004820152600c60248201526b125b9d985b1a5908141bdbdb60a21b60448201526064015b60405180910390fd5b6000838152603e6020526040902060050154839060ff16610a7e5760405162461bcd60e51b8152602060048201526012602482015271506f6f6c204973204e6f742041637469766560701b6044820152606401610a1d565b336000908152603f602090815260408083208784529091528120805485908110610aaa57610aaa613f02565b60009182526020808320888452603e909152604090922060069091029091019150805460038301544291610add91613f2e565b811015610b2c5760405162461bcd60e51b815260206004820152601660248201527f54696d6520706572696f64206e6f7420706173736564000000000000000000006044820152606401610a1d565b610b36878761175d565b506001838101829055820154835460405163a9059cbb60e01b815233600482015260248101919091526001600160a01b039091169063a9059cbb906044016020604051808303816000875af1158015610b93573d6000803e3d6000fd5b505050506040513d601f19601f82011682018060405250810190610bb79190613f51565b610c035760405162461bcd60e51b815260206004820152601c60248201527f5374616b656420746f6b656e207472616e73666572206661696c6564000000006044820152606401610a1d565b82543360009081526042602052604081206001018054909190610c27908490613f6e565b909155505082543360009081526043602090815260408083208b845290915281208054909190610c58908490613f6e565b909155505082546000888152603e602052604081206006018054909190610c80908490613f6e565b90915550506000808455600590930192909255505050505050565b6033546001600160a01b03163314610ced5760405162461bcd60e51b8152602060048201526021602482015260008051602061412e8339815191526044820152603760f91b6064820152608401610a1d565b6001600160a01b038116610d435760405162461bcd60e51b815260206004820181905260248201527f4e6577206f776e65722063616e6e6f74206265207a65726f20616464726573736044820152606401610a1d565b603780546001600160a01b0319166001600160a01b0383169081179091556040517ff0c6916d81cd1f899264b5193e3bbe7afd2bcc3d05704bab73d0b8ac9387115890600090a250565b6033546001600160a01b03163314610ddf5760405162461bcd60e51b8152602060048201526021602482015260008051602061412e8339815191526044820152603760f91b6064820152608401610a1d565b806034548110610e205760405162461bcd60e51b815260206004820152600c60248201526b125b9d985b1a5908141bdbdb60a21b6044820152606401610a1d565b506000908152603e60205260409020600501805460ff19811660ff90911615179055565b6033546001600160a01b03163314610e965760405162461bcd60e51b8152602060048201526021602482015260008051602061412e8339815191526044820152603760f91b6064820152608401610a1d565b603780546001600160a01b031916905560005b603854811015610f125760006039600060388481548110610ecc57610ecc613f02565b6000918252602080832091909101546001600160a01b031683528201929092526040019020805460ff191691151591909117905580610f0a81613f81565b915050610ea9565b50565b6033546001600160a01b03163314610f675760405162461bcd60e51b8152602060048201526021602482015260008051602061412e8339815191526044820152603760f91b6064820152608401610a1d565b610f6f6139a4565b6001600160a01b038116610fc55760405162461bcd60e51b815260206004820152600f60248201527f496e76616c6964206164647265737300000000000000000000000000000000006044820152606401610a1d565b6040516001600160a01b038216904780156108fc02916000818181858888f19350505050158015610ffa573d6000803e3d6000fd5b50610f1260018055565b60008360345481106110475760405162461bcd60e51b815260206004820152600c60248201526b125b9d985b1a5908141bdbdb60a21b6044820152606401610a1d565b6000858152603e6020526040902060050154859060ff1661109f5760405162461bcd60e51b8152602060048201526012602482015271506f6f6c204973204e6f742041637469766560701b6044820152606401610a1d565b6001600160a01b0384166000908152603f6020908152604080832089845290915290205485106111115760405162461bcd60e51b815260206004820152600f60248201527f55736572204e6f74205374616b656400000000000000000000000000000000006044820152606401610a1d565b6001600160a01b0384166000908152603f60209081526040808320898452909152812080548790811061114657611146613f02565b600091825260208083208a8452603e90915260408320600692909202016001810154909350909142916111799083613f6e565b9050600060355461271085600301548488600501546111989190613f9a565b6111a29190613f9a565b6111ac9190613fb1565b6111b69190613fb1565b9b9a5050505050505050505050565b6001600160a01b038216600090815260466020908152604080832084845282529182902080548351818402810184019094528084526060939283018282801561123757602002820191906000526020600020905b81546001600160a01b03168152600190910190602001808311611219575b505050505090505b92915050565b603f602052826000526040600020602052816000526040600020818154811061126d57600080fd5b60009182526020909120600690910201805460018201546002830154600384015460048501546005909501549397509195509350916001600160a01b03169086565b600080600080846001600160a01b0316630902f1ac6040518163ffffffff1660e01b8152600401606060405180830381865afa1580156112f3573d6000803e3d6000fd5b505050506040513d601f19601f820116820180604052508101906113179190614005565b5090969095509350505050565b600080805b60345481101561137f576001600160a01b03808516600090815260476020908152604080832093891683529281528282208483529052205461136b9083613f2e565b91508061137781613f81565b915050611329565b509392505050565b6033546001600160a01b031633146113d95760405162461bcd60e51b8152602060048201526021602482015260008051602061412e8339815191526044820152603760f91b6064820152608401610a1d565b603b80546001600160a01b0319166001600160a01b0392909216919091179055565b6033546001600160a01b0316331461144d5760405162461bcd60e51b8152602060048201526021602482015260008051602061412e8339815191526044820152603760f91b6064820152608401610a1d565b603d80546001600160a01b0319166001600160a01b0392909216919091179055565b8060345481106114b05760405162461bcd60e51b815260206004820152600c60248201526b125b9d985b1a5908141bdbdb60a21b6044820152606401610a1d565b6000828152603e6020526040902060050154829060ff166115085760405162461bcd60e51b8152602060048201526012602482015271506f6f6c204973204e6f742041637469766560701b6044820152606401610a1d565b6000838152603e60205260408120815b336000908152603f6020908152604080832089845290915290205481101561163657336000908152603f60209081526040808320898452909152812080548390811061156657611566613f02565b9060005260206000209060060201905060004290508360000154826003015461158f9190613f2e565b81106116215781546115a19086613f2e565b94506115ad888461175d565b50600080835560018301829055338152603f602090815260408083208b845290915290208054849081106115e3576115e3613f02565b6000918252602082206006909102018181556001810182905560028101829055600381018290556004810180546001600160a01b0319169055600501555b5050808061162e90613f81565b915050611518565b503360009081526042602052604081206001018054849290611659908490613f6e565b909155505033600090815260436020908152604080832088845290915281208054849290611688908490613f6e565b9091555050811561175657600181015460405163a9059cbb60e01b8152336004820152602481018490526001600160a01b039091169063a9059cbb906044016020604051808303816000875af11580156116e6573d6000803e3d6000fd5b505050506040513d601f19601f8201168201806040525081019061170a9190613f51565b6117565760405162461bcd60e51b815260206004820152601c60248201527f5374616b656420746f6b656e207472616e73666572206661696c6564000000006044820152606401610a1d565b5050505050565b60008260345481106117a05760405162461bcd60e51b815260206004820152600c60248201526b125b9d985b1a5908141bdbdb60a21b6044820152606401610a1d565b6000848152603e6020526040902060050154849060ff166117f85760405162461bcd60e51b8152602060048201526012602482015271506f6f6c204973204e6f742041637469766560701b6044820152606401610a1d565b336000908152603f60209081526040808320888452909152812080548690811061182457611824613f02565b60009182526020808320898452603e90915260408320600690920201805490935090910361185757600094505050611b48565b426000611865898933611004565b90508015611b4357600283015460405163a9059cbb60e01b8152336004820152602481018390526001600160a01b039091169063a9059cbb906044016020604051808303816000875af11580156118c0573d6000803e3d6000fd5b505050506040513d601f19601f820116820180604052508101906118e49190613f51565b6119305760405162461bcd60e51b815260206004820152601660248201527f526577617264207472616e73666572206661696c6564000000000000000000006044820152606401610a1d565b60048401546001600160a01b031615611af357600480840154908501546001600160a01b031660009081526041602052604090205415611989575060048401546001600160a01b03166000908152604160205260409020545b60006127106119988385613f9a565b6119a29190613fb1565b90508015611abc57600285015460048781015460405163a9059cbb60e01b81526001600160a01b0391821692810192909252602482018490529091169063a9059cbb906044016020604051808303816000875af1158015611a07573d6000803e3d6000fd5b505050506040513d601f19601f82011682018060405250810190611a2b9190613f51565b611a775760405162461bcd60e51b815260206004820152601f60248201527f526566657272616c20526577617264207472616e73666572206661696c6564006044820152606401610a1d565b60048601546001600160a01b0316600090815260476020908152604080832033845282528083208e845290915281208054839290611ab6908490613f2e565b90915550505b60048601546001600160a01b031660009081526042602052604081206003018054839290611aeb908490613f2e565b909155505050505b3360009081526042602052604081206002018054839290611b15908490613f2e565b9250508190555080846002016000828254611b309190613f2e565b9091555050600190930155509250611b48565b505050505b505092915050565b6033546001600160a01b03163314611ba25760405162461bcd60e51b8152602060048201526021602482015260008051602061412e8339815191526044820152603760f91b6064820152608401610a1d565b603380546001600160a01b0319166001600160a01b0392909216919091179055565b826034548110611c055760405162461bcd60e51b815260206004820152600c60248201526b125b9d985b1a5908141bdbdb60a21b6044820152606401610a1d565b6000848152603e6020526040902060050154849060ff16611c5d5760405162461bcd60e51b8152602060048201526012602482015271506f6f6c204973204e6f742041637469766560701b6044820152606401610a1d565b60008411611cad5760405162461bcd60e51b815260206004820152601d60248201527f416d6f756e74206d7573742062652067726561746572207468616e20300000006044820152606401610a1d565b6001600160a01b0383163303611d055760405162461bcd60e51b815260206004820152601860248201527f596f752063616e277420726566657220796f757273656c6600000000000000006044820152606401610a1d565b6000858152603e602052604090819020600181015491517f23b872dd0000000000000000000000000000000000000000000000000000000081523360048201523060248201526044810187905290916001600160a01b0316906323b872dd906064016020604051808303816000875af1158015611d86573d6000803e3d6000fd5b505050506040513d601f19601f82011682018060405250810190611daa9190613f51565b611df65760405162461bcd60e51b815260206004820152601560248201527f546f6b656e207472616e73666572206661696c656400000000000000000000006044820152606401610a1d565b6001600160a01b03841615611ec7573360009081526048602090815260408083208984529091529020546001600160a01b0316611e6157336000908152604860209081526040808320898452909152902080546001600160a01b0319166001600160a01b0386161790555b6001600160a01b03841660008181526046602090815260408083208a845282528083208054600181810183559185528385200180546001600160a01b03191633179055938352604290915281206004018054909190611ec1908490613f2e565b90915550505b336000908152603f602090815260408083208984528252808320815160c081018352898152429381018490529182019390935260608101919091526001600160a01b038616608082015260a08101670de0b6b3a7640000611f266137a8565b611f30908a613f9a565b611f3a9190613fb1565b90528154600180820184556000938452602080852084516006948502909101908155848201519281019290925560408085015160028401556060850151600384015560808501516004840180546001600160a01b0319166001600160a01b0390921691909117905560a090940151600590920191909155898452603e9052908220018054879290611fcc908490613f2e565b90915550506040805160a081018252336000908152604260205291909120548190611ff8908890613f2e565b81523360009081526042602090815260409091206001015491019061201e908890613f2e565b815233600081815260426020818152604080842060028101805484890152600382018054848a015260048301805460609a8b0152978752948452885182558884015160019092019190915587820151905594860151909155608090940151909155604383528181208982529092528120805487929061209e908490613f2e565b9091555050505050505050565b6120b433613a03565b6121005760405162461bcd60e51b815260206004820152601160248201527f4e6f7420612076616c696420766f7465720000000000000000000000000000006044820152606401610a1d565b3360009081526039602052604090205460ff16156121605760405162461bcd60e51b815260206004820152600d60248201527f416c726561647920766f746564000000000000000000000000000000000000006044820152606401610a1d565b3360008181526039602052604090819020805460ff19166001179055517fa4861c5510bfa99706ed508d728f9c6b365ff27af1a3012e21980952ad2d844f906121ae90841515815260200190565b60405180910390a250565b603b54603c5460009182916121da916001600160a01b039081169116613699565b90506001600160a01b0381166121f257600091505090565b6000806121fe836112af565b603a546040517f85f8c259000000000000000000000000000000000000000000000000000000008152670de0b6b3a764000060048201526dffffffffffffffffffffffffffff8084166024830152841660448201529294509092506000916001600160a01b03909116906385f8c25990606401602060405180830381865afa15801561228e573d6000803e3d6000fd5b505050506040513d601f19601f820116820180604052508101906122b29190614048565b95945050505050565b6033546001600160a01b0316331461230d5760405162461bcd60e51b8152602060048201526021602482015260008051602061412e8339815191526044820152603760f91b6064820152608401610a1d565b603655565b600080805b6034548110156123ef5760005b6001600160a01b03851660009081526046602090815260408083208584529091529020548110156123dc576001600160a01b038516600090815260476020908152604080832060468352818420868552909252822080549192918490811061238e5761238e613f02565b60009182526020808320909101546001600160a01b0316835282810193909352604091820181208582529092529020546123c89084613f2e565b9250806123d481613f81565b915050612324565b50806123e781613f81565b915050612317565b5092915050565b60455460408051633850c7bd60e01b815290516000926001600160a01b03169183918391633850c7bd9160048083019260e09291908290030181865afa158015612444573d6000803e3d6000fd5b505050506040513d601f19601f820116820180604052508101906124689190614073565b5190506001600160a01b0381166000600160c01b6124868380613f9a565b61249890670de0b6b3a7640000613f9a565b6122b29190613fb1565b6033546001600160a01b031633146124f45760405162461bcd60e51b8152602060048201526021602482015260008051602061412e8339815191526044820152603760f91b6064820152608401610a1d565b6124fc6139a4565b6040517f70a082310000000000000000000000000000000000000000000000000000000081523060048201526001600160a01b0382169063a9059cbb90849083906370a0823190602401602060405180830381865afa158015612563573d6000803e3d6000fd5b505050506040513d601f19601f820116820180604052508101906125879190614048565b6040517fffffffff0000000000000000000000000000000000000000000000000000000060e085901b1681526001600160a01b03909216600483015260248201526044016020604051808303816000875af11580156125ea573d6000803e3d6000fd5b505050506040513d601f19601f8201168201806040525081019061260e9190613f51565b5061261860018055565b5050565b6001600160a01b03821660009081526043602090815260408083208484529091528120548190156127415760005b6001600160a01b0385166000908152603f6020908152604080832087845290915290205481101561137f576000848152603e60209081526040808320546001600160a01b0389168452603f8352818420888552909252909120805442929190849081106126b9576126b9613f02565b9060005260206000209060060201600301546126d59190613f2e565b1161272f576001600160a01b0385166000908152603f60209081526040808320878452909152902080548290811061270f5761270f613f02565b9060005260206000209060060201600001548261272c9190613f2e565b91505b8061273981613f81565b91505061264a565b9392505050565b600054610100900460ff16158080156127685750600054600160ff909116105b806127825750303b158015612782575060005460ff166001145b6127f45760405162461bcd60e51b815260206004820152602e60248201527f496e697469616c697a61626c653a20636f6e747261637420697320616c72656160448201527f647920696e697469616c697a65640000000000000000000000000000000000006064820152608401610a1d565b6000805460ff191660011790558015612817576000805461ff0019166101001790555b61281f613a6c565b603380546001600160a01b031990811633179091556301e1338060355564e8d4a51000603655603a80548216739ac64cc6e4415144c455bd8e4837fea55603e5c3179055603b80548216739f7b09eb38ed912ab5932dccad0b1f501abfe6fd179055603c8054821673d1fac5ff5d03b70d3383909692d09fc6d97c8219179055603d805490911673b7926c0430afb07aa7defde6da862ae0bde767bc17905560005b825181101561292b5760388382815181106128de576128de613f02565b60209081029190910181015182546001810184556000938452919092200180546001600160a01b0319166001600160a01b039092169190911790558061292381613f81565b9150506128c1565b508015612618576000805461ff0019169055604051600181527f7f26b83ff96e1f2b6a682f133852f6798a09c465da95921460cefb38474024989060200160405180910390a15050565b6033546001600160a01b031633146129c75760405162461bcd60e51b8152602060048201526021602482015260008051602061412e8339815191526044820152603760f91b6064820152608401610a1d565b603c80546001600160a01b0319166001600160a01b0392909216919091179055565b806034548110612a2a5760405162461bcd60e51b815260206004820152600c60248201526b125b9d985b1a5908141bdbdb60a21b6044820152606401610a1d565b612a326139a4565b6000828152603e6020526040902060050154829060ff16612a8a5760405162461bcd60e51b8152602060048201526012602482015271506f6f6c204973204e6f742041637469766560701b6044820152606401610a1d565b6000838152603e6020526040812090805b336000908152603f60209081526040808320898452909152902054811015612d4557336000908152603f602090815260408083208984529091528120805483908110612ae957612ae9613f02565b90600052602060002090600602019050600081600001541115612d3257426000612b14898533611004565b60048401549091506001600160a01b031615612cda57600480870154908401546001600160a01b031660009081526041602052604090205415612b70575060048301546001600160a01b03166000908152604160205260409020545b6000612710612b7f8385613f9a565b612b899190613fb1565b90508015612cd757600288015460048681015460405163a9059cbb60e01b81526001600160a01b0391821692810192909252602482018490529091169063a9059cbb906044016020604051808303816000875af1158015612bee573d6000803e3d6000fd5b505050506040513d601f19601f82011682018060405250810190612c129190613f51565b612c5e5760405162461bcd60e51b815260206004820152601f60248201527f526566657272616c20526577617264207472616e73666572206661696c6564006044820152606401610a1d565b60048501546001600160a01b0316600090815260476020908152604080832033845282528083208e845290915281208054839290612c9d908490613f2e565b909155505060048501546001600160a01b031660009081526042602052604081206003018054839290612cd1908490613f2e565b90915550505b50505b3360009081526042602052604081206002018054839290612cfc908490613f2e565b9250508190555080836002016000828254612d179190613f2e565b909155505060018301829055612d2d8186613f2e565b945050505b5080612d3d81613f81565b915050612a9b565b508015612e0f57600282015460405163a9059cbb60e01b8152336004820152602481018390526001600160a01b039091169063a9059cbb906044016020604051808303816000875af1158015612d9f573d6000803e3d6000fd5b505050506040513d601f19601f82011682018060405250810190612dc39190613f51565b612e0f5760405162461bcd60e51b815260206004820152601660248201527f526577617264207472616e73666572206661696c6564000000000000000000006044820152606401610a1d565b50505061261860018055565b6033546001600160a01b03163314612e6d5760405162461bcd60e51b8152602060048201526021602482015260008051602061412e8339815191526044820152603760f91b6064820152608401610a1d565b816034548110612eae5760405162461bcd60e51b815260206004820152600c60248201526b125b9d985b1a5908141bdbdb60a21b6044820152606401610a1d565b6000838152603e6020526040902060050154839060ff16612f065760405162461bcd60e51b8152602060048201526012602482015271506f6f6c204973204e6f742041637469766560701b6044820152606401610a1d565b600084118015612f1857506034548411155b612f565760405162461bcd60e51b815260206004820152600f60248201526e125b9d985b1a59081c1bdbdb081251608a1b6044820152606401610a1d565b50506000918252603e602052604090912055565b6033546001600160a01b03163314612fbc5760405162461bcd60e51b8152602060048201526021602482015260008051602061412e8339815191526044820152603760f91b6064820152608401610a1d565b612fc46139a4565b8160345481106130055760405162461bcd60e51b815260206004820152600c60248201526b125b9d985b1a5908141bdbdb60a21b6044820152606401610a1d565b6000838152603e6020526040902060050154839060ff1661305d5760405162461bcd60e51b8152602060048201526012602482015271506f6f6c204973204e6f742041637469766560701b6044820152606401610a1d565b60008411801561306f57506034548411155b6130ad5760405162461bcd60e51b815260206004820152600f60248201526e125b9d985b1a59081c1bdbdb081251608a1b6044820152606401610a1d565b50506000828152603e6020526040902060020180546001600160a01b0319166001600160a01b038316179055600180555050565b6033546001600160a01b031633146131335760405162461bcd60e51b8152602060048201526021602482015260008051602061412e8339815191526044820152603760f91b6064820152608401610a1d565b8160345481106131745760405162461bcd60e51b815260206004820152600c60248201526b125b9d985b1a5908141bdbdb60a21b6044820152606401610a1d565b6000838152603e6020526040902060050154839060ff166131cc5760405162461bcd60e51b8152602060048201526012602482015271506f6f6c204973204e6f742041637469766560701b6044820152606401610a1d565b50506000918252603e602052604090912060040155565b6033546001600160a01b031633146132355760405162461bcd60e51b8152602060048201526021602482015260008051602061412e8339815191526044820152603760f91b6064820152608401610a1d565b603854600090815b818110156132a957603960006038838154811061325c5761325c613f02565b60009182526020808320909101546001600160a01b0316835282019290925260400190205460ff1615613297578261329381613f81565b9350505b806132a181613f81565b91505061323d565b50818114806132fa5760405162461bcd60e51b815260206004820152601660248201527f496e73756666696369656e7420617070726f76616c73000000000000000000006044820152606401610a1d565b60378054603380546001600160a01b0383166001600160a01b0319918216811790925590911690915560005b83811015611756576000603960006038848154811061334757613347613f02565b6000918252602080832091909101546001600160a01b031683528201929092526040019020805460ff19169115159190911790558061338581613f81565b915050613326565b604660205282600052604060002060205281600052604060002081815481106133b557600080fd5b6000918252602090912001546001600160a01b0316925083915050565b6033546001600160a01b031633146134245760405162461bcd60e51b8152602060048201526021602482015260008051602061412e8339815191526044820152603760f91b6064820152608401610a1d565b603a80546001600160a01b0319166001600160a01b0392909216919091179055565b600080805b6001600160a01b0384166000908152603f6020908152604080832088845290915290205481101561137f57613481858286611004565b61348b9083613f2e565b91508061349781613f81565b91505061344b565b6033546001600160a01b031633146134f15760405162461bcd60e51b8152602060048201526021602482015260008051602061412e8339815191526044820152603760f91b6064820152608401610a1d565b6134f96139a4565b81603454811061353a5760405162461bcd60e51b815260206004820152600c60248201526b125b9d985b1a5908141bdbdb60a21b6044820152606401610a1d565b6000838152603e6020526040902060050154839060ff166135925760405162461bcd60e51b8152602060048201526012602482015271506f6f6c204973204e6f742041637469766560701b6044820152606401610a1d565b6000841180156135a457506034548411155b6135e25760405162461bcd60e51b815260206004820152600f60248201526e125b9d985b1a59081c1bdbdb081251608a1b6044820152606401610a1d565b50506000828152603e6020526040902060030181905561261860018055565b6038818154811061361157600080fd5b6000918252602090912001546001600160a01b0316905081565b6033546001600160a01b0316331461367d5760405162461bcd60e51b8152602060048201526021602482015260008051602061412e8339815191526044820152603760f91b6064820152608401610a1d565b6001600160a01b03909116600090815260416020526040902055565b603d546040517fe6a439050000000000000000000000000000000000000000000000000000000081526001600160a01b0384811660048301528381166024830152600092839291169063e6a4390590604401602060405180830381865afa158015613708573d6000803e3d6000fd5b505050506040513d601f19601f8201168201806040525081019061372c9190614110565b949350505050565b6033546001600160a01b031633146137865760405162461bcd60e51b8152602060048201526021602482015260008051602061412e8339815191526044820152603760f91b6064820152608401610a1d565b604580546001600160a01b0319166001600160a01b0392909216919091179055565b60455460408051633850c7bd60e01b815290516000926001600160a01b03169183918391633850c7bd9160048083019260e09291908290030181865afa1580156137f6573d6000803e3d6000fd5b505050506040513d601f19601f8201168201806040525081019061381a9190614073565b5190506001600160a01b0381166000600160c01b6138388380613f9a565b61384a90670de0b6b3a7640000613f9a565b6138549190613fb1565b90506000613871826ec097ce7bc90715b34b9f1000000000613fb1565b9695505050505050565b6033546001600160a01b031633146138cd5760405162461bcd60e51b8152602060048201526021602482015260008051602061412e8339815191526044820152603760f91b6064820152608401610a1d565b6138d56139a4565b6040805160e0810182528681526001600160a01b0380871660208084019182528783168486019081526060850188815260808601888152600160a08801818152600060c08a01818152603480548352603e9098529a812099518a55965191890180549289166001600160a01b031993841617905593516002890180549190981691161790955551600386015592516004850155915160058401805491151560ff19909216919091179055925160069092019190915580549161399683613f81565b919050555061175660018055565b6002600154036139f65760405162461bcd60e51b815260206004820152601f60248201527f5265656e7472616e637947756172643a207265656e7472616e742063616c6c006044820152606401610a1d565b6002600155565b60018055565b6000805b603854811015613a6357826001600160a01b031660388281548110613a2e57613a2e613f02565b6000918252602090912001546001600160a01b031603613a515750600192915050565b80613a5b81613f81565b915050613a07565b50600092915050565b600054610100900460ff16613ae95760405162461bcd60e51b815260206004820152602b60248201527f496e697469616c697a61626c653a20636f6e7472616374206973206e6f74206960448201527f6e697469616c697a696e670000000000000000000000000000000000000000006064820152608401610a1d565b613af1613af3565b565b600054610100900460ff166139fd5760405162461bcd60e51b815260206004820152602b60248201527f496e697469616c697a61626c653a20636f6e7472616374206973206e6f74206960448201527f6e697469616c697a696e670000000000000000000000000000000000000000006064820152608401610a1d565b60008060408385031215613b8357600080fd5b50508035926020909101359150565b6001600160a01b0381168114610f1257600080fd5b600060208284031215613bb957600080fd5b813561274181613b92565b600060208284031215613bd657600080fd5b5035919050565b600080600060608486031215613bf257600080fd5b83359250602084013591506040840135613c0b81613b92565b809150509250925092565b60008060408385031215613c2957600080fd5b8235613c3481613b92565b946020939093013593505050565b6020808252825182820181905260009190848201906040850190845b81811015613c835783516001600160a01b031683529284019291840191600101613c5e565b50909695505050505050565b600080600060608486031215613ca457600080fd5b8335613caf81613b92565b95602085013595506040909401359392505050565b600080600060608486031215613cd957600080fd5b8335613ce481613b92565b92506020840135613cf481613b92565b929592945050506040919091013590565b60008060408385031215613d1857600080fd5b8235613d2381613b92565b91506020830135613d3381613b92565b809150509250929050565b8015158114610f1257600080fd5b600060208284031215613d5e57600080fd5b813561274181613d3e565b634e487b7160e01b600052604160045260246000fd5b60405160e0810167ffffffffffffffff81118282101715613da257613da2613d69565b60405290565b604051601f8201601f1916810167ffffffffffffffff81118282101715613dd157613dd1613d69565b604052919050565b60006020808385031215613dec57600080fd5b823567ffffffffffffffff80821115613e0457600080fd5b818501915085601f830112613e1857600080fd5b813581811115613e2a57613e2a613d69565b8060051b9150613e3b848301613da8565b8181529183018401918481019088841115613e5557600080fd5b938501935b83851015613e7f5784359250613e6f83613b92565b8282529385019390850190613e5a565b98975050505050505050565b60008060408385031215613e9e57600080fd5b823591506020830135613d3381613b92565b600080600080600060a08688031215613ec857600080fd5b853594506020860135613eda81613b92565b93506040860135613eea81613b92565b94979396509394606081013594506080013592915050565b634e487b7160e01b600052603260045260246000fd5b634e487b7160e01b600052601160045260246000fd5b8082018082111561123f5761123f613f18565b8051613f4c81613d3e565b919050565b600060208284031215613f6357600080fd5b815161274181613d3e565b8181038181111561123f5761123f613f18565b600060018201613f9357613f93613f18565b5060010190565b808202811582820484141761123f5761123f613f18565b600082613fce57634e487b7160e01b600052601260045260246000fd5b500490565b80516dffffffffffffffffffffffffffff81168114613f4c57600080fd5b805163ffffffff81168114613f4c57600080fd5b60008060006060848603121561401a57600080fd5b61402384613fd3565b925061403160208501613fd3565b915061403f60408501613ff1565b90509250925092565b60006020828403121561405a57600080fd5b5051919050565b805161ffff81168114613f4c57600080fd5b600060e0828403121561408557600080fd5b61408d613d7f565b825161409881613b92565b81526020830151600281900b81146140af57600080fd5b60208201526140c060408401614061565b60408201526140d160608401614061565b60608201526140e260808401614061565b60808201526140f360a08401613ff1565b60a082015261410460c08401613f41565b60c08201529392505050565b60006020828403121561412257600080fd5b815161274181613b9256fe4f6e6c792061646d696e2063616e2063616c6c20746869732066756e6374696fa264697066735822122066eff8f194b79eb75c1a2e5bd8c48e66dec9eb19e1e5a39de452e7ae184f143664736f6c63430008130033",
  "linkReferences": {},
  "deployedLinkReferences": {}
}