{
  "_format": "hh-sol-artifact-1",
  "contractName": "StakingPoolV3",
  "sourceName": "contracts/cgateStaking.sol",
  "abi": [
    {
      "anonymous": false,
      "inputs": [
        {
          "indexed": false,
          "internalType": "string",
          "name": "message",
          "type": "string"
        }
      ],
      "name": "Error",
      "type": "event"
    },
    {
      "anonymous": false,
      "inputs": [
        {
          "indexed": false,
          "internalType": "uint8",
          "name": "version",
          "type": "uint8"
        }
      ],
      "name": "Initialized",
      "type": "event"
    },
    {
      "anonymous": false,
      "inputs": [
        {
          "indexed": true,
          "internalType": "address",
          "name": "newOwner",
          "type": "address"
        }
      ],
      "name": "OwnershipTransferProposed",
      "type": "event"
    },
    {
      "anonymous": false,
      "inputs": [
        {
          "indexed": true,
          "internalType": "address",
          "name": "voter",
          "type": "address"
        },
        {
          "indexed": false,
          "internalType": "bool",
          "name": "approve",
          "type": "bool"
        }
      ],
      "name": "VoteCasted",
      "type": "event"
    },
    {
      "inputs": [],
      "name": "CG8_TOKEN_ADDRESS",
      "outputs": [
        {
          "internalType": "address",
          "name": "",
          "type": "address"
        }
      ],
      "stateMutability": "view",
      "type": "function"
    },
    {
      "inputs": [],
      "name": "PANCAKE_FACTORY_ADDRESS",
      "outputs": [
        {
          "internalType": "address",
          "name": "",
          "type": "address"
        }
      ],
      "stateMutability": "view",
      "type": "function"
    },
    {
      "inputs": [],
      "name": "PANCAKE_ROUTER_ADDRESS",
      "outputs": [
        {
          "internalType": "address",
          "name": "",
          "type": "address"
        }
      ],
      "stateMutability": "view",
      "type": "function"
    },
    {
      "inputs": [],
      "name": "USDC_TOKEN_ADDRESS",
      "outputs": [
        {
          "internalType": "address",
          "name": "",
          "type": "address"
        }
      ],
      "stateMutability": "view",
      "type": "function"
    },
    {
      "inputs": [],
      "name": "admin",
      "outputs": [
        {
          "internalType": "address",
          "name": "",
          "type": "address"
        }
      ],
      "stateMutability": "view",
      "type": "function"
    },
    {
      "inputs": [],
      "name": "cancelOwnershipTransfer",
      "outputs": [],
      "stateMutability": "nonpayable",
      "type": "function"
    },
    {
      "inputs": [
        {
          "internalType": "bool",
          "name": "approve",
          "type": "bool"
        }
      ],
      "name": "castVote",
      "outputs": [],
      "stateMutability": "nonpayable",
      "type": "function"
    },
    {
      "inputs": [
        {
          "internalType": "uint256",
          "name": "poolId",
          "type": "uint256"
        },
        {
          "internalType": "uint256",
          "name": "stakeId",
          "type": "uint256"
        }
      ],
      "name": "claimIndividualReward",
      "outputs": [
        {
          "internalType": "uint256",
          "name": "",
          "type": "uint256"
        }
      ],
      "stateMutability": "nonpayable",
      "type": "function"
    },
    {
      "inputs": [
        {
          "internalType": "uint256",
          "name": "poolId",
          "type": "uint256"
        }
      ],
      "name": "claimReward",
      "outputs": [],
      "stateMutability": "nonpayable",
      "type": "function"
    },
    {
      "inputs": [
        {
          "internalType": "uint256",
          "name": "_timePeriod",
          "type": "uint256"
        },
        {
          "internalType": "address",
          "name": "_stakeToken",
          "type": "address"
        },
        {
          "internalType": "address",
          "name": "_rewardToken",
          "type": "address"
        },
        {
          "internalType": "uint256",
          "name": "_rewardPercent",
          "type": "uint256"
        },
        {
          "internalType": "uint256",
          "name": "_referralRewardPercent",
          "type": "uint256"
        }
      ],
      "name": "createStakingPool",
      "outputs": [],
      "stateMutability": "nonpayable",
      "type": "function"
    },
    {
      "inputs": [],
      "name": "finalizeOwnershipTransfer",
      "outputs": [],
      "stateMutability": "nonpayable",
      "type": "function"
    },
    {
      "inputs": [],
      "name": "getCurrentCgatePrice",
      "outputs": [
        {
          "internalType": "uint256",
          "name": "",
          "type": "uint256"
        }
      ],
      "stateMutability": "view",
      "type": "function"
    },
    {
      "inputs": [
        {
          "internalType": "address",
          "name": "tokenA",
          "type": "address"
        },
        {
          "internalType": "address",
          "name": "tokenB",
          "type": "address"
        }
      ],
      "name": "getPair",
      "outputs": [
        {
          "internalType": "address",
          "name": "",
          "type": "address"
        }
      ],
      "stateMutability": "view",
      "type": "function"
    },
    {
      "inputs": [
        {
          "internalType": "uint256",
          "name": "poolId",
          "type": "uint256"
        },
        {
          "internalType": "uint256",
          "name": "stakeId",
          "type": "uint256"
        },
        {
          "internalType": "address",
          "name": "user",
          "type": "address"
        }
      ],
      "name": "getPendingReward",
      "outputs": [
        {
          "internalType": "uint256",
          "name": "",
          "type": "uint256"
        }
      ],
      "stateMutability": "view",
      "type": "function"
    },
    {
      "inputs": [],
      "name": "getPrice",
      "outputs": [
        {
          "internalType": "uint256",
          "name": "",
          "type": "uint256"
        }
      ],
      "stateMutability": "view",
      "type": "function"
    },
    {
      "inputs": [
        {
          "internalType": "address",
          "name": "pair",
          "type": "address"
        }
      ],
      "name": "getReserves",
      "outputs": [
        {
          "internalType": "uint112",
          "name": "reserve0",
          "type": "uint112"
        },
        {
          "internalType": "uint112",
          "name": "reserve1",
          "type": "uint112"
        }
      ],
      "stateMutability": "view",
      "type": "function"
    },
    {
      "inputs": [
        {
          "internalType": "uint256",
          "name": "poolId",
          "type": "uint256"
        },
        {
          "internalType": "address",
          "name": "user",
          "type": "address"
        }
      ],
      "name": "getTotalPendingRewardsForPool",
      "outputs": [
        {
          "internalType": "uint256",
          "name": "",
          "type": "uint256"
        }
      ],
      "stateMutability": "view",
      "type": "function"
    },
    {
      "inputs": [],
      "name": "getTotalPoolsCount",
      "outputs": [
        {
          "internalType": "uint256",
          "name": "",
          "type": "uint256"
        }
      ],
      "stateMutability": "view",
      "type": "function"
    },
    {
      "inputs": [
        {
          "internalType": "address",
          "name": "",
          "type": "address"
        }
      ],
      "name": "hasVoted",
      "outputs": [
        {
          "internalType": "bool",
          "name": "",
          "type": "bool"
        }
      ],
      "stateMutability": "view",
      "type": "function"
    },
    {
      "inputs": [
        {
          "internalType": "address[]",
          "name": "_initialVoters",
          "type": "address[]"
        }
      ],
      "name": "initialize",
      "outputs": [],
      "stateMutability": "nonpayable",
      "type": "function"
    },
    {
      "inputs": [],
      "name": "poolAddress",
      "outputs": [
        {
          "internalType": "address",
          "name": "",
          "type": "address"
        }
      ],
      "stateMutability": "view",
      "type": "function"
    },
    {
      "inputs": [
        {
          "internalType": "uint256",
          "name": "",
          "type": "uint256"
        }
      ],
      "name": "pools",
      "outputs": [
        {
          "internalType": "uint256",
          "name": "timePeriod",
          "type": "uint256"
        },
        {
          "internalType": "address",
          "name": "stakeToken",
          "type": "address"
        },
        {
          "internalType": "address",
          "name": "rewardToken",
          "type": "address"
        },
        {
          "internalType": "uint256",
          "name": "rewardPercentPerStakedTokenPerYear",
          "type": "uint256"
        },
        {
          "internalType": "uint256",
          "name": "referralRewardPercent",
          "type": "uint256"
        },
        {
          "internalType": "bool",
          "name": "isActive",
          "type": "bool"
        },
        {
          "internalType": "uint256",
          "name": "totalStakes",
          "type": "uint256"
        }
      ],
      "stateMutability": "view",
      "type": "function"
    },
    {
      "inputs": [
        {
          "internalType": "address",
          "name": "newOwner",
          "type": "address"
        }
      ],
      "name": "proposeOwnershipTransfer",
      "outputs": [],
      "stateMutability": "nonpayable",
      "type": "function"
    },
    {
      "inputs": [],
      "name": "proposedOwner",
      "outputs": [
        {
          "internalType": "address",
          "name": "",
          "type": "address"
        }
      ],
      "stateMutability": "view",
      "type": "function"
    },
    {
      "inputs": [
        {
          "internalType": "address",
          "name": "",
          "type": "address"
        }
      ],
      "name": "referrers",
      "outputs": [
        {
          "internalType": "address",
          "name": "",
          "type": "address"
        }
      ],
      "stateMutability": "view",
      "type": "function"
    },
    {
      "inputs": [
        {
          "internalType": "address",
          "name": "newAdmin",
          "type": "address"
        }
      ],
      "name": "setAdmin",
      "outputs": [],
      "stateMutability": "nonpayable",
      "type": "function"
    },
    {
      "inputs": [
        {
          "internalType": "address",
          "name": "_cg8Address",
          "type": "address"
        }
      ],
      "name": "setCg8Address",
      "outputs": [],
      "stateMutability": "nonpayable",
      "type": "function"
    },
    {
      "inputs": [
        {
          "internalType": "address",
          "name": "_factory",
          "type": "address"
        }
      ],
      "name": "setFactory",
      "outputs": [],
      "stateMutability": "nonpayable",
      "type": "function"
    },
    {
      "inputs": [
        {
          "internalType": "address",
          "name": "_poolAddress",
          "type": "address"
        }
      ],
      "name": "setPoolAddress",
      "outputs": [],
      "stateMutability": "nonpayable",
      "type": "function"
    },
    {
      "inputs": [
        {
          "internalType": "uint256",
          "name": "poolId",
          "type": "uint256"
        },
        {
          "internalType": "uint256",
          "name": "newPercentInBIPS",
          "type": "uint256"
        }
      ],
      "name": "setReferralRewardPercent",
      "outputs": [],
      "stateMutability": "nonpayable",
      "type": "function"
    },
    {
      "inputs": [
        {
          "internalType": "uint256",
          "name": "poolId",
          "type": "uint256"
        },
        {
          "internalType": "uint256",
          "name": "_newRewardPercentInBIPS",
          "type": "uint256"
        }
      ],
      "name": "setRewardPercent",
      "outputs": [],
      "stateMutability": "nonpayable",
      "type": "function"
    },
    {
      "inputs": [
        {
          "internalType": "uint256",
          "name": "poolId",
          "type": "uint256"
        },
        {
          "internalType": "address",
          "name": "_newRewardToken",
          "type": "address"
        }
      ],
      "name": "setRewardToken",
      "outputs": [],
      "stateMutability": "nonpayable",
      "type": "function"
    },
    {
      "inputs": [
        {
          "internalType": "address",
          "name": "_router",
          "type": "address"
        }
      ],
      "name": "setRouter",
      "outputs": [],
      "stateMutability": "nonpayable",
      "type": "function"
    },
    {
      "inputs": [
        {
          "internalType": "address",
          "name": "_referrer",
          "type": "address"
        },
        {
          "internalType": "uint256",
          "name": "_percentInBIPS",
          "type": "uint256"
        }
      ],
      "name": "setSpecialReferrerRewardPercent",
      "outputs": [],
      "stateMutability": "nonpayable",
      "type": "function"
    },
    {
      "inputs": [
        {
          "internalType": "uint256",
          "name": "poolId",
          "type": "uint256"
        },
        {
          "internalType": "uint256",
          "name": "_newTimePeriod",
          "type": "uint256"
        }
      ],
      "name": "setTimePeriod",
      "outputs": [],
      "stateMutability": "nonpayable",
      "type": "function"
    },
    {
      "inputs": [
        {
          "internalType": "address",
          "name": "_usdcAddress",
          "type": "address"
        }
      ],
      "name": "setUSDCAddress",
      "outputs": [],
      "stateMutability": "nonpayable",
      "type": "function"
    },
    {
      "inputs": [
        {
          "internalType": "address",
          "name": "",
          "type": "address"
        }
      ],
      "name": "signers",
      "outputs": [
        {
          "internalType": "bool",
          "name": "",
          "type": "bool"
        }
      ],
      "stateMutability": "view",
      "type": "function"
    },
    {
      "inputs": [
        {
          "internalType": "address",
          "name": "",
          "type": "address"
        }
      ],
      "name": "specialReferrersPercents",
      "outputs": [
        {
          "internalType": "uint256",
          "name": "",
          "type": "uint256"
        }
      ],
      "stateMutability": "view",
      "type": "function"
    },
    {
      "inputs": [
        {
          "internalType": "uint256",
          "name": "poolId",
          "type": "uint256"
        },
        {
          "internalType": "uint256",
          "name": "_amount",
          "type": "uint256"
        },
        {
          "internalType": "address",
          "name": "referrer",
          "type": "address"
        }
      ],
      "name": "stake",
      "outputs": [],
      "stateMutability": "nonpayable",
      "type": "function"
    },
    {
      "inputs": [
        {
          "internalType": "uint256",
          "name": "poolId",
          "type": "uint256"
        }
      ],
      "name": "togglePoolStatus",
      "outputs": [],
      "stateMutability": "nonpayable",
      "type": "function"
    },
    {
      "inputs": [
        {
          "internalType": "address",
          "name": "user",
          "type": "address"
        },
        {
          "internalType": "uint256",
          "name": "poolId",
          "type": "uint256"
        }
      ],
      "name": "totalStakeCount",
      "outputs": [
        {
          "internalType": "uint256",
          "name": "count",
          "type": "uint256"
        }
      ],
      "stateMutability": "view",
      "type": "function"
    },
    {
      "inputs": [
        {
          "internalType": "address",
          "name": "user",
          "type": "address"
        },
        {
          "internalType": "uint256",
          "name": "poolId",
          "type": "uint256"
        }
      ],
      "name": "totalUnstakeAllowed",
      "outputs": [
        {
          "internalType": "uint256",
          "name": "totalWithdrawable",
          "type": "uint256"
        }
      ],
      "stateMutability": "view",
      "type": "function"
    },
    {
      "inputs": [
        {
          "internalType": "uint256",
          "name": "poolId",
          "type": "uint256"
        }
      ],
      "name": "unStake",
      "outputs": [],
      "stateMutability": "nonpayable",
      "type": "function"
    },
    {
      "inputs": [
        {
          "internalType": "uint256",
          "name": "poolId",
          "type": "uint256"
        },
        {
          "internalType": "uint256",
          "name": "_stakeId",
          "type": "uint256"
        }
      ],
      "name": "unStakeIndividual",
      "outputs": [],
      "stateMutability": "nonpayable",
      "type": "function"
    },
    {
      "inputs": [
        {
          "internalType": "uint256",
          "name": "newPrice",
          "type": "uint256"
        }
      ],
      "name": "updateCurrentCgatePrice",
      "outputs": [],
      "stateMutability": "nonpayable",
      "type": "function"
    },
    {
      "inputs": [
        {
          "internalType": "address",
          "name": "",
          "type": "address"
        },
        {
          "internalType": "uint256",
          "name": "",
          "type": "uint256"
        },
        {
          "internalType": "uint256",
          "name": "",
          "type": "uint256"
        }
      ],
      "name": "userStakes",
      "outputs": [
        {
          "internalType": "uint256",
          "name": "amount",
          "type": "uint256"
        },
        {
          "internalType": "uint256",
          "name": "lastWithdrawTimestamp",
          "type": "uint256"
        },
        {
          "internalType": "uint256",
          "name": "rewardWithdrawnTillNow",
          "type": "uint256"
        },
        {
          "internalType": "uint256",
          "name": "stakeTime",
          "type": "uint256"
        },
        {
          "internalType": "address",
          "name": "referrer",
          "type": "address"
        },
        {
          "internalType": "uint256",
          "name": "depositedValueInDollars",
          "type": "uint256"
        }
      ],
      "stateMutability": "view",
      "type": "function"
    },
    {
      "inputs": [
        {
          "internalType": "address",
          "name": "",
          "type": "address"
        }
      ],
      "name": "users",
      "outputs": [
        {
          "internalType": "uint256",
          "name": "totalStaked",
          "type": "uint256"
        },
        {
          "internalType": "uint256",
          "name": "activeStakes",
          "type": "uint256"
        },
        {
          "internalType": "uint256",
          "name": "totalRewardWithdrawnTillNow",
          "type": "uint256"
        },
        {
          "internalType": "uint256",
          "name": "referralIncomeWithdrawnTillNow",
          "type": "uint256"
        },
        {
          "internalType": "uint256",
          "name": "totalReferrers",
          "type": "uint256"
        }
      ],
      "stateMutability": "view",
      "type": "function"
    },
    {
      "inputs": [
        {
          "internalType": "address",
          "name": "",
          "type": "address"
        },
        {
          "internalType": "uint256",
          "name": "",
          "type": "uint256"
        }
      ],
      "name": "usersStakesPerPool",
      "outputs": [
        {
          "internalType": "uint256",
          "name": "",
          "type": "uint256"
        }
      ],
      "stateMutability": "view",
      "type": "function"
    },
    {
      "inputs": [
        {
          "internalType": "uint256",
          "name": "",
          "type": "uint256"
        }
      ],
      "name": "voters",
      "outputs": [
        {
          "internalType": "address",
          "name": "",
          "type": "address"
        }
      ],
      "stateMutability": "view",
      "type": "function"
    },
    {
      "inputs": [
        {
          "internalType": "address",
          "name": "receiver",
          "type": "address"
        },
        {
          "internalType": "contract IERC20",
          "name": "_token",
          "type": "address"
        }
      ],
      "name": "withdrawDumpToken",
      "outputs": [],
      "stateMutability": "nonpayable",
      "type": "function"
    },
    {
      "inputs": [
        {
          "internalType": "address payable",
          "name": "_receiver",
          "type": "address"
        }
      ],
      "name": "withdrawEth",
      "outputs": [],
      "stateMutability": "nonpayable",
      "type": "function"
    }
  ],
  "bytecode": "0x608060405234801561001057600080fd5b50613d35806100206000396000f3fe608060405234801561001057600080fd5b50600436106103415760003560e01c806399672158116101bd578063c0d78655116100f9578063dbe4a261116100a2578063e9e15b4f1161007c578063e9e15b4f1461085e578063f851a44014610871578063fa8f683e14610884578063fb58d2cf146108ba57600080fd5b8063dbe4a26114610818578063e6a439051461082b578063e7ee12331461083e57600080fd5b8063c79bdb46116100d3578063c79bdb46146107df578063d153b60c146107f2578063da58c7d91461080557600080fd5b8063c0d78655146107a6578063c114fcfa146107b9578063c57830cd146107cc57600080fd5b8063ae169a5011610166578063b820a1cd11610140578063b820a1cd14610765578063bdd13d4a14610778578063bf2ce8081461078b578063bf41c2a41461079e57600080fd5b8063ae169a5014610714578063b3d673d814610727578063b401cdca1461073a57600080fd5b8063a87430ba11610197578063a87430ba146105fe578063aaf5bfc314610663578063ac4afa381461067657600080fd5b806399672158146105c55780639dda7fee146105d8578063a224cee7146105eb57600080fd5b8063509173a11161028c578063736c0d5b116102355780637ade26421161020f5780637ade26421461059a5780637b542a2a146105a2578063855c5d46146105b557806398d5fdca146105bd57600080fd5b8063736c0d5b146105515780637628a37d146105745780637ace48e71461058757600080fd5b80635d3eea91116102665780635d3eea91146105185780636b38e0491461052b578063704b6c021461053e57600080fd5b8063509173a1146104df57806357a8773e146104f25780635bb478081461050557600080fd5b806325e16063116102ee57806334144b0f116102c857806334144b0f146104335780633e99c1e41461047c5780634a3b68cc146104b657600080fd5b806325e16063146103ec57806328ac7c51146103ff57806329a166161461041257600080fd5b806321040fc31161031f57806321040fc3146103be578063216b31c1146103d157806323452b9c146103e457600080fd5b8063047ac00e1461034657806309eef43e1461035b5780631755ff2114610393575b600080fd5b61035961035436600461370d565b6108cd565b005b61037e610369366004613754565b60396020526000908152604090205460ff1681565b60405190151581526020015b60405180910390f35b6045546103a6906001600160a01b031681565b6040516001600160a01b03909116815260200161038a565b6103596103cc366004613754565b610b88565b6103596103df366004613771565b610c7a565b610359610d31565b6103596103fa366004613754565b610e02565b603a546103a6906001600160a01b031681565b61042561042036600461378a565b610ef1565b60405190815260200161038a565b6104466104413660046137c3565b6110b2565b6040805196875260208701959095529385019290925260608401526001600160a01b0316608083015260a082015260c00161038a565b61048f61048a366004613754565b61111c565b604080516dffffffffffffffffffffffffffff93841681529290911660208301520161038a565b6103a66104c4366004613754565b6040602081905260009182529020546001600160a01b031681565b603d546103a6906001600160a01b031681565b610359610500366004613754565b611191565b610359610513366004613754565b611205565b610359610526366004613771565b611279565b61042561053936600461370d565b611567565b61035961054c366004613754565b611963565b61037e61055f366004613754565b60446020526000908152604090205460ff1681565b61035961058236600461378a565b6119d7565b610359610595366004613806565b611e1c565b610425611f2a565b6103596105b0366004613771565b61202c565b603454610425565b610425612083565b6103596105d3366004613823565b612149565b6104256105e636600461385c565b6122c3565b6103596105f936600461389e565b6123f3565b61063b61060c366004613754565b604260205260009081526040902080546001820154600283015460038401546004909401549293919290919085565b604080519586526020860194909452928401919091526060830152608082015260a00161038a565b610359610671366004613754565b612620565b6106d1610684366004613771565b603e60205260009081526040902080546001820154600283015460038401546004850154600586015460069096015494956001600160a01b039485169593909416939192909160ff169087565b604080519788526001600160a01b039687166020890152949095169386019390935260608501919091526080840152151560a083015260c082015260e00161038a565b610359610722366004613771565b612694565b603c546103a6906001600160a01b031681565b61042561074836600461385c565b604360209081526000928352604080842090915290825290205481565b61035961077336600461370d565b612ad0565b610359610786366004613963565b612c1f565b61035961079936600461370d565b612d96565b610359612e98565b6103596107b4366004613754565b613042565b6104256107c7366004613963565b6130b6565b603b546103a6906001600160a01b031681565b6103596107ed36600461370d565b61310f565b6037546103a6906001600160a01b031681565b6103a6610813366004613771565b613271565b61035961082636600461385c565b61329b565b6103a6610839366004613823565b613309565b61042561084c366004613754565b60416020526000908152604090205481565b61035961086c366004613754565b6133a4565b6033546103a6906001600160a01b031681565b61042561089236600461385c565b6001600160a01b03919091166000908152603f60209081526040808320938352929052205490565b6103596108c8366004613988565b613418565b8160345481106109135760405162461bcd60e51b815260206004820152600c60248201526b125b9d985b1a5908141bdbdb60a21b60448201526064015b60405180910390fd5b6000838152603e6020526040902060050154839060ff1661096b5760405162461bcd60e51b8152602060048201526012602482015271506f6f6c204973204e6f742041637469766560701b604482015260640161090a565b336000908152603f602090815260408083208784529091528120805485908110610997576109976139da565b60009182526020808320888452603e9091526040909220600690910290910191508054600383015442916109ca91613a06565b811015610a195760405162461bcd60e51b815260206004820152601660248201527f54696d6520706572696f64206e6f742070617373656400000000000000000000604482015260640161090a565b610a238787611567565b506001838101829055820154835460405163a9059cbb60e01b815233600482015260248101919091526001600160a01b039091169063a9059cbb906044016020604051808303816000875af1158015610a80573d6000803e3d6000fd5b505050506040513d601f19601f82011682018060405250810190610aa49190613a19565b610af05760405162461bcd60e51b815260206004820152601c60248201527f5374616b656420746f6b656e207472616e73666572206661696c656400000000604482015260640161090a565b82543360009081526042602052604081206001018054909190610b14908490613a36565b909155505082543360009081526043602090815260408083208b845290915281208054909190610b45908490613a36565b909155505082546000888152603e602052604081206006018054909190610b6d908490613a36565b90915550506000808455600590930192909255505050505050565b6033546001600160a01b03163314610bda5760405162461bcd60e51b81526020600482015260216024820152600080516020613ce08339815191526044820152603760f91b606482015260840161090a565b6001600160a01b038116610c305760405162461bcd60e51b815260206004820181905260248201527f4e6577206f776e65722063616e6e6f74206265207a65726f2061646472657373604482015260640161090a565b603780546001600160a01b0319166001600160a01b0383169081179091556040517ff0c6916d81cd1f899264b5193e3bbe7afd2bcc3d05704bab73d0b8ac9387115890600090a250565b6033546001600160a01b03163314610ccc5760405162461bcd60e51b81526020600482015260216024820152600080516020613ce08339815191526044820152603760f91b606482015260840161090a565b806034548110610d0d5760405162461bcd60e51b815260206004820152600c60248201526b125b9d985b1a5908141bdbdb60a21b604482015260640161090a565b506000908152603e60205260409020600501805460ff19811660ff90911615179055565b6033546001600160a01b03163314610d835760405162461bcd60e51b81526020600482015260216024820152600080516020613ce08339815191526044820152603760f91b606482015260840161090a565b603780546001600160a01b031916905560005b603854811015610dff5760006039600060388481548110610db957610db96139da565b6000918252602080832091909101546001600160a01b031683528201929092526040019020805460ff191691151591909117905580610df781613a49565b915050610d96565b50565b6033546001600160a01b03163314610e545760405162461bcd60e51b81526020600482015260216024820152600080516020613ce08339815191526044820152603760f91b606482015260840161090a565b610e5c613541565b6001600160a01b038116610eb25760405162461bcd60e51b815260206004820152600f60248201527f496e76616c696420616464726573730000000000000000000000000000000000604482015260640161090a565b6040516001600160a01b038216904780156108fc02916000818181858888f19350505050158015610ee7573d6000803e3d6000fd5b50610dff60018055565b6000836034548110610f345760405162461bcd60e51b815260206004820152600c60248201526b125b9d985b1a5908141bdbdb60a21b604482015260640161090a565b6000858152603e6020526040902060050154859060ff16610f8c5760405162461bcd60e51b8152602060048201526012602482015271506f6f6c204973204e6f742041637469766560701b604482015260640161090a565b6001600160a01b0384166000908152603f602090815260408083208984529091529020548510610ffe5760405162461bcd60e51b815260206004820152600f60248201527f55736572204e6f74205374616b65640000000000000000000000000000000000604482015260640161090a565b6001600160a01b0384166000908152603f602090815260408083208984529091528120805487908110611033576110336139da565b600091825260208083208a8452603e90915260408320600692909202016001810154909350909142916110669083613a36565b9050600060355461271085600301548488600501546110859190613a62565b61108f9190613a62565b6110999190613a79565b6110a39190613a79565b9b9a5050505050505050505050565b603f60205282600052604060002060205281600052604060002081815481106110da57600080fd5b60009182526020909120600690910201805460018201546002830154600384015460048501546005909501549397509195509350916001600160a01b03169086565b600080600080846001600160a01b0316630902f1ac6040518163ffffffff1660e01b8152600401606060405180830381865afa158015611160573d6000803e3d6000fd5b505050506040513d601f19601f820116820180604052508101906111849190613ab9565b5090969095509350505050565b6033546001600160a01b031633146111e35760405162461bcd60e51b81526020600482015260216024820152600080516020613ce08339815191526044820152603760f91b606482015260840161090a565b603b80546001600160a01b0319166001600160a01b0392909216919091179055565b6033546001600160a01b031633146112575760405162461bcd60e51b81526020600482015260216024820152600080516020613ce08339815191526044820152603760f91b606482015260840161090a565b603d80546001600160a01b0319166001600160a01b0392909216919091179055565b8060345481106112ba5760405162461bcd60e51b815260206004820152600c60248201526b125b9d985b1a5908141bdbdb60a21b604482015260640161090a565b6000828152603e6020526040902060050154829060ff166113125760405162461bcd60e51b8152602060048201526012602482015271506f6f6c204973204e6f742041637469766560701b604482015260640161090a565b6000838152603e60205260408120815b336000908152603f6020908152604080832089845290915290205481101561144057336000908152603f602090815260408083208984529091528120805483908110611370576113706139da565b906000526020600020906006020190506000429050836000015482600301546113999190613a06565b811061142b5781546113ab9086613a06565b94506113b78884611567565b50600080835560018301829055338152603f602090815260408083208b845290915290208054849081106113ed576113ed6139da565b6000918252602082206006909102018181556001810182905560028101829055600381018290556004810180546001600160a01b0319169055600501555b5050808061143890613a49565b915050611322565b503360009081526042602052604081206001018054849290611463908490613a36565b909155505033600090815260436020908152604080832088845290915281208054849290611492908490613a36565b9091555050811561156057600181015460405163a9059cbb60e01b8152336004820152602481018490526001600160a01b039091169063a9059cbb906044016020604051808303816000875af11580156114f0573d6000803e3d6000fd5b505050506040513d601f19601f820116820180604052508101906115149190613a19565b6115605760405162461bcd60e51b815260206004820152601c60248201527f5374616b656420746f6b656e207472616e73666572206661696c656400000000604482015260640161090a565b5050505050565b60008260345481106115aa5760405162461bcd60e51b815260206004820152600c60248201526b125b9d985b1a5908141bdbdb60a21b604482015260640161090a565b6000848152603e6020526040902060050154849060ff166116025760405162461bcd60e51b8152602060048201526012602482015271506f6f6c204973204e6f742041637469766560701b604482015260640161090a565b336000908152603f60209081526040808320888452909152812080548690811061162e5761162e6139da565b60009182526020808320898452603e9091526040832060069092020180549093509091036116615760009450505061195b565b42600061166f898933610ef1565b9050801561195657600283015460405163a9059cbb60e01b8152336004820152602481018390526001600160a01b039091169063a9059cbb906044016020604051808303816000875af11580156116ca573d6000803e3d6000fd5b505050506040513d601f19601f820116820180604052508101906116ee9190613a19565b61173a5760405162461bcd60e51b815260206004820152601660248201527f526577617264207472616e73666572206661696c656400000000000000000000604482015260640161090a565b60048401546001600160a01b03161561190657600480840154908501546001600160a01b031660009081526041602052604090205415611793575060048401546001600160a01b03166000908152604160205260409020545b60006127106117a28385613a62565b6117ac9190613a79565b11156118b957600284015460048601546001600160a01b039182169163a9059cbb91166127106117dc8587613a62565b6117e69190613a79565b6040517fffffffff0000000000000000000000000000000000000000000000000000000060e085901b1681526001600160a01b03909216600483015260248201526044016020604051808303816000875af1158015611849573d6000803e3d6000fd5b505050506040513d601f19601f8201168201806040525081019061186d9190613a19565b6118b95760405162461bcd60e51b815260206004820152601f60248201527f526566657272616c20526577617264207472616e73666572206661696c656400604482015260640161090a565b6127106118c68284613a62565b6118d09190613a79565b60048601546001600160a01b0316600090815260426020526040812060030180549091906118ff908490613a06565b9091555050505b3360009081526042602052604081206002018054839290611928908490613a06565b92505081905550808460020160008282546119439190613a06565b909155505060019093015550925061195b565b505050505b505092915050565b6033546001600160a01b031633146119b55760405162461bcd60e51b81526020600482015260216024820152600080516020613ce08339815191526044820152603760f91b606482015260840161090a565b603380546001600160a01b0319166001600160a01b0392909216919091179055565b826034548110611a185760405162461bcd60e51b815260206004820152600c60248201526b125b9d985b1a5908141bdbdb60a21b604482015260640161090a565b6000848152603e6020526040902060050154849060ff16611a705760405162461bcd60e51b8152602060048201526012602482015271506f6f6c204973204e6f742041637469766560701b604482015260640161090a565b60008411611ac05760405162461bcd60e51b815260206004820152601d60248201527f416d6f756e74206d7573742062652067726561746572207468616e2030000000604482015260640161090a565b6001600160a01b0383163303611b185760405162461bcd60e51b815260206004820152601860248201527f596f752063616e277420726566657220796f757273656c660000000000000000604482015260640161090a565b6000858152603e602052604090819020600181015491517f23b872dd0000000000000000000000000000000000000000000000000000000081523360048201523060248201526044810187905290916001600160a01b0316906323b872dd906064016020604051808303816000875af1158015611b99573d6000803e3d6000fd5b505050506040513d601f19601f82011682018060405250810190611bbd9190613a19565b611c095760405162461bcd60e51b815260206004820152601560248201527f546f6b656e207472616e73666572206661696c65640000000000000000000000604482015260640161090a565b336000908152603f602090815260408083208984528252808320815160c081018352898152429381018490529182019390935260608101919091526001600160a01b038616608082015260a08101670de0b6b3a7640000611c68612083565b611c72908a613a62565b611c7c9190613a79565b90528154600180820184556000938452602080852084516006948502909101908155848201519281019290925560408085015160028401556060850151600384015560808501516004840180546001600160a01b0319166001600160a01b0390921691909117905560a090940151600590920191909155898452603e9052908220018054879290611d0e908490613a06565b90915550506040805160a081018252336000908152604260205291909120548190611d3a908890613a06565b815233600090815260426020908152604090912060010154910190611d60908890613a06565b815233600081815260426020818152604080842060028101805484890152600382018054848a0152606098890187905296865293835287518155878301516001820155878201519093559486015190935560809094015160049094019390935560438152818320898452905281208054879290611dde908490613a06565b90915550506001600160a01b0384166000908152604260205260408120600401805460019290611e0f908490613a06565b9091555050505050505050565b611e25336135a0565b611e715760405162461bcd60e51b815260206004820152601160248201527f4e6f7420612076616c696420766f746572000000000000000000000000000000604482015260640161090a565b3360009081526039602052604090205460ff1615611ed15760405162461bcd60e51b815260206004820152600d60248201527f416c726561647920766f74656400000000000000000000000000000000000000604482015260640161090a565b3360008181526039602052604090819020805460ff19166001179055517fa4861c5510bfa99706ed508d728f9c6b365ff27af1a3012e21980952ad2d844f90611f1f90841515815260200190565b60405180910390a250565b603b54603c546000918291611f4b916001600160a01b039081169116613309565b90506001600160a01b038116611f6357600091505090565b600080611f6f8361111c565b603a546040517f85f8c259000000000000000000000000000000000000000000000000000000008152670de0b6b3a764000060048201526dffffffffffffffffffffffffffff8084166024830152841660448201529294509092506000916001600160a01b03909116906385f8c25990606401602060405180830381865afa158015611fff573d6000803e3d6000fd5b505050506040513d601f19601f820116820180604052508101906120239190613afe565b95945050505050565b6033546001600160a01b0316331461207e5760405162461bcd60e51b81526020600482015260216024820152600080516020613ce08339815191526044820152603760f91b606482015260840161090a565b603655565b604554604080517f3850c7bd00000000000000000000000000000000000000000000000000000000815290516000926001600160a01b03169183918391633850c7bd9160048083019260e09291908290030181865afa1580156120ea573d6000803e3d6000fd5b505050506040513d601f19601f8201168201806040525081019061210e9190613b29565b505050505050905060c06002826001600160a01b031661212e9190613cac565b61214090670de0b6b3a7640000613a62565b901c9250505090565b6033546001600160a01b0316331461219b5760405162461bcd60e51b81526020600482015260216024820152600080516020613ce08339815191526044820152603760f91b606482015260840161090a565b6121a3613541565b6040517f70a082310000000000000000000000000000000000000000000000000000000081523060048201526001600160a01b0382169063a9059cbb90849083906370a0823190602401602060405180830381865afa15801561220a573d6000803e3d6000fd5b505050506040513d601f19601f8201168201806040525081019061222e9190613afe565b6040517fffffffff0000000000000000000000000000000000000000000000000000000060e085901b1681526001600160a01b03909216600483015260248201526044016020604051808303816000875af1158015612291573d6000803e3d6000fd5b505050506040513d601f19601f820116820180604052508101906122b59190613a19565b506122bf60018055565b5050565b6001600160a01b03821660009081526043602090815260408083208484529091528120548190156123ea5760005b6001600160a01b0385166000908152603f602090815260408083208784529091529020548110156123e8576000848152603e60209081526040808320546001600160a01b0389168452603f835281842088855290925290912080544292919084908110612360576123606139da565b90600052602060002090600602016003015461237c9190613a06565b116123d6576001600160a01b0385166000908152603f6020908152604080832087845290915290208054829081106123b6576123b66139da565b906000526020600020906006020160000154826123d39190613a06565b91505b806123e081613a49565b9150506122f1565b505b90505b92915050565b600054610100900460ff16158080156124135750600054600160ff909116105b8061242d5750303b15801561242d575060005460ff166001145b61249f5760405162461bcd60e51b815260206004820152602e60248201527f496e697469616c697a61626c653a20636f6e747261637420697320616c72656160448201527f647920696e697469616c697a6564000000000000000000000000000000000000606482015260840161090a565b6000805460ff1916600117905580156124c2576000805461ff0019166101001790555b6124ca613609565b603380546001600160a01b031990811633179091556301e1338060355564e8d4a51000603655603a80548216739ac64cc6e4415144c455bd8e4837fea55603e5c3179055603b80548216739f7b09eb38ed912ab5932dccad0b1f501abfe6fd179055603c8054821673d1fac5ff5d03b70d3383909692d09fc6d97c8219179055603d805490911673b7926c0430afb07aa7defde6da862ae0bde767bc17905560005b82518110156125d6576038838281518110612589576125896139da565b60209081029190910181015182546001810184556000938452919092200180546001600160a01b0319166001600160a01b03909216919091179055806125ce81613a49565b91505061256c565b5080156122bf576000805461ff0019169055604051600181527f7f26b83ff96e1f2b6a682f133852f6798a09c465da95921460cefb38474024989060200160405180910390a15050565b6033546001600160a01b031633146126725760405162461bcd60e51b81526020600482015260216024820152600080516020613ce08339815191526044820152603760f91b606482015260840161090a565b603c80546001600160a01b0319166001600160a01b0392909216919091179055565b8060345481106126d55760405162461bcd60e51b815260206004820152600c60248201526b125b9d985b1a5908141bdbdb60a21b604482015260640161090a565b6126dd613541565b6000828152603e6020526040902060050154829060ff166127355760405162461bcd60e51b8152602060048201526012602482015271506f6f6c204973204e6f742041637469766560701b604482015260640161090a565b6000838152603e6020526040812090805b336000908152603f602090815260408083208984529091529020548110156129fa57336000908152603f602090815260408083208984529091528120805483908110612794576127946139da565b906000526020600020906006020190506000816000015411156129e7574260006127bf898533610ef1565b60048401549091506001600160a01b03161561298f57600480870154908401546001600160a01b03166000908152604160205260409020541561281b575060048301546001600160a01b03166000908152604160205260409020545b600061271061282a8385613a62565b6128349190613a79565b111561298d57600287015460048501546001600160a01b039182169163a9059cbb91166127106128648587613a62565b61286e9190613a79565b6040517fffffffff0000000000000000000000000000000000000000000000000000000060e085901b1681526001600160a01b03909216600483015260248201526044016020604051808303816000875af11580156128d1573d6000803e3d6000fd5b505050506040513d601f19601f820116820180604052508101906128f59190613a19565b6129415760405162461bcd60e51b815260206004820152601f60248201527f526566657272616c20526577617264207472616e73666572206661696c656400604482015260640161090a565b61271061294e8284613a62565b6129589190613a79565b60048501546001600160a01b031660009081526042602052604081206003018054909190612987908490613a06565b90915550505b505b33600090815260426020526040812060020180548392906129b1908490613a06565b92505081905550808360020160008282546129cc9190613a06565b9091555050600183018290556129e28186613a06565b945050505b50806129f281613a49565b915050612746565b508015612ac457600282015460405163a9059cbb60e01b8152336004820152602481018390526001600160a01b039091169063a9059cbb906044016020604051808303816000875af1158015612a54573d6000803e3d6000fd5b505050506040513d601f19601f82011682018060405250810190612a789190613a19565b612ac45760405162461bcd60e51b815260206004820152601660248201527f526577617264207472616e73666572206661696c656400000000000000000000604482015260640161090a565b5050506122bf60018055565b6033546001600160a01b03163314612b225760405162461bcd60e51b81526020600482015260216024820152600080516020613ce08339815191526044820152603760f91b606482015260840161090a565b816034548110612b635760405162461bcd60e51b815260206004820152600c60248201526b125b9d985b1a5908141bdbdb60a21b604482015260640161090a565b6000838152603e6020526040902060050154839060ff16612bbb5760405162461bcd60e51b8152602060048201526012602482015271506f6f6c204973204e6f742041637469766560701b604482015260640161090a565b600084118015612bcd57506034548411155b612c0b5760405162461bcd60e51b815260206004820152600f60248201526e125b9d985b1a59081c1bdbdb081251608a1b604482015260640161090a565b50506000918252603e602052604090912055565b6033546001600160a01b03163314612c715760405162461bcd60e51b81526020600482015260216024820152600080516020613ce08339815191526044820152603760f91b606482015260840161090a565b612c79613541565b816034548110612cba5760405162461bcd60e51b815260206004820152600c60248201526b125b9d985b1a5908141bdbdb60a21b604482015260640161090a565b6000838152603e6020526040902060050154839060ff16612d125760405162461bcd60e51b8152602060048201526012602482015271506f6f6c204973204e6f742041637469766560701b604482015260640161090a565b600084118015612d2457506034548411155b612d625760405162461bcd60e51b815260206004820152600f60248201526e125b9d985b1a59081c1bdbdb081251608a1b604482015260640161090a565b50506000828152603e6020526040902060020180546001600160a01b0319166001600160a01b038316179055600180555050565b6033546001600160a01b03163314612de85760405162461bcd60e51b81526020600482015260216024820152600080516020613ce08339815191526044820152603760f91b606482015260840161090a565b816034548110612e295760405162461bcd60e51b815260206004820152600c60248201526b125b9d985b1a5908141bdbdb60a21b604482015260640161090a565b6000838152603e6020526040902060050154839060ff16612e815760405162461bcd60e51b8152602060048201526012602482015271506f6f6c204973204e6f742041637469766560701b604482015260640161090a565b50506000918252603e602052604090912060040155565b6033546001600160a01b03163314612eea5760405162461bcd60e51b81526020600482015260216024820152600080516020613ce08339815191526044820152603760f91b606482015260840161090a565b603854600090815b81811015612f5e576039600060388381548110612f1157612f116139da565b60009182526020808320909101546001600160a01b0316835282019290925260400190205460ff1615612f4c5782612f4881613a49565b9350505b80612f5681613a49565b915050612ef2565b5081811480612faf5760405162461bcd60e51b815260206004820152601660248201527f496e73756666696369656e7420617070726f76616c7300000000000000000000604482015260640161090a565b60378054603380546001600160a01b0383166001600160a01b0319918216811790925590911690915560005b838110156115605760006039600060388481548110612ffc57612ffc6139da565b6000918252602080832091909101546001600160a01b031683528201929092526040019020805460ff19169115159190911790558061303a81613a49565b915050612fdb565b6033546001600160a01b031633146130945760405162461bcd60e51b81526020600482015260216024820152600080516020613ce08339815191526044820152603760f91b606482015260840161090a565b603a80546001600160a01b0319166001600160a01b0392909216919091179055565b600080805b6001600160a01b0384166000908152603f602090815260408083208884529091529020548110156123e8576130f1858286610ef1565b6130fb9083613a06565b91508061310781613a49565b9150506130bb565b6033546001600160a01b031633146131615760405162461bcd60e51b81526020600482015260216024820152600080516020613ce08339815191526044820152603760f91b606482015260840161090a565b613169613541565b8160345481106131aa5760405162461bcd60e51b815260206004820152600c60248201526b125b9d985b1a5908141bdbdb60a21b604482015260640161090a565b6000838152603e6020526040902060050154839060ff166132025760405162461bcd60e51b8152602060048201526012602482015271506f6f6c204973204e6f742041637469766560701b604482015260640161090a565b60008411801561321457506034548411155b6132525760405162461bcd60e51b815260206004820152600f60248201526e125b9d985b1a59081c1bdbdb081251608a1b604482015260640161090a565b50506000828152603e602052604090206003018190556122bf60018055565b6038818154811061328157600080fd5b6000918252602090912001546001600160a01b0316905081565b6033546001600160a01b031633146132ed5760405162461bcd60e51b81526020600482015260216024820152600080516020613ce08339815191526044820152603760f91b606482015260840161090a565b6001600160a01b03909116600090815260416020526040902055565b603d546040517fe6a439050000000000000000000000000000000000000000000000000000000081526001600160a01b0384811660048301528381166024830152600092839291169063e6a4390590604401602060405180830381865afa158015613378573d6000803e3d6000fd5b505050506040513d601f19601f8201168201806040525081019061339c9190613cc2565b949350505050565b6033546001600160a01b031633146133f65760405162461bcd60e51b81526020600482015260216024820152600080516020613ce08339815191526044820152603760f91b606482015260840161090a565b604580546001600160a01b0319166001600160a01b0392909216919091179055565b6033546001600160a01b0316331461346a5760405162461bcd60e51b81526020600482015260216024820152600080516020613ce08339815191526044820152603760f91b606482015260840161090a565b613472613541565b6040805160e0810182528681526001600160a01b0380871660208084019182528783168486019081526060850188815260808601888152600160a08801818152600060c08a01818152603480548352603e9098529a812099518a55965191890180549289166001600160a01b031993841617905593516002890180549190981691161790955551600386015592516004850155915160058401805491151560ff19909216919091179055925160069092019190915580549161353383613a49565b919050555061156060018055565b6002600154036135935760405162461bcd60e51b815260206004820152601f60248201527f5265656e7472616e637947756172643a207265656e7472616e742063616c6c00604482015260640161090a565b6002600155565b60018055565b6000805b60385481101561360057826001600160a01b0316603882815481106135cb576135cb6139da565b6000918252602090912001546001600160a01b0316036135ee5750600192915050565b806135f881613a49565b9150506135a4565b50600092915050565b600054610100900460ff166136865760405162461bcd60e51b815260206004820152602b60248201527f496e697469616c697a61626c653a20636f6e7472616374206973206e6f74206960448201527f6e697469616c697a696e67000000000000000000000000000000000000000000606482015260840161090a565b61368e613690565b565b600054610100900460ff1661359a5760405162461bcd60e51b815260206004820152602b60248201527f496e697469616c697a61626c653a20636f6e7472616374206973206e6f74206960448201527f6e697469616c697a696e67000000000000000000000000000000000000000000606482015260840161090a565b6000806040838503121561372057600080fd5b50508035926020909101359150565b6001600160a01b0381168114610dff57600080fd5b803561374f8161372f565b919050565b60006020828403121561376657600080fd5b81356123ea8161372f565b60006020828403121561378357600080fd5b5035919050565b60008060006060848603121561379f57600080fd5b833592506020840135915060408401356137b88161372f565b809150509250925092565b6000806000606084860312156137d857600080fd5b83356137e38161372f565b95602085013595506040909401359392505050565b8015158114610dff57600080fd5b60006020828403121561381857600080fd5b81356123ea816137f8565b6000806040838503121561383657600080fd5b82356138418161372f565b915060208301356138518161372f565b809150509250929050565b6000806040838503121561386f57600080fd5b823561387a8161372f565b946020939093013593505050565b634e487b7160e01b600052604160045260246000fd5b600060208083850312156138b157600080fd5b823567ffffffffffffffff808211156138c957600080fd5b818501915085601f8301126138dd57600080fd5b8135818111156138ef576138ef613888565b8060051b604051601f19603f8301168101818110858211171561391457613914613888565b60405291825284820192508381018501918883111561393257600080fd5b938501935b828510156139575761394885613744565b84529385019392850192613937565b98975050505050505050565b6000806040838503121561397657600080fd5b8235915060208301356138518161372f565b600080600080600060a086880312156139a057600080fd5b8535945060208601356139b28161372f565b935060408601356139c28161372f565b94979396509394606081013594506080013592915050565b634e487b7160e01b600052603260045260246000fd5b634e487b7160e01b600052601160045260246000fd5b808201808211156123ed576123ed6139f0565b600060208284031215613a2b57600080fd5b81516123ea816137f8565b818103818111156123ed576123ed6139f0565b600060018201613a5b57613a5b6139f0565b5060010190565b80820281158282048414176123ed576123ed6139f0565b600082613a9657634e487b7160e01b600052601260045260246000fd5b500490565b80516dffffffffffffffffffffffffffff8116811461374f57600080fd5b600080600060608486031215613ace57600080fd5b613ad784613a9b565b9250613ae560208501613a9b565b9150604084015163ffffffff811681146137b857600080fd5b600060208284031215613b1057600080fd5b5051919050565b805161ffff8116811461374f57600080fd5b600080600080600080600060e0888a031215613b4457600080fd5b8751613b4f8161372f565b8097505060208801518060020b8114613b6757600080fd5b9550613b7560408901613b17565b9450613b8360608901613b17565b9350613b9160808901613b17565b925060a088015160ff81168114613ba757600080fd5b60c0890151909250613bb8816137f8565b8091505092959891949750929550565b600181815b80851115613c03578160001904821115613be957613be96139f0565b80851615613bf657918102915b93841c9390800290613bcd565b509250929050565b600082613c1a575060016123ed565b81613c27575060006123ed565b8160018114613c3d5760028114613c4757613c63565b60019150506123ed565b60ff841115613c5857613c586139f0565b50506001821b6123ed565b5060208310610133831016604e8410600b8410161715613c86575081810a6123ed565b613c908383613bc8565b8060001904821115613ca457613ca46139f0565b029392505050565b6000613cbb60ff841683613c0b565b9392505050565b600060208284031215613cd457600080fd5b81516123ea8161372f56fe4f6e6c792061646d696e2063616e2063616c6c20746869732066756e6374696fa2646970667358221220342ef9a09ed9b0fc044befa6527c0ac4169aee6c10c0d45954400d2a9085f93f64736f6c63430008130033",
  "linkReferences": {},
  "deployedLinkReferences": {}
}