{
  "_format": "hh-sol-artifact-1",
  "contractName": "StakingPoolV3",
  "sourceName": "contracts/cgateStaking.sol",
  "abi": [
    {
      "anonymous": false,
      "inputs": [
        {
          "indexed": false,
          "internalType": "string",
          "name": "message",
          "type": "string"
        }
      ],
      "name": "Error",
      "type": "event"
    },
    {
      "anonymous": false,
      "inputs": [
        {
          "indexed": false,
          "internalType": "uint8",
          "name": "version",
          "type": "uint8"
        }
      ],
      "name": "Initialized",
      "type": "event"
    },
    {
      "anonymous": false,
      "inputs": [
        {
          "indexed": true,
          "internalType": "address",
          "name": "newOwner",
          "type": "address"
        }
      ],
      "name": "OwnershipTransferProposed",
      "type": "event"
    },
    {
      "anonymous": false,
      "inputs": [
        {
          "indexed": true,
          "internalType": "address",
          "name": "voter",
          "type": "address"
        },
        {
          "indexed": false,
          "internalType": "bool",
          "name": "approve",
          "type": "bool"
        }
      ],
      "name": "VoteCasted",
      "type": "event"
    },
    {
      "inputs": [],
      "name": "CG8_TOKEN_ADDRESS",
      "outputs": [
        {
          "internalType": "address",
          "name": "",
          "type": "address"
        }
      ],
      "stateMutability": "view",
      "type": "function"
    },
    {
      "inputs": [],
      "name": "PANCAKE_FACTORY_ADDRESS",
      "outputs": [
        {
          "internalType": "address",
          "name": "",
          "type": "address"
        }
      ],
      "stateMutability": "view",
      "type": "function"
    },
    {
      "inputs": [],
      "name": "PANCAKE_ROUTER_ADDRESS",
      "outputs": [
        {
          "internalType": "address",
          "name": "",
          "type": "address"
        }
      ],
      "stateMutability": "view",
      "type": "function"
    },
    {
      "inputs": [],
      "name": "USDC_TOKEN_ADDRESS",
      "outputs": [
        {
          "internalType": "address",
          "name": "",
          "type": "address"
        }
      ],
      "stateMutability": "view",
      "type": "function"
    },
    {
      "inputs": [],
      "name": "admin",
      "outputs": [
        {
          "internalType": "address",
          "name": "",
          "type": "address"
        }
      ],
      "stateMutability": "view",
      "type": "function"
    },
    {
      "inputs": [],
      "name": "cancelOwnershipTransfer",
      "outputs": [],
      "stateMutability": "nonpayable",
      "type": "function"
    },
    {
      "inputs": [
        {
          "internalType": "bool",
          "name": "approve",
          "type": "bool"
        }
      ],
      "name": "castVote",
      "outputs": [],
      "stateMutability": "nonpayable",
      "type": "function"
    },
    {
      "inputs": [
        {
          "internalType": "uint256",
          "name": "poolId",
          "type": "uint256"
        },
        {
          "internalType": "uint256",
          "name": "stakeId",
          "type": "uint256"
        }
      ],
      "name": "claimIndividualReward",
      "outputs": [
        {
          "internalType": "uint256",
          "name": "",
          "type": "uint256"
        }
      ],
      "stateMutability": "nonpayable",
      "type": "function"
    },
    {
      "inputs": [
        {
          "internalType": "uint256",
          "name": "poolId",
          "type": "uint256"
        }
      ],
      "name": "claimReward",
      "outputs": [],
      "stateMutability": "nonpayable",
      "type": "function"
    },
    {
      "inputs": [
        {
          "internalType": "uint256",
          "name": "_timePeriod",
          "type": "uint256"
        },
        {
          "internalType": "address",
          "name": "_stakeToken",
          "type": "address"
        },
        {
          "internalType": "address",
          "name": "_rewardToken",
          "type": "address"
        },
        {
          "internalType": "uint256",
          "name": "_rewardPercent",
          "type": "uint256"
        },
        {
          "internalType": "uint256",
          "name": "_referralRewardPercent",
          "type": "uint256"
        }
      ],
      "name": "createStakingPool",
      "outputs": [],
      "stateMutability": "nonpayable",
      "type": "function"
    },
    {
      "inputs": [],
      "name": "finalizeOwnershipTransfer",
      "outputs": [],
      "stateMutability": "nonpayable",
      "type": "function"
    },
    {
      "inputs": [],
      "name": "getCurrentCgatePrice",
      "outputs": [
        {
          "internalType": "uint256",
          "name": "",
          "type": "uint256"
        }
      ],
      "stateMutability": "view",
      "type": "function"
    },
    {
      "inputs": [
        {
          "internalType": "address",
          "name": "tokenA",
          "type": "address"
        },
        {
          "internalType": "address",
          "name": "tokenB",
          "type": "address"
        }
      ],
      "name": "getPair",
      "outputs": [
        {
          "internalType": "address",
          "name": "",
          "type": "address"
        }
      ],
      "stateMutability": "view",
      "type": "function"
    },
    {
      "inputs": [
        {
          "internalType": "uint256",
          "name": "poolId",
          "type": "uint256"
        },
        {
          "internalType": "uint256",
          "name": "stakeId",
          "type": "uint256"
        },
        {
          "internalType": "address",
          "name": "user",
          "type": "address"
        }
      ],
      "name": "getPendingReward",
      "outputs": [
        {
          "internalType": "uint256",
          "name": "",
          "type": "uint256"
        }
      ],
      "stateMutability": "view",
      "type": "function"
    },
    {
      "inputs": [
        {
          "internalType": "address",
          "name": "pair",
          "type": "address"
        }
      ],
      "name": "getReserves",
      "outputs": [
        {
          "internalType": "uint112",
          "name": "reserve0",
          "type": "uint112"
        },
        {
          "internalType": "uint112",
          "name": "reserve1",
          "type": "uint112"
        }
      ],
      "stateMutability": "view",
      "type": "function"
    },
    {
      "inputs": [
        {
          "internalType": "uint256",
          "name": "poolId",
          "type": "uint256"
        },
        {
          "internalType": "address",
          "name": "user",
          "type": "address"
        }
      ],
      "name": "getTotalPendingRewardsForPool",
      "outputs": [
        {
          "internalType": "uint256",
          "name": "",
          "type": "uint256"
        }
      ],
      "stateMutability": "view",
      "type": "function"
    },
    {
      "inputs": [],
      "name": "getTotalPoolsCount",
      "outputs": [
        {
          "internalType": "uint256",
          "name": "",
          "type": "uint256"
        }
      ],
      "stateMutability": "view",
      "type": "function"
    },
    {
      "inputs": [
        {
          "internalType": "address",
          "name": "",
          "type": "address"
        }
      ],
      "name": "hasVoted",
      "outputs": [
        {
          "internalType": "bool",
          "name": "",
          "type": "bool"
        }
      ],
      "stateMutability": "view",
      "type": "function"
    },
    {
      "inputs": [
        {
          "internalType": "address[]",
          "name": "_initialVoters",
          "type": "address[]"
        }
      ],
      "name": "initialize",
      "outputs": [],
      "stateMutability": "nonpayable",
      "type": "function"
    },
    {
      "inputs": [
        {
          "internalType": "uint256",
          "name": "",
          "type": "uint256"
        }
      ],
      "name": "pools",
      "outputs": [
        {
          "internalType": "uint256",
          "name": "timePeriod",
          "type": "uint256"
        },
        {
          "internalType": "address",
          "name": "stakeToken",
          "type": "address"
        },
        {
          "internalType": "address",
          "name": "rewardToken",
          "type": "address"
        },
        {
          "internalType": "uint256",
          "name": "rewardPercentPerStakedTokenPerYear",
          "type": "uint256"
        },
        {
          "internalType": "uint256",
          "name": "referralRewardPercent",
          "type": "uint256"
        },
        {
          "internalType": "bool",
          "name": "isActive",
          "type": "bool"
        },
        {
          "internalType": "uint256",
          "name": "totalStakes",
          "type": "uint256"
        }
      ],
      "stateMutability": "view",
      "type": "function"
    },
    {
      "inputs": [
        {
          "internalType": "address",
          "name": "newOwner",
          "type": "address"
        }
      ],
      "name": "proposeOwnershipTransfer",
      "outputs": [],
      "stateMutability": "nonpayable",
      "type": "function"
    },
    {
      "inputs": [],
      "name": "proposedOwner",
      "outputs": [
        {
          "internalType": "address",
          "name": "",
          "type": "address"
        }
      ],
      "stateMutability": "view",
      "type": "function"
    },
    {
      "inputs": [
        {
          "internalType": "address",
          "name": "",
          "type": "address"
        }
      ],
      "name": "referrers",
      "outputs": [
        {
          "internalType": "address",
          "name": "",
          "type": "address"
        }
      ],
      "stateMutability": "view",
      "type": "function"
    },
    {
      "inputs": [
        {
          "internalType": "address",
          "name": "newAdmin",
          "type": "address"
        }
      ],
      "name": "setAdmin",
      "outputs": [],
      "stateMutability": "nonpayable",
      "type": "function"
    },
    {
      "inputs": [
        {
          "internalType": "address",
          "name": "_cg8Address",
          "type": "address"
        }
      ],
      "name": "setCg8Address",
      "outputs": [],
      "stateMutability": "nonpayable",
      "type": "function"
    },
    {
      "inputs": [
        {
          "internalType": "address",
          "name": "_factory",
          "type": "address"
        }
      ],
      "name": "setFactory",
      "outputs": [],
      "stateMutability": "nonpayable",
      "type": "function"
    },
    {
      "inputs": [
        {
          "internalType": "uint256",
          "name": "poolId",
          "type": "uint256"
        },
        {
          "internalType": "uint256",
          "name": "newPercentInBIPS",
          "type": "uint256"
        }
      ],
      "name": "setReferralRewardPercent",
      "outputs": [],
      "stateMutability": "nonpayable",
      "type": "function"
    },
    {
      "inputs": [
        {
          "internalType": "uint256",
          "name": "poolId",
          "type": "uint256"
        },
        {
          "internalType": "uint256",
          "name": "_newRewardPercentInBIPS",
          "type": "uint256"
        }
      ],
      "name": "setRewardPercent",
      "outputs": [],
      "stateMutability": "nonpayable",
      "type": "function"
    },
    {
      "inputs": [
        {
          "internalType": "uint256",
          "name": "poolId",
          "type": "uint256"
        },
        {
          "internalType": "address",
          "name": "_newRewardToken",
          "type": "address"
        }
      ],
      "name": "setRewardToken",
      "outputs": [],
      "stateMutability": "nonpayable",
      "type": "function"
    },
    {
      "inputs": [
        {
          "internalType": "address",
          "name": "_router",
          "type": "address"
        }
      ],
      "name": "setRouter",
      "outputs": [],
      "stateMutability": "nonpayable",
      "type": "function"
    },
    {
      "inputs": [
        {
          "internalType": "address",
          "name": "_referrer",
          "type": "address"
        },
        {
          "internalType": "uint256",
          "name": "_percentInBIPS",
          "type": "uint256"
        }
      ],
      "name": "setSpecialReferrerRewardPercent",
      "outputs": [],
      "stateMutability": "nonpayable",
      "type": "function"
    },
    {
      "inputs": [
        {
          "internalType": "uint256",
          "name": "poolId",
          "type": "uint256"
        },
        {
          "internalType": "uint256",
          "name": "_newTimePeriod",
          "type": "uint256"
        }
      ],
      "name": "setTimePeriod",
      "outputs": [],
      "stateMutability": "nonpayable",
      "type": "function"
    },
    {
      "inputs": [
        {
          "internalType": "address",
          "name": "_usdcAddress",
          "type": "address"
        }
      ],
      "name": "setUSDCAddress",
      "outputs": [],
      "stateMutability": "nonpayable",
      "type": "function"
    },
    {
      "inputs": [
        {
          "internalType": "address",
          "name": "",
          "type": "address"
        }
      ],
      "name": "signers",
      "outputs": [
        {
          "internalType": "bool",
          "name": "",
          "type": "bool"
        }
      ],
      "stateMutability": "view",
      "type": "function"
    },
    {
      "inputs": [
        {
          "internalType": "address",
          "name": "",
          "type": "address"
        }
      ],
      "name": "specialReferrersPercents",
      "outputs": [
        {
          "internalType": "uint256",
          "name": "",
          "type": "uint256"
        }
      ],
      "stateMutability": "view",
      "type": "function"
    },
    {
      "inputs": [
        {
          "internalType": "uint256",
          "name": "poolId",
          "type": "uint256"
        },
        {
          "internalType": "uint256",
          "name": "_amount",
          "type": "uint256"
        },
        {
          "internalType": "address",
          "name": "referrer",
          "type": "address"
        }
      ],
      "name": "stake",
      "outputs": [],
      "stateMutability": "nonpayable",
      "type": "function"
    },
    {
      "inputs": [
        {
          "internalType": "uint256",
          "name": "poolId",
          "type": "uint256"
        }
      ],
      "name": "togglePoolStatus",
      "outputs": [],
      "stateMutability": "nonpayable",
      "type": "function"
    },
    {
      "inputs": [
        {
          "internalType": "address",
          "name": "user",
          "type": "address"
        },
        {
          "internalType": "uint256",
          "name": "poolId",
          "type": "uint256"
        }
      ],
      "name": "totalStakeCount",
      "outputs": [
        {
          "internalType": "uint256",
          "name": "count",
          "type": "uint256"
        }
      ],
      "stateMutability": "view",
      "type": "function"
    },
    {
      "inputs": [
        {
          "internalType": "address",
          "name": "user",
          "type": "address"
        },
        {
          "internalType": "uint256",
          "name": "poolId",
          "type": "uint256"
        }
      ],
      "name": "totalUnstakeAllowed",
      "outputs": [
        {
          "internalType": "uint256",
          "name": "totalWithdrawable",
          "type": "uint256"
        }
      ],
      "stateMutability": "view",
      "type": "function"
    },
    {
      "inputs": [
        {
          "internalType": "uint256",
          "name": "poolId",
          "type": "uint256"
        }
      ],
      "name": "unStake",
      "outputs": [],
      "stateMutability": "nonpayable",
      "type": "function"
    },
    {
      "inputs": [
        {
          "internalType": "uint256",
          "name": "poolId",
          "type": "uint256"
        },
        {
          "internalType": "uint256",
          "name": "_stakeId",
          "type": "uint256"
        }
      ],
      "name": "unStakeIndividual",
      "outputs": [],
      "stateMutability": "nonpayable",
      "type": "function"
    },
    {
      "inputs": [
        {
          "internalType": "uint256",
          "name": "newPrice",
          "type": "uint256"
        }
      ],
      "name": "updateCurrentCgatePrice",
      "outputs": [],
      "stateMutability": "nonpayable",
      "type": "function"
    },
    {
      "inputs": [
        {
          "internalType": "address",
          "name": "",
          "type": "address"
        },
        {
          "internalType": "uint256",
          "name": "",
          "type": "uint256"
        },
        {
          "internalType": "uint256",
          "name": "",
          "type": "uint256"
        }
      ],
      "name": "userStakes",
      "outputs": [
        {
          "internalType": "uint256",
          "name": "amount",
          "type": "uint256"
        },
        {
          "internalType": "uint256",
          "name": "lastWithdrawTimestamp",
          "type": "uint256"
        },
        {
          "internalType": "uint256",
          "name": "rewardWithdrawnTillNow",
          "type": "uint256"
        },
        {
          "internalType": "uint256",
          "name": "stakeTime",
          "type": "uint256"
        },
        {
          "internalType": "address",
          "name": "referrer",
          "type": "address"
        },
        {
          "internalType": "uint256",
          "name": "depositedValueInDollars",
          "type": "uint256"
        }
      ],
      "stateMutability": "view",
      "type": "function"
    },
    {
      "inputs": [
        {
          "internalType": "address",
          "name": "",
          "type": "address"
        }
      ],
      "name": "users",
      "outputs": [
        {
          "internalType": "uint256",
          "name": "totalStaked",
          "type": "uint256"
        },
        {
          "internalType": "uint256",
          "name": "activeStakes",
          "type": "uint256"
        },
        {
          "internalType": "uint256",
          "name": "totalRewardWithdrawnTillNow",
          "type": "uint256"
        },
        {
          "internalType": "uint256",
          "name": "referralIncomeWithdrawnTillNow",
          "type": "uint256"
        },
        {
          "internalType": "uint256",
          "name": "totalReferrers",
          "type": "uint256"
        }
      ],
      "stateMutability": "view",
      "type": "function"
    },
    {
      "inputs": [
        {
          "internalType": "address",
          "name": "",
          "type": "address"
        },
        {
          "internalType": "uint256",
          "name": "",
          "type": "uint256"
        }
      ],
      "name": "usersStakesPerPool",
      "outputs": [
        {
          "internalType": "uint256",
          "name": "",
          "type": "uint256"
        }
      ],
      "stateMutability": "view",
      "type": "function"
    },
    {
      "inputs": [
        {
          "internalType": "uint256",
          "name": "",
          "type": "uint256"
        }
      ],
      "name": "voters",
      "outputs": [
        {
          "internalType": "address",
          "name": "",
          "type": "address"
        }
      ],
      "stateMutability": "view",
      "type": "function"
    },
    {
      "inputs": [
        {
          "internalType": "address",
          "name": "receiver",
          "type": "address"
        },
        {
          "internalType": "contract IERC20",
          "name": "_token",
          "type": "address"
        }
      ],
      "name": "withdrawDumpToken",
      "outputs": [],
      "stateMutability": "nonpayable",
      "type": "function"
    },
    {
      "inputs": [
        {
          "internalType": "address payable",
          "name": "_receiver",
          "type": "address"
        }
      ],
      "name": "withdrawEth",
      "outputs": [],
      "stateMutability": "nonpayable",
      "type": "function"
    }
  ],
  "bytecode": "0x608060405234801561001057600080fd5b50613a01806100206000396000f3fe608060405234801561001057600080fd5b50600436106103205760003560e01c80639dda7fee116101a7578063c0d78655116100ee578063dbe4a26111610097578063f851a44011610071578063f851a44014610822578063fa8f683e14610835578063fb58d2cf1461086b57600080fd5b8063dbe4a261146107dc578063e6a43905146107ef578063e7ee12331461080257600080fd5b8063c79bdb46116100c8578063c79bdb46146107a3578063d153b60c146107b6578063da58c7d9146107c957600080fd5b8063c0d786551461076a578063c114fcfa1461077d578063c57830cd1461079057600080fd5b8063b3d673d811610150578063bdd13d4a1161012a578063bdd13d4a1461073c578063bf2ce8081461074f578063bf41c2a41461076257600080fd5b8063b3d673d8146106eb578063b401cdca146106fe578063b820a1cd1461072957600080fd5b8063aaf5bfc311610181578063aaf5bfc314610627578063ac4afa381461063a578063ae169a50146106d857600080fd5b80639dda7fee1461059c578063a224cee7146105af578063a87430ba146105c257600080fd5b806357a8773e1161026b5780637628a37d116102145780637b542a2a116101ee5780637b542a2a1461056e578063855c5d4614610581578063996721581461058957600080fd5b80637628a37d146105405780637ace48e7146105535780637ade26421461056657600080fd5b80636b38e049116102455780636b38e049146104f7578063704b6c021461050a578063736c0d5b1461051d57600080fd5b806357a8773e146104be5780635bb47808146104d15780635d3eea91146104e457600080fd5b806328ac7c51116102cd5780633e99c1e4116102a75780633e99c1e4146104485780634a3b68cc14610482578063509173a1146104ab57600080fd5b806328ac7c51146103b357806329a16616146103de57806334144b0f146103ff57600080fd5b8063216b31c1116102fe578063216b31c11461038557806323452b9c1461039857806325e16063146103a057600080fd5b8063047ac00e1461032557806309eef43e1461033a57806321040fc314610372575b600080fd5b610338610333366004613584565b61087e565b005b61035d6103483660046135cb565b60396020526000908152604090205460ff1681565b60405190151581526020015b60405180910390f35b6103386103803660046135cb565b610b39565b6103386103933660046135e8565b610c2b565b610338610ce2565b6103386103ae3660046135cb565b610db3565b603a546103c6906001600160a01b031681565b6040516001600160a01b039091168152602001610369565b6103f16103ec366004613601565b610ea2565b604051908152602001610369565b61041261040d36600461363a565b611063565b6040805196875260208701959095529385019290925260608401526001600160a01b0316608083015260a082015260c001610369565b61045b6104563660046135cb565b6110cd565b604080516dffffffffffffffffffffffffffff938416815292909116602083015201610369565b6103c66104903660046135cb565b6040602081905260009182529020546001600160a01b031681565b603d546103c6906001600160a01b031681565b6103386104cc3660046135cb565b611142565b6103386104df3660046135cb565b6111b6565b6103386104f23660046135e8565b61122a565b6103f1610505366004613584565b611518565b6103386105183660046135cb565b611914565b61035d61052b3660046135cb565b60446020526000908152604090205460ff1681565b61033861054e366004613601565b611988565b61033861056136600461367d565b611dcd565b6103f1611edb565b61033861057c3660046135e8565b611fdd565b6034546103f1565b61033861059736600461369a565b612034565b6103f16105aa3660046136d3565b6121ae565b6103386105bd366004613715565b6122de565b6105ff6105d03660046135cb565b604260205260009081526040902080546001820154600283015460038401546004909401549293919290919085565b604080519586526020860194909452928401919091526060830152608082015260a001610369565b6103386106353660046135cb565b61250b565b6106956106483660046135e8565b603e60205260009081526040902080546001820154600283015460038401546004850154600586015460069096015494956001600160a01b039485169593909416939192909160ff169087565b604080519788526001600160a01b039687166020890152949095169386019390935260608501919091526080840152151560a083015260c082015260e001610369565b6103386106e63660046135e8565b61257f565b603c546103c6906001600160a01b031681565b6103f161070c3660046136d3565b604360209081526000928352604080842090915290825290205481565b610338610737366004613584565b6129bb565b61033861074a3660046137da565b612b0a565b61033861075d366004613584565b612c81565b610338612d83565b6103386107783660046135cb565b612f2d565b6103f161078b3660046137da565b612fa1565b603b546103c6906001600160a01b031681565b6103386107b1366004613584565b612ffa565b6037546103c6906001600160a01b031681565b6103c66107d73660046135e8565b61315c565b6103386107ea3660046136d3565b613186565b6103c66107fd36600461369a565b6131f4565b6103f16108103660046135cb565b60416020526000908152604090205481565b6033546103c6906001600160a01b031681565b6103f16108433660046136d3565b6001600160a01b03919091166000908152603f60209081526040808320938352929052205490565b6103386108793660046137ff565b61328f565b8160345481106108c45760405162461bcd60e51b815260206004820152600c60248201526b125b9d985b1a5908141bdbdb60a21b60448201526064015b60405180910390fd5b6000838152603e6020526040902060050154839060ff1661091c5760405162461bcd60e51b8152602060048201526012602482015271506f6f6c204973204e6f742041637469766560701b60448201526064016108bb565b336000908152603f60209081526040808320878452909152812080548590811061094857610948613851565b60009182526020808320888452603e90915260409092206006909102909101915080546003830154429161097b9161387d565b8110156109ca5760405162461bcd60e51b815260206004820152601660248201527f54696d6520706572696f64206e6f74207061737365640000000000000000000060448201526064016108bb565b6109d48787611518565b506001838101829055820154835460405163a9059cbb60e01b815233600482015260248101919091526001600160a01b039091169063a9059cbb906044016020604051808303816000875af1158015610a31573d6000803e3d6000fd5b505050506040513d601f19601f82011682018060405250810190610a559190613890565b610aa15760405162461bcd60e51b815260206004820152601c60248201527f5374616b656420746f6b656e207472616e73666572206661696c65640000000060448201526064016108bb565b82543360009081526042602052604081206001018054909190610ac59084906138ad565b909155505082543360009081526043602090815260408083208b845290915281208054909190610af69084906138ad565b909155505082546000888152603e602052604081206006018054909190610b1e9084906138ad565b90915550506000808455600590930192909255505050505050565b6033546001600160a01b03163314610b8b5760405162461bcd60e51b815260206004820152602160248201526000805160206139ac8339815191526044820152603760f91b60648201526084016108bb565b6001600160a01b038116610be15760405162461bcd60e51b815260206004820181905260248201527f4e6577206f776e65722063616e6e6f74206265207a65726f206164647265737360448201526064016108bb565b603780546001600160a01b0319166001600160a01b0383169081179091556040517ff0c6916d81cd1f899264b5193e3bbe7afd2bcc3d05704bab73d0b8ac9387115890600090a250565b6033546001600160a01b03163314610c7d5760405162461bcd60e51b815260206004820152602160248201526000805160206139ac8339815191526044820152603760f91b60648201526084016108bb565b806034548110610cbe5760405162461bcd60e51b815260206004820152600c60248201526b125b9d985b1a5908141bdbdb60a21b60448201526064016108bb565b506000908152603e60205260409020600501805460ff19811660ff90911615179055565b6033546001600160a01b03163314610d345760405162461bcd60e51b815260206004820152602160248201526000805160206139ac8339815191526044820152603760f91b60648201526084016108bb565b603780546001600160a01b031916905560005b603854811015610db05760006039600060388481548110610d6a57610d6a613851565b6000918252602080832091909101546001600160a01b031683528201929092526040019020805460ff191691151591909117905580610da8816138c0565b915050610d47565b50565b6033546001600160a01b03163314610e055760405162461bcd60e51b815260206004820152602160248201526000805160206139ac8339815191526044820152603760f91b60648201526084016108bb565b610e0d6133b8565b6001600160a01b038116610e635760405162461bcd60e51b815260206004820152600f60248201527f496e76616c69642061646472657373000000000000000000000000000000000060448201526064016108bb565b6040516001600160a01b038216904780156108fc02916000818181858888f19350505050158015610e98573d6000803e3d6000fd5b50610db060018055565b6000836034548110610ee55760405162461bcd60e51b815260206004820152600c60248201526b125b9d985b1a5908141bdbdb60a21b60448201526064016108bb565b6000858152603e6020526040902060050154859060ff16610f3d5760405162461bcd60e51b8152602060048201526012602482015271506f6f6c204973204e6f742041637469766560701b60448201526064016108bb565b6001600160a01b0384166000908152603f602090815260408083208984529091529020548510610faf5760405162461bcd60e51b815260206004820152600f60248201527f55736572204e6f74205374616b6564000000000000000000000000000000000060448201526064016108bb565b6001600160a01b0384166000908152603f602090815260408083208984529091528120805487908110610fe457610fe4613851565b600091825260208083208a8452603e909152604083206006929092020160018101549093509091429161101790836138ad565b90506000603554612710856003015484886005015461103691906138d9565b61104091906138d9565b61104a91906138f0565b61105491906138f0565b9b9a5050505050505050505050565b603f602052826000526040600020602052816000526040600020818154811061108b57600080fd5b60009182526020909120600690910201805460018201546002830154600384015460048501546005909501549397509195509350916001600160a01b03169086565b600080600080846001600160a01b0316630902f1ac6040518163ffffffff1660e01b8152600401606060405180830381865afa158015611111573d6000803e3d6000fd5b505050506040513d601f19601f820116820180604052508101906111359190613930565b5090969095509350505050565b6033546001600160a01b031633146111945760405162461bcd60e51b815260206004820152602160248201526000805160206139ac8339815191526044820152603760f91b60648201526084016108bb565b603b80546001600160a01b0319166001600160a01b0392909216919091179055565b6033546001600160a01b031633146112085760405162461bcd60e51b815260206004820152602160248201526000805160206139ac8339815191526044820152603760f91b60648201526084016108bb565b603d80546001600160a01b0319166001600160a01b0392909216919091179055565b80603454811061126b5760405162461bcd60e51b815260206004820152600c60248201526b125b9d985b1a5908141bdbdb60a21b60448201526064016108bb565b6000828152603e6020526040902060050154829060ff166112c35760405162461bcd60e51b8152602060048201526012602482015271506f6f6c204973204e6f742041637469766560701b60448201526064016108bb565b6000838152603e60205260408120815b336000908152603f602090815260408083208984529091529020548110156113f157336000908152603f60209081526040808320898452909152812080548390811061132157611321613851565b9060005260206000209060060201905060004290508360000154826003015461134a919061387d565b81106113dc57815461135c908661387d565b94506113688884611518565b50600080835560018301829055338152603f602090815260408083208b8452909152902080548490811061139e5761139e613851565b6000918252602082206006909102018181556001810182905560028101829055600381018290556004810180546001600160a01b0319169055600501555b505080806113e9906138c0565b9150506112d3565b5033600090815260426020526040812060010180548492906114149084906138ad565b9091555050336000908152604360209081526040808320888452909152812080548492906114439084906138ad565b9091555050811561151157600181015460405163a9059cbb60e01b8152336004820152602481018490526001600160a01b039091169063a9059cbb906044016020604051808303816000875af11580156114a1573d6000803e3d6000fd5b505050506040513d601f19601f820116820180604052508101906114c59190613890565b6115115760405162461bcd60e51b815260206004820152601c60248201527f5374616b656420746f6b656e207472616e73666572206661696c65640000000060448201526064016108bb565b5050505050565b600082603454811061155b5760405162461bcd60e51b815260206004820152600c60248201526b125b9d985b1a5908141bdbdb60a21b60448201526064016108bb565b6000848152603e6020526040902060050154849060ff166115b35760405162461bcd60e51b8152602060048201526012602482015271506f6f6c204973204e6f742041637469766560701b60448201526064016108bb565b336000908152603f6020908152604080832088845290915281208054869081106115df576115df613851565b60009182526020808320898452603e9091526040832060069092020180549093509091036116125760009450505061190c565b426000611620898933610ea2565b9050801561190757600283015460405163a9059cbb60e01b8152336004820152602481018390526001600160a01b039091169063a9059cbb906044016020604051808303816000875af115801561167b573d6000803e3d6000fd5b505050506040513d601f19601f8201168201806040525081019061169f9190613890565b6116eb5760405162461bcd60e51b815260206004820152601660248201527f526577617264207472616e73666572206661696c65640000000000000000000060448201526064016108bb565b60048401546001600160a01b0316156118b757600480840154908501546001600160a01b031660009081526041602052604090205415611744575060048401546001600160a01b03166000908152604160205260409020545b600061271061175383856138d9565b61175d91906138f0565b111561186a57600284015460048601546001600160a01b039182169163a9059cbb911661271061178d85876138d9565b61179791906138f0565b6040517fffffffff0000000000000000000000000000000000000000000000000000000060e085901b1681526001600160a01b03909216600483015260248201526044016020604051808303816000875af11580156117fa573d6000803e3d6000fd5b505050506040513d601f19601f8201168201806040525081019061181e9190613890565b61186a5760405162461bcd60e51b815260206004820152601f60248201527f526566657272616c20526577617264207472616e73666572206661696c65640060448201526064016108bb565b61271061187782846138d9565b61188191906138f0565b60048601546001600160a01b0316600090815260426020526040812060030180549091906118b090849061387d565b9091555050505b33600090815260426020526040812060020180548392906118d990849061387d565b92505081905550808460020160008282546118f4919061387d565b909155505060019093015550925061190c565b505050505b505092915050565b6033546001600160a01b031633146119665760405162461bcd60e51b815260206004820152602160248201526000805160206139ac8339815191526044820152603760f91b60648201526084016108bb565b603380546001600160a01b0319166001600160a01b0392909216919091179055565b8260345481106119c95760405162461bcd60e51b815260206004820152600c60248201526b125b9d985b1a5908141bdbdb60a21b60448201526064016108bb565b6000848152603e6020526040902060050154849060ff16611a215760405162461bcd60e51b8152602060048201526012602482015271506f6f6c204973204e6f742041637469766560701b60448201526064016108bb565b60008411611a715760405162461bcd60e51b815260206004820152601d60248201527f416d6f756e74206d7573742062652067726561746572207468616e203000000060448201526064016108bb565b6001600160a01b0383163303611ac95760405162461bcd60e51b815260206004820152601860248201527f596f752063616e277420726566657220796f757273656c66000000000000000060448201526064016108bb565b6000858152603e602052604090819020600181015491517f23b872dd0000000000000000000000000000000000000000000000000000000081523360048201523060248201526044810187905290916001600160a01b0316906323b872dd906064016020604051808303816000875af1158015611b4a573d6000803e3d6000fd5b505050506040513d601f19601f82011682018060405250810190611b6e9190613890565b611bba5760405162461bcd60e51b815260206004820152601560248201527f546f6b656e207472616e73666572206661696c6564000000000000000000000060448201526064016108bb565b336000908152603f602090815260408083208984528252808320815160c081018352898152429381018490529182019390935260608101919091526001600160a01b038616608082015260a08101670de0b6b3a7640000611c19611edb565b611c23908a6138d9565b611c2d91906138f0565b90528154600180820184556000938452602080852084516006948502909101908155848201519281019290925560408085015160028401556060850151600384015560808501516004840180546001600160a01b0319166001600160a01b0390921691909117905560a090940151600590920191909155898452603e9052908220018054879290611cbf90849061387d565b90915550506040805160a081018252336000908152604260205291909120548190611ceb90889061387d565b815233600090815260426020908152604090912060010154910190611d1190889061387d565b815233600081815260426020818152604080842060028101805484890152600382018054848a0152606098890187905296865293835287518155878301516001820155878201519093559486015190935560809094015160049094019390935560438152818320898452905281208054879290611d8f90849061387d565b90915550506001600160a01b0384166000908152604260205260408120600401805460019290611dc090849061387d565b9091555050505050505050565b611dd633613417565b611e225760405162461bcd60e51b815260206004820152601160248201527f4e6f7420612076616c696420766f74657200000000000000000000000000000060448201526064016108bb565b3360009081526039602052604090205460ff1615611e825760405162461bcd60e51b815260206004820152600d60248201527f416c726561647920766f7465640000000000000000000000000000000000000060448201526064016108bb565b3360008181526039602052604090819020805460ff19166001179055517fa4861c5510bfa99706ed508d728f9c6b365ff27af1a3012e21980952ad2d844f90611ed090841515815260200190565b60405180910390a250565b603b54603c546000918291611efc916001600160a01b0390811691166131f4565b90506001600160a01b038116611f1457600091505090565b600080611f20836110cd565b603a546040517f85f8c259000000000000000000000000000000000000000000000000000000008152670de0b6b3a764000060048201526dffffffffffffffffffffffffffff8084166024830152841660448201529294509092506000916001600160a01b03909116906385f8c25990606401602060405180830381865afa158015611fb0573d6000803e3d6000fd5b505050506040513d601f19601f82011682018060405250810190611fd49190613975565b95945050505050565b6033546001600160a01b0316331461202f5760405162461bcd60e51b815260206004820152602160248201526000805160206139ac8339815191526044820152603760f91b60648201526084016108bb565b603655565b6033546001600160a01b031633146120865760405162461bcd60e51b815260206004820152602160248201526000805160206139ac8339815191526044820152603760f91b60648201526084016108bb565b61208e6133b8565b6040517f70a082310000000000000000000000000000000000000000000000000000000081523060048201526001600160a01b0382169063a9059cbb90849083906370a0823190602401602060405180830381865afa1580156120f5573d6000803e3d6000fd5b505050506040513d601f19601f820116820180604052508101906121199190613975565b6040517fffffffff0000000000000000000000000000000000000000000000000000000060e085901b1681526001600160a01b03909216600483015260248201526044016020604051808303816000875af115801561217c573d6000803e3d6000fd5b505050506040513d601f19601f820116820180604052508101906121a09190613890565b506121aa60018055565b5050565b6001600160a01b03821660009081526043602090815260408083208484529091528120548190156122d55760005b6001600160a01b0385166000908152603f602090815260408083208784529091529020548110156122d3576000848152603e60209081526040808320546001600160a01b0389168452603f83528184208885529092529091208054429291908490811061224b5761224b613851565b906000526020600020906006020160030154612267919061387d565b116122c1576001600160a01b0385166000908152603f6020908152604080832087845290915290208054829081106122a1576122a1613851565b906000526020600020906006020160000154826122be919061387d565b91505b806122cb816138c0565b9150506121dc565b505b90505b92915050565b600054610100900460ff16158080156122fe5750600054600160ff909116105b806123185750303b158015612318575060005460ff166001145b61238a5760405162461bcd60e51b815260206004820152602e60248201527f496e697469616c697a61626c653a20636f6e747261637420697320616c72656160448201527f647920696e697469616c697a656400000000000000000000000000000000000060648201526084016108bb565b6000805460ff1916600117905580156123ad576000805461ff0019166101001790555b6123b5613480565b603380546001600160a01b031990811633179091556301e1338060355564e8d4a51000603655603a80548216739ac64cc6e4415144c455bd8e4837fea55603e5c3179055603b80548216739f7b09eb38ed912ab5932dccad0b1f501abfe6fd179055603c8054821673d1fac5ff5d03b70d3383909692d09fc6d97c8219179055603d805490911673b7926c0430afb07aa7defde6da862ae0bde767bc17905560005b82518110156124c157603883828151811061247457612474613851565b60209081029190910181015182546001810184556000938452919092200180546001600160a01b0319166001600160a01b03909216919091179055806124b9816138c0565b915050612457565b5080156121aa576000805461ff0019169055604051600181527f7f26b83ff96e1f2b6a682f133852f6798a09c465da95921460cefb38474024989060200160405180910390a15050565b6033546001600160a01b0316331461255d5760405162461bcd60e51b815260206004820152602160248201526000805160206139ac8339815191526044820152603760f91b60648201526084016108bb565b603c80546001600160a01b0319166001600160a01b0392909216919091179055565b8060345481106125c05760405162461bcd60e51b815260206004820152600c60248201526b125b9d985b1a5908141bdbdb60a21b60448201526064016108bb565b6125c86133b8565b6000828152603e6020526040902060050154829060ff166126205760405162461bcd60e51b8152602060048201526012602482015271506f6f6c204973204e6f742041637469766560701b60448201526064016108bb565b6000838152603e6020526040812090805b336000908152603f602090815260408083208984529091529020548110156128e557336000908152603f60209081526040808320898452909152812080548390811061267f5761267f613851565b906000526020600020906006020190506000816000015411156128d2574260006126aa898533610ea2565b60048401549091506001600160a01b03161561287a57600480870154908401546001600160a01b031660009081526041602052604090205415612706575060048301546001600160a01b03166000908152604160205260409020545b600061271061271583856138d9565b61271f91906138f0565b111561287857600287015460048501546001600160a01b039182169163a9059cbb911661271061274f85876138d9565b61275991906138f0565b6040517fffffffff0000000000000000000000000000000000000000000000000000000060e085901b1681526001600160a01b03909216600483015260248201526044016020604051808303816000875af11580156127bc573d6000803e3d6000fd5b505050506040513d601f19601f820116820180604052508101906127e09190613890565b61282c5760405162461bcd60e51b815260206004820152601f60248201527f526566657272616c20526577617264207472616e73666572206661696c65640060448201526064016108bb565b61271061283982846138d9565b61284391906138f0565b60048501546001600160a01b03166000908152604260205260408120600301805490919061287290849061387d565b90915550505b505b336000908152604260205260408120600201805483929061289c90849061387d565b92505081905550808360020160008282546128b7919061387d565b9091555050600183018290556128cd818661387d565b945050505b50806128dd816138c0565b915050612631565b5080156129af57600282015460405163a9059cbb60e01b8152336004820152602481018390526001600160a01b039091169063a9059cbb906044016020604051808303816000875af115801561293f573d6000803e3d6000fd5b505050506040513d601f19601f820116820180604052508101906129639190613890565b6129af5760405162461bcd60e51b815260206004820152601660248201527f526577617264207472616e73666572206661696c65640000000000000000000060448201526064016108bb565b5050506121aa60018055565b6033546001600160a01b03163314612a0d5760405162461bcd60e51b815260206004820152602160248201526000805160206139ac8339815191526044820152603760f91b60648201526084016108bb565b816034548110612a4e5760405162461bcd60e51b815260206004820152600c60248201526b125b9d985b1a5908141bdbdb60a21b60448201526064016108bb565b6000838152603e6020526040902060050154839060ff16612aa65760405162461bcd60e51b8152602060048201526012602482015271506f6f6c204973204e6f742041637469766560701b60448201526064016108bb565b600084118015612ab857506034548411155b612af65760405162461bcd60e51b815260206004820152600f60248201526e125b9d985b1a59081c1bdbdb081251608a1b60448201526064016108bb565b50506000918252603e602052604090912055565b6033546001600160a01b03163314612b5c5760405162461bcd60e51b815260206004820152602160248201526000805160206139ac8339815191526044820152603760f91b60648201526084016108bb565b612b646133b8565b816034548110612ba55760405162461bcd60e51b815260206004820152600c60248201526b125b9d985b1a5908141bdbdb60a21b60448201526064016108bb565b6000838152603e6020526040902060050154839060ff16612bfd5760405162461bcd60e51b8152602060048201526012602482015271506f6f6c204973204e6f742041637469766560701b60448201526064016108bb565b600084118015612c0f57506034548411155b612c4d5760405162461bcd60e51b815260206004820152600f60248201526e125b9d985b1a59081c1bdbdb081251608a1b60448201526064016108bb565b50506000828152603e6020526040902060020180546001600160a01b0319166001600160a01b038316179055600180555050565b6033546001600160a01b03163314612cd35760405162461bcd60e51b815260206004820152602160248201526000805160206139ac8339815191526044820152603760f91b60648201526084016108bb565b816034548110612d145760405162461bcd60e51b815260206004820152600c60248201526b125b9d985b1a5908141bdbdb60a21b60448201526064016108bb565b6000838152603e6020526040902060050154839060ff16612d6c5760405162461bcd60e51b8152602060048201526012602482015271506f6f6c204973204e6f742041637469766560701b60448201526064016108bb565b50506000918252603e602052604090912060040155565b6033546001600160a01b03163314612dd55760405162461bcd60e51b815260206004820152602160248201526000805160206139ac8339815191526044820152603760f91b60648201526084016108bb565b603854600090815b81811015612e49576039600060388381548110612dfc57612dfc613851565b60009182526020808320909101546001600160a01b0316835282019290925260400190205460ff1615612e375782612e33816138c0565b9350505b80612e41816138c0565b915050612ddd565b5081811480612e9a5760405162461bcd60e51b815260206004820152601660248201527f496e73756666696369656e7420617070726f76616c730000000000000000000060448201526064016108bb565b60378054603380546001600160a01b0383166001600160a01b0319918216811790925590911690915560005b838110156115115760006039600060388481548110612ee757612ee7613851565b6000918252602080832091909101546001600160a01b031683528201929092526040019020805460ff191691151591909117905580612f25816138c0565b915050612ec6565b6033546001600160a01b03163314612f7f5760405162461bcd60e51b815260206004820152602160248201526000805160206139ac8339815191526044820152603760f91b60648201526084016108bb565b603a80546001600160a01b0319166001600160a01b0392909216919091179055565b600080805b6001600160a01b0384166000908152603f602090815260408083208884529091529020548110156122d357612fdc858286610ea2565b612fe6908361387d565b915080612ff2816138c0565b915050612fa6565b6033546001600160a01b0316331461304c5760405162461bcd60e51b815260206004820152602160248201526000805160206139ac8339815191526044820152603760f91b60648201526084016108bb565b6130546133b8565b8160345481106130955760405162461bcd60e51b815260206004820152600c60248201526b125b9d985b1a5908141bdbdb60a21b60448201526064016108bb565b6000838152603e6020526040902060050154839060ff166130ed5760405162461bcd60e51b8152602060048201526012602482015271506f6f6c204973204e6f742041637469766560701b60448201526064016108bb565b6000841180156130ff57506034548411155b61313d5760405162461bcd60e51b815260206004820152600f60248201526e125b9d985b1a59081c1bdbdb081251608a1b60448201526064016108bb565b50506000828152603e602052604090206003018190556121aa60018055565b6038818154811061316c57600080fd5b6000918252602090912001546001600160a01b0316905081565b6033546001600160a01b031633146131d85760405162461bcd60e51b815260206004820152602160248201526000805160206139ac8339815191526044820152603760f91b60648201526084016108bb565b6001600160a01b03909116600090815260416020526040902055565b603d546040517fe6a439050000000000000000000000000000000000000000000000000000000081526001600160a01b0384811660048301528381166024830152600092839291169063e6a4390590604401602060405180830381865afa158015613263573d6000803e3d6000fd5b505050506040513d601f19601f82011682018060405250810190613287919061398e565b949350505050565b6033546001600160a01b031633146132e15760405162461bcd60e51b815260206004820152602160248201526000805160206139ac8339815191526044820152603760f91b60648201526084016108bb565b6132e96133b8565b6040805160e0810182528681526001600160a01b0380871660208084019182528783168486019081526060850188815260808601888152600160a08801818152600060c08a01818152603480548352603e9098529a812099518a55965191890180549289166001600160a01b031993841617905593516002890180549190981691161790955551600386015592516004850155915160058401805491151560ff1990921691909117905592516006909201919091558054916133aa836138c0565b919050555061151160018055565b60026001540361340a5760405162461bcd60e51b815260206004820152601f60248201527f5265656e7472616e637947756172643a207265656e7472616e742063616c6c0060448201526064016108bb565b6002600155565b60018055565b6000805b60385481101561347757826001600160a01b03166038828154811061344257613442613851565b6000918252602090912001546001600160a01b0316036134655750600192915050565b8061346f816138c0565b91505061341b565b50600092915050565b600054610100900460ff166134fd5760405162461bcd60e51b815260206004820152602b60248201527f496e697469616c697a61626c653a20636f6e7472616374206973206e6f74206960448201527f6e697469616c697a696e6700000000000000000000000000000000000000000060648201526084016108bb565b613505613507565b565b600054610100900460ff166134115760405162461bcd60e51b815260206004820152602b60248201527f496e697469616c697a61626c653a20636f6e7472616374206973206e6f74206960448201527f6e697469616c697a696e6700000000000000000000000000000000000000000060648201526084016108bb565b6000806040838503121561359757600080fd5b50508035926020909101359150565b6001600160a01b0381168114610db057600080fd5b80356135c6816135a6565b919050565b6000602082840312156135dd57600080fd5b81356122d5816135a6565b6000602082840312156135fa57600080fd5b5035919050565b60008060006060848603121561361657600080fd5b8335925060208401359150604084013561362f816135a6565b809150509250925092565b60008060006060848603121561364f57600080fd5b833561365a816135a6565b95602085013595506040909401359392505050565b8015158114610db057600080fd5b60006020828403121561368f57600080fd5b81356122d58161366f565b600080604083850312156136ad57600080fd5b82356136b8816135a6565b915060208301356136c8816135a6565b809150509250929050565b600080604083850312156136e657600080fd5b82356136f1816135a6565b946020939093013593505050565b634e487b7160e01b600052604160045260246000fd5b6000602080838503121561372857600080fd5b823567ffffffffffffffff8082111561374057600080fd5b818501915085601f83011261375457600080fd5b813581811115613766576137666136ff565b8060051b604051601f19603f8301168101818110858211171561378b5761378b6136ff565b6040529182528482019250838101850191888311156137a957600080fd5b938501935b828510156137ce576137bf856135bb565b845293850193928501926137ae565b98975050505050505050565b600080604083850312156137ed57600080fd5b8235915060208301356136c8816135a6565b600080600080600060a0868803121561381757600080fd5b853594506020860135613829816135a6565b93506040860135613839816135a6565b94979396509394606081013594506080013592915050565b634e487b7160e01b600052603260045260246000fd5b634e487b7160e01b600052601160045260246000fd5b808201808211156122d8576122d8613867565b6000602082840312156138a257600080fd5b81516122d58161366f565b818103818111156122d8576122d8613867565b6000600182016138d2576138d2613867565b5060010190565b80820281158282048414176122d8576122d8613867565b60008261390d57634e487b7160e01b600052601260045260246000fd5b500490565b80516dffffffffffffffffffffffffffff811681146135c657600080fd5b60008060006060848603121561394557600080fd5b61394e84613912565b925061395c60208501613912565b9150604084015163ffffffff8116811461362f57600080fd5b60006020828403121561398757600080fd5b5051919050565b6000602082840312156139a057600080fd5b81516122d5816135a656fe4f6e6c792061646d696e2063616e2063616c6c20746869732066756e6374696fa26469706673582212207071652c6d8e95b9613cad4f208a42a4bf77085bb5ec835bc112d1ba4c64f3bf64736f6c63430008130033",
  "linkReferences": {},
  "deployedLinkReferences": {}
}