{
  "_format": "hh-sol-artifact-1",
  "contractName": "StakingPoolV3",
  "sourceName": "contracts/cgateStaking.sol",
  "abi": [
    {
      "anonymous": false,
      "inputs": [
        {
          "indexed": false,
          "internalType": "uint8",
          "name": "version",
          "type": "uint8"
        }
      ],
      "name": "Initialized",
      "type": "event"
    },
    {
      "anonymous": false,
      "inputs": [
        {
          "indexed": true,
          "internalType": "address",
          "name": "newOwner",
          "type": "address"
        }
      ],
      "name": "OwnershipTransferProposed",
      "type": "event"
    },
    {
      "anonymous": false,
      "inputs": [
        {
          "indexed": true,
          "internalType": "address",
          "name": "voter",
          "type": "address"
        },
        {
          "indexed": false,
          "internalType": "bool",
          "name": "approve",
          "type": "bool"
        }
      ],
      "name": "VoteCasted",
      "type": "event"
    },
    {
      "inputs": [],
      "name": "CG8_TOKEN_ADDRESS",
      "outputs": [
        {
          "internalType": "address",
          "name": "",
          "type": "address"
        }
      ],
      "stateMutability": "view",
      "type": "function"
    },
    {
      "inputs": [],
      "name": "PANCAKE_FACTORY_ADDRESS",
      "outputs": [
        {
          "internalType": "address",
          "name": "",
          "type": "address"
        }
      ],
      "stateMutability": "view",
      "type": "function"
    },
    {
      "inputs": [],
      "name": "PANCAKE_ROUTER_ADDRESS",
      "outputs": [
        {
          "internalType": "address",
          "name": "",
          "type": "address"
        }
      ],
      "stateMutability": "view",
      "type": "function"
    },
    {
      "inputs": [],
      "name": "USDC_TOKEN_ADDRESS",
      "outputs": [
        {
          "internalType": "address",
          "name": "",
          "type": "address"
        }
      ],
      "stateMutability": "view",
      "type": "function"
    },
    {
      "inputs": [],
      "name": "admin",
      "outputs": [
        {
          "internalType": "address",
          "name": "",
          "type": "address"
        }
      ],
      "stateMutability": "view",
      "type": "function"
    },
    {
      "inputs": [],
      "name": "cancelOwnershipTransfer",
      "outputs": [],
      "stateMutability": "nonpayable",
      "type": "function"
    },
    {
      "inputs": [
        {
          "internalType": "bool",
          "name": "approve",
          "type": "bool"
        }
      ],
      "name": "castVote",
      "outputs": [],
      "stateMutability": "nonpayable",
      "type": "function"
    },
    {
      "inputs": [
        {
          "internalType": "uint256",
          "name": "poolId",
          "type": "uint256"
        },
        {
          "internalType": "uint256",
          "name": "stakeId",
          "type": "uint256"
        }
      ],
      "name": "claimIndividualReward",
      "outputs": [
        {
          "internalType": "uint256",
          "name": "",
          "type": "uint256"
        }
      ],
      "stateMutability": "nonpayable",
      "type": "function"
    },
    {
      "inputs": [
        {
          "internalType": "uint256",
          "name": "poolId",
          "type": "uint256"
        }
      ],
      "name": "claimReward",
      "outputs": [],
      "stateMutability": "nonpayable",
      "type": "function"
    },
    {
      "inputs": [
        {
          "internalType": "uint256",
          "name": "_timePeriod",
          "type": "uint256"
        },
        {
          "internalType": "address",
          "name": "_stakeToken",
          "type": "address"
        },
        {
          "internalType": "address",
          "name": "_rewardToken",
          "type": "address"
        },
        {
          "internalType": "uint256",
          "name": "_rewardPercent",
          "type": "uint256"
        },
        {
          "internalType": "uint256",
          "name": "_referralRewardPercent",
          "type": "uint256"
        }
      ],
      "name": "createStakingPool",
      "outputs": [],
      "stateMutability": "nonpayable",
      "type": "function"
    },
    {
      "inputs": [],
      "name": "finalizeOwnershipTransfer",
      "outputs": [],
      "stateMutability": "nonpayable",
      "type": "function"
    },
    {
      "inputs": [],
      "name": "getCurrentCgatePrice",
      "outputs": [
        {
          "internalType": "uint256",
          "name": "",
          "type": "uint256"
        }
      ],
      "stateMutability": "view",
      "type": "function"
    },
    {
      "inputs": [
        {
          "internalType": "address",
          "name": "tokenA",
          "type": "address"
        },
        {
          "internalType": "address",
          "name": "tokenB",
          "type": "address"
        }
      ],
      "name": "getPair",
      "outputs": [
        {
          "internalType": "address",
          "name": "",
          "type": "address"
        }
      ],
      "stateMutability": "view",
      "type": "function"
    },
    {
      "inputs": [
        {
          "internalType": "uint256",
          "name": "poolId",
          "type": "uint256"
        },
        {
          "internalType": "uint256",
          "name": "stakeId",
          "type": "uint256"
        },
        {
          "internalType": "address",
          "name": "user",
          "type": "address"
        }
      ],
      "name": "getPendingReward",
      "outputs": [
        {
          "internalType": "uint256",
          "name": "",
          "type": "uint256"
        }
      ],
      "stateMutability": "view",
      "type": "function"
    },
    {
      "inputs": [],
      "name": "getPrice",
      "outputs": [
        {
          "internalType": "uint256",
          "name": "",
          "type": "uint256"
        }
      ],
      "stateMutability": "view",
      "type": "function"
    },
    {
      "inputs": [],
      "name": "getPriceInverse",
      "outputs": [
        {
          "internalType": "uint256",
          "name": "",
          "type": "uint256"
        }
      ],
      "stateMutability": "view",
      "type": "function"
    },
    {
      "inputs": [
        {
          "internalType": "address",
          "name": "user",
          "type": "address"
        },
        {
          "internalType": "uint256",
          "name": "poolId",
          "type": "uint256"
        }
      ],
      "name": "getReferrals",
      "outputs": [
        {
          "internalType": "address[]",
          "name": "",
          "type": "address[]"
        }
      ],
      "stateMutability": "view",
      "type": "function"
    },
    {
      "inputs": [
        {
          "internalType": "address",
          "name": "pair",
          "type": "address"
        }
      ],
      "name": "getReserves",
      "outputs": [
        {
          "internalType": "uint112",
          "name": "reserve0",
          "type": "uint112"
        },
        {
          "internalType": "uint112",
          "name": "reserve1",
          "type": "uint112"
        }
      ],
      "stateMutability": "view",
      "type": "function"
    },
    {
      "inputs": [
        {
          "internalType": "uint256",
          "name": "poolId",
          "type": "uint256"
        },
        {
          "internalType": "address",
          "name": "user",
          "type": "address"
        }
      ],
      "name": "getTotalPendingRewardsForPool",
      "outputs": [
        {
          "internalType": "uint256",
          "name": "",
          "type": "uint256"
        }
      ],
      "stateMutability": "view",
      "type": "function"
    },
    {
      "inputs": [],
      "name": "getTotalPoolsCount",
      "outputs": [
        {
          "internalType": "uint256",
          "name": "",
          "type": "uint256"
        }
      ],
      "stateMutability": "view",
      "type": "function"
    },
    {
      "inputs": [
        {
          "internalType": "address",
          "name": "user",
          "type": "address"
        },
        {
          "internalType": "address",
          "name": "referrer",
          "type": "address"
        }
      ],
      "name": "getTotalReferralRewardByReferrer",
      "outputs": [
        {
          "internalType": "uint256",
          "name": "",
          "type": "uint256"
        }
      ],
      "stateMutability": "view",
      "type": "function"
    },
    {
      "inputs": [
        {
          "internalType": "address",
          "name": "user",
          "type": "address"
        }
      ],
      "name": "getTotalReferralRewards",
      "outputs": [
        {
          "internalType": "uint256",
          "name": "",
          "type": "uint256"
        }
      ],
      "stateMutability": "view",
      "type": "function"
    },
    {
      "inputs": [
        {
          "internalType": "address",
          "name": "",
          "type": "address"
        }
      ],
      "name": "hasVoted",
      "outputs": [
        {
          "internalType": "bool",
          "name": "",
          "type": "bool"
        }
      ],
      "stateMutability": "view",
      "type": "function"
    },
    {
      "inputs": [
        {
          "internalType": "address[]",
          "name": "_initialVoters",
          "type": "address[]"
        }
      ],
      "name": "initialize",
      "outputs": [],
      "stateMutability": "nonpayable",
      "type": "function"
    },
    {
      "inputs": [
        {
          "internalType": "address",
          "name": "",
          "type": "address"
        }
      ],
      "name": "isReferrer",
      "outputs": [
        {
          "internalType": "bool",
          "name": "",
          "type": "bool"
        }
      ],
      "stateMutability": "view",
      "type": "function"
    },
    {
      "inputs": [],
      "name": "poolAddress",
      "outputs": [
        {
          "internalType": "address",
          "name": "",
          "type": "address"
        }
      ],
      "stateMutability": "view",
      "type": "function"
    },
    {
      "inputs": [
        {
          "internalType": "address",
          "name": "",
          "type": "address"
        },
        {
          "internalType": "uint256",
          "name": "",
          "type": "uint256"
        }
      ],
      "name": "poolReferrers",
      "outputs": [
        {
          "internalType": "address",
          "name": "",
          "type": "address"
        }
      ],
      "stateMutability": "view",
      "type": "function"
    },
    {
      "inputs": [
        {
          "internalType": "uint256",
          "name": "",
          "type": "uint256"
        }
      ],
      "name": "pools",
      "outputs": [
        {
          "internalType": "uint256",
          "name": "timePeriod",
          "type": "uint256"
        },
        {
          "internalType": "address",
          "name": "stakeToken",
          "type": "address"
        },
        {
          "internalType": "address",
          "name": "rewardToken",
          "type": "address"
        },
        {
          "internalType": "uint256",
          "name": "rewardPercentPerStakedTokenPerYear",
          "type": "uint256"
        },
        {
          "internalType": "uint256",
          "name": "referralRewardPercent",
          "type": "uint256"
        },
        {
          "internalType": "bool",
          "name": "isActive",
          "type": "bool"
        },
        {
          "internalType": "uint256",
          "name": "totalStakes",
          "type": "uint256"
        }
      ],
      "stateMutability": "view",
      "type": "function"
    },
    {
      "inputs": [
        {
          "internalType": "address",
          "name": "newOwner",
          "type": "address"
        }
      ],
      "name": "proposeOwnershipTransfer",
      "outputs": [],
      "stateMutability": "nonpayable",
      "type": "function"
    },
    {
      "inputs": [],
      "name": "proposedOwner",
      "outputs": [
        {
          "internalType": "address",
          "name": "",
          "type": "address"
        }
      ],
      "stateMutability": "view",
      "type": "function"
    },
    {
      "inputs": [
        {
          "internalType": "address",
          "name": "",
          "type": "address"
        },
        {
          "internalType": "uint256",
          "name": "",
          "type": "uint256"
        },
        {
          "internalType": "uint256",
          "name": "",
          "type": "uint256"
        }
      ],
      "name": "referrals",
      "outputs": [
        {
          "internalType": "address",
          "name": "",
          "type": "address"
        }
      ],
      "stateMutability": "view",
      "type": "function"
    },
    {
      "inputs": [
        {
          "internalType": "address",
          "name": "",
          "type": "address"
        },
        {
          "internalType": "address",
          "name": "",
          "type": "address"
        },
        {
          "internalType": "uint256",
          "name": "",
          "type": "uint256"
        }
      ],
      "name": "referrerRewards",
      "outputs": [
        {
          "internalType": "uint256",
          "name": "",
          "type": "uint256"
        }
      ],
      "stateMutability": "view",
      "type": "function"
    },
    {
      "inputs": [
        {
          "internalType": "address",
          "name": "",
          "type": "address"
        }
      ],
      "name": "referrers",
      "outputs": [
        {
          "internalType": "address",
          "name": "",
          "type": "address"
        }
      ],
      "stateMutability": "view",
      "type": "function"
    },
    {
      "inputs": [
        {
          "internalType": "address",
          "name": "newAdmin",
          "type": "address"
        }
      ],
      "name": "setAdmin",
      "outputs": [],
      "stateMutability": "nonpayable",
      "type": "function"
    },
    {
      "inputs": [
        {
          "internalType": "address",
          "name": "_cg8Address",
          "type": "address"
        }
      ],
      "name": "setCg8Address",
      "outputs": [],
      "stateMutability": "nonpayable",
      "type": "function"
    },
    {
      "inputs": [
        {
          "internalType": "address",
          "name": "_factory",
          "type": "address"
        }
      ],
      "name": "setFactory",
      "outputs": [],
      "stateMutability": "nonpayable",
      "type": "function"
    },
    {
      "inputs": [
        {
          "internalType": "address",
          "name": "_poolAddress",
          "type": "address"
        }
      ],
      "name": "setPoolAddress",
      "outputs": [],
      "stateMutability": "nonpayable",
      "type": "function"
    },
    {
      "inputs": [
        {
          "internalType": "uint256",
          "name": "poolId",
          "type": "uint256"
        },
        {
          "internalType": "uint256",
          "name": "newPercentInBIPS",
          "type": "uint256"
        }
      ],
      "name": "setReferralRewardPercent",
      "outputs": [],
      "stateMutability": "nonpayable",
      "type": "function"
    },
    {
      "inputs": [
        {
          "internalType": "uint256",
          "name": "poolId",
          "type": "uint256"
        },
        {
          "internalType": "uint256",
          "name": "_newRewardPercentInBIPS",
          "type": "uint256"
        }
      ],
      "name": "setRewardPercent",
      "outputs": [],
      "stateMutability": "nonpayable",
      "type": "function"
    },
    {
      "inputs": [
        {
          "internalType": "uint256",
          "name": "poolId",
          "type": "uint256"
        },
        {
          "internalType": "address",
          "name": "_newRewardToken",
          "type": "address"
        }
      ],
      "name": "setRewardToken",
      "outputs": [],
      "stateMutability": "nonpayable",
      "type": "function"
    },
    {
      "inputs": [
        {
          "internalType": "address",
          "name": "_router",
          "type": "address"
        }
      ],
      "name": "setRouter",
      "outputs": [],
      "stateMutability": "nonpayable",
      "type": "function"
    },
    {
      "inputs": [
        {
          "internalType": "address",
          "name": "_referrer",
          "type": "address"
        },
        {
          "internalType": "uint256",
          "name": "_percentInBIPS",
          "type": "uint256"
        }
      ],
      "name": "setSpecialReferrerRewardPercent",
      "outputs": [],
      "stateMutability": "nonpayable",
      "type": "function"
    },
    {
      "inputs": [
        {
          "internalType": "uint256",
          "name": "poolId",
          "type": "uint256"
        },
        {
          "internalType": "uint256",
          "name": "_newTimePeriod",
          "type": "uint256"
        }
      ],
      "name": "setTimePeriod",
      "outputs": [],
      "stateMutability": "nonpayable",
      "type": "function"
    },
    {
      "inputs": [
        {
          "internalType": "address",
          "name": "_usdcAddress",
          "type": "address"
        }
      ],
      "name": "setUSDCAddress",
      "outputs": [],
      "stateMutability": "nonpayable",
      "type": "function"
    },
    {
      "inputs": [
        {
          "internalType": "address",
          "name": "",
          "type": "address"
        }
      ],
      "name": "signers",
      "outputs": [
        {
          "internalType": "bool",
          "name": "",
          "type": "bool"
        }
      ],
      "stateMutability": "view",
      "type": "function"
    },
    {
      "inputs": [
        {
          "internalType": "address",
          "name": "",
          "type": "address"
        }
      ],
      "name": "specialReferrersPercents",
      "outputs": [
        {
          "internalType": "uint256",
          "name": "",
          "type": "uint256"
        }
      ],
      "stateMutability": "view",
      "type": "function"
    },
    {
      "inputs": [
        {
          "internalType": "uint256",
          "name": "poolId",
          "type": "uint256"
        },
        {
          "internalType": "uint256",
          "name": "_amount",
          "type": "uint256"
        },
        {
          "internalType": "address",
          "name": "referrer",
          "type": "address"
        }
      ],
      "name": "stake",
      "outputs": [],
      "stateMutability": "nonpayable",
      "type": "function"
    },
    {
      "inputs": [
        {
          "internalType": "uint256",
          "name": "poolId",
          "type": "uint256"
        }
      ],
      "name": "togglePoolStatus",
      "outputs": [],
      "stateMutability": "nonpayable",
      "type": "function"
    },
    {
      "inputs": [
        {
          "internalType": "address",
          "name": "user",
          "type": "address"
        },
        {
          "internalType": "uint256",
          "name": "poolId",
          "type": "uint256"
        }
      ],
      "name": "totalStakeCount",
      "outputs": [
        {
          "internalType": "uint256",
          "name": "count",
          "type": "uint256"
        }
      ],
      "stateMutability": "view",
      "type": "function"
    },
    {
      "inputs": [
        {
          "internalType": "address",
          "name": "user",
          "type": "address"
        },
        {
          "internalType": "uint256",
          "name": "poolId",
          "type": "uint256"
        }
      ],
      "name": "totalUnstakeAllowed",
      "outputs": [
        {
          "internalType": "uint256",
          "name": "totalWithdrawable",
          "type": "uint256"
        }
      ],
      "stateMutability": "view",
      "type": "function"
    },
    {
      "inputs": [
        {
          "internalType": "uint256",
          "name": "poolId",
          "type": "uint256"
        }
      ],
      "name": "unStake",
      "outputs": [],
      "stateMutability": "nonpayable",
      "type": "function"
    },
    {
      "inputs": [
        {
          "internalType": "uint256",
          "name": "poolId",
          "type": "uint256"
        },
        {
          "internalType": "uint256",
          "name": "_stakeId",
          "type": "uint256"
        }
      ],
      "name": "unStakeIndividual",
      "outputs": [],
      "stateMutability": "nonpayable",
      "type": "function"
    },
    {
      "inputs": [
        {
          "internalType": "uint256",
          "name": "newPrice",
          "type": "uint256"
        }
      ],
      "name": "updateCurrentCgatePrice",
      "outputs": [],
      "stateMutability": "nonpayable",
      "type": "function"
    },
    {
      "inputs": [
        {
          "internalType": "address",
          "name": "",
          "type": "address"
        },
        {
          "internalType": "uint256",
          "name": "",
          "type": "uint256"
        },
        {
          "internalType": "uint256",
          "name": "",
          "type": "uint256"
        }
      ],
      "name": "userStakes",
      "outputs": [
        {
          "internalType": "uint256",
          "name": "amount",
          "type": "uint256"
        },
        {
          "internalType": "uint256",
          "name": "lastWithdrawTimestamp",
          "type": "uint256"
        },
        {
          "internalType": "uint256",
          "name": "rewardWithdrawnTillNow",
          "type": "uint256"
        },
        {
          "internalType": "uint256",
          "name": "stakeTime",
          "type": "uint256"
        },
        {
          "internalType": "address",
          "name": "referrer",
          "type": "address"
        },
        {
          "internalType": "uint256",
          "name": "depositedValueInDollars",
          "type": "uint256"
        }
      ],
      "stateMutability": "view",
      "type": "function"
    },
    {
      "inputs": [
        {
          "internalType": "address",
          "name": "",
          "type": "address"
        }
      ],
      "name": "users",
      "outputs": [
        {
          "internalType": "uint256",
          "name": "totalStaked",
          "type": "uint256"
        },
        {
          "internalType": "uint256",
          "name": "activeStakes",
          "type": "uint256"
        },
        {
          "internalType": "uint256",
          "name": "totalRewardWithdrawnTillNow",
          "type": "uint256"
        },
        {
          "internalType": "uint256",
          "name": "referralIncomeWithdrawnTillNow",
          "type": "uint256"
        },
        {
          "internalType": "uint256",
          "name": "totalReferrers",
          "type": "uint256"
        }
      ],
      "stateMutability": "view",
      "type": "function"
    },
    {
      "inputs": [
        {
          "internalType": "address",
          "name": "",
          "type": "address"
        },
        {
          "internalType": "uint256",
          "name": "",
          "type": "uint256"
        }
      ],
      "name": "usersStakesPerPool",
      "outputs": [
        {
          "internalType": "uint256",
          "name": "",
          "type": "uint256"
        }
      ],
      "stateMutability": "view",
      "type": "function"
    },
    {
      "inputs": [
        {
          "internalType": "uint256",
          "name": "",
          "type": "uint256"
        }
      ],
      "name": "voters",
      "outputs": [
        {
          "internalType": "address",
          "name": "",
          "type": "address"
        }
      ],
      "stateMutability": "view",
      "type": "function"
    },
    {
      "inputs": [
        {
          "internalType": "address",
          "name": "receiver",
          "type": "address"
        },
        {
          "internalType": "contract IERC20",
          "name": "_token",
          "type": "address"
        }
      ],
      "name": "withdrawDumpToken",
      "outputs": [],
      "stateMutability": "nonpayable",
      "type": "function"
    },
    {
      "inputs": [
        {
          "internalType": "address payable",
          "name": "_receiver",
          "type": "address"
        }
      ],
      "name": "withdrawEth",
      "outputs": [],
      "stateMutability": "nonpayable",
      "type": "function"
    }
  ],
  "bytecode": "0x608060405234801561001057600080fd5b506141d3806100206000396000f3fe608060405234801561001057600080fd5b50600436106103995760003560e01c806398d5fdca116101e9578063c0d786551161010f578063dbe4a261116100ad578063f43434391161007c578063f4343439146109aa578063f851a440146109b2578063fa8f683e146109c5578063fb58d2cf146109fb57600080fd5b8063dbe4a26114610951578063e6a4390514610964578063e7ee123314610977578063e9e15b4f1461099757600080fd5b8063c79bdb46116100e9578063c79bdb46146108f5578063d153b60c14610908578063d64d69681461091b578063da58c7d91461093e57600080fd5b8063c0d78655146108bc578063c114fcfa146108cf578063c57830cd146108e257600080fd5b8063ae169a5011610187578063bdd13d4a11610156578063bdd13d4a1461087b578063bf2ce8081461088e578063bf41c2a4146108a1578063c01b35a1146108a957600080fd5b8063ae169a5014610817578063b3d673d81461082a578063b401cdca1461083d578063b820a1cd1461086857600080fd5b8063a224cee7116101c3578063a224cee7146106ee578063a87430ba14610701578063aaf5bfc314610766578063ac4afa381461077957600080fd5b806398d5fdca146106c057806399672158146106c85780639dda7fee146106db57600080fd5b8063509173a1116102ce578063704b6c021161026c5780637ade26421161023b5780637ade26421461068a5780637b542a2a14610692578063855c5d46146106a55780638cd05ecb146106ad57600080fd5b8063704b6c021461062e578063736c0d5b146106415780637628a37d146106645780637ace48e71461067757600080fd5b80635bb47808116102a85780635bb47808146105c15780635d3eea91146105d4578063686e9222146105e75780636b38e0491461061b57600080fd5b8063509173a11461058857806353a640911461059b57806357a8773e146105ae57600080fd5b806328ac7c511161033b57806334144b0f1161031557806334144b0f146104ab5780633e99c1e4146104f45780634a3b68cc1461052e5780634ae77bcf1461055757600080fd5b806328ac7c511461045757806329a166161461046a57806332a00d8e1461048b57600080fd5b806321040fc31161037757806321040fc314610416578063216b31c11461042957806323452b9c1461043c57806325e160631461044457600080fd5b8063047ac00e1461039e57806309eef43e146103b35780631755ff21146103eb575b600080fd5b6103b16103ac366004613bc0565b610a0e565b005b6103d66103c1366004613bf7565b60396020526000908152604090205460ff1681565b60405190151581526020015b60405180910390f35b6045546103fe906001600160a01b031681565b6040516001600160a01b0390911681526020016103e2565b6103b1610424366004613bf7565b610cc9565b6103b1610437366004613c14565b610dbb565b6103b1610e72565b6103b1610452366004613bf7565b610f43565b603a546103fe906001600160a01b031681565b61047d610478366004613c2d565b611032565b6040519081526020016103e2565b61049e610499366004613c66565b6111f3565b6040516103e29190613c92565b6104be6104b9366004613cdf565b611273565b6040805196875260208701959095529385019290925260608401526001600160a01b0316608083015260a082015260c0016103e2565b610507610502366004613bf7565b6112dd565b604080516dffffffffffffffffffffffffffff9384168152929091166020830152016103e2565b6103fe61053c366004613bf7565b6040602081905260009182529020546001600160a01b031681565b61047d610565366004613d14565b604760209081526000938452604080852082529284528284209052825290205481565b603d546103fe906001600160a01b031681565b61047d6105a9366004613d55565b611352565b6103b16105bc366004613bf7565b6113b5565b6103b16105cf366004613bf7565b611429565b6103b16105e2366004613c14565b61149d565b6103fe6105f5366004613c66565b60486020908152600092835260408084209091529082529020546001600160a01b031681565b61047d610629366004613bc0565b61178b565b6103b161063c366004613bf7565b611b7e565b6103d661064f366004613bf7565b60446020526000908152604090205460ff1681565b6103b1610672366004613c2d565b611bf2565b6103b1610685366004613d9c565b6120fb565b61047d612209565b6103b16106a0366004613c14565b61230b565b60345461047d565b61047d6106bb366004613bf7565b612362565b61047d612446565b6103b16106d6366004613d55565b6124f2565b61047d6106e9366004613c66565b61266c565b6103b16106fc366004613e29565b612798565b61073e61070f366004613bf7565b604260205260009081526040902080546001820154600283015460038401546004909401549293919290919085565b604080519586526020860194909452928401919091526060830152608082015260a0016103e2565b6103b1610774366004613bf7565b6129c5565b6107d4610787366004613c14565b603e60205260009081526040902080546001820154600283015460038401546004850154600586015460069096015494956001600160a01b039485169593909416939192909160ff169087565b604080519788526001600160a01b039687166020890152949095169386019390935260608501919091526080840152151560a083015260c082015260e0016103e2565b6103b1610825366004613c14565b612a39565b603c546103fe906001600160a01b031681565b61047d61084b366004613c66565b604360209081526000928352604080842090915290825290205481565b6103b1610876366004613bc0565b612e6b565b6103b1610889366004613edb565b612fba565b6103b161089c366004613bc0565b613131565b6103b1613233565b6103fe6108b7366004613cdf565b6133dd565b6103b16108ca366004613bf7565b613422565b61047d6108dd366004613edb565b613496565b603b546103fe906001600160a01b031681565b6103b1610903366004613bc0565b6134ef565b6037546103fe906001600160a01b031681565b6103d6610929366004613bf7565b60496020526000908152604090205460ff1681565b6103fe61094c366004613c14565b613651565b6103b161095f366004613c66565b61367b565b6103fe610972366004613d55565b6136e9565b61047d610985366004613bf7565b60416020526000908152604090205481565b6103b16109a5366004613bf7565b613784565b61047d6137f8565b6033546103fe906001600160a01b031681565b61047d6109d3366004613c66565b6001600160a01b03919091166000908152603f60209081526040808320938352929052205490565b6103b1610a09366004613f00565b6138cb565b816034548110610a545760405162461bcd60e51b815260206004820152600c60248201526b125b9d985b1a5908141bdbdb60a21b60448201526064015b60405180910390fd5b6000838152603e6020526040902060050154839060ff16610aac5760405162461bcd60e51b8152602060048201526012602482015271506f6f6c204973204e6f742041637469766560701b6044820152606401610a4b565b336000908152603f602090815260408083208784529091528120805485908110610ad857610ad8613f52565b60009182526020808320888452603e909152604090922060069091029091019150805460038301544291610b0b91613f7e565b811015610b5a5760405162461bcd60e51b815260206004820152601660248201527f54696d6520706572696f64206e6f7420706173736564000000000000000000006044820152606401610a4b565b610b64878761178b565b506001838101829055820154835460405163a9059cbb60e01b815233600482015260248101919091526001600160a01b039091169063a9059cbb906044016020604051808303816000875af1158015610bc1573d6000803e3d6000fd5b505050506040513d601f19601f82011682018060405250810190610be59190613fa1565b610c315760405162461bcd60e51b815260206004820152601c60248201527f5374616b656420746f6b656e207472616e73666572206661696c6564000000006044820152606401610a4b565b82543360009081526042602052604081206001018054909190610c55908490613fbe565b909155505082543360009081526043602090815260408083208b845290915281208054909190610c86908490613fbe565b909155505082546000888152603e602052604081206006018054909190610cae908490613fbe565b90915550506000808455600590930192909255505050505050565b6033546001600160a01b03163314610d1b5760405162461bcd60e51b8152602060048201526021602482015260008051602061417e8339815191526044820152603760f91b6064820152608401610a4b565b6001600160a01b038116610d715760405162461bcd60e51b815260206004820181905260248201527f4e6577206f776e65722063616e6e6f74206265207a65726f20616464726573736044820152606401610a4b565b603780546001600160a01b0319166001600160a01b0383169081179091556040517ff0c6916d81cd1f899264b5193e3bbe7afd2bcc3d05704bab73d0b8ac9387115890600090a250565b6033546001600160a01b03163314610e0d5760405162461bcd60e51b8152602060048201526021602482015260008051602061417e8339815191526044820152603760f91b6064820152608401610a4b565b806034548110610e4e5760405162461bcd60e51b815260206004820152600c60248201526b125b9d985b1a5908141bdbdb60a21b6044820152606401610a4b565b506000908152603e60205260409020600501805460ff19811660ff90911615179055565b6033546001600160a01b03163314610ec45760405162461bcd60e51b8152602060048201526021602482015260008051602061417e8339815191526044820152603760f91b6064820152608401610a4b565b603780546001600160a01b031916905560005b603854811015610f405760006039600060388481548110610efa57610efa613f52565b6000918252602080832091909101546001600160a01b031683528201929092526040019020805460ff191691151591909117905580610f3881613fd1565b915050610ed7565b50565b6033546001600160a01b03163314610f955760405162461bcd60e51b8152602060048201526021602482015260008051602061417e8339815191526044820152603760f91b6064820152608401610a4b565b610f9d6139f4565b6001600160a01b038116610ff35760405162461bcd60e51b815260206004820152600f60248201527f496e76616c6964206164647265737300000000000000000000000000000000006044820152606401610a4b565b6040516001600160a01b038216904780156108fc02916000818181858888f19350505050158015611028573d6000803e3d6000fd5b50610f4060018055565b60008360345481106110755760405162461bcd60e51b815260206004820152600c60248201526b125b9d985b1a5908141bdbdb60a21b6044820152606401610a4b565b6000858152603e6020526040902060050154859060ff166110cd5760405162461bcd60e51b8152602060048201526012602482015271506f6f6c204973204e6f742041637469766560701b6044820152606401610a4b565b6001600160a01b0384166000908152603f60209081526040808320898452909152902054851061113f5760405162461bcd60e51b815260206004820152600f60248201527f55736572204e6f74205374616b656400000000000000000000000000000000006044820152606401610a4b565b6001600160a01b0384166000908152603f60209081526040808320898452909152812080548790811061117457611174613f52565b600091825260208083208a8452603e90915260408320600692909202016001810154909350909142916111a79083613fbe565b9050600060355461271085600301548488600501546111c69190613fea565b6111d09190613fea565b6111da9190614001565b6111e49190614001565b9b9a5050505050505050505050565b6001600160a01b038216600090815260466020908152604080832084845282529182902080548351818402810184019094528084526060939283018282801561126557602002820191906000526020600020905b81546001600160a01b03168152600190910190602001808311611247575b505050505090505b92915050565b603f602052826000526040600020602052816000526040600020818154811061129b57600080fd5b60009182526020909120600690910201805460018201546002830154600384015460048501546005909501549397509195509350916001600160a01b03169086565b600080600080846001600160a01b0316630902f1ac6040518163ffffffff1660e01b8152600401606060405180830381865afa158015611321573d6000803e3d6000fd5b505050506040513d601f19601f820116820180604052508101906113459190614055565b5090969095509350505050565b600080805b6034548110156113ad576001600160a01b0380851660009081526047602090815260408083209389168352928152828220848352905220546113999083613f7e565b9150806113a581613fd1565b915050611357565b509392505050565b6033546001600160a01b031633146114075760405162461bcd60e51b8152602060048201526021602482015260008051602061417e8339815191526044820152603760f91b6064820152608401610a4b565b603b80546001600160a01b0319166001600160a01b0392909216919091179055565b6033546001600160a01b0316331461147b5760405162461bcd60e51b8152602060048201526021602482015260008051602061417e8339815191526044820152603760f91b6064820152608401610a4b565b603d80546001600160a01b0319166001600160a01b0392909216919091179055565b8060345481106114de5760405162461bcd60e51b815260206004820152600c60248201526b125b9d985b1a5908141bdbdb60a21b6044820152606401610a4b565b6000828152603e6020526040902060050154829060ff166115365760405162461bcd60e51b8152602060048201526012602482015271506f6f6c204973204e6f742041637469766560701b6044820152606401610a4b565b6000838152603e60205260408120815b336000908152603f6020908152604080832089845290915290205481101561166457336000908152603f60209081526040808320898452909152812080548390811061159457611594613f52565b906000526020600020906006020190506000429050836000015482600301546115bd9190613f7e565b811061164f5781546115cf9086613f7e565b94506115db888461178b565b50600080835560018301829055338152603f602090815260408083208b8452909152902080548490811061161157611611613f52565b6000918252602082206006909102018181556001810182905560028101829055600381018290556004810180546001600160a01b0319169055600501555b5050808061165c90613fd1565b915050611546565b503360009081526042602052604081206001018054849290611687908490613fbe565b9091555050336000908152604360209081526040808320888452909152812080548492906116b6908490613fbe565b9091555050811561178457600181015460405163a9059cbb60e01b8152336004820152602481018490526001600160a01b039091169063a9059cbb906044016020604051808303816000875af1158015611714573d6000803e3d6000fd5b505050506040513d601f19601f820116820180604052508101906117389190613fa1565b6117845760405162461bcd60e51b815260206004820152601c60248201527f5374616b656420746f6b656e207472616e73666572206661696c6564000000006044820152606401610a4b565b5050505050565b60008260345481106117ce5760405162461bcd60e51b815260206004820152600c60248201526b125b9d985b1a5908141bdbdb60a21b6044820152606401610a4b565b6000848152603e6020526040902060050154849060ff166118265760405162461bcd60e51b8152602060048201526012602482015271506f6f6c204973204e6f742041637469766560701b6044820152606401610a4b565b336000908152603f60209081526040808320888452909152812080548690811061185257611852613f52565b60009182526020808320898452603e90915260408320600690920201805490935090910361188557600094505050611b76565b426000611893898933611032565b90508015611b7157600283015460405163a9059cbb60e01b8152336004820152602481018390526001600160a01b039091169063a9059cbb906044016020604051808303816000875af11580156118ee573d6000803e3d6000fd5b505050506040513d601f19601f820116820180604052508101906119129190613fa1565b61195e5760405162461bcd60e51b815260206004820152601660248201527f526577617264207472616e73666572206661696c6564000000000000000000006044820152606401610a4b565b60048401546001600160a01b031615611b2157600480840154908501546001600160a01b0316600090815260416020526040902054156119b7575060048401546001600160a01b03166000908152604160205260409020545b60006127106119c68385613fea565b6119d09190614001565b90508015611aea57600285015460048781015460405163a9059cbb60e01b81526001600160a01b0391821692810192909252602482018490529091169063a9059cbb906044016020604051808303816000875af1158015611a35573d6000803e3d6000fd5b505050506040513d601f19601f82011682018060405250810190611a599190613fa1565b611aa55760405162461bcd60e51b815260206004820152601f60248201527f526566657272616c20526577617264207472616e73666572206661696c6564006044820152606401610a4b565b60048601546001600160a01b0316600090815260476020908152604080832033845282528083208e845290915281208054839290611ae4908490613f7e565b90915550505b60048601546001600160a01b031660009081526042602052604081206003018054839290611b19908490613f7e565b909155505050505b3360009081526042602052604081206002018054839290611b43908490613f7e565b9250508190555080846002016000828254611b5e9190613f7e565b9091555050600190930155509250611b76565b505050505b505092915050565b6033546001600160a01b03163314611bd05760405162461bcd60e51b8152602060048201526021602482015260008051602061417e8339815191526044820152603760f91b6064820152608401610a4b565b603380546001600160a01b0319166001600160a01b0392909216919091179055565b826034548110611c335760405162461bcd60e51b815260206004820152600c60248201526b125b9d985b1a5908141bdbdb60a21b6044820152606401610a4b565b6000848152603e6020526040902060050154849060ff16611c8b5760405162461bcd60e51b8152602060048201526012602482015271506f6f6c204973204e6f742041637469766560701b6044820152606401610a4b565b60008411611cdb5760405162461bcd60e51b815260206004820152601d60248201527f416d6f756e74206d7573742062652067726561746572207468616e20300000006044820152606401610a4b565b6001600160a01b0383163303611d335760405162461bcd60e51b815260206004820152601860248201527f596f752063616e277420726566657220796f757273656c6600000000000000006044820152606401610a4b565b6000858152603e602052604090819020600181015491517f23b872dd0000000000000000000000000000000000000000000000000000000081523360048201523060248201526044810187905290916001600160a01b0316906323b872dd906064016020604051808303816000875af1158015611db4573d6000803e3d6000fd5b505050506040513d601f19601f82011682018060405250810190611dd89190613fa1565b611e245760405162461bcd60e51b815260206004820152601560248201527f546f6b656e207472616e73666572206661696c656400000000000000000000006044820152606401610a4b565b6001600160a01b03841615801590611e5557506001600160a01b03841660009081526049602052604090205460ff16155b15611ea4576001600160a01b0384166000908152604960209081526040808320805460ff1916600190811790915560429092528220600401805491929091611e9e908490613f7e565b90915550505b6001600160a01b03841615611f17573360008181526048602090815260408083208a8452825280832080546001600160a01b038a166001600160a01b03199182168117909255908452604683528184208b8552835290832080546001810182559084529190922001805490911690911790555b336000908152603f602090815260408083208984528252808320815160c081018352898152429381018490529182019390935260608101919091526001600160a01b038616608082015260a08101670de0b6b3a7640000611f766137f8565b611f80908a613fea565b611f8a9190614001565b90528154600180820184556000938452602080852084516006948502909101908155848201519281019290925560408085015160028401556060850151600384015560808501516004840180546001600160a01b0319166001600160a01b0390921691909117905560a090940151600590920191909155898452603e905290822001805487929061201c908490613f7e565b90915550506040805160a081018252336000908152604260205291909120548190612048908890613f7e565b81523360009081526042602090815260409091206001015491019061206e908890613f7e565b815233600081815260426020818152604080842060028101805484890152600382018054848a015260048301805460609a8b015297875294845288518255888401516001909201919091558782015190559486015190915560809094015190915560438352818120898252909252812080548792906120ee908490613f7e565b9091555050505050505050565b61210433613a53565b6121505760405162461bcd60e51b815260206004820152601160248201527f4e6f7420612076616c696420766f7465720000000000000000000000000000006044820152606401610a4b565b3360009081526039602052604090205460ff16156121b05760405162461bcd60e51b815260206004820152600d60248201527f416c726561647920766f746564000000000000000000000000000000000000006044820152606401610a4b565b3360008181526039602052604090819020805460ff19166001179055517fa4861c5510bfa99706ed508d728f9c6b365ff27af1a3012e21980952ad2d844f906121fe90841515815260200190565b60405180910390a250565b603b54603c54600091829161222a916001600160a01b0390811691166136e9565b90506001600160a01b03811661224257600091505090565b60008061224e836112dd565b603a546040517f85f8c259000000000000000000000000000000000000000000000000000000008152670de0b6b3a764000060048201526dffffffffffffffffffffffffffff8084166024830152841660448201529294509092506000916001600160a01b03909116906385f8c25990606401602060405180830381865afa1580156122de573d6000803e3d6000fd5b505050506040513d601f19601f820116820180604052508101906123029190614098565b95945050505050565b6033546001600160a01b0316331461235d5760405162461bcd60e51b8152602060048201526021602482015260008051602061417e8339815191526044820152603760f91b6064820152608401610a4b565b603655565b600080805b60345481101561243f5760005b6001600160a01b038516600090815260466020908152604080832085845290915290205481101561242c576001600160a01b03851660009081526047602090815260408083206046835281842086855290925282208054919291849081106123de576123de613f52565b60009182526020808320909101546001600160a01b0316835282810193909352604091820181208582529092529020546124189084613f7e565b92508061242481613fd1565b915050612374565b508061243781613fd1565b915050612367565b5092915050565b60455460408051633850c7bd60e01b815290516000926001600160a01b03169183918391633850c7bd9160048083019260e09291908290030181865afa158015612494573d6000803e3d6000fd5b505050506040513d601f19601f820116820180604052508101906124b891906140c3565b5190506001600160a01b0381166000600160c01b6124d68380613fea565b6124e890670de0b6b3a7640000613fea565b6123029190614001565b6033546001600160a01b031633146125445760405162461bcd60e51b8152602060048201526021602482015260008051602061417e8339815191526044820152603760f91b6064820152608401610a4b565b61254c6139f4565b6040517f70a082310000000000000000000000000000000000000000000000000000000081523060048201526001600160a01b0382169063a9059cbb90849083906370a0823190602401602060405180830381865afa1580156125b3573d6000803e3d6000fd5b505050506040513d601f19601f820116820180604052508101906125d79190614098565b6040517fffffffff0000000000000000000000000000000000000000000000000000000060e085901b1681526001600160a01b03909216600483015260248201526044016020604051808303816000875af115801561263a573d6000803e3d6000fd5b505050506040513d601f19601f8201168201806040525081019061265e9190613fa1565b5061266860018055565b5050565b6001600160a01b03821660009081526043602090815260408083208484529091528120548190156127915760005b6001600160a01b0385166000908152603f602090815260408083208784529091529020548110156113ad576000848152603e60209081526040808320546001600160a01b0389168452603f83528184208885529092529091208054429291908490811061270957612709613f52565b9060005260206000209060060201600301546127259190613f7e565b1161277f576001600160a01b0385166000908152603f60209081526040808320878452909152902080548290811061275f5761275f613f52565b9060005260206000209060060201600001548261277c9190613f7e565b91505b8061278981613fd1565b91505061269a565b9392505050565b600054610100900460ff16158080156127b85750600054600160ff909116105b806127d25750303b1580156127d2575060005460ff166001145b6128445760405162461bcd60e51b815260206004820152602e60248201527f496e697469616c697a61626c653a20636f6e747261637420697320616c72656160448201527f647920696e697469616c697a65640000000000000000000000000000000000006064820152608401610a4b565b6000805460ff191660011790558015612867576000805461ff0019166101001790555b61286f613abc565b603380546001600160a01b031990811633179091556301e1338060355564e8d4a51000603655603a80548216739ac64cc6e4415144c455bd8e4837fea55603e5c3179055603b80548216739f7b09eb38ed912ab5932dccad0b1f501abfe6fd179055603c8054821673d1fac5ff5d03b70d3383909692d09fc6d97c8219179055603d805490911673b7926c0430afb07aa7defde6da862ae0bde767bc17905560005b825181101561297b57603883828151811061292e5761292e613f52565b60209081029190910181015182546001810184556000938452919092200180546001600160a01b0319166001600160a01b039092169190911790558061297381613fd1565b915050612911565b508015612668576000805461ff0019169055604051600181527f7f26b83ff96e1f2b6a682f133852f6798a09c465da95921460cefb38474024989060200160405180910390a15050565b6033546001600160a01b03163314612a175760405162461bcd60e51b8152602060048201526021602482015260008051602061417e8339815191526044820152603760f91b6064820152608401610a4b565b603c80546001600160a01b0319166001600160a01b0392909216919091179055565b806034548110612a7a5760405162461bcd60e51b815260206004820152600c60248201526b125b9d985b1a5908141bdbdb60a21b6044820152606401610a4b565b612a826139f4565b6000828152603e6020526040902060050154829060ff16612ada5760405162461bcd60e51b8152602060048201526012602482015271506f6f6c204973204e6f742041637469766560701b6044820152606401610a4b565b6000838152603e6020526040812090805b336000908152603f60209081526040808320898452909152902054811015612d9557336000908152603f602090815260408083208984529091528120805483908110612b3957612b39613f52565b90600052602060002090600602019050600081600001541115612d8257426000612b64898533611032565b60048401549091506001600160a01b031615612d2a57600480870154908401546001600160a01b031660009081526041602052604090205415612bc0575060048301546001600160a01b03166000908152604160205260409020545b6000612710612bcf8385613fea565b612bd99190614001565b90508015612d2757600288015460048681015460405163a9059cbb60e01b81526001600160a01b0391821692810192909252602482018490529091169063a9059cbb906044016020604051808303816000875af1158015612c3e573d6000803e3d6000fd5b505050506040513d601f19601f82011682018060405250810190612c629190613fa1565b612cae5760405162461bcd60e51b815260206004820152601f60248201527f526566657272616c20526577617264207472616e73666572206661696c6564006044820152606401610a4b565b60048501546001600160a01b0316600090815260476020908152604080832033845282528083208e845290915281208054839290612ced908490613f7e565b909155505060048501546001600160a01b031660009081526042602052604081206003018054839290612d21908490613f7e565b90915550505b50505b3360009081526042602052604081206002018054839290612d4c908490613f7e565b9250508190555080836002016000828254612d679190613f7e565b909155505060018301829055612d7d8186613f7e565b945050505b5080612d8d81613fd1565b915050612aeb565b508015612e5f57600282015460405163a9059cbb60e01b8152336004820152602481018390526001600160a01b039091169063a9059cbb906044016020604051808303816000875af1158015612def573d6000803e3d6000fd5b505050506040513d601f19601f82011682018060405250810190612e139190613fa1565b612e5f5760405162461bcd60e51b815260206004820152601660248201527f526577617264207472616e73666572206661696c6564000000000000000000006044820152606401610a4b565b50505061266860018055565b6033546001600160a01b03163314612ebd5760405162461bcd60e51b8152602060048201526021602482015260008051602061417e8339815191526044820152603760f91b6064820152608401610a4b565b816034548110612efe5760405162461bcd60e51b815260206004820152600c60248201526b125b9d985b1a5908141bdbdb60a21b6044820152606401610a4b565b6000838152603e6020526040902060050154839060ff16612f565760405162461bcd60e51b8152602060048201526012602482015271506f6f6c204973204e6f742041637469766560701b6044820152606401610a4b565b600084118015612f6857506034548411155b612fa65760405162461bcd60e51b815260206004820152600f60248201526e125b9d985b1a59081c1bdbdb081251608a1b6044820152606401610a4b565b50506000918252603e602052604090912055565b6033546001600160a01b0316331461300c5760405162461bcd60e51b8152602060048201526021602482015260008051602061417e8339815191526044820152603760f91b6064820152608401610a4b565b6130146139f4565b8160345481106130555760405162461bcd60e51b815260206004820152600c60248201526b125b9d985b1a5908141bdbdb60a21b6044820152606401610a4b565b6000838152603e6020526040902060050154839060ff166130ad5760405162461bcd60e51b8152602060048201526012602482015271506f6f6c204973204e6f742041637469766560701b6044820152606401610a4b565b6000841180156130bf57506034548411155b6130fd5760405162461bcd60e51b815260206004820152600f60248201526e125b9d985b1a59081c1bdbdb081251608a1b6044820152606401610a4b565b50506000828152603e6020526040902060020180546001600160a01b0319166001600160a01b038316179055600180555050565b6033546001600160a01b031633146131835760405162461bcd60e51b8152602060048201526021602482015260008051602061417e8339815191526044820152603760f91b6064820152608401610a4b565b8160345481106131c45760405162461bcd60e51b815260206004820152600c60248201526b125b9d985b1a5908141bdbdb60a21b6044820152606401610a4b565b6000838152603e6020526040902060050154839060ff1661321c5760405162461bcd60e51b8152602060048201526012602482015271506f6f6c204973204e6f742041637469766560701b6044820152606401610a4b565b50506000918252603e602052604090912060040155565b6033546001600160a01b031633146132855760405162461bcd60e51b8152602060048201526021602482015260008051602061417e8339815191526044820152603760f91b6064820152608401610a4b565b603854600090815b818110156132f95760396000603883815481106132ac576132ac613f52565b60009182526020808320909101546001600160a01b0316835282019290925260400190205460ff16156132e757826132e381613fd1565b9350505b806132f181613fd1565b91505061328d565b508181148061334a5760405162461bcd60e51b815260206004820152601660248201527f496e73756666696369656e7420617070726f76616c73000000000000000000006044820152606401610a4b565b60378054603380546001600160a01b0383166001600160a01b0319918216811790925590911690915560005b83811015611784576000603960006038848154811061339757613397613f52565b6000918252602080832091909101546001600160a01b031683528201929092526040019020805460ff1916911515919091179055806133d581613fd1565b915050613376565b6046602052826000526040600020602052816000526040600020818154811061340557600080fd5b6000918252602090912001546001600160a01b0316925083915050565b6033546001600160a01b031633146134745760405162461bcd60e51b8152602060048201526021602482015260008051602061417e8339815191526044820152603760f91b6064820152608401610a4b565b603a80546001600160a01b0319166001600160a01b0392909216919091179055565b600080805b6001600160a01b0384166000908152603f602090815260408083208884529091529020548110156113ad576134d1858286611032565b6134db9083613f7e565b9150806134e781613fd1565b91505061349b565b6033546001600160a01b031633146135415760405162461bcd60e51b8152602060048201526021602482015260008051602061417e8339815191526044820152603760f91b6064820152608401610a4b565b6135496139f4565b81603454811061358a5760405162461bcd60e51b815260206004820152600c60248201526b125b9d985b1a5908141bdbdb60a21b6044820152606401610a4b565b6000838152603e6020526040902060050154839060ff166135e25760405162461bcd60e51b8152602060048201526012602482015271506f6f6c204973204e6f742041637469766560701b6044820152606401610a4b565b6000841180156135f457506034548411155b6136325760405162461bcd60e51b815260206004820152600f60248201526e125b9d985b1a59081c1bdbdb081251608a1b6044820152606401610a4b565b50506000828152603e6020526040902060030181905561266860018055565b6038818154811061366157600080fd5b6000918252602090912001546001600160a01b0316905081565b6033546001600160a01b031633146136cd5760405162461bcd60e51b8152602060048201526021602482015260008051602061417e8339815191526044820152603760f91b6064820152608401610a4b565b6001600160a01b03909116600090815260416020526040902055565b603d546040517fe6a439050000000000000000000000000000000000000000000000000000000081526001600160a01b0384811660048301528381166024830152600092839291169063e6a4390590604401602060405180830381865afa158015613758573d6000803e3d6000fd5b505050506040513d601f19601f8201168201806040525081019061377c9190614160565b949350505050565b6033546001600160a01b031633146137d65760405162461bcd60e51b8152602060048201526021602482015260008051602061417e8339815191526044820152603760f91b6064820152608401610a4b565b604580546001600160a01b0319166001600160a01b0392909216919091179055565b60455460408051633850c7bd60e01b815290516000926001600160a01b03169183918391633850c7bd9160048083019260e09291908290030181865afa158015613846573d6000803e3d6000fd5b505050506040513d601f19601f8201168201806040525081019061386a91906140c3565b5190506001600160a01b0381166000600160c01b6138888380613fea565b61389a90670de0b6b3a7640000613fea565b6138a49190614001565b905060006138c1826ec097ce7bc90715b34b9f1000000000614001565b9695505050505050565b6033546001600160a01b0316331461391d5760405162461bcd60e51b8152602060048201526021602482015260008051602061417e8339815191526044820152603760f91b6064820152608401610a4b565b6139256139f4565b6040805160e0810182528681526001600160a01b0380871660208084019182528783168486019081526060850188815260808601888152600160a08801818152600060c08a01818152603480548352603e9098529a812099518a55965191890180549289166001600160a01b031993841617905593516002890180549190981691161790955551600386015592516004850155915160058401805491151560ff1990921691909117905592516006909201919091558054916139e683613fd1565b919050555061178460018055565b600260015403613a465760405162461bcd60e51b815260206004820152601f60248201527f5265656e7472616e637947756172643a207265656e7472616e742063616c6c006044820152606401610a4b565b6002600155565b60018055565b6000805b603854811015613ab357826001600160a01b031660388281548110613a7e57613a7e613f52565b6000918252602090912001546001600160a01b031603613aa15750600192915050565b80613aab81613fd1565b915050613a57565b50600092915050565b600054610100900460ff16613b395760405162461bcd60e51b815260206004820152602b60248201527f496e697469616c697a61626c653a20636f6e7472616374206973206e6f74206960448201527f6e697469616c697a696e670000000000000000000000000000000000000000006064820152608401610a4b565b613b41613b43565b565b600054610100900460ff16613a4d5760405162461bcd60e51b815260206004820152602b60248201527f496e697469616c697a61626c653a20636f6e7472616374206973206e6f74206960448201527f6e697469616c697a696e670000000000000000000000000000000000000000006064820152608401610a4b565b60008060408385031215613bd357600080fd5b50508035926020909101359150565b6001600160a01b0381168114610f4057600080fd5b600060208284031215613c0957600080fd5b813561279181613be2565b600060208284031215613c2657600080fd5b5035919050565b600080600060608486031215613c4257600080fd5b83359250602084013591506040840135613c5b81613be2565b809150509250925092565b60008060408385031215613c7957600080fd5b8235613c8481613be2565b946020939093013593505050565b6020808252825182820181905260009190848201906040850190845b81811015613cd35783516001600160a01b031683529284019291840191600101613cae565b50909695505050505050565b600080600060608486031215613cf457600080fd5b8335613cff81613be2565b95602085013595506040909401359392505050565b600080600060608486031215613d2957600080fd5b8335613d3481613be2565b92506020840135613d4481613be2565b929592945050506040919091013590565b60008060408385031215613d6857600080fd5b8235613d7381613be2565b91506020830135613d8381613be2565b809150509250929050565b8015158114610f4057600080fd5b600060208284031215613dae57600080fd5b813561279181613d8e565b634e487b7160e01b600052604160045260246000fd5b60405160e0810167ffffffffffffffff81118282101715613df257613df2613db9565b60405290565b604051601f8201601f1916810167ffffffffffffffff81118282101715613e2157613e21613db9565b604052919050565b60006020808385031215613e3c57600080fd5b823567ffffffffffffffff80821115613e5457600080fd5b818501915085601f830112613e6857600080fd5b813581811115613e7a57613e7a613db9565b8060051b9150613e8b848301613df8565b8181529183018401918481019088841115613ea557600080fd5b938501935b83851015613ecf5784359250613ebf83613be2565b8282529385019390850190613eaa565b98975050505050505050565b60008060408385031215613eee57600080fd5b823591506020830135613d8381613be2565b600080600080600060a08688031215613f1857600080fd5b853594506020860135613f2a81613be2565b93506040860135613f3a81613be2565b94979396509394606081013594506080013592915050565b634e487b7160e01b600052603260045260246000fd5b634e487b7160e01b600052601160045260246000fd5b8082018082111561126d5761126d613f68565b8051613f9c81613d8e565b919050565b600060208284031215613fb357600080fd5b815161279181613d8e565b8181038181111561126d5761126d613f68565b600060018201613fe357613fe3613f68565b5060010190565b808202811582820484141761126d5761126d613f68565b60008261401e57634e487b7160e01b600052601260045260246000fd5b500490565b80516dffffffffffffffffffffffffffff81168114613f9c57600080fd5b805163ffffffff81168114613f9c57600080fd5b60008060006060848603121561406a57600080fd5b61407384614023565b925061408160208501614023565b915061408f60408501614041565b90509250925092565b6000602082840312156140aa57600080fd5b5051919050565b805161ffff81168114613f9c57600080fd5b600060e082840312156140d557600080fd5b6140dd613dcf565b82516140e881613be2565b81526020830151600281900b81146140ff57600080fd5b6020820152614110604084016140b1565b6040820152614121606084016140b1565b6060820152614132608084016140b1565b608082015261414360a08401614041565b60a082015261415460c08401613f91565b60c08201529392505050565b60006020828403121561417257600080fd5b815161279181613be256fe4f6e6c792061646d696e2063616e2063616c6c20746869732066756e6374696fa2646970667358221220559b7323b818728dc94b99a480e240a691e2696daefc5946b38a920ddf4df05164736f6c63430008130033",
  "linkReferences": {},
  "deployedLinkReferences": {}
}