{
  "_format": "hh-sol-artifact-1",
  "contractName": "StakingPoolV3",
  "sourceName": "contracts/cgateStaking.sol",
  "abi": [
    {
      "anonymous": false,
      "inputs": [
        {
          "indexed": false,
          "internalType": "string",
          "name": "message",
          "type": "string"
        }
      ],
      "name": "Error",
      "type": "event"
    },
    {
      "anonymous": false,
      "inputs": [
        {
          "indexed": false,
          "internalType": "uint8",
          "name": "version",
          "type": "uint8"
        }
      ],
      "name": "Initialized",
      "type": "event"
    },
    {
      "anonymous": false,
      "inputs": [
        {
          "indexed": true,
          "internalType": "address",
          "name": "newOwner",
          "type": "address"
        }
      ],
      "name": "OwnershipTransferProposed",
      "type": "event"
    },
    {
      "anonymous": false,
      "inputs": [
        {
          "indexed": true,
          "internalType": "address",
          "name": "voter",
          "type": "address"
        },
        {
          "indexed": false,
          "internalType": "bool",
          "name": "approve",
          "type": "bool"
        }
      ],
      "name": "VoteCasted",
      "type": "event"
    },
    {
      "inputs": [],
      "name": "CG8_TOKEN_ADDRESS",
      "outputs": [
        {
          "internalType": "address",
          "name": "",
          "type": "address"
        }
      ],
      "stateMutability": "view",
      "type": "function"
    },
    {
      "inputs": [],
      "name": "PANCAKE_FACTORY_ADDRESS",
      "outputs": [
        {
          "internalType": "address",
          "name": "",
          "type": "address"
        }
      ],
      "stateMutability": "view",
      "type": "function"
    },
    {
      "inputs": [],
      "name": "PANCAKE_ROUTER_ADDRESS",
      "outputs": [
        {
          "internalType": "address",
          "name": "",
          "type": "address"
        }
      ],
      "stateMutability": "view",
      "type": "function"
    },
    {
      "inputs": [],
      "name": "USDC_TOKEN_ADDRESS",
      "outputs": [
        {
          "internalType": "address",
          "name": "",
          "type": "address"
        }
      ],
      "stateMutability": "view",
      "type": "function"
    },
    {
      "inputs": [],
      "name": "admin",
      "outputs": [
        {
          "internalType": "address",
          "name": "",
          "type": "address"
        }
      ],
      "stateMutability": "view",
      "type": "function"
    },
    {
      "inputs": [],
      "name": "cancelOwnershipTransfer",
      "outputs": [],
      "stateMutability": "nonpayable",
      "type": "function"
    },
    {
      "inputs": [
        {
          "internalType": "bool",
          "name": "approve",
          "type": "bool"
        }
      ],
      "name": "castVote",
      "outputs": [],
      "stateMutability": "nonpayable",
      "type": "function"
    },
    {
      "inputs": [
        {
          "internalType": "uint256",
          "name": "poolId",
          "type": "uint256"
        },
        {
          "internalType": "uint256",
          "name": "stakeId",
          "type": "uint256"
        }
      ],
      "name": "claimIndividualReward",
      "outputs": [
        {
          "internalType": "uint256",
          "name": "",
          "type": "uint256"
        }
      ],
      "stateMutability": "nonpayable",
      "type": "function"
    },
    {
      "inputs": [
        {
          "internalType": "uint256",
          "name": "poolId",
          "type": "uint256"
        }
      ],
      "name": "claimReward",
      "outputs": [],
      "stateMutability": "nonpayable",
      "type": "function"
    },
    {
      "inputs": [
        {
          "internalType": "uint256",
          "name": "_timePeriod",
          "type": "uint256"
        },
        {
          "internalType": "address",
          "name": "_stakeToken",
          "type": "address"
        },
        {
          "internalType": "address",
          "name": "_rewardToken",
          "type": "address"
        },
        {
          "internalType": "uint256",
          "name": "_rewardPercent",
          "type": "uint256"
        },
        {
          "internalType": "uint256",
          "name": "_referralRewardPercent",
          "type": "uint256"
        }
      ],
      "name": "createStakingPool",
      "outputs": [],
      "stateMutability": "nonpayable",
      "type": "function"
    },
    {
      "inputs": [],
      "name": "finalizeOwnershipTransfer",
      "outputs": [],
      "stateMutability": "nonpayable",
      "type": "function"
    },
    {
      "inputs": [],
      "name": "getCurrentCgatePrice",
      "outputs": [
        {
          "internalType": "uint256",
          "name": "",
          "type": "uint256"
        }
      ],
      "stateMutability": "view",
      "type": "function"
    },
    {
      "inputs": [
        {
          "internalType": "address",
          "name": "tokenA",
          "type": "address"
        },
        {
          "internalType": "address",
          "name": "tokenB",
          "type": "address"
        }
      ],
      "name": "getPair",
      "outputs": [
        {
          "internalType": "address",
          "name": "",
          "type": "address"
        }
      ],
      "stateMutability": "view",
      "type": "function"
    },
    {
      "inputs": [
        {
          "internalType": "uint256",
          "name": "poolId",
          "type": "uint256"
        },
        {
          "internalType": "uint256",
          "name": "stakeId",
          "type": "uint256"
        },
        {
          "internalType": "address",
          "name": "user",
          "type": "address"
        }
      ],
      "name": "getPendingReward",
      "outputs": [
        {
          "internalType": "uint256",
          "name": "",
          "type": "uint256"
        }
      ],
      "stateMutability": "view",
      "type": "function"
    },
    {
      "inputs": [],
      "name": "getPrice",
      "outputs": [
        {
          "internalType": "uint256",
          "name": "",
          "type": "uint256"
        }
      ],
      "stateMutability": "view",
      "type": "function"
    },
    {
      "inputs": [],
      "name": "getPriceInverse",
      "outputs": [
        {
          "internalType": "uint256",
          "name": "",
          "type": "uint256"
        }
      ],
      "stateMutability": "view",
      "type": "function"
    },
    {
      "inputs": [
        {
          "internalType": "address",
          "name": "pair",
          "type": "address"
        }
      ],
      "name": "getReserves",
      "outputs": [
        {
          "internalType": "uint112",
          "name": "reserve0",
          "type": "uint112"
        },
        {
          "internalType": "uint112",
          "name": "reserve1",
          "type": "uint112"
        }
      ],
      "stateMutability": "view",
      "type": "function"
    },
    {
      "inputs": [
        {
          "internalType": "uint256",
          "name": "poolId",
          "type": "uint256"
        },
        {
          "internalType": "address",
          "name": "user",
          "type": "address"
        }
      ],
      "name": "getTotalPendingRewardsForPool",
      "outputs": [
        {
          "internalType": "uint256",
          "name": "",
          "type": "uint256"
        }
      ],
      "stateMutability": "view",
      "type": "function"
    },
    {
      "inputs": [],
      "name": "getTotalPoolsCount",
      "outputs": [
        {
          "internalType": "uint256",
          "name": "",
          "type": "uint256"
        }
      ],
      "stateMutability": "view",
      "type": "function"
    },
    {
      "inputs": [
        {
          "internalType": "address",
          "name": "",
          "type": "address"
        }
      ],
      "name": "hasVoted",
      "outputs": [
        {
          "internalType": "bool",
          "name": "",
          "type": "bool"
        }
      ],
      "stateMutability": "view",
      "type": "function"
    },
    {
      "inputs": [
        {
          "internalType": "address[]",
          "name": "_initialVoters",
          "type": "address[]"
        }
      ],
      "name": "initialize",
      "outputs": [],
      "stateMutability": "nonpayable",
      "type": "function"
    },
    {
      "inputs": [],
      "name": "poolAddress",
      "outputs": [
        {
          "internalType": "address",
          "name": "",
          "type": "address"
        }
      ],
      "stateMutability": "view",
      "type": "function"
    },
    {
      "inputs": [
        {
          "internalType": "uint256",
          "name": "",
          "type": "uint256"
        }
      ],
      "name": "pools",
      "outputs": [
        {
          "internalType": "uint256",
          "name": "timePeriod",
          "type": "uint256"
        },
        {
          "internalType": "address",
          "name": "stakeToken",
          "type": "address"
        },
        {
          "internalType": "address",
          "name": "rewardToken",
          "type": "address"
        },
        {
          "internalType": "uint256",
          "name": "rewardPercentPerStakedTokenPerYear",
          "type": "uint256"
        },
        {
          "internalType": "uint256",
          "name": "referralRewardPercent",
          "type": "uint256"
        },
        {
          "internalType": "bool",
          "name": "isActive",
          "type": "bool"
        },
        {
          "internalType": "uint256",
          "name": "totalStakes",
          "type": "uint256"
        }
      ],
      "stateMutability": "view",
      "type": "function"
    },
    {
      "inputs": [
        {
          "internalType": "address",
          "name": "newOwner",
          "type": "address"
        }
      ],
      "name": "proposeOwnershipTransfer",
      "outputs": [],
      "stateMutability": "nonpayable",
      "type": "function"
    },
    {
      "inputs": [],
      "name": "proposedOwner",
      "outputs": [
        {
          "internalType": "address",
          "name": "",
          "type": "address"
        }
      ],
      "stateMutability": "view",
      "type": "function"
    },
    {
      "inputs": [
        {
          "internalType": "address",
          "name": "",
          "type": "address"
        }
      ],
      "name": "referrers",
      "outputs": [
        {
          "internalType": "address",
          "name": "",
          "type": "address"
        }
      ],
      "stateMutability": "view",
      "type": "function"
    },
    {
      "inputs": [
        {
          "internalType": "address",
          "name": "newAdmin",
          "type": "address"
        }
      ],
      "name": "setAdmin",
      "outputs": [],
      "stateMutability": "nonpayable",
      "type": "function"
    },
    {
      "inputs": [
        {
          "internalType": "address",
          "name": "_cg8Address",
          "type": "address"
        }
      ],
      "name": "setCg8Address",
      "outputs": [],
      "stateMutability": "nonpayable",
      "type": "function"
    },
    {
      "inputs": [
        {
          "internalType": "address",
          "name": "_factory",
          "type": "address"
        }
      ],
      "name": "setFactory",
      "outputs": [],
      "stateMutability": "nonpayable",
      "type": "function"
    },
    {
      "inputs": [
        {
          "internalType": "address",
          "name": "_poolAddress",
          "type": "address"
        }
      ],
      "name": "setPoolAddress",
      "outputs": [],
      "stateMutability": "nonpayable",
      "type": "function"
    },
    {
      "inputs": [
        {
          "internalType": "uint256",
          "name": "poolId",
          "type": "uint256"
        },
        {
          "internalType": "uint256",
          "name": "newPercentInBIPS",
          "type": "uint256"
        }
      ],
      "name": "setReferralRewardPercent",
      "outputs": [],
      "stateMutability": "nonpayable",
      "type": "function"
    },
    {
      "inputs": [
        {
          "internalType": "uint256",
          "name": "poolId",
          "type": "uint256"
        },
        {
          "internalType": "uint256",
          "name": "_newRewardPercentInBIPS",
          "type": "uint256"
        }
      ],
      "name": "setRewardPercent",
      "outputs": [],
      "stateMutability": "nonpayable",
      "type": "function"
    },
    {
      "inputs": [
        {
          "internalType": "uint256",
          "name": "poolId",
          "type": "uint256"
        },
        {
          "internalType": "address",
          "name": "_newRewardToken",
          "type": "address"
        }
      ],
      "name": "setRewardToken",
      "outputs": [],
      "stateMutability": "nonpayable",
      "type": "function"
    },
    {
      "inputs": [
        {
          "internalType": "address",
          "name": "_router",
          "type": "address"
        }
      ],
      "name": "setRouter",
      "outputs": [],
      "stateMutability": "nonpayable",
      "type": "function"
    },
    {
      "inputs": [
        {
          "internalType": "address",
          "name": "_referrer",
          "type": "address"
        },
        {
          "internalType": "uint256",
          "name": "_percentInBIPS",
          "type": "uint256"
        }
      ],
      "name": "setSpecialReferrerRewardPercent",
      "outputs": [],
      "stateMutability": "nonpayable",
      "type": "function"
    },
    {
      "inputs": [
        {
          "internalType": "uint256",
          "name": "poolId",
          "type": "uint256"
        },
        {
          "internalType": "uint256",
          "name": "_newTimePeriod",
          "type": "uint256"
        }
      ],
      "name": "setTimePeriod",
      "outputs": [],
      "stateMutability": "nonpayable",
      "type": "function"
    },
    {
      "inputs": [
        {
          "internalType": "address",
          "name": "_usdcAddress",
          "type": "address"
        }
      ],
      "name": "setUSDCAddress",
      "outputs": [],
      "stateMutability": "nonpayable",
      "type": "function"
    },
    {
      "inputs": [
        {
          "internalType": "address",
          "name": "",
          "type": "address"
        }
      ],
      "name": "signers",
      "outputs": [
        {
          "internalType": "bool",
          "name": "",
          "type": "bool"
        }
      ],
      "stateMutability": "view",
      "type": "function"
    },
    {
      "inputs": [
        {
          "internalType": "address",
          "name": "",
          "type": "address"
        }
      ],
      "name": "specialReferrersPercents",
      "outputs": [
        {
          "internalType": "uint256",
          "name": "",
          "type": "uint256"
        }
      ],
      "stateMutability": "view",
      "type": "function"
    },
    {
      "inputs": [
        {
          "internalType": "uint256",
          "name": "poolId",
          "type": "uint256"
        },
        {
          "internalType": "uint256",
          "name": "_amount",
          "type": "uint256"
        },
        {
          "internalType": "address",
          "name": "referrer",
          "type": "address"
        }
      ],
      "name": "stake",
      "outputs": [],
      "stateMutability": "nonpayable",
      "type": "function"
    },
    {
      "inputs": [
        {
          "internalType": "uint256",
          "name": "poolId",
          "type": "uint256"
        }
      ],
      "name": "togglePoolStatus",
      "outputs": [],
      "stateMutability": "nonpayable",
      "type": "function"
    },
    {
      "inputs": [
        {
          "internalType": "address",
          "name": "user",
          "type": "address"
        },
        {
          "internalType": "uint256",
          "name": "poolId",
          "type": "uint256"
        }
      ],
      "name": "totalStakeCount",
      "outputs": [
        {
          "internalType": "uint256",
          "name": "count",
          "type": "uint256"
        }
      ],
      "stateMutability": "view",
      "type": "function"
    },
    {
      "inputs": [
        {
          "internalType": "address",
          "name": "user",
          "type": "address"
        },
        {
          "internalType": "uint256",
          "name": "poolId",
          "type": "uint256"
        }
      ],
      "name": "totalUnstakeAllowed",
      "outputs": [
        {
          "internalType": "uint256",
          "name": "totalWithdrawable",
          "type": "uint256"
        }
      ],
      "stateMutability": "view",
      "type": "function"
    },
    {
      "inputs": [
        {
          "internalType": "uint256",
          "name": "poolId",
          "type": "uint256"
        }
      ],
      "name": "unStake",
      "outputs": [],
      "stateMutability": "nonpayable",
      "type": "function"
    },
    {
      "inputs": [
        {
          "internalType": "uint256",
          "name": "poolId",
          "type": "uint256"
        },
        {
          "internalType": "uint256",
          "name": "_stakeId",
          "type": "uint256"
        }
      ],
      "name": "unStakeIndividual",
      "outputs": [],
      "stateMutability": "nonpayable",
      "type": "function"
    },
    {
      "inputs": [
        {
          "internalType": "uint256",
          "name": "newPrice",
          "type": "uint256"
        }
      ],
      "name": "updateCurrentCgatePrice",
      "outputs": [],
      "stateMutability": "nonpayable",
      "type": "function"
    },
    {
      "inputs": [
        {
          "internalType": "address",
          "name": "",
          "type": "address"
        },
        {
          "internalType": "uint256",
          "name": "",
          "type": "uint256"
        },
        {
          "internalType": "uint256",
          "name": "",
          "type": "uint256"
        }
      ],
      "name": "userStakes",
      "outputs": [
        {
          "internalType": "uint256",
          "name": "amount",
          "type": "uint256"
        },
        {
          "internalType": "uint256",
          "name": "lastWithdrawTimestamp",
          "type": "uint256"
        },
        {
          "internalType": "uint256",
          "name": "rewardWithdrawnTillNow",
          "type": "uint256"
        },
        {
          "internalType": "uint256",
          "name": "stakeTime",
          "type": "uint256"
        },
        {
          "internalType": "address",
          "name": "referrer",
          "type": "address"
        },
        {
          "internalType": "uint256",
          "name": "depositedValueInDollars",
          "type": "uint256"
        }
      ],
      "stateMutability": "view",
      "type": "function"
    },
    {
      "inputs": [
        {
          "internalType": "address",
          "name": "",
          "type": "address"
        }
      ],
      "name": "users",
      "outputs": [
        {
          "internalType": "uint256",
          "name": "totalStaked",
          "type": "uint256"
        },
        {
          "internalType": "uint256",
          "name": "activeStakes",
          "type": "uint256"
        },
        {
          "internalType": "uint256",
          "name": "totalRewardWithdrawnTillNow",
          "type": "uint256"
        },
        {
          "internalType": "uint256",
          "name": "referralIncomeWithdrawnTillNow",
          "type": "uint256"
        },
        {
          "internalType": "uint256",
          "name": "totalReferrers",
          "type": "uint256"
        }
      ],
      "stateMutability": "view",
      "type": "function"
    },
    {
      "inputs": [
        {
          "internalType": "address",
          "name": "",
          "type": "address"
        },
        {
          "internalType": "uint256",
          "name": "",
          "type": "uint256"
        }
      ],
      "name": "usersStakesPerPool",
      "outputs": [
        {
          "internalType": "uint256",
          "name": "",
          "type": "uint256"
        }
      ],
      "stateMutability": "view",
      "type": "function"
    },
    {
      "inputs": [
        {
          "internalType": "uint256",
          "name": "",
          "type": "uint256"
        }
      ],
      "name": "voters",
      "outputs": [
        {
          "internalType": "address",
          "name": "",
          "type": "address"
        }
      ],
      "stateMutability": "view",
      "type": "function"
    },
    {
      "inputs": [
        {
          "internalType": "address",
          "name": "receiver",
          "type": "address"
        },
        {
          "internalType": "contract IERC20",
          "name": "_token",
          "type": "address"
        }
      ],
      "name": "withdrawDumpToken",
      "outputs": [],
      "stateMutability": "nonpayable",
      "type": "function"
    },
    {
      "inputs": [
        {
          "internalType": "address payable",
          "name": "_receiver",
          "type": "address"
        }
      ],
      "name": "withdrawEth",
      "outputs": [],
      "stateMutability": "nonpayable",
      "type": "function"
    }
  ],
  "bytecode": "0x608060405234801561001057600080fd5b50613d5e806100206000396000f3fe608060405234801561001057600080fd5b506004361061034c5760003560e01c80639dda7fee116101bd578063c114fcfa116100f9578063e6a43905116100a2578063f43434391161007c578063f43434391461087c578063f851a44014610884578063fa8f683e14610897578063fb58d2cf146108cd57600080fd5b8063e6a4390514610836578063e7ee123314610849578063e9e15b4f1461086957600080fd5b8063d153b60c116100d3578063d153b60c146107fd578063da58c7d914610810578063dbe4a2611461082357600080fd5b8063c114fcfa146107c4578063c57830cd146107d7578063c79bdb46146107ea57600080fd5b8063b3d673d811610166578063bdd13d4a11610140578063bdd13d4a14610783578063bf2ce80814610796578063bf41c2a4146107a9578063c0d78655146107b157600080fd5b8063b3d673d814610732578063b401cdca14610745578063b820a1cd1461077057600080fd5b8063aaf5bfc311610197578063aaf5bfc31461066e578063ac4afa3814610681578063ae169a501461071f57600080fd5b80639dda7fee146105e3578063a224cee7146105f6578063a87430ba1461060957600080fd5b806357a8773e1161028c5780637628a37d116102355780637b542a2a1161020f5780637b542a2a146105ad578063855c5d46146105c057806398d5fdca146105c857806399672158146105d057600080fd5b80637628a37d1461057f5780637ace48e7146105925780637ade2642146105a557600080fd5b80636b38e049116102665780636b38e04914610536578063704b6c0214610549578063736c0d5b1461055c57600080fd5b806357a8773e146104fd5780635bb47808146105105780635d3eea911461052357600080fd5b806325e16063116102f957806334144b0f116102d357806334144b0f1461043e5780633e99c1e4146104875780634a3b68cc146104c1578063509173a1146104ea57600080fd5b806325e16063146103f757806328ac7c511461040a57806329a166161461041d57600080fd5b806321040fc31161032a57806321040fc3146103c9578063216b31c1146103dc57806323452b9c146103ef57600080fd5b8063047ac00e1461035157806309eef43e146103665780631755ff211461039e575b600080fd5b61036461035f3660046137d9565b6108e0565b005b610389610374366004613810565b60396020526000908152604090205460ff1681565b60405190151581526020015b60405180910390f35b6045546103b1906001600160a01b031681565b6040516001600160a01b039091168152602001610395565b6103646103d7366004613810565b610b9b565b6103646103ea36600461382d565b610c8d565b610364610d44565b610364610405366004613810565b610e15565b603a546103b1906001600160a01b031681565b61043061042b366004613846565b610f04565b604051908152602001610395565b61045161044c36600461387f565b6110c5565b6040805196875260208701959095529385019290925260608401526001600160a01b0316608083015260a082015260c001610395565b61049a610495366004613810565b61112f565b604080516dffffffffffffffffffffffffffff938416815292909116602083015201610395565b6103b16104cf366004613810565b6040602081905260009182529020546001600160a01b031681565b603d546103b1906001600160a01b031681565b61036461050b366004613810565b6111a4565b61036461051e366004613810565b611218565b61036461053136600461382d565b61128c565b6104306105443660046137d9565b61157a565b610364610557366004613810565b611976565b61038961056a366004613810565b60446020526000908152604090205460ff1681565b61036461058d366004613846565b6119ea565b6103646105a03660046138c2565b611e2f565b610430611f3d565b6103646105bb36600461382d565b61203f565b603454610430565b610430612096565b6103646105de3660046138df565b612142565b6104306105f1366004613918565b6122bc565b6103646106043660046139b4565b6123ec565b610646610617366004613810565b604260205260009081526040902080546001820154600283015460038401546004909401549293919290919085565b604080519586526020860194909452928401919091526060830152608082015260a001610395565b61036461067c366004613810565b612619565b6106dc61068f36600461382d565b603e60205260009081526040902080546001820154600283015460038401546004850154600586015460069096015494956001600160a01b039485169593909416939192909160ff169087565b604080519788526001600160a01b039687166020890152949095169386019390935260608501919091526080840152151560a083015260c082015260e001610395565b61036461072d36600461382d565b61268d565b603c546103b1906001600160a01b031681565b610430610753366004613918565b604360209081526000928352604080842090915290825290205481565b61036461077e3660046137d9565b612ac9565b610364610791366004613a66565b612c18565b6103646107a43660046137d9565b612d8f565b610364612e91565b6103646107bf366004613810565b61303b565b6104306107d2366004613a66565b6130af565b603b546103b1906001600160a01b031681565b6103646107f83660046137d9565b613108565b6037546103b1906001600160a01b031681565b6103b161081e36600461382d565b61326a565b610364610831366004613918565b613294565b6103b16108443660046138df565b613302565b610430610857366004613810565b60416020526000908152604090205481565b610364610877366004613810565b61339d565b610430613411565b6033546103b1906001600160a01b031681565b6104306108a5366004613918565b6001600160a01b03919091166000908152603f60209081526040808320938352929052205490565b6103646108db366004613a8b565b6134e4565b8160345481106109265760405162461bcd60e51b815260206004820152600c60248201526b125b9d985b1a5908141bdbdb60a21b60448201526064015b60405180910390fd5b6000838152603e6020526040902060050154839060ff1661097e5760405162461bcd60e51b8152602060048201526012602482015271506f6f6c204973204e6f742041637469766560701b604482015260640161091d565b336000908152603f6020908152604080832087845290915281208054859081106109aa576109aa613add565b60009182526020808320888452603e9091526040909220600690910290910191508054600383015442916109dd91613b09565b811015610a2c5760405162461bcd60e51b815260206004820152601660248201527f54696d6520706572696f64206e6f742070617373656400000000000000000000604482015260640161091d565b610a36878761157a565b506001838101829055820154835460405163a9059cbb60e01b815233600482015260248101919091526001600160a01b039091169063a9059cbb906044016020604051808303816000875af1158015610a93573d6000803e3d6000fd5b505050506040513d601f19601f82011682018060405250810190610ab79190613b2c565b610b035760405162461bcd60e51b815260206004820152601c60248201527f5374616b656420746f6b656e207472616e73666572206661696c656400000000604482015260640161091d565b82543360009081526042602052604081206001018054909190610b27908490613b49565b909155505082543360009081526043602090815260408083208b845290915281208054909190610b58908490613b49565b909155505082546000888152603e602052604081206006018054909190610b80908490613b49565b90915550506000808455600590930192909255505050505050565b6033546001600160a01b03163314610bed5760405162461bcd60e51b81526020600482015260216024820152600080516020613d098339815191526044820152603760f91b606482015260840161091d565b6001600160a01b038116610c435760405162461bcd60e51b815260206004820181905260248201527f4e6577206f776e65722063616e6e6f74206265207a65726f2061646472657373604482015260640161091d565b603780546001600160a01b0319166001600160a01b0383169081179091556040517ff0c6916d81cd1f899264b5193e3bbe7afd2bcc3d05704bab73d0b8ac9387115890600090a250565b6033546001600160a01b03163314610cdf5760405162461bcd60e51b81526020600482015260216024820152600080516020613d098339815191526044820152603760f91b606482015260840161091d565b806034548110610d205760405162461bcd60e51b815260206004820152600c60248201526b125b9d985b1a5908141bdbdb60a21b604482015260640161091d565b506000908152603e60205260409020600501805460ff19811660ff90911615179055565b6033546001600160a01b03163314610d965760405162461bcd60e51b81526020600482015260216024820152600080516020613d098339815191526044820152603760f91b606482015260840161091d565b603780546001600160a01b031916905560005b603854811015610e125760006039600060388481548110610dcc57610dcc613add565b6000918252602080832091909101546001600160a01b031683528201929092526040019020805460ff191691151591909117905580610e0a81613b5c565b915050610da9565b50565b6033546001600160a01b03163314610e675760405162461bcd60e51b81526020600482015260216024820152600080516020613d098339815191526044820152603760f91b606482015260840161091d565b610e6f61360d565b6001600160a01b038116610ec55760405162461bcd60e51b815260206004820152600f60248201527f496e76616c696420616464726573730000000000000000000000000000000000604482015260640161091d565b6040516001600160a01b038216904780156108fc02916000818181858888f19350505050158015610efa573d6000803e3d6000fd5b50610e1260018055565b6000836034548110610f475760405162461bcd60e51b815260206004820152600c60248201526b125b9d985b1a5908141bdbdb60a21b604482015260640161091d565b6000858152603e6020526040902060050154859060ff16610f9f5760405162461bcd60e51b8152602060048201526012602482015271506f6f6c204973204e6f742041637469766560701b604482015260640161091d565b6001600160a01b0384166000908152603f6020908152604080832089845290915290205485106110115760405162461bcd60e51b815260206004820152600f60248201527f55736572204e6f74205374616b65640000000000000000000000000000000000604482015260640161091d565b6001600160a01b0384166000908152603f60209081526040808320898452909152812080548790811061104657611046613add565b600091825260208083208a8452603e90915260408320600692909202016001810154909350909142916110799083613b49565b9050600060355461271085600301548488600501546110989190613b75565b6110a29190613b75565b6110ac9190613b8c565b6110b69190613b8c565b9b9a5050505050505050505050565b603f60205282600052604060002060205281600052604060002081815481106110ed57600080fd5b60009182526020909120600690910201805460018201546002830154600384015460048501546005909501549397509195509350916001600160a01b03169086565b600080600080846001600160a01b0316630902f1ac6040518163ffffffff1660e01b8152600401606060405180830381865afa158015611173573d6000803e3d6000fd5b505050506040513d601f19601f820116820180604052508101906111979190613be0565b5090969095509350505050565b6033546001600160a01b031633146111f65760405162461bcd60e51b81526020600482015260216024820152600080516020613d098339815191526044820152603760f91b606482015260840161091d565b603b80546001600160a01b0319166001600160a01b0392909216919091179055565b6033546001600160a01b0316331461126a5760405162461bcd60e51b81526020600482015260216024820152600080516020613d098339815191526044820152603760f91b606482015260840161091d565b603d80546001600160a01b0319166001600160a01b0392909216919091179055565b8060345481106112cd5760405162461bcd60e51b815260206004820152600c60248201526b125b9d985b1a5908141bdbdb60a21b604482015260640161091d565b6000828152603e6020526040902060050154829060ff166113255760405162461bcd60e51b8152602060048201526012602482015271506f6f6c204973204e6f742041637469766560701b604482015260640161091d565b6000838152603e60205260408120815b336000908152603f6020908152604080832089845290915290205481101561145357336000908152603f60209081526040808320898452909152812080548390811061138357611383613add565b906000526020600020906006020190506000429050836000015482600301546113ac9190613b09565b811061143e5781546113be9086613b09565b94506113ca888461157a565b50600080835560018301829055338152603f602090815260408083208b8452909152902080548490811061140057611400613add565b6000918252602082206006909102018181556001810182905560028101829055600381018290556004810180546001600160a01b0319169055600501555b5050808061144b90613b5c565b915050611335565b503360009081526042602052604081206001018054849290611476908490613b49565b9091555050336000908152604360209081526040808320888452909152812080548492906114a5908490613b49565b9091555050811561157357600181015460405163a9059cbb60e01b8152336004820152602481018490526001600160a01b039091169063a9059cbb906044016020604051808303816000875af1158015611503573d6000803e3d6000fd5b505050506040513d601f19601f820116820180604052508101906115279190613b2c565b6115735760405162461bcd60e51b815260206004820152601c60248201527f5374616b656420746f6b656e207472616e73666572206661696c656400000000604482015260640161091d565b5050505050565b60008260345481106115bd5760405162461bcd60e51b815260206004820152600c60248201526b125b9d985b1a5908141bdbdb60a21b604482015260640161091d565b6000848152603e6020526040902060050154849060ff166116155760405162461bcd60e51b8152602060048201526012602482015271506f6f6c204973204e6f742041637469766560701b604482015260640161091d565b336000908152603f60209081526040808320888452909152812080548690811061164157611641613add565b60009182526020808320898452603e9091526040832060069092020180549093509091036116745760009450505061196e565b426000611682898933610f04565b9050801561196957600283015460405163a9059cbb60e01b8152336004820152602481018390526001600160a01b039091169063a9059cbb906044016020604051808303816000875af11580156116dd573d6000803e3d6000fd5b505050506040513d601f19601f820116820180604052508101906117019190613b2c565b61174d5760405162461bcd60e51b815260206004820152601660248201527f526577617264207472616e73666572206661696c656400000000000000000000604482015260640161091d565b60048401546001600160a01b03161561191957600480840154908501546001600160a01b0316600090815260416020526040902054156117a6575060048401546001600160a01b03166000908152604160205260409020545b60006127106117b58385613b75565b6117bf9190613b8c565b11156118cc57600284015460048601546001600160a01b039182169163a9059cbb91166127106117ef8587613b75565b6117f99190613b8c565b6040517fffffffff0000000000000000000000000000000000000000000000000000000060e085901b1681526001600160a01b03909216600483015260248201526044016020604051808303816000875af115801561185c573d6000803e3d6000fd5b505050506040513d601f19601f820116820180604052508101906118809190613b2c565b6118cc5760405162461bcd60e51b815260206004820152601f60248201527f526566657272616c20526577617264207472616e73666572206661696c656400604482015260640161091d565b6127106118d98284613b75565b6118e39190613b8c565b60048601546001600160a01b031660009081526042602052604081206003018054909190611912908490613b09565b9091555050505b336000908152604260205260408120600201805483929061193b908490613b09565b92505081905550808460020160008282546119569190613b09565b909155505060019093015550925061196e565b505050505b505092915050565b6033546001600160a01b031633146119c85760405162461bcd60e51b81526020600482015260216024820152600080516020613d098339815191526044820152603760f91b606482015260840161091d565b603380546001600160a01b0319166001600160a01b0392909216919091179055565b826034548110611a2b5760405162461bcd60e51b815260206004820152600c60248201526b125b9d985b1a5908141bdbdb60a21b604482015260640161091d565b6000848152603e6020526040902060050154849060ff16611a835760405162461bcd60e51b8152602060048201526012602482015271506f6f6c204973204e6f742041637469766560701b604482015260640161091d565b60008411611ad35760405162461bcd60e51b815260206004820152601d60248201527f416d6f756e74206d7573742062652067726561746572207468616e2030000000604482015260640161091d565b6001600160a01b0383163303611b2b5760405162461bcd60e51b815260206004820152601860248201527f596f752063616e277420726566657220796f757273656c660000000000000000604482015260640161091d565b6000858152603e602052604090819020600181015491517f23b872dd0000000000000000000000000000000000000000000000000000000081523360048201523060248201526044810187905290916001600160a01b0316906323b872dd906064016020604051808303816000875af1158015611bac573d6000803e3d6000fd5b505050506040513d601f19601f82011682018060405250810190611bd09190613b2c565b611c1c5760405162461bcd60e51b815260206004820152601560248201527f546f6b656e207472616e73666572206661696c65640000000000000000000000604482015260640161091d565b336000908152603f602090815260408083208984528252808320815160c081018352898152429381018490529182019390935260608101919091526001600160a01b038616608082015260a08101670de0b6b3a7640000611c7b613411565b611c85908a613b75565b611c8f9190613b8c565b90528154600180820184556000938452602080852084516006948502909101908155848201519281019290925560408085015160028401556060850151600384015560808501516004840180546001600160a01b0319166001600160a01b0390921691909117905560a090940151600590920191909155898452603e9052908220018054879290611d21908490613b09565b90915550506040805160a081018252336000908152604260205291909120548190611d4d908890613b09565b815233600090815260426020908152604090912060010154910190611d73908890613b09565b815233600081815260426020818152604080842060028101805484890152600382018054848a0152606098890187905296865293835287518155878301516001820155878201519093559486015190935560809094015160049094019390935560438152818320898452905281208054879290611df1908490613b09565b90915550506001600160a01b0384166000908152604260205260408120600401805460019290611e22908490613b09565b9091555050505050505050565b611e383361366c565b611e845760405162461bcd60e51b815260206004820152601160248201527f4e6f7420612076616c696420766f746572000000000000000000000000000000604482015260640161091d565b3360009081526039602052604090205460ff1615611ee45760405162461bcd60e51b815260206004820152600d60248201527f416c726561647920766f74656400000000000000000000000000000000000000604482015260640161091d565b3360008181526039602052604090819020805460ff19166001179055517fa4861c5510bfa99706ed508d728f9c6b365ff27af1a3012e21980952ad2d844f90611f3290841515815260200190565b60405180910390a250565b603b54603c546000918291611f5e916001600160a01b039081169116613302565b90506001600160a01b038116611f7657600091505090565b600080611f828361112f565b603a546040517f85f8c259000000000000000000000000000000000000000000000000000000008152670de0b6b3a764000060048201526dffffffffffffffffffffffffffff8084166024830152841660448201529294509092506000916001600160a01b03909116906385f8c25990606401602060405180830381865afa158015612012573d6000803e3d6000fd5b505050506040513d601f19601f820116820180604052508101906120369190613c23565b95945050505050565b6033546001600160a01b031633146120915760405162461bcd60e51b81526020600482015260216024820152600080516020613d098339815191526044820152603760f91b606482015260840161091d565b603655565b60455460408051633850c7bd60e01b815290516000926001600160a01b03169183918391633850c7bd9160048083019260e09291908290030181865afa1580156120e4573d6000803e3d6000fd5b505050506040513d601f19601f820116820180604052508101906121089190613c4e565b5190506001600160a01b0381166000600160c01b6121268380613b75565b61213890670de0b6b3a7640000613b75565b6120369190613b8c565b6033546001600160a01b031633146121945760405162461bcd60e51b81526020600482015260216024820152600080516020613d098339815191526044820152603760f91b606482015260840161091d565b61219c61360d565b6040517f70a082310000000000000000000000000000000000000000000000000000000081523060048201526001600160a01b0382169063a9059cbb90849083906370a0823190602401602060405180830381865afa158015612203573d6000803e3d6000fd5b505050506040513d601f19601f820116820180604052508101906122279190613c23565b6040517fffffffff0000000000000000000000000000000000000000000000000000000060e085901b1681526001600160a01b03909216600483015260248201526044016020604051808303816000875af115801561228a573d6000803e3d6000fd5b505050506040513d601f19601f820116820180604052508101906122ae9190613b2c565b506122b860018055565b5050565b6001600160a01b03821660009081526043602090815260408083208484529091528120548190156123e35760005b6001600160a01b0385166000908152603f602090815260408083208784529091529020548110156123e1576000848152603e60209081526040808320546001600160a01b0389168452603f83528184208885529092529091208054429291908490811061235957612359613add565b9060005260206000209060060201600301546123759190613b09565b116123cf576001600160a01b0385166000908152603f6020908152604080832087845290915290208054829081106123af576123af613add565b906000526020600020906006020160000154826123cc9190613b09565b91505b806123d981613b5c565b9150506122ea565b505b90505b92915050565b600054610100900460ff161580801561240c5750600054600160ff909116105b806124265750303b158015612426575060005460ff166001145b6124985760405162461bcd60e51b815260206004820152602e60248201527f496e697469616c697a61626c653a20636f6e747261637420697320616c72656160448201527f647920696e697469616c697a6564000000000000000000000000000000000000606482015260840161091d565b6000805460ff1916600117905580156124bb576000805461ff0019166101001790555b6124c36136d5565b603380546001600160a01b031990811633179091556301e1338060355564e8d4a51000603655603a80548216739ac64cc6e4415144c455bd8e4837fea55603e5c3179055603b80548216739f7b09eb38ed912ab5932dccad0b1f501abfe6fd179055603c8054821673d1fac5ff5d03b70d3383909692d09fc6d97c8219179055603d805490911673b7926c0430afb07aa7defde6da862ae0bde767bc17905560005b82518110156125cf57603883828151811061258257612582613add565b60209081029190910181015182546001810184556000938452919092200180546001600160a01b0319166001600160a01b03909216919091179055806125c781613b5c565b915050612565565b5080156122b8576000805461ff0019169055604051600181527f7f26b83ff96e1f2b6a682f133852f6798a09c465da95921460cefb38474024989060200160405180910390a15050565b6033546001600160a01b0316331461266b5760405162461bcd60e51b81526020600482015260216024820152600080516020613d098339815191526044820152603760f91b606482015260840161091d565b603c80546001600160a01b0319166001600160a01b0392909216919091179055565b8060345481106126ce5760405162461bcd60e51b815260206004820152600c60248201526b125b9d985b1a5908141bdbdb60a21b604482015260640161091d565b6126d661360d565b6000828152603e6020526040902060050154829060ff1661272e5760405162461bcd60e51b8152602060048201526012602482015271506f6f6c204973204e6f742041637469766560701b604482015260640161091d565b6000838152603e6020526040812090805b336000908152603f602090815260408083208984529091529020548110156129f357336000908152603f60209081526040808320898452909152812080548390811061278d5761278d613add565b906000526020600020906006020190506000816000015411156129e0574260006127b8898533610f04565b60048401549091506001600160a01b03161561298857600480870154908401546001600160a01b031660009081526041602052604090205415612814575060048301546001600160a01b03166000908152604160205260409020545b60006127106128238385613b75565b61282d9190613b8c565b111561298657600287015460048501546001600160a01b039182169163a9059cbb911661271061285d8587613b75565b6128679190613b8c565b6040517fffffffff0000000000000000000000000000000000000000000000000000000060e085901b1681526001600160a01b03909216600483015260248201526044016020604051808303816000875af11580156128ca573d6000803e3d6000fd5b505050506040513d601f19601f820116820180604052508101906128ee9190613b2c565b61293a5760405162461bcd60e51b815260206004820152601f60248201527f526566657272616c20526577617264207472616e73666572206661696c656400604482015260640161091d565b6127106129478284613b75565b6129519190613b8c565b60048501546001600160a01b031660009081526042602052604081206003018054909190612980908490613b09565b90915550505b505b33600090815260426020526040812060020180548392906129aa908490613b09565b92505081905550808360020160008282546129c59190613b09565b9091555050600183018290556129db8186613b09565b945050505b50806129eb81613b5c565b91505061273f565b508015612abd57600282015460405163a9059cbb60e01b8152336004820152602481018390526001600160a01b039091169063a9059cbb906044016020604051808303816000875af1158015612a4d573d6000803e3d6000fd5b505050506040513d601f19601f82011682018060405250810190612a719190613b2c565b612abd5760405162461bcd60e51b815260206004820152601660248201527f526577617264207472616e73666572206661696c656400000000000000000000604482015260640161091d565b5050506122b860018055565b6033546001600160a01b03163314612b1b5760405162461bcd60e51b81526020600482015260216024820152600080516020613d098339815191526044820152603760f91b606482015260840161091d565b816034548110612b5c5760405162461bcd60e51b815260206004820152600c60248201526b125b9d985b1a5908141bdbdb60a21b604482015260640161091d565b6000838152603e6020526040902060050154839060ff16612bb45760405162461bcd60e51b8152602060048201526012602482015271506f6f6c204973204e6f742041637469766560701b604482015260640161091d565b600084118015612bc657506034548411155b612c045760405162461bcd60e51b815260206004820152600f60248201526e125b9d985b1a59081c1bdbdb081251608a1b604482015260640161091d565b50506000918252603e602052604090912055565b6033546001600160a01b03163314612c6a5760405162461bcd60e51b81526020600482015260216024820152600080516020613d098339815191526044820152603760f91b606482015260840161091d565b612c7261360d565b816034548110612cb35760405162461bcd60e51b815260206004820152600c60248201526b125b9d985b1a5908141bdbdb60a21b604482015260640161091d565b6000838152603e6020526040902060050154839060ff16612d0b5760405162461bcd60e51b8152602060048201526012602482015271506f6f6c204973204e6f742041637469766560701b604482015260640161091d565b600084118015612d1d57506034548411155b612d5b5760405162461bcd60e51b815260206004820152600f60248201526e125b9d985b1a59081c1bdbdb081251608a1b604482015260640161091d565b50506000828152603e6020526040902060020180546001600160a01b0319166001600160a01b038316179055600180555050565b6033546001600160a01b03163314612de15760405162461bcd60e51b81526020600482015260216024820152600080516020613d098339815191526044820152603760f91b606482015260840161091d565b816034548110612e225760405162461bcd60e51b815260206004820152600c60248201526b125b9d985b1a5908141bdbdb60a21b604482015260640161091d565b6000838152603e6020526040902060050154839060ff16612e7a5760405162461bcd60e51b8152602060048201526012602482015271506f6f6c204973204e6f742041637469766560701b604482015260640161091d565b50506000918252603e602052604090912060040155565b6033546001600160a01b03163314612ee35760405162461bcd60e51b81526020600482015260216024820152600080516020613d098339815191526044820152603760f91b606482015260840161091d565b603854600090815b81811015612f57576039600060388381548110612f0a57612f0a613add565b60009182526020808320909101546001600160a01b0316835282019290925260400190205460ff1615612f455782612f4181613b5c565b9350505b80612f4f81613b5c565b915050612eeb565b5081811480612fa85760405162461bcd60e51b815260206004820152601660248201527f496e73756666696369656e7420617070726f76616c7300000000000000000000604482015260640161091d565b60378054603380546001600160a01b0383166001600160a01b0319918216811790925590911690915560005b838110156115735760006039600060388481548110612ff557612ff5613add565b6000918252602080832091909101546001600160a01b031683528201929092526040019020805460ff19169115159190911790558061303381613b5c565b915050612fd4565b6033546001600160a01b0316331461308d5760405162461bcd60e51b81526020600482015260216024820152600080516020613d098339815191526044820152603760f91b606482015260840161091d565b603a80546001600160a01b0319166001600160a01b0392909216919091179055565b600080805b6001600160a01b0384166000908152603f602090815260408083208884529091529020548110156123e1576130ea858286610f04565b6130f49083613b09565b91508061310081613b5c565b9150506130b4565b6033546001600160a01b0316331461315a5760405162461bcd60e51b81526020600482015260216024820152600080516020613d098339815191526044820152603760f91b606482015260840161091d565b61316261360d565b8160345481106131a35760405162461bcd60e51b815260206004820152600c60248201526b125b9d985b1a5908141bdbdb60a21b604482015260640161091d565b6000838152603e6020526040902060050154839060ff166131fb5760405162461bcd60e51b8152602060048201526012602482015271506f6f6c204973204e6f742041637469766560701b604482015260640161091d565b60008411801561320d57506034548411155b61324b5760405162461bcd60e51b815260206004820152600f60248201526e125b9d985b1a59081c1bdbdb081251608a1b604482015260640161091d565b50506000828152603e602052604090206003018190556122b860018055565b6038818154811061327a57600080fd5b6000918252602090912001546001600160a01b0316905081565b6033546001600160a01b031633146132e65760405162461bcd60e51b81526020600482015260216024820152600080516020613d098339815191526044820152603760f91b606482015260840161091d565b6001600160a01b03909116600090815260416020526040902055565b603d546040517fe6a439050000000000000000000000000000000000000000000000000000000081526001600160a01b0384811660048301528381166024830152600092839291169063e6a4390590604401602060405180830381865afa158015613371573d6000803e3d6000fd5b505050506040513d601f19601f820116820180604052508101906133959190613ceb565b949350505050565b6033546001600160a01b031633146133ef5760405162461bcd60e51b81526020600482015260216024820152600080516020613d098339815191526044820152603760f91b606482015260840161091d565b604580546001600160a01b0319166001600160a01b0392909216919091179055565b60455460408051633850c7bd60e01b815290516000926001600160a01b03169183918391633850c7bd9160048083019260e09291908290030181865afa15801561345f573d6000803e3d6000fd5b505050506040513d601f19601f820116820180604052508101906134839190613c4e565b5190506001600160a01b0381166000600160c01b6134a18380613b75565b6134b390670de0b6b3a7640000613b75565b6134bd9190613b8c565b905060006134da826ec097ce7bc90715b34b9f1000000000613b8c565b9695505050505050565b6033546001600160a01b031633146135365760405162461bcd60e51b81526020600482015260216024820152600080516020613d098339815191526044820152603760f91b606482015260840161091d565b61353e61360d565b6040805160e0810182528681526001600160a01b0380871660208084019182528783168486019081526060850188815260808601888152600160a08801818152600060c08a01818152603480548352603e9098529a812099518a55965191890180549289166001600160a01b031993841617905593516002890180549190981691161790955551600386015592516004850155915160058401805491151560ff1990921691909117905592516006909201919091558054916135ff83613b5c565b919050555061157360018055565b60026001540361365f5760405162461bcd60e51b815260206004820152601f60248201527f5265656e7472616e637947756172643a207265656e7472616e742063616c6c00604482015260640161091d565b6002600155565b60018055565b6000805b6038548110156136cc57826001600160a01b03166038828154811061369757613697613add565b6000918252602090912001546001600160a01b0316036136ba5750600192915050565b806136c481613b5c565b915050613670565b50600092915050565b600054610100900460ff166137525760405162461bcd60e51b815260206004820152602b60248201527f496e697469616c697a61626c653a20636f6e7472616374206973206e6f74206960448201527f6e697469616c697a696e67000000000000000000000000000000000000000000606482015260840161091d565b61375a61375c565b565b600054610100900460ff166136665760405162461bcd60e51b815260206004820152602b60248201527f496e697469616c697a61626c653a20636f6e7472616374206973206e6f74206960448201527f6e697469616c697a696e67000000000000000000000000000000000000000000606482015260840161091d565b600080604083850312156137ec57600080fd5b50508035926020909101359150565b6001600160a01b0381168114610e1257600080fd5b60006020828403121561382257600080fd5b81356123e3816137fb565b60006020828403121561383f57600080fd5b5035919050565b60008060006060848603121561385b57600080fd5b83359250602084013591506040840135613874816137fb565b809150509250925092565b60008060006060848603121561389457600080fd5b833561389f816137fb565b95602085013595506040909401359392505050565b8015158114610e1257600080fd5b6000602082840312156138d457600080fd5b81356123e3816138b4565b600080604083850312156138f257600080fd5b82356138fd816137fb565b9150602083013561390d816137fb565b809150509250929050565b6000806040838503121561392b57600080fd5b8235613936816137fb565b946020939093013593505050565b634e487b7160e01b600052604160045260246000fd5b60405160e0810167ffffffffffffffff8111828210171561397d5761397d613944565b60405290565b604051601f8201601f1916810167ffffffffffffffff811182821017156139ac576139ac613944565b604052919050565b600060208083850312156139c757600080fd5b823567ffffffffffffffff808211156139df57600080fd5b818501915085601f8301126139f357600080fd5b813581811115613a0557613a05613944565b8060051b9150613a16848301613983565b8181529183018401918481019088841115613a3057600080fd5b938501935b83851015613a5a5784359250613a4a836137fb565b8282529385019390850190613a35565b98975050505050505050565b60008060408385031215613a7957600080fd5b82359150602083013561390d816137fb565b600080600080600060a08688031215613aa357600080fd5b853594506020860135613ab5816137fb565b93506040860135613ac5816137fb565b94979396509394606081013594506080013592915050565b634e487b7160e01b600052603260045260246000fd5b634e487b7160e01b600052601160045260246000fd5b808201808211156123e6576123e6613af3565b8051613b27816138b4565b919050565b600060208284031215613b3e57600080fd5b81516123e3816138b4565b818103818111156123e6576123e6613af3565b600060018201613b6e57613b6e613af3565b5060010190565b80820281158282048414176123e6576123e6613af3565b600082613ba957634e487b7160e01b600052601260045260246000fd5b500490565b80516dffffffffffffffffffffffffffff81168114613b2757600080fd5b805163ffffffff81168114613b2757600080fd5b600080600060608486031215613bf557600080fd5b613bfe84613bae565b9250613c0c60208501613bae565b9150613c1a60408501613bcc565b90509250925092565b600060208284031215613c3557600080fd5b5051919050565b805161ffff81168114613b2757600080fd5b600060e08284031215613c6057600080fd5b613c6861395a565b8251613c73816137fb565b81526020830151600281900b8114613c8a57600080fd5b6020820152613c9b60408401613c3c565b6040820152613cac60608401613c3c565b6060820152613cbd60808401613c3c565b6080820152613cce60a08401613bcc565b60a0820152613cdf60c08401613b1c565b60c08201529392505050565b600060208284031215613cfd57600080fd5b81516123e3816137fb56fe4f6e6c792061646d696e2063616e2063616c6c20746869732066756e6374696fa2646970667358221220a913bd4d2ca2380f074a4544baf7ddcbf28349998914fa98c3cfc1a286f5301264736f6c63430008130033",
  "linkReferences": {},
  "deployedLinkReferences": {}
}