{
  "_format": "hh-sol-artifact-1",
  "contractName": "StakingPoolV3",
  "sourceName": "contracts/cgateStaking.sol",
  "abi": [
    {
      "anonymous": false,
      "inputs": [
        {
          "indexed": false,
          "internalType": "uint8",
          "name": "version",
          "type": "uint8"
        }
      ],
      "name": "Initialized",
      "type": "event"
    },
    {
      "anonymous": false,
      "inputs": [
        {
          "indexed": true,
          "internalType": "address",
          "name": "newOwner",
          "type": "address"
        }
      ],
      "name": "OwnershipTransferProposed",
      "type": "event"
    },
    {
      "anonymous": false,
      "inputs": [
        {
          "indexed": true,
          "internalType": "address",
          "name": "voter",
          "type": "address"
        },
        {
          "indexed": false,
          "internalType": "bool",
          "name": "approve",
          "type": "bool"
        }
      ],
      "name": "VoteCasted",
      "type": "event"
    },
    {
      "inputs": [],
      "name": "CG8_TOKEN_ADDRESS",
      "outputs": [
        {
          "internalType": "address",
          "name": "",
          "type": "address"
        }
      ],
      "stateMutability": "view",
      "type": "function"
    },
    {
      "inputs": [],
      "name": "PANCAKE_FACTORY_ADDRESS",
      "outputs": [
        {
          "internalType": "address",
          "name": "",
          "type": "address"
        }
      ],
      "stateMutability": "view",
      "type": "function"
    },
    {
      "inputs": [],
      "name": "PANCAKE_ROUTER_ADDRESS",
      "outputs": [
        {
          "internalType": "address",
          "name": "",
          "type": "address"
        }
      ],
      "stateMutability": "view",
      "type": "function"
    },
    {
      "inputs": [],
      "name": "USDC_TOKEN_ADDRESS",
      "outputs": [
        {
          "internalType": "address",
          "name": "",
          "type": "address"
        }
      ],
      "stateMutability": "view",
      "type": "function"
    },
    {
      "inputs": [],
      "name": "admin",
      "outputs": [
        {
          "internalType": "address",
          "name": "",
          "type": "address"
        }
      ],
      "stateMutability": "view",
      "type": "function"
    },
    {
      "inputs": [],
      "name": "cancelOwnershipTransfer",
      "outputs": [],
      "stateMutability": "nonpayable",
      "type": "function"
    },
    {
      "inputs": [
        {
          "internalType": "bool",
          "name": "approve",
          "type": "bool"
        }
      ],
      "name": "castVote",
      "outputs": [],
      "stateMutability": "nonpayable",
      "type": "function"
    },
    {
      "inputs": [
        {
          "internalType": "uint256",
          "name": "poolId",
          "type": "uint256"
        },
        {
          "internalType": "uint256",
          "name": "stakeId",
          "type": "uint256"
        }
      ],
      "name": "claimIndividualReward",
      "outputs": [
        {
          "internalType": "uint256",
          "name": "",
          "type": "uint256"
        }
      ],
      "stateMutability": "nonpayable",
      "type": "function"
    },
    {
      "inputs": [
        {
          "internalType": "uint256",
          "name": "poolId",
          "type": "uint256"
        }
      ],
      "name": "claimReward",
      "outputs": [],
      "stateMutability": "nonpayable",
      "type": "function"
    },
    {
      "inputs": [
        {
          "internalType": "uint256",
          "name": "_timePeriod",
          "type": "uint256"
        },
        {
          "internalType": "address",
          "name": "_stakeToken",
          "type": "address"
        },
        {
          "internalType": "address",
          "name": "_rewardToken",
          "type": "address"
        },
        {
          "internalType": "uint256",
          "name": "_rewardPercent",
          "type": "uint256"
        },
        {
          "internalType": "uint256",
          "name": "_referralRewardPercent",
          "type": "uint256"
        }
      ],
      "name": "createStakingPool",
      "outputs": [],
      "stateMutability": "nonpayable",
      "type": "function"
    },
    {
      "inputs": [],
      "name": "finalizeOwnershipTransfer",
      "outputs": [],
      "stateMutability": "nonpayable",
      "type": "function"
    },
    {
      "inputs": [],
      "name": "getCurrentCgatePrice",
      "outputs": [
        {
          "internalType": "uint256",
          "name": "",
          "type": "uint256"
        }
      ],
      "stateMutability": "view",
      "type": "function"
    },
    {
      "inputs": [
        {
          "internalType": "address",
          "name": "tokenA",
          "type": "address"
        },
        {
          "internalType": "address",
          "name": "tokenB",
          "type": "address"
        }
      ],
      "name": "getPair",
      "outputs": [
        {
          "internalType": "address",
          "name": "",
          "type": "address"
        }
      ],
      "stateMutability": "view",
      "type": "function"
    },
    {
      "inputs": [
        {
          "internalType": "uint256",
          "name": "poolId",
          "type": "uint256"
        },
        {
          "internalType": "uint256",
          "name": "stakeId",
          "type": "uint256"
        },
        {
          "internalType": "address",
          "name": "user",
          "type": "address"
        }
      ],
      "name": "getPendingReward",
      "outputs": [
        {
          "internalType": "uint256",
          "name": "",
          "type": "uint256"
        }
      ],
      "stateMutability": "view",
      "type": "function"
    },
    {
      "inputs": [],
      "name": "getPrice",
      "outputs": [
        {
          "internalType": "uint256",
          "name": "",
          "type": "uint256"
        }
      ],
      "stateMutability": "view",
      "type": "function"
    },
    {
      "inputs": [],
      "name": "getPriceInverse",
      "outputs": [
        {
          "internalType": "uint256",
          "name": "",
          "type": "uint256"
        }
      ],
      "stateMutability": "view",
      "type": "function"
    },
    {
      "inputs": [
        {
          "internalType": "address",
          "name": "user",
          "type": "address"
        },
        {
          "internalType": "uint256",
          "name": "poolId",
          "type": "uint256"
        }
      ],
      "name": "getReferrals",
      "outputs": [
        {
          "internalType": "address[]",
          "name": "",
          "type": "address[]"
        }
      ],
      "stateMutability": "view",
      "type": "function"
    },
    {
      "inputs": [
        {
          "internalType": "address",
          "name": "pair",
          "type": "address"
        }
      ],
      "name": "getReserves",
      "outputs": [
        {
          "internalType": "uint112",
          "name": "reserve0",
          "type": "uint112"
        },
        {
          "internalType": "uint112",
          "name": "reserve1",
          "type": "uint112"
        }
      ],
      "stateMutability": "view",
      "type": "function"
    },
    {
      "inputs": [
        {
          "internalType": "uint256",
          "name": "poolId",
          "type": "uint256"
        },
        {
          "internalType": "address",
          "name": "user",
          "type": "address"
        }
      ],
      "name": "getTotalPendingRewardsForPool",
      "outputs": [
        {
          "internalType": "uint256",
          "name": "",
          "type": "uint256"
        }
      ],
      "stateMutability": "view",
      "type": "function"
    },
    {
      "inputs": [],
      "name": "getTotalPoolsCount",
      "outputs": [
        {
          "internalType": "uint256",
          "name": "",
          "type": "uint256"
        }
      ],
      "stateMutability": "view",
      "type": "function"
    },
    {
      "inputs": [
        {
          "internalType": "address",
          "name": "user",
          "type": "address"
        },
        {
          "internalType": "address",
          "name": "referrer",
          "type": "address"
        }
      ],
      "name": "getTotalReferralRewardByReferrer",
      "outputs": [
        {
          "internalType": "uint256",
          "name": "",
          "type": "uint256"
        }
      ],
      "stateMutability": "view",
      "type": "function"
    },
    {
      "inputs": [
        {
          "internalType": "address",
          "name": "user",
          "type": "address"
        }
      ],
      "name": "getTotalReferralRewards",
      "outputs": [
        {
          "internalType": "uint256",
          "name": "",
          "type": "uint256"
        }
      ],
      "stateMutability": "view",
      "type": "function"
    },
    {
      "inputs": [
        {
          "internalType": "address",
          "name": "",
          "type": "address"
        }
      ],
      "name": "hasVoted",
      "outputs": [
        {
          "internalType": "bool",
          "name": "",
          "type": "bool"
        }
      ],
      "stateMutability": "view",
      "type": "function"
    },
    {
      "inputs": [
        {
          "internalType": "address[]",
          "name": "_initialVoters",
          "type": "address[]"
        }
      ],
      "name": "initialize",
      "outputs": [],
      "stateMutability": "nonpayable",
      "type": "function"
    },
    {
      "inputs": [],
      "name": "poolAddress",
      "outputs": [
        {
          "internalType": "address",
          "name": "",
          "type": "address"
        }
      ],
      "stateMutability": "view",
      "type": "function"
    },
    {
      "inputs": [
        {
          "internalType": "address",
          "name": "",
          "type": "address"
        },
        {
          "internalType": "uint256",
          "name": "",
          "type": "uint256"
        }
      ],
      "name": "poolReferrers",
      "outputs": [
        {
          "internalType": "address",
          "name": "",
          "type": "address"
        }
      ],
      "stateMutability": "view",
      "type": "function"
    },
    {
      "inputs": [
        {
          "internalType": "uint256",
          "name": "",
          "type": "uint256"
        }
      ],
      "name": "pools",
      "outputs": [
        {
          "internalType": "uint256",
          "name": "timePeriod",
          "type": "uint256"
        },
        {
          "internalType": "address",
          "name": "stakeToken",
          "type": "address"
        },
        {
          "internalType": "address",
          "name": "rewardToken",
          "type": "address"
        },
        {
          "internalType": "uint256",
          "name": "rewardPercentPerStakedTokenPerYear",
          "type": "uint256"
        },
        {
          "internalType": "uint256",
          "name": "referralRewardPercent",
          "type": "uint256"
        },
        {
          "internalType": "bool",
          "name": "isActive",
          "type": "bool"
        },
        {
          "internalType": "uint256",
          "name": "totalStakes",
          "type": "uint256"
        }
      ],
      "stateMutability": "view",
      "type": "function"
    },
    {
      "inputs": [
        {
          "internalType": "address",
          "name": "newOwner",
          "type": "address"
        }
      ],
      "name": "proposeOwnershipTransfer",
      "outputs": [],
      "stateMutability": "nonpayable",
      "type": "function"
    },
    {
      "inputs": [],
      "name": "proposedOwner",
      "outputs": [
        {
          "internalType": "address",
          "name": "",
          "type": "address"
        }
      ],
      "stateMutability": "view",
      "type": "function"
    },
    {
      "inputs": [
        {
          "internalType": "address",
          "name": "",
          "type": "address"
        },
        {
          "internalType": "uint256",
          "name": "",
          "type": "uint256"
        },
        {
          "internalType": "uint256",
          "name": "",
          "type": "uint256"
        }
      ],
      "name": "referrals",
      "outputs": [
        {
          "internalType": "address",
          "name": "",
          "type": "address"
        }
      ],
      "stateMutability": "view",
      "type": "function"
    },
    {
      "inputs": [
        {
          "internalType": "address",
          "name": "",
          "type": "address"
        },
        {
          "internalType": "address",
          "name": "",
          "type": "address"
        },
        {
          "internalType": "uint256",
          "name": "",
          "type": "uint256"
        }
      ],
      "name": "referrerRewards",
      "outputs": [
        {
          "internalType": "uint256",
          "name": "",
          "type": "uint256"
        }
      ],
      "stateMutability": "view",
      "type": "function"
    },
    {
      "inputs": [
        {
          "internalType": "address",
          "name": "",
          "type": "address"
        }
      ],
      "name": "referrers",
      "outputs": [
        {
          "internalType": "address",
          "name": "",
          "type": "address"
        }
      ],
      "stateMutability": "view",
      "type": "function"
    },
    {
      "inputs": [
        {
          "internalType": "address",
          "name": "newAdmin",
          "type": "address"
        }
      ],
      "name": "setAdmin",
      "outputs": [],
      "stateMutability": "nonpayable",
      "type": "function"
    },
    {
      "inputs": [
        {
          "internalType": "address",
          "name": "_cg8Address",
          "type": "address"
        }
      ],
      "name": "setCg8Address",
      "outputs": [],
      "stateMutability": "nonpayable",
      "type": "function"
    },
    {
      "inputs": [
        {
          "internalType": "address",
          "name": "_factory",
          "type": "address"
        }
      ],
      "name": "setFactory",
      "outputs": [],
      "stateMutability": "nonpayable",
      "type": "function"
    },
    {
      "inputs": [
        {
          "internalType": "address",
          "name": "_poolAddress",
          "type": "address"
        }
      ],
      "name": "setPoolAddress",
      "outputs": [],
      "stateMutability": "nonpayable",
      "type": "function"
    },
    {
      "inputs": [
        {
          "internalType": "uint256",
          "name": "poolId",
          "type": "uint256"
        },
        {
          "internalType": "uint256",
          "name": "newPercentInBIPS",
          "type": "uint256"
        }
      ],
      "name": "setReferralRewardPercent",
      "outputs": [],
      "stateMutability": "nonpayable",
      "type": "function"
    },
    {
      "inputs": [
        {
          "internalType": "uint256",
          "name": "poolId",
          "type": "uint256"
        },
        {
          "internalType": "uint256",
          "name": "_newRewardPercentInBIPS",
          "type": "uint256"
        }
      ],
      "name": "setRewardPercent",
      "outputs": [],
      "stateMutability": "nonpayable",
      "type": "function"
    },
    {
      "inputs": [
        {
          "internalType": "uint256",
          "name": "poolId",
          "type": "uint256"
        },
        {
          "internalType": "address",
          "name": "_newRewardToken",
          "type": "address"
        }
      ],
      "name": "setRewardToken",
      "outputs": [],
      "stateMutability": "nonpayable",
      "type": "function"
    },
    {
      "inputs": [
        {
          "internalType": "address",
          "name": "_router",
          "type": "address"
        }
      ],
      "name": "setRouter",
      "outputs": [],
      "stateMutability": "nonpayable",
      "type": "function"
    },
    {
      "inputs": [
        {
          "internalType": "address",
          "name": "_referrer",
          "type": "address"
        },
        {
          "internalType": "uint256",
          "name": "_percentInBIPS",
          "type": "uint256"
        }
      ],
      "name": "setSpecialReferrerRewardPercent",
      "outputs": [],
      "stateMutability": "nonpayable",
      "type": "function"
    },
    {
      "inputs": [
        {
          "internalType": "uint256",
          "name": "poolId",
          "type": "uint256"
        },
        {
          "internalType": "uint256",
          "name": "_newTimePeriod",
          "type": "uint256"
        }
      ],
      "name": "setTimePeriod",
      "outputs": [],
      "stateMutability": "nonpayable",
      "type": "function"
    },
    {
      "inputs": [
        {
          "internalType": "address",
          "name": "_usdcAddress",
          "type": "address"
        }
      ],
      "name": "setUSDCAddress",
      "outputs": [],
      "stateMutability": "nonpayable",
      "type": "function"
    },
    {
      "inputs": [
        {
          "internalType": "address",
          "name": "",
          "type": "address"
        }
      ],
      "name": "signers",
      "outputs": [
        {
          "internalType": "bool",
          "name": "",
          "type": "bool"
        }
      ],
      "stateMutability": "view",
      "type": "function"
    },
    {
      "inputs": [
        {
          "internalType": "address",
          "name": "",
          "type": "address"
        }
      ],
      "name": "specialReferrersPercents",
      "outputs": [
        {
          "internalType": "uint256",
          "name": "",
          "type": "uint256"
        }
      ],
      "stateMutability": "view",
      "type": "function"
    },
    {
      "inputs": [
        {
          "internalType": "uint256",
          "name": "poolId",
          "type": "uint256"
        },
        {
          "internalType": "uint256",
          "name": "_amount",
          "type": "uint256"
        },
        {
          "internalType": "address",
          "name": "referrer",
          "type": "address"
        }
      ],
      "name": "stake",
      "outputs": [],
      "stateMutability": "nonpayable",
      "type": "function"
    },
    {
      "inputs": [
        {
          "internalType": "uint256",
          "name": "poolId",
          "type": "uint256"
        }
      ],
      "name": "togglePoolStatus",
      "outputs": [],
      "stateMutability": "nonpayable",
      "type": "function"
    },
    {
      "inputs": [
        {
          "internalType": "address",
          "name": "user",
          "type": "address"
        },
        {
          "internalType": "uint256",
          "name": "poolId",
          "type": "uint256"
        }
      ],
      "name": "totalStakeCount",
      "outputs": [
        {
          "internalType": "uint256",
          "name": "count",
          "type": "uint256"
        }
      ],
      "stateMutability": "view",
      "type": "function"
    },
    {
      "inputs": [
        {
          "internalType": "address",
          "name": "user",
          "type": "address"
        },
        {
          "internalType": "uint256",
          "name": "poolId",
          "type": "uint256"
        }
      ],
      "name": "totalUnstakeAllowed",
      "outputs": [
        {
          "internalType": "uint256",
          "name": "totalWithdrawable",
          "type": "uint256"
        }
      ],
      "stateMutability": "view",
      "type": "function"
    },
    {
      "inputs": [
        {
          "internalType": "uint256",
          "name": "poolId",
          "type": "uint256"
        }
      ],
      "name": "unStake",
      "outputs": [],
      "stateMutability": "nonpayable",
      "type": "function"
    },
    {
      "inputs": [
        {
          "internalType": "uint256",
          "name": "poolId",
          "type": "uint256"
        },
        {
          "internalType": "uint256",
          "name": "_stakeId",
          "type": "uint256"
        }
      ],
      "name": "unStakeIndividual",
      "outputs": [],
      "stateMutability": "nonpayable",
      "type": "function"
    },
    {
      "inputs": [
        {
          "internalType": "uint256",
          "name": "newPrice",
          "type": "uint256"
        }
      ],
      "name": "updateCurrentCgatePrice",
      "outputs": [],
      "stateMutability": "nonpayable",
      "type": "function"
    },
    {
      "inputs": [
        {
          "internalType": "address",
          "name": "",
          "type": "address"
        },
        {
          "internalType": "uint256",
          "name": "",
          "type": "uint256"
        },
        {
          "internalType": "uint256",
          "name": "",
          "type": "uint256"
        }
      ],
      "name": "userStakes",
      "outputs": [
        {
          "internalType": "uint256",
          "name": "amount",
          "type": "uint256"
        },
        {
          "internalType": "uint256",
          "name": "lastWithdrawTimestamp",
          "type": "uint256"
        },
        {
          "internalType": "uint256",
          "name": "rewardWithdrawnTillNow",
          "type": "uint256"
        },
        {
          "internalType": "uint256",
          "name": "stakeTime",
          "type": "uint256"
        },
        {
          "internalType": "address",
          "name": "referrer",
          "type": "address"
        },
        {
          "internalType": "uint256",
          "name": "depositedValueInDollars",
          "type": "uint256"
        }
      ],
      "stateMutability": "view",
      "type": "function"
    },
    {
      "inputs": [
        {
          "internalType": "address",
          "name": "",
          "type": "address"
        }
      ],
      "name": "users",
      "outputs": [
        {
          "internalType": "uint256",
          "name": "totalStaked",
          "type": "uint256"
        },
        {
          "internalType": "uint256",
          "name": "activeStakes",
          "type": "uint256"
        },
        {
          "internalType": "uint256",
          "name": "totalRewardWithdrawnTillNow",
          "type": "uint256"
        },
        {
          "internalType": "uint256",
          "name": "referralIncomeWithdrawnTillNow",
          "type": "uint256"
        },
        {
          "internalType": "uint256",
          "name": "totalReferrers",
          "type": "uint256"
        }
      ],
      "stateMutability": "view",
      "type": "function"
    },
    {
      "inputs": [
        {
          "internalType": "address",
          "name": "",
          "type": "address"
        },
        {
          "internalType": "uint256",
          "name": "",
          "type": "uint256"
        }
      ],
      "name": "usersStakesPerPool",
      "outputs": [
        {
          "internalType": "uint256",
          "name": "",
          "type": "uint256"
        }
      ],
      "stateMutability": "view",
      "type": "function"
    },
    {
      "inputs": [
        {
          "internalType": "uint256",
          "name": "",
          "type": "uint256"
        }
      ],
      "name": "voters",
      "outputs": [
        {
          "internalType": "address",
          "name": "",
          "type": "address"
        }
      ],
      "stateMutability": "view",
      "type": "function"
    },
    {
      "inputs": [
        {
          "internalType": "address",
          "name": "receiver",
          "type": "address"
        },
        {
          "internalType": "contract IERC20",
          "name": "_token",
          "type": "address"
        }
      ],
      "name": "withdrawDumpToken",
      "outputs": [],
      "stateMutability": "nonpayable",
      "type": "function"
    },
    {
      "inputs": [
        {
          "internalType": "address payable",
          "name": "_receiver",
          "type": "address"
        }
      ],
      "name": "withdrawEth",
      "outputs": [],
      "stateMutability": "nonpayable",
      "type": "function"
    }
  ],
  "bytecode": "0x608060405234801561001057600080fd5b50614178806100206000396000f3fe608060405234801561001057600080fd5b506004361061038e5760003560e01c806398d5fdca116101de578063c01b35a11161010f578063dbe4a261116100ad578063f43434391161007c578063f43434391461097c578063f851a44014610984578063fa8f683e14610997578063fb58d2cf146109cd57600080fd5b8063dbe4a26114610923578063e6a4390514610936578063e7ee123314610949578063e9e15b4f1461096957600080fd5b8063c57830cd116100e9578063c57830cd146108d7578063c79bdb46146108ea578063d153b60c146108fd578063da58c7d91461091057600080fd5b8063c01b35a11461089e578063c0d78655146108b1578063c114fcfa146108c457600080fd5b8063ae169a501161017c578063b820a1cd11610156578063b820a1cd1461085d578063bdd13d4a14610870578063bf2ce80814610883578063bf41c2a41461089657600080fd5b8063ae169a501461080c578063b3d673d81461081f578063b401cdca1461083257600080fd5b8063a224cee7116101b8578063a224cee7146106e3578063a87430ba146106f6578063aaf5bfc31461075b578063ac4afa381461076e57600080fd5b806398d5fdca146106b557806399672158146106bd5780639dda7fee146106d057600080fd5b8063509173a1116102c3578063704b6c02116102615780637ade2642116102305780637ade26421461067f5780637b542a2a14610687578063855c5d461461069a5780638cd05ecb146106a257600080fd5b8063704b6c0214610623578063736c0d5b146106365780637628a37d146106595780637ace48e71461066c57600080fd5b80635bb478081161029d5780635bb47808146105b65780635d3eea91146105c9578063686e9222146105dc5780636b38e0491461061057600080fd5b8063509173a11461057d57806353a640911461059057806357a8773e146105a357600080fd5b806328ac7c511161033057806334144b0f1161030a57806334144b0f146104a05780633e99c1e4146104e95780634a3b68cc146105235780634ae77bcf1461054c57600080fd5b806328ac7c511461044c57806329a166161461045f57806332a00d8e1461048057600080fd5b806321040fc31161036c57806321040fc31461040b578063216b31c11461041e57806323452b9c1461043157806325e160631461043957600080fd5b8063047ac00e1461039357806309eef43e146103a85780631755ff21146103e0575b600080fd5b6103a66103a1366004613b65565b6109e0565b005b6103cb6103b6366004613b9c565b60396020526000908152604090205460ff1681565b60405190151581526020015b60405180910390f35b6045546103f3906001600160a01b031681565b6040516001600160a01b0390911681526020016103d7565b6103a6610419366004613b9c565b610c9b565b6103a661042c366004613bb9565b610d8d565b6103a6610e44565b6103a6610447366004613b9c565b610f15565b603a546103f3906001600160a01b031681565b61047261046d366004613bd2565b611004565b6040519081526020016103d7565b61049361048e366004613c0b565b6111c5565b6040516103d79190613c37565b6104b36104ae366004613c84565b611245565b6040805196875260208701959095529385019290925260608401526001600160a01b0316608083015260a082015260c0016103d7565b6104fc6104f7366004613b9c565b6112af565b604080516dffffffffffffffffffffffffffff9384168152929091166020830152016103d7565b6103f3610531366004613b9c565b6040602081905260009182529020546001600160a01b031681565b61047261055a366004613cb9565b604760209081526000938452604080852082529284528284209052825290205481565b603d546103f3906001600160a01b031681565b61047261059e366004613cfa565b611324565b6103a66105b1366004613b9c565b611387565b6103a66105c4366004613b9c565b6113fb565b6103a66105d7366004613bb9565b61146f565b6103f36105ea366004613c0b565b60486020908152600092835260408084209091529082529020546001600160a01b031681565b61047261061e366004613b65565b61175d565b6103a6610631366004613b9c565b611b50565b6103cb610644366004613b9c565b60446020526000908152604090205460ff1681565b6103a6610667366004613bd2565b611bc4565b6103a661067a366004613d41565b6120a0565b6104726121ae565b6103a6610695366004613bb9565b6122b0565b603454610472565b6104726106b0366004613b9c565b612307565b6104726123eb565b6103a66106cb366004613cfa565b612497565b6104726106de366004613c0b565b612611565b6103a66106f1366004613dce565b61273d565b610733610704366004613b9c565b604260205260009081526040902080546001820154600283015460038401546004909401549293919290919085565b604080519586526020860194909452928401919091526060830152608082015260a0016103d7565b6103a6610769366004613b9c565b61296a565b6107c961077c366004613bb9565b603e60205260009081526040902080546001820154600283015460038401546004850154600586015460069096015494956001600160a01b039485169593909416939192909160ff169087565b604080519788526001600160a01b039687166020890152949095169386019390935260608501919091526080840152151560a083015260c082015260e0016103d7565b6103a661081a366004613bb9565b6129de565b603c546103f3906001600160a01b031681565b610472610840366004613c0b565b604360209081526000928352604080842090915290825290205481565b6103a661086b366004613b65565b612e10565b6103a661087e366004613e80565b612f5f565b6103a6610891366004613b65565b6130d6565b6103a66131d8565b6103f36108ac366004613c84565b613382565b6103a66108bf366004613b9c565b6133c7565b6104726108d2366004613e80565b61343b565b603b546103f3906001600160a01b031681565b6103a66108f8366004613b65565b613494565b6037546103f3906001600160a01b031681565b6103f361091e366004613bb9565b6135f6565b6103a6610931366004613c0b565b613620565b6103f3610944366004613cfa565b61368e565b610472610957366004613b9c565b60416020526000908152604090205481565b6103a6610977366004613b9c565b613729565b61047261379d565b6033546103f3906001600160a01b031681565b6104726109a5366004613c0b565b6001600160a01b03919091166000908152603f60209081526040808320938352929052205490565b6103a66109db366004613ea5565b613870565b816034548110610a265760405162461bcd60e51b815260206004820152600c60248201526b125b9d985b1a5908141bdbdb60a21b60448201526064015b60405180910390fd5b6000838152603e6020526040902060050154839060ff16610a7e5760405162461bcd60e51b8152602060048201526012602482015271506f6f6c204973204e6f742041637469766560701b6044820152606401610a1d565b336000908152603f602090815260408083208784529091528120805485908110610aaa57610aaa613ef7565b60009182526020808320888452603e909152604090922060069091029091019150805460038301544291610add91613f23565b811015610b2c5760405162461bcd60e51b815260206004820152601660248201527f54696d6520706572696f64206e6f7420706173736564000000000000000000006044820152606401610a1d565b610b36878761175d565b506001838101829055820154835460405163a9059cbb60e01b815233600482015260248101919091526001600160a01b039091169063a9059cbb906044016020604051808303816000875af1158015610b93573d6000803e3d6000fd5b505050506040513d601f19601f82011682018060405250810190610bb79190613f46565b610c035760405162461bcd60e51b815260206004820152601c60248201527f5374616b656420746f6b656e207472616e73666572206661696c6564000000006044820152606401610a1d565b82543360009081526042602052604081206001018054909190610c27908490613f63565b909155505082543360009081526043602090815260408083208b845290915281208054909190610c58908490613f63565b909155505082546000888152603e602052604081206006018054909190610c80908490613f63565b90915550506000808455600590930192909255505050505050565b6033546001600160a01b03163314610ced5760405162461bcd60e51b815260206004820152602160248201526000805160206141238339815191526044820152603760f91b6064820152608401610a1d565b6001600160a01b038116610d435760405162461bcd60e51b815260206004820181905260248201527f4e6577206f776e65722063616e6e6f74206265207a65726f20616464726573736044820152606401610a1d565b603780546001600160a01b0319166001600160a01b0383169081179091556040517ff0c6916d81cd1f899264b5193e3bbe7afd2bcc3d05704bab73d0b8ac9387115890600090a250565b6033546001600160a01b03163314610ddf5760405162461bcd60e51b815260206004820152602160248201526000805160206141238339815191526044820152603760f91b6064820152608401610a1d565b806034548110610e205760405162461bcd60e51b815260206004820152600c60248201526b125b9d985b1a5908141bdbdb60a21b6044820152606401610a1d565b506000908152603e60205260409020600501805460ff19811660ff90911615179055565b6033546001600160a01b03163314610e965760405162461bcd60e51b815260206004820152602160248201526000805160206141238339815191526044820152603760f91b6064820152608401610a1d565b603780546001600160a01b031916905560005b603854811015610f125760006039600060388481548110610ecc57610ecc613ef7565b6000918252602080832091909101546001600160a01b031683528201929092526040019020805460ff191691151591909117905580610f0a81613f76565b915050610ea9565b50565b6033546001600160a01b03163314610f675760405162461bcd60e51b815260206004820152602160248201526000805160206141238339815191526044820152603760f91b6064820152608401610a1d565b610f6f613999565b6001600160a01b038116610fc55760405162461bcd60e51b815260206004820152600f60248201527f496e76616c6964206164647265737300000000000000000000000000000000006044820152606401610a1d565b6040516001600160a01b038216904780156108fc02916000818181858888f19350505050158015610ffa573d6000803e3d6000fd5b50610f1260018055565b60008360345481106110475760405162461bcd60e51b815260206004820152600c60248201526b125b9d985b1a5908141bdbdb60a21b6044820152606401610a1d565b6000858152603e6020526040902060050154859060ff1661109f5760405162461bcd60e51b8152602060048201526012602482015271506f6f6c204973204e6f742041637469766560701b6044820152606401610a1d565b6001600160a01b0384166000908152603f6020908152604080832089845290915290205485106111115760405162461bcd60e51b815260206004820152600f60248201527f55736572204e6f74205374616b656400000000000000000000000000000000006044820152606401610a1d565b6001600160a01b0384166000908152603f60209081526040808320898452909152812080548790811061114657611146613ef7565b600091825260208083208a8452603e90915260408320600692909202016001810154909350909142916111799083613f63565b9050600060355461271085600301548488600501546111989190613f8f565b6111a29190613f8f565b6111ac9190613fa6565b6111b69190613fa6565b9b9a5050505050505050505050565b6001600160a01b038216600090815260466020908152604080832084845282529182902080548351818402810184019094528084526060939283018282801561123757602002820191906000526020600020905b81546001600160a01b03168152600190910190602001808311611219575b505050505090505b92915050565b603f602052826000526040600020602052816000526040600020818154811061126d57600080fd5b60009182526020909120600690910201805460018201546002830154600384015460048501546005909501549397509195509350916001600160a01b03169086565b600080600080846001600160a01b0316630902f1ac6040518163ffffffff1660e01b8152600401606060405180830381865afa1580156112f3573d6000803e3d6000fd5b505050506040513d601f19601f820116820180604052508101906113179190613ffa565b5090969095509350505050565b600080805b60345481101561137f576001600160a01b03808516600090815260476020908152604080832093891683529281528282208483529052205461136b9083613f23565b91508061137781613f76565b915050611329565b509392505050565b6033546001600160a01b031633146113d95760405162461bcd60e51b815260206004820152602160248201526000805160206141238339815191526044820152603760f91b6064820152608401610a1d565b603b80546001600160a01b0319166001600160a01b0392909216919091179055565b6033546001600160a01b0316331461144d5760405162461bcd60e51b815260206004820152602160248201526000805160206141238339815191526044820152603760f91b6064820152608401610a1d565b603d80546001600160a01b0319166001600160a01b0392909216919091179055565b8060345481106114b05760405162461bcd60e51b815260206004820152600c60248201526b125b9d985b1a5908141bdbdb60a21b6044820152606401610a1d565b6000828152603e6020526040902060050154829060ff166115085760405162461bcd60e51b8152602060048201526012602482015271506f6f6c204973204e6f742041637469766560701b6044820152606401610a1d565b6000838152603e60205260408120815b336000908152603f6020908152604080832089845290915290205481101561163657336000908152603f60209081526040808320898452909152812080548390811061156657611566613ef7565b9060005260206000209060060201905060004290508360000154826003015461158f9190613f23565b81106116215781546115a19086613f23565b94506115ad888461175d565b50600080835560018301829055338152603f602090815260408083208b845290915290208054849081106115e3576115e3613ef7565b6000918252602082206006909102018181556001810182905560028101829055600381018290556004810180546001600160a01b0319169055600501555b5050808061162e90613f76565b915050611518565b503360009081526042602052604081206001018054849290611659908490613f63565b909155505033600090815260436020908152604080832088845290915281208054849290611688908490613f63565b9091555050811561175657600181015460405163a9059cbb60e01b8152336004820152602481018490526001600160a01b039091169063a9059cbb906044016020604051808303816000875af11580156116e6573d6000803e3d6000fd5b505050506040513d601f19601f8201168201806040525081019061170a9190613f46565b6117565760405162461bcd60e51b815260206004820152601c60248201527f5374616b656420746f6b656e207472616e73666572206661696c6564000000006044820152606401610a1d565b5050505050565b60008260345481106117a05760405162461bcd60e51b815260206004820152600c60248201526b125b9d985b1a5908141bdbdb60a21b6044820152606401610a1d565b6000848152603e6020526040902060050154849060ff166117f85760405162461bcd60e51b8152602060048201526012602482015271506f6f6c204973204e6f742041637469766560701b6044820152606401610a1d565b336000908152603f60209081526040808320888452909152812080548690811061182457611824613ef7565b60009182526020808320898452603e90915260408320600690920201805490935090910361185757600094505050611b48565b426000611865898933611004565b90508015611b4357600283015460405163a9059cbb60e01b8152336004820152602481018390526001600160a01b039091169063a9059cbb906044016020604051808303816000875af11580156118c0573d6000803e3d6000fd5b505050506040513d601f19601f820116820180604052508101906118e49190613f46565b6119305760405162461bcd60e51b815260206004820152601660248201527f526577617264207472616e73666572206661696c6564000000000000000000006044820152606401610a1d565b60048401546001600160a01b031615611af357600480840154908501546001600160a01b031660009081526041602052604090205415611989575060048401546001600160a01b03166000908152604160205260409020545b60006127106119988385613f8f565b6119a29190613fa6565b90508015611abc57600285015460048781015460405163a9059cbb60e01b81526001600160a01b0391821692810192909252602482018490529091169063a9059cbb906044016020604051808303816000875af1158015611a07573d6000803e3d6000fd5b505050506040513d601f19601f82011682018060405250810190611a2b9190613f46565b611a775760405162461bcd60e51b815260206004820152601f60248201527f526566657272616c20526577617264207472616e73666572206661696c6564006044820152606401610a1d565b60048601546001600160a01b0316600090815260476020908152604080832033845282528083208e845290915281208054839290611ab6908490613f23565b90915550505b60048601546001600160a01b031660009081526042602052604081206003018054839290611aeb908490613f23565b909155505050505b3360009081526042602052604081206002018054839290611b15908490613f23565b9250508190555080846002016000828254611b309190613f23565b9091555050600190930155509250611b48565b505050505b505092915050565b6033546001600160a01b03163314611ba25760405162461bcd60e51b815260206004820152602160248201526000805160206141238339815191526044820152603760f91b6064820152608401610a1d565b603380546001600160a01b0319166001600160a01b0392909216919091179055565b826034548110611c055760405162461bcd60e51b815260206004820152600c60248201526b125b9d985b1a5908141bdbdb60a21b6044820152606401610a1d565b6000848152603e6020526040902060050154849060ff16611c5d5760405162461bcd60e51b8152602060048201526012602482015271506f6f6c204973204e6f742041637469766560701b6044820152606401610a1d565b60008411611cad5760405162461bcd60e51b815260206004820152601d60248201527f416d6f756e74206d7573742062652067726561746572207468616e20300000006044820152606401610a1d565b6001600160a01b0383163303611d055760405162461bcd60e51b815260206004820152601860248201527f596f752063616e277420726566657220796f757273656c6600000000000000006044820152606401610a1d565b6000858152603e602052604090819020600181015491517f23b872dd0000000000000000000000000000000000000000000000000000000081523360048201523060248201526044810187905290916001600160a01b0316906323b872dd906064016020604051808303816000875af1158015611d86573d6000803e3d6000fd5b505050506040513d601f19601f82011682018060405250810190611daa9190613f46565b611df65760405162461bcd60e51b815260206004820152601560248201527f546f6b656e207472616e73666572206661696c656400000000000000000000006044820152606401610a1d565b336000908152603f602090815260408083208984528252808320815160c081018352898152429381018490529182019390935260608101919091526001600160a01b038616608082015260a08101670de0b6b3a7640000611e5561379d565b611e5f908a613f8f565b611e699190613fa6565b90528154600180820184556000938452602080852084516006948502909101908155848201519281019290925560408085015160028401556060850151600384015560808501516004840180546001600160a01b0319166001600160a01b0390921691909117905560a090940151600590920191909155898452603e9052908220018054879290611efb908490613f23565b90915550506040805160a081018252336000908152604260205291909120548190611f27908890613f23565b815233600090815260426020908152604090912060010154910190611f4d908890613f23565b815233600081815260426020818152604080842060028101805484890152600382018054848a015260048301805460609a8b015297909652938352875181559187015160019092019190915585015190559183015190915560809091015190556001600160a01b03841615612069573360009081526048602090815260408083208984529091529020546001600160a01b0316612069573360008181526048602090815260408083208a8452825280832080546001600160a01b038a166001600160a01b03199182168117909255818552604684528285208c8652845282852080546001818101835591875285872001805490921690961790558352604290915281206004018054909190612063908490613f23565b90915550505b33600090815260436020908152604080832089845290915281208054879290612093908490613f23565b9091555050505050505050565b6120a9336139f8565b6120f55760405162461bcd60e51b815260206004820152601160248201527f4e6f7420612076616c696420766f7465720000000000000000000000000000006044820152606401610a1d565b3360009081526039602052604090205460ff16156121555760405162461bcd60e51b815260206004820152600d60248201527f416c726561647920766f746564000000000000000000000000000000000000006044820152606401610a1d565b3360008181526039602052604090819020805460ff19166001179055517fa4861c5510bfa99706ed508d728f9c6b365ff27af1a3012e21980952ad2d844f906121a390841515815260200190565b60405180910390a250565b603b54603c5460009182916121cf916001600160a01b03908116911661368e565b90506001600160a01b0381166121e757600091505090565b6000806121f3836112af565b603a546040517f85f8c259000000000000000000000000000000000000000000000000000000008152670de0b6b3a764000060048201526dffffffffffffffffffffffffffff8084166024830152841660448201529294509092506000916001600160a01b03909116906385f8c25990606401602060405180830381865afa158015612283573d6000803e3d6000fd5b505050506040513d601f19601f820116820180604052508101906122a7919061403d565b95945050505050565b6033546001600160a01b031633146123025760405162461bcd60e51b815260206004820152602160248201526000805160206141238339815191526044820152603760f91b6064820152608401610a1d565b603655565b600080805b6034548110156123e45760005b6001600160a01b03851660009081526046602090815260408083208584529091529020548110156123d1576001600160a01b038516600090815260476020908152604080832060468352818420868552909252822080549192918490811061238357612383613ef7565b60009182526020808320909101546001600160a01b0316835282810193909352604091820181208582529092529020546123bd9084613f23565b9250806123c981613f76565b915050612319565b50806123dc81613f76565b91505061230c565b5092915050565b60455460408051633850c7bd60e01b815290516000926001600160a01b03169183918391633850c7bd9160048083019260e09291908290030181865afa158015612439573d6000803e3d6000fd5b505050506040513d601f19601f8201168201806040525081019061245d9190614068565b5190506001600160a01b0381166000600160c01b61247b8380613f8f565b61248d90670de0b6b3a7640000613f8f565b6122a79190613fa6565b6033546001600160a01b031633146124e95760405162461bcd60e51b815260206004820152602160248201526000805160206141238339815191526044820152603760f91b6064820152608401610a1d565b6124f1613999565b6040517f70a082310000000000000000000000000000000000000000000000000000000081523060048201526001600160a01b0382169063a9059cbb90849083906370a0823190602401602060405180830381865afa158015612558573d6000803e3d6000fd5b505050506040513d601f19601f8201168201806040525081019061257c919061403d565b6040517fffffffff0000000000000000000000000000000000000000000000000000000060e085901b1681526001600160a01b03909216600483015260248201526044016020604051808303816000875af11580156125df573d6000803e3d6000fd5b505050506040513d601f19601f820116820180604052508101906126039190613f46565b5061260d60018055565b5050565b6001600160a01b03821660009081526043602090815260408083208484529091528120548190156127365760005b6001600160a01b0385166000908152603f6020908152604080832087845290915290205481101561137f576000848152603e60209081526040808320546001600160a01b0389168452603f8352818420888552909252909120805442929190849081106126ae576126ae613ef7565b9060005260206000209060060201600301546126ca9190613f23565b11612724576001600160a01b0385166000908152603f60209081526040808320878452909152902080548290811061270457612704613ef7565b906000526020600020906006020160000154826127219190613f23565b91505b8061272e81613f76565b91505061263f565b9392505050565b600054610100900460ff161580801561275d5750600054600160ff909116105b806127775750303b158015612777575060005460ff166001145b6127e95760405162461bcd60e51b815260206004820152602e60248201527f496e697469616c697a61626c653a20636f6e747261637420697320616c72656160448201527f647920696e697469616c697a65640000000000000000000000000000000000006064820152608401610a1d565b6000805460ff19166001179055801561280c576000805461ff0019166101001790555b612814613a61565b603380546001600160a01b031990811633179091556301e1338060355564e8d4a51000603655603a80548216739ac64cc6e4415144c455bd8e4837fea55603e5c3179055603b80548216739f7b09eb38ed912ab5932dccad0b1f501abfe6fd179055603c8054821673d1fac5ff5d03b70d3383909692d09fc6d97c8219179055603d805490911673b7926c0430afb07aa7defde6da862ae0bde767bc17905560005b82518110156129205760388382815181106128d3576128d3613ef7565b60209081029190910181015182546001810184556000938452919092200180546001600160a01b0319166001600160a01b039092169190911790558061291881613f76565b9150506128b6565b50801561260d576000805461ff0019169055604051600181527f7f26b83ff96e1f2b6a682f133852f6798a09c465da95921460cefb38474024989060200160405180910390a15050565b6033546001600160a01b031633146129bc5760405162461bcd60e51b815260206004820152602160248201526000805160206141238339815191526044820152603760f91b6064820152608401610a1d565b603c80546001600160a01b0319166001600160a01b0392909216919091179055565b806034548110612a1f5760405162461bcd60e51b815260206004820152600c60248201526b125b9d985b1a5908141bdbdb60a21b6044820152606401610a1d565b612a27613999565b6000828152603e6020526040902060050154829060ff16612a7f5760405162461bcd60e51b8152602060048201526012602482015271506f6f6c204973204e6f742041637469766560701b6044820152606401610a1d565b6000838152603e6020526040812090805b336000908152603f60209081526040808320898452909152902054811015612d3a57336000908152603f602090815260408083208984529091528120805483908110612ade57612ade613ef7565b90600052602060002090600602019050600081600001541115612d2757426000612b09898533611004565b60048401549091506001600160a01b031615612ccf57600480870154908401546001600160a01b031660009081526041602052604090205415612b65575060048301546001600160a01b03166000908152604160205260409020545b6000612710612b748385613f8f565b612b7e9190613fa6565b90508015612ccc57600288015460048681015460405163a9059cbb60e01b81526001600160a01b0391821692810192909252602482018490529091169063a9059cbb906044016020604051808303816000875af1158015612be3573d6000803e3d6000fd5b505050506040513d601f19601f82011682018060405250810190612c079190613f46565b612c535760405162461bcd60e51b815260206004820152601f60248201527f526566657272616c20526577617264207472616e73666572206661696c6564006044820152606401610a1d565b60048501546001600160a01b0316600090815260476020908152604080832033845282528083208e845290915281208054839290612c92908490613f23565b909155505060048501546001600160a01b031660009081526042602052604081206003018054839290612cc6908490613f23565b90915550505b50505b3360009081526042602052604081206002018054839290612cf1908490613f23565b9250508190555080836002016000828254612d0c9190613f23565b909155505060018301829055612d228186613f23565b945050505b5080612d3281613f76565b915050612a90565b508015612e0457600282015460405163a9059cbb60e01b8152336004820152602481018390526001600160a01b039091169063a9059cbb906044016020604051808303816000875af1158015612d94573d6000803e3d6000fd5b505050506040513d601f19601f82011682018060405250810190612db89190613f46565b612e045760405162461bcd60e51b815260206004820152601660248201527f526577617264207472616e73666572206661696c6564000000000000000000006044820152606401610a1d565b50505061260d60018055565b6033546001600160a01b03163314612e625760405162461bcd60e51b815260206004820152602160248201526000805160206141238339815191526044820152603760f91b6064820152608401610a1d565b816034548110612ea35760405162461bcd60e51b815260206004820152600c60248201526b125b9d985b1a5908141bdbdb60a21b6044820152606401610a1d565b6000838152603e6020526040902060050154839060ff16612efb5760405162461bcd60e51b8152602060048201526012602482015271506f6f6c204973204e6f742041637469766560701b6044820152606401610a1d565b600084118015612f0d57506034548411155b612f4b5760405162461bcd60e51b815260206004820152600f60248201526e125b9d985b1a59081c1bdbdb081251608a1b6044820152606401610a1d565b50506000918252603e602052604090912055565b6033546001600160a01b03163314612fb15760405162461bcd60e51b815260206004820152602160248201526000805160206141238339815191526044820152603760f91b6064820152608401610a1d565b612fb9613999565b816034548110612ffa5760405162461bcd60e51b815260206004820152600c60248201526b125b9d985b1a5908141bdbdb60a21b6044820152606401610a1d565b6000838152603e6020526040902060050154839060ff166130525760405162461bcd60e51b8152602060048201526012602482015271506f6f6c204973204e6f742041637469766560701b6044820152606401610a1d565b60008411801561306457506034548411155b6130a25760405162461bcd60e51b815260206004820152600f60248201526e125b9d985b1a59081c1bdbdb081251608a1b6044820152606401610a1d565b50506000828152603e6020526040902060020180546001600160a01b0319166001600160a01b038316179055600180555050565b6033546001600160a01b031633146131285760405162461bcd60e51b815260206004820152602160248201526000805160206141238339815191526044820152603760f91b6064820152608401610a1d565b8160345481106131695760405162461bcd60e51b815260206004820152600c60248201526b125b9d985b1a5908141bdbdb60a21b6044820152606401610a1d565b6000838152603e6020526040902060050154839060ff166131c15760405162461bcd60e51b8152602060048201526012602482015271506f6f6c204973204e6f742041637469766560701b6044820152606401610a1d565b50506000918252603e602052604090912060040155565b6033546001600160a01b0316331461322a5760405162461bcd60e51b815260206004820152602160248201526000805160206141238339815191526044820152603760f91b6064820152608401610a1d565b603854600090815b8181101561329e57603960006038838154811061325157613251613ef7565b60009182526020808320909101546001600160a01b0316835282019290925260400190205460ff161561328c578261328881613f76565b9350505b8061329681613f76565b915050613232565b50818114806132ef5760405162461bcd60e51b815260206004820152601660248201527f496e73756666696369656e7420617070726f76616c73000000000000000000006044820152606401610a1d565b60378054603380546001600160a01b0383166001600160a01b0319918216811790925590911690915560005b83811015611756576000603960006038848154811061333c5761333c613ef7565b6000918252602080832091909101546001600160a01b031683528201929092526040019020805460ff19169115159190911790558061337a81613f76565b91505061331b565b604660205282600052604060002060205281600052604060002081815481106133aa57600080fd5b6000918252602090912001546001600160a01b0316925083915050565b6033546001600160a01b031633146134195760405162461bcd60e51b815260206004820152602160248201526000805160206141238339815191526044820152603760f91b6064820152608401610a1d565b603a80546001600160a01b0319166001600160a01b0392909216919091179055565b600080805b6001600160a01b0384166000908152603f6020908152604080832088845290915290205481101561137f57613476858286611004565b6134809083613f23565b91508061348c81613f76565b915050613440565b6033546001600160a01b031633146134e65760405162461bcd60e51b815260206004820152602160248201526000805160206141238339815191526044820152603760f91b6064820152608401610a1d565b6134ee613999565b81603454811061352f5760405162461bcd60e51b815260206004820152600c60248201526b125b9d985b1a5908141bdbdb60a21b6044820152606401610a1d565b6000838152603e6020526040902060050154839060ff166135875760405162461bcd60e51b8152602060048201526012602482015271506f6f6c204973204e6f742041637469766560701b6044820152606401610a1d565b60008411801561359957506034548411155b6135d75760405162461bcd60e51b815260206004820152600f60248201526e125b9d985b1a59081c1bdbdb081251608a1b6044820152606401610a1d565b50506000828152603e6020526040902060030181905561260d60018055565b6038818154811061360657600080fd5b6000918252602090912001546001600160a01b0316905081565b6033546001600160a01b031633146136725760405162461bcd60e51b815260206004820152602160248201526000805160206141238339815191526044820152603760f91b6064820152608401610a1d565b6001600160a01b03909116600090815260416020526040902055565b603d546040517fe6a439050000000000000000000000000000000000000000000000000000000081526001600160a01b0384811660048301528381166024830152600092839291169063e6a4390590604401602060405180830381865afa1580156136fd573d6000803e3d6000fd5b505050506040513d601f19601f820116820180604052508101906137219190614105565b949350505050565b6033546001600160a01b0316331461377b5760405162461bcd60e51b815260206004820152602160248201526000805160206141238339815191526044820152603760f91b6064820152608401610a1d565b604580546001600160a01b0319166001600160a01b0392909216919091179055565b60455460408051633850c7bd60e01b815290516000926001600160a01b03169183918391633850c7bd9160048083019260e09291908290030181865afa1580156137eb573d6000803e3d6000fd5b505050506040513d601f19601f8201168201806040525081019061380f9190614068565b5190506001600160a01b0381166000600160c01b61382d8380613f8f565b61383f90670de0b6b3a7640000613f8f565b6138499190613fa6565b90506000613866826ec097ce7bc90715b34b9f1000000000613fa6565b9695505050505050565b6033546001600160a01b031633146138c25760405162461bcd60e51b815260206004820152602160248201526000805160206141238339815191526044820152603760f91b6064820152608401610a1d565b6138ca613999565b6040805160e0810182528681526001600160a01b0380871660208084019182528783168486019081526060850188815260808601888152600160a08801818152600060c08a01818152603480548352603e9098529a812099518a55965191890180549289166001600160a01b031993841617905593516002890180549190981691161790955551600386015592516004850155915160058401805491151560ff19909216919091179055925160069092019190915580549161398b83613f76565b919050555061175660018055565b6002600154036139eb5760405162461bcd60e51b815260206004820152601f60248201527f5265656e7472616e637947756172643a207265656e7472616e742063616c6c006044820152606401610a1d565b6002600155565b60018055565b6000805b603854811015613a5857826001600160a01b031660388281548110613a2357613a23613ef7565b6000918252602090912001546001600160a01b031603613a465750600192915050565b80613a5081613f76565b9150506139fc565b50600092915050565b600054610100900460ff16613ade5760405162461bcd60e51b815260206004820152602b60248201527f496e697469616c697a61626c653a20636f6e7472616374206973206e6f74206960448201527f6e697469616c697a696e670000000000000000000000000000000000000000006064820152608401610a1d565b613ae6613ae8565b565b600054610100900460ff166139f25760405162461bcd60e51b815260206004820152602b60248201527f496e697469616c697a61626c653a20636f6e7472616374206973206e6f74206960448201527f6e697469616c697a696e670000000000000000000000000000000000000000006064820152608401610a1d565b60008060408385031215613b7857600080fd5b50508035926020909101359150565b6001600160a01b0381168114610f1257600080fd5b600060208284031215613bae57600080fd5b813561273681613b87565b600060208284031215613bcb57600080fd5b5035919050565b600080600060608486031215613be757600080fd5b83359250602084013591506040840135613c0081613b87565b809150509250925092565b60008060408385031215613c1e57600080fd5b8235613c2981613b87565b946020939093013593505050565b6020808252825182820181905260009190848201906040850190845b81811015613c785783516001600160a01b031683529284019291840191600101613c53565b50909695505050505050565b600080600060608486031215613c9957600080fd5b8335613ca481613b87565b95602085013595506040909401359392505050565b600080600060608486031215613cce57600080fd5b8335613cd981613b87565b92506020840135613ce981613b87565b929592945050506040919091013590565b60008060408385031215613d0d57600080fd5b8235613d1881613b87565b91506020830135613d2881613b87565b809150509250929050565b8015158114610f1257600080fd5b600060208284031215613d5357600080fd5b813561273681613d33565b634e487b7160e01b600052604160045260246000fd5b60405160e0810167ffffffffffffffff81118282101715613d9757613d97613d5e565b60405290565b604051601f8201601f1916810167ffffffffffffffff81118282101715613dc657613dc6613d5e565b604052919050565b60006020808385031215613de157600080fd5b823567ffffffffffffffff80821115613df957600080fd5b818501915085601f830112613e0d57600080fd5b813581811115613e1f57613e1f613d5e565b8060051b9150613e30848301613d9d565b8181529183018401918481019088841115613e4a57600080fd5b938501935b83851015613e745784359250613e6483613b87565b8282529385019390850190613e4f565b98975050505050505050565b60008060408385031215613e9357600080fd5b823591506020830135613d2881613b87565b600080600080600060a08688031215613ebd57600080fd5b853594506020860135613ecf81613b87565b93506040860135613edf81613b87565b94979396509394606081013594506080013592915050565b634e487b7160e01b600052603260045260246000fd5b634e487b7160e01b600052601160045260246000fd5b8082018082111561123f5761123f613f0d565b8051613f4181613d33565b919050565b600060208284031215613f5857600080fd5b815161273681613d33565b8181038181111561123f5761123f613f0d565b600060018201613f8857613f88613f0d565b5060010190565b808202811582820484141761123f5761123f613f0d565b600082613fc357634e487b7160e01b600052601260045260246000fd5b500490565b80516dffffffffffffffffffffffffffff81168114613f4157600080fd5b805163ffffffff81168114613f4157600080fd5b60008060006060848603121561400f57600080fd5b61401884613fc8565b925061402660208501613fc8565b915061403460408501613fe6565b90509250925092565b60006020828403121561404f57600080fd5b5051919050565b805161ffff81168114613f4157600080fd5b600060e0828403121561407a57600080fd5b614082613d74565b825161408d81613b87565b81526020830151600281900b81146140a457600080fd5b60208201526140b560408401614056565b60408201526140c660608401614056565b60608201526140d760808401614056565b60808201526140e860a08401613fe6565b60a08201526140f960c08401613f36565b60c08201529392505050565b60006020828403121561411757600080fd5b815161273681613b8756fe4f6e6c792061646d696e2063616e2063616c6c20746869732066756e6374696fa2646970667358221220f0a0727ab0269395fb4e728620355087eae9b01448eb8310c068de2155fdd39f64736f6c63430008130033",
  "linkReferences": {},
  "deployedLinkReferences": {}
}