{
  "_format": "hh-sol-artifact-1",
  "contractName": "CG8",
  "sourceName": "contracts/cgateToken.sol",
  "abi": [
    {
      "anonymous": false,
      "inputs": [
        {
          "indexed": true,
          "internalType": "address",
          "name": "owner",
          "type": "address"
        },
        {
          "indexed": true,
          "internalType": "address",
          "name": "spender",
          "type": "address"
        },
        {
          "indexed": false,
          "internalType": "uint256",
          "name": "value",
          "type": "uint256"
        }
      ],
      "name": "Approval",
      "type": "event"
    },
    {
      "anonymous": false,
      "inputs": [
        {
          "indexed": false,
          "internalType": "uint8",
          "name": "version",
          "type": "uint8"
        }
      ],
      "name": "Initialized",
      "type": "event"
    },
    {
      "anonymous": false,
      "inputs": [
        {
          "indexed": true,
          "internalType": "address",
          "name": "newOwner",
          "type": "address"
        }
      ],
      "name": "OwnershipTransferProposed",
      "type": "event"
    },
    {
      "anonymous": false,
      "inputs": [
        {
          "indexed": true,
          "internalType": "address",
          "name": "previousOwner",
          "type": "address"
        },
        {
          "indexed": true,
          "internalType": "address",
          "name": "newOwner",
          "type": "address"
        }
      ],
      "name": "OwnershipTransferred",
      "type": "event"
    },
    {
      "anonymous": false,
      "inputs": [
        {
          "indexed": false,
          "internalType": "address",
          "name": "account",
          "type": "address"
        }
      ],
      "name": "Paused",
      "type": "event"
    },
    {
      "anonymous": false,
      "inputs": [
        {
          "indexed": true,
          "internalType": "address",
          "name": "from",
          "type": "address"
        },
        {
          "indexed": true,
          "internalType": "address",
          "name": "to",
          "type": "address"
        },
        {
          "indexed": false,
          "internalType": "uint256",
          "name": "value",
          "type": "uint256"
        }
      ],
      "name": "Transfer",
      "type": "event"
    },
    {
      "anonymous": false,
      "inputs": [
        {
          "indexed": false,
          "internalType": "address",
          "name": "account",
          "type": "address"
        }
      ],
      "name": "Unpaused",
      "type": "event"
    },
    {
      "anonymous": false,
      "inputs": [
        {
          "indexed": true,
          "internalType": "address",
          "name": "voter",
          "type": "address"
        },
        {
          "indexed": false,
          "internalType": "bool",
          "name": "approve",
          "type": "bool"
        }
      ],
      "name": "VoteCasted",
      "type": "event"
    },
    {
      "inputs": [
        {
          "internalType": "address",
          "name": "",
          "type": "address"
        }
      ],
      "name": "_frozenWallets",
      "outputs": [
        {
          "internalType": "uint256",
          "name": "",
          "type": "uint256"
        }
      ],
      "stateMutability": "view",
      "type": "function"
    },
    {
      "inputs": [],
      "name": "_owner",
      "outputs": [
        {
          "internalType": "address",
          "name": "",
          "type": "address"
        }
      ],
      "stateMutability": "view",
      "type": "function"
    },
    {
      "inputs": [
        {
          "internalType": "address",
          "name": "wallet",
          "type": "address"
        }
      ],
      "name": "addToWhitelist",
      "outputs": [],
      "stateMutability": "nonpayable",
      "type": "function"
    },
    {
      "inputs": [
        {
          "internalType": "address",
          "name": "beneficiary",
          "type": "address"
        },
        {
          "internalType": "uint256",
          "name": "amount",
          "type": "uint256"
        },
        {
          "internalType": "uint256",
          "name": "percentageToRelease",
          "type": "uint256"
        },
        {
          "internalType": "uint256",
          "name": "timeInterval",
          "type": "uint256"
        }
      ],
      "name": "addVestingSchedule",
      "outputs": [],
      "stateMutability": "nonpayable",
      "type": "function"
    },
    {
      "inputs": [
        {
          "internalType": "address",
          "name": "owner",
          "type": "address"
        },
        {
          "internalType": "address",
          "name": "spender",
          "type": "address"
        }
      ],
      "name": "allowance",
      "outputs": [
        {
          "internalType": "uint256",
          "name": "",
          "type": "uint256"
        }
      ],
      "stateMutability": "view",
      "type": "function"
    },
    {
      "inputs": [
        {
          "internalType": "address",
          "name": "spender",
          "type": "address"
        },
        {
          "internalType": "uint256",
          "name": "amount",
          "type": "uint256"
        }
      ],
      "name": "approve",
      "outputs": [
        {
          "internalType": "bool",
          "name": "",
          "type": "bool"
        }
      ],
      "stateMutability": "nonpayable",
      "type": "function"
    },
    {
      "inputs": [
        {
          "internalType": "address",
          "name": "account",
          "type": "address"
        }
      ],
      "name": "balanceOf",
      "outputs": [
        {
          "internalType": "uint256",
          "name": "",
          "type": "uint256"
        }
      ],
      "stateMutability": "view",
      "type": "function"
    },
    {
      "inputs": [
        {
          "internalType": "address",
          "name": "_user",
          "type": "address"
        }
      ],
      "name": "blackList",
      "outputs": [],
      "stateMutability": "nonpayable",
      "type": "function"
    },
    {
      "inputs": [
        {
          "internalType": "uint256",
          "name": "amount",
          "type": "uint256"
        }
      ],
      "name": "burn",
      "outputs": [],
      "stateMutability": "nonpayable",
      "type": "function"
    },
    {
      "inputs": [
        {
          "internalType": "address",
          "name": "account",
          "type": "address"
        },
        {
          "internalType": "uint256",
          "name": "amount",
          "type": "uint256"
        }
      ],
      "name": "burnFrom",
      "outputs": [],
      "stateMutability": "nonpayable",
      "type": "function"
    },
    {
      "inputs": [],
      "name": "burnableTax",
      "outputs": [
        {
          "internalType": "uint256",
          "name": "",
          "type": "uint256"
        }
      ],
      "stateMutability": "view",
      "type": "function"
    },
    {
      "inputs": [],
      "name": "buySellTaxRate",
      "outputs": [
        {
          "internalType": "uint256",
          "name": "",
          "type": "uint256"
        }
      ],
      "stateMutability": "view",
      "type": "function"
    },
    {
      "inputs": [],
      "name": "cancelOwnershipTransfer",
      "outputs": [],
      "stateMutability": "nonpayable",
      "type": "function"
    },
    {
      "inputs": [
        {
          "internalType": "bool",
          "name": "approve",
          "type": "bool"
        }
      ],
      "name": "castVote",
      "outputs": [],
      "stateMutability": "nonpayable",
      "type": "function"
    },
    {
      "inputs": [],
      "name": "claim",
      "outputs": [],
      "stateMutability": "nonpayable",
      "type": "function"
    },
    {
      "inputs": [],
      "name": "decimals",
      "outputs": [
        {
          "internalType": "uint8",
          "name": "",
          "type": "uint8"
        }
      ],
      "stateMutability": "view",
      "type": "function"
    },
    {
      "inputs": [
        {
          "internalType": "address",
          "name": "spender",
          "type": "address"
        },
        {
          "internalType": "uint256",
          "name": "subtractedValue",
          "type": "uint256"
        }
      ],
      "name": "decreaseAllowance",
      "outputs": [
        {
          "internalType": "bool",
          "name": "",
          "type": "bool"
        }
      ],
      "stateMutability": "nonpayable",
      "type": "function"
    },
    {
      "inputs": [],
      "name": "decreasingTaxInterval",
      "outputs": [
        {
          "internalType": "uint256",
          "name": "",
          "type": "uint256"
        }
      ],
      "stateMutability": "view",
      "type": "function"
    },
    {
      "inputs": [
        {
          "internalType": "bool",
          "name": "_enabled",
          "type": "bool"
        }
      ],
      "name": "disableBuySellTax",
      "outputs": [],
      "stateMutability": "nonpayable",
      "type": "function"
    },
    {
      "inputs": [],
      "name": "finalizeOwnershipTransfer",
      "outputs": [],
      "stateMutability": "nonpayable",
      "type": "function"
    },
    {
      "inputs": [
        {
          "internalType": "address",
          "name": "wallet",
          "type": "address"
        },
        {
          "internalType": "uint256",
          "name": "freezeDuration",
          "type": "uint256"
        }
      ],
      "name": "freezeWallet",
      "outputs": [],
      "stateMutability": "nonpayable",
      "type": "function"
    },
    {
      "inputs": [],
      "name": "graduallyDecreasingTax",
      "outputs": [
        {
          "internalType": "uint256",
          "name": "",
          "type": "uint256"
        }
      ],
      "stateMutability": "view",
      "type": "function"
    },
    {
      "inputs": [
        {
          "internalType": "address",
          "name": "",
          "type": "address"
        }
      ],
      "name": "hasVoted",
      "outputs": [
        {
          "internalType": "bool",
          "name": "",
          "type": "bool"
        }
      ],
      "stateMutability": "view",
      "type": "function"
    },
    {
      "inputs": [],
      "name": "holdersCount",
      "outputs": [
        {
          "internalType": "uint256",
          "name": "",
          "type": "uint256"
        }
      ],
      "stateMutability": "view",
      "type": "function"
    },
    {
      "inputs": [
        {
          "internalType": "address",
          "name": "wallet",
          "type": "address"
        }
      ],
      "name": "includeInTax",
      "outputs": [],
      "stateMutability": "nonpayable",
      "type": "function"
    },
    {
      "inputs": [
        {
          "internalType": "address",
          "name": "spender",
          "type": "address"
        },
        {
          "internalType": "uint256",
          "name": "addedValue",
          "type": "uint256"
        }
      ],
      "name": "increaseAllowance",
      "outputs": [
        {
          "internalType": "bool",
          "name": "",
          "type": "bool"
        }
      ],
      "stateMutability": "nonpayable",
      "type": "function"
    },
    {
      "inputs": [
        {
          "internalType": "string",
          "name": "_name",
          "type": "string"
        },
        {
          "internalType": "string",
          "name": "_symbol",
          "type": "string"
        },
        {
          "internalType": "uint8",
          "name": "_decimals",
          "type": "uint8"
        },
        {
          "internalType": "uint256",
          "name": "_initialSupply",
          "type": "uint256"
        },
        {
          "internalType": "address",
          "name": "_router",
          "type": "address"
        },
        {
          "internalType": "address[]",
          "name": "_initialVoters",
          "type": "address[]"
        }
      ],
      "name": "initialize",
      "outputs": [],
      "stateMutability": "nonpayable",
      "type": "function"
    },
    {
      "inputs": [
        {
          "internalType": "address",
          "name": "_user",
          "type": "address"
        }
      ],
      "name": "isBlackList",
      "outputs": [
        {
          "internalType": "bool",
          "name": "",
          "type": "bool"
        }
      ],
      "stateMutability": "view",
      "type": "function"
    },
    {
      "inputs": [],
      "name": "isBuySellTaxEnabled",
      "outputs": [
        {
          "internalType": "bool",
          "name": "",
          "type": "bool"
        }
      ],
      "stateMutability": "view",
      "type": "function"
    },
    {
      "inputs": [],
      "name": "isDeflationary",
      "outputs": [
        {
          "internalType": "bool",
          "name": "",
          "type": "bool"
        }
      ],
      "stateMutability": "view",
      "type": "function"
    },
    {
      "inputs": [
        {
          "internalType": "address",
          "name": "",
          "type": "address"
        }
      ],
      "name": "isExcludedFromTax",
      "outputs": [
        {
          "internalType": "bool",
          "name": "",
          "type": "bool"
        }
      ],
      "stateMutability": "view",
      "type": "function"
    },
    {
      "inputs": [
        {
          "internalType": "address",
          "name": "user",
          "type": "address"
        }
      ],
      "name": "isWhitelisted",
      "outputs": [
        {
          "internalType": "bool",
          "name": "",
          "type": "bool"
        }
      ],
      "stateMutability": "view",
      "type": "function"
    },
    {
      "inputs": [],
      "name": "lastUpdatedTaxTimestamp",
      "outputs": [
        {
          "internalType": "uint256",
          "name": "",
          "type": "uint256"
        }
      ],
      "stateMutability": "view",
      "type": "function"
    },
    {
      "inputs": [],
      "name": "liquidityLocked",
      "outputs": [
        {
          "internalType": "bool",
          "name": "",
          "type": "bool"
        }
      ],
      "stateMutability": "view",
      "type": "function"
    },
    {
      "inputs": [
        {
          "internalType": "uint256",
          "name": "amount",
          "type": "uint256"
        }
      ],
      "name": "lockLiquidity",
      "outputs": [],
      "stateMutability": "nonpayable",
      "type": "function"
    },
    {
      "inputs": [],
      "name": "lockedLiquidityAmount",
      "outputs": [
        {
          "internalType": "uint256",
          "name": "",
          "type": "uint256"
        }
      ],
      "stateMutability": "view",
      "type": "function"
    },
    {
      "inputs": [],
      "name": "maxSupply",
      "outputs": [
        {
          "internalType": "uint256",
          "name": "",
          "type": "uint256"
        }
      ],
      "stateMutability": "view",
      "type": "function"
    },
    {
      "inputs": [],
      "name": "maxTransactionAmount",
      "outputs": [
        {
          "internalType": "uint256",
          "name": "",
          "type": "uint256"
        }
      ],
      "stateMutability": "view",
      "type": "function"
    },
    {
      "inputs": [],
      "name": "minTransactionAmount",
      "outputs": [
        {
          "internalType": "uint256",
          "name": "",
          "type": "uint256"
        }
      ],
      "stateMutability": "view",
      "type": "function"
    },
    {
      "inputs": [
        {
          "internalType": "address",
          "name": "account",
          "type": "address"
        },
        {
          "internalType": "uint256",
          "name": "amount",
          "type": "uint256"
        }
      ],
      "name": "mint",
      "outputs": [],
      "stateMutability": "nonpayable",
      "type": "function"
    },
    {
      "inputs": [],
      "name": "name",
      "outputs": [
        {
          "internalType": "string",
          "name": "",
          "type": "string"
        }
      ],
      "stateMutability": "view",
      "type": "function"
    },
    {
      "inputs": [],
      "name": "owner",
      "outputs": [
        {
          "internalType": "address",
          "name": "",
          "type": "address"
        }
      ],
      "stateMutability": "view",
      "type": "function"
    },
    {
      "inputs": [],
      "name": "pause",
      "outputs": [],
      "stateMutability": "nonpayable",
      "type": "function"
    },
    {
      "inputs": [],
      "name": "paused",
      "outputs": [
        {
          "internalType": "bool",
          "name": "",
          "type": "bool"
        }
      ],
      "stateMutability": "view",
      "type": "function"
    },
    {
      "inputs": [
        {
          "internalType": "address",
          "name": "newOwner",
          "type": "address"
        }
      ],
      "name": "proposeOwnershipTransfer",
      "outputs": [],
      "stateMutability": "nonpayable",
      "type": "function"
    },
    {
      "inputs": [],
      "name": "proposedOwner",
      "outputs": [
        {
          "internalType": "address",
          "name": "",
          "type": "address"
        }
      ],
      "stateMutability": "view",
      "type": "function"
    },
    {
      "inputs": [
        {
          "internalType": "address",
          "name": "_user",
          "type": "address"
        }
      ],
      "name": "removeFromBlacklist",
      "outputs": [],
      "stateMutability": "nonpayable",
      "type": "function"
    },
    {
      "inputs": [
        {
          "internalType": "address",
          "name": "wallet",
          "type": "address"
        }
      ],
      "name": "removeFromWhitelist",
      "outputs": [],
      "stateMutability": "nonpayable",
      "type": "function"
    },
    {
      "inputs": [
        {
          "internalType": "address",
          "name": "_voterAddress",
          "type": "address"
        }
      ],
      "name": "removeVoter",
      "outputs": [],
      "stateMutability": "nonpayable",
      "type": "function"
    },
    {
      "inputs": [],
      "name": "renounceOwnership",
      "outputs": [],
      "stateMutability": "nonpayable",
      "type": "function"
    },
    {
      "inputs": [],
      "name": "router",
      "outputs": [
        {
          "internalType": "address",
          "name": "",
          "type": "address"
        }
      ],
      "stateMutability": "view",
      "type": "function"
    },
    {
      "inputs": [
        {
          "internalType": "uint256",
          "name": "_burnableTax",
          "type": "uint256"
        }
      ],
      "name": "setBurnableTax",
      "outputs": [],
      "stateMutability": "nonpayable",
      "type": "function"
    },
    {
      "inputs": [
        {
          "internalType": "uint256",
          "name": "_rate",
          "type": "uint256"
        }
      ],
      "name": "setBuySellTaxRate",
      "outputs": [],
      "stateMutability": "nonpayable",
      "type": "function"
    },
    {
      "inputs": [
        {
          "internalType": "bool",
          "name": "_enabled",
          "type": "bool"
        }
      ],
      "name": "setDeflationary",
      "outputs": [],
      "stateMutability": "nonpayable",
      "type": "function"
    },
    {
      "inputs": [
        {
          "internalType": "uint256",
          "name": "_decreasingTaxInterval",
          "type": "uint256"
        }
      ],
      "name": "setGraduallyDecreasingInterval",
      "outputs": [],
      "stateMutability": "nonpayable",
      "type": "function"
    },
    {
      "inputs": [
        {
          "internalType": "uint256",
          "name": "tax",
          "type": "uint256"
        }
      ],
      "name": "setGraduallyDecreasingTax",
      "outputs": [],
      "stateMutability": "nonpayable",
      "type": "function"
    },
    {
      "inputs": [],
      "name": "setGraduallyDecreasingTaxZero",
      "outputs": [],
      "stateMutability": "nonpayable",
      "type": "function"
    },
    {
      "inputs": [
        {
          "internalType": "address",
          "name": "wallet",
          "type": "address"
        }
      ],
      "name": "setIsExcludedFromTax",
      "outputs": [],
      "stateMutability": "nonpayable",
      "type": "function"
    },
    {
      "inputs": [
        {
          "internalType": "uint256",
          "name": "amount",
          "type": "uint256"
        }
      ],
      "name": "setMaxTransferAmount",
      "outputs": [],
      "stateMutability": "nonpayable",
      "type": "function"
    },
    {
      "inputs": [
        {
          "internalType": "uint256",
          "name": "amount",
          "type": "uint256"
        }
      ],
      "name": "setMinTransactionAmount",
      "outputs": [],
      "stateMutability": "nonpayable",
      "type": "function"
    },
    {
      "inputs": [
        {
          "internalType": "address",
          "name": "_newRouter",
          "type": "address"
        }
      ],
      "name": "setRouter",
      "outputs": [],
      "stateMutability": "nonpayable",
      "type": "function"
    },
    {
      "inputs": [
        {
          "internalType": "uint256",
          "name": "delay",
          "type": "uint256"
        }
      ],
      "name": "setTransferDelay",
      "outputs": [],
      "stateMutability": "nonpayable",
      "type": "function"
    },
    {
      "inputs": [
        {
          "internalType": "address",
          "name": "_usdt",
          "type": "address"
        }
      ],
      "name": "setUSDTAddress",
      "outputs": [],
      "stateMutability": "nonpayable",
      "type": "function"
    },
    {
      "inputs": [
        {
          "internalType": "address",
          "name": "",
          "type": "address"
        }
      ],
      "name": "signers",
      "outputs": [
        {
          "internalType": "bool",
          "name": "",
          "type": "bool"
        }
      ],
      "stateMutability": "view",
      "type": "function"
    },
    {
      "inputs": [],
      "name": "symbol",
      "outputs": [
        {
          "internalType": "string",
          "name": "",
          "type": "string"
        }
      ],
      "stateMutability": "view",
      "type": "function"
    },
    {
      "inputs": [],
      "name": "totalSupply",
      "outputs": [
        {
          "internalType": "uint256",
          "name": "",
          "type": "uint256"
        }
      ],
      "stateMutability": "view",
      "type": "function"
    },
    {
      "inputs": [
        {
          "internalType": "address",
          "name": "recipient",
          "type": "address"
        },
        {
          "internalType": "uint256",
          "name": "amount",
          "type": "uint256"
        }
      ],
      "name": "transfer",
      "outputs": [
        {
          "internalType": "bool",
          "name": "",
          "type": "bool"
        }
      ],
      "stateMutability": "nonpayable",
      "type": "function"
    },
    {
      "inputs": [],
      "name": "transferAllowedAt",
      "outputs": [
        {
          "internalType": "uint256",
          "name": "",
          "type": "uint256"
        }
      ],
      "stateMutability": "view",
      "type": "function"
    },
    {
      "inputs": [],
      "name": "transferDelay",
      "outputs": [
        {
          "internalType": "uint256",
          "name": "",
          "type": "uint256"
        }
      ],
      "stateMutability": "view",
      "type": "function"
    },
    {
      "inputs": [
        {
          "internalType": "address",
          "name": "from",
          "type": "address"
        },
        {
          "internalType": "address",
          "name": "to",
          "type": "address"
        },
        {
          "internalType": "uint256",
          "name": "amount",
          "type": "uint256"
        }
      ],
      "name": "transferFrom",
      "outputs": [
        {
          "internalType": "bool",
          "name": "",
          "type": "bool"
        }
      ],
      "stateMutability": "nonpayable",
      "type": "function"
    },
    {
      "inputs": [
        {
          "internalType": "address",
          "name": "newOwner",
          "type": "address"
        }
      ],
      "name": "transferOwnership",
      "outputs": [],
      "stateMutability": "nonpayable",
      "type": "function"
    },
    {
      "inputs": [
        {
          "internalType": "address",
          "name": "wallet",
          "type": "address"
        }
      ],
      "name": "unfreezeWallet",
      "outputs": [],
      "stateMutability": "nonpayable",
      "type": "function"
    },
    {
      "inputs": [
        {
          "internalType": "uint256",
          "name": "amount",
          "type": "uint256"
        }
      ],
      "name": "unlockLiquidity",
      "outputs": [],
      "stateMutability": "nonpayable",
      "type": "function"
    },
    {
      "inputs": [],
      "name": "unpause",
      "outputs": [],
      "stateMutability": "nonpayable",
      "type": "function"
    },
    {
      "inputs": [],
      "name": "updateGraduallyDecreasingTax",
      "outputs": [],
      "stateMutability": "nonpayable",
      "type": "function"
    },
    {
      "inputs": [],
      "name": "usdt",
      "outputs": [
        {
          "internalType": "address",
          "name": "",
          "type": "address"
        }
      ],
      "stateMutability": "view",
      "type": "function"
    },
    {
      "inputs": [
        {
          "internalType": "address",
          "name": "",
          "type": "address"
        }
      ],
      "name": "vestingInfo",
      "outputs": [
        {
          "internalType": "uint256",
          "name": "amount",
          "type": "uint256"
        },
        {
          "internalType": "address",
          "name": "beneficiary",
          "type": "address"
        },
        {
          "internalType": "uint256",
          "name": "percentageOfTokensToBeReleased",
          "type": "uint256"
        },
        {
          "internalType": "uint256",
          "name": "timeInterval",
          "type": "uint256"
        },
        {
          "internalType": "uint256",
          "name": "lastWithdrawTimestamp",
          "type": "uint256"
        },
        {
          "internalType": "uint256",
          "name": "claimedTokens",
          "type": "uint256"
        }
      ],
      "stateMutability": "view",
      "type": "function"
    },
    {
      "inputs": [
        {
          "internalType": "uint256",
          "name": "",
          "type": "uint256"
        }
      ],
      "name": "voters",
      "outputs": [
        {
          "internalType": "address",
          "name": "",
          "type": "address"
        }
      ],
      "stateMutability": "view",
      "type": "function"
    },
    {
      "inputs": [
        {
          "internalType": "address",
          "name": "receiver",
          "type": "address"
        },
        {
          "internalType": "contract IERC20",
          "name": "_token",
          "type": "address"
        }
      ],
      "name": "withdrawDumpToken",
      "outputs": [],
      "stateMutability": "nonpayable",
      "type": "function"
    },
    {
      "inputs": [
        {
          "internalType": "address payable",
          "name": "_receiver",
          "type": "address"
        }
      ],
      "name": "withdrawEth",
      "outputs": [],
      "stateMutability": "nonpayable",
      "type": "function"
    },
    {
      "stateMutability": "payable",
      "type": "receive"
    }
  ],
  "bytecode": "0x608060405234801561001057600080fd5b50614594806100206000396000f3fe6080604052600436106105775760003560e01c806379cc6790116102ca578063bd0e0acd11610179578063da58c7d9116100d6578063f217fdbe1161008a578063f78e633d1161006f578063f78e633d14610f36578063f887ea4014610fc6578063f8f1b6c914610fe757600080fd5b8063f217fdbe14610ef6578063f2fde38b14610f1657600080fd5b8063e17c4c74116100bb578063e17c4c7414610ea1578063e43252d714610ec1578063eb60b83f14610ee157600080fd5b8063da58c7d914610e3b578063dd62ed3e14610e5b57600080fd5b8063cb4ca6311161012d578063d153b60c11610112578063d153b60c14610de3578063d292059e14610e04578063d5abeb0114610e2457600080fd5b8063cb4ca63114610d9b578063d0a1bd4414610dcc57600080fd5b8063bfed5ce31161015e578063bfed5ce314610d44578063c0d7865514610d64578063c8c8ebe414610d8457600080fd5b8063bd0e0acd14610d18578063bf41c2a414610d2f57600080fd5b806395d89b4111610227578063a9059cbb116101db578063b2bdfa7b116101c0578063b2bdfa7b14610c9a578063b36d691914610cbb578063b5c43db414610cf557600080fd5b8063a9059cbb14610c5f578063ab8b2f0d14610c7f57600080fd5b8063996721581161020c5780639967215814610bff578063a30ff8b614610c1f578063a457c2d714610c3f57600080fd5b806395d89b4114610bca57806396e8392414610bdf57600080fd5b80638ab1d6811161027e5780638da5cb5b116102635780638da5cb5b14610b6c5780638e8c10a214610b8a5780638f376fca14610baa57600080fd5b80638ab1d68114610b2c5780638bf5540914610b4c57600080fd5b80638456cb59116102af5780638456cb5914610ad757806385be583f14610aec57806386c1ff6814610b0c57600080fd5b806379cc679014610a975780637ace48e714610ab757600080fd5b80633eb5cbeb116104265780635c975abb1161038357806370a0823111610337578063736c0d5b1161031c578063736c0d5b14610a2f578063760b7e3814610a605780637884d88814610a7757600080fd5b806370a08231146109e4578063715018a614610a1a57600080fd5b806360f588b71161036857806360f588b714610996578063622b67cb146109b65780636b4ed21b146109cd57600080fd5b80635c975abb146109675780635e2f16c81461097f57600080fd5b80634e71d92d116103da578063553ba06c116103bf578063553ba06c1461090c57806355eba8681461092c57806357976fb41461094c57600080fd5b80634e71d92d146108d7578063537df3b6146108ec57600080fd5b806340c10f191161040b57806340c10f191461087757806342966c68146108975780634838d165146108b757600080fd5b80633eb5cbeb146108345780633f4ba83a1461086257600080fd5b806323b872dd116104d45780632f48ab7d1161048857806336e8c9b31161046d57806336e8c9b3146107ba57806339509351146107da5780633af32abf146107fa57600080fd5b80632f48ab7d14610760578063313ce5671461079e57600080fd5b806325e16063116104b957806325e16063146106ff5780632a32234f1461071f5780632bfbd9cf1461074057600080fd5b806323b872dd146106bf57806324ef8c1b146106df57600080fd5b80630b4d57f51161052b57806318160ddd1161051057806318160ddd1461067557806321040fc31461068a57806323452b9c146106aa57600080fd5b80630b4d57f51461064757806317a5d4df1461065e57600080fd5b8063095ea7b31161055c578063095ea7b3146105cf57806309eef43e146105ff5780630a702e8d1461063057600080fd5b8063052c30bc1461058357806306fdde03146105ad57600080fd5b3661057e57005b600080fd5b34801561058f57600080fd5b5061059a6101345481565b6040519081526020015b60405180910390f35b3480156105b957600080fd5b506105c2611007565b6040516105a49190613e8c565b3480156105db57600080fd5b506105ef6105ea366004613eff565b611099565b60405190151581526020016105a4565b34801561060b57600080fd5b506105ef61061a366004613f2b565b61012f6020526000908152604090205460ff1681565b34801561063c57600080fd5b5061059a6101335481565b34801561065357600080fd5b5061065c6110b3565b005b34801561066a57600080fd5b5061059a6101315481565b34801561068157600080fd5b5060355461059a565b34801561069657600080fd5b5061065c6106a5366004613f2b565b611130565b3480156106b657600080fd5b5061065c6111de565b3480156106cb57600080fd5b506105ef6106da366004613f48565b611266565b3480156106eb57600080fd5b5061065c6106fa366004613f89565b6114e0565b34801561070b57600080fd5b5061065c61071a366004613f2b565b6116ac565b34801561072b57600080fd5b5061065c61073a366004613fc4565b61013755565b34801561074c57600080fd5b5061065c61075b366004613fc4565b611743565b34801561076c57600080fd5b5061013c546107869061010090046001600160a01b031681565b6040516001600160a01b0390911681526020016105a4565b3480156107aa57600080fd5b50604051601281526020016105a4565b3480156107c657600080fd5b5061065c6107d5366004613fc4565b611824565b3480156107e657600080fd5b506105ef6107f5366004613eff565b611832565b34801561080657600080fd5b506105ef610815366004613f2b565b6001600160a01b03166000908152610140602052604090205460ff1690565b34801561084057600080fd5b5061059a61084f366004613f2b565b61013f6020526000908152604090205481565b34801561086e57600080fd5b5061065c611871565b34801561088357600080fd5b5061065c610892366004613eff565b611883565b3480156108a357600080fd5b5061065c6108b2366004613fc4565b611912565b3480156108c357600080fd5b5061065c6108d2366004613f2b565b61191c565b3480156108e357600080fd5b5061065c6119b3565b3480156108f857600080fd5b5061065c610907366004613f2b565b611bf6565b34801561091857600080fd5b5061065c610927366004613fc4565b611c89565b34801561093857600080fd5b5061065c610947366004613f2b565b611c97565b34801561095857600080fd5b50610135546105ef9060ff1681565b34801561097357600080fd5b5060c95460ff166105ef565b34801561098b57600080fd5b5061059a6101385481565b3480156109a257600080fd5b5061065c6109b1366004613f2b565b611cdf565b3480156109c257600080fd5b5061059a61013a5481565b3480156109d957600080fd5b5061059a6101465481565b3480156109f057600080fd5b5061059a6109ff366004613f2b565b6001600160a01b031660009081526033602052604090205490565b348015610a2657600080fd5b5061065c611d02565b348015610a3b57600080fd5b506105ef610a4a366004613f2b565b6101416020526000908152604090205460ff1681565b348015610a6c57600080fd5b5061059a61013b5481565b348015610a8357600080fd5b5061065c610a92366004613f2b565b611d14565b348015610aa357600080fd5b5061065c610ab2366004613eff565b611d41565b348015610ac357600080fd5b5061065c610ad2366004613feb565b611d53565b348015610ae357600080fd5b5061065c611e5f565b348015610af857600080fd5b5061065c610b07366004613eff565b611e6f565b348015610b1857600080fd5b5061065c610b27366004613f2b565b611ef8565b348015610b3857600080fd5b5061065c610b47366004613f2b565b612023565b348015610b5857600080fd5b5061065c610b67366004613fc4565b61204d565b348015610b7857600080fd5b506097546001600160a01b0316610786565b348015610b9657600080fd5b50610135546105ef90610100900460ff1681565b348015610bb657600080fd5b5061065c610bc5366004613fc4565b61205b565b348015610bd657600080fd5b506105c2612069565b348015610beb57600080fd5b5061065c610bfa366004613fc4565b612078565b348015610c0b57600080fd5b5061065c610c1a366004614008565b612156565b348015610c2b57600080fd5b5061065c610c3a366004613feb565b612270565b348015610c4b57600080fd5b506105ef610c5a366004613eff565b612293565b348015610c6b57600080fd5b506105ef610c7a366004613eff565b612348565b348015610c8b57600080fd5b5061013c546105ef9060ff1681565b348015610ca657600080fd5b5061013054610786906001600160a01b031681565b348015610cc757600080fd5b506105ef610cd6366004613f2b565b6001600160a01b0316600090815261013d602052604090205460ff1690565b348015610d0157600080fd5b5033600090815261013e602052604090205461059a565b348015610d2457600080fd5b5061059a6101395481565b348015610d3b57600080fd5b5061065c6125ab565b348015610d5057600080fd5b5061065c610d5f366004613fc4565b61276f565b348015610d7057600080fd5b5061065c610d7f366004613f2b565b61277d565b348015610d9057600080fd5b5061059a6101325481565b348015610da757600080fd5b506105ef610db6366004613f2b565b6101366020526000908152604090205460ff1681565b348015610dd857600080fd5b5061059a6101375481565b348015610def57600080fd5b5061012d54610786906001600160a01b031681565b348015610e1057600080fd5b5061065c610e1f366004613fc4565b6127c1565b348015610e3057600080fd5b5061059a6101445481565b348015610e4757600080fd5b50610786610e56366004613fc4565b6127cf565b348015610e6757600080fd5b5061059a610e76366004614008565b6001600160a01b03918216600090815260346020908152604080832093909416825291909152205490565b348015610ead57600080fd5b5061065c610ebc366004613f2b565b6127fa565b348015610ecd57600080fd5b5061065c610edc366004613f2b565b612824565b348015610eed57600080fd5b5061065c612851565b348015610f0257600080fd5b5061065c610f11366004613feb565b612861565b348015610f2257600080fd5b5061065c610f31366004613f2b565b61287d565b348015610f4257600080fd5b50610f91610f51366004613f2b565b6101426020526000908152604090208054600182015460028301546003840154600485015460059095015493946001600160a01b03909316939192909186565b604080519687526001600160a01b039095166020870152938501929092526060840152608083015260a082015260c0016105a4565b348015610fd257600080fd5b5061014354610786906001600160a01b031681565b348015610ff357600080fd5b5061065c611002366004614181565b6128f3565b6060603680546110169061423e565b80601f01602080910402602001604051908101604052809291908181526020018280546110429061423e565b801561108f5780601f106110645761010080835404028352916020019161108f565b820191906000526020600020905b81548152906001019060200180831161107257829003601f168201915b5050505050905090565b6000336110a7818585612c34565b60019150505b92915050565b600061013b54426110c4919061428e565b905061013a54811061112d576000610139546127106110e3919061428e565b116110f657506000610138554261013b55565b612710610139546101385461110b91906142a1565b61111591906142b8565b61013954611123919061428e565b610139554261013b555b50565b611138612d8c565b6001600160a01b0381166111935760405162461bcd60e51b815260206004820181905260248201527f4e6577206f776e65722063616e6e6f74206265207a65726f206164647265737360448201526064015b60405180910390fd5b61012d80546001600160a01b0319166001600160a01b0383169081179091556040517ff0c6916d81cd1f899264b5193e3bbe7afd2bcc3d05704bab73d0b8ac9387115890600090a250565b6111e6612d8c565b61012d80546001600160a01b031916905560005b61012e5481101561112d57600061012f600061012e8481548110611220576112206142da565b6000918252602080832091909101546001600160a01b031683528201929092526040019020805460ff19169115159190911790558061125e816142f0565b9150506111fa565b6001600160a01b038316600090815261013f6020526040812054849015806112a657506001600160a01b038116600090815261013f602052604090205442115b6112f25760405162461bcd60e51b815260206004820152601060248201527f57616c6c65742069732066726f7a656e00000000000000000000000000000000604482015260640161118a565b3360008181526101406020526040902054849060ff166113b2576101315481101561135f5760405162461bcd60e51b815260206004820152601460248201527f416d6f756e742062656c6f77206d696e696d756d000000000000000000000000604482015260640161118a565b610132548111156113b25760405162461bcd60e51b815260206004820152601660248201527f416d6f756e742065786365656473206d6178696d756d00000000000000000000604482015260640161118a565b6113ba612de6565b6001600160a01b038716600090815261013d602052604090205460ff16156114245760405162461bcd60e51b815260206004820152601e60248201527f53656e64657227732077616c6c657420697320626c61636b6c69737465640000604482015260640161118a565b33600090815261013e60205260409020544210156114845760405162461bcd60e51b815260206004820152601860248201527f5472616e73666572206e6f7420616c6c6f776564207965740000000000000000604482015260640161118a565b610133546114929042614309565b33600081815261013e60205260409020919091556114b290889087612e3f565b6114bd878787612ed1565b6114c8878787612f88565b600193506114d6600160fb55565b5050509392505050565b6114e8612d8c565b6001600160a01b0384166115645760405162461bcd60e51b815260206004820152602260248201527f42656e656669636961727920616464726573732063616e6e6f74206265207a6560448201527f726f000000000000000000000000000000000000000000000000000000000000606482015260840161118a565b60008211801561157657506127108211155b6115e75760405162461bcd60e51b8152602060048201526024808201527f50657263656e74616765206d757374206265206265747765656e203120616e6460448201527f2031303000000000000000000000000000000000000000000000000000000000606482015260840161118a565b6000811161165d5760405162461bcd60e51b815260206004820152602760248201527f54696d6520696e74657276616c206d757374206265206772656174657220746860448201527f616e207a65726f00000000000000000000000000000000000000000000000000606482015260840161118a565b6001600160a01b039093166000818152610142602052604081209384556001840180546001600160a01b0319169092179091556002830191909155600382019290925542600482015560050155565b6116b4612d8c565b6001600160a01b03811661170a5760405162461bcd60e51b815260206004820152600f60248201527f496e76616c696420616464726573730000000000000000000000000000000000604482015260640161118a565b6040516001600160a01b038216904780156108fc02916000818181858888f1935050505015801561173f573d6000803e3d6000fd5b5050565b6101355460ff16156117975760405162461bcd60e51b815260206004820152601360248201527f4c6971756964697479206973206c6f636b656400000000000000000000000000604482015260640161118a565b306000908152603360205260409020548111156117f65760405162461bcd60e51b815260206004820152601460248201527f496e73756666696369656e742062616c616e6365000000000000000000000000604482015260640161118a565b6118003082612348565b506101345461180f908261332d565b6101345550610135805460ff19166001179055565b61182c612d8c565b61013355565b3360008181526034602090815260408083206001600160a01b03871684529091528120549091906110a7908290869061186c908790614309565b612c34565b611879612d8c565b611881613340565b565b61188b612d8c565b611893612de6565b600061189e60355490565b610144549091506118af8383614309565b11156118fd5760405162461bcd60e51b815260206004820152601960248201527f537570706c792052656163686564204d617820537570706c7900000000000000604482015260640161118a565b6119078383613392565b5061173f600160fb55565b61112d33826133f9565b611924612d8c565b6001600160a01b038116600090815261013d602052604090205460ff161561198e5760405162461bcd60e51b815260206004820152601860248201527f7573657220616c726561647920626c61636b6c69737465640000000000000000604482015260640161118a565b6001600160a01b0316600090815261013d60205260409020805460ff19166001179055565b336000908152610142602052604090208054611a375760405162461bcd60e51b815260206004820152602860248201527f4e6f2076657374696e67207363686564756c6520666f756e6420666f7220746860448201527f652073656e646572000000000000000000000000000000000000000000000000606482015260840161118a565b60048101544290600090611a4b908361428e565b8354600385015491925090821015611aa55760405162461bcd60e51b815260206004820152601c60248201527f546f6b656e732063616e6e6f7420626520636c61696d65642079657400000000604482015260640161118a565b6000612710856002015483611aba91906142a1565b611ac491906142b8565b905080856005016000828254611ada9190614309565b90915550506004850184905581811115611b5c5760405162461bcd60e51b815260206004820152602a60248201527f546f6b656e7320746f20636c61696d2065786365656420746f74616c2076657360448201527f74656420746f6b656e7300000000000000000000000000000000000000000000606482015260840161118a565b845460058601541115611bd75760405162461bcd60e51b815260206004820152602960248201527f4e6f7420656e6f75676820746f6b656e7320696e207468652076657374696e6760448201527f207363686564756c650000000000000000000000000000000000000000000000606482015260840161118a565b61013054611bef906001600160a01b03163383612f88565b5050505050565b611bfe612d8c565b6001600160a01b038116600090815261013d602052604090205460ff16611c675760405162461bcd60e51b815260206004820152601860248201527f7573657220616c726561647920626c61636b6c69737465640000000000000000604482015260640161118a565b6001600160a01b0316600090815261013d60205260409020805460ff19169055565b611c91612d8c565b61013a55565b611c9f612d8c565b61013c80546001600160a01b03909216610100027fffffffffffffffffffffff0000000000000000000000000000000000000000ff909216919091179055565b611ce7612d8c565b6001600160a01b0316600090815261013f6020526040812055565b611d0a612d8c565b6118816000613453565b611d1c612d8c565b6001600160a01b0316600090815261013660205260409020805460ff19166001179055565b611d49612d8c565b61173f82826133f9565b611d5c336134a5565b611da85760405162461bcd60e51b815260206004820152601160248201527f4e6f7420612076616c696420766f746572000000000000000000000000000000604482015260640161118a565b33600090815261012f602052604090205460ff1615611e095760405162461bcd60e51b815260206004820152600d60248201527f416c726561647920766f74656400000000000000000000000000000000000000604482015260640161118a565b33600081815261012f6020908152604091829020805460ff191685151590811790915591519182527fa4861c5510bfa99706ed508d728f9c6b365ff27af1a3012e21980952ad2d844f910160405180910390a250565b611e67612d8c565b611881613510565b611e77612d8c565b6001600160a01b038216611ecd5760405162461bcd60e51b815260206004820152601660248201527f496e76616c69642077616c6c6574206164647265737300000000000000000000604482015260640161118a565b611ed78142614309565b6001600160a01b03909216600090815261013f602052604090209190915550565b611f00612d8c565b600080805b61012e54811015611f6657836001600160a01b031661012e8281548110611f2e57611f2e6142da565b6000918252602090912001546001600160a01b031603611f545780925060019150611f66565b80611f5e816142f0565b915050611f05565b50801561201e5761012e8054611f7e9060019061428e565b81548110611f8e57611f8e6142da565b60009182526020909120015461012e80546001600160a01b039092169184908110611fbb57611fbb6142da565b9060005260206000200160006101000a8154816001600160a01b0302191690836001600160a01b0316021790555061012e805480611ffb57611ffb61431c565b600082815260209020810160001990810180546001600160a01b03191690550190555b505050565b61202b612d8c565b6001600160a01b0316600090815261014060205260409020805460ff19169055565b612055612d8c565b61013255565b612063612d8c565b61013955565b6060603780546110169061423e565b6101355460ff166120cb5760405162461bcd60e51b815260206004820152601760248201527f4c6971756964697479206973206e6f74206c6f636b6564000000000000000000604482015260640161118a565b8061013454101561211e5760405162461bcd60e51b815260206004820152601b60248201527f4e6f7420656e6f756768206c6f636b6564206c69717569646974790000000000604482015260640161118a565b61013054612135906001600160a01b031682612348565b5061013454612144908261354d565b6101345550610135805460ff19169055565b61215e612d8c565b6040517f70a082310000000000000000000000000000000000000000000000000000000081523060048201526001600160a01b0382169063a9059cbb90849083906370a0823190602401602060405180830381865afa1580156121c5573d6000803e3d6000fd5b505050506040513d601f19601f820116820180604052508101906121e99190614332565b6040517fffffffff0000000000000000000000000000000000000000000000000000000060e085901b1681526001600160a01b03909216600483015260248201526044016020604051808303816000875af115801561224c573d6000803e3d6000fd5b505050506040513d601f19601f8201168201806040525081019061201e919061434b565b612278612d8c565b61013580549115156101000261ff0019909216919091179055565b3360008181526034602090815260408083206001600160a01b0387168452909152812054909190838110156123305760405162461bcd60e51b815260206004820152602560248201527f45524332303a2064656372656173656420616c6c6f77616e63652062656c6f7760448201527f207a65726f000000000000000000000000000000000000000000000000000000606482015260840161118a565b61233d8286868403612c34565b506001949350505050565b6000612352613559565b33600081815261013f6020526040902054158061238757506001600160a01b038116600090815261013f602052604090205442115b6123d35760405162461bcd60e51b815260206004820152601060248201527f57616c6c65742069732066726f7a656e00000000000000000000000000000000604482015260640161118a565b3360008181526101406020526040902054849060ff1661249357610131548110156124405760405162461bcd60e51b815260206004820152601460248201527f416d6f756e742062656c6f77206d696e696d756d000000000000000000000000604482015260640161118a565b610132548111156124935760405162461bcd60e51b815260206004820152601660248201527f416d6f756e742065786365656473206d6178696d756d00000000000000000000604482015260640161118a565b61249b612de6565b33600090815261013d602052604090205460ff16156124fc5760405162461bcd60e51b815260206004820152601e60248201527f53656e64657227732077616c6c657420697320626c61636b6c69737465640000604482015260640161118a565b33600090815261013e602052604090205442101561255c5760405162461bcd60e51b815260206004820152601860248201527f5472616e73666572206e6f7420616c6c6f776564207965740000000000000000604482015260640161118a565b6101335461256a9042614309565b33600081815261013e6020526040902091909155612589908787612ed1565b612594338787612f88565b600193506125a2600160fb55565b50505092915050565b6125b3612d8c565b61012e54600090815b8181101561262a5761012f600061012e83815481106125dd576125dd6142da565b60009182526020808320909101546001600160a01b0316835282019290925260400190205460ff16156126185782612614816142f0565b9350505b80612622816142f0565b9150506125bc565b508181148061267b5760405162461bcd60e51b815260206004820152601660248201527f496e73756666696369656e7420617070726f76616c7300000000000000000000604482015260640161118a565b610130805461012d546001600160a01b039081166001600160a01b03198316811790935516906126aa816135ac565b61012d80546001600160a01b031916905560005b8481101561272757600061012f600061012e84815481106126e1576126e16142da565b6000918252602080832091909101546001600160a01b031683528201929092526040019020805460ff19169115159190911790558061271f816142f0565b9150506126be565b50806001600160a01b0316826001600160a01b03167f8be0079c531659141344cd1fd0a4f28419497f9722a3daafe3b4186f6b6457e060405160405180910390a35050505050565b612777612d8c565b61013155565b612785612d8c565b61014380546001600160a01b039092166001600160a01b031990921682179055600090815261013660205260409020805460ff19166001179055565b6127c9612d8c565b61013855565b61012e81815481106127e057600080fd5b6000918252602090912001546001600160a01b0316905081565b612802612d8c565b6001600160a01b0316600090815261013660205260409020805460ff19169055565b61282c612d8c565b6001600160a01b0316600090815261014060205260409020805460ff19166001179055565b612859612d8c565b600061013855565b612869612d8c565b61013c805460ff1916911515919091179055565b612885612d8c565b60405162461bcd60e51b815260206004820152602760248201527f506c656173652043616c6c2046696e616c697a65205472616e73666572204f7760448201527f6e65727368697000000000000000000000000000000000000000000000000000606482015260840161118a565b600054610100900460ff16158080156129135750600054600160ff909116105b8061292d5750303b15801561292d575060005460ff166001145b61299f5760405162461bcd60e51b815260206004820152602e60248201527f496e697469616c697a61626c653a20636f6e747261637420697320616c72656160448201527f647920696e697469616c697a6564000000000000000000000000000000000000606482015260840161118a565b6000805460ff1916600117905580156129c2576000805461ff0019166101001790555b61013080546001600160a01b031916331790556129df8787613639565b6129e76136ae565b6129ef613719565b6129f761378c565b6129ff6137ff565b61013c805460326101375561138861013855740285e1d847b88056add3823c456ee83d37cdd60a017fffffffffffffffffffffff0000000000000000000000000000000000000000009091161790556107d06101395561012c61013a55610135805461ff00191661010017905560006101315568056bc75e2d631000006101325561013054612aae906001600160a01b0316612a9f60ff8816600a61444c565b612aa990876142a1565b613392565b33600090815261013d60209081526040808320805460ff19908116909155610140835281842080548216600190811790915561013e845282852042905561014380546001600160a01b0319166001600160a01b038a811691909117825530875261013690955283862080548416831790556b033b2e3c9fd0803ce800000061014455549093168452908320805490911690911790555b8251811015612baf5761012e838281518110612b6257612b626142da565b60209081029190910181015182546001810184556000938452919092200180546001600160a01b0319166001600160a01b0390921691909117905580612ba7816142f0565b915050612b44565b508315612be557610130546001600160a01b0316600090815261014560205260409020805460ff19166001908117909155610146555b8015612c2b576000805461ff0019169055604051600181527f7f26b83ff96e1f2b6a682f133852f6798a09c465da95921460cefb38474024989060200160405180910390a15b50505050505050565b6001600160a01b038316612caf5760405162461bcd60e51b8152602060048201526024808201527f45524332303a20617070726f76652066726f6d20746865207a65726f2061646460448201527f7265737300000000000000000000000000000000000000000000000000000000606482015260840161118a565b6001600160a01b038216612d2b5760405162461bcd60e51b815260206004820152602260248201527f45524332303a20617070726f766520746f20746865207a65726f20616464726560448201527f7373000000000000000000000000000000000000000000000000000000000000606482015260840161118a565b6001600160a01b0383811660008181526034602090815260408083209487168084529482529182902085905590518481527f8c5be1e5ebec7d5bd14f71427d1e84f3dd0314c0f7b2291e5b200ac8c7c3b925910160405180910390a3505050565b6097546001600160a01b031633146118815760405162461bcd60e51b815260206004820181905260248201527f4f776e61626c653a2063616c6c6572206973206e6f7420746865206f776e6572604482015260640161118a565b600260fb5403612e385760405162461bcd60e51b815260206004820152601f60248201527f5265656e7472616e637947756172643a207265656e7472616e742063616c6c00604482015260640161118a565b600260fb55565b6001600160a01b038381166000908152603460209081526040808320938616835292905220546000198114612ecb5781811015612ebe5760405162461bcd60e51b815260206004820152601d60248201527f45524332303a20696e73756666696369656e7420616c6c6f77616e6365000000604482015260640161118a565b612ecb8484848403612c34565b50505050565b80612ef1846001600160a01b031660009081526033602052604090205490565b03612f2b576001600160a01b038316600090815261014560205260409020805460ff1916905561014654612f2690600161354d565b610146555b6001600160a01b03821660009081526033602052604090205460000361201e576001600160a01b038216600090815261014560205260409020805460ff1916600190811790915561014654612f7f9161332d565b61014655505050565b6001600160a01b038316600090815261014060205260409020548390829060ff1661305357610131548110156130005760405162461bcd60e51b815260206004820152601460248201527f416d6f756e742062656c6f77206d696e696d756d000000000000000000000000604482015260640161118a565b610132548111156130535760405162461bcd60e51b815260206004820152601660248201527f416d6f756e742065786365656473206d6178696d756d00000000000000000000604482015260640161118a565b6001600160a01b038516600090815261013d602052604090205460ff16156130bd5760405162461bcd60e51b815260206004820152601e60248201527f53656e64657227732077616c6c657420697320626c61636b6c69737465640000604482015260640161118a565b6001600160a01b0385166131215760405162461bcd60e51b815260206004820152602560248201527f45524332303a207472616e736665722066726f6d20746865207a65726f206164604482015264647265737360d81b606482015260840161118a565b6001600160a01b0384166131835760405162461bcd60e51b815260206004820152602360248201527f45524332303a207472616e7366657220746f20746865207a65726f206164647260448201526265737360e81b606482015260840161118a565b600083116131f95760405162461bcd60e51b815260206004820152602960248201527f5472616e7366657220616d6f756e74206d75737420626520677265617465722060448201527f7468616e207a65726f0000000000000000000000000000000000000000000000606482015260840161118a565b6001600160a01b03851660009081526101366020526040902054839060ff168061323c57506001600160a01b0385166000908152610136602052604090205460ff165b156132525761324c868686613872565b50611bef565b61013554610100900460ff161561329b576000612710610137548361327791906142a1565b61328191906142b8565b905061328d87826133f9565b613297818661428e565b9450505b61013c5460ff161561330b57600061271082610139546132bb91906142a1565b6132c591906142b8565b610130549091506132e19088906001600160a01b031683613872565b61271082610139546132f391906142a1565b6132fd91906142b8565b613307908661428e565b9450505b6133136110b3565b61331e868686613872565b505050505050565b600160fb55565b60006133398284614309565b9392505050565b613348613a34565b60c9805460ff191690557f5db9ee0a495bf2e6ff9c91a7834c1ba4fdd244a5e8aa4e537bd38aeae4b073aa335b6040516001600160a01b03909116815260200160405180910390a1565b61339c8282613a86565b6001600160a01b0382166000908152610145602052604090205460ff1661173f576001600160a01b038216600090815261014560205260409020805460ff19166001908117909155610146546133f19161332d565b610146555050565b6134038282613b47565b6001600160a01b03821660009081526033602052604090205460000361173f576001600160a01b038216600090815261014560205260409020805460ff19169055610146546133f190600161354d565b609780546001600160a01b038381166001600160a01b0319831681179093556040519116919082907f8be0079c531659141344cd1fd0a4f28419497f9722a3daafe3b4186f6b6457e090600090a35050565b6000805b61012e5481101561350757826001600160a01b031661012e82815481106134d2576134d26142da565b6000918252602090912001546001600160a01b0316036134f55750600192915050565b806134ff816142f0565b9150506134a9565b50600092915050565b613518613559565b60c9805460ff191660011790557f62e78cea01bee320cd4e420270b5ea74000d11b0c9f74754ebdbfc544b05a2586133753390565b6000613339828461428e565b60c95460ff16156118815760405162461bcd60e51b815260206004820152601060248201527f5061757361626c653a2070617573656400000000000000000000000000000000604482015260640161118a565b6135b4612d8c565b6001600160a01b0381166136305760405162461bcd60e51b815260206004820152602660248201527f4f776e61626c653a206e6577206f776e657220697320746865207a65726f206160448201527f6464726573730000000000000000000000000000000000000000000000000000606482015260840161118a565b61112d81613453565b600054610100900460ff166136a45760405162461bcd60e51b815260206004820152602b60248201527f496e697469616c697a61626c653a20636f6e7472616374206973206e6f74206960448201526a6e697469616c697a696e6760a81b606482015260840161118a565b61173f8282613cb2565b600054610100900460ff166118815760405162461bcd60e51b815260206004820152602b60248201527f496e697469616c697a61626c653a20636f6e7472616374206973206e6f74206960448201526a6e697469616c697a696e6760a81b606482015260840161118a565b600054610100900460ff166137845760405162461bcd60e51b815260206004820152602b60248201527f496e697469616c697a61626c653a20636f6e7472616374206973206e6f74206960448201526a6e697469616c697a696e6760a81b606482015260840161118a565b611881613d36565b600054610100900460ff166137f75760405162461bcd60e51b815260206004820152602b60248201527f496e697469616c697a61626c653a20636f6e7472616374206973206e6f74206960448201526a6e697469616c697a696e6760a81b606482015260840161118a565b611881613daa565b600054610100900460ff1661386a5760405162461bcd60e51b815260206004820152602b60248201527f496e697469616c697a61626c653a20636f6e7472616374206973206e6f74206960448201526a6e697469616c697a696e6760a81b606482015260840161118a565b611881613e21565b6001600160a01b0383166138d65760405162461bcd60e51b815260206004820152602560248201527f45524332303a207472616e736665722066726f6d20746865207a65726f206164604482015264647265737360d81b606482015260840161118a565b6001600160a01b0382166139385760405162461bcd60e51b815260206004820152602360248201527f45524332303a207472616e7366657220746f20746865207a65726f206164647260448201526265737360e81b606482015260840161118a565b6001600160a01b038316600090815260336020526040902054818110156139c75760405162461bcd60e51b815260206004820152602660248201527f45524332303a207472616e7366657220616d6f756e742065786365656473206260448201527f616c616e63650000000000000000000000000000000000000000000000000000606482015260840161118a565b6001600160a01b0380851660008181526033602052604080822086860390559286168082529083902080548601905591517fddf252ad1be2c89b69c2b068fc378daa952ba7f163c4a11628f55a4df523b3ef90613a279086815260200190565b60405180910390a3612ecb565b60c95460ff166118815760405162461bcd60e51b815260206004820152601460248201527f5061757361626c653a206e6f7420706175736564000000000000000000000000604482015260640161118a565b6001600160a01b038216613adc5760405162461bcd60e51b815260206004820152601f60248201527f45524332303a206d696e7420746f20746865207a65726f206164647265737300604482015260640161118a565b8060356000828254613aee9190614309565b90915550506001600160a01b0382166000818152603360209081526040808320805486019055518481527fddf252ad1be2c89b69c2b068fc378daa952ba7f163c4a11628f55a4df523b3ef910160405180910390a35050565b6001600160a01b038216613bc35760405162461bcd60e51b815260206004820152602160248201527f45524332303a206275726e2066726f6d20746865207a65726f2061646472657360448201527f7300000000000000000000000000000000000000000000000000000000000000606482015260840161118a565b6001600160a01b03821660009081526033602052604090205481811015613c525760405162461bcd60e51b815260206004820152602260248201527f45524332303a206275726e20616d6f756e7420657863656564732062616c616e60448201527f6365000000000000000000000000000000000000000000000000000000000000606482015260840161118a565b6001600160a01b03831660008181526033602090815260408083208686039055603580548790039055518581529192917fddf252ad1be2c89b69c2b068fc378daa952ba7f163c4a11628f55a4df523b3ef910160405180910390a3505050565b600054610100900460ff16613d1d5760405162461bcd60e51b815260206004820152602b60248201527f496e697469616c697a61626c653a20636f6e7472616374206973206e6f74206960448201526a6e697469616c697a696e6760a81b606482015260840161118a565b6036613d29838261449e565b50603761201e828261449e565b600054610100900460ff16613da15760405162461bcd60e51b815260206004820152602b60248201527f496e697469616c697a61626c653a20636f6e7472616374206973206e6f74206960448201526a6e697469616c697a696e6760a81b606482015260840161118a565b61188133613453565b600054610100900460ff16613e155760405162461bcd60e51b815260206004820152602b60248201527f496e697469616c697a61626c653a20636f6e7472616374206973206e6f74206960448201526a6e697469616c697a696e6760a81b606482015260840161118a565b60c9805460ff19169055565b600054610100900460ff166133265760405162461bcd60e51b815260206004820152602b60248201527f496e697469616c697a61626c653a20636f6e7472616374206973206e6f74206960448201526a6e697469616c697a696e6760a81b606482015260840161118a565b600060208083528351808285015260005b81811015613eb957858101830151858201604001528201613e9d565b506000604082860101526040601f19601f8301168501019250505092915050565b6001600160a01b038116811461112d57600080fd5b8035613efa81613eda565b919050565b60008060408385031215613f1257600080fd5b8235613f1d81613eda565b946020939093013593505050565b600060208284031215613f3d57600080fd5b813561333981613eda565b600080600060608486031215613f5d57600080fd5b8335613f6881613eda565b92506020840135613f7881613eda565b929592945050506040919091013590565b60008060008060808587031215613f9f57600080fd5b8435613faa81613eda565b966020860135965060408601359560600135945092505050565b600060208284031215613fd657600080fd5b5035919050565b801515811461112d57600080fd5b600060208284031215613ffd57600080fd5b813561333981613fdd565b6000806040838503121561401b57600080fd5b823561402681613eda565b9150602083013561403681613eda565b809150509250929050565b634e487b7160e01b600052604160045260246000fd5b604051601f8201601f1916810167ffffffffffffffff8111828210171561408057614080614041565b604052919050565b600082601f83011261409957600080fd5b813567ffffffffffffffff8111156140b3576140b3614041565b6140c6601f8201601f1916602001614057565b8181528460208386010111156140db57600080fd5b816020850160208301376000918101602001919091529392505050565b600082601f83011261410957600080fd5b8135602067ffffffffffffffff82111561412557614125614041565b8160051b614134828201614057565b928352848101820192828101908785111561414e57600080fd5b83870192505b8483101561417657823561416781613eda565b82529183019190830190614154565b979650505050505050565b60008060008060008060c0878903121561419a57600080fd5b863567ffffffffffffffff808211156141b257600080fd5b6141be8a838b01614088565b975060208901359150808211156141d457600080fd5b6141e08a838b01614088565b96506040890135915060ff821682146141f857600080fd5b8195506060890135945061420e60808a01613eef565b935060a089013591508082111561422457600080fd5b5061423189828a016140f8565b9150509295509295509295565b600181811c9082168061425257607f821691505b60208210810361427257634e487b7160e01b600052602260045260246000fd5b50919050565b634e487b7160e01b600052601160045260246000fd5b818103818111156110ad576110ad614278565b80820281158282048414176110ad576110ad614278565b6000826142d557634e487b7160e01b600052601260045260246000fd5b500490565b634e487b7160e01b600052603260045260246000fd5b60006001820161430257614302614278565b5060010190565b808201808211156110ad576110ad614278565b634e487b7160e01b600052603160045260246000fd5b60006020828403121561434457600080fd5b5051919050565b60006020828403121561435d57600080fd5b815161333981613fdd565b600181815b808511156143a357816000190482111561438957614389614278565b8085161561439657918102915b93841c939080029061436d565b509250929050565b6000826143ba575060016110ad565b816143c7575060006110ad565b81600181146143dd57600281146143e757614403565b60019150506110ad565b60ff8411156143f8576143f8614278565b50506001821b6110ad565b5060208310610133831016604e8410600b8410161715614426575081810a6110ad565b6144308383614368565b806000190482111561444457614444614278565b029392505050565b600061333983836143ab565b601f82111561201e57600081815260208120601f850160051c8101602086101561447f5750805b601f850160051c820191505b8181101561331e5782815560010161448b565b815167ffffffffffffffff8111156144b8576144b8614041565b6144cc816144c6845461423e565b84614458565b602080601f83116001811461450157600084156144e95750858301515b600019600386901b1c1916600185901b17855561331e565b600085815260208120601f198616915b8281101561453057888601518255948401946001909101908401614511565b508582101561454e5787850151600019600388901b60f8161c191681555b5050505050600190811b0190555056fea2646970667358221220c37cf03f1bdfbed7927e9720fad6887523dfb5f80a4f79ee40692c9611bd8cac64736f6c63430008130033",
  "linkReferences": {},
  "deployedLinkReferences": {}
}