{"contracts/cgateStaking.sol":{"StakingPoolV3":{"abi":[{"anonymous":false,"inputs":[{"indexed":false,"internalType":"uint8","name":"version","type":"uint8"}],"name":"Initialized","type":"event"},{"anonymous":false,"inputs":[{"indexed":true,"internalType":"address","name":"newOwner","type":"address"}],"name":"OwnershipTransferProposed","type":"event"},{"anonymous":false,"inputs":[{"indexed":true,"internalType":"address","name":"voter","type":"address"},{"indexed":false,"internalType":"bool","name":"approve","type":"bool"}],"name":"VoteCasted","type":"event"},{"inputs":[],"name":"CG8_TOKEN_ADDRESS","outputs":[{"internalType":"address","name":"","type":"address"}],"stateMutability":"view","type":"function"},{"inputs":[],"name":"PANCAKE_FACTORY_ADDRESS","outputs":[{"internalType":"address","name":"","type":"address"}],"stateMutability":"view","type":"function"},{"inputs":[],"name":"PANCAKE_ROUTER_ADDRESS","outputs":[{"internalType":"address","name":"","type":"address"}],"stateMutability":"view","type":"function"},{"inputs":[],"name":"USDC_TOKEN_ADDRESS","outputs":[{"internalType":"address","name":"","type":"address"}],"stateMutability":"view","type":"function"},{"inputs":[],"name":"admin","outputs":[{"internalType":"address","name":"","type":"address"}],"stateMutability":"view","type":"function"},{"inputs":[],"name":"cancelOwnershipTransfer","outputs":[],"stateMutability":"nonpayable","type":"function"},{"inputs":[{"internalType":"bool","name":"approve","type":"bool"}],"name":"castVote","outputs":[],"stateMutability":"nonpayable","type":"function"},{"inputs":[{"internalType":"uint256","name":"poolId","type":"uint256"},{"internalType":"uint256","name":"stakeId","type":"uint256"}],"name":"claimIndividualReward","outputs":[{"internalType":"uint256","name":"","type":"uint256"}],"stateMutability":"nonpayable","type":"function"},{"inputs":[{"internalType":"uint256","name":"poolId","type":"uint256"}],"name":"claimReward","outputs":[],"stateMutability":"nonpayable","type":"function"},{"inputs":[{"internalType":"uint256","name":"_timePeriod","type":"uint256"},{"internalType":"address","name":"_stakeToken","type":"address"},{"internalType":"address","name":"_rewardToken","type":"address"},{"internalType":"uint256","name":"_rewardPercent","type":"uint256"},{"internalType":"uint256","name":"_referralRewardPercent","type":"uint256"}],"name":"createStakingPool","outputs":[],"stateMutability":"nonpayable","type":"function"},{"inputs":[],"name":"finalizeOwnershipTransfer","outputs":[],"stateMutability":"nonpayable","type":"function"},{"inputs":[],"name":"getCurrentCgatePrice","outputs":[{"internalType":"uint256","name":"","type":"uint256"}],"stateMutability":"view","type":"function"},{"inputs":[{"internalType":"address","name":"tokenA","type":"address"},{"internalType":"address","name":"tokenB","type":"address"}],"name":"getPair","outputs":[{"internalType":"address","name":"","type":"address"}],"stateMutability":"view","type":"function"},{"inputs":[{"internalType":"uint256","name":"poolId","type":"uint256"},{"internalType":"uint256","name":"stakeId","type":"uint256"},{"internalType":"address","name":"user","type":"address"}],"name":"getPendingReward","outputs":[{"internalType":"uint256","name":"","type":"uint256"}],"stateMutability":"view","type":"function"},{"inputs":[],"name":"getPrice","outputs":[{"internalType":"uint256","name":"","type":"uint256"}],"stateMutability":"view","type":"function"},{"inputs":[],"name":"getPriceInverse","outputs":[{"internalType":"uint256","name":"","type":"uint256"}],"stateMutability":"view","type":"function"},{"inputs":[{"internalType":"address","name":"user","type":"address"},{"internalType":"uint256","name":"poolId","type":"uint256"}],"name":"getReferrals","outputs":[{"internalType":"address[]","name":"","type":"address[]"}],"stateMutability":"view","type":"function"},{"inputs":[{"internalType":"address","name":"pair","type":"address"}],"name":"getReserves","outputs":[{"internalType":"uint112","name":"reserve0","type":"uint112"},{"internalType":"uint112","name":"reserve1","type":"uint112"}],"stateMutability":"view","type":"function"},{"inputs":[{"internalType":"uint256","name":"poolId","type":"uint256"},{"internalType":"address","name":"user","type":"address"}],"name":"getTotalPendingRewardsForPool","outputs":[{"internalType":"uint256","name":"","type":"uint256"}],"stateMutability":"view","type":"function"},{"inputs":[],"name":"getTotalPoolsCount","outputs":[{"internalType":"uint256","name":"","type":"uint256"}],"stateMutability":"view","type":"function"},{"inputs":[{"internalType":"address","name":"user","type":"address"},{"internalType":"address","name":"referrer","type":"address"}],"name":"getTotalReferralRewardByReferrer","outputs":[{"internalType":"uint256","name":"","type":"uint256"}],"stateMutability":"view","type":"function"},{"inputs":[{"internalType":"address","name":"user","type":"address"}],"name":"getTotalReferralRewards","outputs":[{"internalType":"uint256","name":"","type":"uint256"}],"stateMutability":"view","type":"function"},{"inputs":[{"internalType":"address","name":"","type":"address"}],"name":"hasVoted","outputs":[{"internalType":"bool","name":"","type":"bool"}],"stateMutability":"view","type":"function"},{"inputs":[{"internalType":"address[]","name":"_initialVoters","type":"address[]"}],"name":"initialize","outputs":[],"stateMutability":"nonpayable","type":"function"},{"inputs":[{"internalType":"address","name":"","type":"address"}],"name":"isReferrer","outputs":[{"internalType":"bool","name":"","type":"bool"}],"stateMutability":"view","type":"function"},{"inputs":[],"name":"poolAddress","outputs":[{"internalType":"address","name":"","type":"address"}],"stateMutability":"view","type":"function"},{"inputs":[{"internalType":"address","name":"","type":"address"},{"internalType":"uint256","name":"","type":"uint256"}],"name":"poolReferrers","outputs":[{"internalType":"address","name":"","type":"address"}],"stateMutability":"view","type":"function"},{"inputs":[{"internalType":"uint256","name":"","type":"uint256"}],"name":"pools","outputs":[{"internalType":"uint256","name":"timePeriod","type":"uint256"},{"internalType":"address","name":"stakeToken","type":"address"},{"internalType":"address","name":"rewardToken","type":"address"},{"internalType":"uint256","name":"rewardPercentPerStakedTokenPerYear","type":"uint256"},{"internalType":"uint256","name":"referralRewardPercent","type":"uint256"},{"internalType":"bool","name":"isActive","type":"bool"},{"internalType":"uint256","name":"totalStakes","type":"uint256"}],"stateMutability":"view","type":"function"},{"inputs":[{"internalType":"address","name":"newOwner","type":"address"}],"name":"proposeOwnershipTransfer","outputs":[],"stateMutability":"nonpayable","type":"function"},{"inputs":[],"name":"proposedOwner","outputs":[{"internalType":"address","name":"","type":"address"}],"stateMutability":"view","type":"function"},{"inputs":[{"internalType":"address","name":"","type":"address"},{"internalType":"uint256","name":"","type":"uint256"},{"internalType":"uint256","name":"","type":"uint256"}],"name":"referrals","outputs":[{"internalType":"address","name":"","type":"address"}],"stateMutability":"view","type":"function"},{"inputs":[{"internalType":"address","name":"","type":"address"},{"internalType":"address","name":"","type":"address"},{"internalType":"uint256","name":"","type":"uint256"}],"name":"referrerRewards","outputs":[{"internalType":"uint256","name":"","type":"uint256"}],"stateMutability":"view","type":"function"},{"inputs":[{"internalType":"address","name":"","type":"address"}],"name":"referrers","outputs":[{"internalType":"address","name":"","type":"address"}],"stateMutability":"view","type":"function"},{"inputs":[{"internalType":"address","name":"newAdmin","type":"address"}],"name":"setAdmin","outputs":[],"stateMutability":"nonpayable","type":"function"},{"inputs":[{"internalType":"address","name":"_cg8Address","type":"address"}],"name":"setCg8Address","outputs":[],"stateMutability":"nonpayable","type":"function"},{"inputs":[{"internalType":"address","name":"_factory","type":"address"}],"name":"setFactory","outputs":[],"stateMutability":"nonpayable","type":"function"},{"inputs":[{"internalType":"address","name":"_poolAddress","type":"address"}],"name":"setPoolAddress","outputs":[],"stateMutability":"nonpayable","type":"function"},{"inputs":[{"internalType":"uint256","name":"poolId","type":"uint256"},{"internalType":"uint256","name":"newPercentInBIPS","type":"uint256"}],"name":"setReferralRewardPercent","outputs":[],"stateMutability":"nonpayable","type":"function"},{"inputs":[{"internalType":"uint256","name":"poolId","type":"uint256"},{"internalType":"uint256","name":"_newRewardPercentInBIPS","type":"uint256"}],"name":"setRewardPercent","outputs":[],"stateMutability":"nonpayable","type":"function"},{"inputs":[{"internalType":"uint256","name":"poolId","type":"uint256"},{"internalType":"address","name":"_newRewardToken","type":"address"}],"name":"setRewardToken","outputs":[],"stateMutability":"nonpayable","type":"function"},{"inputs":[{"internalType":"address","name":"_router","type":"address"}],"name":"setRouter","outputs":[],"stateMutability":"nonpayable","type":"function"},{"inputs":[{"internalType":"address","name":"_referrer","type":"address"},{"internalType":"uint256","name":"_percentInBIPS","type":"uint256"}],"name":"setSpecialReferrerRewardPercent","outputs":[],"stateMutability":"nonpayable","type":"function"},{"inputs":[{"internalType":"uint256","name":"poolId","type":"uint256"},{"internalType":"uint256","name":"_newTimePeriod","type":"uint256"}],"name":"setTimePeriod","outputs":[],"stateMutability":"nonpayable","type":"function"},{"inputs":[{"internalType":"address","name":"_usdcAddress","type":"address"}],"name":"setUSDCAddress","outputs":[],"stateMutability":"nonpayable","type":"function"},{"inputs":[{"internalType":"address","name":"","type":"address"}],"name":"signers","outputs":[{"internalType":"bool","name":"","type":"bool"}],"stateMutability":"view","type":"function"},{"inputs":[{"internalType":"address","name":"","type":"address"}],"name":"specialReferrersPercents","outputs":[{"internalType":"uint256","name":"","type":"uint256"}],"stateMutability":"view","type":"function"},{"inputs":[{"internalType":"uint256","name":"poolId","type":"uint256"},{"internalType":"uint256","name":"_amount","type":"uint256"},{"internalType":"address","name":"referrer","type":"address"}],"name":"stake","outputs":[],"stateMutability":"nonpayable","type":"function"},{"inputs":[{"internalType":"uint256","name":"poolId","type":"uint256"}],"name":"togglePoolStatus","outputs":[],"stateMutability":"nonpayable","type":"function"},{"inputs":[{"internalType":"address","name":"user","type":"address"},{"internalType":"uint256","name":"poolId","type":"uint256"}],"name":"totalStakeCount","outputs":[{"internalType":"uint256","name":"count","type":"uint256"}],"stateMutability":"view","type":"function"},{"inputs":[{"internalType":"address","name":"user","type":"address"},{"internalType":"uint256","name":"poolId","type":"uint256"}],"name":"totalUnstakeAllowed","outputs":[{"internalType":"uint256","name":"totalWithdrawable","type":"uint256"}],"stateMutability":"view","type":"function"},{"inputs":[{"internalType":"uint256","name":"poolId","type":"uint256"}],"name":"unStake","outputs":[],"stateMutability":"nonpayable","type":"function"},{"inputs":[{"internalType":"uint256","name":"poolId","type":"uint256"},{"internalType":"uint256","name":"_stakeId","type":"uint256"}],"name":"unStakeIndividual","outputs":[],"stateMutability":"nonpayable","type":"function"},{"inputs":[{"internalType":"uint256","name":"newPrice","type":"uint256"}],"name":"updateCurrentCgatePrice","outputs":[],"stateMutability":"nonpayable","type":"function"},{"inputs":[{"internalType":"address","name":"","type":"address"},{"internalType":"uint256","name":"","type":"uint256"},{"internalType":"uint256","name":"","type":"uint256"}],"name":"userStakes","outputs":[{"internalType":"uint256","name":"amount","type":"uint256"},{"internalType":"uint256","name":"lastWithdrawTimestamp","type":"uint256"},{"internalType":"uint256","name":"rewardWithdrawnTillNow","type":"uint256"},{"internalType":"uint256","name":"stakeTime","type":"uint256"},{"internalType":"address","name":"referrer","type":"address"},{"internalType":"uint256","name":"depositedValueInDollars","type":"uint256"}],"stateMutability":"view","type":"function"},{"inputs":[{"internalType":"address","name":"","type":"address"}],"name":"users","outputs":[{"internalType":"uint256","name":"totalStaked","type":"uint256"},{"internalType":"uint256","name":"activeStakes","type":"uint256"},{"internalType":"uint256","name":"totalRewardWithdrawnTillNow","type":"uint256"},{"internalType":"uint256","name":"referralIncomeWithdrawnTillNow","type":"uint256"},{"internalType":"uint256","name":"totalReferrers","type":"uint256"}],"stateMutability":"view","type":"function"},{"inputs":[{"internalType":"address","name":"","type":"address"},{"internalType":"uint256","name":"","type":"uint256"}],"name":"usersStakesPerPool","outputs":[{"internalType":"uint256","name":"","type":"uint256"}],"stateMutability":"view","type":"function"},{"inputs":[{"internalType":"uint256","name":"","type":"uint256"}],"name":"voters","outputs":[{"internalType":"address","name":"","type":"address"}],"stateMutability":"view","type":"function"},{"inputs":[{"internalType":"address","name":"receiver","type":"address"},{"internalType":"contract IERC20","name":"_token","type":"address"}],"name":"withdrawDumpToken","outputs":[],"stateMutability":"nonpayable","type":"function"},{"inputs":[{"internalType":"address payable","name":"_receiver","type":"address"}],"name":"withdrawEth","outputs":[],"stateMutability":"nonpayable","type":"function"}],"evm":{"bytecode":{"linkReferences":{},"object":"608060405234801561001057600080fd5b506141d3806100206000396000f3fe608060405234801561001057600080fd5b50600436106103995760003560e01c806398d5fdca116101e9578063c0d786551161010f578063dbe4a261116100ad578063f43434391161007c578063f4343439146109aa578063f851a440146109b2578063fa8f683e146109c5578063fb58d2cf146109fb57600080fd5b8063dbe4a26114610951578063e6a4390514610964578063e7ee123314610977578063e9e15b4f1461099757600080fd5b8063c79bdb46116100e9578063c79bdb46146108f5578063d153b60c14610908578063d64d69681461091b578063da58c7d91461093e57600080fd5b8063c0d78655146108bc578063c114fcfa146108cf578063c57830cd146108e257600080fd5b8063ae169a5011610187578063bdd13d4a11610156578063bdd13d4a1461087b578063bf2ce8081461088e578063bf41c2a4146108a1578063c01b35a1146108a957600080fd5b8063ae169a5014610817578063b3d673d81461082a578063b401cdca1461083d578063b820a1cd1461086857600080fd5b8063a224cee7116101c3578063a224cee7146106ee578063a87430ba14610701578063aaf5bfc314610766578063ac4afa381461077957600080fd5b806398d5fdca146106c057806399672158146106c85780639dda7fee146106db57600080fd5b8063509173a1116102ce578063704b6c021161026c5780637ade26421161023b5780637ade26421461068a5780637b542a2a14610692578063855c5d46146106a55780638cd05ecb146106ad57600080fd5b8063704b6c021461062e578063736c0d5b146106415780637628a37d146106645780637ace48e71461067757600080fd5b80635bb47808116102a85780635bb47808146105c15780635d3eea91146105d4578063686e9222146105e75780636b38e0491461061b57600080fd5b8063509173a11461058857806353a640911461059b57806357a8773e146105ae57600080fd5b806328ac7c511161033b57806334144b0f1161031557806334144b0f146104ab5780633e99c1e4146104f45780634a3b68cc1461052e5780634ae77bcf1461055757600080fd5b806328ac7c511461045757806329a166161461046a57806332a00d8e1461048b57600080fd5b806321040fc31161037757806321040fc314610416578063216b31c11461042957806323452b9c1461043c57806325e160631461044457600080fd5b8063047ac00e1461039e57806309eef43e146103b35780631755ff21146103eb575b600080fd5b6103b16103ac366004613bc0565b610a0e565b005b6103d66103c1366004613bf7565b60396020526000908152604090205460ff1681565b60405190151581526020015b60405180910390f35b6045546103fe906001600160a01b031681565b6040516001600160a01b0390911681526020016103e2565b6103b1610424366004613bf7565b610cc9565b6103b1610437366004613c14565b610dbb565b6103b1610e72565b6103b1610452366004613bf7565b610f43565b603a546103fe906001600160a01b031681565b61047d610478366004613c2d565b611032565b6040519081526020016103e2565b61049e610499366004613c66565b6111f3565b6040516103e29190613c92565b6104be6104b9366004613cdf565b611273565b6040805196875260208701959095529385019290925260608401526001600160a01b0316608083015260a082015260c0016103e2565b610507610502366004613bf7565b6112dd565b604080516dffffffffffffffffffffffffffff9384168152929091166020830152016103e2565b6103fe61053c366004613bf7565b6040602081905260009182529020546001600160a01b031681565b61047d610565366004613d14565b604760209081526000938452604080852082529284528284209052825290205481565b603d546103fe906001600160a01b031681565b61047d6105a9366004613d55565b611352565b6103b16105bc366004613bf7565b6113b5565b6103b16105cf366004613bf7565b611429565b6103b16105e2366004613c14565b61149d565b6103fe6105f5366004613c66565b60486020908152600092835260408084209091529082529020546001600160a01b031681565b61047d610629366004613bc0565b61178b565b6103b161063c366004613bf7565b611b7e565b6103d661064f366004613bf7565b60446020526000908152604090205460ff1681565b6103b1610672366004613c2d565b611bf2565b6103b1610685366004613d9c565b6120fb565b61047d612209565b6103b16106a0366004613c14565b61230b565b60345461047d565b61047d6106bb366004613bf7565b612362565b61047d612446565b6103b16106d6366004613d55565b6124f2565b61047d6106e9366004613c66565b61266c565b6103b16106fc366004613e29565b612798565b61073e61070f366004613bf7565b604260205260009081526040902080546001820154600283015460038401546004909401549293919290919085565b604080519586526020860194909452928401919091526060830152608082015260a0016103e2565b6103b1610774366004613bf7565b6129c5565b6107d4610787366004613c14565b603e60205260009081526040902080546001820154600283015460038401546004850154600586015460069096015494956001600160a01b039485169593909416939192909160ff169087565b604080519788526001600160a01b039687166020890152949095169386019390935260608501919091526080840152151560a083015260c082015260e0016103e2565b6103b1610825366004613c14565b612a39565b603c546103fe906001600160a01b031681565b61047d61084b366004613c66565b604360209081526000928352604080842090915290825290205481565b6103b1610876366004613bc0565b612e6b565b6103b1610889366004613edb565b612fba565b6103b161089c366004613bc0565b613131565b6103b1613233565b6103fe6108b7366004613cdf565b6133dd565b6103b16108ca366004613bf7565b613422565b61047d6108dd366004613edb565b613496565b603b546103fe906001600160a01b031681565b6103b1610903366004613bc0565b6134ef565b6037546103fe906001600160a01b031681565b6103d6610929366004613bf7565b60496020526000908152604090205460ff1681565b6103fe61094c366004613c14565b613651565b6103b161095f366004613c66565b61367b565b6103fe610972366004613d55565b6136e9565b61047d610985366004613bf7565b60416020526000908152604090205481565b6103b16109a5366004613bf7565b613784565b61047d6137f8565b6033546103fe906001600160a01b031681565b61047d6109d3366004613c66565b6001600160a01b03919091166000908152603f60209081526040808320938352929052205490565b6103b1610a09366004613f00565b6138cb565b816034548110610a545760405162461bcd60e51b815260206004820152600c60248201526b125b9d985b1a5908141bdbdb60a21b60448201526064015b60405180910390fd5b6000838152603e6020526040902060050154839060ff16610aac5760405162461bcd60e51b8152602060048201526012602482015271506f6f6c204973204e6f742041637469766560701b6044820152606401610a4b565b336000908152603f602090815260408083208784529091528120805485908110610ad857610ad8613f52565b60009182526020808320888452603e909152604090922060069091029091019150805460038301544291610b0b91613f7e565b811015610b5a5760405162461bcd60e51b815260206004820152601660248201527f54696d6520706572696f64206e6f7420706173736564000000000000000000006044820152606401610a4b565b610b64878761178b565b506001838101829055820154835460405163a9059cbb60e01b815233600482015260248101919091526001600160a01b039091169063a9059cbb906044016020604051808303816000875af1158015610bc1573d6000803e3d6000fd5b505050506040513d601f19601f82011682018060405250810190610be59190613fa1565b610c315760405162461bcd60e51b815260206004820152601c60248201527f5374616b656420746f6b656e207472616e73666572206661696c6564000000006044820152606401610a4b565b82543360009081526042602052604081206001018054909190610c55908490613fbe565b909155505082543360009081526043602090815260408083208b845290915281208054909190610c86908490613fbe565b909155505082546000888152603e602052604081206006018054909190610cae908490613fbe565b90915550506000808455600590930192909255505050505050565b6033546001600160a01b03163314610d1b5760405162461bcd60e51b8152602060048201526021602482015260008051602061417e8339815191526044820152603760f91b6064820152608401610a4b565b6001600160a01b038116610d715760405162461bcd60e51b815260206004820181905260248201527f4e6577206f776e65722063616e6e6f74206265207a65726f20616464726573736044820152606401610a4b565b603780546001600160a01b0319166001600160a01b0383169081179091556040517ff0c6916d81cd1f899264b5193e3bbe7afd2bcc3d05704bab73d0b8ac9387115890600090a250565b6033546001600160a01b03163314610e0d5760405162461bcd60e51b8152602060048201526021602482015260008051602061417e8339815191526044820152603760f91b6064820152608401610a4b565b806034548110610e4e5760405162461bcd60e51b815260206004820152600c60248201526b125b9d985b1a5908141bdbdb60a21b6044820152606401610a4b565b506000908152603e60205260409020600501805460ff19811660ff90911615179055565b6033546001600160a01b03163314610ec45760405162461bcd60e51b8152602060048201526021602482015260008051602061417e8339815191526044820152603760f91b6064820152608401610a4b565b603780546001600160a01b031916905560005b603854811015610f405760006039600060388481548110610efa57610efa613f52565b6000918252602080832091909101546001600160a01b031683528201929092526040019020805460ff191691151591909117905580610f3881613fd1565b915050610ed7565b50565b6033546001600160a01b03163314610f955760405162461bcd60e51b8152602060048201526021602482015260008051602061417e8339815191526044820152603760f91b6064820152608401610a4b565b610f9d6139f4565b6001600160a01b038116610ff35760405162461bcd60e51b815260206004820152600f60248201527f496e76616c6964206164647265737300000000000000000000000000000000006044820152606401610a4b565b6040516001600160a01b038216904780156108fc02916000818181858888f19350505050158015611028573d6000803e3d6000fd5b50610f4060018055565b60008360345481106110755760405162461bcd60e51b815260206004820152600c60248201526b125b9d985b1a5908141bdbdb60a21b6044820152606401610a4b565b6000858152603e6020526040902060050154859060ff166110cd5760405162461bcd60e51b8152602060048201526012602482015271506f6f6c204973204e6f742041637469766560701b6044820152606401610a4b565b6001600160a01b0384166000908152603f60209081526040808320898452909152902054851061113f5760405162461bcd60e51b815260206004820152600f60248201527f55736572204e6f74205374616b656400000000000000000000000000000000006044820152606401610a4b565b6001600160a01b0384166000908152603f60209081526040808320898452909152812080548790811061117457611174613f52565b600091825260208083208a8452603e90915260408320600692909202016001810154909350909142916111a79083613fbe565b9050600060355461271085600301548488600501546111c69190613fea565b6111d09190613fea565b6111da9190614001565b6111e49190614001565b9b9a5050505050505050505050565b6001600160a01b038216600090815260466020908152604080832084845282529182902080548351818402810184019094528084526060939283018282801561126557602002820191906000526020600020905b81546001600160a01b03168152600190910190602001808311611247575b505050505090505b92915050565b603f602052826000526040600020602052816000526040600020818154811061129b57600080fd5b60009182526020909120600690910201805460018201546002830154600384015460048501546005909501549397509195509350916001600160a01b03169086565b600080600080846001600160a01b0316630902f1ac6040518163ffffffff1660e01b8152600401606060405180830381865afa158015611321573d6000803e3d6000fd5b505050506040513d601f19601f820116820180604052508101906113459190614055565b5090969095509350505050565b600080805b6034548110156113ad576001600160a01b0380851660009081526047602090815260408083209389168352928152828220848352905220546113999083613f7e565b9150806113a581613fd1565b915050611357565b509392505050565b6033546001600160a01b031633146114075760405162461bcd60e51b8152602060048201526021602482015260008051602061417e8339815191526044820152603760f91b6064820152608401610a4b565b603b80546001600160a01b0319166001600160a01b0392909216919091179055565b6033546001600160a01b0316331461147b5760405162461bcd60e51b8152602060048201526021602482015260008051602061417e8339815191526044820152603760f91b6064820152608401610a4b565b603d80546001600160a01b0319166001600160a01b0392909216919091179055565b8060345481106114de5760405162461bcd60e51b815260206004820152600c60248201526b125b9d985b1a5908141bdbdb60a21b6044820152606401610a4b565b6000828152603e6020526040902060050154829060ff166115365760405162461bcd60e51b8152602060048201526012602482015271506f6f6c204973204e6f742041637469766560701b6044820152606401610a4b565b6000838152603e60205260408120815b336000908152603f6020908152604080832089845290915290205481101561166457336000908152603f60209081526040808320898452909152812080548390811061159457611594613f52565b906000526020600020906006020190506000429050836000015482600301546115bd9190613f7e565b811061164f5781546115cf9086613f7e565b94506115db888461178b565b50600080835560018301829055338152603f602090815260408083208b8452909152902080548490811061161157611611613f52565b6000918252602082206006909102018181556001810182905560028101829055600381018290556004810180546001600160a01b0319169055600501555b5050808061165c90613fd1565b915050611546565b503360009081526042602052604081206001018054849290611687908490613fbe565b9091555050336000908152604360209081526040808320888452909152812080548492906116b6908490613fbe565b9091555050811561178457600181015460405163a9059cbb60e01b8152336004820152602481018490526001600160a01b039091169063a9059cbb906044016020604051808303816000875af1158015611714573d6000803e3d6000fd5b505050506040513d601f19601f820116820180604052508101906117389190613fa1565b6117845760405162461bcd60e51b815260206004820152601c60248201527f5374616b656420746f6b656e207472616e73666572206661696c6564000000006044820152606401610a4b565b5050505050565b60008260345481106117ce5760405162461bcd60e51b815260206004820152600c60248201526b125b9d985b1a5908141bdbdb60a21b6044820152606401610a4b565b6000848152603e6020526040902060050154849060ff166118265760405162461bcd60e51b8152602060048201526012602482015271506f6f6c204973204e6f742041637469766560701b6044820152606401610a4b565b336000908152603f60209081526040808320888452909152812080548690811061185257611852613f52565b60009182526020808320898452603e90915260408320600690920201805490935090910361188557600094505050611b76565b426000611893898933611032565b90508015611b7157600283015460405163a9059cbb60e01b8152336004820152602481018390526001600160a01b039091169063a9059cbb906044016020604051808303816000875af11580156118ee573d6000803e3d6000fd5b505050506040513d601f19601f820116820180604052508101906119129190613fa1565b61195e5760405162461bcd60e51b815260206004820152601660248201527f526577617264207472616e73666572206661696c6564000000000000000000006044820152606401610a4b565b60048401546001600160a01b031615611b2157600480840154908501546001600160a01b0316600090815260416020526040902054156119b7575060048401546001600160a01b03166000908152604160205260409020545b60006127106119c68385613fea565b6119d09190614001565b90508015611aea57600285015460048781015460405163a9059cbb60e01b81526001600160a01b0391821692810192909252602482018490529091169063a9059cbb906044016020604051808303816000875af1158015611a35573d6000803e3d6000fd5b505050506040513d601f19601f82011682018060405250810190611a599190613fa1565b611aa55760405162461bcd60e51b815260206004820152601f60248201527f526566657272616c20526577617264207472616e73666572206661696c6564006044820152606401610a4b565b60048601546001600160a01b0316600090815260476020908152604080832033845282528083208e845290915281208054839290611ae4908490613f7e565b90915550505b60048601546001600160a01b031660009081526042602052604081206003018054839290611b19908490613f7e565b909155505050505b3360009081526042602052604081206002018054839290611b43908490613f7e565b9250508190555080846002016000828254611b5e9190613f7e565b9091555050600190930155509250611b76565b505050505b505092915050565b6033546001600160a01b03163314611bd05760405162461bcd60e51b8152602060048201526021602482015260008051602061417e8339815191526044820152603760f91b6064820152608401610a4b565b603380546001600160a01b0319166001600160a01b0392909216919091179055565b826034548110611c335760405162461bcd60e51b815260206004820152600c60248201526b125b9d985b1a5908141bdbdb60a21b6044820152606401610a4b565b6000848152603e6020526040902060050154849060ff16611c8b5760405162461bcd60e51b8152602060048201526012602482015271506f6f6c204973204e6f742041637469766560701b6044820152606401610a4b565b60008411611cdb5760405162461bcd60e51b815260206004820152601d60248201527f416d6f756e74206d7573742062652067726561746572207468616e20300000006044820152606401610a4b565b6001600160a01b0383163303611d335760405162461bcd60e51b815260206004820152601860248201527f596f752063616e277420726566657220796f757273656c6600000000000000006044820152606401610a4b565b6000858152603e602052604090819020600181015491517f23b872dd0000000000000000000000000000000000000000000000000000000081523360048201523060248201526044810187905290916001600160a01b0316906323b872dd906064016020604051808303816000875af1158015611db4573d6000803e3d6000fd5b505050506040513d601f19601f82011682018060405250810190611dd89190613fa1565b611e245760405162461bcd60e51b815260206004820152601560248201527f546f6b656e207472616e73666572206661696c656400000000000000000000006044820152606401610a4b565b6001600160a01b03841615801590611e5557506001600160a01b03841660009081526049602052604090205460ff16155b15611ea4576001600160a01b0384166000908152604960209081526040808320805460ff1916600190811790915560429092528220600401805491929091611e9e908490613f7e565b90915550505b6001600160a01b03841615611f17573360008181526048602090815260408083208a8452825280832080546001600160a01b038a166001600160a01b03199182168117909255908452604683528184208b8552835290832080546001810182559084529190922001805490911690911790555b336000908152603f602090815260408083208984528252808320815160c081018352898152429381018490529182019390935260608101919091526001600160a01b038616608082015260a08101670de0b6b3a7640000611f766137f8565b611f80908a613fea565b611f8a9190614001565b90528154600180820184556000938452602080852084516006948502909101908155848201519281019290925560408085015160028401556060850151600384015560808501516004840180546001600160a01b0319166001600160a01b0390921691909117905560a090940151600590920191909155898452603e905290822001805487929061201c908490613f7e565b90915550506040805160a081018252336000908152604260205291909120548190612048908890613f7e565b81523360009081526042602090815260409091206001015491019061206e908890613f7e565b815233600081815260426020818152604080842060028101805484890152600382018054848a015260048301805460609a8b015297875294845288518255888401516001909201919091558782015190559486015190915560809094015190915560438352818120898252909252812080548792906120ee908490613f7e565b9091555050505050505050565b61210433613a53565b6121505760405162461bcd60e51b815260206004820152601160248201527f4e6f7420612076616c696420766f7465720000000000000000000000000000006044820152606401610a4b565b3360009081526039602052604090205460ff16156121b05760405162461bcd60e51b815260206004820152600d60248201527f416c726561647920766f746564000000000000000000000000000000000000006044820152606401610a4b565b3360008181526039602052604090819020805460ff19166001179055517fa4861c5510bfa99706ed508d728f9c6b365ff27af1a3012e21980952ad2d844f906121fe90841515815260200190565b60405180910390a250565b603b54603c54600091829161222a916001600160a01b0390811691166136e9565b90506001600160a01b03811661224257600091505090565b60008061224e836112dd565b603a546040517f85f8c259000000000000000000000000000000000000000000000000000000008152670de0b6b3a764000060048201526dffffffffffffffffffffffffffff8084166024830152841660448201529294509092506000916001600160a01b03909116906385f8c25990606401602060405180830381865afa1580156122de573d6000803e3d6000fd5b505050506040513d601f19601f820116820180604052508101906123029190614098565b95945050505050565b6033546001600160a01b0316331461235d5760405162461bcd60e51b8152602060048201526021602482015260008051602061417e8339815191526044820152603760f91b6064820152608401610a4b565b603655565b600080805b60345481101561243f5760005b6001600160a01b038516600090815260466020908152604080832085845290915290205481101561242c576001600160a01b03851660009081526047602090815260408083206046835281842086855290925282208054919291849081106123de576123de613f52565b60009182526020808320909101546001600160a01b0316835282810193909352604091820181208582529092529020546124189084613f7e565b92508061242481613fd1565b915050612374565b508061243781613fd1565b915050612367565b5092915050565b60455460408051633850c7bd60e01b815290516000926001600160a01b03169183918391633850c7bd9160048083019260e09291908290030181865afa158015612494573d6000803e3d6000fd5b505050506040513d601f19601f820116820180604052508101906124b891906140c3565b5190506001600160a01b0381166000600160c01b6124d68380613fea565b6124e890670de0b6b3a7640000613fea565b6123029190614001565b6033546001600160a01b031633146125445760405162461bcd60e51b8152602060048201526021602482015260008051602061417e8339815191526044820152603760f91b6064820152608401610a4b565b61254c6139f4565b6040517f70a082310000000000000000000000000000000000000000000000000000000081523060048201526001600160a01b0382169063a9059cbb90849083906370a0823190602401602060405180830381865afa1580156125b3573d6000803e3d6000fd5b505050506040513d601f19601f820116820180604052508101906125d79190614098565b6040517fffffffff0000000000000000000000000000000000000000000000000000000060e085901b1681526001600160a01b03909216600483015260248201526044016020604051808303816000875af115801561263a573d6000803e3d6000fd5b505050506040513d601f19601f8201168201806040525081019061265e9190613fa1565b5061266860018055565b5050565b6001600160a01b03821660009081526043602090815260408083208484529091528120548190156127915760005b6001600160a01b0385166000908152603f602090815260408083208784529091529020548110156113ad576000848152603e60209081526040808320546001600160a01b0389168452603f83528184208885529092529091208054429291908490811061270957612709613f52565b9060005260206000209060060201600301546127259190613f7e565b1161277f576001600160a01b0385166000908152603f60209081526040808320878452909152902080548290811061275f5761275f613f52565b9060005260206000209060060201600001548261277c9190613f7e565b91505b8061278981613fd1565b91505061269a565b9392505050565b600054610100900460ff16158080156127b85750600054600160ff909116105b806127d25750303b1580156127d2575060005460ff166001145b6128445760405162461bcd60e51b815260206004820152602e60248201527f496e697469616c697a61626c653a20636f6e747261637420697320616c72656160448201527f647920696e697469616c697a65640000000000000000000000000000000000006064820152608401610a4b565b6000805460ff191660011790558015612867576000805461ff0019166101001790555b61286f613abc565b603380546001600160a01b031990811633179091556301e1338060355564e8d4a51000603655603a80548216739ac64cc6e4415144c455bd8e4837fea55603e5c3179055603b80548216739f7b09eb38ed912ab5932dccad0b1f501abfe6fd179055603c8054821673d1fac5ff5d03b70d3383909692d09fc6d97c8219179055603d805490911673b7926c0430afb07aa7defde6da862ae0bde767bc17905560005b825181101561297b57603883828151811061292e5761292e613f52565b60209081029190910181015182546001810184556000938452919092200180546001600160a01b0319166001600160a01b039092169190911790558061297381613fd1565b915050612911565b508015612668576000805461ff0019169055604051600181527f7f26b83ff96e1f2b6a682f133852f6798a09c465da95921460cefb38474024989060200160405180910390a15050565b6033546001600160a01b03163314612a175760405162461bcd60e51b8152602060048201526021602482015260008051602061417e8339815191526044820152603760f91b6064820152608401610a4b565b603c80546001600160a01b0319166001600160a01b0392909216919091179055565b806034548110612a7a5760405162461bcd60e51b815260206004820152600c60248201526b125b9d985b1a5908141bdbdb60a21b6044820152606401610a4b565b612a826139f4565b6000828152603e6020526040902060050154829060ff16612ada5760405162461bcd60e51b8152602060048201526012602482015271506f6f6c204973204e6f742041637469766560701b6044820152606401610a4b565b6000838152603e6020526040812090805b336000908152603f60209081526040808320898452909152902054811015612d9557336000908152603f602090815260408083208984529091528120805483908110612b3957612b39613f52565b90600052602060002090600602019050600081600001541115612d8257426000612b64898533611032565b60048401549091506001600160a01b031615612d2a57600480870154908401546001600160a01b031660009081526041602052604090205415612bc0575060048301546001600160a01b03166000908152604160205260409020545b6000612710612bcf8385613fea565b612bd99190614001565b90508015612d2757600288015460048681015460405163a9059cbb60e01b81526001600160a01b0391821692810192909252602482018490529091169063a9059cbb906044016020604051808303816000875af1158015612c3e573d6000803e3d6000fd5b505050506040513d601f19601f82011682018060405250810190612c629190613fa1565b612cae5760405162461bcd60e51b815260206004820152601f60248201527f526566657272616c20526577617264207472616e73666572206661696c6564006044820152606401610a4b565b60048501546001600160a01b0316600090815260476020908152604080832033845282528083208e845290915281208054839290612ced908490613f7e565b909155505060048501546001600160a01b031660009081526042602052604081206003018054839290612d21908490613f7e565b90915550505b50505b3360009081526042602052604081206002018054839290612d4c908490613f7e565b9250508190555080836002016000828254612d679190613f7e565b909155505060018301829055612d7d8186613f7e565b945050505b5080612d8d81613fd1565b915050612aeb565b508015612e5f57600282015460405163a9059cbb60e01b8152336004820152602481018390526001600160a01b039091169063a9059cbb906044016020604051808303816000875af1158015612def573d6000803e3d6000fd5b505050506040513d601f19601f82011682018060405250810190612e139190613fa1565b612e5f5760405162461bcd60e51b815260206004820152601660248201527f526577617264207472616e73666572206661696c6564000000000000000000006044820152606401610a4b565b50505061266860018055565b6033546001600160a01b03163314612ebd5760405162461bcd60e51b8152602060048201526021602482015260008051602061417e8339815191526044820152603760f91b6064820152608401610a4b565b816034548110612efe5760405162461bcd60e51b815260206004820152600c60248201526b125b9d985b1a5908141bdbdb60a21b6044820152606401610a4b565b6000838152603e6020526040902060050154839060ff16612f565760405162461bcd60e51b8152602060048201526012602482015271506f6f6c204973204e6f742041637469766560701b6044820152606401610a4b565b600084118015612f6857506034548411155b612fa65760405162461bcd60e51b815260206004820152600f60248201526e125b9d985b1a59081c1bdbdb081251608a1b6044820152606401610a4b565b50506000918252603e602052604090912055565b6033546001600160a01b0316331461300c5760405162461bcd60e51b8152602060048201526021602482015260008051602061417e8339815191526044820152603760f91b6064820152608401610a4b565b6130146139f4565b8160345481106130555760405162461bcd60e51b815260206004820152600c60248201526b125b9d985b1a5908141bdbdb60a21b6044820152606401610a4b565b6000838152603e6020526040902060050154839060ff166130ad5760405162461bcd60e51b8152602060048201526012602482015271506f6f6c204973204e6f742041637469766560701b6044820152606401610a4b565b6000841180156130bf57506034548411155b6130fd5760405162461bcd60e51b815260206004820152600f60248201526e125b9d985b1a59081c1bdbdb081251608a1b6044820152606401610a4b565b50506000828152603e6020526040902060020180546001600160a01b0319166001600160a01b038316179055600180555050565b6033546001600160a01b031633146131835760405162461bcd60e51b8152602060048201526021602482015260008051602061417e8339815191526044820152603760f91b6064820152608401610a4b565b8160345481106131c45760405162461bcd60e51b815260206004820152600c60248201526b125b9d985b1a5908141bdbdb60a21b6044820152606401610a4b565b6000838152603e6020526040902060050154839060ff1661321c5760405162461bcd60e51b8152602060048201526012602482015271506f6f6c204973204e6f742041637469766560701b6044820152606401610a4b565b50506000918252603e602052604090912060040155565b6033546001600160a01b031633146132855760405162461bcd60e51b8152602060048201526021602482015260008051602061417e8339815191526044820152603760f91b6064820152608401610a4b565b603854600090815b818110156132f95760396000603883815481106132ac576132ac613f52565b60009182526020808320909101546001600160a01b0316835282019290925260400190205460ff16156132e757826132e381613fd1565b9350505b806132f181613fd1565b91505061328d565b508181148061334a5760405162461bcd60e51b815260206004820152601660248201527f496e73756666696369656e7420617070726f76616c73000000000000000000006044820152606401610a4b565b60378054603380546001600160a01b0383166001600160a01b0319918216811790925590911690915560005b83811015611784576000603960006038848154811061339757613397613f52565b6000918252602080832091909101546001600160a01b031683528201929092526040019020805460ff1916911515919091179055806133d581613fd1565b915050613376565b6046602052826000526040600020602052816000526040600020818154811061340557600080fd5b6000918252602090912001546001600160a01b0316925083915050565b6033546001600160a01b031633146134745760405162461bcd60e51b8152602060048201526021602482015260008051602061417e8339815191526044820152603760f91b6064820152608401610a4b565b603a80546001600160a01b0319166001600160a01b0392909216919091179055565b600080805b6001600160a01b0384166000908152603f602090815260408083208884529091529020548110156113ad576134d1858286611032565b6134db9083613f7e565b9150806134e781613fd1565b91505061349b565b6033546001600160a01b031633146135415760405162461bcd60e51b8152602060048201526021602482015260008051602061417e8339815191526044820152603760f91b6064820152608401610a4b565b6135496139f4565b81603454811061358a5760405162461bcd60e51b815260206004820152600c60248201526b125b9d985b1a5908141bdbdb60a21b6044820152606401610a4b565b6000838152603e6020526040902060050154839060ff166135e25760405162461bcd60e51b8152602060048201526012602482015271506f6f6c204973204e6f742041637469766560701b6044820152606401610a4b565b6000841180156135f457506034548411155b6136325760405162461bcd60e51b815260206004820152600f60248201526e125b9d985b1a59081c1bdbdb081251608a1b6044820152606401610a4b565b50506000828152603e6020526040902060030181905561266860018055565b6038818154811061366157600080fd5b6000918252602090912001546001600160a01b0316905081565b6033546001600160a01b031633146136cd5760405162461bcd60e51b8152602060048201526021602482015260008051602061417e8339815191526044820152603760f91b6064820152608401610a4b565b6001600160a01b03909116600090815260416020526040902055565b603d546040517fe6a439050000000000000000000000000000000000000000000000000000000081526001600160a01b0384811660048301528381166024830152600092839291169063e6a4390590604401602060405180830381865afa158015613758573d6000803e3d6000fd5b505050506040513d601f19601f8201168201806040525081019061377c9190614160565b949350505050565b6033546001600160a01b031633146137d65760405162461bcd60e51b8152602060048201526021602482015260008051602061417e8339815191526044820152603760f91b6064820152608401610a4b565b604580546001600160a01b0319166001600160a01b0392909216919091179055565b60455460408051633850c7bd60e01b815290516000926001600160a01b03169183918391633850c7bd9160048083019260e09291908290030181865afa158015613846573d6000803e3d6000fd5b505050506040513d601f19601f8201168201806040525081019061386a91906140c3565b5190506001600160a01b0381166000600160c01b6138888380613fea565b61389a90670de0b6b3a7640000613fea565b6138a49190614001565b905060006138c1826ec097ce7bc90715b34b9f1000000000614001565b9695505050505050565b6033546001600160a01b0316331461391d5760405162461bcd60e51b8152602060048201526021602482015260008051602061417e8339815191526044820152603760f91b6064820152608401610a4b565b6139256139f4565b6040805160e0810182528681526001600160a01b0380871660208084019182528783168486019081526060850188815260808601888152600160a08801818152600060c08a01818152603480548352603e9098529a812099518a55965191890180549289166001600160a01b031993841617905593516002890180549190981691161790955551600386015592516004850155915160058401805491151560ff1990921691909117905592516006909201919091558054916139e683613fd1565b919050555061178460018055565b600260015403613a465760405162461bcd60e51b815260206004820152601f60248201527f5265656e7472616e637947756172643a207265656e7472616e742063616c6c006044820152606401610a4b565b6002600155565b60018055565b6000805b603854811015613ab357826001600160a01b031660388281548110613a7e57613a7e613f52565b6000918252602090912001546001600160a01b031603613aa15750600192915050565b80613aab81613fd1565b915050613a57565b50600092915050565b600054610100900460ff16613b395760405162461bcd60e51b815260206004820152602b60248201527f496e697469616c697a61626c653a20636f6e7472616374206973206e6f74206960448201527f6e697469616c697a696e670000000000000000000000000000000000000000006064820152608401610a4b565b613b41613b43565b565b600054610100900460ff16613a4d5760405162461bcd60e51b815260206004820152602b60248201527f496e697469616c697a61626c653a20636f6e7472616374206973206e6f74206960448201527f6e697469616c697a696e670000000000000000000000000000000000000000006064820152608401610a4b565b60008060408385031215613bd357600080fd5b50508035926020909101359150565b6001600160a01b0381168114610f4057600080fd5b600060208284031215613c0957600080fd5b813561279181613be2565b600060208284031215613c2657600080fd5b5035919050565b600080600060608486031215613c4257600080fd5b83359250602084013591506040840135613c5b81613be2565b809150509250925092565b60008060408385031215613c7957600080fd5b8235613c8481613be2565b946020939093013593505050565b6020808252825182820181905260009190848201906040850190845b81811015613cd35783516001600160a01b031683529284019291840191600101613cae565b50909695505050505050565b600080600060608486031215613cf457600080fd5b8335613cff81613be2565b95602085013595506040909401359392505050565b600080600060608486031215613d2957600080fd5b8335613d3481613be2565b92506020840135613d4481613be2565b929592945050506040919091013590565b60008060408385031215613d6857600080fd5b8235613d7381613be2565b91506020830135613d8381613be2565b809150509250929050565b8015158114610f4057600080fd5b600060208284031215613dae57600080fd5b813561279181613d8e565b634e487b7160e01b600052604160045260246000fd5b60405160e0810167ffffffffffffffff81118282101715613df257613df2613db9565b60405290565b604051601f8201601f1916810167ffffffffffffffff81118282101715613e2157613e21613db9565b604052919050565b60006020808385031215613e3c57600080fd5b823567ffffffffffffffff80821115613e5457600080fd5b818501915085601f830112613e6857600080fd5b813581811115613e7a57613e7a613db9565b8060051b9150613e8b848301613df8565b8181529183018401918481019088841115613ea557600080fd5b938501935b83851015613ecf5784359250613ebf83613be2565b8282529385019390850190613eaa565b98975050505050505050565b60008060408385031215613eee57600080fd5b823591506020830135613d8381613be2565b600080600080600060a08688031215613f1857600080fd5b853594506020860135613f2a81613be2565b93506040860135613f3a81613be2565b94979396509394606081013594506080013592915050565b634e487b7160e01b600052603260045260246000fd5b634e487b7160e01b600052601160045260246000fd5b8082018082111561126d5761126d613f68565b8051613f9c81613d8e565b919050565b600060208284031215613fb357600080fd5b815161279181613d8e565b8181038181111561126d5761126d613f68565b600060018201613fe357613fe3613f68565b5060010190565b808202811582820484141761126d5761126d613f68565b60008261401e57634e487b7160e01b600052601260045260246000fd5b500490565b80516dffffffffffffffffffffffffffff81168114613f9c57600080fd5b805163ffffffff81168114613f9c57600080fd5b60008060006060848603121561406a57600080fd5b61407384614023565b925061408160208501614023565b915061408f60408501614041565b90509250925092565b6000602082840312156140aa57600080fd5b5051919050565b805161ffff81168114613f9c57600080fd5b600060e082840312156140d557600080fd5b6140dd613dcf565b82516140e881613be2565b81526020830151600281900b81146140ff57600080fd5b6020820152614110604084016140b1565b6040820152614121606084016140b1565b6060820152614132608084016140b1565b608082015261414360a08401614041565b60a082015261415460c08401613f91565b60c08201529392505050565b60006020828403121561417257600080fd5b815161279181613be256fe4f6e6c792061646d696e2063616e2063616c6c20746869732066756e6374696fa2646970667358221220559b7323b818728dc94b99a480e240a691e2696daefc5946b38a920ddf4df05164736f6c63430008130033","opcodes":"PUSH1 0x80 PUSH1 0x40 MSTORE CALLVALUE DUP1 ISZERO PUSH2 0x10 JUMPI PUSH1 0x0 DUP1 REVERT JUMPDEST POP PUSH2 0x41D3 DUP1 PUSH2 0x20 PUSH1 0x0 CODECOPY PUSH1 0x0 RETURN INVALID PUSH1 0x80 PUSH1 0x40 MSTORE CALLVALUE DUP1 ISZERO PUSH2 0x10 JUMPI PUSH1 0x0 DUP1 REVERT JUMPDEST POP PUSH1 0x4 CALLDATASIZE LT PUSH2 0x399 JUMPI PUSH1 0x0 CALLDATALOAD PUSH1 0xE0 SHR DUP1 PUSH4 0x98D5FDCA GT PUSH2 0x1E9 JUMPI DUP1 PUSH4 0xC0D78655 GT PUSH2 0x10F JUMPI DUP1 PUSH4 0xDBE4A261 GT PUSH2 0xAD JUMPI DUP1 PUSH4 0xF4343439 GT PUSH2 0x7C JUMPI DUP1 PUSH4 0xF4343439 EQ PUSH2 0x9AA JUMPI DUP1 PUSH4 0xF851A440 EQ PUSH2 0x9B2 JUMPI DUP1 PUSH4 0xFA8F683E EQ PUSH2 0x9C5 JUMPI DUP1 PUSH4 0xFB58D2CF EQ PUSH2 0x9FB JUMPI PUSH1 0x0 DUP1 REVERT JUMPDEST DUP1 PUSH4 0xDBE4A261 EQ PUSH2 0x951 JUMPI DUP1 PUSH4 0xE6A43905 EQ PUSH2 0x964 JUMPI DUP1 PUSH4 0xE7EE1233 EQ PUSH2 0x977 JUMPI DUP1 PUSH4 0xE9E15B4F EQ PUSH2 0x997 JUMPI PUSH1 0x0 DUP1 REVERT JUMPDEST DUP1 PUSH4 0xC79BDB46 GT PUSH2 0xE9 JUMPI DUP1 PUSH4 0xC79BDB46 EQ PUSH2 0x8F5 JUMPI DUP1 PUSH4 0xD153B60C EQ PUSH2 0x908 JUMPI DUP1 PUSH4 0xD64D6968 EQ PUSH2 0x91B JUMPI DUP1 PUSH4 0xDA58C7D9 EQ PUSH2 0x93E JUMPI PUSH1 0x0 DUP1 REVERT JUMPDEST DUP1 PUSH4 0xC0D78655 EQ PUSH2 0x8BC JUMPI DUP1 PUSH4 0xC114FCFA EQ PUSH2 0x8CF JUMPI DUP1 PUSH4 0xC57830CD EQ PUSH2 0x8E2 JUMPI PUSH1 0x0 DUP1 REVERT JUMPDEST DUP1 PUSH4 0xAE169A50 GT PUSH2 0x187 JUMPI DUP1 PUSH4 0xBDD13D4A GT PUSH2 0x156 JUMPI DUP1 PUSH4 0xBDD13D4A EQ PUSH2 0x87B JUMPI DUP1 PUSH4 0xBF2CE808 EQ PUSH2 0x88E JUMPI DUP1 PUSH4 0xBF41C2A4 EQ PUSH2 0x8A1 JUMPI DUP1 PUSH4 0xC01B35A1 EQ PUSH2 0x8A9 JUMPI PUSH1 0x0 DUP1 REVERT JUMPDEST DUP1 PUSH4 0xAE169A50 EQ PUSH2 0x817 JUMPI DUP1 PUSH4 0xB3D673D8 EQ PUSH2 0x82A JUMPI DUP1 PUSH4 0xB401CDCA EQ PUSH2 0x83D JUMPI DUP1 PUSH4 0xB820A1CD EQ PUSH2 0x868 JUMPI PUSH1 0x0 DUP1 REVERT JUMPDEST DUP1 PUSH4 0xA224CEE7 GT PUSH2 0x1C3 JUMPI DUP1 PUSH4 0xA224CEE7 EQ PUSH2 0x6EE JUMPI DUP1 PUSH4 0xA87430BA EQ PUSH2 0x701 JUMPI DUP1 PUSH4 0xAAF5BFC3 EQ PUSH2 0x766 JUMPI DUP1 PUSH4 0xAC4AFA38 EQ PUSH2 0x779 JUMPI PUSH1 0x0 DUP1 REVERT JUMPDEST DUP1 PUSH4 0x98D5FDCA EQ PUSH2 0x6C0 JUMPI DUP1 PUSH4 0x99672158 EQ PUSH2 0x6C8 JUMPI DUP1 PUSH4 0x9DDA7FEE EQ PUSH2 0x6DB JUMPI PUSH1 0x0 DUP1 REVERT JUMPDEST DUP1 PUSH4 0x509173A1 GT PUSH2 0x2CE JUMPI DUP1 PUSH4 0x704B6C02 GT PUSH2 0x26C JUMPI DUP1 PUSH4 0x7ADE2642 GT PUSH2 0x23B JUMPI DUP1 PUSH4 0x7ADE2642 EQ PUSH2 0x68A JUMPI DUP1 PUSH4 0x7B542A2A EQ PUSH2 0x692 JUMPI DUP1 PUSH4 0x855C5D46 EQ PUSH2 0x6A5 JUMPI DUP1 PUSH4 0x8CD05ECB EQ PUSH2 0x6AD JUMPI PUSH1 0x0 DUP1 REVERT JUMPDEST DUP1 PUSH4 0x704B6C02 EQ PUSH2 0x62E JUMPI DUP1 PUSH4 0x736C0D5B EQ PUSH2 0x641 JUMPI DUP1 PUSH4 0x7628A37D EQ PUSH2 0x664 JUMPI DUP1 PUSH4 0x7ACE48E7 EQ PUSH2 0x677 JUMPI PUSH1 0x0 DUP1 REVERT JUMPDEST DUP1 PUSH4 0x5BB47808 GT PUSH2 0x2A8 JUMPI DUP1 PUSH4 0x5BB47808 EQ PUSH2 0x5C1 JUMPI DUP1 PUSH4 0x5D3EEA91 EQ PUSH2 0x5D4 JUMPI DUP1 PUSH4 0x686E9222 EQ PUSH2 0x5E7 JUMPI DUP1 PUSH4 0x6B38E049 EQ PUSH2 0x61B JUMPI PUSH1 0x0 DUP1 REVERT JUMPDEST DUP1 PUSH4 0x509173A1 EQ PUSH2 0x588 JUMPI DUP1 PUSH4 0x53A64091 EQ PUSH2 0x59B JUMPI DUP1 PUSH4 0x57A8773E EQ PUSH2 0x5AE JUMPI PUSH1 0x0 DUP1 REVERT JUMPDEST DUP1 PUSH4 0x28AC7C51 GT PUSH2 0x33B JUMPI DUP1 PUSH4 0x34144B0F GT PUSH2 0x315 JUMPI DUP1 PUSH4 0x34144B0F EQ PUSH2 0x4AB JUMPI DUP1 PUSH4 0x3E99C1E4 EQ PUSH2 0x4F4 JUMPI DUP1 PUSH4 0x4A3B68CC EQ PUSH2 0x52E JUMPI DUP1 PUSH4 0x4AE77BCF EQ PUSH2 0x557 JUMPI PUSH1 0x0 DUP1 REVERT JUMPDEST DUP1 PUSH4 0x28AC7C51 EQ PUSH2 0x457 JUMPI DUP1 PUSH4 0x29A16616 EQ PUSH2 0x46A JUMPI DUP1 PUSH4 0x32A00D8E EQ PUSH2 0x48B JUMPI PUSH1 0x0 DUP1 REVERT JUMPDEST DUP1 PUSH4 0x21040FC3 GT PUSH2 0x377 JUMPI DUP1 PUSH4 0x21040FC3 EQ PUSH2 0x416 JUMPI DUP1 PUSH4 0x216B31C1 EQ PUSH2 0x429 JUMPI DUP1 PUSH4 0x23452B9C EQ PUSH2 0x43C JUMPI DUP1 PUSH4 0x25E16063 EQ PUSH2 0x444 JUMPI PUSH1 0x0 DUP1 REVERT JUMPDEST DUP1 PUSH4 0x47AC00E EQ PUSH2 0x39E JUMPI DUP1 PUSH4 0x9EEF43E EQ PUSH2 0x3B3 JUMPI DUP1 PUSH4 0x1755FF21 EQ PUSH2 0x3EB JUMPI JUMPDEST PUSH1 0x0 DUP1 REVERT JUMPDEST PUSH2 0x3B1 PUSH2 0x3AC CALLDATASIZE PUSH1 0x4 PUSH2 0x3BC0 JUMP JUMPDEST PUSH2 0xA0E JUMP JUMPDEST STOP JUMPDEST PUSH2 0x3D6 PUSH2 0x3C1 CALLDATASIZE PUSH1 0x4 PUSH2 0x3BF7 JUMP JUMPDEST PUSH1 0x39 PUSH1 0x20 MSTORE PUSH1 0x0 SWAP1 DUP2 MSTORE PUSH1 0x40 SWAP1 KECCAK256 SLOAD PUSH1 0xFF AND DUP2 JUMP JUMPDEST PUSH1 0x40 MLOAD SWAP1 ISZERO ISZERO DUP2 MSTORE PUSH1 0x20 ADD JUMPDEST PUSH1 0x40 MLOAD DUP1 SWAP2 SUB SWAP1 RETURN JUMPDEST PUSH1 0x45 SLOAD PUSH2 0x3FE SWAP1 PUSH1 0x1 PUSH1 0x1 PUSH1 0xA0 SHL SUB AND DUP2 JUMP JUMPDEST PUSH1 0x40 MLOAD PUSH1 0x1 PUSH1 0x1 PUSH1 0xA0 SHL SUB SWAP1 SWAP2 AND DUP2 MSTORE PUSH1 0x20 ADD PUSH2 0x3E2 JUMP JUMPDEST PUSH2 0x3B1 PUSH2 0x424 CALLDATASIZE PUSH1 0x4 PUSH2 0x3BF7 JUMP JUMPDEST PUSH2 0xCC9 JUMP JUMPDEST PUSH2 0x3B1 PUSH2 0x437 CALLDATASIZE PUSH1 0x4 PUSH2 0x3C14 JUMP JUMPDEST PUSH2 0xDBB JUMP JUMPDEST PUSH2 0x3B1 PUSH2 0xE72 JUMP JUMPDEST PUSH2 0x3B1 PUSH2 0x452 CALLDATASIZE PUSH1 0x4 PUSH2 0x3BF7 JUMP JUMPDEST PUSH2 0xF43 JUMP JUMPDEST PUSH1 0x3A SLOAD PUSH2 0x3FE SWAP1 PUSH1 0x1 PUSH1 0x1 PUSH1 0xA0 SHL SUB AND DUP2 JUMP JUMPDEST PUSH2 0x47D PUSH2 0x478 CALLDATASIZE PUSH1 0x4 PUSH2 0x3C2D JUMP JUMPDEST PUSH2 0x1032 JUMP JUMPDEST PUSH1 0x40 MLOAD SWAP1 DUP2 MSTORE PUSH1 0x20 ADD PUSH2 0x3E2 JUMP JUMPDEST PUSH2 0x49E PUSH2 0x499 CALLDATASIZE PUSH1 0x4 PUSH2 0x3C66 JUMP JUMPDEST PUSH2 0x11F3 JUMP JUMPDEST PUSH1 0x40 MLOAD PUSH2 0x3E2 SWAP2 SWAP1 PUSH2 0x3C92 JUMP JUMPDEST PUSH2 0x4BE PUSH2 0x4B9 CALLDATASIZE PUSH1 0x4 PUSH2 0x3CDF JUMP JUMPDEST PUSH2 0x1273 JUMP JUMPDEST PUSH1 0x40 DUP1 MLOAD SWAP7 DUP8 MSTORE PUSH1 0x20 DUP8 ADD SWAP6 SWAP1 SWAP6 MSTORE SWAP4 DUP6 ADD SWAP3 SWAP1 SWAP3 MSTORE PUSH1 0x60 DUP5 ADD MSTORE PUSH1 0x1 PUSH1 0x1 PUSH1 0xA0 SHL SUB AND PUSH1 0x80 DUP4 ADD MSTORE PUSH1 0xA0 DUP3 ADD MSTORE PUSH1 0xC0 ADD PUSH2 0x3E2 JUMP JUMPDEST PUSH2 0x507 PUSH2 0x502 CALLDATASIZE PUSH1 0x4 PUSH2 0x3BF7 JUMP JUMPDEST PUSH2 0x12DD JUMP JUMPDEST PUSH1 0x40 DUP1 MLOAD PUSH14 0xFFFFFFFFFFFFFFFFFFFFFFFFFFFF SWAP4 DUP5 AND DUP2 MSTORE SWAP3 SWAP1 SWAP2 AND PUSH1 0x20 DUP4 ADD MSTORE ADD PUSH2 0x3E2 JUMP JUMPDEST PUSH2 0x3FE PUSH2 0x53C CALLDATASIZE PUSH1 0x4 PUSH2 0x3BF7 JUMP JUMPDEST PUSH1 0x40 PUSH1 0x20 DUP2 SWAP1 MSTORE PUSH1 0x0 SWAP2 DUP3 MSTORE SWAP1 KECCAK256 SLOAD PUSH1 0x1 PUSH1 0x1 PUSH1 0xA0 SHL SUB AND DUP2 JUMP JUMPDEST PUSH2 0x47D PUSH2 0x565 CALLDATASIZE PUSH1 0x4 PUSH2 0x3D14 JUMP JUMPDEST PUSH1 0x47 PUSH1 0x20 SWAP1 DUP2 MSTORE PUSH1 0x0 SWAP4 DUP5 MSTORE PUSH1 0x40 DUP1 DUP6 KECCAK256 DUP3 MSTORE SWAP3 DUP5 MSTORE DUP3 DUP5 KECCAK256 SWAP1 MSTORE DUP3 MSTORE SWAP1 KECCAK256 SLOAD DUP2 JUMP JUMPDEST PUSH1 0x3D SLOAD PUSH2 0x3FE SWAP1 PUSH1 0x1 PUSH1 0x1 PUSH1 0xA0 SHL SUB AND DUP2 JUMP JUMPDEST PUSH2 0x47D PUSH2 0x5A9 CALLDATASIZE PUSH1 0x4 PUSH2 0x3D55 JUMP JUMPDEST PUSH2 0x1352 JUMP JUMPDEST PUSH2 0x3B1 PUSH2 0x5BC CALLDATASIZE PUSH1 0x4 PUSH2 0x3BF7 JUMP JUMPDEST PUSH2 0x13B5 JUMP JUMPDEST PUSH2 0x3B1 PUSH2 0x5CF CALLDATASIZE PUSH1 0x4 PUSH2 0x3BF7 JUMP JUMPDEST PUSH2 0x1429 JUMP JUMPDEST PUSH2 0x3B1 PUSH2 0x5E2 CALLDATASIZE PUSH1 0x4 PUSH2 0x3C14 JUMP JUMPDEST PUSH2 0x149D JUMP JUMPDEST PUSH2 0x3FE PUSH2 0x5F5 CALLDATASIZE PUSH1 0x4 PUSH2 0x3C66 JUMP JUMPDEST PUSH1 0x48 PUSH1 0x20 SWAP1 DUP2 MSTORE PUSH1 0x0 SWAP3 DUP4 MSTORE PUSH1 0x40 DUP1 DUP5 KECCAK256 SWAP1 SWAP2 MSTORE SWAP1 DUP3 MSTORE SWAP1 KECCAK256 SLOAD PUSH1 0x1 PUSH1 0x1 PUSH1 0xA0 SHL SUB AND DUP2 JUMP JUMPDEST PUSH2 0x47D PUSH2 0x629 CALLDATASIZE PUSH1 0x4 PUSH2 0x3BC0 JUMP JUMPDEST PUSH2 0x178B JUMP JUMPDEST PUSH2 0x3B1 PUSH2 0x63C CALLDATASIZE PUSH1 0x4 PUSH2 0x3BF7 JUMP JUMPDEST PUSH2 0x1B7E JUMP JUMPDEST PUSH2 0x3D6 PUSH2 0x64F CALLDATASIZE PUSH1 0x4 PUSH2 0x3BF7 JUMP JUMPDEST PUSH1 0x44 PUSH1 0x20 MSTORE PUSH1 0x0 SWAP1 DUP2 MSTORE PUSH1 0x40 SWAP1 KECCAK256 SLOAD PUSH1 0xFF AND DUP2 JUMP JUMPDEST PUSH2 0x3B1 PUSH2 0x672 CALLDATASIZE PUSH1 0x4 PUSH2 0x3C2D JUMP JUMPDEST PUSH2 0x1BF2 JUMP JUMPDEST PUSH2 0x3B1 PUSH2 0x685 CALLDATASIZE PUSH1 0x4 PUSH2 0x3D9C JUMP JUMPDEST PUSH2 0x20FB JUMP JUMPDEST PUSH2 0x47D PUSH2 0x2209 JUMP JUMPDEST PUSH2 0x3B1 PUSH2 0x6A0 CALLDATASIZE PUSH1 0x4 PUSH2 0x3C14 JUMP JUMPDEST PUSH2 0x230B JUMP JUMPDEST PUSH1 0x34 SLOAD PUSH2 0x47D JUMP JUMPDEST PUSH2 0x47D PUSH2 0x6BB CALLDATASIZE PUSH1 0x4 PUSH2 0x3BF7 JUMP JUMPDEST PUSH2 0x2362 JUMP JUMPDEST PUSH2 0x47D PUSH2 0x2446 JUMP JUMPDEST PUSH2 0x3B1 PUSH2 0x6D6 CALLDATASIZE PUSH1 0x4 PUSH2 0x3D55 JUMP JUMPDEST PUSH2 0x24F2 JUMP JUMPDEST PUSH2 0x47D PUSH2 0x6E9 CALLDATASIZE PUSH1 0x4 PUSH2 0x3C66 JUMP JUMPDEST PUSH2 0x266C JUMP JUMPDEST PUSH2 0x3B1 PUSH2 0x6FC CALLDATASIZE PUSH1 0x4 PUSH2 0x3E29 JUMP JUMPDEST PUSH2 0x2798 JUMP JUMPDEST PUSH2 0x73E PUSH2 0x70F CALLDATASIZE PUSH1 0x4 PUSH2 0x3BF7 JUMP JUMPDEST PUSH1 0x42 PUSH1 0x20 MSTORE PUSH1 0x0 SWAP1 DUP2 MSTORE PUSH1 0x40 SWAP1 KECCAK256 DUP1 SLOAD PUSH1 0x1 DUP3 ADD SLOAD PUSH1 0x2 DUP4 ADD SLOAD PUSH1 0x3 DUP5 ADD SLOAD PUSH1 0x4 SWAP1 SWAP5 ADD SLOAD SWAP3 SWAP4 SWAP2 SWAP3 SWAP1 SWAP2 SWAP1 DUP6 JUMP JUMPDEST PUSH1 0x40 DUP1 MLOAD SWAP6 DUP7 MSTORE PUSH1 0x20 DUP7 ADD SWAP5 SWAP1 SWAP5 MSTORE SWAP3 DUP5 ADD SWAP2 SWAP1 SWAP2 MSTORE PUSH1 0x60 DUP4 ADD MSTORE PUSH1 0x80 DUP3 ADD MSTORE PUSH1 0xA0 ADD PUSH2 0x3E2 JUMP JUMPDEST PUSH2 0x3B1 PUSH2 0x774 CALLDATASIZE PUSH1 0x4 PUSH2 0x3BF7 JUMP JUMPDEST PUSH2 0x29C5 JUMP JUMPDEST PUSH2 0x7D4 PUSH2 0x787 CALLDATASIZE PUSH1 0x4 PUSH2 0x3C14 JUMP JUMPDEST PUSH1 0x3E PUSH1 0x20 MSTORE PUSH1 0x0 SWAP1 DUP2 MSTORE PUSH1 0x40 SWAP1 KECCAK256 DUP1 SLOAD PUSH1 0x1 DUP3 ADD SLOAD PUSH1 0x2 DUP4 ADD SLOAD PUSH1 0x3 DUP5 ADD SLOAD PUSH1 0x4 DUP6 ADD SLOAD PUSH1 0x5 DUP7 ADD SLOAD PUSH1 0x6 SWAP1 SWAP7 ADD SLOAD SWAP5 SWAP6 PUSH1 0x1 PUSH1 0x1 PUSH1 0xA0 SHL SUB SWAP5 DUP6 AND SWAP6 SWAP4 SWAP1 SWAP5 AND SWAP4 SWAP2 SWAP3 SWAP1 SWAP2 PUSH1 0xFF AND SWAP1 DUP8 JUMP JUMPDEST PUSH1 0x40 DUP1 MLOAD SWAP8 DUP9 MSTORE PUSH1 0x1 PUSH1 0x1 PUSH1 0xA0 SHL SUB SWAP7 DUP8 AND PUSH1 0x20 DUP10 ADD MSTORE SWAP5 SWAP1 SWAP6 AND SWAP4 DUP7 ADD SWAP4 SWAP1 SWAP4 MSTORE PUSH1 0x60 DUP6 ADD SWAP2 SWAP1 SWAP2 MSTORE PUSH1 0x80 DUP5 ADD MSTORE ISZERO ISZERO PUSH1 0xA0 DUP4 ADD MSTORE PUSH1 0xC0 DUP3 ADD MSTORE PUSH1 0xE0 ADD PUSH2 0x3E2 JUMP JUMPDEST PUSH2 0x3B1 PUSH2 0x825 CALLDATASIZE PUSH1 0x4 PUSH2 0x3C14 JUMP JUMPDEST PUSH2 0x2A39 JUMP JUMPDEST PUSH1 0x3C SLOAD PUSH2 0x3FE SWAP1 PUSH1 0x1 PUSH1 0x1 PUSH1 0xA0 SHL SUB AND DUP2 JUMP JUMPDEST PUSH2 0x47D PUSH2 0x84B CALLDATASIZE PUSH1 0x4 PUSH2 0x3C66 JUMP JUMPDEST PUSH1 0x43 PUSH1 0x20 SWAP1 DUP2 MSTORE PUSH1 0x0 SWAP3 DUP4 MSTORE PUSH1 0x40 DUP1 DUP5 KECCAK256 SWAP1 SWAP2 MSTORE SWAP1 DUP3 MSTORE SWAP1 KECCAK256 SLOAD DUP2 JUMP JUMPDEST PUSH2 0x3B1 PUSH2 0x876 CALLDATASIZE PUSH1 0x4 PUSH2 0x3BC0 JUMP JUMPDEST PUSH2 0x2E6B JUMP JUMPDEST PUSH2 0x3B1 PUSH2 0x889 CALLDATASIZE PUSH1 0x4 PUSH2 0x3EDB JUMP JUMPDEST PUSH2 0x2FBA JUMP JUMPDEST PUSH2 0x3B1 PUSH2 0x89C CALLDATASIZE PUSH1 0x4 PUSH2 0x3BC0 JUMP JUMPDEST PUSH2 0x3131 JUMP JUMPDEST PUSH2 0x3B1 PUSH2 0x3233 JUMP JUMPDEST PUSH2 0x3FE PUSH2 0x8B7 CALLDATASIZE PUSH1 0x4 PUSH2 0x3CDF JUMP JUMPDEST PUSH2 0x33DD JUMP JUMPDEST PUSH2 0x3B1 PUSH2 0x8CA CALLDATASIZE PUSH1 0x4 PUSH2 0x3BF7 JUMP JUMPDEST PUSH2 0x3422 JUMP JUMPDEST PUSH2 0x47D PUSH2 0x8DD CALLDATASIZE PUSH1 0x4 PUSH2 0x3EDB JUMP JUMPDEST PUSH2 0x3496 JUMP JUMPDEST PUSH1 0x3B SLOAD PUSH2 0x3FE SWAP1 PUSH1 0x1 PUSH1 0x1 PUSH1 0xA0 SHL SUB AND DUP2 JUMP JUMPDEST PUSH2 0x3B1 PUSH2 0x903 CALLDATASIZE PUSH1 0x4 PUSH2 0x3BC0 JUMP JUMPDEST PUSH2 0x34EF JUMP JUMPDEST PUSH1 0x37 SLOAD PUSH2 0x3FE SWAP1 PUSH1 0x1 PUSH1 0x1 PUSH1 0xA0 SHL SUB AND DUP2 JUMP JUMPDEST PUSH2 0x3D6 PUSH2 0x929 CALLDATASIZE PUSH1 0x4 PUSH2 0x3BF7 JUMP JUMPDEST PUSH1 0x49 PUSH1 0x20 MSTORE PUSH1 0x0 SWAP1 DUP2 MSTORE PUSH1 0x40 SWAP1 KECCAK256 SLOAD PUSH1 0xFF AND DUP2 JUMP JUMPDEST PUSH2 0x3FE PUSH2 0x94C CALLDATASIZE PUSH1 0x4 PUSH2 0x3C14 JUMP JUMPDEST PUSH2 0x3651 JUMP JUMPDEST PUSH2 0x3B1 PUSH2 0x95F CALLDATASIZE PUSH1 0x4 PUSH2 0x3C66 JUMP JUMPDEST PUSH2 0x367B JUMP JUMPDEST PUSH2 0x3FE PUSH2 0x972 CALLDATASIZE PUSH1 0x4 PUSH2 0x3D55 JUMP JUMPDEST PUSH2 0x36E9 JUMP JUMPDEST PUSH2 0x47D PUSH2 0x985 CALLDATASIZE PUSH1 0x4 PUSH2 0x3BF7 JUMP JUMPDEST PUSH1 0x41 PUSH1 0x20 MSTORE PUSH1 0x0 SWAP1 DUP2 MSTORE PUSH1 0x40 SWAP1 KECCAK256 SLOAD DUP2 JUMP JUMPDEST PUSH2 0x3B1 PUSH2 0x9A5 CALLDATASIZE PUSH1 0x4 PUSH2 0x3BF7 JUMP JUMPDEST PUSH2 0x3784 JUMP JUMPDEST PUSH2 0x47D PUSH2 0x37F8 JUMP JUMPDEST PUSH1 0x33 SLOAD PUSH2 0x3FE SWAP1 PUSH1 0x1 PUSH1 0x1 PUSH1 0xA0 SHL SUB AND DUP2 JUMP JUMPDEST PUSH2 0x47D PUSH2 0x9D3 CALLDATASIZE PUSH1 0x4 PUSH2 0x3C66 JUMP JUMPDEST PUSH1 0x1 PUSH1 0x1 PUSH1 0xA0 SHL SUB SWAP2 SWAP1 SWAP2 AND PUSH1 0x0 SWAP1 DUP2 MSTORE PUSH1 0x3F PUSH1 0x20 SWAP1 DUP2 MSTORE PUSH1 0x40 DUP1 DUP4 KECCAK256 SWAP4 DUP4 MSTORE SWAP3 SWAP1 MSTORE KECCAK256 SLOAD SWAP1 JUMP JUMPDEST PUSH2 0x3B1 PUSH2 0xA09 CALLDATASIZE PUSH1 0x4 PUSH2 0x3F00 JUMP JUMPDEST PUSH2 0x38CB JUMP JUMPDEST DUP2 PUSH1 0x34 SLOAD DUP2 LT PUSH2 0xA54 JUMPI PUSH1 0x40 MLOAD PUSH3 0x461BCD PUSH1 0xE5 SHL DUP2 MSTORE PUSH1 0x20 PUSH1 0x4 DUP3 ADD MSTORE PUSH1 0xC PUSH1 0x24 DUP3 ADD MSTORE PUSH12 0x125B9D985B1A5908141BDBDB PUSH1 0xA2 SHL PUSH1 0x44 DUP3 ADD MSTORE PUSH1 0x64 ADD JUMPDEST PUSH1 0x40 MLOAD DUP1 SWAP2 SUB SWAP1 REVERT JUMPDEST PUSH1 0x0 DUP4 DUP2 MSTORE PUSH1 0x3E PUSH1 0x20 MSTORE PUSH1 0x40 SWAP1 KECCAK256 PUSH1 0x5 ADD SLOAD DUP4 SWAP1 PUSH1 0xFF AND PUSH2 0xAAC JUMPI PUSH1 0x40 MLOAD PUSH3 0x461BCD PUSH1 0xE5 SHL DUP2 MSTORE PUSH1 0x20 PUSH1 0x4 DUP3 ADD MSTORE PUSH1 0x12 PUSH1 0x24 DUP3 ADD MSTORE PUSH18 0x506F6F6C204973204E6F7420416374697665 PUSH1 0x70 SHL PUSH1 0x44 DUP3 ADD MSTORE PUSH1 0x64 ADD PUSH2 0xA4B JUMP JUMPDEST CALLER PUSH1 0x0 SWAP1 DUP2 MSTORE PUSH1 0x3F PUSH1 0x20 SWAP1 DUP2 MSTORE PUSH1 0x40 DUP1 DUP4 KECCAK256 DUP8 DUP5 MSTORE SWAP1 SWAP2 MSTORE DUP2 KECCAK256 DUP1 SLOAD DUP6 SWAP1 DUP2 LT PUSH2 0xAD8 JUMPI PUSH2 0xAD8 PUSH2 0x3F52 JUMP JUMPDEST PUSH1 0x0 SWAP2 DUP3 MSTORE PUSH1 0x20 DUP1 DUP4 KECCAK256 DUP9 DUP5 MSTORE PUSH1 0x3E SWAP1 SWAP2 MSTORE PUSH1 0x40 SWAP1 SWAP3 KECCAK256 PUSH1 0x6 SWAP1 SWAP2 MUL SWAP1 SWAP2 ADD SWAP2 POP DUP1 SLOAD PUSH1 0x3 DUP4 ADD SLOAD TIMESTAMP SWAP2 PUSH2 0xB0B SWAP2 PUSH2 0x3F7E JUMP JUMPDEST DUP2 LT ISZERO PUSH2 0xB5A JUMPI PUSH1 0x40 MLOAD PUSH3 0x461BCD PUSH1 0xE5 SHL DUP2 MSTORE PUSH1 0x20 PUSH1 0x4 DUP3 ADD MSTORE PUSH1 0x16 PUSH1 0x24 DUP3 ADD MSTORE PUSH32 0x54696D6520706572696F64206E6F742070617373656400000000000000000000 PUSH1 0x44 DUP3 ADD MSTORE PUSH1 0x64 ADD PUSH2 0xA4B JUMP JUMPDEST PUSH2 0xB64 DUP8 DUP8 PUSH2 0x178B JUMP JUMPDEST POP PUSH1 0x1 DUP4 DUP2 ADD DUP3 SWAP1 SSTORE DUP3 ADD SLOAD DUP4 SLOAD PUSH1 0x40 MLOAD PUSH4 0xA9059CBB PUSH1 0xE0 SHL DUP2 MSTORE CALLER PUSH1 0x4 DUP3 ADD MSTORE PUSH1 0x24 DUP2 ADD SWAP2 SWAP1 SWAP2 MSTORE PUSH1 0x1 PUSH1 0x1 PUSH1 0xA0 SHL SUB SWAP1 SWAP2 AND SWAP1 PUSH4 0xA9059CBB SWAP1 PUSH1 0x44 ADD PUSH1 0x20 PUSH1 0x40 MLOAD DUP1 DUP4 SUB DUP2 PUSH1 0x0 DUP8 GAS CALL ISZERO DUP1 ISZERO PUSH2 0xBC1 JUMPI RETURNDATASIZE PUSH1 0x0 DUP1 RETURNDATACOPY RETURNDATASIZE PUSH1 0x0 REVERT JUMPDEST POP POP POP POP PUSH1 0x40 MLOAD RETURNDATASIZE PUSH1 0x1F NOT PUSH1 0x1F DUP3 ADD AND DUP3 ADD DUP1 PUSH1 0x40 MSTORE POP DUP2 ADD SWAP1 PUSH2 0xBE5 SWAP2 SWAP1 PUSH2 0x3FA1 JUMP JUMPDEST PUSH2 0xC31 JUMPI PUSH1 0x40 MLOAD PUSH3 0x461BCD PUSH1 0xE5 SHL DUP2 MSTORE PUSH1 0x20 PUSH1 0x4 DUP3 ADD MSTORE PUSH1 0x1C PUSH1 0x24 DUP3 ADD MSTORE PUSH32 0x5374616B656420746F6B656E207472616E73666572206661696C656400000000 PUSH1 0x44 DUP3 ADD MSTORE PUSH1 0x64 ADD PUSH2 0xA4B JUMP JUMPDEST DUP3 SLOAD CALLER PUSH1 0x0 SWAP1 DUP2 MSTORE PUSH1 0x42 PUSH1 0x20 MSTORE PUSH1 0x40 DUP2 KECCAK256 PUSH1 0x1 ADD DUP1 SLOAD SWAP1 SWAP2 SWAP1 PUSH2 0xC55 SWAP1 DUP5 SWAP1 PUSH2 0x3FBE JUMP JUMPDEST SWAP1 SWAP2 SSTORE POP POP DUP3 SLOAD CALLER PUSH1 0x0 SWAP1 DUP2 MSTORE PUSH1 0x43 PUSH1 0x20 SWAP1 DUP2 MSTORE PUSH1 0x40 DUP1 DUP4 KECCAK256 DUP12 DUP5 MSTORE SWAP1 SWAP2 MSTORE DUP2 KECCAK256 DUP1 SLOAD SWAP1 SWAP2 SWAP1 PUSH2 0xC86 SWAP1 DUP5 SWAP1 PUSH2 0x3FBE JUMP JUMPDEST SWAP1 SWAP2 SSTORE POP POP DUP3 SLOAD PUSH1 0x0 DUP9 DUP2 MSTORE PUSH1 0x3E PUSH1 0x20 MSTORE PUSH1 0x40 DUP2 KECCAK256 PUSH1 0x6 ADD DUP1 SLOAD SWAP1 SWAP2 SWAP1 PUSH2 0xCAE SWAP1 DUP5 SWAP1 PUSH2 0x3FBE JUMP JUMPDEST SWAP1 SWAP2 SSTORE POP POP PUSH1 0x0 DUP1 DUP5 SSTORE PUSH1 0x5 SWAP1 SWAP4 ADD SWAP3 SWAP1 SWAP3 SSTORE POP POP POP POP POP POP JUMP JUMPDEST PUSH1 0x33 SLOAD PUSH1 0x1 PUSH1 0x1 PUSH1 0xA0 SHL SUB AND CALLER EQ PUSH2 0xD1B JUMPI PUSH1 0x40 MLOAD PUSH3 0x461BCD PUSH1 0xE5 SHL DUP2 MSTORE PUSH1 0x20 PUSH1 0x4 DUP3 ADD MSTORE PUSH1 0x21 PUSH1 0x24 DUP3 ADD MSTORE PUSH1 0x0 DUP1 MLOAD PUSH1 0x20 PUSH2 0x417E DUP4 CODECOPY DUP2 MLOAD SWAP2 MSTORE PUSH1 0x44 DUP3 ADD MSTORE PUSH1 0x37 PUSH1 0xF9 SHL PUSH1 0x64 DUP3 ADD MSTORE PUSH1 0x84 ADD PUSH2 0xA4B JUMP JUMPDEST PUSH1 0x1 PUSH1 0x1 PUSH1 0xA0 SHL SUB DUP2 AND PUSH2 0xD71 JUMPI PUSH1 0x40 MLOAD PUSH3 0x461BCD PUSH1 0xE5 SHL DUP2 MSTORE PUSH1 0x20 PUSH1 0x4 DUP3 ADD DUP2 SWAP1 MSTORE PUSH1 0x24 DUP3 ADD MSTORE PUSH32 0x4E6577206F776E65722063616E6E6F74206265207A65726F2061646472657373 PUSH1 0x44 DUP3 ADD MSTORE PUSH1 0x64 ADD PUSH2 0xA4B JUMP JUMPDEST PUSH1 0x37 DUP1 SLOAD PUSH1 0x1 PUSH1 0x1 PUSH1 0xA0 SHL SUB NOT AND PUSH1 0x1 PUSH1 0x1 PUSH1 0xA0 SHL SUB DUP4 AND SWAP1 DUP2 OR SWAP1 SWAP2 SSTORE PUSH1 0x40 MLOAD PUSH32 0xF0C6916D81CD1F899264B5193E3BBE7AFD2BCC3D05704BAB73D0B8AC93871158 SWAP1 PUSH1 0x0 SWAP1 LOG2 POP JUMP JUMPDEST PUSH1 0x33 SLOAD PUSH1 0x1 PUSH1 0x1 PUSH1 0xA0 SHL SUB AND CALLER EQ PUSH2 0xE0D JUMPI PUSH1 0x40 MLOAD PUSH3 0x461BCD PUSH1 0xE5 SHL DUP2 MSTORE PUSH1 0x20 PUSH1 0x4 DUP3 ADD MSTORE PUSH1 0x21 PUSH1 0x24 DUP3 ADD MSTORE PUSH1 0x0 DUP1 MLOAD PUSH1 0x20 PUSH2 0x417E DUP4 CODECOPY DUP2 MLOAD SWAP2 MSTORE PUSH1 0x44 DUP3 ADD MSTORE PUSH1 0x37 PUSH1 0xF9 SHL PUSH1 0x64 DUP3 ADD MSTORE PUSH1 0x84 ADD PUSH2 0xA4B JUMP JUMPDEST DUP1 PUSH1 0x34 SLOAD DUP2 LT PUSH2 0xE4E JUMPI PUSH1 0x40 MLOAD PUSH3 0x461BCD PUSH1 0xE5 SHL DUP2 MSTORE PUSH1 0x20 PUSH1 0x4 DUP3 ADD MSTORE PUSH1 0xC PUSH1 0x24 DUP3 ADD MSTORE PUSH12 0x125B9D985B1A5908141BDBDB PUSH1 0xA2 SHL PUSH1 0x44 DUP3 ADD MSTORE PUSH1 0x64 ADD PUSH2 0xA4B JUMP JUMPDEST POP PUSH1 0x0 SWAP1 DUP2 MSTORE PUSH1 0x3E PUSH1 0x20 MSTORE PUSH1 0x40 SWAP1 KECCAK256 PUSH1 0x5 ADD DUP1 SLOAD PUSH1 0xFF NOT DUP2 AND PUSH1 0xFF SWAP1 SWAP2 AND ISZERO OR SWAP1 SSTORE JUMP JUMPDEST PUSH1 0x33 SLOAD PUSH1 0x1 PUSH1 0x1 PUSH1 0xA0 SHL SUB AND CALLER EQ PUSH2 0xEC4 JUMPI PUSH1 0x40 MLOAD PUSH3 0x461BCD PUSH1 0xE5 SHL DUP2 MSTORE PUSH1 0x20 PUSH1 0x4 DUP3 ADD MSTORE PUSH1 0x21 PUSH1 0x24 DUP3 ADD MSTORE PUSH1 0x0 DUP1 MLOAD PUSH1 0x20 PUSH2 0x417E DUP4 CODECOPY DUP2 MLOAD SWAP2 MSTORE PUSH1 0x44 DUP3 ADD MSTORE PUSH1 0x37 PUSH1 0xF9 SHL PUSH1 0x64 DUP3 ADD MSTORE PUSH1 0x84 ADD PUSH2 0xA4B JUMP JUMPDEST PUSH1 0x37 DUP1 SLOAD PUSH1 0x1 PUSH1 0x1 PUSH1 0xA0 SHL SUB NOT AND SWAP1 SSTORE PUSH1 0x0 JUMPDEST PUSH1 0x38 SLOAD DUP2 LT ISZERO PUSH2 0xF40 JUMPI PUSH1 0x0 PUSH1 0x39 PUSH1 0x0 PUSH1 0x38 DUP5 DUP2 SLOAD DUP2 LT PUSH2 0xEFA JUMPI PUSH2 0xEFA PUSH2 0x3F52 JUMP JUMPDEST PUSH1 0x0 SWAP2 DUP3 MSTORE PUSH1 0x20 DUP1 DUP4 KECCAK256 SWAP2 SWAP1 SWAP2 ADD SLOAD PUSH1 0x1 PUSH1 0x1 PUSH1 0xA0 SHL SUB AND DUP4 MSTORE DUP3 ADD SWAP3 SWAP1 SWAP3 MSTORE PUSH1 0x40 ADD SWAP1 KECCAK256 DUP1 SLOAD PUSH1 0xFF NOT AND SWAP2 ISZERO ISZERO SWAP2 SWAP1 SWAP2 OR SWAP1 SSTORE DUP1 PUSH2 0xF38 DUP2 PUSH2 0x3FD1 JUMP JUMPDEST SWAP2 POP POP PUSH2 0xED7 JUMP JUMPDEST POP JUMP JUMPDEST PUSH1 0x33 SLOAD PUSH1 0x1 PUSH1 0x1 PUSH1 0xA0 SHL SUB AND CALLER EQ PUSH2 0xF95 JUMPI PUSH1 0x40 MLOAD PUSH3 0x461BCD PUSH1 0xE5 SHL DUP2 MSTORE PUSH1 0x20 PUSH1 0x4 DUP3 ADD MSTORE PUSH1 0x21 PUSH1 0x24 DUP3 ADD MSTORE PUSH1 0x0 DUP1 MLOAD PUSH1 0x20 PUSH2 0x417E DUP4 CODECOPY DUP2 MLOAD SWAP2 MSTORE PUSH1 0x44 DUP3 ADD MSTORE PUSH1 0x37 PUSH1 0xF9 SHL PUSH1 0x64 DUP3 ADD MSTORE PUSH1 0x84 ADD PUSH2 0xA4B JUMP JUMPDEST PUSH2 0xF9D PUSH2 0x39F4 JUMP JUMPDEST PUSH1 0x1 PUSH1 0x1 PUSH1 0xA0 SHL SUB DUP2 AND PUSH2 0xFF3 JUMPI PUSH1 0x40 MLOAD PUSH3 0x461BCD PUSH1 0xE5 SHL DUP2 MSTORE PUSH1 0x20 PUSH1 0x4 DUP3 ADD MSTORE PUSH1 0xF PUSH1 0x24 DUP3 ADD MSTORE PUSH32 0x496E76616C696420616464726573730000000000000000000000000000000000 PUSH1 0x44 DUP3 ADD MSTORE PUSH1 0x64 ADD PUSH2 0xA4B JUMP JUMPDEST PUSH1 0x40 MLOAD PUSH1 0x1 PUSH1 0x1 PUSH1 0xA0 SHL SUB DUP3 AND SWAP1 SELFBALANCE DUP1 ISZERO PUSH2 0x8FC MUL SWAP2 PUSH1 0x0 DUP2 DUP2 DUP2 DUP6 DUP9 DUP9 CALL SWAP4 POP POP POP POP ISZERO DUP1 ISZERO PUSH2 0x1028 JUMPI RETURNDATASIZE PUSH1 0x0 DUP1 RETURNDATACOPY RETURNDATASIZE PUSH1 0x0 REVERT JUMPDEST POP PUSH2 0xF40 PUSH1 0x1 DUP1 SSTORE JUMP JUMPDEST PUSH1 0x0 DUP4 PUSH1 0x34 SLOAD DUP2 LT PUSH2 0x1075 JUMPI PUSH1 0x40 MLOAD PUSH3 0x461BCD PUSH1 0xE5 SHL DUP2 MSTORE PUSH1 0x20 PUSH1 0x4 DUP3 ADD MSTORE PUSH1 0xC PUSH1 0x24 DUP3 ADD MSTORE PUSH12 0x125B9D985B1A5908141BDBDB PUSH1 0xA2 SHL PUSH1 0x44 DUP3 ADD MSTORE PUSH1 0x64 ADD PUSH2 0xA4B JUMP JUMPDEST PUSH1 0x0 DUP6 DUP2 MSTORE PUSH1 0x3E PUSH1 0x20 MSTORE PUSH1 0x40 SWAP1 KECCAK256 PUSH1 0x5 ADD SLOAD DUP6 SWAP1 PUSH1 0xFF AND PUSH2 0x10CD JUMPI PUSH1 0x40 MLOAD PUSH3 0x461BCD PUSH1 0xE5 SHL DUP2 MSTORE PUSH1 0x20 PUSH1 0x4 DUP3 ADD MSTORE PUSH1 0x12 PUSH1 0x24 DUP3 ADD MSTORE PUSH18 0x506F6F6C204973204E6F7420416374697665 PUSH1 0x70 SHL PUSH1 0x44 DUP3 ADD MSTORE PUSH1 0x64 ADD PUSH2 0xA4B JUMP JUMPDEST PUSH1 0x1 PUSH1 0x1 PUSH1 0xA0 SHL SUB DUP5 AND PUSH1 0x0 SWAP1 DUP2 MSTORE PUSH1 0x3F PUSH1 0x20 SWAP1 DUP2 MSTORE PUSH1 0x40 DUP1 DUP4 KECCAK256 DUP10 DUP5 MSTORE SWAP1 SWAP2 MSTORE SWAP1 KECCAK256 SLOAD DUP6 LT PUSH2 0x113F JUMPI PUSH1 0x40 MLOAD PUSH3 0x461BCD PUSH1 0xE5 SHL DUP2 MSTORE PUSH1 0x20 PUSH1 0x4 DUP3 ADD MSTORE PUSH1 0xF PUSH1 0x24 DUP3 ADD MSTORE PUSH32 0x55736572204E6F74205374616B65640000000000000000000000000000000000 PUSH1 0x44 DUP3 ADD MSTORE PUSH1 0x64 ADD PUSH2 0xA4B JUMP JUMPDEST PUSH1 0x1 PUSH1 0x1 PUSH1 0xA0 SHL SUB DUP5 AND PUSH1 0x0 SWAP1 DUP2 MSTORE PUSH1 0x3F PUSH1 0x20 SWAP1 DUP2 MSTORE PUSH1 0x40 DUP1 DUP4 KECCAK256 DUP10 DUP5 MSTORE SWAP1 SWAP2 MSTORE DUP2 KECCAK256 DUP1 SLOAD DUP8 SWAP1 DUP2 LT PUSH2 0x1174 JUMPI PUSH2 0x1174 PUSH2 0x3F52 JUMP JUMPDEST PUSH1 0x0 SWAP2 DUP3 MSTORE PUSH1 0x20 DUP1 DUP4 KECCAK256 DUP11 DUP5 MSTORE PUSH1 0x3E SWAP1 SWAP2 MSTORE PUSH1 0x40 DUP4 KECCAK256 PUSH1 0x6 SWAP3 SWAP1 SWAP3 MUL ADD PUSH1 0x1 DUP2 ADD SLOAD SWAP1 SWAP4 POP SWAP1 SWAP2 TIMESTAMP SWAP2 PUSH2 0x11A7 SWAP1 DUP4 PUSH2 0x3FBE JUMP JUMPDEST SWAP1 POP PUSH1 0x0 PUSH1 0x35 SLOAD PUSH2 0x2710 DUP6 PUSH1 0x3 ADD SLOAD DUP5 DUP9 PUSH1 0x5 ADD SLOAD PUSH2 0x11C6 SWAP2 SWAP1 PUSH2 0x3FEA JUMP JUMPDEST PUSH2 0x11D0 SWAP2 SWAP1 PUSH2 0x3FEA JUMP JUMPDEST PUSH2 0x11DA SWAP2 SWAP1 PUSH2 0x4001 JUMP JUMPDEST PUSH2 0x11E4 SWAP2 SWAP1 PUSH2 0x4001 JUMP JUMPDEST SWAP12 SWAP11 POP POP POP POP POP POP POP POP POP POP POP JUMP JUMPDEST PUSH1 0x1 PUSH1 0x1 PUSH1 0xA0 SHL SUB DUP3 AND PUSH1 0x0 SWAP1 DUP2 MSTORE PUSH1 0x46 PUSH1 0x20 SWAP1 DUP2 MSTORE PUSH1 0x40 DUP1 DUP4 KECCAK256 DUP5 DUP5 MSTORE DUP3 MSTORE SWAP2 DUP3 SWAP1 KECCAK256 DUP1 SLOAD DUP4 MLOAD DUP2 DUP5 MUL DUP2 ADD DUP5 ADD SWAP1 SWAP5 MSTORE DUP1 DUP5 MSTORE PUSH1 0x60 SWAP4 SWAP3 DUP4 ADD DUP3 DUP3 DUP1 ISZERO PUSH2 0x1265 JUMPI PUSH1 0x20 MUL DUP3 ADD SWAP2 SWAP1 PUSH1 0x0 MSTORE PUSH1 0x20 PUSH1 0x0 KECCAK256 SWAP1 JUMPDEST DUP2 SLOAD PUSH1 0x1 PUSH1 0x1 PUSH1 0xA0 SHL SUB AND DUP2 MSTORE PUSH1 0x1 SWAP1 SWAP2 ADD SWAP1 PUSH1 0x20 ADD DUP1 DUP4 GT PUSH2 0x1247 JUMPI JUMPDEST POP POP POP POP POP SWAP1 POP JUMPDEST SWAP3 SWAP2 POP POP JUMP JUMPDEST PUSH1 0x3F PUSH1 0x20 MSTORE DUP3 PUSH1 0x0 MSTORE PUSH1 0x40 PUSH1 0x0 KECCAK256 PUSH1 0x20 MSTORE DUP2 PUSH1 0x0 MSTORE PUSH1 0x40 PUSH1 0x0 KECCAK256 DUP2 DUP2 SLOAD DUP2 LT PUSH2 0x129B JUMPI PUSH1 0x0 DUP1 REVERT JUMPDEST PUSH1 0x0 SWAP2 DUP3 MSTORE PUSH1 0x20 SWAP1 SWAP2 KECCAK256 PUSH1 0x6 SWAP1 SWAP2 MUL ADD DUP1 SLOAD PUSH1 0x1 DUP3 ADD SLOAD PUSH1 0x2 DUP4 ADD SLOAD PUSH1 0x3 DUP5 ADD SLOAD PUSH1 0x4 DUP6 ADD SLOAD PUSH1 0x5 SWAP1 SWAP6 ADD SLOAD SWAP4 SWAP8 POP SWAP2 SWAP6 POP SWAP4 POP SWAP2 PUSH1 0x1 PUSH1 0x1 PUSH1 0xA0 SHL SUB AND SWAP1 DUP7 JUMP JUMPDEST PUSH1 0x0 DUP1 PUSH1 0x0 DUP1 DUP5 PUSH1 0x1 PUSH1 0x1 PUSH1 0xA0 SHL SUB AND PUSH4 0x902F1AC PUSH1 0x40 MLOAD DUP2 PUSH4 0xFFFFFFFF AND PUSH1 0xE0 SHL DUP2 MSTORE PUSH1 0x4 ADD PUSH1 0x60 PUSH1 0x40 MLOAD DUP1 DUP4 SUB DUP2 DUP7 GAS STATICCALL ISZERO DUP1 ISZERO PUSH2 0x1321 JUMPI RETURNDATASIZE PUSH1 0x0 DUP1 RETURNDATACOPY RETURNDATASIZE PUSH1 0x0 REVERT JUMPDEST POP POP POP POP PUSH1 0x40 MLOAD RETURNDATASIZE PUSH1 0x1F NOT PUSH1 0x1F DUP3 ADD AND DUP3 ADD DUP1 PUSH1 0x40 MSTORE POP DUP2 ADD SWAP1 PUSH2 0x1345 SWAP2 SWAP1 PUSH2 0x4055 JUMP JUMPDEST POP SWAP1 SWAP7 SWAP1 SWAP6 POP SWAP4 POP POP POP POP JUMP JUMPDEST PUSH1 0x0 DUP1 DUP1 JUMPDEST PUSH1 0x34 SLOAD DUP2 LT ISZERO PUSH2 0x13AD JUMPI PUSH1 0x1 PUSH1 0x1 PUSH1 0xA0 SHL SUB DUP1 DUP6 AND PUSH1 0x0 SWAP1 DUP2 MSTORE PUSH1 0x47 PUSH1 0x20 SWAP1 DUP2 MSTORE PUSH1 0x40 DUP1 DUP4 KECCAK256 SWAP4 DUP10 AND DUP4 MSTORE SWAP3 DUP2 MSTORE DUP3 DUP3 KECCAK256 DUP5 DUP4 MSTORE SWAP1 MSTORE KECCAK256 SLOAD PUSH2 0x1399 SWAP1 DUP4 PUSH2 0x3F7E JUMP JUMPDEST SWAP2 POP DUP1 PUSH2 0x13A5 DUP2 PUSH2 0x3FD1 JUMP JUMPDEST SWAP2 POP POP PUSH2 0x1357 JUMP JUMPDEST POP SWAP4 SWAP3 POP POP POP JUMP JUMPDEST PUSH1 0x33 SLOAD PUSH1 0x1 PUSH1 0x1 PUSH1 0xA0 SHL SUB AND CALLER EQ PUSH2 0x1407 JUMPI PUSH1 0x40 MLOAD PUSH3 0x461BCD PUSH1 0xE5 SHL DUP2 MSTORE PUSH1 0x20 PUSH1 0x4 DUP3 ADD MSTORE PUSH1 0x21 PUSH1 0x24 DUP3 ADD MSTORE PUSH1 0x0 DUP1 MLOAD PUSH1 0x20 PUSH2 0x417E DUP4 CODECOPY DUP2 MLOAD SWAP2 MSTORE PUSH1 0x44 DUP3 ADD MSTORE PUSH1 0x37 PUSH1 0xF9 SHL PUSH1 0x64 DUP3 ADD MSTORE PUSH1 0x84 ADD PUSH2 0xA4B JUMP JUMPDEST PUSH1 0x3B DUP1 SLOAD PUSH1 0x1 PUSH1 0x1 PUSH1 0xA0 SHL SUB NOT AND PUSH1 0x1 PUSH1 0x1 PUSH1 0xA0 SHL SUB SWAP3 SWAP1 SWAP3 AND SWAP2 SWAP1 SWAP2 OR SWAP1 SSTORE JUMP JUMPDEST PUSH1 0x33 SLOAD PUSH1 0x1 PUSH1 0x1 PUSH1 0xA0 SHL SUB AND CALLER EQ PUSH2 0x147B JUMPI PUSH1 0x40 MLOAD PUSH3 0x461BCD PUSH1 0xE5 SHL DUP2 MSTORE PUSH1 0x20 PUSH1 0x4 DUP3 ADD MSTORE PUSH1 0x21 PUSH1 0x24 DUP3 ADD MSTORE PUSH1 0x0 DUP1 MLOAD PUSH1 0x20 PUSH2 0x417E DUP4 CODECOPY DUP2 MLOAD SWAP2 MSTORE PUSH1 0x44 DUP3 ADD MSTORE PUSH1 0x37 PUSH1 0xF9 SHL PUSH1 0x64 DUP3 ADD MSTORE PUSH1 0x84 ADD PUSH2 0xA4B JUMP JUMPDEST PUSH1 0x3D DUP1 SLOAD PUSH1 0x1 PUSH1 0x1 PUSH1 0xA0 SHL SUB NOT AND PUSH1 0x1 PUSH1 0x1 PUSH1 0xA0 SHL SUB SWAP3 SWAP1 SWAP3 AND SWAP2 SWAP1 SWAP2 OR SWAP1 SSTORE JUMP JUMPDEST DUP1 PUSH1 0x34 SLOAD DUP2 LT PUSH2 0x14DE JUMPI PUSH1 0x40 MLOAD PUSH3 0x461BCD PUSH1 0xE5 SHL DUP2 MSTORE PUSH1 0x20 PUSH1 0x4 DUP3 ADD MSTORE PUSH1 0xC PUSH1 0x24 DUP3 ADD MSTORE PUSH12 0x125B9D985B1A5908141BDBDB PUSH1 0xA2 SHL PUSH1 0x44 DUP3 ADD MSTORE PUSH1 0x64 ADD PUSH2 0xA4B JUMP JUMPDEST PUSH1 0x0 DUP3 DUP2 MSTORE PUSH1 0x3E PUSH1 0x20 MSTORE PUSH1 0x40 SWAP1 KECCAK256 PUSH1 0x5 ADD SLOAD DUP3 SWAP1 PUSH1 0xFF AND PUSH2 0x1536 JUMPI PUSH1 0x40 MLOAD PUSH3 0x461BCD PUSH1 0xE5 SHL DUP2 MSTORE PUSH1 0x20 PUSH1 0x4 DUP3 ADD MSTORE PUSH1 0x12 PUSH1 0x24 DUP3 ADD MSTORE PUSH18 0x506F6F6C204973204E6F7420416374697665 PUSH1 0x70 SHL PUSH1 0x44 DUP3 ADD MSTORE PUSH1 0x64 ADD PUSH2 0xA4B JUMP JUMPDEST PUSH1 0x0 DUP4 DUP2 MSTORE PUSH1 0x3E PUSH1 0x20 MSTORE PUSH1 0x40 DUP2 KECCAK256 DUP2 JUMPDEST CALLER PUSH1 0x0 SWAP1 DUP2 MSTORE PUSH1 0x3F PUSH1 0x20 SWAP1 DUP2 MSTORE PUSH1 0x40 DUP1 DUP4 KECCAK256 DUP10 DUP5 MSTORE SWAP1 SWAP2 MSTORE SWAP1 KECCAK256 SLOAD DUP2 LT ISZERO PUSH2 0x1664 JUMPI CALLER PUSH1 0x0 SWAP1 DUP2 MSTORE PUSH1 0x3F PUSH1 0x20 SWAP1 DUP2 MSTORE PUSH1 0x40 DUP1 DUP4 KECCAK256 DUP10 DUP5 MSTORE SWAP1 SWAP2 MSTORE DUP2 KECCAK256 DUP1 SLOAD DUP4 SWAP1 DUP2 LT PUSH2 0x1594 JUMPI PUSH2 0x1594 PUSH2 0x3F52 JUMP JUMPDEST SWAP1 PUSH1 0x0 MSTORE PUSH1 0x20 PUSH1 0x0 KECCAK256 SWAP1 PUSH1 0x6 MUL ADD SWAP1 POP PUSH1 0x0 TIMESTAMP SWAP1 POP DUP4 PUSH1 0x0 ADD SLOAD DUP3 PUSH1 0x3 ADD SLOAD PUSH2 0x15BD SWAP2 SWAP1 PUSH2 0x3F7E JUMP JUMPDEST DUP2 LT PUSH2 0x164F JUMPI DUP2 SLOAD PUSH2 0x15CF SWAP1 DUP7 PUSH2 0x3F7E JUMP JUMPDEST SWAP5 POP PUSH2 0x15DB DUP9 DUP5 PUSH2 0x178B JUMP JUMPDEST POP PUSH1 0x0 DUP1 DUP4 SSTORE PUSH1 0x1 DUP4 ADD DUP3 SWAP1 SSTORE CALLER DUP2 MSTORE PUSH1 0x3F PUSH1 0x20 SWAP1 DUP2 MSTORE PUSH1 0x40 DUP1 DUP4 KECCAK256 DUP12 DUP5 MSTORE SWAP1 SWAP2 MSTORE SWAP1 KECCAK256 DUP1 SLOAD DUP5 SWAP1 DUP2 LT PUSH2 0x1611 JUMPI PUSH2 0x1611 PUSH2 0x3F52 JUMP JUMPDEST PUSH1 0x0 SWAP2 DUP3 MSTORE PUSH1 0x20 DUP3 KECCAK256 PUSH1 0x6 SWAP1 SWAP2 MUL ADD DUP2 DUP2 SSTORE PUSH1 0x1 DUP2 ADD DUP3 SWAP1 SSTORE PUSH1 0x2 DUP2 ADD DUP3 SWAP1 SSTORE PUSH1 0x3 DUP2 ADD DUP3 SWAP1 SSTORE PUSH1 0x4 DUP2 ADD DUP1 SLOAD PUSH1 0x1 PUSH1 0x1 PUSH1 0xA0 SHL SUB NOT AND SWAP1 SSTORE PUSH1 0x5 ADD SSTORE JUMPDEST POP POP DUP1 DUP1 PUSH2 0x165C SWAP1 PUSH2 0x3FD1 JUMP JUMPDEST SWAP2 POP POP PUSH2 0x1546 JUMP JUMPDEST POP CALLER PUSH1 0x0 SWAP1 DUP2 MSTORE PUSH1 0x42 PUSH1 0x20 MSTORE PUSH1 0x40 DUP2 KECCAK256 PUSH1 0x1 ADD DUP1 SLOAD DUP5 SWAP3 SWAP1 PUSH2 0x1687 SWAP1 DUP5 SWAP1 PUSH2 0x3FBE JUMP JUMPDEST SWAP1 SWAP2 SSTORE POP POP CALLER PUSH1 0x0 SWAP1 DUP2 MSTORE PUSH1 0x43 PUSH1 0x20 SWAP1 DUP2 MSTORE PUSH1 0x40 DUP1 DUP4 KECCAK256 DUP9 DUP5 MSTORE SWAP1 SWAP2 MSTORE DUP2 KECCAK256 DUP1 SLOAD DUP5 SWAP3 SWAP1 PUSH2 0x16B6 SWAP1 DUP5 SWAP1 PUSH2 0x3FBE JUMP JUMPDEST SWAP1 SWAP2 SSTORE POP POP DUP2 ISZERO PUSH2 0x1784 JUMPI PUSH1 0x1 DUP2 ADD SLOAD PUSH1 0x40 MLOAD PUSH4 0xA9059CBB PUSH1 0xE0 SHL DUP2 MSTORE CALLER PUSH1 0x4 DUP3 ADD MSTORE PUSH1 0x24 DUP2 ADD DUP5 SWAP1 MSTORE PUSH1 0x1 PUSH1 0x1 PUSH1 0xA0 SHL SUB SWAP1 SWAP2 AND SWAP1 PUSH4 0xA9059CBB SWAP1 PUSH1 0x44 ADD PUSH1 0x20 PUSH1 0x40 MLOAD DUP1 DUP4 SUB DUP2 PUSH1 0x0 DUP8 GAS CALL ISZERO DUP1 ISZERO PUSH2 0x1714 JUMPI RETURNDATASIZE PUSH1 0x0 DUP1 RETURNDATACOPY RETURNDATASIZE PUSH1 0x0 REVERT JUMPDEST POP POP POP POP PUSH1 0x40 MLOAD RETURNDATASIZE PUSH1 0x1F NOT PUSH1 0x1F DUP3 ADD AND DUP3 ADD DUP1 PUSH1 0x40 MSTORE POP DUP2 ADD SWAP1 PUSH2 0x1738 SWAP2 SWAP1 PUSH2 0x3FA1 JUMP JUMPDEST PUSH2 0x1784 JUMPI PUSH1 0x40 MLOAD PUSH3 0x461BCD PUSH1 0xE5 SHL DUP2 MSTORE PUSH1 0x20 PUSH1 0x4 DUP3 ADD MSTORE PUSH1 0x1C PUSH1 0x24 DUP3 ADD MSTORE PUSH32 0x5374616B656420746F6B656E207472616E73666572206661696C656400000000 PUSH1 0x44 DUP3 ADD MSTORE PUSH1 0x64 ADD PUSH2 0xA4B JUMP JUMPDEST POP POP POP POP POP JUMP JUMPDEST PUSH1 0x0 DUP3 PUSH1 0x34 SLOAD DUP2 LT PUSH2 0x17CE JUMPI PUSH1 0x40 MLOAD PUSH3 0x461BCD PUSH1 0xE5 SHL DUP2 MSTORE PUSH1 0x20 PUSH1 0x4 DUP3 ADD MSTORE PUSH1 0xC PUSH1 0x24 DUP3 ADD MSTORE PUSH12 0x125B9D985B1A5908141BDBDB PUSH1 0xA2 SHL PUSH1 0x44 DUP3 ADD MSTORE PUSH1 0x64 ADD PUSH2 0xA4B JUMP JUMPDEST PUSH1 0x0 DUP5 DUP2 MSTORE PUSH1 0x3E PUSH1 0x20 MSTORE PUSH1 0x40 SWAP1 KECCAK256 PUSH1 0x5 ADD SLOAD DUP5 SWAP1 PUSH1 0xFF AND PUSH2 0x1826 JUMPI PUSH1 0x40 MLOAD PUSH3 0x461BCD PUSH1 0xE5 SHL DUP2 MSTORE PUSH1 0x20 PUSH1 0x4 DUP3 ADD MSTORE PUSH1 0x12 PUSH1 0x24 DUP3 ADD MSTORE PUSH18 0x506F6F6C204973204E6F7420416374697665 PUSH1 0x70 SHL PUSH1 0x44 DUP3 ADD MSTORE PUSH1 0x64 ADD PUSH2 0xA4B JUMP JUMPDEST CALLER PUSH1 0x0 SWAP1 DUP2 MSTORE PUSH1 0x3F PUSH1 0x20 SWAP1 DUP2 MSTORE PUSH1 0x40 DUP1 DUP4 KECCAK256 DUP9 DUP5 MSTORE SWAP1 SWAP2 MSTORE DUP2 KECCAK256 DUP1 SLOAD DUP7 SWAP1 DUP2 LT PUSH2 0x1852 JUMPI PUSH2 0x1852 PUSH2 0x3F52 JUMP JUMPDEST PUSH1 0x0 SWAP2 DUP3 MSTORE PUSH1 0x20 DUP1 DUP4 KECCAK256 DUP10 DUP5 MSTORE PUSH1 0x3E SWAP1 SWAP2 MSTORE PUSH1 0x40 DUP4 KECCAK256 PUSH1 0x6 SWAP1 SWAP3 MUL ADD DUP1 SLOAD SWAP1 SWAP4 POP SWAP1 SWAP2 SUB PUSH2 0x1885 JUMPI PUSH1 0x0 SWAP5 POP POP POP PUSH2 0x1B76 JUMP JUMPDEST TIMESTAMP PUSH1 0x0 PUSH2 0x1893 DUP10 DUP10 CALLER PUSH2 0x1032 JUMP JUMPDEST SWAP1 POP DUP1 ISZERO PUSH2 0x1B71 JUMPI PUSH1 0x2 DUP4 ADD SLOAD PUSH1 0x40 MLOAD PUSH4 0xA9059CBB PUSH1 0xE0 SHL DUP2 MSTORE CALLER PUSH1 0x4 DUP3 ADD MSTORE PUSH1 0x24 DUP2 ADD DUP4 SWAP1 MSTORE PUSH1 0x1 PUSH1 0x1 PUSH1 0xA0 SHL SUB SWAP1 SWAP2 AND SWAP1 PUSH4 0xA9059CBB SWAP1 PUSH1 0x44 ADD PUSH1 0x20 PUSH1 0x40 MLOAD DUP1 DUP4 SUB DUP2 PUSH1 0x0 DUP8 GAS CALL ISZERO DUP1 ISZERO PUSH2 0x18EE JUMPI RETURNDATASIZE PUSH1 0x0 DUP1 RETURNDATACOPY RETURNDATASIZE PUSH1 0x0 REVERT JUMPDEST POP POP POP POP PUSH1 0x40 MLOAD RETURNDATASIZE PUSH1 0x1F NOT PUSH1 0x1F DUP3 ADD AND DUP3 ADD DUP1 PUSH1 0x40 MSTORE POP DUP2 ADD SWAP1 PUSH2 0x1912 SWAP2 SWAP1 PUSH2 0x3FA1 JUMP JUMPDEST PUSH2 0x195E JUMPI PUSH1 0x40 MLOAD PUSH3 0x461BCD PUSH1 0xE5 SHL DUP2 MSTORE PUSH1 0x20 PUSH1 0x4 DUP3 ADD MSTORE PUSH1 0x16 PUSH1 0x24 DUP3 ADD MSTORE PUSH32 0x526577617264207472616E73666572206661696C656400000000000000000000 PUSH1 0x44 DUP3 ADD MSTORE PUSH1 0x64 ADD PUSH2 0xA4B JUMP JUMPDEST PUSH1 0x4 DUP5 ADD SLOAD PUSH1 0x1 PUSH1 0x1 PUSH1 0xA0 SHL SUB AND ISZERO PUSH2 0x1B21 JUMPI PUSH1 0x4 DUP1 DUP5 ADD SLOAD SWAP1 DUP6 ADD SLOAD PUSH1 0x1 PUSH1 0x1 PUSH1 0xA0 SHL SUB AND PUSH1 0x0 SWAP1 DUP2 MSTORE PUSH1 0x41 PUSH1 0x20 MSTORE PUSH1 0x40 SWAP1 KECCAK256 SLOAD ISZERO PUSH2 0x19B7 JUMPI POP PUSH1 0x4 DUP5 ADD SLOAD PUSH1 0x1 PUSH1 0x1 PUSH1 0xA0 SHL SUB AND PUSH1 0x0 SWAP1 DUP2 MSTORE PUSH1 0x41 PUSH1 0x20 MSTORE PUSH1 0x40 SWAP1 KECCAK256 SLOAD JUMPDEST PUSH1 0x0 PUSH2 0x2710 PUSH2 0x19C6 DUP4 DUP6 PUSH2 0x3FEA JUMP JUMPDEST PUSH2 0x19D0 SWAP2 SWAP1 PUSH2 0x4001 JUMP JUMPDEST SWAP1 POP DUP1 ISZERO PUSH2 0x1AEA JUMPI PUSH1 0x2 DUP6 ADD SLOAD PUSH1 0x4 DUP8 DUP2 ADD SLOAD PUSH1 0x40 MLOAD PUSH4 0xA9059CBB PUSH1 0xE0 SHL DUP2 MSTORE PUSH1 0x1 PUSH1 0x1 PUSH1 0xA0 SHL SUB SWAP2 DUP3 AND SWAP3 DUP2 ADD SWAP3 SWAP1 SWAP3 MSTORE PUSH1 0x24 DUP3 ADD DUP5 SWAP1 MSTORE SWAP1 SWAP2 AND SWAP1 PUSH4 0xA9059CBB SWAP1 PUSH1 0x44 ADD PUSH1 0x20 PUSH1 0x40 MLOAD DUP1 DUP4 SUB DUP2 PUSH1 0x0 DUP8 GAS CALL ISZERO DUP1 ISZERO PUSH2 0x1A35 JUMPI RETURNDATASIZE PUSH1 0x0 DUP1 RETURNDATACOPY RETURNDATASIZE PUSH1 0x0 REVERT JUMPDEST POP POP POP POP PUSH1 0x40 MLOAD RETURNDATASIZE PUSH1 0x1F NOT PUSH1 0x1F DUP3 ADD AND DUP3 ADD DUP1 PUSH1 0x40 MSTORE POP DUP2 ADD SWAP1 PUSH2 0x1A59 SWAP2 SWAP1 PUSH2 0x3FA1 JUMP JUMPDEST PUSH2 0x1AA5 JUMPI PUSH1 0x40 MLOAD PUSH3 0x461BCD PUSH1 0xE5 SHL DUP2 MSTORE PUSH1 0x20 PUSH1 0x4 DUP3 ADD MSTORE PUSH1 0x1F PUSH1 0x24 DUP3 ADD MSTORE PUSH32 0x526566657272616C20526577617264207472616E73666572206661696C656400 PUSH1 0x44 DUP3 ADD MSTORE PUSH1 0x64 ADD PUSH2 0xA4B JUMP JUMPDEST PUSH1 0x4 DUP7 ADD SLOAD PUSH1 0x1 PUSH1 0x1 PUSH1 0xA0 SHL SUB AND PUSH1 0x0 SWAP1 DUP2 MSTORE PUSH1 0x47 PUSH1 0x20 SWAP1 DUP2 MSTORE PUSH1 0x40 DUP1 DUP4 KECCAK256 CALLER DUP5 MSTORE DUP3 MSTORE DUP1 DUP4 KECCAK256 DUP15 DUP5 MSTORE SWAP1 SWAP2 MSTORE DUP2 KECCAK256 DUP1 SLOAD DUP4 SWAP3 SWAP1 PUSH2 0x1AE4 SWAP1 DUP5 SWAP1 PUSH2 0x3F7E JUMP JUMPDEST SWAP1 SWAP2 SSTORE POP POP JUMPDEST PUSH1 0x4 DUP7 ADD SLOAD PUSH1 0x1 PUSH1 0x1 PUSH1 0xA0 SHL SUB AND PUSH1 0x0 SWAP1 DUP2 MSTORE PUSH1 0x42 PUSH1 0x20 MSTORE PUSH1 0x40 DUP2 KECCAK256 PUSH1 0x3 ADD DUP1 SLOAD DUP4 SWAP3 SWAP1 PUSH2 0x1B19 SWAP1 DUP5 SWAP1 PUSH2 0x3F7E JUMP JUMPDEST SWAP1 SWAP2 SSTORE POP POP POP POP JUMPDEST CALLER PUSH1 0x0 SWAP1 DUP2 MSTORE PUSH1 0x42 PUSH1 0x20 MSTORE PUSH1 0x40 DUP2 KECCAK256 PUSH1 0x2 ADD DUP1 SLOAD DUP4 SWAP3 SWAP1 PUSH2 0x1B43 SWAP1 DUP5 SWAP1 PUSH2 0x3F7E JUMP JUMPDEST SWAP3 POP POP DUP2 SWAP1 SSTORE POP DUP1 DUP5 PUSH1 0x2 ADD PUSH1 0x0 DUP3 DUP3 SLOAD PUSH2 0x1B5E SWAP2 SWAP1 PUSH2 0x3F7E JUMP JUMPDEST SWAP1 SWAP2 SSTORE POP POP PUSH1 0x1 SWAP1 SWAP4 ADD SSTORE POP SWAP3 POP PUSH2 0x1B76 JUMP JUMPDEST POP POP POP POP JUMPDEST POP POP SWAP3 SWAP2 POP POP JUMP JUMPDEST PUSH1 0x33 SLOAD PUSH1 0x1 PUSH1 0x1 PUSH1 0xA0 SHL SUB AND CALLER EQ PUSH2 0x1BD0 JUMPI PUSH1 0x40 MLOAD PUSH3 0x461BCD PUSH1 0xE5 SHL DUP2 MSTORE PUSH1 0x20 PUSH1 0x4 DUP3 ADD MSTORE PUSH1 0x21 PUSH1 0x24 DUP3 ADD MSTORE PUSH1 0x0 DUP1 MLOAD PUSH1 0x20 PUSH2 0x417E DUP4 CODECOPY DUP2 MLOAD SWAP2 MSTORE PUSH1 0x44 DUP3 ADD MSTORE PUSH1 0x37 PUSH1 0xF9 SHL PUSH1 0x64 DUP3 ADD MSTORE PUSH1 0x84 ADD PUSH2 0xA4B JUMP JUMPDEST PUSH1 0x33 DUP1 SLOAD PUSH1 0x1 PUSH1 0x1 PUSH1 0xA0 SHL SUB NOT AND PUSH1 0x1 PUSH1 0x1 PUSH1 0xA0 SHL SUB SWAP3 SWAP1 SWAP3 AND SWAP2 SWAP1 SWAP2 OR SWAP1 SSTORE JUMP JUMPDEST DUP3 PUSH1 0x34 SLOAD DUP2 LT PUSH2 0x1C33 JUMPI PUSH1 0x40 MLOAD PUSH3 0x461BCD PUSH1 0xE5 SHL DUP2 MSTORE PUSH1 0x20 PUSH1 0x4 DUP3 ADD MSTORE PUSH1 0xC PUSH1 0x24 DUP3 ADD MSTORE PUSH12 0x125B9D985B1A5908141BDBDB PUSH1 0xA2 SHL PUSH1 0x44 DUP3 ADD MSTORE PUSH1 0x64 ADD PUSH2 0xA4B JUMP JUMPDEST PUSH1 0x0 DUP5 DUP2 MSTORE PUSH1 0x3E PUSH1 0x20 MSTORE PUSH1 0x40 SWAP1 KECCAK256 PUSH1 0x5 ADD SLOAD DUP5 SWAP1 PUSH1 0xFF AND PUSH2 0x1C8B JUMPI PUSH1 0x40 MLOAD PUSH3 0x461BCD PUSH1 0xE5 SHL DUP2 MSTORE PUSH1 0x20 PUSH1 0x4 DUP3 ADD MSTORE PUSH1 0x12 PUSH1 0x24 DUP3 ADD MSTORE PUSH18 0x506F6F6C204973204E6F7420416374697665 PUSH1 0x70 SHL PUSH1 0x44 DUP3 ADD MSTORE PUSH1 0x64 ADD PUSH2 0xA4B JUMP JUMPDEST PUSH1 0x0 DUP5 GT PUSH2 0x1CDB JUMPI PUSH1 0x40 MLOAD PUSH3 0x461BCD PUSH1 0xE5 SHL DUP2 MSTORE PUSH1 0x20 PUSH1 0x4 DUP3 ADD MSTORE PUSH1 0x1D PUSH1 0x24 DUP3 ADD MSTORE PUSH32 0x416D6F756E74206D7573742062652067726561746572207468616E2030000000 PUSH1 0x44 DUP3 ADD MSTORE PUSH1 0x64 ADD PUSH2 0xA4B JUMP JUMPDEST PUSH1 0x1 PUSH1 0x1 PUSH1 0xA0 SHL SUB DUP4 AND CALLER SUB PUSH2 0x1D33 JUMPI PUSH1 0x40 MLOAD PUSH3 0x461BCD PUSH1 0xE5 SHL DUP2 MSTORE PUSH1 0x20 PUSH1 0x4 DUP3 ADD MSTORE PUSH1 0x18 PUSH1 0x24 DUP3 ADD MSTORE PUSH32 0x596F752063616E277420726566657220796F757273656C660000000000000000 PUSH1 0x44 DUP3 ADD MSTORE PUSH1 0x64 ADD PUSH2 0xA4B JUMP JUMPDEST PUSH1 0x0 DUP6 DUP2 MSTORE PUSH1 0x3E PUSH1 0x20 MSTORE PUSH1 0x40 SWAP1 DUP2 SWAP1 KECCAK256 PUSH1 0x1 DUP2 ADD SLOAD SWAP2 MLOAD PUSH32 0x23B872DD00000000000000000000000000000000000000000000000000000000 DUP2 MSTORE CALLER PUSH1 0x4 DUP3 ADD MSTORE ADDRESS PUSH1 0x24 DUP3 ADD MSTORE PUSH1 0x44 DUP2 ADD DUP8 SWAP1 MSTORE SWAP1 SWAP2 PUSH1 0x1 PUSH1 0x1 PUSH1 0xA0 SHL SUB AND SWAP1 PUSH4 0x23B872DD SWAP1 PUSH1 0x64 ADD PUSH1 0x20 PUSH1 0x40 MLOAD DUP1 DUP4 SUB DUP2 PUSH1 0x0 DUP8 GAS CALL ISZERO DUP1 ISZERO PUSH2 0x1DB4 JUMPI RETURNDATASIZE PUSH1 0x0 DUP1 RETURNDATACOPY RETURNDATASIZE PUSH1 0x0 REVERT JUMPDEST POP POP POP POP PUSH1 0x40 MLOAD RETURNDATASIZE PUSH1 0x1F NOT PUSH1 0x1F DUP3 ADD AND DUP3 ADD DUP1 PUSH1 0x40 MSTORE POP DUP2 ADD SWAP1 PUSH2 0x1DD8 SWAP2 SWAP1 PUSH2 0x3FA1 JUMP JUMPDEST PUSH2 0x1E24 JUMPI PUSH1 0x40 MLOAD PUSH3 0x461BCD PUSH1 0xE5 SHL DUP2 MSTORE PUSH1 0x20 PUSH1 0x4 DUP3 ADD MSTORE PUSH1 0x15 PUSH1 0x24 DUP3 ADD MSTORE PUSH32 0x546F6B656E207472616E73666572206661696C65640000000000000000000000 PUSH1 0x44 DUP3 ADD MSTORE PUSH1 0x64 ADD PUSH2 0xA4B JUMP JUMPDEST PUSH1 0x1 PUSH1 0x1 PUSH1 0xA0 SHL SUB DUP5 AND ISZERO DUP1 ISZERO SWAP1 PUSH2 0x1E55 JUMPI POP PUSH1 0x1 PUSH1 0x1 PUSH1 0xA0 SHL SUB DUP5 AND PUSH1 0x0 SWAP1 DUP2 MSTORE PUSH1 0x49 PUSH1 0x20 MSTORE PUSH1 0x40 SWAP1 KECCAK256 SLOAD PUSH1 0xFF AND ISZERO JUMPDEST ISZERO PUSH2 0x1EA4 JUMPI PUSH1 0x1 PUSH1 0x1 PUSH1 0xA0 SHL SUB DUP5 AND PUSH1 0x0 SWAP1 DUP2 MSTORE PUSH1 0x49 PUSH1 0x20 SWAP1 DUP2 MSTORE PUSH1 0x40 DUP1 DUP4 KECCAK256 DUP1 SLOAD PUSH1 0xFF NOT AND PUSH1 0x1 SWAP1 DUP2 OR SWAP1 SWAP2 SSTORE PUSH1 0x42 SWAP1 SWAP3 MSTORE DUP3 KECCAK256 PUSH1 0x4 ADD DUP1 SLOAD SWAP2 SWAP3 SWAP1 SWAP2 PUSH2 0x1E9E SWAP1 DUP5 SWAP1 PUSH2 0x3F7E JUMP JUMPDEST SWAP1 SWAP2 SSTORE POP POP JUMPDEST PUSH1 0x1 PUSH1 0x1 PUSH1 0xA0 SHL SUB DUP5 AND ISZERO PUSH2 0x1F17 JUMPI CALLER PUSH1 0x0 DUP2 DUP2 MSTORE PUSH1 0x48 PUSH1 0x20 SWAP1 DUP2 MSTORE PUSH1 0x40 DUP1 DUP4 KECCAK256 DUP11 DUP5 MSTORE DUP3 MSTORE DUP1 DUP4 KECCAK256 DUP1 SLOAD PUSH1 0x1 PUSH1 0x1 PUSH1 0xA0 SHL SUB DUP11 AND PUSH1 0x1 PUSH1 0x1 PUSH1 0xA0 SHL SUB NOT SWAP2 DUP3 AND DUP2 OR SWAP1 SWAP3 SSTORE SWAP1 DUP5 MSTORE PUSH1 0x46 DUP4 MSTORE DUP2 DUP5 KECCAK256 DUP12 DUP6 MSTORE DUP4 MSTORE SWAP1 DUP4 KECCAK256 DUP1 SLOAD PUSH1 0x1 DUP2 ADD DUP3 SSTORE SWAP1 DUP5 MSTORE SWAP2 SWAP1 SWAP3 KECCAK256 ADD DUP1 SLOAD SWAP1 SWAP2 AND SWAP1 SWAP2 OR SWAP1 SSTORE JUMPDEST CALLER PUSH1 0x0 SWAP1 DUP2 MSTORE PUSH1 0x3F PUSH1 0x20 SWAP1 DUP2 MSTORE PUSH1 0x40 DUP1 DUP4 KECCAK256 DUP10 DUP5 MSTORE DUP3 MSTORE DUP1 DUP4 KECCAK256 DUP2 MLOAD PUSH1 0xC0 DUP2 ADD DUP4 MSTORE DUP10 DUP2 MSTORE TIMESTAMP SWAP4 DUP2 ADD DUP5 SWAP1 MSTORE SWAP2 DUP3 ADD SWAP4 SWAP1 SWAP4 MSTORE PUSH1 0x60 DUP2 ADD SWAP2 SWAP1 SWAP2 MSTORE PUSH1 0x1 PUSH1 0x1 PUSH1 0xA0 SHL SUB DUP7 AND PUSH1 0x80 DUP3 ADD MSTORE PUSH1 0xA0 DUP2 ADD PUSH8 0xDE0B6B3A7640000 PUSH2 0x1F76 PUSH2 0x37F8 JUMP JUMPDEST PUSH2 0x1F80 SWAP1 DUP11 PUSH2 0x3FEA JUMP JUMPDEST PUSH2 0x1F8A SWAP2 SWAP1 PUSH2 0x4001 JUMP JUMPDEST SWAP1 MSTORE DUP2 SLOAD PUSH1 0x1 DUP1 DUP3 ADD DUP5 SSTORE PUSH1 0x0 SWAP4 DUP5 MSTORE PUSH1 0x20 DUP1 DUP6 KECCAK256 DUP5 MLOAD PUSH1 0x6 SWAP5 DUP6 MUL SWAP1 SWAP2 ADD SWAP1 DUP2 SSTORE DUP5 DUP3 ADD MLOAD SWAP3 DUP2 ADD SWAP3 SWAP1 SWAP3 SSTORE PUSH1 0x40 DUP1 DUP6 ADD MLOAD PUSH1 0x2 DUP5 ADD SSTORE PUSH1 0x60 DUP6 ADD MLOAD PUSH1 0x3 DUP5 ADD SSTORE PUSH1 0x80 DUP6 ADD MLOAD PUSH1 0x4 DUP5 ADD DUP1 SLOAD PUSH1 0x1 PUSH1 0x1 PUSH1 0xA0 SHL SUB NOT AND PUSH1 0x1 PUSH1 0x1 PUSH1 0xA0 SHL SUB SWAP1 SWAP3 AND SWAP2 SWAP1 SWAP2 OR SWAP1 SSTORE PUSH1 0xA0 SWAP1 SWAP5 ADD MLOAD PUSH1 0x5 SWAP1 SWAP3 ADD SWAP2 SWAP1 SWAP2 SSTORE DUP10 DUP5 MSTORE PUSH1 0x3E SWAP1 MSTORE SWAP1 DUP3 KECCAK256 ADD DUP1 SLOAD DUP8 SWAP3 SWAP1 PUSH2 0x201C SWAP1 DUP5 SWAP1 PUSH2 0x3F7E JUMP JUMPDEST SWAP1 SWAP2 SSTORE POP POP PUSH1 0x40 DUP1 MLOAD PUSH1 0xA0 DUP2 ADD DUP3 MSTORE CALLER PUSH1 0x0 SWAP1 DUP2 MSTORE PUSH1 0x42 PUSH1 0x20 MSTORE SWAP2 SWAP1 SWAP2 KECCAK256 SLOAD DUP2 SWAP1 PUSH2 0x2048 SWAP1 DUP9 SWAP1 PUSH2 0x3F7E JUMP JUMPDEST DUP2 MSTORE CALLER PUSH1 0x0 SWAP1 DUP2 MSTORE PUSH1 0x42 PUSH1 0x20 SWAP1 DUP2 MSTORE PUSH1 0x40 SWAP1 SWAP2 KECCAK256 PUSH1 0x1 ADD SLOAD SWAP2 ADD SWAP1 PUSH2 0x206E SWAP1 DUP9 SWAP1 PUSH2 0x3F7E JUMP JUMPDEST DUP2 MSTORE CALLER PUSH1 0x0 DUP2 DUP2 MSTORE PUSH1 0x42 PUSH1 0x20 DUP2 DUP2 MSTORE PUSH1 0x40 DUP1 DUP5 KECCAK256 PUSH1 0x2 DUP2 ADD DUP1 SLOAD DUP5 DUP10 ADD MSTORE PUSH1 0x3 DUP3 ADD DUP1 SLOAD DUP5 DUP11 ADD MSTORE PUSH1 0x4 DUP4 ADD DUP1 SLOAD PUSH1 0x60 SWAP11 DUP12 ADD MSTORE SWAP8 DUP8 MSTORE SWAP5 DUP5 MSTORE DUP9 MLOAD DUP3 SSTORE DUP9 DUP5 ADD MLOAD PUSH1 0x1 SWAP1 SWAP3 ADD SWAP2 SWAP1 SWAP2 SSTORE DUP8 DUP3 ADD MLOAD SWAP1 SSTORE SWAP5 DUP7 ADD MLOAD SWAP1 SWAP2 SSTORE PUSH1 0x80 SWAP1 SWAP5 ADD MLOAD SWAP1 SWAP2 SSTORE PUSH1 0x43 DUP4 MSTORE DUP2 DUP2 KECCAK256 DUP10 DUP3 MSTORE SWAP1 SWAP3 MSTORE DUP2 KECCAK256 DUP1 SLOAD DUP8 SWAP3 SWAP1 PUSH2 0x20EE SWAP1 DUP5 SWAP1 PUSH2 0x3F7E JUMP JUMPDEST SWAP1 SWAP2 SSTORE POP POP POP POP POP POP POP POP JUMP JUMPDEST PUSH2 0x2104 CALLER PUSH2 0x3A53 JUMP JUMPDEST PUSH2 0x2150 JUMPI PUSH1 0x40 MLOAD PUSH3 0x461BCD PUSH1 0xE5 SHL DUP2 MSTORE PUSH1 0x20 PUSH1 0x4 DUP3 ADD MSTORE PUSH1 0x11 PUSH1 0x24 DUP3 ADD MSTORE PUSH32 0x4E6F7420612076616C696420766F746572000000000000000000000000000000 PUSH1 0x44 DUP3 ADD MSTORE PUSH1 0x64 ADD PUSH2 0xA4B JUMP JUMPDEST CALLER PUSH1 0x0 SWAP1 DUP2 MSTORE PUSH1 0x39 PUSH1 0x20 MSTORE PUSH1 0x40 SWAP1 KECCAK256 SLOAD PUSH1 0xFF AND ISZERO PUSH2 0x21B0 JUMPI PUSH1 0x40 MLOAD PUSH3 0x461BCD PUSH1 0xE5 SHL DUP2 MSTORE PUSH1 0x20 PUSH1 0x4 DUP3 ADD MSTORE PUSH1 0xD PUSH1 0x24 DUP3 ADD MSTORE PUSH32 0x416C726561647920766F74656400000000000000000000000000000000000000 PUSH1 0x44 DUP3 ADD MSTORE PUSH1 0x64 ADD PUSH2 0xA4B JUMP JUMPDEST CALLER PUSH1 0x0 DUP2 DUP2 MSTORE PUSH1 0x39 PUSH1 0x20 MSTORE PUSH1 0x40 SWAP1 DUP2 SWAP1 KECCAK256 DUP1 SLOAD PUSH1 0xFF NOT AND PUSH1 0x1 OR SWAP1 SSTORE MLOAD PUSH32 0xA4861C5510BFA99706ED508D728F9C6B365FF27AF1A3012E21980952AD2D844F SWAP1 PUSH2 0x21FE SWAP1 DUP5 ISZERO ISZERO DUP2 MSTORE PUSH1 0x20 ADD SWAP1 JUMP JUMPDEST PUSH1 0x40 MLOAD DUP1 SWAP2 SUB SWAP1 LOG2 POP JUMP JUMPDEST PUSH1 0x3B SLOAD PUSH1 0x3C SLOAD PUSH1 0x0 SWAP2 DUP3 SWAP2 PUSH2 0x222A SWAP2 PUSH1 0x1 PUSH1 0x1 PUSH1 0xA0 SHL SUB SWAP1 DUP2 AND SWAP2 AND PUSH2 0x36E9 JUMP JUMPDEST SWAP1 POP PUSH1 0x1 PUSH1 0x1 PUSH1 0xA0 SHL SUB DUP2 AND PUSH2 0x2242 JUMPI PUSH1 0x0 SWAP2 POP POP SWAP1 JUMP JUMPDEST PUSH1 0x0 DUP1 PUSH2 0x224E DUP4 PUSH2 0x12DD JUMP JUMPDEST PUSH1 0x3A SLOAD PUSH1 0x40 MLOAD PUSH32 0x85F8C25900000000000000000000000000000000000000000000000000000000 DUP2 MSTORE PUSH8 0xDE0B6B3A7640000 PUSH1 0x4 DUP3 ADD MSTORE PUSH14 0xFFFFFFFFFFFFFFFFFFFFFFFFFFFF DUP1 DUP5 AND PUSH1 0x24 DUP4 ADD MSTORE DUP5 AND PUSH1 0x44 DUP3 ADD MSTORE SWAP3 SWAP5 POP SWAP1 SWAP3 POP PUSH1 0x0 SWAP2 PUSH1 0x1 PUSH1 0x1 PUSH1 0xA0 SHL SUB SWAP1 SWAP2 AND SWAP1 PUSH4 0x85F8C259 SWAP1 PUSH1 0x64 ADD PUSH1 0x20 PUSH1 0x40 MLOAD DUP1 DUP4 SUB DUP2 DUP7 GAS STATICCALL ISZERO DUP1 ISZERO PUSH2 0x22DE JUMPI RETURNDATASIZE PUSH1 0x0 DUP1 RETURNDATACOPY RETURNDATASIZE PUSH1 0x0 REVERT JUMPDEST POP POP POP POP PUSH1 0x40 MLOAD RETURNDATASIZE PUSH1 0x1F NOT PUSH1 0x1F DUP3 ADD AND DUP3 ADD DUP1 PUSH1 0x40 MSTORE POP DUP2 ADD SWAP1 PUSH2 0x2302 SWAP2 SWAP1 PUSH2 0x4098 JUMP JUMPDEST SWAP6 SWAP5 POP POP POP POP POP JUMP JUMPDEST PUSH1 0x33 SLOAD PUSH1 0x1 PUSH1 0x1 PUSH1 0xA0 SHL SUB AND CALLER EQ PUSH2 0x235D JUMPI PUSH1 0x40 MLOAD PUSH3 0x461BCD PUSH1 0xE5 SHL DUP2 MSTORE PUSH1 0x20 PUSH1 0x4 DUP3 ADD MSTORE PUSH1 0x21 PUSH1 0x24 DUP3 ADD MSTORE PUSH1 0x0 DUP1 MLOAD PUSH1 0x20 PUSH2 0x417E DUP4 CODECOPY DUP2 MLOAD SWAP2 MSTORE PUSH1 0x44 DUP3 ADD MSTORE PUSH1 0x37 PUSH1 0xF9 SHL PUSH1 0x64 DUP3 ADD MSTORE PUSH1 0x84 ADD PUSH2 0xA4B JUMP JUMPDEST PUSH1 0x36 SSTORE JUMP JUMPDEST PUSH1 0x0 DUP1 DUP1 JUMPDEST PUSH1 0x34 SLOAD DUP2 LT ISZERO PUSH2 0x243F JUMPI PUSH1 0x0 JUMPDEST PUSH1 0x1 PUSH1 0x1 PUSH1 0xA0 SHL SUB DUP6 AND PUSH1 0x0 SWAP1 DUP2 MSTORE PUSH1 0x46 PUSH1 0x20 SWAP1 DUP2 MSTORE PUSH1 0x40 DUP1 DUP4 KECCAK256 DUP6 DUP5 MSTORE SWAP1 SWAP2 MSTORE SWAP1 KECCAK256 SLOAD DUP2 LT ISZERO PUSH2 0x242C JUMPI PUSH1 0x1 PUSH1 0x1 PUSH1 0xA0 SHL SUB DUP6 AND PUSH1 0x0 SWAP1 DUP2 MSTORE PUSH1 0x47 PUSH1 0x20 SWAP1 DUP2 MSTORE PUSH1 0x40 DUP1 DUP4 KECCAK256 PUSH1 0x46 DUP4 MSTORE DUP2 DUP5 KECCAK256 DUP7 DUP6 MSTORE SWAP1 SWAP3 MSTORE DUP3 KECCAK256 DUP1 SLOAD SWAP2 SWAP3 SWAP2 DUP5 SWAP1 DUP2 LT PUSH2 0x23DE JUMPI PUSH2 0x23DE PUSH2 0x3F52 JUMP JUMPDEST PUSH1 0x0 SWAP2 DUP3 MSTORE PUSH1 0x20 DUP1 DUP4 KECCAK256 SWAP1 SWAP2 ADD SLOAD PUSH1 0x1 PUSH1 0x1 PUSH1 0xA0 SHL SUB AND DUP4 MSTORE DUP3 DUP2 ADD SWAP4 SWAP1 SWAP4 MSTORE PUSH1 0x40 SWAP2 DUP3 ADD DUP2 KECCAK256 DUP6 DUP3 MSTORE SWAP1 SWAP3 MSTORE SWAP1 KECCAK256 SLOAD PUSH2 0x2418 SWAP1 DUP5 PUSH2 0x3F7E JUMP JUMPDEST SWAP3 POP DUP1 PUSH2 0x2424 DUP2 PUSH2 0x3FD1 JUMP JUMPDEST SWAP2 POP POP PUSH2 0x2374 JUMP JUMPDEST POP DUP1 PUSH2 0x2437 DUP2 PUSH2 0x3FD1 JUMP JUMPDEST SWAP2 POP POP PUSH2 0x2367 JUMP JUMPDEST POP SWAP3 SWAP2 POP POP JUMP JUMPDEST PUSH1 0x45 SLOAD PUSH1 0x40 DUP1 MLOAD PUSH4 0x3850C7BD PUSH1 0xE0 SHL DUP2 MSTORE SWAP1 MLOAD PUSH1 0x0 SWAP3 PUSH1 0x1 PUSH1 0x1 PUSH1 0xA0 SHL SUB AND SWAP2 DUP4 SWAP2 DUP4 SWAP2 PUSH4 0x3850C7BD SWAP2 PUSH1 0x4 DUP1 DUP4 ADD SWAP3 PUSH1 0xE0 SWAP3 SWAP2 SWAP1 DUP3 SWAP1 SUB ADD DUP2 DUP7 GAS STATICCALL ISZERO DUP1 ISZERO PUSH2 0x2494 JUMPI RETURNDATASIZE PUSH1 0x0 DUP1 RETURNDATACOPY RETURNDATASIZE PUSH1 0x0 REVERT JUMPDEST POP POP POP POP PUSH1 0x40 MLOAD RETURNDATASIZE PUSH1 0x1F NOT PUSH1 0x1F DUP3 ADD AND DUP3 ADD DUP1 PUSH1 0x40 MSTORE POP DUP2 ADD SWAP1 PUSH2 0x24B8 SWAP2 SWAP1 PUSH2 0x40C3 JUMP JUMPDEST MLOAD SWAP1 POP PUSH1 0x1 PUSH1 0x1 PUSH1 0xA0 SHL SUB DUP2 AND PUSH1 0x0 PUSH1 0x1 PUSH1 0xC0 SHL PUSH2 0x24D6 DUP4 DUP1 PUSH2 0x3FEA JUMP JUMPDEST PUSH2 0x24E8 SWAP1 PUSH8 0xDE0B6B3A7640000 PUSH2 0x3FEA JUMP JUMPDEST PUSH2 0x2302 SWAP2 SWAP1 PUSH2 0x4001 JUMP JUMPDEST PUSH1 0x33 SLOAD PUSH1 0x1 PUSH1 0x1 PUSH1 0xA0 SHL SUB AND CALLER EQ PUSH2 0x2544 JUMPI PUSH1 0x40 MLOAD PUSH3 0x461BCD PUSH1 0xE5 SHL DUP2 MSTORE PUSH1 0x20 PUSH1 0x4 DUP3 ADD MSTORE PUSH1 0x21 PUSH1 0x24 DUP3 ADD MSTORE PUSH1 0x0 DUP1 MLOAD PUSH1 0x20 PUSH2 0x417E DUP4 CODECOPY DUP2 MLOAD SWAP2 MSTORE PUSH1 0x44 DUP3 ADD MSTORE PUSH1 0x37 PUSH1 0xF9 SHL PUSH1 0x64 DUP3 ADD MSTORE PUSH1 0x84 ADD PUSH2 0xA4B JUMP JUMPDEST PUSH2 0x254C PUSH2 0x39F4 JUMP JUMPDEST PUSH1 0x40 MLOAD PUSH32 0x70A0823100000000000000000000000000000000000000000000000000000000 DUP2 MSTORE ADDRESS PUSH1 0x4 DUP3 ADD MSTORE PUSH1 0x1 PUSH1 0x1 PUSH1 0xA0 SHL SUB DUP3 AND SWAP1 PUSH4 0xA9059CBB SWAP1 DUP5 SWAP1 DUP4 SWAP1 PUSH4 0x70A08231 SWAP1 PUSH1 0x24 ADD PUSH1 0x20 PUSH1 0x40 MLOAD DUP1 DUP4 SUB DUP2 DUP7 GAS STATICCALL ISZERO DUP1 ISZERO PUSH2 0x25B3 JUMPI RETURNDATASIZE PUSH1 0x0 DUP1 RETURNDATACOPY RETURNDATASIZE PUSH1 0x0 REVERT JUMPDEST POP POP POP POP PUSH1 0x40 MLOAD RETURNDATASIZE PUSH1 0x1F NOT PUSH1 0x1F DUP3 ADD AND DUP3 ADD DUP1 PUSH1 0x40 MSTORE POP DUP2 ADD SWAP1 PUSH2 0x25D7 SWAP2 SWAP1 PUSH2 0x4098 JUMP JUMPDEST PUSH1 0x40 MLOAD PUSH32 0xFFFFFFFF00000000000000000000000000000000000000000000000000000000 PUSH1 0xE0 DUP6 SWAP1 SHL AND DUP2 MSTORE PUSH1 0x1 PUSH1 0x1 PUSH1 0xA0 SHL SUB SWAP1 SWAP3 AND PUSH1 0x4 DUP4 ADD MSTORE PUSH1 0x24 DUP3 ADD MSTORE PUSH1 0x44 ADD PUSH1 0x20 PUSH1 0x40 MLOAD DUP1 DUP4 SUB DUP2 PUSH1 0x0 DUP8 GAS CALL ISZERO DUP1 ISZERO PUSH2 0x263A JUMPI RETURNDATASIZE PUSH1 0x0 DUP1 RETURNDATACOPY RETURNDATASIZE PUSH1 0x0 REVERT JUMPDEST POP POP POP POP PUSH1 0x40 MLOAD RETURNDATASIZE PUSH1 0x1F NOT PUSH1 0x1F DUP3 ADD AND DUP3 ADD DUP1 PUSH1 0x40 MSTORE POP DUP2 ADD SWAP1 PUSH2 0x265E SWAP2 SWAP1 PUSH2 0x3FA1 JUMP JUMPDEST POP PUSH2 0x2668 PUSH1 0x1 DUP1 SSTORE JUMP JUMPDEST POP POP JUMP JUMPDEST PUSH1 0x1 PUSH1 0x1 PUSH1 0xA0 SHL SUB DUP3 AND PUSH1 0x0 SWAP1 DUP2 MSTORE PUSH1 0x43 PUSH1 0x20 SWAP1 DUP2 MSTORE PUSH1 0x40 DUP1 DUP4 KECCAK256 DUP5 DUP5 MSTORE SWAP1 SWAP2 MSTORE DUP2 KECCAK256 SLOAD DUP2 SWAP1 ISZERO PUSH2 0x2791 JUMPI PUSH1 0x0 JUMPDEST PUSH1 0x1 PUSH1 0x1 PUSH1 0xA0 SHL SUB DUP6 AND PUSH1 0x0 SWAP1 DUP2 MSTORE PUSH1 0x3F PUSH1 0x20 SWAP1 DUP2 MSTORE PUSH1 0x40 DUP1 DUP4 KECCAK256 DUP8 DUP5 MSTORE SWAP1 SWAP2 MSTORE SWAP1 KECCAK256 SLOAD DUP2 LT ISZERO PUSH2 0x13AD JUMPI PUSH1 0x0 DUP5 DUP2 MSTORE PUSH1 0x3E PUSH1 0x20 SWAP1 DUP2 MSTORE PUSH1 0x40 DUP1 DUP4 KECCAK256 SLOAD PUSH1 0x1 PUSH1 0x1 PUSH1 0xA0 SHL SUB DUP10 AND DUP5 MSTORE PUSH1 0x3F DUP4 MSTORE DUP2 DUP5 KECCAK256 DUP9 DUP6 MSTORE SWAP1 SWAP3 MSTORE SWAP1 SWAP2 KECCAK256 DUP1 SLOAD TIMESTAMP SWAP3 SWAP2 SWAP1 DUP5 SWAP1 DUP2 LT PUSH2 0x2709 JUMPI PUSH2 0x2709 PUSH2 0x3F52 JUMP JUMPDEST SWAP1 PUSH1 0x0 MSTORE PUSH1 0x20 PUSH1 0x0 KECCAK256 SWAP1 PUSH1 0x6 MUL ADD PUSH1 0x3 ADD SLOAD PUSH2 0x2725 SWAP2 SWAP1 PUSH2 0x3F7E JUMP JUMPDEST GT PUSH2 0x277F JUMPI PUSH1 0x1 PUSH1 0x1 PUSH1 0xA0 SHL SUB DUP6 AND PUSH1 0x0 SWAP1 DUP2 MSTORE PUSH1 0x3F PUSH1 0x20 SWAP1 DUP2 MSTORE PUSH1 0x40 DUP1 DUP4 KECCAK256 DUP8 DUP5 MSTORE SWAP1 SWAP2 MSTORE SWAP1 KECCAK256 DUP1 SLOAD DUP3 SWAP1 DUP2 LT PUSH2 0x275F JUMPI PUSH2 0x275F PUSH2 0x3F52 JUMP JUMPDEST SWAP1 PUSH1 0x0 MSTORE PUSH1 0x20 PUSH1 0x0 KECCAK256 SWAP1 PUSH1 0x6 MUL ADD PUSH1 0x0 ADD SLOAD DUP3 PUSH2 0x277C SWAP2 SWAP1 PUSH2 0x3F7E JUMP JUMPDEST SWAP2 POP JUMPDEST DUP1 PUSH2 0x2789 DUP2 PUSH2 0x3FD1 JUMP JUMPDEST SWAP2 POP POP PUSH2 0x269A JUMP JUMPDEST SWAP4 SWAP3 POP POP POP JUMP JUMPDEST PUSH1 0x0 SLOAD PUSH2 0x100 SWAP1 DIV PUSH1 0xFF AND ISZERO DUP1 DUP1 ISZERO PUSH2 0x27B8 JUMPI POP PUSH1 0x0 SLOAD PUSH1 0x1 PUSH1 0xFF SWAP1 SWAP2 AND LT JUMPDEST DUP1 PUSH2 0x27D2 JUMPI POP ADDRESS EXTCODESIZE ISZERO DUP1 ISZERO PUSH2 0x27D2 JUMPI POP PUSH1 0x0 SLOAD PUSH1 0xFF AND PUSH1 0x1 EQ JUMPDEST PUSH2 0x2844 JUMPI PUSH1 0x40 MLOAD PUSH3 0x461BCD PUSH1 0xE5 SHL DUP2 MSTORE PUSH1 0x20 PUSH1 0x4 DUP3 ADD MSTORE PUSH1 0x2E PUSH1 0x24 DUP3 ADD MSTORE PUSH32 0x496E697469616C697A61626C653A20636F6E747261637420697320616C726561 PUSH1 0x44 DUP3 ADD MSTORE PUSH32 0x647920696E697469616C697A6564000000000000000000000000000000000000 PUSH1 0x64 DUP3 ADD MSTORE PUSH1 0x84 ADD PUSH2 0xA4B JUMP JUMPDEST PUSH1 0x0 DUP1 SLOAD PUSH1 0xFF NOT AND PUSH1 0x1 OR SWAP1 SSTORE DUP1 ISZERO PUSH2 0x2867 JUMPI PUSH1 0x0 DUP1 SLOAD PUSH2 0xFF00 NOT AND PUSH2 0x100 OR SWAP1 SSTORE JUMPDEST PUSH2 0x286F PUSH2 0x3ABC JUMP JUMPDEST PUSH1 0x33 DUP1 SLOAD PUSH1 0x1 PUSH1 0x1 PUSH1 0xA0 SHL SUB NOT SWAP1 DUP2 AND CALLER OR SWAP1 SWAP2 SSTORE PUSH4 0x1E13380 PUSH1 0x35 SSTORE PUSH5 0xE8D4A51000 PUSH1 0x36 SSTORE PUSH1 0x3A DUP1 SLOAD DUP3 AND PUSH20 0x9AC64CC6E4415144C455BD8E4837FEA55603E5C3 OR SWAP1 SSTORE PUSH1 0x3B DUP1 SLOAD DUP3 AND PUSH20 0x9F7B09EB38ED912AB5932DCCAD0B1F501ABFE6FD OR SWAP1 SSTORE PUSH1 0x3C DUP1 SLOAD DUP3 AND PUSH20 0xD1FAC5FF5D03B70D3383909692D09FC6D97C8219 OR SWAP1 SSTORE PUSH1 0x3D DUP1 SLOAD SWAP1 SWAP2 AND PUSH20 0xB7926C0430AFB07AA7DEFDE6DA862AE0BDE767BC OR SWAP1 SSTORE PUSH1 0x0 JUMPDEST DUP3 MLOAD DUP2 LT ISZERO PUSH2 0x297B JUMPI PUSH1 0x38 DUP4 DUP3 DUP2 MLOAD DUP2 LT PUSH2 0x292E JUMPI PUSH2 0x292E PUSH2 0x3F52 JUMP JUMPDEST PUSH1 0x20 SWAP1 DUP2 MUL SWAP2 SWAP1 SWAP2 ADD DUP2 ADD MLOAD DUP3 SLOAD PUSH1 0x1 DUP2 ADD DUP5 SSTORE PUSH1 0x0 SWAP4 DUP5 MSTORE SWAP2 SWAP1 SWAP3 KECCAK256 ADD DUP1 SLOAD PUSH1 0x1 PUSH1 0x1 PUSH1 0xA0 SHL SUB NOT AND PUSH1 0x1 PUSH1 0x1 PUSH1 0xA0 SHL SUB SWAP1 SWAP3 AND SWAP2 SWAP1 SWAP2 OR SWAP1 SSTORE DUP1 PUSH2 0x2973 DUP2 PUSH2 0x3FD1 JUMP JUMPDEST SWAP2 POP POP PUSH2 0x2911 JUMP JUMPDEST POP DUP1 ISZERO PUSH2 0x2668 JUMPI PUSH1 0x0 DUP1 SLOAD PUSH2 0xFF00 NOT AND SWAP1 SSTORE PUSH1 0x40 MLOAD PUSH1 0x1 DUP2 MSTORE PUSH32 0x7F26B83FF96E1F2B6A682F133852F6798A09C465DA95921460CEFB3847402498 SWAP1 PUSH1 0x20 ADD PUSH1 0x40 MLOAD DUP1 SWAP2 SUB SWAP1 LOG1 POP POP JUMP JUMPDEST PUSH1 0x33 SLOAD PUSH1 0x1 PUSH1 0x1 PUSH1 0xA0 SHL SUB AND CALLER EQ PUSH2 0x2A17 JUMPI PUSH1 0x40 MLOAD PUSH3 0x461BCD PUSH1 0xE5 SHL DUP2 MSTORE PUSH1 0x20 PUSH1 0x4 DUP3 ADD MSTORE PUSH1 0x21 PUSH1 0x24 DUP3 ADD MSTORE PUSH1 0x0 DUP1 MLOAD PUSH1 0x20 PUSH2 0x417E DUP4 CODECOPY DUP2 MLOAD SWAP2 MSTORE PUSH1 0x44 DUP3 ADD MSTORE PUSH1 0x37 PUSH1 0xF9 SHL PUSH1 0x64 DUP3 ADD MSTORE PUSH1 0x84 ADD PUSH2 0xA4B JUMP JUMPDEST PUSH1 0x3C DUP1 SLOAD PUSH1 0x1 PUSH1 0x1 PUSH1 0xA0 SHL SUB NOT AND PUSH1 0x1 PUSH1 0x1 PUSH1 0xA0 SHL SUB SWAP3 SWAP1 SWAP3 AND SWAP2 SWAP1 SWAP2 OR SWAP1 SSTORE JUMP JUMPDEST DUP1 PUSH1 0x34 SLOAD DUP2 LT PUSH2 0x2A7A JUMPI PUSH1 0x40 MLOAD PUSH3 0x461BCD PUSH1 0xE5 SHL DUP2 MSTORE PUSH1 0x20 PUSH1 0x4 DUP3 ADD MSTORE PUSH1 0xC PUSH1 0x24 DUP3 ADD MSTORE PUSH12 0x125B9D985B1A5908141BDBDB PUSH1 0xA2 SHL PUSH1 0x44 DUP3 ADD MSTORE PUSH1 0x64 ADD PUSH2 0xA4B JUMP JUMPDEST PUSH2 0x2A82 PUSH2 0x39F4 JUMP JUMPDEST PUSH1 0x0 DUP3 DUP2 MSTORE PUSH1 0x3E PUSH1 0x20 MSTORE PUSH1 0x40 SWAP1 KECCAK256 PUSH1 0x5 ADD SLOAD DUP3 SWAP1 PUSH1 0xFF AND PUSH2 0x2ADA JUMPI PUSH1 0x40 MLOAD PUSH3 0x461BCD PUSH1 0xE5 SHL DUP2 MSTORE PUSH1 0x20 PUSH1 0x4 DUP3 ADD MSTORE PUSH1 0x12 PUSH1 0x24 DUP3 ADD MSTORE PUSH18 0x506F6F6C204973204E6F7420416374697665 PUSH1 0x70 SHL PUSH1 0x44 DUP3 ADD MSTORE PUSH1 0x64 ADD PUSH2 0xA4B JUMP JUMPDEST PUSH1 0x0 DUP4 DUP2 MSTORE PUSH1 0x3E PUSH1 0x20 MSTORE PUSH1 0x40 DUP2 KECCAK256 SWAP1 DUP1 JUMPDEST CALLER PUSH1 0x0 SWAP1 DUP2 MSTORE PUSH1 0x3F PUSH1 0x20 SWAP1 DUP2 MSTORE PUSH1 0x40 DUP1 DUP4 KECCAK256 DUP10 DUP5 MSTORE SWAP1 SWAP2 MSTORE SWAP1 KECCAK256 SLOAD DUP2 LT ISZERO PUSH2 0x2D95 JUMPI CALLER PUSH1 0x0 SWAP1 DUP2 MSTORE PUSH1 0x3F PUSH1 0x20 SWAP1 DUP2 MSTORE PUSH1 0x40 DUP1 DUP4 KECCAK256 DUP10 DUP5 MSTORE SWAP1 SWAP2 MSTORE DUP2 KECCAK256 DUP1 SLOAD DUP4 SWAP1 DUP2 LT PUSH2 0x2B39 JUMPI PUSH2 0x2B39 PUSH2 0x3F52 JUMP JUMPDEST SWAP1 PUSH1 0x0 MSTORE PUSH1 0x20 PUSH1 0x0 KECCAK256 SWAP1 PUSH1 0x6 MUL ADD SWAP1 POP PUSH1 0x0 DUP2 PUSH1 0x0 ADD SLOAD GT ISZERO PUSH2 0x2D82 JUMPI TIMESTAMP PUSH1 0x0 PUSH2 0x2B64 DUP10 DUP6 CALLER PUSH2 0x1032 JUMP JUMPDEST PUSH1 0x4 DUP5 ADD SLOAD SWAP1 SWAP2 POP PUSH1 0x1 PUSH1 0x1 PUSH1 0xA0 SHL SUB AND ISZERO PUSH2 0x2D2A JUMPI PUSH1 0x4 DUP1 DUP8 ADD SLOAD SWAP1 DUP5 ADD SLOAD PUSH1 0x1 PUSH1 0x1 PUSH1 0xA0 SHL SUB AND PUSH1 0x0 SWAP1 DUP2 MSTORE PUSH1 0x41 PUSH1 0x20 MSTORE PUSH1 0x40 SWAP1 KECCAK256 SLOAD ISZERO PUSH2 0x2BC0 JUMPI POP PUSH1 0x4 DUP4 ADD SLOAD PUSH1 0x1 PUSH1 0x1 PUSH1 0xA0 SHL SUB AND PUSH1 0x0 SWAP1 DUP2 MSTORE PUSH1 0x41 PUSH1 0x20 MSTORE PUSH1 0x40 SWAP1 KECCAK256 SLOAD JUMPDEST PUSH1 0x0 PUSH2 0x2710 PUSH2 0x2BCF DUP4 DUP6 PUSH2 0x3FEA JUMP JUMPDEST PUSH2 0x2BD9 SWAP2 SWAP1 PUSH2 0x4001 JUMP JUMPDEST SWAP1 POP DUP1 ISZERO PUSH2 0x2D27 JUMPI PUSH1 0x2 DUP9 ADD SLOAD PUSH1 0x4 DUP7 DUP2 ADD SLOAD PUSH1 0x40 MLOAD PUSH4 0xA9059CBB PUSH1 0xE0 SHL DUP2 MSTORE PUSH1 0x1 PUSH1 0x1 PUSH1 0xA0 SHL SUB SWAP2 DUP3 AND SWAP3 DUP2 ADD SWAP3 SWAP1 SWAP3 MSTORE PUSH1 0x24 DUP3 ADD DUP5 SWAP1 MSTORE SWAP1 SWAP2 AND SWAP1 PUSH4 0xA9059CBB SWAP1 PUSH1 0x44 ADD PUSH1 0x20 PUSH1 0x40 MLOAD DUP1 DUP4 SUB DUP2 PUSH1 0x0 DUP8 GAS CALL ISZERO DUP1 ISZERO PUSH2 0x2C3E JUMPI RETURNDATASIZE PUSH1 0x0 DUP1 RETURNDATACOPY RETURNDATASIZE PUSH1 0x0 REVERT JUMPDEST POP POP POP POP PUSH1 0x40 MLOAD RETURNDATASIZE PUSH1 0x1F NOT PUSH1 0x1F DUP3 ADD AND DUP3 ADD DUP1 PUSH1 0x40 MSTORE POP DUP2 ADD SWAP1 PUSH2 0x2C62 SWAP2 SWAP1 PUSH2 0x3FA1 JUMP JUMPDEST PUSH2 0x2CAE JUMPI PUSH1 0x40 MLOAD PUSH3 0x461BCD PUSH1 0xE5 SHL DUP2 MSTORE PUSH1 0x20 PUSH1 0x4 DUP3 ADD MSTORE PUSH1 0x1F PUSH1 0x24 DUP3 ADD MSTORE PUSH32 0x526566657272616C20526577617264207472616E73666572206661696C656400 PUSH1 0x44 DUP3 ADD MSTORE PUSH1 0x64 ADD PUSH2 0xA4B JUMP JUMPDEST PUSH1 0x4 DUP6 ADD SLOAD PUSH1 0x1 PUSH1 0x1 PUSH1 0xA0 SHL SUB AND PUSH1 0x0 SWAP1 DUP2 MSTORE PUSH1 0x47 PUSH1 0x20 SWAP1 DUP2 MSTORE PUSH1 0x40 DUP1 DUP4 KECCAK256 CALLER DUP5 MSTORE DUP3 MSTORE DUP1 DUP4 KECCAK256 DUP15 DUP5 MSTORE SWAP1 SWAP2 MSTORE DUP2 KECCAK256 DUP1 SLOAD DUP4 SWAP3 SWAP1 PUSH2 0x2CED SWAP1 DUP5 SWAP1 PUSH2 0x3F7E JUMP JUMPDEST SWAP1 SWAP2 SSTORE POP POP PUSH1 0x4 DUP6 ADD SLOAD PUSH1 0x1 PUSH1 0x1 PUSH1 0xA0 SHL SUB AND PUSH1 0x0 SWAP1 DUP2 MSTORE PUSH1 0x42 PUSH1 0x20 MSTORE PUSH1 0x40 DUP2 KECCAK256 PUSH1 0x3 ADD DUP1 SLOAD DUP4 SWAP3 SWAP1 PUSH2 0x2D21 SWAP1 DUP5 SWAP1 PUSH2 0x3F7E JUMP JUMPDEST SWAP1 SWAP2 SSTORE POP POP JUMPDEST POP POP JUMPDEST CALLER PUSH1 0x0 SWAP1 DUP2 MSTORE PUSH1 0x42 PUSH1 0x20 MSTORE PUSH1 0x40 DUP2 KECCAK256 PUSH1 0x2 ADD DUP1 SLOAD DUP4 SWAP3 SWAP1 PUSH2 0x2D4C SWAP1 DUP5 SWAP1 PUSH2 0x3F7E JUMP JUMPDEST SWAP3 POP POP DUP2 SWAP1 SSTORE POP DUP1 DUP4 PUSH1 0x2 ADD PUSH1 0x0 DUP3 DUP3 SLOAD PUSH2 0x2D67 SWAP2 SWAP1 PUSH2 0x3F7E JUMP JUMPDEST SWAP1 SWAP2 SSTORE POP POP PUSH1 0x1 DUP4 ADD DUP3 SWAP1 SSTORE PUSH2 0x2D7D DUP2 DUP7 PUSH2 0x3F7E JUMP JUMPDEST SWAP5 POP POP POP JUMPDEST POP DUP1 PUSH2 0x2D8D DUP2 PUSH2 0x3FD1 JUMP JUMPDEST SWAP2 POP POP PUSH2 0x2AEB JUMP JUMPDEST POP DUP1 ISZERO PUSH2 0x2E5F JUMPI PUSH1 0x2 DUP3 ADD SLOAD PUSH1 0x40 MLOAD PUSH4 0xA9059CBB PUSH1 0xE0 SHL DUP2 MSTORE CALLER PUSH1 0x4 DUP3 ADD MSTORE PUSH1 0x24 DUP2 ADD DUP4 SWAP1 MSTORE PUSH1 0x1 PUSH1 0x1 PUSH1 0xA0 SHL SUB SWAP1 SWAP2 AND SWAP1 PUSH4 0xA9059CBB SWAP1 PUSH1 0x44 ADD PUSH1 0x20 PUSH1 0x40 MLOAD DUP1 DUP4 SUB DUP2 PUSH1 0x0 DUP8 GAS CALL ISZERO DUP1 ISZERO PUSH2 0x2DEF JUMPI RETURNDATASIZE PUSH1 0x0 DUP1 RETURNDATACOPY RETURNDATASIZE PUSH1 0x0 REVERT JUMPDEST POP POP POP POP PUSH1 0x40 MLOAD RETURNDATASIZE PUSH1 0x1F NOT PUSH1 0x1F DUP3 ADD AND DUP3 ADD DUP1 PUSH1 0x40 MSTORE POP DUP2 ADD SWAP1 PUSH2 0x2E13 SWAP2 SWAP1 PUSH2 0x3FA1 JUMP JUMPDEST PUSH2 0x2E5F JUMPI PUSH1 0x40 MLOAD PUSH3 0x461BCD PUSH1 0xE5 SHL DUP2 MSTORE PUSH1 0x20 PUSH1 0x4 DUP3 ADD MSTORE PUSH1 0x16 PUSH1 0x24 DUP3 ADD MSTORE PUSH32 0x526577617264207472616E73666572206661696C656400000000000000000000 PUSH1 0x44 DUP3 ADD MSTORE PUSH1 0x64 ADD PUSH2 0xA4B JUMP JUMPDEST POP POP POP PUSH2 0x2668 PUSH1 0x1 DUP1 SSTORE JUMP JUMPDEST PUSH1 0x33 SLOAD PUSH1 0x1 PUSH1 0x1 PUSH1 0xA0 SHL SUB AND CALLER EQ PUSH2 0x2EBD JUMPI PUSH1 0x40 MLOAD PUSH3 0x461BCD PUSH1 0xE5 SHL DUP2 MSTORE PUSH1 0x20 PUSH1 0x4 DUP3 ADD MSTORE PUSH1 0x21 PUSH1 0x24 DUP3 ADD MSTORE PUSH1 0x0 DUP1 MLOAD PUSH1 0x20 PUSH2 0x417E DUP4 CODECOPY DUP2 MLOAD SWAP2 MSTORE PUSH1 0x44 DUP3 ADD MSTORE PUSH1 0x37 PUSH1 0xF9 SHL PUSH1 0x64 DUP3 ADD MSTORE PUSH1 0x84 ADD PUSH2 0xA4B JUMP JUMPDEST DUP2 PUSH1 0x34 SLOAD DUP2 LT PUSH2 0x2EFE JUMPI PUSH1 0x40 MLOAD PUSH3 0x461BCD PUSH1 0xE5 SHL DUP2 MSTORE PUSH1 0x20 PUSH1 0x4 DUP3 ADD MSTORE PUSH1 0xC PUSH1 0x24 DUP3 ADD MSTORE PUSH12 0x125B9D985B1A5908141BDBDB PUSH1 0xA2 SHL PUSH1 0x44 DUP3 ADD MSTORE PUSH1 0x64 ADD PUSH2 0xA4B JUMP JUMPDEST PUSH1 0x0 DUP4 DUP2 MSTORE PUSH1 0x3E PUSH1 0x20 MSTORE PUSH1 0x40 SWAP1 KECCAK256 PUSH1 0x5 ADD SLOAD DUP4 SWAP1 PUSH1 0xFF AND PUSH2 0x2F56 JUMPI PUSH1 0x40 MLOAD PUSH3 0x461BCD PUSH1 0xE5 SHL DUP2 MSTORE PUSH1 0x20 PUSH1 0x4 DUP3 ADD MSTORE PUSH1 0x12 PUSH1 0x24 DUP3 ADD MSTORE PUSH18 0x506F6F6C204973204E6F7420416374697665 PUSH1 0x70 SHL PUSH1 0x44 DUP3 ADD MSTORE PUSH1 0x64 ADD PUSH2 0xA4B JUMP JUMPDEST PUSH1 0x0 DUP5 GT DUP1 ISZERO PUSH2 0x2F68 JUMPI POP PUSH1 0x34 SLOAD DUP5 GT ISZERO JUMPDEST PUSH2 0x2FA6 JUMPI PUSH1 0x40 MLOAD PUSH3 0x461BCD PUSH1 0xE5 SHL DUP2 MSTORE PUSH1 0x20 PUSH1 0x4 DUP3 ADD MSTORE PUSH1 0xF PUSH1 0x24 DUP3 ADD MSTORE PUSH15 0x125B9D985B1A59081C1BDBDB081251 PUSH1 0x8A SHL PUSH1 0x44 DUP3 ADD MSTORE PUSH1 0x64 ADD PUSH2 0xA4B JUMP JUMPDEST POP POP PUSH1 0x0 SWAP2 DUP3 MSTORE PUSH1 0x3E PUSH1 0x20 MSTORE PUSH1 0x40 SWAP1 SWAP2 KECCAK256 SSTORE JUMP JUMPDEST PUSH1 0x33 SLOAD PUSH1 0x1 PUSH1 0x1 PUSH1 0xA0 SHL SUB AND CALLER EQ PUSH2 0x300C JUMPI PUSH1 0x40 MLOAD PUSH3 0x461BCD PUSH1 0xE5 SHL DUP2 MSTORE PUSH1 0x20 PUSH1 0x4 DUP3 ADD MSTORE PUSH1 0x21 PUSH1 0x24 DUP3 ADD MSTORE PUSH1 0x0 DUP1 MLOAD PUSH1 0x20 PUSH2 0x417E DUP4 CODECOPY DUP2 MLOAD SWAP2 MSTORE PUSH1 0x44 DUP3 ADD MSTORE PUSH1 0x37 PUSH1 0xF9 SHL PUSH1 0x64 DUP3 ADD MSTORE PUSH1 0x84 ADD PUSH2 0xA4B JUMP JUMPDEST PUSH2 0x3014 PUSH2 0x39F4 JUMP JUMPDEST DUP2 PUSH1 0x34 SLOAD DUP2 LT PUSH2 0x3055 JUMPI PUSH1 0x40 MLOAD PUSH3 0x461BCD PUSH1 0xE5 SHL DUP2 MSTORE PUSH1 0x20 PUSH1 0x4 DUP3 ADD MSTORE PUSH1 0xC PUSH1 0x24 DUP3 ADD MSTORE PUSH12 0x125B9D985B1A5908141BDBDB PUSH1 0xA2 SHL PUSH1 0x44 DUP3 ADD MSTORE PUSH1 0x64 ADD PUSH2 0xA4B JUMP JUMPDEST PUSH1 0x0 DUP4 DUP2 MSTORE PUSH1 0x3E PUSH1 0x20 MSTORE PUSH1 0x40 SWAP1 KECCAK256 PUSH1 0x5 ADD SLOAD DUP4 SWAP1 PUSH1 0xFF AND PUSH2 0x30AD JUMPI PUSH1 0x40 MLOAD PUSH3 0x461BCD PUSH1 0xE5 SHL DUP2 MSTORE PUSH1 0x20 PUSH1 0x4 DUP3 ADD MSTORE PUSH1 0x12 PUSH1 0x24 DUP3 ADD MSTORE PUSH18 0x506F6F6C204973204E6F7420416374697665 PUSH1 0x70 SHL PUSH1 0x44 DUP3 ADD MSTORE PUSH1 0x64 ADD PUSH2 0xA4B JUMP JUMPDEST PUSH1 0x0 DUP5 GT DUP1 ISZERO PUSH2 0x30BF JUMPI POP PUSH1 0x34 SLOAD DUP5 GT ISZERO JUMPDEST PUSH2 0x30FD JUMPI PUSH1 0x40 MLOAD PUSH3 0x461BCD PUSH1 0xE5 SHL DUP2 MSTORE PUSH1 0x20 PUSH1 0x4 DUP3 ADD MSTORE PUSH1 0xF PUSH1 0x24 DUP3 ADD MSTORE PUSH15 0x125B9D985B1A59081C1BDBDB081251 PUSH1 0x8A SHL PUSH1 0x44 DUP3 ADD MSTORE PUSH1 0x64 ADD PUSH2 0xA4B JUMP JUMPDEST POP POP PUSH1 0x0 DUP3 DUP2 MSTORE PUSH1 0x3E PUSH1 0x20 MSTORE PUSH1 0x40 SWAP1 KECCAK256 PUSH1 0x2 ADD DUP1 SLOAD PUSH1 0x1 PUSH1 0x1 PUSH1 0xA0 SHL SUB NOT AND PUSH1 0x1 PUSH1 0x1 PUSH1 0xA0 SHL SUB DUP4 AND OR SWAP1 SSTORE PUSH1 0x1 DUP1 SSTORE POP POP JUMP JUMPDEST PUSH1 0x33 SLOAD PUSH1 0x1 PUSH1 0x1 PUSH1 0xA0 SHL SUB AND CALLER EQ PUSH2 0x3183 JUMPI PUSH1 0x40 MLOAD PUSH3 0x461BCD PUSH1 0xE5 SHL DUP2 MSTORE PUSH1 0x20 PUSH1 0x4 DUP3 ADD MSTORE PUSH1 0x21 PUSH1 0x24 DUP3 ADD MSTORE PUSH1 0x0 DUP1 MLOAD PUSH1 0x20 PUSH2 0x417E DUP4 CODECOPY DUP2 MLOAD SWAP2 MSTORE PUSH1 0x44 DUP3 ADD MSTORE PUSH1 0x37 PUSH1 0xF9 SHL PUSH1 0x64 DUP3 ADD MSTORE PUSH1 0x84 ADD PUSH2 0xA4B JUMP JUMPDEST DUP2 PUSH1 0x34 SLOAD DUP2 LT PUSH2 0x31C4 JUMPI PUSH1 0x40 MLOAD PUSH3 0x461BCD PUSH1 0xE5 SHL DUP2 MSTORE PUSH1 0x20 PUSH1 0x4 DUP3 ADD MSTORE PUSH1 0xC PUSH1 0x24 DUP3 ADD MSTORE PUSH12 0x125B9D985B1A5908141BDBDB PUSH1 0xA2 SHL PUSH1 0x44 DUP3 ADD MSTORE PUSH1 0x64 ADD PUSH2 0xA4B JUMP JUMPDEST PUSH1 0x0 DUP4 DUP2 MSTORE PUSH1 0x3E PUSH1 0x20 MSTORE PUSH1 0x40 SWAP1 KECCAK256 PUSH1 0x5 ADD SLOAD DUP4 SWAP1 PUSH1 0xFF AND PUSH2 0x321C JUMPI PUSH1 0x40 MLOAD PUSH3 0x461BCD PUSH1 0xE5 SHL DUP2 MSTORE PUSH1 0x20 PUSH1 0x4 DUP3 ADD MSTORE PUSH1 0x12 PUSH1 0x24 DUP3 ADD MSTORE PUSH18 0x506F6F6C204973204E6F7420416374697665 PUSH1 0x70 SHL PUSH1 0x44 DUP3 ADD MSTORE PUSH1 0x64 ADD PUSH2 0xA4B JUMP JUMPDEST POP POP PUSH1 0x0 SWAP2 DUP3 MSTORE PUSH1 0x3E PUSH1 0x20 MSTORE PUSH1 0x40 SWAP1 SWAP2 KECCAK256 PUSH1 0x4 ADD SSTORE JUMP JUMPDEST PUSH1 0x33 SLOAD PUSH1 0x1 PUSH1 0x1 PUSH1 0xA0 SHL SUB AND CALLER EQ PUSH2 0x3285 JUMPI PUSH1 0x40 MLOAD PUSH3 0x461BCD PUSH1 0xE5 SHL DUP2 MSTORE PUSH1 0x20 PUSH1 0x4 DUP3 ADD MSTORE PUSH1 0x21 PUSH1 0x24 DUP3 ADD MSTORE PUSH1 0x0 DUP1 MLOAD PUSH1 0x20 PUSH2 0x417E DUP4 CODECOPY DUP2 MLOAD SWAP2 MSTORE PUSH1 0x44 DUP3 ADD MSTORE PUSH1 0x37 PUSH1 0xF9 SHL PUSH1 0x64 DUP3 ADD MSTORE PUSH1 0x84 ADD PUSH2 0xA4B JUMP JUMPDEST PUSH1 0x38 SLOAD PUSH1 0x0 SWAP1 DUP2 JUMPDEST DUP2 DUP2 LT ISZERO PUSH2 0x32F9 JUMPI PUSH1 0x39 PUSH1 0x0 PUSH1 0x38 DUP4 DUP2 SLOAD DUP2 LT PUSH2 0x32AC JUMPI PUSH2 0x32AC PUSH2 0x3F52 JUMP JUMPDEST PUSH1 0x0 SWAP2 DUP3 MSTORE PUSH1 0x20 DUP1 DUP4 KECCAK256 SWAP1 SWAP2 ADD SLOAD PUSH1 0x1 PUSH1 0x1 PUSH1 0xA0 SHL SUB AND DUP4 MSTORE DUP3 ADD SWAP3 SWAP1 SWAP3 MSTORE PUSH1 0x40 ADD SWAP1 KECCAK256 SLOAD PUSH1 0xFF AND ISZERO PUSH2 0x32E7 JUMPI DUP3 PUSH2 0x32E3 DUP2 PUSH2 0x3FD1 JUMP JUMPDEST SWAP4 POP POP JUMPDEST DUP1 PUSH2 0x32F1 DUP2 PUSH2 0x3FD1 JUMP JUMPDEST SWAP2 POP POP PUSH2 0x328D JUMP JUMPDEST POP DUP2 DUP2 EQ DUP1 PUSH2 0x334A JUMPI PUSH1 0x40 MLOAD PUSH3 0x461BCD PUSH1 0xE5 SHL DUP2 MSTORE PUSH1 0x20 PUSH1 0x4 DUP3 ADD MSTORE PUSH1 0x16 PUSH1 0x24 DUP3 ADD MSTORE PUSH32 0x496E73756666696369656E7420617070726F76616C7300000000000000000000 PUSH1 0x44 DUP3 ADD MSTORE PUSH1 0x64 ADD PUSH2 0xA4B JUMP JUMPDEST PUSH1 0x37 DUP1 SLOAD PUSH1 0x33 DUP1 SLOAD PUSH1 0x1 PUSH1 0x1 PUSH1 0xA0 SHL SUB DUP4 AND PUSH1 0x1 PUSH1 0x1 PUSH1 0xA0 SHL SUB NOT SWAP2 DUP3 AND DUP2 OR SWAP1 SWAP3 SSTORE SWAP1 SWAP2 AND SWAP1 SWAP2 SSTORE PUSH1 0x0 JUMPDEST DUP4 DUP2 LT ISZERO PUSH2 0x1784 JUMPI PUSH1 0x0 PUSH1 0x39 PUSH1 0x0 PUSH1 0x38 DUP5 DUP2 SLOAD DUP2 LT PUSH2 0x3397 JUMPI PUSH2 0x3397 PUSH2 0x3F52 JUMP JUMPDEST PUSH1 0x0 SWAP2 DUP3 MSTORE PUSH1 0x20 DUP1 DUP4 KECCAK256 SWAP2 SWAP1 SWAP2 ADD SLOAD PUSH1 0x1 PUSH1 0x1 PUSH1 0xA0 SHL SUB AND DUP4 MSTORE DUP3 ADD SWAP3 SWAP1 SWAP3 MSTORE PUSH1 0x40 ADD SWAP1 KECCAK256 DUP1 SLOAD PUSH1 0xFF NOT AND SWAP2 ISZERO ISZERO SWAP2 SWAP1 SWAP2 OR SWAP1 SSTORE DUP1 PUSH2 0x33D5 DUP2 PUSH2 0x3FD1 JUMP JUMPDEST SWAP2 POP POP PUSH2 0x3376 JUMP JUMPDEST PUSH1 0x46 PUSH1 0x20 MSTORE DUP3 PUSH1 0x0 MSTORE PUSH1 0x40 PUSH1 0x0 KECCAK256 PUSH1 0x20 MSTORE DUP2 PUSH1 0x0 MSTORE PUSH1 0x40 PUSH1 0x0 KECCAK256 DUP2 DUP2 SLOAD DUP2 LT PUSH2 0x3405 JUMPI PUSH1 0x0 DUP1 REVERT JUMPDEST PUSH1 0x0 SWAP2 DUP3 MSTORE PUSH1 0x20 SWAP1 SWAP2 KECCAK256 ADD SLOAD PUSH1 0x1 PUSH1 0x1 PUSH1 0xA0 SHL SUB AND SWAP3 POP DUP4 SWAP2 POP POP JUMP JUMPDEST PUSH1 0x33 SLOAD PUSH1 0x1 PUSH1 0x1 PUSH1 0xA0 SHL SUB AND CALLER EQ PUSH2 0x3474 JUMPI PUSH1 0x40 MLOAD PUSH3 0x461BCD PUSH1 0xE5 SHL DUP2 MSTORE PUSH1 0x20 PUSH1 0x4 DUP3 ADD MSTORE PUSH1 0x21 PUSH1 0x24 DUP3 ADD MSTORE PUSH1 0x0 DUP1 MLOAD PUSH1 0x20 PUSH2 0x417E DUP4 CODECOPY DUP2 MLOAD SWAP2 MSTORE PUSH1 0x44 DUP3 ADD MSTORE PUSH1 0x37 PUSH1 0xF9 SHL PUSH1 0x64 DUP3 ADD MSTORE PUSH1 0x84 ADD PUSH2 0xA4B JUMP JUMPDEST PUSH1 0x3A DUP1 SLOAD PUSH1 0x1 PUSH1 0x1 PUSH1 0xA0 SHL SUB NOT AND PUSH1 0x1 PUSH1 0x1 PUSH1 0xA0 SHL SUB SWAP3 SWAP1 SWAP3 AND SWAP2 SWAP1 SWAP2 OR SWAP1 SSTORE JUMP JUMPDEST PUSH1 0x0 DUP1 DUP1 JUMPDEST PUSH1 0x1 PUSH1 0x1 PUSH1 0xA0 SHL SUB DUP5 AND PUSH1 0x0 SWAP1 DUP2 MSTORE PUSH1 0x3F PUSH1 0x20 SWAP1 DUP2 MSTORE PUSH1 0x40 DUP1 DUP4 KECCAK256 DUP9 DUP5 MSTORE SWAP1 SWAP2 MSTORE SWAP1 KECCAK256 SLOAD DUP2 LT ISZERO PUSH2 0x13AD JUMPI PUSH2 0x34D1 DUP6 DUP3 DUP7 PUSH2 0x1032 JUMP JUMPDEST PUSH2 0x34DB SWAP1 DUP4 PUSH2 0x3F7E JUMP JUMPDEST SWAP2 POP DUP1 PUSH2 0x34E7 DUP2 PUSH2 0x3FD1 JUMP JUMPDEST SWAP2 POP POP PUSH2 0x349B JUMP JUMPDEST PUSH1 0x33 SLOAD PUSH1 0x1 PUSH1 0x1 PUSH1 0xA0 SHL SUB AND CALLER EQ PUSH2 0x3541 JUMPI PUSH1 0x40 MLOAD PUSH3 0x461BCD PUSH1 0xE5 SHL DUP2 MSTORE PUSH1 0x20 PUSH1 0x4 DUP3 ADD MSTORE PUSH1 0x21 PUSH1 0x24 DUP3 ADD MSTORE PUSH1 0x0 DUP1 MLOAD PUSH1 0x20 PUSH2 0x417E DUP4 CODECOPY DUP2 MLOAD SWAP2 MSTORE PUSH1 0x44 DUP3 ADD MSTORE PUSH1 0x37 PUSH1 0xF9 SHL PUSH1 0x64 DUP3 ADD MSTORE PUSH1 0x84 ADD PUSH2 0xA4B JUMP JUMPDEST PUSH2 0x3549 PUSH2 0x39F4 JUMP JUMPDEST DUP2 PUSH1 0x34 SLOAD DUP2 LT PUSH2 0x358A JUMPI PUSH1 0x40 MLOAD PUSH3 0x461BCD PUSH1 0xE5 SHL DUP2 MSTORE PUSH1 0x20 PUSH1 0x4 DUP3 ADD MSTORE PUSH1 0xC PUSH1 0x24 DUP3 ADD MSTORE PUSH12 0x125B9D985B1A5908141BDBDB PUSH1 0xA2 SHL PUSH1 0x44 DUP3 ADD MSTORE PUSH1 0x64 ADD PUSH2 0xA4B JUMP JUMPDEST PUSH1 0x0 DUP4 DUP2 MSTORE PUSH1 0x3E PUSH1 0x20 MSTORE PUSH1 0x40 SWAP1 KECCAK256 PUSH1 0x5 ADD SLOAD DUP4 SWAP1 PUSH1 0xFF AND PUSH2 0x35E2 JUMPI PUSH1 0x40 MLOAD PUSH3 0x461BCD PUSH1 0xE5 SHL DUP2 MSTORE PUSH1 0x20 PUSH1 0x4 DUP3 ADD MSTORE PUSH1 0x12 PUSH1 0x24 DUP3 ADD MSTORE PUSH18 0x506F6F6C204973204E6F7420416374697665 PUSH1 0x70 SHL PUSH1 0x44 DUP3 ADD MSTORE PUSH1 0x64 ADD PUSH2 0xA4B JUMP JUMPDEST PUSH1 0x0 DUP5 GT DUP1 ISZERO PUSH2 0x35F4 JUMPI POP PUSH1 0x34 SLOAD DUP5 GT ISZERO JUMPDEST PUSH2 0x3632 JUMPI PUSH1 0x40 MLOAD PUSH3 0x461BCD PUSH1 0xE5 SHL DUP2 MSTORE PUSH1 0x20 PUSH1 0x4 DUP3 ADD MSTORE PUSH1 0xF PUSH1 0x24 DUP3 ADD MSTORE PUSH15 0x125B9D985B1A59081C1BDBDB081251 PUSH1 0x8A SHL PUSH1 0x44 DUP3 ADD MSTORE PUSH1 0x64 ADD PUSH2 0xA4B JUMP JUMPDEST POP POP PUSH1 0x0 DUP3 DUP2 MSTORE PUSH1 0x3E PUSH1 0x20 MSTORE PUSH1 0x40 SWAP1 KECCAK256 PUSH1 0x3 ADD DUP2 SWAP1 SSTORE PUSH2 0x2668 PUSH1 0x1 DUP1 SSTORE JUMP JUMPDEST PUSH1 0x38 DUP2 DUP2 SLOAD DUP2 LT PUSH2 0x3661 JUMPI PUSH1 0x0 DUP1 REVERT JUMPDEST PUSH1 0x0 SWAP2 DUP3 MSTORE PUSH1 0x20 SWAP1 SWAP2 KECCAK256 ADD SLOAD PUSH1 0x1 PUSH1 0x1 PUSH1 0xA0 SHL SUB AND SWAP1 POP DUP2 JUMP JUMPDEST PUSH1 0x33 SLOAD PUSH1 0x1 PUSH1 0x1 PUSH1 0xA0 SHL SUB AND CALLER EQ PUSH2 0x36CD JUMPI PUSH1 0x40 MLOAD PUSH3 0x461BCD PUSH1 0xE5 SHL DUP2 MSTORE PUSH1 0x20 PUSH1 0x4 DUP3 ADD MSTORE PUSH1 0x21 PUSH1 0x24 DUP3 ADD MSTORE PUSH1 0x0 DUP1 MLOAD PUSH1 0x20 PUSH2 0x417E DUP4 CODECOPY DUP2 MLOAD SWAP2 MSTORE PUSH1 0x44 DUP3 ADD MSTORE PUSH1 0x37 PUSH1 0xF9 SHL PUSH1 0x64 DUP3 ADD MSTORE PUSH1 0x84 ADD PUSH2 0xA4B JUMP JUMPDEST PUSH1 0x1 PUSH1 0x1 PUSH1 0xA0 SHL SUB SWAP1 SWAP2 AND PUSH1 0x0 SWAP1 DUP2 MSTORE PUSH1 0x41 PUSH1 0x20 MSTORE PUSH1 0x40 SWAP1 KECCAK256 SSTORE JUMP JUMPDEST PUSH1 0x3D SLOAD PUSH1 0x40 MLOAD PUSH32 0xE6A4390500000000000000000000000000000000000000000000000000000000 DUP2 MSTORE PUSH1 0x1 PUSH1 0x1 PUSH1 0xA0 SHL SUB DUP5 DUP2 AND PUSH1 0x4 DUP4 ADD MSTORE DUP4 DUP2 AND PUSH1 0x24 DUP4 ADD MSTORE PUSH1 0x0 SWAP3 DUP4 SWAP3 SWAP2 AND SWAP1 PUSH4 0xE6A43905 SWAP1 PUSH1 0x44 ADD PUSH1 0x20 PUSH1 0x40 MLOAD DUP1 DUP4 SUB DUP2 DUP7 GAS STATICCALL ISZERO DUP1 ISZERO PUSH2 0x3758 JUMPI RETURNDATASIZE PUSH1 0x0 DUP1 RETURNDATACOPY RETURNDATASIZE PUSH1 0x0 REVERT JUMPDEST POP POP POP POP PUSH1 0x40 MLOAD RETURNDATASIZE PUSH1 0x1F NOT PUSH1 0x1F DUP3 ADD AND DUP3 ADD DUP1 PUSH1 0x40 MSTORE POP DUP2 ADD SWAP1 PUSH2 0x377C SWAP2 SWAP1 PUSH2 0x4160 JUMP JUMPDEST SWAP5 SWAP4 POP POP POP POP JUMP JUMPDEST PUSH1 0x33 SLOAD PUSH1 0x1 PUSH1 0x1 PUSH1 0xA0 SHL SUB AND CALLER EQ PUSH2 0x37D6 JUMPI PUSH1 0x40 MLOAD PUSH3 0x461BCD PUSH1 0xE5 SHL DUP2 MSTORE PUSH1 0x20 PUSH1 0x4 DUP3 ADD MSTORE PUSH1 0x21 PUSH1 0x24 DUP3 ADD MSTORE PUSH1 0x0 DUP1 MLOAD PUSH1 0x20 PUSH2 0x417E DUP4 CODECOPY DUP2 MLOAD SWAP2 MSTORE PUSH1 0x44 DUP3 ADD MSTORE PUSH1 0x37 PUSH1 0xF9 SHL PUSH1 0x64 DUP3 ADD MSTORE PUSH1 0x84 ADD PUSH2 0xA4B JUMP JUMPDEST PUSH1 0x45 DUP1 SLOAD PUSH1 0x1 PUSH1 0x1 PUSH1 0xA0 SHL SUB NOT AND PUSH1 0x1 PUSH1 0x1 PUSH1 0xA0 SHL SUB SWAP3 SWAP1 SWAP3 AND SWAP2 SWAP1 SWAP2 OR SWAP1 SSTORE JUMP JUMPDEST PUSH1 0x45 SLOAD PUSH1 0x40 DUP1 MLOAD PUSH4 0x3850C7BD PUSH1 0xE0 SHL DUP2 MSTORE SWAP1 MLOAD PUSH1 0x0 SWAP3 PUSH1 0x1 PUSH1 0x1 PUSH1 0xA0 SHL SUB AND SWAP2 DUP4 SWAP2 DUP4 SWAP2 PUSH4 0x3850C7BD SWAP2 PUSH1 0x4 DUP1 DUP4 ADD SWAP3 PUSH1 0xE0 SWAP3 SWAP2 SWAP1 DUP3 SWAP1 SUB ADD DUP2 DUP7 GAS STATICCALL ISZERO DUP1 ISZERO PUSH2 0x3846 JUMPI RETURNDATASIZE PUSH1 0x0 DUP1 RETURNDATACOPY RETURNDATASIZE PUSH1 0x0 REVERT JUMPDEST POP POP POP POP PUSH1 0x40 MLOAD RETURNDATASIZE PUSH1 0x1F NOT PUSH1 0x1F DUP3 ADD AND DUP3 ADD DUP1 PUSH1 0x40 MSTORE POP DUP2 ADD SWAP1 PUSH2 0x386A SWAP2 SWAP1 PUSH2 0x40C3 JUMP JUMPDEST MLOAD SWAP1 POP PUSH1 0x1 PUSH1 0x1 PUSH1 0xA0 SHL SUB DUP2 AND PUSH1 0x0 PUSH1 0x1 PUSH1 0xC0 SHL PUSH2 0x3888 DUP4 DUP1 PUSH2 0x3FEA JUMP JUMPDEST PUSH2 0x389A SWAP1 PUSH8 0xDE0B6B3A7640000 PUSH2 0x3FEA JUMP JUMPDEST PUSH2 0x38A4 SWAP2 SWAP1 PUSH2 0x4001 JUMP JUMPDEST SWAP1 POP PUSH1 0x0 PUSH2 0x38C1 DUP3 PUSH15 0xC097CE7BC90715B34B9F1000000000 PUSH2 0x4001 JUMP JUMPDEST SWAP7 SWAP6 POP POP POP POP POP POP JUMP JUMPDEST PUSH1 0x33 SLOAD PUSH1 0x1 PUSH1 0x1 PUSH1 0xA0 SHL SUB AND CALLER EQ PUSH2 0x391D JUMPI PUSH1 0x40 MLOAD PUSH3 0x461BCD PUSH1 0xE5 SHL DUP2 MSTORE PUSH1 0x20 PUSH1 0x4 DUP3 ADD MSTORE PUSH1 0x21 PUSH1 0x24 DUP3 ADD MSTORE PUSH1 0x0 DUP1 MLOAD PUSH1 0x20 PUSH2 0x417E DUP4 CODECOPY DUP2 MLOAD SWAP2 MSTORE PUSH1 0x44 DUP3 ADD MSTORE PUSH1 0x37 PUSH1 0xF9 SHL PUSH1 0x64 DUP3 ADD MSTORE PUSH1 0x84 ADD PUSH2 0xA4B JUMP JUMPDEST PUSH2 0x3925 PUSH2 0x39F4 JUMP JUMPDEST PUSH1 0x40 DUP1 MLOAD PUSH1 0xE0 DUP2 ADD DUP3 MSTORE DUP7 DUP2 MSTORE PUSH1 0x1 PUSH1 0x1 PUSH1 0xA0 SHL SUB DUP1 DUP8 AND PUSH1 0x20 DUP1 DUP5 ADD SWAP2 DUP3 MSTORE DUP8 DUP4 AND DUP5 DUP7 ADD SWAP1 DUP2 MSTORE PUSH1 0x60 DUP6 ADD DUP9 DUP2 MSTORE PUSH1 0x80 DUP7 ADD DUP9 DUP2 MSTORE PUSH1 0x1 PUSH1 0xA0 DUP9 ADD DUP2 DUP2 MSTORE PUSH1 0x0 PUSH1 0xC0 DUP11 ADD DUP2 DUP2 MSTORE PUSH1 0x34 DUP1 SLOAD DUP4 MSTORE PUSH1 0x3E SWAP1 SWAP9 MSTORE SWAP11 DUP2 KECCAK256 SWAP10 MLOAD DUP11 SSTORE SWAP7 MLOAD SWAP2 DUP10 ADD DUP1 SLOAD SWAP3 DUP10 AND PUSH1 0x1 PUSH1 0x1 PUSH1 0xA0 SHL SUB NOT SWAP4 DUP5 AND OR SWAP1 SSTORE SWAP4 MLOAD PUSH1 0x2 DUP10 ADD DUP1 SLOAD SWAP2 SWAP1 SWAP9 AND SWAP2 AND OR SWAP1 SWAP6 SSTORE MLOAD PUSH1 0x3 DUP7 ADD SSTORE SWAP3 MLOAD PUSH1 0x4 DUP6 ADD SSTORE SWAP2 MLOAD PUSH1 0x5 DUP5 ADD DUP1 SLOAD SWAP2 ISZERO ISZERO PUSH1 0xFF NOT SWAP1 SWAP3 AND SWAP2 SWAP1 SWAP2 OR SWAP1 SSTORE SWAP3 MLOAD PUSH1 0x6 SWAP1 SWAP3 ADD SWAP2 SWAP1 SWAP2 SSTORE DUP1 SLOAD SWAP2 PUSH2 0x39E6 DUP4 PUSH2 0x3FD1 JUMP JUMPDEST SWAP2 SWAP1 POP SSTORE POP PUSH2 0x1784 PUSH1 0x1 DUP1 SSTORE JUMP JUMPDEST PUSH1 0x2 PUSH1 0x1 SLOAD SUB PUSH2 0x3A46 JUMPI PUSH1 0x40 MLOAD PUSH3 0x461BCD PUSH1 0xE5 SHL DUP2 MSTORE PUSH1 0x20 PUSH1 0x4 DUP3 ADD MSTORE PUSH1 0x1F PUSH1 0x24 DUP3 ADD MSTORE PUSH32 0x5265656E7472616E637947756172643A207265656E7472616E742063616C6C00 PUSH1 0x44 DUP3 ADD MSTORE PUSH1 0x64 ADD PUSH2 0xA4B JUMP JUMPDEST PUSH1 0x2 PUSH1 0x1 SSTORE JUMP JUMPDEST PUSH1 0x1 DUP1 SSTORE JUMP JUMPDEST PUSH1 0x0 DUP1 JUMPDEST PUSH1 0x38 SLOAD DUP2 LT ISZERO PUSH2 0x3AB3 JUMPI DUP3 PUSH1 0x1 PUSH1 0x1 PUSH1 0xA0 SHL SUB AND PUSH1 0x38 DUP3 DUP2 SLOAD DUP2 LT PUSH2 0x3A7E JUMPI PUSH2 0x3A7E PUSH2 0x3F52 JUMP JUMPDEST PUSH1 0x0 SWAP2 DUP3 MSTORE PUSH1 0x20 SWAP1 SWAP2 KECCAK256 ADD SLOAD PUSH1 0x1 PUSH1 0x1 PUSH1 0xA0 SHL SUB AND SUB PUSH2 0x3AA1 JUMPI POP PUSH1 0x1 SWAP3 SWAP2 POP POP JUMP JUMPDEST DUP1 PUSH2 0x3AAB DUP2 PUSH2 0x3FD1 JUMP JUMPDEST SWAP2 POP POP PUSH2 0x3A57 JUMP JUMPDEST POP PUSH1 0x0 SWAP3 SWAP2 POP POP JUMP JUMPDEST PUSH1 0x0 SLOAD PUSH2 0x100 SWAP1 DIV PUSH1 0xFF AND PUSH2 0x3B39 JUMPI PUSH1 0x40 MLOAD PUSH3 0x461BCD PUSH1 0xE5 SHL DUP2 MSTORE PUSH1 0x20 PUSH1 0x4 DUP3 ADD MSTORE PUSH1 0x2B PUSH1 0x24 DUP3 ADD MSTORE PUSH32 0x496E697469616C697A61626C653A20636F6E7472616374206973206E6F742069 PUSH1 0x44 DUP3 ADD MSTORE PUSH32 0x6E697469616C697A696E67000000000000000000000000000000000000000000 PUSH1 0x64 DUP3 ADD MSTORE PUSH1 0x84 ADD PUSH2 0xA4B JUMP JUMPDEST PUSH2 0x3B41 PUSH2 0x3B43 JUMP JUMPDEST JUMP JUMPDEST PUSH1 0x0 SLOAD PUSH2 0x100 SWAP1 DIV PUSH1 0xFF AND PUSH2 0x3A4D JUMPI PUSH1 0x40 MLOAD PUSH3 0x461BCD PUSH1 0xE5 SHL DUP2 MSTORE PUSH1 0x20 PUSH1 0x4 DUP3 ADD MSTORE PUSH1 0x2B PUSH1 0x24 DUP3 ADD MSTORE PUSH32 0x496E697469616C697A61626C653A20636F6E7472616374206973206E6F742069 PUSH1 0x44 DUP3 ADD MSTORE PUSH32 0x6E697469616C697A696E67000000000000000000000000000000000000000000 PUSH1 0x64 DUP3 ADD MSTORE PUSH1 0x84 ADD PUSH2 0xA4B JUMP JUMPDEST PUSH1 0x0 DUP1 PUSH1 0x40 DUP4 DUP6 SUB SLT ISZERO PUSH2 0x3BD3 JUMPI PUSH1 0x0 DUP1 REVERT JUMPDEST POP POP DUP1 CALLDATALOAD SWAP3 PUSH1 0x20 SWAP1 SWAP2 ADD CALLDATALOAD SWAP2 POP JUMP JUMPDEST PUSH1 0x1 PUSH1 0x1 PUSH1 0xA0 SHL SUB DUP2 AND DUP2 EQ PUSH2 0xF40 JUMPI PUSH1 0x0 DUP1 REVERT JUMPDEST PUSH1 0x0 PUSH1 0x20 DUP3 DUP5 SUB SLT ISZERO PUSH2 0x3C09 JUMPI PUSH1 0x0 DUP1 REVERT JUMPDEST DUP2 CALLDATALOAD PUSH2 0x2791 DUP2 PUSH2 0x3BE2 JUMP JUMPDEST PUSH1 0x0 PUSH1 0x20 DUP3 DUP5 SUB SLT ISZERO PUSH2 0x3C26 JUMPI PUSH1 0x0 DUP1 REVERT JUMPDEST POP CALLDATALOAD SWAP2 SWAP1 POP JUMP JUMPDEST PUSH1 0x0 DUP1 PUSH1 0x0 PUSH1 0x60 DUP5 DUP7 SUB SLT ISZERO PUSH2 0x3C42 JUMPI PUSH1 0x0 DUP1 REVERT JUMPDEST DUP4 CALLDATALOAD SWAP3 POP PUSH1 0x20 DUP5 ADD CALLDATALOAD SWAP2 POP PUSH1 0x40 DUP5 ADD CALLDATALOAD PUSH2 0x3C5B DUP2 PUSH2 0x3BE2 JUMP JUMPDEST DUP1 SWAP2 POP POP SWAP3 POP SWAP3 POP SWAP3 JUMP JUMPDEST PUSH1 0x0 DUP1 PUSH1 0x40 DUP4 DUP6 SUB SLT ISZERO PUSH2 0x3C79 JUMPI PUSH1 0x0 DUP1 REVERT JUMPDEST DUP3 CALLDATALOAD PUSH2 0x3C84 DUP2 PUSH2 0x3BE2 JUMP JUMPDEST SWAP5 PUSH1 0x20 SWAP4 SWAP1 SWAP4 ADD CALLDATALOAD SWAP4 POP POP POP JUMP JUMPDEST PUSH1 0x20 DUP1 DUP3 MSTORE DUP3 MLOAD DUP3 DUP3 ADD DUP2 SWAP1 MSTORE PUSH1 0x0 SWAP2 SWAP1 DUP5 DUP3 ADD SWAP1 PUSH1 0x40 DUP6 ADD SWAP1 DUP5 JUMPDEST DUP2 DUP2 LT ISZERO PUSH2 0x3CD3 JUMPI DUP4 MLOAD PUSH1 0x1 PUSH1 0x1 PUSH1 0xA0 SHL SUB AND DUP4 MSTORE SWAP3 DUP5 ADD SWAP3 SWAP2 DUP5 ADD SWAP2 PUSH1 0x1 ADD PUSH2 0x3CAE JUMP JUMPDEST POP SWAP1 SWAP7 SWAP6 POP POP POP POP POP POP JUMP JUMPDEST PUSH1 0x0 DUP1 PUSH1 0x0 PUSH1 0x60 DUP5 DUP7 SUB SLT ISZERO PUSH2 0x3CF4 JUMPI PUSH1 0x0 DUP1 REVERT JUMPDEST DUP4 CALLDATALOAD PUSH2 0x3CFF DUP2 PUSH2 0x3BE2 JUMP JUMPDEST SWAP6 PUSH1 0x20 DUP6 ADD CALLDATALOAD SWAP6 POP PUSH1 0x40 SWAP1 SWAP5 ADD CALLDATALOAD SWAP4 SWAP3 POP POP POP JUMP JUMPDEST PUSH1 0x0 DUP1 PUSH1 0x0 PUSH1 0x60 DUP5 DUP7 SUB SLT ISZERO PUSH2 0x3D29 JUMPI PUSH1 0x0 DUP1 REVERT JUMPDEST DUP4 CALLDATALOAD PUSH2 0x3D34 DUP2 PUSH2 0x3BE2 JUMP JUMPDEST SWAP3 POP PUSH1 0x20 DUP5 ADD CALLDATALOAD PUSH2 0x3D44 DUP2 PUSH2 0x3BE2 JUMP JUMPDEST SWAP3 SWAP6 SWAP3 SWAP5 POP POP POP PUSH1 0x40 SWAP2 SWAP1 SWAP2 ADD CALLDATALOAD SWAP1 JUMP JUMPDEST PUSH1 0x0 DUP1 PUSH1 0x40 DUP4 DUP6 SUB SLT ISZERO PUSH2 0x3D68 JUMPI PUSH1 0x0 DUP1 REVERT JUMPDEST DUP3 CALLDATALOAD PUSH2 0x3D73 DUP2 PUSH2 0x3BE2 JUMP JUMPDEST SWAP2 POP PUSH1 0x20 DUP4 ADD CALLDATALOAD PUSH2 0x3D83 DUP2 PUSH2 0x3BE2 JUMP JUMPDEST DUP1 SWAP2 POP POP SWAP3 POP SWAP3 SWAP1 POP JUMP JUMPDEST DUP1 ISZERO ISZERO DUP2 EQ PUSH2 0xF40 JUMPI PUSH1 0x0 DUP1 REVERT JUMPDEST PUSH1 0x0 PUSH1 0x20 DUP3 DUP5 SUB SLT ISZERO PUSH2 0x3DAE JUMPI PUSH1 0x0 DUP1 REVERT JUMPDEST DUP2 CALLDATALOAD PUSH2 0x2791 DUP2 PUSH2 0x3D8E JUMP JUMPDEST PUSH4 0x4E487B71 PUSH1 0xE0 SHL PUSH1 0x0 MSTORE PUSH1 0x41 PUSH1 0x4 MSTORE PUSH1 0x24 PUSH1 0x0 REVERT JUMPDEST PUSH1 0x40 MLOAD PUSH1 0xE0 DUP2 ADD PUSH8 0xFFFFFFFFFFFFFFFF DUP2 GT DUP3 DUP3 LT OR ISZERO PUSH2 0x3DF2 JUMPI PUSH2 0x3DF2 PUSH2 0x3DB9 JUMP JUMPDEST PUSH1 0x40 MSTORE SWAP1 JUMP JUMPDEST PUSH1 0x40 MLOAD PUSH1 0x1F DUP3 ADD PUSH1 0x1F NOT AND DUP2 ADD PUSH8 0xFFFFFFFFFFFFFFFF DUP2 GT DUP3 DUP3 LT OR ISZERO PUSH2 0x3E21 JUMPI PUSH2 0x3E21 PUSH2 0x3DB9 JUMP JUMPDEST PUSH1 0x40 MSTORE SWAP2 SWAP1 POP JUMP JUMPDEST PUSH1 0x0 PUSH1 0x20 DUP1 DUP4 DUP6 SUB SLT ISZERO PUSH2 0x3E3C JUMPI PUSH1 0x0 DUP1 REVERT JUMPDEST DUP3 CALLDATALOAD PUSH8 0xFFFFFFFFFFFFFFFF DUP1 DUP3 GT ISZERO PUSH2 0x3E54 JUMPI PUSH1 0x0 DUP1 REVERT JUMPDEST DUP2 DUP6 ADD SWAP2 POP DUP6 PUSH1 0x1F DUP4 ADD SLT PUSH2 0x3E68 JUMPI PUSH1 0x0 DUP1 REVERT JUMPDEST DUP2 CALLDATALOAD DUP2 DUP2 GT ISZERO PUSH2 0x3E7A JUMPI PUSH2 0x3E7A PUSH2 0x3DB9 JUMP JUMPDEST DUP1 PUSH1 0x5 SHL SWAP2 POP PUSH2 0x3E8B DUP5 DUP4 ADD PUSH2 0x3DF8 JUMP JUMPDEST DUP2 DUP2 MSTORE SWAP2 DUP4 ADD DUP5 ADD SWAP2 DUP5 DUP2 ADD SWAP1 DUP9 DUP5 GT ISZERO PUSH2 0x3EA5 JUMPI PUSH1 0x0 DUP1 REVERT JUMPDEST SWAP4 DUP6 ADD SWAP4 JUMPDEST DUP4 DUP6 LT ISZERO PUSH2 0x3ECF JUMPI DUP5 CALLDATALOAD SWAP3 POP PUSH2 0x3EBF DUP4 PUSH2 0x3BE2 JUMP JUMPDEST DUP3 DUP3 MSTORE SWAP4 DUP6 ADD SWAP4 SWAP1 DUP6 ADD SWAP1 PUSH2 0x3EAA JUMP JUMPDEST SWAP9 SWAP8 POP POP POP POP POP POP POP POP JUMP JUMPDEST PUSH1 0x0 DUP1 PUSH1 0x40 DUP4 DUP6 SUB SLT ISZERO PUSH2 0x3EEE JUMPI PUSH1 0x0 DUP1 REVERT JUMPDEST DUP3 CALLDATALOAD SWAP2 POP PUSH1 0x20 DUP4 ADD CALLDATALOAD PUSH2 0x3D83 DUP2 PUSH2 0x3BE2 JUMP JUMPDEST PUSH1 0x0 DUP1 PUSH1 0x0 DUP1 PUSH1 0x0 PUSH1 0xA0 DUP7 DUP9 SUB SLT ISZERO PUSH2 0x3F18 JUMPI PUSH1 0x0 DUP1 REVERT JUMPDEST DUP6 CALLDATALOAD SWAP5 POP PUSH1 0x20 DUP7 ADD CALLDATALOAD PUSH2 0x3F2A DUP2 PUSH2 0x3BE2 JUMP JUMPDEST SWAP4 POP PUSH1 0x40 DUP7 ADD CALLDATALOAD PUSH2 0x3F3A DUP2 PUSH2 0x3BE2 JUMP JUMPDEST SWAP5 SWAP8 SWAP4 SWAP7 POP SWAP4 SWAP5 PUSH1 0x60 DUP2 ADD CALLDATALOAD SWAP5 POP PUSH1 0x80 ADD CALLDATALOAD SWAP3 SWAP2 POP POP JUMP JUMPDEST PUSH4 0x4E487B71 PUSH1 0xE0 SHL PUSH1 0x0 MSTORE PUSH1 0x32 PUSH1 0x4 MSTORE PUSH1 0x24 PUSH1 0x0 REVERT JUMPDEST PUSH4 0x4E487B71 PUSH1 0xE0 SHL PUSH1 0x0 MSTORE PUSH1 0x11 PUSH1 0x4 MSTORE PUSH1 0x24 PUSH1 0x0 REVERT JUMPDEST DUP1 DUP3 ADD DUP1 DUP3 GT ISZERO PUSH2 0x126D JUMPI PUSH2 0x126D PUSH2 0x3F68 JUMP JUMPDEST DUP1 MLOAD PUSH2 0x3F9C DUP2 PUSH2 0x3D8E JUMP JUMPDEST SWAP2 SWAP1 POP JUMP JUMPDEST PUSH1 0x0 PUSH1 0x20 DUP3 DUP5 SUB SLT ISZERO PUSH2 0x3FB3 JUMPI PUSH1 0x0 DUP1 REVERT JUMPDEST DUP2 MLOAD PUSH2 0x2791 DUP2 PUSH2 0x3D8E JUMP JUMPDEST DUP2 DUP2 SUB DUP2 DUP2 GT ISZERO PUSH2 0x126D JUMPI PUSH2 0x126D PUSH2 0x3F68 JUMP JUMPDEST PUSH1 0x0 PUSH1 0x1 DUP3 ADD PUSH2 0x3FE3 JUMPI PUSH2 0x3FE3 PUSH2 0x3F68 JUMP JUMPDEST POP PUSH1 0x1 ADD SWAP1 JUMP JUMPDEST DUP1 DUP3 MUL DUP2 ISZERO DUP3 DUP3 DIV DUP5 EQ OR PUSH2 0x126D JUMPI PUSH2 0x126D PUSH2 0x3F68 JUMP JUMPDEST PUSH1 0x0 DUP3 PUSH2 0x401E JUMPI PUSH4 0x4E487B71 PUSH1 0xE0 SHL PUSH1 0x0 MSTORE PUSH1 0x12 PUSH1 0x4 MSTORE PUSH1 0x24 PUSH1 0x0 REVERT JUMPDEST POP DIV SWAP1 JUMP JUMPDEST DUP1 MLOAD PUSH14 0xFFFFFFFFFFFFFFFFFFFFFFFFFFFF DUP2 AND DUP2 EQ PUSH2 0x3F9C JUMPI PUSH1 0x0 DUP1 REVERT JUMPDEST DUP1 MLOAD PUSH4 0xFFFFFFFF DUP2 AND DUP2 EQ PUSH2 0x3F9C JUMPI PUSH1 0x0 DUP1 REVERT JUMPDEST PUSH1 0x0 DUP1 PUSH1 0x0 PUSH1 0x60 DUP5 DUP7 SUB SLT ISZERO PUSH2 0x406A JUMPI PUSH1 0x0 DUP1 REVERT JUMPDEST PUSH2 0x4073 DUP5 PUSH2 0x4023 JUMP JUMPDEST SWAP3 POP PUSH2 0x4081 PUSH1 0x20 DUP6 ADD PUSH2 0x4023 JUMP JUMPDEST SWAP2 POP PUSH2 0x408F PUSH1 0x40 DUP6 ADD PUSH2 0x4041 JUMP JUMPDEST SWAP1 POP SWAP3 POP SWAP3 POP SWAP3 JUMP JUMPDEST PUSH1 0x0 PUSH1 0x20 DUP3 DUP5 SUB SLT ISZERO PUSH2 0x40AA JUMPI PUSH1 0x0 DUP1 REVERT JUMPDEST POP MLOAD SWAP2 SWAP1 POP JUMP JUMPDEST DUP1 MLOAD PUSH2 0xFFFF DUP2 AND DUP2 EQ PUSH2 0x3F9C JUMPI PUSH1 0x0 DUP1 REVERT JUMPDEST PUSH1 0x0 PUSH1 0xE0 DUP3 DUP5 SUB SLT ISZERO PUSH2 0x40D5 JUMPI PUSH1 0x0 DUP1 REVERT JUMPDEST PUSH2 0x40DD PUSH2 0x3DCF JUMP JUMPDEST DUP3 MLOAD PUSH2 0x40E8 DUP2 PUSH2 0x3BE2 JUMP JUMPDEST DUP2 MSTORE PUSH1 0x20 DUP4 ADD MLOAD PUSH1 0x2 DUP2 SWAP1 SIGNEXTEND DUP2 EQ PUSH2 0x40FF JUMPI PUSH1 0x0 DUP1 REVERT JUMPDEST PUSH1 0x20 DUP3 ADD MSTORE PUSH2 0x4110 PUSH1 0x40 DUP5 ADD PUSH2 0x40B1 JUMP JUMPDEST PUSH1 0x40 DUP3 ADD MSTORE PUSH2 0x4121 PUSH1 0x60 DUP5 ADD PUSH2 0x40B1 JUMP JUMPDEST PUSH1 0x60 DUP3 ADD MSTORE PUSH2 0x4132 PUSH1 0x80 DUP5 ADD PUSH2 0x40B1 JUMP JUMPDEST PUSH1 0x80 DUP3 ADD MSTORE PUSH2 0x4143 PUSH1 0xA0 DUP5 ADD PUSH2 0x4041 JUMP JUMPDEST PUSH1 0xA0 DUP3 ADD MSTORE PUSH2 0x4154 PUSH1 0xC0 DUP5 ADD PUSH2 0x3F91 JUMP JUMPDEST PUSH1 0xC0 DUP3 ADD MSTORE SWAP4 SWAP3 POP POP POP JUMP JUMPDEST PUSH1 0x0 PUSH1 0x20 DUP3 DUP5 SUB SLT ISZERO PUSH2 0x4172 JUMPI PUSH1 0x0 DUP1 REVERT JUMPDEST DUP2 MLOAD PUSH2 0x2791 DUP2 PUSH2 0x3BE2 JUMP INVALID 0x4F PUSH15 0x6C792061646D696E2063616E206361 PUSH13 0x6C20746869732066756E637469 PUSH16 0xA2646970667358221220559B7323B818 PUSH19 0x8DC94B99A480E240A691E2696DAEFC5946B38A SWAP3 0xD 0xDF 0x4D CREATE MLOAD PUSH5 0x736F6C6343 STOP ADDMOD SGT STOP CALLER "},"methodIdentifiers":{"CG8_TOKEN_ADDRESS()":"c57830cd","PANCAKE_FACTORY_ADDRESS()":"509173a1","PANCAKE_ROUTER_ADDRESS()":"28ac7c51","USDC_TOKEN_ADDRESS()":"b3d673d8","admin()":"f851a440","cancelOwnershipTransfer()":"23452b9c","castVote(bool)":"7ace48e7","claimIndividualReward(uint256,uint256)":"6b38e049","claimReward(uint256)":"ae169a50","createStakingPool(uint256,address,address,uint256,uint256)":"fb58d2cf","finalizeOwnershipTransfer()":"bf41c2a4","getCurrentCgatePrice()":"7ade2642","getPair(address,address)":"e6a43905","getPendingReward(uint256,uint256,address)":"29a16616","getPrice()":"98d5fdca","getPriceInverse()":"f4343439","getReferrals(address,uint256)":"32a00d8e","getReserves(address)":"3e99c1e4","getTotalPendingRewardsForPool(uint256,address)":"c114fcfa","getTotalPoolsCount()":"855c5d46","getTotalReferralRewardByReferrer(address,address)":"53a64091","getTotalReferralRewards(address)":"8cd05ecb","hasVoted(address)":"09eef43e","initialize(address[])":"a224cee7","isReferrer(address)":"d64d6968","poolAddress()":"1755ff21","poolReferrers(address,uint256)":"686e9222","pools(uint256)":"ac4afa38","proposeOwnershipTransfer(address)":"21040fc3","proposedOwner()":"d153b60c","referrals(address,uint256,uint256)":"c01b35a1","referrerRewards(address,address,uint256)":"4ae77bcf","referrers(address)":"4a3b68cc","setAdmin(address)":"704b6c02","setCg8Address(address)":"57a8773e","setFactory(address)":"5bb47808","setPoolAddress(address)":"e9e15b4f","setReferralRewardPercent(uint256,uint256)":"bf2ce808","setRewardPercent(uint256,uint256)":"c79bdb46","setRewardToken(uint256,address)":"bdd13d4a","setRouter(address)":"c0d78655","setSpecialReferrerRewardPercent(address,uint256)":"dbe4a261","setTimePeriod(uint256,uint256)":"b820a1cd","setUSDCAddress(address)":"aaf5bfc3","signers(address)":"736c0d5b","specialReferrersPercents(address)":"e7ee1233","stake(uint256,uint256,address)":"7628a37d","togglePoolStatus(uint256)":"216b31c1","totalStakeCount(address,uint256)":"fa8f683e","totalUnstakeAllowed(address,uint256)":"9dda7fee","unStake(uint256)":"5d3eea91","unStakeIndividual(uint256,uint256)":"047ac00e","updateCurrentCgatePrice(uint256)":"7b542a2a","userStakes(address,uint256,uint256)":"34144b0f","users(address)":"a87430ba","usersStakesPerPool(address,uint256)":"b401cdca","voters(uint256)":"da58c7d9","withdrawDumpToken(address,address)":"99672158","withdrawEth(address)":"25e16063"}},"storageLayout":{"storage":[{"astId":6,"contract":"contracts/cgateStaking.sol:StakingPoolV3","label":"_initialized","offset":0,"slot":"0","type":"t_uint8"},{"astId":9,"contract":"contracts/cgateStaking.sol:StakingPoolV3","label":"_initializing","offset":1,"slot":"0","type":"t_bool"},{"astId":183,"contract":"contracts/cgateStaking.sol:StakingPoolV3","label":"_status","offset":0,"slot":"1","type":"t_uint256"},{"astId":252,"contract":"contracts/cgateStaking.sol:StakingPoolV3","label":"__gap","offset":0,"slot":"2","type":"t_array(t_uint256)49_storage"},{"astId":1473,"contract":"contracts/cgateStaking.sol:StakingPoolV3","label":"admin","offset":0,"slot":"51","type":"t_address"},{"astId":1475,"contract":"contracts/cgateStaking.sol:StakingPoolV3","label":"poolIdCounter","offset":0,"slot":"52","type":"t_uint256"},{"astId":1477,"contract":"contracts/cgateStaking.sol:StakingPoolV3","label":"oneYear","offset":0,"slot":"53","type":"t_uint256"},{"astId":1479,"contract":"contracts/cgateStaking.sol:StakingPoolV3","label":"price","offset":0,"slot":"54","type":"t_uint256"},{"astId":1481,"contract":"contracts/cgateStaking.sol:StakingPoolV3","label":"proposedOwner","offset":0,"slot":"55","type":"t_address"},{"astId":1484,"contract":"contracts/cgateStaking.sol:StakingPoolV3","label":"voters","offset":0,"slot":"56","type":"t_array(t_address)dyn_storage"},{"astId":1488,"contract":"contracts/cgateStaking.sol:StakingPoolV3","label":"hasVoted","offset":0,"slot":"57","type":"t_mapping(t_address,t_bool)"},{"astId":1490,"contract":"contracts/cgateStaking.sol:StakingPoolV3","label":"PANCAKE_ROUTER_ADDRESS","offset":0,"slot":"58","type":"t_address"},{"astId":1492,"contract":"contracts/cgateStaking.sol:StakingPoolV3","label":"CG8_TOKEN_ADDRESS","offset":0,"slot":"59","type":"t_address"},{"astId":1494,"contract":"contracts/cgateStaking.sol:StakingPoolV3","label":"USDC_TOKEN_ADDRESS","offset":0,"slot":"60","type":"t_address"},{"astId":1496,"contract":"contracts/cgateStaking.sol:StakingPoolV3","label":"PANCAKE_FACTORY_ADDRESS","offset":0,"slot":"61","type":"t_address"},{"astId":1540,"contract":"contracts/cgateStaking.sol:StakingPoolV3","label":"pools","offset":0,"slot":"62","type":"t_mapping(t_uint256,t_struct(Pool)1511_storage)"},{"astId":1548,"contract":"contracts/cgateStaking.sol:StakingPoolV3","label":"userStakes","offset":0,"slot":"63","type":"t_mapping(t_address,t_mapping(t_uint256,t_array(t_struct(UserStake)1535_storage)dyn_storage))"},{"astId":1552,"contract":"contracts/cgateStaking.sol:StakingPoolV3","label":"referrers","offset":0,"slot":"64","type":"t_mapping(t_address,t_address)"},{"astId":1556,"contract":"contracts/cgateStaking.sol:StakingPoolV3","label":"specialReferrersPercents","offset":0,"slot":"65","type":"t_mapping(t_address,t_uint256)"},{"astId":1561,"contract":"contracts/cgateStaking.sol:StakingPoolV3","label":"users","offset":0,"slot":"66","type":"t_mapping(t_address,t_struct(UserInfo)1522_storage)"},{"astId":1567,"contract":"contracts/cgateStaking.sol:StakingPoolV3","label":"usersStakesPerPool","offset":0,"slot":"67","type":"t_mapping(t_address,t_mapping(t_uint256,t_uint256))"},{"astId":1571,"contract":"contracts/cgateStaking.sol:StakingPoolV3","label":"signers","offset":0,"slot":"68","type":"t_mapping(t_address,t_bool)"},{"astId":1573,"contract":"contracts/cgateStaking.sol:StakingPoolV3","label":"poolAddress","offset":0,"slot":"69","type":"t_address"},{"astId":1580,"contract":"contracts/cgateStaking.sol:StakingPoolV3","label":"referrals","offset":0,"slot":"70","type":"t_mapping(t_address,t_mapping(t_uint256,t_array(t_address)dyn_storage))"},{"astId":1588,"contract":"contracts/cgateStaking.sol:StakingPoolV3","label":"referrerRewards","offset":0,"slot":"71","type":"t_mapping(t_address,t_mapping(t_address,t_mapping(t_uint256,t_uint256)))"},{"astId":1594,"contract":"contracts/cgateStaking.sol:StakingPoolV3","label":"poolReferrers","offset":0,"slot":"72","type":"t_mapping(t_address,t_mapping(t_uint256,t_address))"},{"astId":1598,"contract":"contracts/cgateStaking.sol:StakingPoolV3","label":"isReferrer","offset":0,"slot":"73","type":"t_mapping(t_address,t_bool)"}],"types":{"t_address":{"encoding":"inplace","label":"address","numberOfBytes":"20"},"t_array(t_address)dyn_storage":{"base":"t_address","encoding":"dynamic_array","label":"address[]","numberOfBytes":"32"},"t_array(t_struct(UserStake)1535_storage)dyn_storage":{"base":"t_struct(UserStake)1535_storage","encoding":"dynamic_array","label":"struct StakingPoolV3.UserStake[]","numberOfBytes":"32"},"t_array(t_uint256)49_storage":{"base":"t_uint256","encoding":"inplace","label":"uint256[49]","numberOfBytes":"1568"},"t_bool":{"encoding":"inplace","label":"bool","numberOfBytes":"1"},"t_mapping(t_address,t_address)":{"encoding":"mapping","key":"t_address","label":"mapping(address => address)","numberOfBytes":"32","value":"t_address"},"t_mapping(t_address,t_bool)":{"encoding":"mapping","key":"t_address","label":"mapping(address => bool)","numberOfBytes":"32","value":"t_bool"},"t_mapping(t_address,t_mapping(t_address,t_mapping(t_uint256,t_uint256)))":{"encoding":"mapping","key":"t_address","label":"mapping(address => mapping(address => mapping(uint256 => uint256)))","numberOfBytes":"32","value":"t_mapping(t_address,t_mapping(t_uint256,t_uint256))"},"t_mapping(t_address,t_mapping(t_uint256,t_address))":{"encoding":"mapping","key":"t_address","label":"mapping(address => mapping(uint256 => address))","numberOfBytes":"32","value":"t_mapping(t_uint256,t_address)"},"t_mapping(t_address,t_mapping(t_uint256,t_array(t_address)dyn_storage))":{"encoding":"mapping","key":"t_address","label":"mapping(address => mapping(uint256 => address[]))","numberOfBytes":"32","value":"t_mapping(t_uint256,t_array(t_address)dyn_storage)"},"t_mapping(t_address,t_mapping(t_uint256,t_array(t_struct(UserStake)1535_storage)dyn_storage))":{"encoding":"mapping","key":"t_address","label":"mapping(address => mapping(uint256 => struct StakingPoolV3.UserStake[]))","numberOfBytes":"32","value":"t_mapping(t_uint256,t_array(t_struct(UserStake)1535_storage)dyn_storage)"},"t_mapping(t_address,t_mapping(t_uint256,t_uint256))":{"encoding":"mapping","key":"t_address","label":"mapping(address => mapping(uint256 => uint256))","numberOfBytes":"32","value":"t_mapping(t_uint256,t_uint256)"},"t_mapping(t_address,t_struct(UserInfo)1522_storage)":{"encoding":"mapping","key":"t_address","label":"mapping(address => struct StakingPoolV3.UserInfo)","numberOfBytes":"32","value":"t_struct(UserInfo)1522_storage"},"t_mapping(t_address,t_uint256)":{"encoding":"mapping","key":"t_address","label":"mapping(address => uint256)","numberOfBytes":"32","value":"t_uint256"},"t_mapping(t_uint256,t_address)":{"encoding":"mapping","key":"t_uint256","label":"mapping(uint256 => address)","numberOfBytes":"32","value":"t_address"},"t_mapping(t_uint256,t_array(t_address)dyn_storage)":{"encoding":"mapping","key":"t_uint256","label":"mapping(uint256 => address[])","numberOfBytes":"32","value":"t_array(t_address)dyn_storage"},"t_mapping(t_uint256,t_array(t_struct(UserStake)1535_storage)dyn_storage)":{"encoding":"mapping","key":"t_uint256","label":"mapping(uint256 => struct StakingPoolV3.UserStake[])","numberOfBytes":"32","value":"t_array(t_struct(UserStake)1535_storage)dyn_storage"},"t_mapping(t_uint256,t_struct(Pool)1511_storage)":{"encoding":"mapping","key":"t_uint256","label":"mapping(uint256 => struct StakingPoolV3.Pool)","numberOfBytes":"32","value":"t_struct(Pool)1511_storage"},"t_mapping(t_uint256,t_uint256)":{"encoding":"mapping","key":"t_uint256","label":"mapping(uint256 => uint256)","numberOfBytes":"32","value":"t_uint256"},"t_struct(Pool)1511_storage":{"encoding":"inplace","label":"struct StakingPoolV3.Pool","members":[{"astId":1498,"contract":"contracts/cgateStaking.sol:StakingPoolV3","label":"timePeriod","offset":0,"slot":"0","type":"t_uint256"},{"astId":1500,"contract":"contracts/cgateStaking.sol:StakingPoolV3","label":"stakeToken","offset":0,"slot":"1","type":"t_address"},{"astId":1502,"contract":"contracts/cgateStaking.sol:StakingPoolV3","label":"rewardToken","offset":0,"slot":"2","type":"t_address"},{"astId":1504,"contract":"contracts/cgateStaking.sol:StakingPoolV3","label":"rewardPercentPerStakedTokenPerYear","offset":0,"slot":"3","type":"t_uint256"},{"astId":1506,"contract":"contracts/cgateStaking.sol:StakingPoolV3","label":"referralRewardPercent","offset":0,"slot":"4","type":"t_uint256"},{"astId":1508,"contract":"contracts/cgateStaking.sol:StakingPoolV3","label":"isActive","offset":0,"slot":"5","type":"t_bool"},{"astId":1510,"contract":"contracts/cgateStaking.sol:StakingPoolV3","label":"totalStakes","offset":0,"slot":"6","type":"t_uint256"}],"numberOfBytes":"224"},"t_struct(UserInfo)1522_storage":{"encoding":"inplace","label":"struct StakingPoolV3.UserInfo","members":[{"astId":1513,"contract":"contracts/cgateStaking.sol:StakingPoolV3","label":"totalStaked","offset":0,"slot":"0","type":"t_uint256"},{"astId":1515,"contract":"contracts/cgateStaking.sol:StakingPoolV3","label":"activeStakes","offset":0,"slot":"1","type":"t_uint256"},{"astId":1517,"contract":"contracts/cgateStaking.sol:StakingPoolV3","label":"totalRewardWithdrawnTillNow","offset":0,"slot":"2","type":"t_uint256"},{"astId":1519,"contract":"contracts/cgateStaking.sol:StakingPoolV3","label":"referralIncomeWithdrawnTillNow","offset":0,"slot":"3","type":"t_uint256"},{"astId":1521,"contract":"contracts/cgateStaking.sol:StakingPoolV3","label":"totalReferrers","offset":0,"slot":"4","type":"t_uint256"}],"numberOfBytes":"160"},"t_struct(UserStake)1535_storage":{"encoding":"inplace","label":"struct StakingPoolV3.UserStake","members":[{"astId":1524,"contract":"contracts/cgateStaking.sol:StakingPoolV3","label":"amount","offset":0,"slot":"0","type":"t_uint256"},{"astId":1526,"contract":"contracts/cgateStaking.sol:StakingPoolV3","label":"lastWithdrawTimestamp","offset":0,"slot":"1","type":"t_uint256"},{"astId":1528,"contract":"contracts/cgateStaking.sol:StakingPoolV3","label":"rewardWithdrawnTillNow","offset":0,"slot":"2","type":"t_uint256"},{"astId":1530,"contract":"contracts/cgateStaking.sol:StakingPoolV3","label":"stakeTime","offset":0,"slot":"3","type":"t_uint256"},{"astId":1532,"contract":"contracts/cgateStaking.sol:StakingPoolV3","label":"referrer","offset":0,"slot":"4","type":"t_address"},{"astId":1534,"contract":"contracts/cgateStaking.sol:StakingPoolV3","label":"depositedValueInDollars","offset":0,"slot":"5","type":"t_uint256"}],"numberOfBytes":"192"},"t_uint256":{"encoding":"inplace","label":"uint256","numberOfBytes":"32"},"t_uint8":{"encoding":"inplace","label":"uint8","numberOfBytes":"1"}}}}}}