{"contracts/cgateToken.sol":{"CG8":{"abi":[{"anonymous":false,"inputs":[{"indexed":true,"internalType":"address","name":"owner","type":"address"},{"indexed":true,"internalType":"address","name":"spender","type":"address"},{"indexed":false,"internalType":"uint256","name":"value","type":"uint256"}],"name":"Approval","type":"event"},{"anonymous":false,"inputs":[{"indexed":false,"internalType":"uint8","name":"version","type":"uint8"}],"name":"Initialized","type":"event"},{"anonymous":false,"inputs":[{"indexed":true,"internalType":"address","name":"newOwner","type":"address"}],"name":"OwnershipTransferProposed","type":"event"},{"anonymous":false,"inputs":[{"indexed":true,"internalType":"address","name":"previousOwner","type":"address"},{"indexed":true,"internalType":"address","name":"newOwner","type":"address"}],"name":"OwnershipTransferred","type":"event"},{"anonymous":false,"inputs":[{"indexed":false,"internalType":"address","name":"account","type":"address"}],"name":"Paused","type":"event"},{"anonymous":false,"inputs":[{"indexed":true,"internalType":"address","name":"from","type":"address"},{"indexed":true,"internalType":"address","name":"to","type":"address"},{"indexed":false,"internalType":"uint256","name":"value","type":"uint256"}],"name":"Transfer","type":"event"},{"anonymous":false,"inputs":[{"indexed":false,"internalType":"address","name":"account","type":"address"}],"name":"Unpaused","type":"event"},{"anonymous":false,"inputs":[{"indexed":true,"internalType":"address","name":"voter","type":"address"},{"indexed":false,"internalType":"bool","name":"approve","type":"bool"}],"name":"VoteCasted","type":"event"},{"inputs":[{"internalType":"address","name":"","type":"address"}],"name":"_frozenWallets","outputs":[{"internalType":"uint256","name":"","type":"uint256"}],"stateMutability":"view","type":"function"},{"inputs":[],"name":"_owner","outputs":[{"internalType":"address","name":"","type":"address"}],"stateMutability":"view","type":"function"},{"inputs":[{"internalType":"address","name":"wallet","type":"address"}],"name":"addToWhitelist","outputs":[],"stateMutability":"nonpayable","type":"function"},{"inputs":[{"internalType":"address","name":"beneficiary","type":"address"},{"internalType":"uint256","name":"amount","type":"uint256"},{"internalType":"uint256","name":"percentageToRelease","type":"uint256"},{"internalType":"uint256","name":"timeInterval","type":"uint256"}],"name":"addVestingSchedule","outputs":[],"stateMutability":"nonpayable","type":"function"},{"inputs":[{"internalType":"address","name":"owner","type":"address"},{"internalType":"address","name":"spender","type":"address"}],"name":"allowance","outputs":[{"internalType":"uint256","name":"","type":"uint256"}],"stateMutability":"view","type":"function"},{"inputs":[{"internalType":"address","name":"spender","type":"address"},{"internalType":"uint256","name":"amount","type":"uint256"}],"name":"approve","outputs":[{"internalType":"bool","name":"","type":"bool"}],"stateMutability":"nonpayable","type":"function"},{"inputs":[{"internalType":"address","name":"account","type":"address"}],"name":"balanceOf","outputs":[{"internalType":"uint256","name":"","type":"uint256"}],"stateMutability":"view","type":"function"},{"inputs":[{"internalType":"address","name":"_user","type":"address"}],"name":"blackList","outputs":[],"stateMutability":"nonpayable","type":"function"},{"inputs":[{"internalType":"uint256","name":"amount","type":"uint256"}],"name":"burn","outputs":[],"stateMutability":"nonpayable","type":"function"},{"inputs":[{"internalType":"address","name":"account","type":"address"},{"internalType":"uint256","name":"amount","type":"uint256"}],"name":"burnFrom","outputs":[],"stateMutability":"nonpayable","type":"function"},{"inputs":[],"name":"burnableTax","outputs":[{"internalType":"uint256","name":"","type":"uint256"}],"stateMutability":"view","type":"function"},{"inputs":[],"name":"buySellTaxRate","outputs":[{"internalType":"uint256","name":"","type":"uint256"}],"stateMutability":"view","type":"function"},{"inputs":[],"name":"cancelOwnershipTransfer","outputs":[],"stateMutability":"nonpayable","type":"function"},{"inputs":[{"internalType":"bool","name":"approve","type":"bool"}],"name":"castVote","outputs":[],"stateMutability":"nonpayable","type":"function"},{"inputs":[],"name":"claim","outputs":[],"stateMutability":"nonpayable","type":"function"},{"inputs":[],"name":"decimals","outputs":[{"internalType":"uint8","name":"","type":"uint8"}],"stateMutability":"view","type":"function"},{"inputs":[{"internalType":"address","name":"spender","type":"address"},{"internalType":"uint256","name":"subtractedValue","type":"uint256"}],"name":"decreaseAllowance","outputs":[{"internalType":"bool","name":"","type":"bool"}],"stateMutability":"nonpayable","type":"function"},{"inputs":[],"name":"decreasingTaxInterval","outputs":[{"internalType":"uint256","name":"","type":"uint256"}],"stateMutability":"view","type":"function"},{"inputs":[{"internalType":"bool","name":"_enabled","type":"bool"}],"name":"disableBuySellTax","outputs":[],"stateMutability":"nonpayable","type":"function"},{"inputs":[],"name":"finalizeOwnershipTransfer","outputs":[],"stateMutability":"nonpayable","type":"function"},{"inputs":[{"internalType":"address","name":"wallet","type":"address"},{"internalType":"uint256","name":"freezeDuration","type":"uint256"}],"name":"freezeWallet","outputs":[],"stateMutability":"nonpayable","type":"function"},{"inputs":[],"name":"graduallyDecreasingTax","outputs":[{"internalType":"uint256","name":"","type":"uint256"}],"stateMutability":"view","type":"function"},{"inputs":[{"internalType":"address","name":"","type":"address"}],"name":"hasVoted","outputs":[{"internalType":"bool","name":"","type":"bool"}],"stateMutability":"view","type":"function"},{"inputs":[{"internalType":"address","name":"wallet","type":"address"}],"name":"includeInTax","outputs":[],"stateMutability":"nonpayable","type":"function"},{"inputs":[{"internalType":"address","name":"spender","type":"address"},{"internalType":"uint256","name":"addedValue","type":"uint256"}],"name":"increaseAllowance","outputs":[{"internalType":"bool","name":"","type":"bool"}],"stateMutability":"nonpayable","type":"function"},{"inputs":[{"internalType":"string","name":"_name","type":"string"},{"internalType":"string","name":"_symbol","type":"string"},{"internalType":"uint8","name":"_decimals","type":"uint8"},{"internalType":"uint256","name":"_initialSupply","type":"uint256"},{"internalType":"address","name":"_router","type":"address"},{"internalType":"address[]","name":"_initialVoters","type":"address[]"}],"name":"initialize","outputs":[],"stateMutability":"nonpayable","type":"function"},{"inputs":[{"internalType":"address","name":"_user","type":"address"}],"name":"isBlackList","outputs":[{"internalType":"bool","name":"","type":"bool"}],"stateMutability":"view","type":"function"},{"inputs":[],"name":"isBuySellTaxEnabled","outputs":[{"internalType":"bool","name":"","type":"bool"}],"stateMutability":"view","type":"function"},{"inputs":[],"name":"isDeflationary","outputs":[{"internalType":"bool","name":"","type":"bool"}],"stateMutability":"view","type":"function"},{"inputs":[{"internalType":"address","name":"","type":"address"}],"name":"isExcludedFromTax","outputs":[{"internalType":"bool","name":"","type":"bool"}],"stateMutability":"view","type":"function"},{"inputs":[{"internalType":"address","name":"user","type":"address"}],"name":"isWhitelisted","outputs":[{"internalType":"bool","name":"","type":"bool"}],"stateMutability":"view","type":"function"},{"inputs":[],"name":"lastUpdatedTaxTimestamp","outputs":[{"internalType":"uint256","name":"","type":"uint256"}],"stateMutability":"view","type":"function"},{"inputs":[],"name":"liquidityLocked","outputs":[{"internalType":"bool","name":"","type":"bool"}],"stateMutability":"view","type":"function"},{"inputs":[{"internalType":"uint256","name":"amount","type":"uint256"}],"name":"lockLiquidity","outputs":[],"stateMutability":"nonpayable","type":"function"},{"inputs":[],"name":"lockedLiquidityAmount","outputs":[{"internalType":"uint256","name":"","type":"uint256"}],"stateMutability":"view","type":"function"},{"inputs":[],"name":"maxSupply","outputs":[{"internalType":"uint256","name":"","type":"uint256"}],"stateMutability":"view","type":"function"},{"inputs":[],"name":"maxTransactionAmount","outputs":[{"internalType":"uint256","name":"","type":"uint256"}],"stateMutability":"view","type":"function"},{"inputs":[],"name":"minTransactionAmount","outputs":[{"internalType":"uint256","name":"","type":"uint256"}],"stateMutability":"view","type":"function"},{"inputs":[{"internalType":"address","name":"account","type":"address"},{"internalType":"uint256","name":"amount","type":"uint256"}],"name":"mint","outputs":[],"stateMutability":"nonpayable","type":"function"},{"inputs":[],"name":"name","outputs":[{"internalType":"string","name":"","type":"string"}],"stateMutability":"view","type":"function"},{"inputs":[],"name":"owner","outputs":[{"internalType":"address","name":"","type":"address"}],"stateMutability":"view","type":"function"},{"inputs":[],"name":"pause","outputs":[],"stateMutability":"nonpayable","type":"function"},{"inputs":[],"name":"paused","outputs":[{"internalType":"bool","name":"","type":"bool"}],"stateMutability":"view","type":"function"},{"inputs":[{"internalType":"address","name":"newOwner","type":"address"}],"name":"proposeOwnershipTransfer","outputs":[],"stateMutability":"nonpayable","type":"function"},{"inputs":[],"name":"proposedOwner","outputs":[{"internalType":"address","name":"","type":"address"}],"stateMutability":"view","type":"function"},{"inputs":[{"internalType":"address","name":"_user","type":"address"}],"name":"removeFromBlacklist","outputs":[],"stateMutability":"nonpayable","type":"function"},{"inputs":[{"internalType":"address","name":"wallet","type":"address"}],"name":"removeFromWhitelist","outputs":[],"stateMutability":"nonpayable","type":"function"},{"inputs":[{"internalType":"address","name":"_voterAddress","type":"address"}],"name":"removeVoter","outputs":[],"stateMutability":"nonpayable","type":"function"},{"inputs":[],"name":"renounceOwnership","outputs":[],"stateMutability":"nonpayable","type":"function"},{"inputs":[],"name":"router","outputs":[{"internalType":"address","name":"","type":"address"}],"stateMutability":"view","type":"function"},{"inputs":[{"internalType":"uint256","name":"_burnableTax","type":"uint256"}],"name":"setBurnableTax","outputs":[],"stateMutability":"nonpayable","type":"function"},{"inputs":[{"internalType":"uint256","name":"_rate","type":"uint256"}],"name":"setBuySellTaxRate","outputs":[],"stateMutability":"nonpayable","type":"function"},{"inputs":[{"internalType":"bool","name":"_enabled","type":"bool"}],"name":"setDeflationary","outputs":[],"stateMutability":"nonpayable","type":"function"},{"inputs":[{"internalType":"uint256","name":"_decreasingTaxInterval","type":"uint256"}],"name":"setGraduallyDecreasingInterval","outputs":[],"stateMutability":"nonpayable","type":"function"},{"inputs":[{"internalType":"uint256","name":"tax","type":"uint256"}],"name":"setGraduallyDecreasingTax","outputs":[],"stateMutability":"nonpayable","type":"function"},{"inputs":[],"name":"setGraduallyDecreasingTaxZero","outputs":[],"stateMutability":"nonpayable","type":"function"},{"inputs":[{"internalType":"address","name":"wallet","type":"address"}],"name":"setIsExcludedFromTax","outputs":[],"stateMutability":"nonpayable","type":"function"},{"inputs":[{"internalType":"uint256","name":"amount","type":"uint256"}],"name":"setMaxTransferAmount","outputs":[],"stateMutability":"nonpayable","type":"function"},{"inputs":[{"internalType":"uint256","name":"amount","type":"uint256"}],"name":"setMinTransactionAmount","outputs":[],"stateMutability":"nonpayable","type":"function"},{"inputs":[{"internalType":"address","name":"_newRouter","type":"address"}],"name":"setRouter","outputs":[],"stateMutability":"nonpayable","type":"function"},{"inputs":[{"internalType":"uint256","name":"delay","type":"uint256"}],"name":"setTransferDelay","outputs":[],"stateMutability":"nonpayable","type":"function"},{"inputs":[{"internalType":"address","name":"_usdt","type":"address"}],"name":"setUSDTAddress","outputs":[],"stateMutability":"nonpayable","type":"function"},{"inputs":[{"internalType":"address","name":"","type":"address"}],"name":"signers","outputs":[{"internalType":"bool","name":"","type":"bool"}],"stateMutability":"view","type":"function"},{"inputs":[],"name":"symbol","outputs":[{"internalType":"string","name":"","type":"string"}],"stateMutability":"view","type":"function"},{"inputs":[],"name":"totalSupply","outputs":[{"internalType":"uint256","name":"","type":"uint256"}],"stateMutability":"view","type":"function"},{"inputs":[{"internalType":"address","name":"recipient","type":"address"},{"internalType":"uint256","name":"amount","type":"uint256"}],"name":"transfer","outputs":[{"internalType":"bool","name":"","type":"bool"}],"stateMutability":"nonpayable","type":"function"},{"inputs":[],"name":"transferAllowedAt","outputs":[{"internalType":"uint256","name":"","type":"uint256"}],"stateMutability":"view","type":"function"},{"inputs":[],"name":"transferDelay","outputs":[{"internalType":"uint256","name":"","type":"uint256"}],"stateMutability":"view","type":"function"},{"inputs":[{"internalType":"address","name":"from","type":"address"},{"internalType":"address","name":"to","type":"address"},{"internalType":"uint256","name":"amount","type":"uint256"}],"name":"transferFrom","outputs":[{"internalType":"bool","name":"","type":"bool"}],"stateMutability":"nonpayable","type":"function"},{"inputs":[{"internalType":"address","name":"newOwner","type":"address"}],"name":"transferOwnership","outputs":[],"stateMutability":"nonpayable","type":"function"},{"inputs":[{"internalType":"address","name":"wallet","type":"address"}],"name":"unfreezeWallet","outputs":[],"stateMutability":"nonpayable","type":"function"},{"inputs":[{"internalType":"uint256","name":"amount","type":"uint256"}],"name":"unlockLiquidity","outputs":[],"stateMutability":"nonpayable","type":"function"},{"inputs":[],"name":"unpause","outputs":[],"stateMutability":"nonpayable","type":"function"},{"inputs":[],"name":"updateGraduallyDecreasingTax","outputs":[],"stateMutability":"nonpayable","type":"function"},{"inputs":[],"name":"usdt","outputs":[{"internalType":"address","name":"","type":"address"}],"stateMutability":"view","type":"function"},{"inputs":[{"internalType":"address","name":"","type":"address"}],"name":"vestingInfo","outputs":[{"internalType":"uint256","name":"amount","type":"uint256"},{"internalType":"address","name":"beneficiary","type":"address"},{"internalType":"uint256","name":"percentageOfTokensToBeReleased","type":"uint256"},{"internalType":"uint256","name":"timeInterval","type":"uint256"},{"internalType":"uint256","name":"lastWithdrawTimestamp","type":"uint256"},{"internalType":"uint256","name":"claimedTokens","type":"uint256"}],"stateMutability":"view","type":"function"},{"inputs":[{"internalType":"uint256","name":"","type":"uint256"}],"name":"voters","outputs":[{"internalType":"address","name":"","type":"address"}],"stateMutability":"view","type":"function"},{"inputs":[{"internalType":"address","name":"receiver","type":"address"},{"internalType":"contract IERC20","name":"_token","type":"address"}],"name":"withdrawDumpToken","outputs":[],"stateMutability":"nonpayable","type":"function"},{"inputs":[{"internalType":"address payable","name":"_receiver","type":"address"}],"name":"withdrawEth","outputs":[],"stateMutability":"nonpayable","type":"function"},{"stateMutability":"payable","type":"receive"}],"evm":{"bytecode":{"linkReferences":{},"object":"608060405234801561001057600080fd5b5061439f806100206000396000f3fe60806040526004361061055c5760003560e01c806379cc6790116102ca578063bd0e0acd11610179578063da58c7d9116100d6578063f217fdbe1161008a578063f78e633d1161006f578063f78e633d14610f04578063f887ea4014610f94578063f8f1b6c914610fb557600080fd5b8063f217fdbe14610ec4578063f2fde38b14610ee457600080fd5b8063e17c4c74116100bb578063e17c4c7414610e6f578063e43252d714610e8f578063eb60b83f14610eaf57600080fd5b8063da58c7d914610e09578063dd62ed3e14610e2957600080fd5b8063cb4ca6311161012d578063d153b60c11610112578063d153b60c14610db1578063d292059e14610dd2578063d5abeb0114610df257600080fd5b8063cb4ca63114610d69578063d0a1bd4414610d9a57600080fd5b8063bfed5ce31161015e578063bfed5ce314610d12578063c0d7865514610d32578063c8c8ebe414610d5257600080fd5b8063bd0e0acd14610ce6578063bf41c2a414610cfd57600080fd5b806395d89b4111610227578063a9059cbb116101db578063b2bdfa7b116101c0578063b2bdfa7b14610c68578063b36d691914610c89578063b5c43db414610cc357600080fd5b8063a9059cbb14610c2d578063ab8b2f0d14610c4d57600080fd5b8063996721581161020c5780639967215814610bcd578063a30ff8b614610bed578063a457c2d714610c0d57600080fd5b806395d89b4114610b9857806396e8392414610bad57600080fd5b80638ab1d6811161027e5780638da5cb5b116102635780638da5cb5b14610b3a5780638e8c10a214610b585780638f376fca14610b7857600080fd5b80638ab1d68114610afa5780638bf5540914610b1a57600080fd5b80638456cb59116102af5780638456cb5914610aa557806385be583f14610aba57806386c1ff6814610ada57600080fd5b806379cc679014610a655780637ace48e714610a8557600080fd5b80633af32abf1161042657806357976fb41161038357806370a0823111610337578063736c0d5b1161031c578063736c0d5b146109fd578063760b7e3814610a2e5780637884d88814610a4557600080fd5b806370a08231146109b2578063715018a6146109e857600080fd5b80635e2f16c8116103685780635e2f16c81461096457806360f588b71461097b578063622b67cb1461099b57600080fd5b806357976fb4146109315780635c975abb1461094c57600080fd5b80634838d165116103da578063537df3b6116103bf578063537df3b6146108d1578063553ba06c146108f157806355eba8681461091157600080fd5b80634838d1651461089c5780634e71d92d146108bc57600080fd5b80633f4ba83a1161040b5780633f4ba83a1461084757806340c10f191461085c57806342966c681461087c57600080fd5b80633af32abf146107df5780633eb5cbeb1461081957600080fd5b806323452b9c116104d45780632bfbd9cf11610488578063313ce5671161046d578063313ce5671461078357806336e8c9b31461079f57806339509351146107bf57600080fd5b80632bfbd9cf146107255780632f48ab7d1461074557600080fd5b806324ef8c1b116104b957806324ef8c1b146106c457806325e16063146106e45780632a32234f1461070457600080fd5b806323452b9c1461068f57806323b872dd146106a457600080fd5b80630a702e8d1161052b57806317a5d4df1161051057806317a5d4df1461064357806318160ddd1461065a57806321040fc31461066f57600080fd5b80630a702e8d146106155780630b4d57f51461062c57600080fd5b8063052c30bc1461056857806306fdde0314610592578063095ea7b3146105b457806309eef43e146105e457600080fd5b3661056357005b600080fd5b34801561057457600080fd5b5061057f6101345481565b6040519081526020015b60405180910390f35b34801561059e57600080fd5b506105a7610fd5565b6040516105899190613c97565b3480156105c057600080fd5b506105d46105cf366004613d0a565b611067565b6040519015158152602001610589565b3480156105f057600080fd5b506105d46105ff366004613d36565b61012f6020526000908152604090205460ff1681565b34801561062157600080fd5b5061057f6101335481565b34801561063857600080fd5b50610641611081565b005b34801561064f57600080fd5b5061057f6101315481565b34801561066657600080fd5b5060355461057f565b34801561067b57600080fd5b5061064161068a366004613d36565b6110fe565b34801561069b57600080fd5b506106416111ac565b3480156106b057600080fd5b506105d46106bf366004613d53565b611234565b3480156106d057600080fd5b506106416106df366004613d94565b6114a3565b3480156106f057600080fd5b506106416106ff366004613d36565b61166f565b34801561071057600080fd5b5061064161071f366004613dcf565b61013755565b34801561073157600080fd5b50610641610740366004613dcf565b611706565b34801561075157600080fd5b5061013c5461076b9061010090046001600160a01b031681565b6040516001600160a01b039091168152602001610589565b34801561078f57600080fd5b5060405160128152602001610589565b3480156107ab57600080fd5b506106416107ba366004613dcf565b6117e7565b3480156107cb57600080fd5b506105d46107da366004613d0a565b6117f5565b3480156107eb57600080fd5b506105d46107fa366004613d36565b6001600160a01b03166000908152610140602052604090205460ff1690565b34801561082557600080fd5b5061057f610834366004613d36565b61013f6020526000908152604090205481565b34801561085357600080fd5b50610641611834565b34801561086857600080fd5b50610641610877366004613d0a565b611846565b34801561088857600080fd5b50610641610897366004613dcf565b6118d5565b3480156108a857600080fd5b506106416108b7366004613d36565b6118df565b3480156108c857600080fd5b50610641611976565b3480156108dd57600080fd5b506106416108ec366004613d36565b611bb9565b3480156108fd57600080fd5b5061064161090c366004613dcf565b611c4c565b34801561091d57600080fd5b5061064161092c366004613d36565b611c5a565b34801561093d57600080fd5b50610135546105d49060ff1681565b34801561095857600080fd5b5060c95460ff166105d4565b34801561097057600080fd5b5061057f6101385481565b34801561098757600080fd5b50610641610996366004613d36565b611ca2565b3480156109a757600080fd5b5061057f61013a5481565b3480156109be57600080fd5b5061057f6109cd366004613d36565b6001600160a01b031660009081526033602052604090205490565b3480156109f457600080fd5b50610641611cc5565b348015610a0957600080fd5b506105d4610a18366004613d36565b6101416020526000908152604090205460ff1681565b348015610a3a57600080fd5b5061057f61013b5481565b348015610a5157600080fd5b50610641610a60366004613d36565b611cd7565b348015610a7157600080fd5b50610641610a80366004613d0a565b611d04565b348015610a9157600080fd5b50610641610aa0366004613df6565b611d16565b348015610ab157600080fd5b50610641611e22565b348015610ac657600080fd5b50610641610ad5366004613d0a565b611e32565b348015610ae657600080fd5b50610641610af5366004613d36565b611ebb565b348015610b0657600080fd5b50610641610b15366004613d36565b611fe6565b348015610b2657600080fd5b50610641610b35366004613dcf565b612010565b348015610b4657600080fd5b506097546001600160a01b031661076b565b348015610b6457600080fd5b50610135546105d490610100900460ff1681565b348015610b8457600080fd5b50610641610b93366004613dcf565b61201e565b348015610ba457600080fd5b506105a761202c565b348015610bb957600080fd5b50610641610bc8366004613dcf565b61203b565b348015610bd957600080fd5b50610641610be8366004613e13565b612119565b348015610bf957600080fd5b50610641610c08366004613df6565b612233565b348015610c1957600080fd5b506105d4610c28366004613d0a565b612256565b348015610c3957600080fd5b506105d4610c48366004613d0a565b61230b565b348015610c5957600080fd5b5061013c546105d49060ff1681565b348015610c7457600080fd5b506101305461076b906001600160a01b031681565b348015610c9557600080fd5b506105d4610ca4366004613d36565b6001600160a01b0316600090815261013d602052604090205460ff1690565b348015610ccf57600080fd5b5033600090815261013e602052604090205461057f565b348015610cf257600080fd5b5061057f6101395481565b348015610d0957600080fd5b50610641612563565b348015610d1e57600080fd5b50610641610d2d366004613dcf565b612727565b348015610d3e57600080fd5b50610641610d4d366004613d36565b612735565b348015610d5e57600080fd5b5061057f6101325481565b348015610d7557600080fd5b506105d4610d84366004613d36565b6101366020526000908152604090205460ff1681565b348015610da657600080fd5b5061057f6101375481565b348015610dbd57600080fd5b5061012d5461076b906001600160a01b031681565b348015610dde57600080fd5b50610641610ded366004613dcf565b612779565b348015610dfe57600080fd5b5061057f6101445481565b348015610e1557600080fd5b5061076b610e24366004613dcf565b612787565b348015610e3557600080fd5b5061057f610e44366004613e13565b6001600160a01b03918216600090815260346020908152604080832093909416825291909152205490565b348015610e7b57600080fd5b50610641610e8a366004613d36565b6127b2565b348015610e9b57600080fd5b50610641610eaa366004613d36565b6127dc565b348015610ebb57600080fd5b50610641612809565b348015610ed057600080fd5b50610641610edf366004613df6565b612819565b348015610ef057600080fd5b50610641610eff366004613d36565b612835565b348015610f1057600080fd5b50610f5f610f1f366004613d36565b6101426020526000908152604090208054600182015460028301546003840154600485015460059095015493946001600160a01b03909316939192909186565b604080519687526001600160a01b039095166020870152938501929092526060840152608083015260a082015260c001610589565b348015610fa057600080fd5b506101435461076b906001600160a01b031681565b348015610fc157600080fd5b50610641610fd0366004613f8c565b6128ab565b606060368054610fe490614049565b80601f016020809104026020016040519081016040528092919081815260200182805461101090614049565b801561105d5780601f106110325761010080835404028352916020019161105d565b820191906000526020600020905b81548152906001019060200180831161104057829003601f168201915b5050505050905090565b600033611075818585612bb7565b60019150505b92915050565b600061013b54426110929190614099565b905061013a5481106110fb576000610139546127106110b19190614099565b116110c457506000610138554261013b55565b61271061013954610138546110d991906140ac565b6110e391906140c3565b610139546110f19190614099565b610139554261013b555b50565b611106612d0f565b6001600160a01b0381166111615760405162461bcd60e51b815260206004820181905260248201527f4e6577206f776e65722063616e6e6f74206265207a65726f206164647265737360448201526064015b60405180910390fd5b61012d80546001600160a01b0319166001600160a01b0383169081179091556040517ff0c6916d81cd1f899264b5193e3bbe7afd2bcc3d05704bab73d0b8ac9387115890600090a250565b6111b4612d0f565b61012d80546001600160a01b031916905560005b61012e548110156110fb57600061012f600061012e84815481106111ee576111ee6140e5565b6000918252602080832091909101546001600160a01b031683528201929092526040019020805460ff19169115159190911790558061122c816140fb565b9150506111c8565b6001600160a01b038316600090815261013f60205260408120548490158061127457506001600160a01b038116600090815261013f602052604090205442115b6112c05760405162461bcd60e51b815260206004820152601060248201527f57616c6c65742069732066726f7a656e000000000000000000000000000000006044820152606401611158565b3360008181526101406020526040902054849060ff16611380576101315481101561132d5760405162461bcd60e51b815260206004820152601460248201527f416d6f756e742062656c6f77206d696e696d756d0000000000000000000000006044820152606401611158565b610132548111156113805760405162461bcd60e51b815260206004820152601660248201527f416d6f756e742065786365656473206d6178696d756d000000000000000000006044820152606401611158565b611388612d69565b6001600160a01b038716600090815261013d602052604090205460ff16156113f25760405162461bcd60e51b815260206004820152601e60248201527f53656e64657227732077616c6c657420697320626c61636b6c697374656400006044820152606401611158565b33600090815261013e60205260409020544210156114525760405162461bcd60e51b815260206004820152601860248201527f5472616e73666572206e6f7420616c6c6f7765642079657400000000000000006044820152606401611158565b610133546114609042614114565b33600081815261013e602052604090209190915561147f888288612dc2565b61148a888888612e54565b6001945050611499600160fb55565b5050509392505050565b6114ab612d0f565b6001600160a01b0384166115275760405162461bcd60e51b815260206004820152602260248201527f42656e656669636961727920616464726573732063616e6e6f74206265207a6560448201527f726f0000000000000000000000000000000000000000000000000000000000006064820152608401611158565b60008211801561153957506127108211155b6115aa5760405162461bcd60e51b8152602060048201526024808201527f50657263656e74616765206d757374206265206265747765656e203120616e6460448201527f20313030000000000000000000000000000000000000000000000000000000006064820152608401611158565b600081116116205760405162461bcd60e51b815260206004820152602760248201527f54696d6520696e74657276616c206d757374206265206772656174657220746860448201527f616e207a65726f000000000000000000000000000000000000000000000000006064820152608401611158565b6001600160a01b039093166000818152610142602052604081209384556001840180546001600160a01b0319169092179091556002830191909155600382019290925542600482015560050155565b611677612d0f565b6001600160a01b0381166116cd5760405162461bcd60e51b815260206004820152600f60248201527f496e76616c6964206164647265737300000000000000000000000000000000006044820152606401611158565b6040516001600160a01b038216904780156108fc02916000818181858888f19350505050158015611702573d6000803e3d6000fd5b5050565b6101355460ff161561175a5760405162461bcd60e51b815260206004820152601360248201527f4c6971756964697479206973206c6f636b6564000000000000000000000000006044820152606401611158565b306000908152603360205260409020548111156117b95760405162461bcd60e51b815260206004820152601460248201527f496e73756666696369656e742062616c616e63650000000000000000000000006044820152606401611158565b6117c3308261230b565b50610134546117d290826131f9565b6101345550610135805460ff19166001179055565b6117ef612d0f565b61013355565b3360008181526034602090815260408083206001600160a01b0387168452909152812054909190611075908290869061182f908790614114565b612bb7565b61183c612d0f565b61184461320c565b565b61184e612d0f565b611856612d69565b600061186160355490565b610144549091506118728383614114565b11156118c05760405162461bcd60e51b815260206004820152601960248201527f537570706c792052656163686564204d617820537570706c79000000000000006044820152606401611158565b6118ca838361325e565b50611702600160fb55565b6110fb338261331f565b6118e7612d0f565b6001600160a01b038116600090815261013d602052604090205460ff16156119515760405162461bcd60e51b815260206004820152601860248201527f7573657220616c726561647920626c61636b6c697374656400000000000000006044820152606401611158565b6001600160a01b0316600090815261013d60205260409020805460ff19166001179055565b3360009081526101426020526040902080546119fa5760405162461bcd60e51b815260206004820152602860248201527f4e6f2076657374696e67207363686564756c6520666f756e6420666f7220746860448201527f652073656e6465720000000000000000000000000000000000000000000000006064820152608401611158565b60048101544290600090611a0e9083614099565b8354600385015491925090821015611a685760405162461bcd60e51b815260206004820152601c60248201527f546f6b656e732063616e6e6f7420626520636c61696d656420796574000000006044820152606401611158565b6000612710856002015483611a7d91906140ac565b611a8791906140c3565b905080856005016000828254611a9d9190614114565b90915550506004850184905581811115611b1f5760405162461bcd60e51b815260206004820152602a60248201527f546f6b656e7320746f20636c61696d2065786365656420746f74616c2076657360448201527f74656420746f6b656e73000000000000000000000000000000000000000000006064820152608401611158565b845460058601541115611b9a5760405162461bcd60e51b815260206004820152602960248201527f4e6f7420656e6f75676820746f6b656e7320696e207468652076657374696e6760448201527f207363686564756c6500000000000000000000000000000000000000000000006064820152608401611158565b61013054611bb2906001600160a01b03163383612e54565b5050505050565b611bc1612d0f565b6001600160a01b038116600090815261013d602052604090205460ff16611c2a5760405162461bcd60e51b815260206004820152601860248201527f7573657220616c726561647920626c61636b6c697374656400000000000000006044820152606401611158565b6001600160a01b0316600090815261013d60205260409020805460ff19169055565b611c54612d0f565b61013a55565b611c62612d0f565b61013c80546001600160a01b03909216610100027fffffffffffffffffffffff0000000000000000000000000000000000000000ff909216919091179055565b611caa612d0f565b6001600160a01b0316600090815261013f6020526040812055565b611ccd612d0f565b611844600061348a565b611cdf612d0f565b6001600160a01b0316600090815261013660205260409020805460ff19166001179055565b611d0c612d0f565b611702828261331f565b611d1f336134dc565b611d6b5760405162461bcd60e51b815260206004820152601160248201527f4e6f7420612076616c696420766f7465720000000000000000000000000000006044820152606401611158565b33600090815261012f602052604090205460ff1615611dcc5760405162461bcd60e51b815260206004820152600d60248201527f416c726561647920766f746564000000000000000000000000000000000000006044820152606401611158565b33600081815261012f6020908152604091829020805460ff191685151590811790915591519182527fa4861c5510bfa99706ed508d728f9c6b365ff27af1a3012e21980952ad2d844f910160405180910390a250565b611e2a612d0f565b611844613547565b611e3a612d0f565b6001600160a01b038216611e905760405162461bcd60e51b815260206004820152601660248201527f496e76616c69642077616c6c65742061646472657373000000000000000000006044820152606401611158565b611e9a8142614114565b6001600160a01b03909216600090815261013f602052604090209190915550565b611ec3612d0f565b600080805b61012e54811015611f2957836001600160a01b031661012e8281548110611ef157611ef16140e5565b6000918252602090912001546001600160a01b031603611f175780925060019150611f29565b80611f21816140fb565b915050611ec8565b508015611fe15761012e8054611f4190600190614099565b81548110611f5157611f516140e5565b60009182526020909120015461012e80546001600160a01b039092169184908110611f7e57611f7e6140e5565b9060005260206000200160006101000a8154816001600160a01b0302191690836001600160a01b0316021790555061012e805480611fbe57611fbe614127565b600082815260209020810160001990810180546001600160a01b03191690550190555b505050565b611fee612d0f565b6001600160a01b0316600090815261014060205260409020805460ff19169055565b612018612d0f565b61013255565b612026612d0f565b61013955565b606060378054610fe490614049565b6101355460ff1661208e5760405162461bcd60e51b815260206004820152601760248201527f4c6971756964697479206973206e6f74206c6f636b65640000000000000000006044820152606401611158565b806101345410156120e15760405162461bcd60e51b815260206004820152601b60248201527f4e6f7420656e6f756768206c6f636b6564206c697175696469747900000000006044820152606401611158565b610130546120f8906001600160a01b03168261230b565b50610134546121079082613584565b6101345550610135805460ff19169055565b612121612d0f565b6040517f70a082310000000000000000000000000000000000000000000000000000000081523060048201526001600160a01b0382169063a9059cbb90849083906370a0823190602401602060405180830381865afa158015612188573d6000803e3d6000fd5b505050506040513d601f19601f820116820180604052508101906121ac919061413d565b6040517fffffffff0000000000000000000000000000000000000000000000000000000060e085901b1681526001600160a01b03909216600483015260248201526044016020604051808303816000875af115801561220f573d6000803e3d6000fd5b505050506040513d601f19601f82011682018060405250810190611fe19190614156565b61223b612d0f565b61013580549115156101000261ff0019909216919091179055565b3360008181526034602090815260408083206001600160a01b0387168452909152812054909190838110156122f35760405162461bcd60e51b815260206004820152602560248201527f45524332303a2064656372656173656420616c6c6f77616e63652062656c6f7760448201527f207a65726f0000000000000000000000000000000000000000000000000000006064820152608401611158565b6123008286868403612bb7565b506001949350505050565b6000612315613590565b33600081815261013f6020526040902054158061234a57506001600160a01b038116600090815261013f602052604090205442115b6123965760405162461bcd60e51b815260206004820152601060248201527f57616c6c65742069732066726f7a656e000000000000000000000000000000006044820152606401611158565b3360008181526101406020526040902054849060ff1661245657610131548110156124035760405162461bcd60e51b815260206004820152601460248201527f416d6f756e742062656c6f77206d696e696d756d0000000000000000000000006044820152606401611158565b610132548111156124565760405162461bcd60e51b815260206004820152601660248201527f416d6f756e742065786365656473206d6178696d756d000000000000000000006044820152606401611158565b61245e612d69565b33600090815261013d602052604090205460ff16156124bf5760405162461bcd60e51b815260206004820152601e60248201527f53656e64657227732077616c6c657420697320626c61636b6c697374656400006044820152606401611158565b33600090815261013e602052604090205442101561251f5760405162461bcd60e51b815260206004820152601860248201527f5472616e73666572206e6f7420616c6c6f7765642079657400000000000000006044820152606401611158565b6101335461252d9042614114565b33600081815261013e602052604090209190915561254c908787612e54565b6001935061255a600160fb55565b50505092915050565b61256b612d0f565b61012e54600090815b818110156125e25761012f600061012e8381548110612595576125956140e5565b60009182526020808320909101546001600160a01b0316835282019290925260400190205460ff16156125d057826125cc816140fb565b9350505b806125da816140fb565b915050612574565b50818114806126335760405162461bcd60e51b815260206004820152601660248201527f496e73756666696369656e7420617070726f76616c73000000000000000000006044820152606401611158565b610130805461012d546001600160a01b039081166001600160a01b0319831681179093551690612662816135e3565b61012d80546001600160a01b031916905560005b848110156126df57600061012f600061012e8481548110612699576126996140e5565b6000918252602080832091909101546001600160a01b031683528201929092526040019020805460ff1916911515919091179055806126d7816140fb565b915050612676565b50806001600160a01b0316826001600160a01b03167f8be0079c531659141344cd1fd0a4f28419497f9722a3daafe3b4186f6b6457e060405160405180910390a35050505050565b61272f612d0f565b61013155565b61273d612d0f565b61014380546001600160a01b039092166001600160a01b031990921682179055600090815261013660205260409020805460ff19166001179055565b612781612d0f565b61013855565b61012e818154811061279857600080fd5b6000918252602090912001546001600160a01b0316905081565b6127ba612d0f565b6001600160a01b0316600090815261013660205260409020805460ff19169055565b6127e4612d0f565b6001600160a01b0316600090815261014060205260409020805460ff19166001179055565b612811612d0f565b600061013855565b612821612d0f565b61013c805460ff1916911515919091179055565b61283d612d0f565b60405162461bcd60e51b815260206004820152602760248201527f506c656173652043616c6c2046696e616c697a65205472616e73666572204f7760448201527f6e657273686970000000000000000000000000000000000000000000000000006064820152608401611158565b600054610100900460ff16158080156128cb5750600054600160ff909116105b806128e55750303b1580156128e5575060005460ff166001145b6129575760405162461bcd60e51b815260206004820152602e60248201527f496e697469616c697a61626c653a20636f6e747261637420697320616c72656160448201527f647920696e697469616c697a65640000000000000000000000000000000000006064820152608401611158565b6000805460ff19166001179055801561297a576000805461ff0019166101001790555b61013080546001600160a01b031916331790556129978787613670565b61299f6136e5565b6129a7613750565b6129af6137c3565b6129b7613836565b61013c805460326101375561138861013855740285e1d847b88056add3823c456ee83d37cdd60a017fffffffffffffffffffffff0000000000000000000000000000000000000000009091161790556107d06101395561012c61013a55610135805461ff00191661010017905560006101315568056bc75e2d631000006101325561013054612a66906001600160a01b0316612a5760ff8816600a614257565b612a6190876140ac565b61325e565b33600090815261013d60209081526040808320805460ff19908116909155610140835281842080548216600190811790915561013e845282852042905561014380546001600160a01b0319166001600160a01b038a811691909117825530875261013690955283862080548416831790556b033b2e3c9fd0803ce800000061014455549093168452908320805490911690911790555b8251811015612b675761012e838281518110612b1a57612b1a6140e5565b60209081029190910181015182546001810184556000938452919092200180546001600160a01b0319166001600160a01b0390921691909117905580612b5f816140fb565b915050612afc565b508015612bae576000805461ff0019169055604051600181527f7f26b83ff96e1f2b6a682f133852f6798a09c465da95921460cefb38474024989060200160405180910390a15b50505050505050565b6001600160a01b038316612c325760405162461bcd60e51b8152602060048201526024808201527f45524332303a20617070726f76652066726f6d20746865207a65726f2061646460448201527f72657373000000000000000000000000000000000000000000000000000000006064820152608401611158565b6001600160a01b038216612cae5760405162461bcd60e51b815260206004820152602260248201527f45524332303a20617070726f766520746f20746865207a65726f20616464726560448201527f73730000000000000000000000000000000000000000000000000000000000006064820152608401611158565b6001600160a01b0383811660008181526034602090815260408083209487168084529482529182902085905590518481527f8c5be1e5ebec7d5bd14f71427d1e84f3dd0314c0f7b2291e5b200ac8c7c3b925910160405180910390a3505050565b6097546001600160a01b031633146118445760405162461bcd60e51b815260206004820181905260248201527f4f776e61626c653a2063616c6c6572206973206e6f7420746865206f776e65726044820152606401611158565b600260fb5403612dbb5760405162461bcd60e51b815260206004820152601f60248201527f5265656e7472616e637947756172643a207265656e7472616e742063616c6c006044820152606401611158565b600260fb55565b6001600160a01b038381166000908152603460209081526040808320938616835292905220546000198114612e4e5781811015612e415760405162461bcd60e51b815260206004820152601d60248201527f45524332303a20696e73756666696369656e7420616c6c6f77616e63650000006044820152606401611158565b612e4e8484848403612bb7565b50505050565b6001600160a01b038316600090815261014060205260409020548390829060ff16612f1f5761013154811015612ecc5760405162461bcd60e51b815260206004820152601460248201527f416d6f756e742062656c6f77206d696e696d756d0000000000000000000000006044820152606401611158565b61013254811115612f1f5760405162461bcd60e51b815260206004820152601660248201527f416d6f756e742065786365656473206d6178696d756d000000000000000000006044820152606401611158565b6001600160a01b038516600090815261013d602052604090205460ff1615612f895760405162461bcd60e51b815260206004820152601e60248201527f53656e64657227732077616c6c657420697320626c61636b6c697374656400006044820152606401611158565b6001600160a01b038516612fed5760405162461bcd60e51b815260206004820152602560248201527f45524332303a207472616e736665722066726f6d20746865207a65726f206164604482015264647265737360d81b6064820152608401611158565b6001600160a01b03841661304f5760405162461bcd60e51b815260206004820152602360248201527f45524332303a207472616e7366657220746f20746865207a65726f206164647260448201526265737360e81b6064820152608401611158565b600083116130c55760405162461bcd60e51b815260206004820152602960248201527f5472616e7366657220616d6f756e74206d75737420626520677265617465722060448201527f7468616e207a65726f00000000000000000000000000000000000000000000006064820152608401611158565b6001600160a01b03851660009081526101366020526040902054839060ff168061310857506001600160a01b0385166000908152610136602052604090205460ff165b1561311e576131183386866138a9565b50611bb2565b61013554610100900460ff1615613167576000612710610137548361314391906140ac565b61314d91906140c3565b9050613159878261331f565b6131638186614099565b9450505b61013c5460ff16156131d7576000612710826101395461318791906140ac565b61319191906140c3565b610130549091506131ad9088906001600160a01b0316836138a9565b61271082610139546131bf91906140ac565b6131c991906140c3565b6131d39086614099565b9450505b6131df611081565b6131ea8686866138a9565b505050505050565b600160fb55565b60006132058284614114565b9392505050565b613214613a6b565b60c9805460ff191690557f5db9ee0a495bf2e6ff9c91a7834c1ba4fdd244a5e8aa4e537bd38aeae4b073aa335b6040516001600160a01b03909116815260200160405180910390a1565b6001600160a01b0382166132b45760405162461bcd60e51b815260206004820152601f60248201527f45524332303a206d696e7420746f20746865207a65726f2061646472657373006044820152606401611158565b80603560008282546132c69190614114565b90915550506001600160a01b0382166000818152603360209081526040808320805486019055518481527fddf252ad1be2c89b69c2b068fc378daa952ba7f163c4a11628f55a4df523b3ef910160405180910390a35050565b6001600160a01b03821661339b5760405162461bcd60e51b815260206004820152602160248201527f45524332303a206275726e2066726f6d20746865207a65726f2061646472657360448201527f73000000000000000000000000000000000000000000000000000000000000006064820152608401611158565b6001600160a01b0382166000908152603360205260409020548181101561342a5760405162461bcd60e51b815260206004820152602260248201527f45524332303a206275726e20616d6f756e7420657863656564732062616c616e60448201527f63650000000000000000000000000000000000000000000000000000000000006064820152608401611158565b6001600160a01b03831660008181526033602090815260408083208686039055603580548790039055518581529192917fddf252ad1be2c89b69c2b068fc378daa952ba7f163c4a11628f55a4df523b3ef910160405180910390a3505050565b609780546001600160a01b038381166001600160a01b0319831681179093556040519116919082907f8be0079c531659141344cd1fd0a4f28419497f9722a3daafe3b4186f6b6457e090600090a35050565b6000805b61012e5481101561353e57826001600160a01b031661012e8281548110613509576135096140e5565b6000918252602090912001546001600160a01b03160361352c5750600192915050565b80613536816140fb565b9150506134e0565b50600092915050565b61354f613590565b60c9805460ff191660011790557f62e78cea01bee320cd4e420270b5ea74000d11b0c9f74754ebdbfc544b05a2586132413390565b60006132058284614099565b60c95460ff16156118445760405162461bcd60e51b815260206004820152601060248201527f5061757361626c653a20706175736564000000000000000000000000000000006044820152606401611158565b6135eb612d0f565b6001600160a01b0381166136675760405162461bcd60e51b815260206004820152602660248201527f4f776e61626c653a206e6577206f776e657220697320746865207a65726f206160448201527f64647265737300000000000000000000000000000000000000000000000000006064820152608401611158565b6110fb8161348a565b600054610100900460ff166136db5760405162461bcd60e51b815260206004820152602b60248201527f496e697469616c697a61626c653a20636f6e7472616374206973206e6f74206960448201526a6e697469616c697a696e6760a81b6064820152608401611158565b6117028282613abd565b600054610100900460ff166118445760405162461bcd60e51b815260206004820152602b60248201527f496e697469616c697a61626c653a20636f6e7472616374206973206e6f74206960448201526a6e697469616c697a696e6760a81b6064820152608401611158565b600054610100900460ff166137bb5760405162461bcd60e51b815260206004820152602b60248201527f496e697469616c697a61626c653a20636f6e7472616374206973206e6f74206960448201526a6e697469616c697a696e6760a81b6064820152608401611158565b611844613b41565b600054610100900460ff1661382e5760405162461bcd60e51b815260206004820152602b60248201527f496e697469616c697a61626c653a20636f6e7472616374206973206e6f74206960448201526a6e697469616c697a696e6760a81b6064820152608401611158565b611844613bb5565b600054610100900460ff166138a15760405162461bcd60e51b815260206004820152602b60248201527f496e697469616c697a61626c653a20636f6e7472616374206973206e6f74206960448201526a6e697469616c697a696e6760a81b6064820152608401611158565b611844613c2c565b6001600160a01b03831661390d5760405162461bcd60e51b815260206004820152602560248201527f45524332303a207472616e736665722066726f6d20746865207a65726f206164604482015264647265737360d81b6064820152608401611158565b6001600160a01b03821661396f5760405162461bcd60e51b815260206004820152602360248201527f45524332303a207472616e7366657220746f20746865207a65726f206164647260448201526265737360e81b6064820152608401611158565b6001600160a01b038316600090815260336020526040902054818110156139fe5760405162461bcd60e51b815260206004820152602660248201527f45524332303a207472616e7366657220616d6f756e742065786365656473206260448201527f616c616e636500000000000000000000000000000000000000000000000000006064820152608401611158565b6001600160a01b0380851660008181526033602052604080822086860390559286168082529083902080548601905591517fddf252ad1be2c89b69c2b068fc378daa952ba7f163c4a11628f55a4df523b3ef90613a5e9086815260200190565b60405180910390a3612e4e565b60c95460ff166118445760405162461bcd60e51b815260206004820152601460248201527f5061757361626c653a206e6f74207061757365640000000000000000000000006044820152606401611158565b600054610100900460ff16613b285760405162461bcd60e51b815260206004820152602b60248201527f496e697469616c697a61626c653a20636f6e7472616374206973206e6f74206960448201526a6e697469616c697a696e6760a81b6064820152608401611158565b6036613b3483826142a9565b506037611fe182826142a9565b600054610100900460ff16613bac5760405162461bcd60e51b815260206004820152602b60248201527f496e697469616c697a61626c653a20636f6e7472616374206973206e6f74206960448201526a6e697469616c697a696e6760a81b6064820152608401611158565b6118443361348a565b600054610100900460ff16613c205760405162461bcd60e51b815260206004820152602b60248201527f496e697469616c697a61626c653a20636f6e7472616374206973206e6f74206960448201526a6e697469616c697a696e6760a81b6064820152608401611158565b60c9805460ff19169055565b600054610100900460ff166131f25760405162461bcd60e51b815260206004820152602b60248201527f496e697469616c697a61626c653a20636f6e7472616374206973206e6f74206960448201526a6e697469616c697a696e6760a81b6064820152608401611158565b600060208083528351808285015260005b81811015613cc457858101830151858201604001528201613ca8565b506000604082860101526040601f19601f8301168501019250505092915050565b6001600160a01b03811681146110fb57600080fd5b8035613d0581613ce5565b919050565b60008060408385031215613d1d57600080fd5b8235613d2881613ce5565b946020939093013593505050565b600060208284031215613d4857600080fd5b813561320581613ce5565b600080600060608486031215613d6857600080fd5b8335613d7381613ce5565b92506020840135613d8381613ce5565b929592945050506040919091013590565b60008060008060808587031215613daa57600080fd5b8435613db581613ce5565b966020860135965060408601359560600135945092505050565b600060208284031215613de157600080fd5b5035919050565b80151581146110fb57600080fd5b600060208284031215613e0857600080fd5b813561320581613de8565b60008060408385031215613e2657600080fd5b8235613e3181613ce5565b91506020830135613e4181613ce5565b809150509250929050565b634e487b7160e01b600052604160045260246000fd5b604051601f8201601f1916810167ffffffffffffffff81118282101715613e8b57613e8b613e4c565b604052919050565b600082601f830112613ea457600080fd5b813567ffffffffffffffff811115613ebe57613ebe613e4c565b613ed1601f8201601f1916602001613e62565b818152846020838601011115613ee657600080fd5b816020850160208301376000918101602001919091529392505050565b600082601f830112613f1457600080fd5b8135602067ffffffffffffffff821115613f3057613f30613e4c565b8160051b613f3f828201613e62565b9283528481018201928281019087851115613f5957600080fd5b83870192505b84831015613f81578235613f7281613ce5565b82529183019190830190613f5f565b979650505050505050565b60008060008060008060c08789031215613fa557600080fd5b863567ffffffffffffffff80821115613fbd57600080fd5b613fc98a838b01613e93565b97506020890135915080821115613fdf57600080fd5b613feb8a838b01613e93565b96506040890135915060ff8216821461400357600080fd5b8195506060890135945061401960808a01613cfa565b935060a089013591508082111561402f57600080fd5b5061403c89828a01613f03565b9150509295509295509295565b600181811c9082168061405d57607f821691505b60208210810361407d57634e487b7160e01b600052602260045260246000fd5b50919050565b634e487b7160e01b600052601160045260246000fd5b8181038181111561107b5761107b614083565b808202811582820484141761107b5761107b614083565b6000826140e057634e487b7160e01b600052601260045260246000fd5b500490565b634e487b7160e01b600052603260045260246000fd5b60006001820161410d5761410d614083565b5060010190565b8082018082111561107b5761107b614083565b634e487b7160e01b600052603160045260246000fd5b60006020828403121561414f57600080fd5b5051919050565b60006020828403121561416857600080fd5b815161320581613de8565b600181815b808511156141ae57816000190482111561419457614194614083565b808516156141a157918102915b93841c9390800290614178565b509250929050565b6000826141c55750600161107b565b816141d25750600061107b565b81600181146141e857600281146141f25761420e565b600191505061107b565b60ff84111561420357614203614083565b50506001821b61107b565b5060208310610133831016604e8410600b8410161715614231575081810a61107b565b61423b8383614173565b806000190482111561424f5761424f614083565b029392505050565b600061320583836141b6565b601f821115611fe157600081815260208120601f850160051c8101602086101561428a5750805b601f850160051c820191505b818110156131ea57828155600101614296565b815167ffffffffffffffff8111156142c3576142c3613e4c565b6142d7816142d18454614049565b84614263565b602080601f83116001811461430c57600084156142f45750858301515b600019600386901b1c1916600185901b1785556131ea565b600085815260208120601f198616915b8281101561433b5788860151825594840194600190910190840161431c565b50858210156143595787850151600019600388901b60f8161c191681555b5050505050600190811b0190555056fea2646970667358221220a7fefe7fabae0e3c017f8630896658d25ea678221711f16fefddeb9f09d0d3dc64736f6c63430008130033","opcodes":"PUSH1 0x80 PUSH1 0x40 MSTORE CALLVALUE DUP1 ISZERO PUSH2 0x10 JUMPI PUSH1 0x0 DUP1 REVERT JUMPDEST POP PUSH2 0x439F DUP1 PUSH2 0x20 PUSH1 0x0 CODECOPY PUSH1 0x0 RETURN INVALID PUSH1 0x80 PUSH1 0x40 MSTORE PUSH1 0x4 CALLDATASIZE LT PUSH2 0x55C JUMPI PUSH1 0x0 CALLDATALOAD PUSH1 0xE0 SHR DUP1 PUSH4 0x79CC6790 GT PUSH2 0x2CA JUMPI DUP1 PUSH4 0xBD0E0ACD GT PUSH2 0x179 JUMPI DUP1 PUSH4 0xDA58C7D9 GT PUSH2 0xD6 JUMPI DUP1 PUSH4 0xF217FDBE GT PUSH2 0x8A JUMPI DUP1 PUSH4 0xF78E633D GT PUSH2 0x6F JUMPI DUP1 PUSH4 0xF78E633D EQ PUSH2 0xF04 JUMPI DUP1 PUSH4 0xF887EA40 EQ PUSH2 0xF94 JUMPI DUP1 PUSH4 0xF8F1B6C9 EQ PUSH2 0xFB5 JUMPI PUSH1 0x0 DUP1 REVERT JUMPDEST DUP1 PUSH4 0xF217FDBE EQ PUSH2 0xEC4 JUMPI DUP1 PUSH4 0xF2FDE38B EQ PUSH2 0xEE4 JUMPI PUSH1 0x0 DUP1 REVERT JUMPDEST DUP1 PUSH4 0xE17C4C74 GT PUSH2 0xBB JUMPI DUP1 PUSH4 0xE17C4C74 EQ PUSH2 0xE6F JUMPI DUP1 PUSH4 0xE43252D7 EQ PUSH2 0xE8F JUMPI DUP1 PUSH4 0xEB60B83F EQ PUSH2 0xEAF JUMPI PUSH1 0x0 DUP1 REVERT JUMPDEST DUP1 PUSH4 0xDA58C7D9 EQ PUSH2 0xE09 JUMPI DUP1 PUSH4 0xDD62ED3E EQ PUSH2 0xE29 JUMPI PUSH1 0x0 DUP1 REVERT JUMPDEST DUP1 PUSH4 0xCB4CA631 GT PUSH2 0x12D JUMPI DUP1 PUSH4 0xD153B60C GT PUSH2 0x112 JUMPI DUP1 PUSH4 0xD153B60C EQ PUSH2 0xDB1 JUMPI DUP1 PUSH4 0xD292059E EQ PUSH2 0xDD2 JUMPI DUP1 PUSH4 0xD5ABEB01 EQ PUSH2 0xDF2 JUMPI PUSH1 0x0 DUP1 REVERT JUMPDEST DUP1 PUSH4 0xCB4CA631 EQ PUSH2 0xD69 JUMPI DUP1 PUSH4 0xD0A1BD44 EQ PUSH2 0xD9A JUMPI PUSH1 0x0 DUP1 REVERT JUMPDEST DUP1 PUSH4 0xBFED5CE3 GT PUSH2 0x15E JUMPI DUP1 PUSH4 0xBFED5CE3 EQ PUSH2 0xD12 JUMPI DUP1 PUSH4 0xC0D78655 EQ PUSH2 0xD32 JUMPI DUP1 PUSH4 0xC8C8EBE4 EQ PUSH2 0xD52 JUMPI PUSH1 0x0 DUP1 REVERT JUMPDEST DUP1 PUSH4 0xBD0E0ACD EQ PUSH2 0xCE6 JUMPI DUP1 PUSH4 0xBF41C2A4 EQ PUSH2 0xCFD JUMPI PUSH1 0x0 DUP1 REVERT JUMPDEST DUP1 PUSH4 0x95D89B41 GT PUSH2 0x227 JUMPI DUP1 PUSH4 0xA9059CBB GT PUSH2 0x1DB JUMPI DUP1 PUSH4 0xB2BDFA7B GT PUSH2 0x1C0 JUMPI DUP1 PUSH4 0xB2BDFA7B EQ PUSH2 0xC68 JUMPI DUP1 PUSH4 0xB36D6919 EQ PUSH2 0xC89 JUMPI DUP1 PUSH4 0xB5C43DB4 EQ PUSH2 0xCC3 JUMPI PUSH1 0x0 DUP1 REVERT JUMPDEST DUP1 PUSH4 0xA9059CBB EQ PUSH2 0xC2D JUMPI DUP1 PUSH4 0xAB8B2F0D EQ PUSH2 0xC4D JUMPI PUSH1 0x0 DUP1 REVERT JUMPDEST DUP1 PUSH4 0x99672158 GT PUSH2 0x20C JUMPI DUP1 PUSH4 0x99672158 EQ PUSH2 0xBCD JUMPI DUP1 PUSH4 0xA30FF8B6 EQ PUSH2 0xBED JUMPI DUP1 PUSH4 0xA457C2D7 EQ PUSH2 0xC0D JUMPI PUSH1 0x0 DUP1 REVERT JUMPDEST DUP1 PUSH4 0x95D89B41 EQ PUSH2 0xB98 JUMPI DUP1 PUSH4 0x96E83924 EQ PUSH2 0xBAD JUMPI PUSH1 0x0 DUP1 REVERT JUMPDEST DUP1 PUSH4 0x8AB1D681 GT PUSH2 0x27E JUMPI DUP1 PUSH4 0x8DA5CB5B GT PUSH2 0x263 JUMPI DUP1 PUSH4 0x8DA5CB5B EQ PUSH2 0xB3A JUMPI DUP1 PUSH4 0x8E8C10A2 EQ PUSH2 0xB58 JUMPI DUP1 PUSH4 0x8F376FCA EQ PUSH2 0xB78 JUMPI PUSH1 0x0 DUP1 REVERT JUMPDEST DUP1 PUSH4 0x8AB1D681 EQ PUSH2 0xAFA JUMPI DUP1 PUSH4 0x8BF55409 EQ PUSH2 0xB1A JUMPI PUSH1 0x0 DUP1 REVERT JUMPDEST DUP1 PUSH4 0x8456CB59 GT PUSH2 0x2AF JUMPI DUP1 PUSH4 0x8456CB59 EQ PUSH2 0xAA5 JUMPI DUP1 PUSH4 0x85BE583F EQ PUSH2 0xABA JUMPI DUP1 PUSH4 0x86C1FF68 EQ PUSH2 0xADA JUMPI PUSH1 0x0 DUP1 REVERT JUMPDEST DUP1 PUSH4 0x79CC6790 EQ PUSH2 0xA65 JUMPI DUP1 PUSH4 0x7ACE48E7 EQ PUSH2 0xA85 JUMPI PUSH1 0x0 DUP1 REVERT JUMPDEST DUP1 PUSH4 0x3AF32ABF GT PUSH2 0x426 JUMPI DUP1 PUSH4 0x57976FB4 GT PUSH2 0x383 JUMPI DUP1 PUSH4 0x70A08231 GT PUSH2 0x337 JUMPI DUP1 PUSH4 0x736C0D5B GT PUSH2 0x31C JUMPI DUP1 PUSH4 0x736C0D5B EQ PUSH2 0x9FD JUMPI DUP1 PUSH4 0x760B7E38 EQ PUSH2 0xA2E JUMPI DUP1 PUSH4 0x7884D888 EQ PUSH2 0xA45 JUMPI PUSH1 0x0 DUP1 REVERT JUMPDEST DUP1 PUSH4 0x70A08231 EQ PUSH2 0x9B2 JUMPI DUP1 PUSH4 0x715018A6 EQ PUSH2 0x9E8 JUMPI PUSH1 0x0 DUP1 REVERT JUMPDEST DUP1 PUSH4 0x5E2F16C8 GT PUSH2 0x368 JUMPI DUP1 PUSH4 0x5E2F16C8 EQ PUSH2 0x964 JUMPI DUP1 PUSH4 0x60F588B7 EQ PUSH2 0x97B JUMPI DUP1 PUSH4 0x622B67CB EQ PUSH2 0x99B JUMPI PUSH1 0x0 DUP1 REVERT JUMPDEST DUP1 PUSH4 0x57976FB4 EQ PUSH2 0x931 JUMPI DUP1 PUSH4 0x5C975ABB EQ PUSH2 0x94C JUMPI PUSH1 0x0 DUP1 REVERT JUMPDEST DUP1 PUSH4 0x4838D165 GT PUSH2 0x3DA JUMPI DUP1 PUSH4 0x537DF3B6 GT PUSH2 0x3BF JUMPI DUP1 PUSH4 0x537DF3B6 EQ PUSH2 0x8D1 JUMPI DUP1 PUSH4 0x553BA06C EQ PUSH2 0x8F1 JUMPI DUP1 PUSH4 0x55EBA868 EQ PUSH2 0x911 JUMPI PUSH1 0x0 DUP1 REVERT JUMPDEST DUP1 PUSH4 0x4838D165 EQ PUSH2 0x89C JUMPI DUP1 PUSH4 0x4E71D92D EQ PUSH2 0x8BC JUMPI PUSH1 0x0 DUP1 REVERT JUMPDEST DUP1 PUSH4 0x3F4BA83A GT PUSH2 0x40B JUMPI DUP1 PUSH4 0x3F4BA83A EQ PUSH2 0x847 JUMPI DUP1 PUSH4 0x40C10F19 EQ PUSH2 0x85C JUMPI DUP1 PUSH4 0x42966C68 EQ PUSH2 0x87C JUMPI PUSH1 0x0 DUP1 REVERT JUMPDEST DUP1 PUSH4 0x3AF32ABF EQ PUSH2 0x7DF JUMPI DUP1 PUSH4 0x3EB5CBEB EQ PUSH2 0x819 JUMPI PUSH1 0x0 DUP1 REVERT JUMPDEST DUP1 PUSH4 0x23452B9C GT PUSH2 0x4D4 JUMPI DUP1 PUSH4 0x2BFBD9CF GT PUSH2 0x488 JUMPI DUP1 PUSH4 0x313CE567 GT PUSH2 0x46D JUMPI DUP1 PUSH4 0x313CE567 EQ PUSH2 0x783 JUMPI DUP1 PUSH4 0x36E8C9B3 EQ PUSH2 0x79F JUMPI DUP1 PUSH4 0x39509351 EQ PUSH2 0x7BF JUMPI PUSH1 0x0 DUP1 REVERT JUMPDEST DUP1 PUSH4 0x2BFBD9CF EQ PUSH2 0x725 JUMPI DUP1 PUSH4 0x2F48AB7D EQ PUSH2 0x745 JUMPI PUSH1 0x0 DUP1 REVERT JUMPDEST DUP1 PUSH4 0x24EF8C1B GT PUSH2 0x4B9 JUMPI DUP1 PUSH4 0x24EF8C1B EQ PUSH2 0x6C4 JUMPI DUP1 PUSH4 0x25E16063 EQ PUSH2 0x6E4 JUMPI DUP1 PUSH4 0x2A32234F EQ PUSH2 0x704 JUMPI PUSH1 0x0 DUP1 REVERT JUMPDEST DUP1 PUSH4 0x23452B9C EQ PUSH2 0x68F JUMPI DUP1 PUSH4 0x23B872DD EQ PUSH2 0x6A4 JUMPI PUSH1 0x0 DUP1 REVERT JUMPDEST DUP1 PUSH4 0xA702E8D GT PUSH2 0x52B JUMPI DUP1 PUSH4 0x17A5D4DF GT PUSH2 0x510 JUMPI DUP1 PUSH4 0x17A5D4DF EQ PUSH2 0x643 JUMPI DUP1 PUSH4 0x18160DDD EQ PUSH2 0x65A JUMPI DUP1 PUSH4 0x21040FC3 EQ PUSH2 0x66F JUMPI PUSH1 0x0 DUP1 REVERT JUMPDEST DUP1 PUSH4 0xA702E8D EQ PUSH2 0x615 JUMPI DUP1 PUSH4 0xB4D57F5 EQ PUSH2 0x62C JUMPI PUSH1 0x0 DUP1 REVERT JUMPDEST DUP1 PUSH4 0x52C30BC EQ PUSH2 0x568 JUMPI DUP1 PUSH4 0x6FDDE03 EQ PUSH2 0x592 JUMPI DUP1 PUSH4 0x95EA7B3 EQ PUSH2 0x5B4 JUMPI DUP1 PUSH4 0x9EEF43E EQ PUSH2 0x5E4 JUMPI PUSH1 0x0 DUP1 REVERT JUMPDEST CALLDATASIZE PUSH2 0x563 JUMPI STOP JUMPDEST PUSH1 0x0 DUP1 REVERT JUMPDEST CALLVALUE DUP1 ISZERO PUSH2 0x574 JUMPI PUSH1 0x0 DUP1 REVERT JUMPDEST POP PUSH2 0x57F PUSH2 0x134 SLOAD DUP2 JUMP JUMPDEST PUSH1 0x40 MLOAD SWAP1 DUP2 MSTORE PUSH1 0x20 ADD JUMPDEST PUSH1 0x40 MLOAD DUP1 SWAP2 SUB SWAP1 RETURN JUMPDEST CALLVALUE DUP1 ISZERO PUSH2 0x59E JUMPI PUSH1 0x0 DUP1 REVERT JUMPDEST POP PUSH2 0x5A7 PUSH2 0xFD5 JUMP JUMPDEST PUSH1 0x40 MLOAD PUSH2 0x589 SWAP2 SWAP1 PUSH2 0x3C97 JUMP JUMPDEST CALLVALUE DUP1 ISZERO PUSH2 0x5C0 JUMPI PUSH1 0x0 DUP1 REVERT JUMPDEST POP PUSH2 0x5D4 PUSH2 0x5CF CALLDATASIZE PUSH1 0x4 PUSH2 0x3D0A JUMP JUMPDEST PUSH2 0x1067 JUMP JUMPDEST PUSH1 0x40 MLOAD SWAP1 ISZERO ISZERO DUP2 MSTORE PUSH1 0x20 ADD PUSH2 0x589 JUMP JUMPDEST CALLVALUE DUP1 ISZERO PUSH2 0x5F0 JUMPI PUSH1 0x0 DUP1 REVERT JUMPDEST POP PUSH2 0x5D4 PUSH2 0x5FF CALLDATASIZE PUSH1 0x4 PUSH2 0x3D36 JUMP JUMPDEST PUSH2 0x12F PUSH1 0x20 MSTORE PUSH1 0x0 SWAP1 DUP2 MSTORE PUSH1 0x40 SWAP1 KECCAK256 SLOAD PUSH1 0xFF AND DUP2 JUMP JUMPDEST CALLVALUE DUP1 ISZERO PUSH2 0x621 JUMPI PUSH1 0x0 DUP1 REVERT JUMPDEST POP PUSH2 0x57F PUSH2 0x133 SLOAD DUP2 JUMP JUMPDEST CALLVALUE DUP1 ISZERO PUSH2 0x638 JUMPI PUSH1 0x0 DUP1 REVERT JUMPDEST POP PUSH2 0x641 PUSH2 0x1081 JUMP JUMPDEST STOP JUMPDEST CALLVALUE DUP1 ISZERO PUSH2 0x64F JUMPI PUSH1 0x0 DUP1 REVERT JUMPDEST POP PUSH2 0x57F PUSH2 0x131 SLOAD DUP2 JUMP JUMPDEST CALLVALUE DUP1 ISZERO PUSH2 0x666 JUMPI PUSH1 0x0 DUP1 REVERT JUMPDEST POP PUSH1 0x35 SLOAD PUSH2 0x57F JUMP JUMPDEST CALLVALUE DUP1 ISZERO PUSH2 0x67B JUMPI PUSH1 0x0 DUP1 REVERT JUMPDEST POP PUSH2 0x641 PUSH2 0x68A CALLDATASIZE PUSH1 0x4 PUSH2 0x3D36 JUMP JUMPDEST PUSH2 0x10FE JUMP JUMPDEST CALLVALUE DUP1 ISZERO PUSH2 0x69B JUMPI PUSH1 0x0 DUP1 REVERT JUMPDEST POP PUSH2 0x641 PUSH2 0x11AC JUMP JUMPDEST CALLVALUE DUP1 ISZERO PUSH2 0x6B0 JUMPI PUSH1 0x0 DUP1 REVERT JUMPDEST POP PUSH2 0x5D4 PUSH2 0x6BF CALLDATASIZE PUSH1 0x4 PUSH2 0x3D53 JUMP JUMPDEST PUSH2 0x1234 JUMP JUMPDEST CALLVALUE DUP1 ISZERO PUSH2 0x6D0 JUMPI PUSH1 0x0 DUP1 REVERT JUMPDEST POP PUSH2 0x641 PUSH2 0x6DF CALLDATASIZE PUSH1 0x4 PUSH2 0x3D94 JUMP JUMPDEST PUSH2 0x14A3 JUMP JUMPDEST CALLVALUE DUP1 ISZERO PUSH2 0x6F0 JUMPI PUSH1 0x0 DUP1 REVERT JUMPDEST POP PUSH2 0x641 PUSH2 0x6FF CALLDATASIZE PUSH1 0x4 PUSH2 0x3D36 JUMP JUMPDEST PUSH2 0x166F JUMP JUMPDEST CALLVALUE DUP1 ISZERO PUSH2 0x710 JUMPI PUSH1 0x0 DUP1 REVERT JUMPDEST POP PUSH2 0x641 PUSH2 0x71F CALLDATASIZE PUSH1 0x4 PUSH2 0x3DCF JUMP JUMPDEST PUSH2 0x137 SSTORE JUMP JUMPDEST CALLVALUE DUP1 ISZERO PUSH2 0x731 JUMPI PUSH1 0x0 DUP1 REVERT JUMPDEST POP PUSH2 0x641 PUSH2 0x740 CALLDATASIZE PUSH1 0x4 PUSH2 0x3DCF JUMP JUMPDEST PUSH2 0x1706 JUMP JUMPDEST CALLVALUE DUP1 ISZERO PUSH2 0x751 JUMPI PUSH1 0x0 DUP1 REVERT JUMPDEST POP PUSH2 0x13C SLOAD PUSH2 0x76B SWAP1 PUSH2 0x100 SWAP1 DIV PUSH1 0x1 PUSH1 0x1 PUSH1 0xA0 SHL SUB AND DUP2 JUMP JUMPDEST PUSH1 0x40 MLOAD PUSH1 0x1 PUSH1 0x1 PUSH1 0xA0 SHL SUB SWAP1 SWAP2 AND DUP2 MSTORE PUSH1 0x20 ADD PUSH2 0x589 JUMP JUMPDEST CALLVALUE DUP1 ISZERO PUSH2 0x78F JUMPI PUSH1 0x0 DUP1 REVERT JUMPDEST POP PUSH1 0x40 MLOAD PUSH1 0x12 DUP2 MSTORE PUSH1 0x20 ADD PUSH2 0x589 JUMP JUMPDEST CALLVALUE DUP1 ISZERO PUSH2 0x7AB JUMPI PUSH1 0x0 DUP1 REVERT JUMPDEST POP PUSH2 0x641 PUSH2 0x7BA CALLDATASIZE PUSH1 0x4 PUSH2 0x3DCF JUMP JUMPDEST PUSH2 0x17E7 JUMP JUMPDEST CALLVALUE DUP1 ISZERO PUSH2 0x7CB JUMPI PUSH1 0x0 DUP1 REVERT JUMPDEST POP PUSH2 0x5D4 PUSH2 0x7DA CALLDATASIZE PUSH1 0x4 PUSH2 0x3D0A JUMP JUMPDEST PUSH2 0x17F5 JUMP JUMPDEST CALLVALUE DUP1 ISZERO PUSH2 0x7EB JUMPI PUSH1 0x0 DUP1 REVERT JUMPDEST POP PUSH2 0x5D4 PUSH2 0x7FA CALLDATASIZE PUSH1 0x4 PUSH2 0x3D36 JUMP JUMPDEST PUSH1 0x1 PUSH1 0x1 PUSH1 0xA0 SHL SUB AND PUSH1 0x0 SWAP1 DUP2 MSTORE PUSH2 0x140 PUSH1 0x20 MSTORE PUSH1 0x40 SWAP1 KECCAK256 SLOAD PUSH1 0xFF AND SWAP1 JUMP JUMPDEST CALLVALUE DUP1 ISZERO PUSH2 0x825 JUMPI PUSH1 0x0 DUP1 REVERT JUMPDEST POP PUSH2 0x57F PUSH2 0x834 CALLDATASIZE PUSH1 0x4 PUSH2 0x3D36 JUMP JUMPDEST PUSH2 0x13F PUSH1 0x20 MSTORE PUSH1 0x0 SWAP1 DUP2 MSTORE PUSH1 0x40 SWAP1 KECCAK256 SLOAD DUP2 JUMP JUMPDEST CALLVALUE DUP1 ISZERO PUSH2 0x853 JUMPI PUSH1 0x0 DUP1 REVERT JUMPDEST POP PUSH2 0x641 PUSH2 0x1834 JUMP JUMPDEST CALLVALUE DUP1 ISZERO PUSH2 0x868 JUMPI PUSH1 0x0 DUP1 REVERT JUMPDEST POP PUSH2 0x641 PUSH2 0x877 CALLDATASIZE PUSH1 0x4 PUSH2 0x3D0A JUMP JUMPDEST PUSH2 0x1846 JUMP JUMPDEST CALLVALUE DUP1 ISZERO PUSH2 0x888 JUMPI PUSH1 0x0 DUP1 REVERT JUMPDEST POP PUSH2 0x641 PUSH2 0x897 CALLDATASIZE PUSH1 0x4 PUSH2 0x3DCF JUMP JUMPDEST PUSH2 0x18D5 JUMP JUMPDEST CALLVALUE DUP1 ISZERO PUSH2 0x8A8 JUMPI PUSH1 0x0 DUP1 REVERT JUMPDEST POP PUSH2 0x641 PUSH2 0x8B7 CALLDATASIZE PUSH1 0x4 PUSH2 0x3D36 JUMP JUMPDEST PUSH2 0x18DF JUMP JUMPDEST CALLVALUE DUP1 ISZERO PUSH2 0x8C8 JUMPI PUSH1 0x0 DUP1 REVERT JUMPDEST POP PUSH2 0x641 PUSH2 0x1976 JUMP JUMPDEST CALLVALUE DUP1 ISZERO PUSH2 0x8DD JUMPI PUSH1 0x0 DUP1 REVERT JUMPDEST POP PUSH2 0x641 PUSH2 0x8EC CALLDATASIZE PUSH1 0x4 PUSH2 0x3D36 JUMP JUMPDEST PUSH2 0x1BB9 JUMP JUMPDEST CALLVALUE DUP1 ISZERO PUSH2 0x8FD JUMPI PUSH1 0x0 DUP1 REVERT JUMPDEST POP PUSH2 0x641 PUSH2 0x90C CALLDATASIZE PUSH1 0x4 PUSH2 0x3DCF JUMP JUMPDEST PUSH2 0x1C4C JUMP JUMPDEST CALLVALUE DUP1 ISZERO PUSH2 0x91D JUMPI PUSH1 0x0 DUP1 REVERT JUMPDEST POP PUSH2 0x641 PUSH2 0x92C CALLDATASIZE PUSH1 0x4 PUSH2 0x3D36 JUMP JUMPDEST PUSH2 0x1C5A JUMP JUMPDEST CALLVALUE DUP1 ISZERO PUSH2 0x93D JUMPI PUSH1 0x0 DUP1 REVERT JUMPDEST POP PUSH2 0x135 SLOAD PUSH2 0x5D4 SWAP1 PUSH1 0xFF AND DUP2 JUMP JUMPDEST CALLVALUE DUP1 ISZERO PUSH2 0x958 JUMPI PUSH1 0x0 DUP1 REVERT JUMPDEST POP PUSH1 0xC9 SLOAD PUSH1 0xFF AND PUSH2 0x5D4 JUMP JUMPDEST CALLVALUE DUP1 ISZERO PUSH2 0x970 JUMPI PUSH1 0x0 DUP1 REVERT JUMPDEST POP PUSH2 0x57F PUSH2 0x138 SLOAD DUP2 JUMP JUMPDEST CALLVALUE DUP1 ISZERO PUSH2 0x987 JUMPI PUSH1 0x0 DUP1 REVERT JUMPDEST POP PUSH2 0x641 PUSH2 0x996 CALLDATASIZE PUSH1 0x4 PUSH2 0x3D36 JUMP JUMPDEST PUSH2 0x1CA2 JUMP JUMPDEST CALLVALUE DUP1 ISZERO PUSH2 0x9A7 JUMPI PUSH1 0x0 DUP1 REVERT JUMPDEST POP PUSH2 0x57F PUSH2 0x13A SLOAD DUP2 JUMP JUMPDEST CALLVALUE DUP1 ISZERO PUSH2 0x9BE JUMPI PUSH1 0x0 DUP1 REVERT JUMPDEST POP PUSH2 0x57F PUSH2 0x9CD CALLDATASIZE PUSH1 0x4 PUSH2 0x3D36 JUMP JUMPDEST PUSH1 0x1 PUSH1 0x1 PUSH1 0xA0 SHL SUB AND PUSH1 0x0 SWAP1 DUP2 MSTORE PUSH1 0x33 PUSH1 0x20 MSTORE PUSH1 0x40 SWAP1 KECCAK256 SLOAD SWAP1 JUMP JUMPDEST CALLVALUE DUP1 ISZERO PUSH2 0x9F4 JUMPI PUSH1 0x0 DUP1 REVERT JUMPDEST POP PUSH2 0x641 PUSH2 0x1CC5 JUMP JUMPDEST CALLVALUE DUP1 ISZERO PUSH2 0xA09 JUMPI PUSH1 0x0 DUP1 REVERT JUMPDEST POP PUSH2 0x5D4 PUSH2 0xA18 CALLDATASIZE PUSH1 0x4 PUSH2 0x3D36 JUMP JUMPDEST PUSH2 0x141 PUSH1 0x20 MSTORE PUSH1 0x0 SWAP1 DUP2 MSTORE PUSH1 0x40 SWAP1 KECCAK256 SLOAD PUSH1 0xFF AND DUP2 JUMP JUMPDEST CALLVALUE DUP1 ISZERO PUSH2 0xA3A JUMPI PUSH1 0x0 DUP1 REVERT JUMPDEST POP PUSH2 0x57F PUSH2 0x13B SLOAD DUP2 JUMP JUMPDEST CALLVALUE DUP1 ISZERO PUSH2 0xA51 JUMPI PUSH1 0x0 DUP1 REVERT JUMPDEST POP PUSH2 0x641 PUSH2 0xA60 CALLDATASIZE PUSH1 0x4 PUSH2 0x3D36 JUMP JUMPDEST PUSH2 0x1CD7 JUMP JUMPDEST CALLVALUE DUP1 ISZERO PUSH2 0xA71 JUMPI PUSH1 0x0 DUP1 REVERT JUMPDEST POP PUSH2 0x641 PUSH2 0xA80 CALLDATASIZE PUSH1 0x4 PUSH2 0x3D0A JUMP JUMPDEST PUSH2 0x1D04 JUMP JUMPDEST CALLVALUE DUP1 ISZERO PUSH2 0xA91 JUMPI PUSH1 0x0 DUP1 REVERT JUMPDEST POP PUSH2 0x641 PUSH2 0xAA0 CALLDATASIZE PUSH1 0x4 PUSH2 0x3DF6 JUMP JUMPDEST PUSH2 0x1D16 JUMP JUMPDEST CALLVALUE DUP1 ISZERO PUSH2 0xAB1 JUMPI PUSH1 0x0 DUP1 REVERT JUMPDEST POP PUSH2 0x641 PUSH2 0x1E22 JUMP JUMPDEST CALLVALUE DUP1 ISZERO PUSH2 0xAC6 JUMPI PUSH1 0x0 DUP1 REVERT JUMPDEST POP PUSH2 0x641 PUSH2 0xAD5 CALLDATASIZE PUSH1 0x4 PUSH2 0x3D0A JUMP JUMPDEST PUSH2 0x1E32 JUMP JUMPDEST CALLVALUE DUP1 ISZERO PUSH2 0xAE6 JUMPI PUSH1 0x0 DUP1 REVERT JUMPDEST POP PUSH2 0x641 PUSH2 0xAF5 CALLDATASIZE PUSH1 0x4 PUSH2 0x3D36 JUMP JUMPDEST PUSH2 0x1EBB JUMP JUMPDEST CALLVALUE DUP1 ISZERO PUSH2 0xB06 JUMPI PUSH1 0x0 DUP1 REVERT JUMPDEST POP PUSH2 0x641 PUSH2 0xB15 CALLDATASIZE PUSH1 0x4 PUSH2 0x3D36 JUMP JUMPDEST PUSH2 0x1FE6 JUMP JUMPDEST CALLVALUE DUP1 ISZERO PUSH2 0xB26 JUMPI PUSH1 0x0 DUP1 REVERT JUMPDEST POP PUSH2 0x641 PUSH2 0xB35 CALLDATASIZE PUSH1 0x4 PUSH2 0x3DCF JUMP JUMPDEST PUSH2 0x2010 JUMP JUMPDEST CALLVALUE DUP1 ISZERO PUSH2 0xB46 JUMPI PUSH1 0x0 DUP1 REVERT JUMPDEST POP PUSH1 0x97 SLOAD PUSH1 0x1 PUSH1 0x1 PUSH1 0xA0 SHL SUB AND PUSH2 0x76B JUMP JUMPDEST CALLVALUE DUP1 ISZERO PUSH2 0xB64 JUMPI PUSH1 0x0 DUP1 REVERT JUMPDEST POP PUSH2 0x135 SLOAD PUSH2 0x5D4 SWAP1 PUSH2 0x100 SWAP1 DIV PUSH1 0xFF AND DUP2 JUMP JUMPDEST CALLVALUE DUP1 ISZERO PUSH2 0xB84 JUMPI PUSH1 0x0 DUP1 REVERT JUMPDEST POP PUSH2 0x641 PUSH2 0xB93 CALLDATASIZE PUSH1 0x4 PUSH2 0x3DCF JUMP JUMPDEST PUSH2 0x201E JUMP JUMPDEST CALLVALUE DUP1 ISZERO PUSH2 0xBA4 JUMPI PUSH1 0x0 DUP1 REVERT JUMPDEST POP PUSH2 0x5A7 PUSH2 0x202C JUMP JUMPDEST CALLVALUE DUP1 ISZERO PUSH2 0xBB9 JUMPI PUSH1 0x0 DUP1 REVERT JUMPDEST POP PUSH2 0x641 PUSH2 0xBC8 CALLDATASIZE PUSH1 0x4 PUSH2 0x3DCF JUMP JUMPDEST PUSH2 0x203B JUMP JUMPDEST CALLVALUE DUP1 ISZERO PUSH2 0xBD9 JUMPI PUSH1 0x0 DUP1 REVERT JUMPDEST POP PUSH2 0x641 PUSH2 0xBE8 CALLDATASIZE PUSH1 0x4 PUSH2 0x3E13 JUMP JUMPDEST PUSH2 0x2119 JUMP JUMPDEST CALLVALUE DUP1 ISZERO PUSH2 0xBF9 JUMPI PUSH1 0x0 DUP1 REVERT JUMPDEST POP PUSH2 0x641 PUSH2 0xC08 CALLDATASIZE PUSH1 0x4 PUSH2 0x3DF6 JUMP JUMPDEST PUSH2 0x2233 JUMP JUMPDEST CALLVALUE DUP1 ISZERO PUSH2 0xC19 JUMPI PUSH1 0x0 DUP1 REVERT JUMPDEST POP PUSH2 0x5D4 PUSH2 0xC28 CALLDATASIZE PUSH1 0x4 PUSH2 0x3D0A JUMP JUMPDEST PUSH2 0x2256 JUMP JUMPDEST CALLVALUE DUP1 ISZERO PUSH2 0xC39 JUMPI PUSH1 0x0 DUP1 REVERT JUMPDEST POP PUSH2 0x5D4 PUSH2 0xC48 CALLDATASIZE PUSH1 0x4 PUSH2 0x3D0A JUMP JUMPDEST PUSH2 0x230B JUMP JUMPDEST CALLVALUE DUP1 ISZERO PUSH2 0xC59 JUMPI PUSH1 0x0 DUP1 REVERT JUMPDEST POP PUSH2 0x13C SLOAD PUSH2 0x5D4 SWAP1 PUSH1 0xFF AND DUP2 JUMP JUMPDEST CALLVALUE DUP1 ISZERO PUSH2 0xC74 JUMPI PUSH1 0x0 DUP1 REVERT JUMPDEST POP PUSH2 0x130 SLOAD PUSH2 0x76B SWAP1 PUSH1 0x1 PUSH1 0x1 PUSH1 0xA0 SHL SUB AND DUP2 JUMP JUMPDEST CALLVALUE DUP1 ISZERO PUSH2 0xC95 JUMPI PUSH1 0x0 DUP1 REVERT JUMPDEST POP PUSH2 0x5D4 PUSH2 0xCA4 CALLDATASIZE PUSH1 0x4 PUSH2 0x3D36 JUMP JUMPDEST PUSH1 0x1 PUSH1 0x1 PUSH1 0xA0 SHL SUB AND PUSH1 0x0 SWAP1 DUP2 MSTORE PUSH2 0x13D PUSH1 0x20 MSTORE PUSH1 0x40 SWAP1 KECCAK256 SLOAD PUSH1 0xFF AND SWAP1 JUMP JUMPDEST CALLVALUE DUP1 ISZERO PUSH2 0xCCF JUMPI PUSH1 0x0 DUP1 REVERT JUMPDEST POP CALLER PUSH1 0x0 SWAP1 DUP2 MSTORE PUSH2 0x13E PUSH1 0x20 MSTORE PUSH1 0x40 SWAP1 KECCAK256 SLOAD PUSH2 0x57F JUMP JUMPDEST CALLVALUE DUP1 ISZERO PUSH2 0xCF2 JUMPI PUSH1 0x0 DUP1 REVERT JUMPDEST POP PUSH2 0x57F PUSH2 0x139 SLOAD DUP2 JUMP JUMPDEST CALLVALUE DUP1 ISZERO PUSH2 0xD09 JUMPI PUSH1 0x0 DUP1 REVERT JUMPDEST POP PUSH2 0x641 PUSH2 0x2563 JUMP JUMPDEST CALLVALUE DUP1 ISZERO PUSH2 0xD1E JUMPI PUSH1 0x0 DUP1 REVERT JUMPDEST POP PUSH2 0x641 PUSH2 0xD2D CALLDATASIZE PUSH1 0x4 PUSH2 0x3DCF JUMP JUMPDEST PUSH2 0x2727 JUMP JUMPDEST CALLVALUE DUP1 ISZERO PUSH2 0xD3E JUMPI PUSH1 0x0 DUP1 REVERT JUMPDEST POP PUSH2 0x641 PUSH2 0xD4D CALLDATASIZE PUSH1 0x4 PUSH2 0x3D36 JUMP JUMPDEST PUSH2 0x2735 JUMP JUMPDEST CALLVALUE DUP1 ISZERO PUSH2 0xD5E JUMPI PUSH1 0x0 DUP1 REVERT JUMPDEST POP PUSH2 0x57F PUSH2 0x132 SLOAD DUP2 JUMP JUMPDEST CALLVALUE DUP1 ISZERO PUSH2 0xD75 JUMPI PUSH1 0x0 DUP1 REVERT JUMPDEST POP PUSH2 0x5D4 PUSH2 0xD84 CALLDATASIZE PUSH1 0x4 PUSH2 0x3D36 JUMP JUMPDEST PUSH2 0x136 PUSH1 0x20 MSTORE PUSH1 0x0 SWAP1 DUP2 MSTORE PUSH1 0x40 SWAP1 KECCAK256 SLOAD PUSH1 0xFF AND DUP2 JUMP JUMPDEST CALLVALUE DUP1 ISZERO PUSH2 0xDA6 JUMPI PUSH1 0x0 DUP1 REVERT JUMPDEST POP PUSH2 0x57F PUSH2 0x137 SLOAD DUP2 JUMP JUMPDEST CALLVALUE DUP1 ISZERO PUSH2 0xDBD JUMPI PUSH1 0x0 DUP1 REVERT JUMPDEST POP PUSH2 0x12D SLOAD PUSH2 0x76B SWAP1 PUSH1 0x1 PUSH1 0x1 PUSH1 0xA0 SHL SUB AND DUP2 JUMP JUMPDEST CALLVALUE DUP1 ISZERO PUSH2 0xDDE JUMPI PUSH1 0x0 DUP1 REVERT JUMPDEST POP PUSH2 0x641 PUSH2 0xDED CALLDATASIZE PUSH1 0x4 PUSH2 0x3DCF JUMP JUMPDEST PUSH2 0x2779 JUMP JUMPDEST CALLVALUE DUP1 ISZERO PUSH2 0xDFE JUMPI PUSH1 0x0 DUP1 REVERT JUMPDEST POP PUSH2 0x57F PUSH2 0x144 SLOAD DUP2 JUMP JUMPDEST CALLVALUE DUP1 ISZERO PUSH2 0xE15 JUMPI PUSH1 0x0 DUP1 REVERT JUMPDEST POP PUSH2 0x76B PUSH2 0xE24 CALLDATASIZE PUSH1 0x4 PUSH2 0x3DCF JUMP JUMPDEST PUSH2 0x2787 JUMP JUMPDEST CALLVALUE DUP1 ISZERO PUSH2 0xE35 JUMPI PUSH1 0x0 DUP1 REVERT JUMPDEST POP PUSH2 0x57F PUSH2 0xE44 CALLDATASIZE PUSH1 0x4 PUSH2 0x3E13 JUMP JUMPDEST PUSH1 0x1 PUSH1 0x1 PUSH1 0xA0 SHL SUB SWAP2 DUP3 AND PUSH1 0x0 SWAP1 DUP2 MSTORE PUSH1 0x34 PUSH1 0x20 SWAP1 DUP2 MSTORE PUSH1 0x40 DUP1 DUP4 KECCAK256 SWAP4 SWAP1 SWAP5 AND DUP3 MSTORE SWAP2 SWAP1 SWAP2 MSTORE KECCAK256 SLOAD SWAP1 JUMP JUMPDEST CALLVALUE DUP1 ISZERO PUSH2 0xE7B JUMPI PUSH1 0x0 DUP1 REVERT JUMPDEST POP PUSH2 0x641 PUSH2 0xE8A CALLDATASIZE PUSH1 0x4 PUSH2 0x3D36 JUMP JUMPDEST PUSH2 0x27B2 JUMP JUMPDEST CALLVALUE DUP1 ISZERO PUSH2 0xE9B JUMPI PUSH1 0x0 DUP1 REVERT JUMPDEST POP PUSH2 0x641 PUSH2 0xEAA CALLDATASIZE PUSH1 0x4 PUSH2 0x3D36 JUMP JUMPDEST PUSH2 0x27DC JUMP JUMPDEST CALLVALUE DUP1 ISZERO PUSH2 0xEBB JUMPI PUSH1 0x0 DUP1 REVERT JUMPDEST POP PUSH2 0x641 PUSH2 0x2809 JUMP JUMPDEST CALLVALUE DUP1 ISZERO PUSH2 0xED0 JUMPI PUSH1 0x0 DUP1 REVERT JUMPDEST POP PUSH2 0x641 PUSH2 0xEDF CALLDATASIZE PUSH1 0x4 PUSH2 0x3DF6 JUMP JUMPDEST PUSH2 0x2819 JUMP JUMPDEST CALLVALUE DUP1 ISZERO PUSH2 0xEF0 JUMPI PUSH1 0x0 DUP1 REVERT JUMPDEST POP PUSH2 0x641 PUSH2 0xEFF CALLDATASIZE PUSH1 0x4 PUSH2 0x3D36 JUMP JUMPDEST PUSH2 0x2835 JUMP JUMPDEST CALLVALUE DUP1 ISZERO PUSH2 0xF10 JUMPI PUSH1 0x0 DUP1 REVERT JUMPDEST POP PUSH2 0xF5F PUSH2 0xF1F CALLDATASIZE PUSH1 0x4 PUSH2 0x3D36 JUMP JUMPDEST PUSH2 0x142 PUSH1 0x20 MSTORE PUSH1 0x0 SWAP1 DUP2 MSTORE PUSH1 0x40 SWAP1 KECCAK256 DUP1 SLOAD PUSH1 0x1 DUP3 ADD SLOAD PUSH1 0x2 DUP4 ADD SLOAD PUSH1 0x3 DUP5 ADD SLOAD PUSH1 0x4 DUP6 ADD SLOAD PUSH1 0x5 SWAP1 SWAP6 ADD SLOAD SWAP4 SWAP5 PUSH1 0x1 PUSH1 0x1 PUSH1 0xA0 SHL SUB SWAP1 SWAP4 AND SWAP4 SWAP2 SWAP3 SWAP1 SWAP2 DUP7 JUMP JUMPDEST PUSH1 0x40 DUP1 MLOAD SWAP7 DUP8 MSTORE PUSH1 0x1 PUSH1 0x1 PUSH1 0xA0 SHL SUB SWAP1 SWAP6 AND PUSH1 0x20 DUP8 ADD MSTORE SWAP4 DUP6 ADD SWAP3 SWAP1 SWAP3 MSTORE PUSH1 0x60 DUP5 ADD MSTORE PUSH1 0x80 DUP4 ADD MSTORE PUSH1 0xA0 DUP3 ADD MSTORE PUSH1 0xC0 ADD PUSH2 0x589 JUMP JUMPDEST CALLVALUE DUP1 ISZERO PUSH2 0xFA0 JUMPI PUSH1 0x0 DUP1 REVERT JUMPDEST POP PUSH2 0x143 SLOAD PUSH2 0x76B SWAP1 PUSH1 0x1 PUSH1 0x1 PUSH1 0xA0 SHL SUB AND DUP2 JUMP JUMPDEST CALLVALUE DUP1 ISZERO PUSH2 0xFC1 JUMPI PUSH1 0x0 DUP1 REVERT JUMPDEST POP PUSH2 0x641 PUSH2 0xFD0 CALLDATASIZE PUSH1 0x4 PUSH2 0x3F8C JUMP JUMPDEST PUSH2 0x28AB JUMP JUMPDEST PUSH1 0x60 PUSH1 0x36 DUP1 SLOAD PUSH2 0xFE4 SWAP1 PUSH2 0x4049 JUMP JUMPDEST DUP1 PUSH1 0x1F ADD PUSH1 0x20 DUP1 SWAP2 DIV MUL PUSH1 0x20 ADD PUSH1 0x40 MLOAD SWAP1 DUP2 ADD PUSH1 0x40 MSTORE DUP1 SWAP3 SWAP2 SWAP1 DUP2 DUP2 MSTORE PUSH1 0x20 ADD DUP3 DUP1 SLOAD PUSH2 0x1010 SWAP1 PUSH2 0x4049 JUMP JUMPDEST DUP1 ISZERO PUSH2 0x105D JUMPI DUP1 PUSH1 0x1F LT PUSH2 0x1032 JUMPI PUSH2 0x100 DUP1 DUP4 SLOAD DIV MUL DUP4 MSTORE SWAP2 PUSH1 0x20 ADD SWAP2 PUSH2 0x105D JUMP JUMPDEST DUP3 ADD SWAP2 SWAP1 PUSH1 0x0 MSTORE PUSH1 0x20 PUSH1 0x0 KECCAK256 SWAP1 JUMPDEST DUP2 SLOAD DUP2 MSTORE SWAP1 PUSH1 0x1 ADD SWAP1 PUSH1 0x20 ADD DUP1 DUP4 GT PUSH2 0x1040 JUMPI DUP3 SWAP1 SUB PUSH1 0x1F AND DUP3 ADD SWAP2 JUMPDEST POP POP POP POP POP SWAP1 POP SWAP1 JUMP JUMPDEST PUSH1 0x0 CALLER PUSH2 0x1075 DUP2 DUP6 DUP6 PUSH2 0x2BB7 JUMP JUMPDEST PUSH1 0x1 SWAP2 POP POP JUMPDEST SWAP3 SWAP2 POP POP JUMP JUMPDEST PUSH1 0x0 PUSH2 0x13B SLOAD TIMESTAMP PUSH2 0x1092 SWAP2 SWAP1 PUSH2 0x4099 JUMP JUMPDEST SWAP1 POP PUSH2 0x13A SLOAD DUP2 LT PUSH2 0x10FB JUMPI PUSH1 0x0 PUSH2 0x139 SLOAD PUSH2 0x2710 PUSH2 0x10B1 SWAP2 SWAP1 PUSH2 0x4099 JUMP JUMPDEST GT PUSH2 0x10C4 JUMPI POP PUSH1 0x0 PUSH2 0x138 SSTORE TIMESTAMP PUSH2 0x13B SSTORE JUMP JUMPDEST PUSH2 0x2710 PUSH2 0x139 SLOAD PUSH2 0x138 SLOAD PUSH2 0x10D9 SWAP2 SWAP1 PUSH2 0x40AC JUMP JUMPDEST PUSH2 0x10E3 SWAP2 SWAP1 PUSH2 0x40C3 JUMP JUMPDEST PUSH2 0x139 SLOAD PUSH2 0x10F1 SWAP2 SWAP1 PUSH2 0x4099 JUMP JUMPDEST PUSH2 0x139 SSTORE TIMESTAMP PUSH2 0x13B SSTORE JUMPDEST POP JUMP JUMPDEST PUSH2 0x1106 PUSH2 0x2D0F JUMP JUMPDEST PUSH1 0x1 PUSH1 0x1 PUSH1 0xA0 SHL SUB DUP2 AND PUSH2 0x1161 JUMPI PUSH1 0x40 MLOAD PUSH3 0x461BCD PUSH1 0xE5 SHL DUP2 MSTORE PUSH1 0x20 PUSH1 0x4 DUP3 ADD DUP2 SWAP1 MSTORE PUSH1 0x24 DUP3 ADD MSTORE PUSH32 0x4E6577206F776E65722063616E6E6F74206265207A65726F2061646472657373 PUSH1 0x44 DUP3 ADD MSTORE PUSH1 0x64 ADD JUMPDEST PUSH1 0x40 MLOAD DUP1 SWAP2 SUB SWAP1 REVERT JUMPDEST PUSH2 0x12D DUP1 SLOAD PUSH1 0x1 PUSH1 0x1 PUSH1 0xA0 SHL SUB NOT AND PUSH1 0x1 PUSH1 0x1 PUSH1 0xA0 SHL SUB DUP4 AND SWAP1 DUP2 OR SWAP1 SWAP2 SSTORE PUSH1 0x40 MLOAD PUSH32 0xF0C6916D81CD1F899264B5193E3BBE7AFD2BCC3D05704BAB73D0B8AC93871158 SWAP1 PUSH1 0x0 SWAP1 LOG2 POP JUMP JUMPDEST PUSH2 0x11B4 PUSH2 0x2D0F JUMP JUMPDEST PUSH2 0x12D DUP1 SLOAD PUSH1 0x1 PUSH1 0x1 PUSH1 0xA0 SHL SUB NOT AND SWAP1 SSTORE PUSH1 0x0 JUMPDEST PUSH2 0x12E SLOAD DUP2 LT ISZERO PUSH2 0x10FB JUMPI PUSH1 0x0 PUSH2 0x12F PUSH1 0x0 PUSH2 0x12E DUP5 DUP2 SLOAD DUP2 LT PUSH2 0x11EE JUMPI PUSH2 0x11EE PUSH2 0x40E5 JUMP JUMPDEST PUSH1 0x0 SWAP2 DUP3 MSTORE PUSH1 0x20 DUP1 DUP4 KECCAK256 SWAP2 SWAP1 SWAP2 ADD SLOAD PUSH1 0x1 PUSH1 0x1 PUSH1 0xA0 SHL SUB AND DUP4 MSTORE DUP3 ADD SWAP3 SWAP1 SWAP3 MSTORE PUSH1 0x40 ADD SWAP1 KECCAK256 DUP1 SLOAD PUSH1 0xFF NOT AND SWAP2 ISZERO ISZERO SWAP2 SWAP1 SWAP2 OR SWAP1 SSTORE DUP1 PUSH2 0x122C DUP2 PUSH2 0x40FB JUMP JUMPDEST SWAP2 POP POP PUSH2 0x11C8 JUMP JUMPDEST PUSH1 0x1 PUSH1 0x1 PUSH1 0xA0 SHL SUB DUP4 AND PUSH1 0x0 SWAP1 DUP2 MSTORE PUSH2 0x13F PUSH1 0x20 MSTORE PUSH1 0x40 DUP2 KECCAK256 SLOAD DUP5 SWAP1 ISZERO DUP1 PUSH2 0x1274 JUMPI POP PUSH1 0x1 PUSH1 0x1 PUSH1 0xA0 SHL SUB DUP2 AND PUSH1 0x0 SWAP1 DUP2 MSTORE PUSH2 0x13F PUSH1 0x20 MSTORE PUSH1 0x40 SWAP1 KECCAK256 SLOAD TIMESTAMP GT JUMPDEST PUSH2 0x12C0 JUMPI PUSH1 0x40 MLOAD PUSH3 0x461BCD PUSH1 0xE5 SHL DUP2 MSTORE PUSH1 0x20 PUSH1 0x4 DUP3 ADD MSTORE PUSH1 0x10 PUSH1 0x24 DUP3 ADD MSTORE PUSH32 0x57616C6C65742069732066726F7A656E00000000000000000000000000000000 PUSH1 0x44 DUP3 ADD MSTORE PUSH1 0x64 ADD PUSH2 0x1158 JUMP JUMPDEST CALLER PUSH1 0x0 DUP2 DUP2 MSTORE PUSH2 0x140 PUSH1 0x20 MSTORE PUSH1 0x40 SWAP1 KECCAK256 SLOAD DUP5 SWAP1 PUSH1 0xFF AND PUSH2 0x1380 JUMPI PUSH2 0x131 SLOAD DUP2 LT ISZERO PUSH2 0x132D JUMPI PUSH1 0x40 MLOAD PUSH3 0x461BCD PUSH1 0xE5 SHL DUP2 MSTORE PUSH1 0x20 PUSH1 0x4 DUP3 ADD MSTORE PUSH1 0x14 PUSH1 0x24 DUP3 ADD MSTORE PUSH32 0x416D6F756E742062656C6F77206D696E696D756D000000000000000000000000 PUSH1 0x44 DUP3 ADD MSTORE PUSH1 0x64 ADD PUSH2 0x1158 JUMP JUMPDEST PUSH2 0x132 SLOAD DUP2 GT ISZERO PUSH2 0x1380 JUMPI PUSH1 0x40 MLOAD PUSH3 0x461BCD PUSH1 0xE5 SHL DUP2 MSTORE PUSH1 0x20 PUSH1 0x4 DUP3 ADD MSTORE PUSH1 0x16 PUSH1 0x24 DUP3 ADD MSTORE PUSH32 0x416D6F756E742065786365656473206D6178696D756D00000000000000000000 PUSH1 0x44 DUP3 ADD MSTORE PUSH1 0x64 ADD PUSH2 0x1158 JUMP JUMPDEST PUSH2 0x1388 PUSH2 0x2D69 JUMP JUMPDEST PUSH1 0x1 PUSH1 0x1 PUSH1 0xA0 SHL SUB DUP8 AND PUSH1 0x0 SWAP1 DUP2 MSTORE PUSH2 0x13D PUSH1 0x20 MSTORE PUSH1 0x40 SWAP1 KECCAK256 SLOAD PUSH1 0xFF AND ISZERO PUSH2 0x13F2 JUMPI PUSH1 0x40 MLOAD PUSH3 0x461BCD PUSH1 0xE5 SHL DUP2 MSTORE PUSH1 0x20 PUSH1 0x4 DUP3 ADD MSTORE PUSH1 0x1E PUSH1 0x24 DUP3 ADD MSTORE PUSH32 0x53656E64657227732077616C6C657420697320626C61636B6C69737465640000 PUSH1 0x44 DUP3 ADD MSTORE PUSH1 0x64 ADD PUSH2 0x1158 JUMP JUMPDEST CALLER PUSH1 0x0 SWAP1 DUP2 MSTORE PUSH2 0x13E PUSH1 0x20 MSTORE PUSH1 0x40 SWAP1 KECCAK256 SLOAD TIMESTAMP LT ISZERO PUSH2 0x1452 JUMPI PUSH1 0x40 MLOAD PUSH3 0x461BCD PUSH1 0xE5 SHL DUP2 MSTORE PUSH1 0x20 PUSH1 0x4 DUP3 ADD MSTORE PUSH1 0x18 PUSH1 0x24 DUP3 ADD MSTORE PUSH32 0x5472616E73666572206E6F7420616C6C6F776564207965740000000000000000 PUSH1 0x44 DUP3 ADD MSTORE PUSH1 0x64 ADD PUSH2 0x1158 JUMP JUMPDEST PUSH2 0x133 SLOAD PUSH2 0x1460 SWAP1 TIMESTAMP PUSH2 0x4114 JUMP JUMPDEST CALLER PUSH1 0x0 DUP2 DUP2 MSTORE PUSH2 0x13E PUSH1 0x20 MSTORE PUSH1 0x40 SWAP1 KECCAK256 SWAP2 SWAP1 SWAP2 SSTORE PUSH2 0x147F DUP9 DUP3 DUP9 PUSH2 0x2DC2 JUMP JUMPDEST PUSH2 0x148A DUP9 DUP9 DUP9 PUSH2 0x2E54 JUMP JUMPDEST PUSH1 0x1 SWAP5 POP POP PUSH2 0x1499 PUSH1 0x1 PUSH1 0xFB SSTORE JUMP JUMPDEST POP POP POP SWAP4 SWAP3 POP POP POP JUMP JUMPDEST PUSH2 0x14AB PUSH2 0x2D0F JUMP JUMPDEST PUSH1 0x1 PUSH1 0x1 PUSH1 0xA0 SHL SUB DUP5 AND PUSH2 0x1527 JUMPI PUSH1 0x40 MLOAD PUSH3 0x461BCD PUSH1 0xE5 SHL DUP2 MSTORE PUSH1 0x20 PUSH1 0x4 DUP3 ADD MSTORE PUSH1 0x22 PUSH1 0x24 DUP3 ADD MSTORE PUSH32 0x42656E656669636961727920616464726573732063616E6E6F74206265207A65 PUSH1 0x44 DUP3 ADD MSTORE PUSH32 0x726F000000000000000000000000000000000000000000000000000000000000 PUSH1 0x64 DUP3 ADD MSTORE PUSH1 0x84 ADD PUSH2 0x1158 JUMP JUMPDEST PUSH1 0x0 DUP3 GT DUP1 ISZERO PUSH2 0x1539 JUMPI POP PUSH2 0x2710 DUP3 GT ISZERO JUMPDEST PUSH2 0x15AA JUMPI PUSH1 0x40 MLOAD PUSH3 0x461BCD PUSH1 0xE5 SHL DUP2 MSTORE PUSH1 0x20 PUSH1 0x4 DUP3 ADD MSTORE PUSH1 0x24 DUP1 DUP3 ADD MSTORE PUSH32 0x50657263656E74616765206D757374206265206265747765656E203120616E64 PUSH1 0x44 DUP3 ADD MSTORE PUSH32 0x2031303000000000000000000000000000000000000000000000000000000000 PUSH1 0x64 DUP3 ADD MSTORE PUSH1 0x84 ADD PUSH2 0x1158 JUMP JUMPDEST PUSH1 0x0 DUP2 GT PUSH2 0x1620 JUMPI PUSH1 0x40 MLOAD PUSH3 0x461BCD PUSH1 0xE5 SHL DUP2 MSTORE PUSH1 0x20 PUSH1 0x4 DUP3 ADD MSTORE PUSH1 0x27 PUSH1 0x24 DUP3 ADD MSTORE PUSH32 0x54696D6520696E74657276616C206D7573742062652067726561746572207468 PUSH1 0x44 DUP3 ADD MSTORE PUSH32 0x616E207A65726F00000000000000000000000000000000000000000000000000 PUSH1 0x64 DUP3 ADD MSTORE PUSH1 0x84 ADD PUSH2 0x1158 JUMP JUMPDEST PUSH1 0x1 PUSH1 0x1 PUSH1 0xA0 SHL SUB SWAP1 SWAP4 AND PUSH1 0x0 DUP2 DUP2 MSTORE PUSH2 0x142 PUSH1 0x20 MSTORE PUSH1 0x40 DUP2 KECCAK256 SWAP4 DUP5 SSTORE PUSH1 0x1 DUP5 ADD DUP1 SLOAD PUSH1 0x1 PUSH1 0x1 PUSH1 0xA0 SHL SUB NOT AND SWAP1 SWAP3 OR SWAP1 SWAP2 SSTORE PUSH1 0x2 DUP4 ADD SWAP2 SWAP1 SWAP2 SSTORE PUSH1 0x3 DUP3 ADD SWAP3 SWAP1 SWAP3 SSTORE TIMESTAMP PUSH1 0x4 DUP3 ADD SSTORE PUSH1 0x5 ADD SSTORE JUMP JUMPDEST PUSH2 0x1677 PUSH2 0x2D0F JUMP JUMPDEST PUSH1 0x1 PUSH1 0x1 PUSH1 0xA0 SHL SUB DUP2 AND PUSH2 0x16CD JUMPI PUSH1 0x40 MLOAD PUSH3 0x461BCD PUSH1 0xE5 SHL DUP2 MSTORE PUSH1 0x20 PUSH1 0x4 DUP3 ADD MSTORE PUSH1 0xF PUSH1 0x24 DUP3 ADD MSTORE PUSH32 0x496E76616C696420616464726573730000000000000000000000000000000000 PUSH1 0x44 DUP3 ADD MSTORE PUSH1 0x64 ADD PUSH2 0x1158 JUMP JUMPDEST PUSH1 0x40 MLOAD PUSH1 0x1 PUSH1 0x1 PUSH1 0xA0 SHL SUB DUP3 AND SWAP1 SELFBALANCE DUP1 ISZERO PUSH2 0x8FC MUL SWAP2 PUSH1 0x0 DUP2 DUP2 DUP2 DUP6 DUP9 DUP9 CALL SWAP4 POP POP POP POP ISZERO DUP1 ISZERO PUSH2 0x1702 JUMPI RETURNDATASIZE PUSH1 0x0 DUP1 RETURNDATACOPY RETURNDATASIZE PUSH1 0x0 REVERT JUMPDEST POP POP JUMP JUMPDEST PUSH2 0x135 SLOAD PUSH1 0xFF AND ISZERO PUSH2 0x175A JUMPI PUSH1 0x40 MLOAD PUSH3 0x461BCD PUSH1 0xE5 SHL DUP2 MSTORE PUSH1 0x20 PUSH1 0x4 DUP3 ADD MSTORE PUSH1 0x13 PUSH1 0x24 DUP3 ADD MSTORE PUSH32 0x4C6971756964697479206973206C6F636B656400000000000000000000000000 PUSH1 0x44 DUP3 ADD MSTORE PUSH1 0x64 ADD PUSH2 0x1158 JUMP JUMPDEST ADDRESS PUSH1 0x0 SWAP1 DUP2 MSTORE PUSH1 0x33 PUSH1 0x20 MSTORE PUSH1 0x40 SWAP1 KECCAK256 SLOAD DUP2 GT ISZERO PUSH2 0x17B9 JUMPI PUSH1 0x40 MLOAD PUSH3 0x461BCD PUSH1 0xE5 SHL DUP2 MSTORE PUSH1 0x20 PUSH1 0x4 DUP3 ADD MSTORE PUSH1 0x14 PUSH1 0x24 DUP3 ADD MSTORE PUSH32 0x496E73756666696369656E742062616C616E6365000000000000000000000000 PUSH1 0x44 DUP3 ADD MSTORE PUSH1 0x64 ADD PUSH2 0x1158 JUMP JUMPDEST PUSH2 0x17C3 ADDRESS DUP3 PUSH2 0x230B JUMP JUMPDEST POP PUSH2 0x134 SLOAD PUSH2 0x17D2 SWAP1 DUP3 PUSH2 0x31F9 JUMP JUMPDEST PUSH2 0x134 SSTORE POP PUSH2 0x135 DUP1 SLOAD PUSH1 0xFF NOT AND PUSH1 0x1 OR SWAP1 SSTORE JUMP JUMPDEST PUSH2 0x17EF PUSH2 0x2D0F JUMP JUMPDEST PUSH2 0x133 SSTORE JUMP JUMPDEST CALLER PUSH1 0x0 DUP2 DUP2 MSTORE PUSH1 0x34 PUSH1 0x20 SWAP1 DUP2 MSTORE PUSH1 0x40 DUP1 DUP4 KECCAK256 PUSH1 0x1 PUSH1 0x1 PUSH1 0xA0 SHL SUB DUP8 AND DUP5 MSTORE SWAP1 SWAP2 MSTORE DUP2 KECCAK256 SLOAD SWAP1 SWAP2 SWAP1 PUSH2 0x1075 SWAP1 DUP3 SWAP1 DUP7 SWAP1 PUSH2 0x182F SWAP1 DUP8 SWAP1 PUSH2 0x4114 JUMP JUMPDEST PUSH2 0x2BB7 JUMP JUMPDEST PUSH2 0x183C PUSH2 0x2D0F JUMP JUMPDEST PUSH2 0x1844 PUSH2 0x320C JUMP JUMPDEST JUMP JUMPDEST PUSH2 0x184E PUSH2 0x2D0F JUMP JUMPDEST PUSH2 0x1856 PUSH2 0x2D69 JUMP JUMPDEST PUSH1 0x0 PUSH2 0x1861 PUSH1 0x35 SLOAD SWAP1 JUMP JUMPDEST PUSH2 0x144 SLOAD SWAP1 SWAP2 POP PUSH2 0x1872 DUP4 DUP4 PUSH2 0x4114 JUMP JUMPDEST GT ISZERO PUSH2 0x18C0 JUMPI PUSH1 0x40 MLOAD PUSH3 0x461BCD PUSH1 0xE5 SHL DUP2 MSTORE PUSH1 0x20 PUSH1 0x4 DUP3 ADD MSTORE PUSH1 0x19 PUSH1 0x24 DUP3 ADD MSTORE PUSH32 0x537570706C792052656163686564204D617820537570706C7900000000000000 PUSH1 0x44 DUP3 ADD MSTORE PUSH1 0x64 ADD PUSH2 0x1158 JUMP JUMPDEST PUSH2 0x18CA DUP4 DUP4 PUSH2 0x325E JUMP JUMPDEST POP PUSH2 0x1702 PUSH1 0x1 PUSH1 0xFB SSTORE JUMP JUMPDEST PUSH2 0x10FB CALLER DUP3 PUSH2 0x331F JUMP JUMPDEST PUSH2 0x18E7 PUSH2 0x2D0F JUMP JUMPDEST PUSH1 0x1 PUSH1 0x1 PUSH1 0xA0 SHL SUB DUP2 AND PUSH1 0x0 SWAP1 DUP2 MSTORE PUSH2 0x13D PUSH1 0x20 MSTORE PUSH1 0x40 SWAP1 KECCAK256 SLOAD PUSH1 0xFF AND ISZERO PUSH2 0x1951 JUMPI PUSH1 0x40 MLOAD PUSH3 0x461BCD PUSH1 0xE5 SHL DUP2 MSTORE PUSH1 0x20 PUSH1 0x4 DUP3 ADD MSTORE PUSH1 0x18 PUSH1 0x24 DUP3 ADD MSTORE PUSH32 0x7573657220616C726561647920626C61636B6C69737465640000000000000000 PUSH1 0x44 DUP3 ADD MSTORE PUSH1 0x64 ADD PUSH2 0x1158 JUMP JUMPDEST PUSH1 0x1 PUSH1 0x1 PUSH1 0xA0 SHL SUB AND PUSH1 0x0 SWAP1 DUP2 MSTORE PUSH2 0x13D PUSH1 0x20 MSTORE PUSH1 0x40 SWAP1 KECCAK256 DUP1 SLOAD PUSH1 0xFF NOT AND PUSH1 0x1 OR SWAP1 SSTORE JUMP JUMPDEST CALLER PUSH1 0x0 SWAP1 DUP2 MSTORE PUSH2 0x142 PUSH1 0x20 MSTORE PUSH1 0x40 SWAP1 KECCAK256 DUP1 SLOAD PUSH2 0x19FA JUMPI PUSH1 0x40 MLOAD PUSH3 0x461BCD PUSH1 0xE5 SHL DUP2 MSTORE PUSH1 0x20 PUSH1 0x4 DUP3 ADD MSTORE PUSH1 0x28 PUSH1 0x24 DUP3 ADD MSTORE PUSH32 0x4E6F2076657374696E67207363686564756C6520666F756E6420666F72207468 PUSH1 0x44 DUP3 ADD MSTORE PUSH32 0x652073656E646572000000000000000000000000000000000000000000000000 PUSH1 0x64 DUP3 ADD MSTORE PUSH1 0x84 ADD PUSH2 0x1158 JUMP JUMPDEST PUSH1 0x4 DUP2 ADD SLOAD TIMESTAMP SWAP1 PUSH1 0x0 SWAP1 PUSH2 0x1A0E SWAP1 DUP4 PUSH2 0x4099 JUMP JUMPDEST DUP4 SLOAD PUSH1 0x3 DUP6 ADD SLOAD SWAP2 SWAP3 POP SWAP1 DUP3 LT ISZERO PUSH2 0x1A68 JUMPI PUSH1 0x40 MLOAD PUSH3 0x461BCD PUSH1 0xE5 SHL DUP2 MSTORE PUSH1 0x20 PUSH1 0x4 DUP3 ADD MSTORE PUSH1 0x1C PUSH1 0x24 DUP3 ADD MSTORE PUSH32 0x546F6B656E732063616E6E6F7420626520636C61696D65642079657400000000 PUSH1 0x44 DUP3 ADD MSTORE PUSH1 0x64 ADD PUSH2 0x1158 JUMP JUMPDEST PUSH1 0x0 PUSH2 0x2710 DUP6 PUSH1 0x2 ADD SLOAD DUP4 PUSH2 0x1A7D SWAP2 SWAP1 PUSH2 0x40AC JUMP JUMPDEST PUSH2 0x1A87 SWAP2 SWAP1 PUSH2 0x40C3 JUMP JUMPDEST SWAP1 POP DUP1 DUP6 PUSH1 0x5 ADD PUSH1 0x0 DUP3 DUP3 SLOAD PUSH2 0x1A9D SWAP2 SWAP1 PUSH2 0x4114 JUMP JUMPDEST SWAP1 SWAP2 SSTORE POP POP PUSH1 0x4 DUP6 ADD DUP5 SWAP1 SSTORE DUP2 DUP2 GT ISZERO PUSH2 0x1B1F JUMPI PUSH1 0x40 MLOAD PUSH3 0x461BCD PUSH1 0xE5 SHL DUP2 MSTORE PUSH1 0x20 PUSH1 0x4 DUP3 ADD MSTORE PUSH1 0x2A PUSH1 0x24 DUP3 ADD MSTORE PUSH32 0x546F6B656E7320746F20636C61696D2065786365656420746F74616C20766573 PUSH1 0x44 DUP3 ADD MSTORE PUSH32 0x74656420746F6B656E7300000000000000000000000000000000000000000000 PUSH1 0x64 DUP3 ADD MSTORE PUSH1 0x84 ADD PUSH2 0x1158 JUMP JUMPDEST DUP5 SLOAD PUSH1 0x5 DUP7 ADD SLOAD GT ISZERO PUSH2 0x1B9A JUMPI PUSH1 0x40 MLOAD PUSH3 0x461BCD PUSH1 0xE5 SHL DUP2 MSTORE PUSH1 0x20 PUSH1 0x4 DUP3 ADD MSTORE PUSH1 0x29 PUSH1 0x24 DUP3 ADD MSTORE PUSH32 0x4E6F7420656E6F75676820746F6B656E7320696E207468652076657374696E67 PUSH1 0x44 DUP3 ADD MSTORE PUSH32 0x207363686564756C650000000000000000000000000000000000000000000000 PUSH1 0x64 DUP3 ADD MSTORE PUSH1 0x84 ADD PUSH2 0x1158 JUMP JUMPDEST PUSH2 0x130 SLOAD PUSH2 0x1BB2 SWAP1 PUSH1 0x1 PUSH1 0x1 PUSH1 0xA0 SHL SUB AND CALLER DUP4 PUSH2 0x2E54 JUMP JUMPDEST POP POP POP POP POP JUMP JUMPDEST PUSH2 0x1BC1 PUSH2 0x2D0F JUMP JUMPDEST PUSH1 0x1 PUSH1 0x1 PUSH1 0xA0 SHL SUB DUP2 AND PUSH1 0x0 SWAP1 DUP2 MSTORE PUSH2 0x13D PUSH1 0x20 MSTORE PUSH1 0x40 SWAP1 KECCAK256 SLOAD PUSH1 0xFF AND PUSH2 0x1C2A JUMPI PUSH1 0x40 MLOAD PUSH3 0x461BCD PUSH1 0xE5 SHL DUP2 MSTORE PUSH1 0x20 PUSH1 0x4 DUP3 ADD MSTORE PUSH1 0x18 PUSH1 0x24 DUP3 ADD MSTORE PUSH32 0x7573657220616C726561647920626C61636B6C69737465640000000000000000 PUSH1 0x44 DUP3 ADD MSTORE PUSH1 0x64 ADD PUSH2 0x1158 JUMP JUMPDEST PUSH1 0x1 PUSH1 0x1 PUSH1 0xA0 SHL SUB AND PUSH1 0x0 SWAP1 DUP2 MSTORE PUSH2 0x13D PUSH1 0x20 MSTORE PUSH1 0x40 SWAP1 KECCAK256 DUP1 SLOAD PUSH1 0xFF NOT AND SWAP1 SSTORE JUMP JUMPDEST PUSH2 0x1C54 PUSH2 0x2D0F JUMP JUMPDEST PUSH2 0x13A SSTORE JUMP JUMPDEST PUSH2 0x1C62 PUSH2 0x2D0F JUMP JUMPDEST PUSH2 0x13C DUP1 SLOAD PUSH1 0x1 PUSH1 0x1 PUSH1 0xA0 SHL SUB SWAP1 SWAP3 AND PUSH2 0x100 MUL PUSH32 0xFFFFFFFFFFFFFFFFFFFFFF0000000000000000000000000000000000000000FF SWAP1 SWAP3 AND SWAP2 SWAP1 SWAP2 OR SWAP1 SSTORE JUMP JUMPDEST PUSH2 0x1CAA PUSH2 0x2D0F JUMP JUMPDEST PUSH1 0x1 PUSH1 0x1 PUSH1 0xA0 SHL SUB AND PUSH1 0x0 SWAP1 DUP2 MSTORE PUSH2 0x13F PUSH1 0x20 MSTORE PUSH1 0x40 DUP2 KECCAK256 SSTORE JUMP JUMPDEST PUSH2 0x1CCD PUSH2 0x2D0F JUMP JUMPDEST PUSH2 0x1844 PUSH1 0x0 PUSH2 0x348A JUMP JUMPDEST PUSH2 0x1CDF PUSH2 0x2D0F JUMP JUMPDEST PUSH1 0x1 PUSH1 0x1 PUSH1 0xA0 SHL SUB AND PUSH1 0x0 SWAP1 DUP2 MSTORE PUSH2 0x136 PUSH1 0x20 MSTORE PUSH1 0x40 SWAP1 KECCAK256 DUP1 SLOAD PUSH1 0xFF NOT AND PUSH1 0x1 OR SWAP1 SSTORE JUMP JUMPDEST PUSH2 0x1D0C PUSH2 0x2D0F JUMP JUMPDEST PUSH2 0x1702 DUP3 DUP3 PUSH2 0x331F JUMP JUMPDEST PUSH2 0x1D1F CALLER PUSH2 0x34DC JUMP JUMPDEST PUSH2 0x1D6B JUMPI PUSH1 0x40 MLOAD PUSH3 0x461BCD PUSH1 0xE5 SHL DUP2 MSTORE PUSH1 0x20 PUSH1 0x4 DUP3 ADD MSTORE PUSH1 0x11 PUSH1 0x24 DUP3 ADD MSTORE PUSH32 0x4E6F7420612076616C696420766F746572000000000000000000000000000000 PUSH1 0x44 DUP3 ADD MSTORE PUSH1 0x64 ADD PUSH2 0x1158 JUMP JUMPDEST CALLER PUSH1 0x0 SWAP1 DUP2 MSTORE PUSH2 0x12F PUSH1 0x20 MSTORE PUSH1 0x40 SWAP1 KECCAK256 SLOAD PUSH1 0xFF AND ISZERO PUSH2 0x1DCC JUMPI PUSH1 0x40 MLOAD PUSH3 0x461BCD PUSH1 0xE5 SHL DUP2 MSTORE PUSH1 0x20 PUSH1 0x4 DUP3 ADD MSTORE PUSH1 0xD PUSH1 0x24 DUP3 ADD MSTORE PUSH32 0x416C726561647920766F74656400000000000000000000000000000000000000 PUSH1 0x44 DUP3 ADD MSTORE PUSH1 0x64 ADD PUSH2 0x1158 JUMP JUMPDEST CALLER PUSH1 0x0 DUP2 DUP2 MSTORE PUSH2 0x12F PUSH1 0x20 SWAP1 DUP2 MSTORE PUSH1 0x40 SWAP2 DUP3 SWAP1 KECCAK256 DUP1 SLOAD PUSH1 0xFF NOT AND DUP6 ISZERO ISZERO SWAP1 DUP2 OR SWAP1 SWAP2 SSTORE SWAP2 MLOAD SWAP2 DUP3 MSTORE PUSH32 0xA4861C5510BFA99706ED508D728F9C6B365FF27AF1A3012E21980952AD2D844F SWAP2 ADD PUSH1 0x40 MLOAD DUP1 SWAP2 SUB SWAP1 LOG2 POP JUMP JUMPDEST PUSH2 0x1E2A PUSH2 0x2D0F JUMP JUMPDEST PUSH2 0x1844 PUSH2 0x3547 JUMP JUMPDEST PUSH2 0x1E3A PUSH2 0x2D0F JUMP JUMPDEST PUSH1 0x1 PUSH1 0x1 PUSH1 0xA0 SHL SUB DUP3 AND PUSH2 0x1E90 JUMPI PUSH1 0x40 MLOAD PUSH3 0x461BCD PUSH1 0xE5 SHL DUP2 MSTORE PUSH1 0x20 PUSH1 0x4 DUP3 ADD MSTORE PUSH1 0x16 PUSH1 0x24 DUP3 ADD MSTORE PUSH32 0x496E76616C69642077616C6C6574206164647265737300000000000000000000 PUSH1 0x44 DUP3 ADD MSTORE PUSH1 0x64 ADD PUSH2 0x1158 JUMP JUMPDEST PUSH2 0x1E9A DUP2 TIMESTAMP PUSH2 0x4114 JUMP JUMPDEST PUSH1 0x1 PUSH1 0x1 PUSH1 0xA0 SHL SUB SWAP1 SWAP3 AND PUSH1 0x0 SWAP1 DUP2 MSTORE PUSH2 0x13F PUSH1 0x20 MSTORE PUSH1 0x40 SWAP1 KECCAK256 SWAP2 SWAP1 SWAP2 SSTORE POP JUMP JUMPDEST PUSH2 0x1EC3 PUSH2 0x2D0F JUMP JUMPDEST PUSH1 0x0 DUP1 DUP1 JUMPDEST PUSH2 0x12E SLOAD DUP2 LT ISZERO PUSH2 0x1F29 JUMPI DUP4 PUSH1 0x1 PUSH1 0x1 PUSH1 0xA0 SHL SUB AND PUSH2 0x12E DUP3 DUP2 SLOAD DUP2 LT PUSH2 0x1EF1 JUMPI PUSH2 0x1EF1 PUSH2 0x40E5 JUMP JUMPDEST PUSH1 0x0 SWAP2 DUP3 MSTORE PUSH1 0x20 SWAP1 SWAP2 KECCAK256 ADD SLOAD PUSH1 0x1 PUSH1 0x1 PUSH1 0xA0 SHL SUB AND SUB PUSH2 0x1F17 JUMPI DUP1 SWAP3 POP PUSH1 0x1 SWAP2 POP PUSH2 0x1F29 JUMP JUMPDEST DUP1 PUSH2 0x1F21 DUP2 PUSH2 0x40FB JUMP JUMPDEST SWAP2 POP POP PUSH2 0x1EC8 JUMP JUMPDEST POP DUP1 ISZERO PUSH2 0x1FE1 JUMPI PUSH2 0x12E DUP1 SLOAD PUSH2 0x1F41 SWAP1 PUSH1 0x1 SWAP1 PUSH2 0x4099 JUMP JUMPDEST DUP2 SLOAD DUP2 LT PUSH2 0x1F51 JUMPI PUSH2 0x1F51 PUSH2 0x40E5 JUMP JUMPDEST PUSH1 0x0 SWAP2 DUP3 MSTORE PUSH1 0x20 SWAP1 SWAP2 KECCAK256 ADD SLOAD PUSH2 0x12E DUP1 SLOAD PUSH1 0x1 PUSH1 0x1 PUSH1 0xA0 SHL SUB SWAP1 SWAP3 AND SWAP2 DUP5 SWAP1 DUP2 LT PUSH2 0x1F7E JUMPI PUSH2 0x1F7E PUSH2 0x40E5 JUMP JUMPDEST SWAP1 PUSH1 0x0 MSTORE PUSH1 0x20 PUSH1 0x0 KECCAK256 ADD PUSH1 0x0 PUSH2 0x100 EXP DUP2 SLOAD DUP2 PUSH1 0x1 PUSH1 0x1 PUSH1 0xA0 SHL SUB MUL NOT AND SWAP1 DUP4 PUSH1 0x1 PUSH1 0x1 PUSH1 0xA0 SHL SUB AND MUL OR SWAP1 SSTORE POP PUSH2 0x12E DUP1 SLOAD DUP1 PUSH2 0x1FBE JUMPI PUSH2 0x1FBE PUSH2 0x4127 JUMP JUMPDEST PUSH1 0x0 DUP3 DUP2 MSTORE PUSH1 0x20 SWAP1 KECCAK256 DUP2 ADD PUSH1 0x0 NOT SWAP1 DUP2 ADD DUP1 SLOAD PUSH1 0x1 PUSH1 0x1 PUSH1 0xA0 SHL SUB NOT AND SWAP1 SSTORE ADD SWAP1 SSTORE JUMPDEST POP POP POP JUMP JUMPDEST PUSH2 0x1FEE PUSH2 0x2D0F JUMP JUMPDEST PUSH1 0x1 PUSH1 0x1 PUSH1 0xA0 SHL SUB AND PUSH1 0x0 SWAP1 DUP2 MSTORE PUSH2 0x140 PUSH1 0x20 MSTORE PUSH1 0x40 SWAP1 KECCAK256 DUP1 SLOAD PUSH1 0xFF NOT AND SWAP1 SSTORE JUMP JUMPDEST PUSH2 0x2018 PUSH2 0x2D0F JUMP JUMPDEST PUSH2 0x132 SSTORE JUMP JUMPDEST PUSH2 0x2026 PUSH2 0x2D0F JUMP JUMPDEST PUSH2 0x139 SSTORE JUMP JUMPDEST PUSH1 0x60 PUSH1 0x37 DUP1 SLOAD PUSH2 0xFE4 SWAP1 PUSH2 0x4049 JUMP JUMPDEST PUSH2 0x135 SLOAD PUSH1 0xFF AND PUSH2 0x208E JUMPI PUSH1 0x40 MLOAD PUSH3 0x461BCD PUSH1 0xE5 SHL DUP2 MSTORE PUSH1 0x20 PUSH1 0x4 DUP3 ADD MSTORE PUSH1 0x17 PUSH1 0x24 DUP3 ADD MSTORE PUSH32 0x4C6971756964697479206973206E6F74206C6F636B6564000000000000000000 PUSH1 0x44 DUP3 ADD MSTORE PUSH1 0x64 ADD PUSH2 0x1158 JUMP JUMPDEST DUP1 PUSH2 0x134 SLOAD LT ISZERO PUSH2 0x20E1 JUMPI PUSH1 0x40 MLOAD PUSH3 0x461BCD PUSH1 0xE5 SHL DUP2 MSTORE PUSH1 0x20 PUSH1 0x4 DUP3 ADD MSTORE PUSH1 0x1B PUSH1 0x24 DUP3 ADD MSTORE PUSH32 0x4E6F7420656E6F756768206C6F636B6564206C69717569646974790000000000 PUSH1 0x44 DUP3 ADD MSTORE PUSH1 0x64 ADD PUSH2 0x1158 JUMP JUMPDEST PUSH2 0x130 SLOAD PUSH2 0x20F8 SWAP1 PUSH1 0x1 PUSH1 0x1 PUSH1 0xA0 SHL SUB AND DUP3 PUSH2 0x230B JUMP JUMPDEST POP PUSH2 0x134 SLOAD PUSH2 0x2107 SWAP1 DUP3 PUSH2 0x3584 JUMP JUMPDEST PUSH2 0x134 SSTORE POP PUSH2 0x135 DUP1 SLOAD PUSH1 0xFF NOT AND SWAP1 SSTORE JUMP JUMPDEST PUSH2 0x2121 PUSH2 0x2D0F JUMP JUMPDEST PUSH1 0x40 MLOAD PUSH32 0x70A0823100000000000000000000000000000000000000000000000000000000 DUP2 MSTORE ADDRESS PUSH1 0x4 DUP3 ADD MSTORE PUSH1 0x1 PUSH1 0x1 PUSH1 0xA0 SHL SUB DUP3 AND SWAP1 PUSH4 0xA9059CBB SWAP1 DUP5 SWAP1 DUP4 SWAP1 PUSH4 0x70A08231 SWAP1 PUSH1 0x24 ADD PUSH1 0x20 PUSH1 0x40 MLOAD DUP1 DUP4 SUB DUP2 DUP7 GAS STATICCALL ISZERO DUP1 ISZERO PUSH2 0x2188 JUMPI RETURNDATASIZE PUSH1 0x0 DUP1 RETURNDATACOPY RETURNDATASIZE PUSH1 0x0 REVERT JUMPDEST POP POP POP POP PUSH1 0x40 MLOAD RETURNDATASIZE PUSH1 0x1F NOT PUSH1 0x1F DUP3 ADD AND DUP3 ADD DUP1 PUSH1 0x40 MSTORE POP DUP2 ADD SWAP1 PUSH2 0x21AC SWAP2 SWAP1 PUSH2 0x413D JUMP JUMPDEST PUSH1 0x40 MLOAD PUSH32 0xFFFFFFFF00000000000000000000000000000000000000000000000000000000 PUSH1 0xE0 DUP6 SWAP1 SHL AND DUP2 MSTORE PUSH1 0x1 PUSH1 0x1 PUSH1 0xA0 SHL SUB SWAP1 SWAP3 AND PUSH1 0x4 DUP4 ADD MSTORE PUSH1 0x24 DUP3 ADD MSTORE PUSH1 0x44 ADD PUSH1 0x20 PUSH1 0x40 MLOAD DUP1 DUP4 SUB DUP2 PUSH1 0x0 DUP8 GAS CALL ISZERO DUP1 ISZERO PUSH2 0x220F JUMPI RETURNDATASIZE PUSH1 0x0 DUP1 RETURNDATACOPY RETURNDATASIZE PUSH1 0x0 REVERT JUMPDEST POP POP POP POP PUSH1 0x40 MLOAD RETURNDATASIZE PUSH1 0x1F NOT PUSH1 0x1F DUP3 ADD AND DUP3 ADD DUP1 PUSH1 0x40 MSTORE POP DUP2 ADD SWAP1 PUSH2 0x1FE1 SWAP2 SWAP1 PUSH2 0x4156 JUMP JUMPDEST PUSH2 0x223B PUSH2 0x2D0F JUMP JUMPDEST PUSH2 0x135 DUP1 SLOAD SWAP2 ISZERO ISZERO PUSH2 0x100 MUL PUSH2 0xFF00 NOT SWAP1 SWAP3 AND SWAP2 SWAP1 SWAP2 OR SWAP1 SSTORE JUMP JUMPDEST CALLER PUSH1 0x0 DUP2 DUP2 MSTORE PUSH1 0x34 PUSH1 0x20 SWAP1 DUP2 MSTORE PUSH1 0x40 DUP1 DUP4 KECCAK256 PUSH1 0x1 PUSH1 0x1 PUSH1 0xA0 SHL SUB DUP8 AND DUP5 MSTORE SWAP1 SWAP2 MSTORE DUP2 KECCAK256 SLOAD SWAP1 SWAP2 SWAP1 DUP4 DUP2 LT ISZERO PUSH2 0x22F3 JUMPI PUSH1 0x40 MLOAD PUSH3 0x461BCD PUSH1 0xE5 SHL DUP2 MSTORE PUSH1 0x20 PUSH1 0x4 DUP3 ADD MSTORE PUSH1 0x25 PUSH1 0x24 DUP3 ADD MSTORE PUSH32 0x45524332303A2064656372656173656420616C6C6F77616E63652062656C6F77 PUSH1 0x44 DUP3 ADD MSTORE PUSH32 0x207A65726F000000000000000000000000000000000000000000000000000000 PUSH1 0x64 DUP3 ADD MSTORE PUSH1 0x84 ADD PUSH2 0x1158 JUMP JUMPDEST PUSH2 0x2300 DUP3 DUP7 DUP7 DUP5 SUB PUSH2 0x2BB7 JUMP JUMPDEST POP PUSH1 0x1 SWAP5 SWAP4 POP POP POP POP JUMP JUMPDEST PUSH1 0x0 PUSH2 0x2315 PUSH2 0x3590 JUMP JUMPDEST CALLER PUSH1 0x0 DUP2 DUP2 MSTORE PUSH2 0x13F PUSH1 0x20 MSTORE PUSH1 0x40 SWAP1 KECCAK256 SLOAD ISZERO DUP1 PUSH2 0x234A JUMPI POP PUSH1 0x1 PUSH1 0x1 PUSH1 0xA0 SHL SUB DUP2 AND PUSH1 0x0 SWAP1 DUP2 MSTORE PUSH2 0x13F PUSH1 0x20 MSTORE PUSH1 0x40 SWAP1 KECCAK256 SLOAD TIMESTAMP GT JUMPDEST PUSH2 0x2396 JUMPI PUSH1 0x40 MLOAD PUSH3 0x461BCD PUSH1 0xE5 SHL DUP2 MSTORE PUSH1 0x20 PUSH1 0x4 DUP3 ADD MSTORE PUSH1 0x10 PUSH1 0x24 DUP3 ADD MSTORE PUSH32 0x57616C6C65742069732066726F7A656E00000000000000000000000000000000 PUSH1 0x44 DUP3 ADD MSTORE PUSH1 0x64 ADD PUSH2 0x1158 JUMP JUMPDEST CALLER PUSH1 0x0 DUP2 DUP2 MSTORE PUSH2 0x140 PUSH1 0x20 MSTORE PUSH1 0x40 SWAP1 KECCAK256 SLOAD DUP5 SWAP1 PUSH1 0xFF AND PUSH2 0x2456 JUMPI PUSH2 0x131 SLOAD DUP2 LT ISZERO PUSH2 0x2403 JUMPI PUSH1 0x40 MLOAD PUSH3 0x461BCD PUSH1 0xE5 SHL DUP2 MSTORE PUSH1 0x20 PUSH1 0x4 DUP3 ADD MSTORE PUSH1 0x14 PUSH1 0x24 DUP3 ADD MSTORE PUSH32 0x416D6F756E742062656C6F77206D696E696D756D000000000000000000000000 PUSH1 0x44 DUP3 ADD MSTORE PUSH1 0x64 ADD PUSH2 0x1158 JUMP JUMPDEST PUSH2 0x132 SLOAD DUP2 GT ISZERO PUSH2 0x2456 JUMPI PUSH1 0x40 MLOAD PUSH3 0x461BCD PUSH1 0xE5 SHL DUP2 MSTORE PUSH1 0x20 PUSH1 0x4 DUP3 ADD MSTORE PUSH1 0x16 PUSH1 0x24 DUP3 ADD MSTORE PUSH32 0x416D6F756E742065786365656473206D6178696D756D00000000000000000000 PUSH1 0x44 DUP3 ADD MSTORE PUSH1 0x64 ADD PUSH2 0x1158 JUMP JUMPDEST PUSH2 0x245E PUSH2 0x2D69 JUMP JUMPDEST CALLER PUSH1 0x0 SWAP1 DUP2 MSTORE PUSH2 0x13D PUSH1 0x20 MSTORE PUSH1 0x40 SWAP1 KECCAK256 SLOAD PUSH1 0xFF AND ISZERO PUSH2 0x24BF JUMPI PUSH1 0x40 MLOAD PUSH3 0x461BCD PUSH1 0xE5 SHL DUP2 MSTORE PUSH1 0x20 PUSH1 0x4 DUP3 ADD MSTORE PUSH1 0x1E PUSH1 0x24 DUP3 ADD MSTORE PUSH32 0x53656E64657227732077616C6C657420697320626C61636B6C69737465640000 PUSH1 0x44 DUP3 ADD MSTORE PUSH1 0x64 ADD PUSH2 0x1158 JUMP JUMPDEST CALLER PUSH1 0x0 SWAP1 DUP2 MSTORE PUSH2 0x13E PUSH1 0x20 MSTORE PUSH1 0x40 SWAP1 KECCAK256 SLOAD TIMESTAMP LT ISZERO PUSH2 0x251F JUMPI PUSH1 0x40 MLOAD PUSH3 0x461BCD PUSH1 0xE5 SHL DUP2 MSTORE PUSH1 0x20 PUSH1 0x4 DUP3 ADD MSTORE PUSH1 0x18 PUSH1 0x24 DUP3 ADD MSTORE PUSH32 0x5472616E73666572206E6F7420616C6C6F776564207965740000000000000000 PUSH1 0x44 DUP3 ADD MSTORE PUSH1 0x64 ADD PUSH2 0x1158 JUMP JUMPDEST PUSH2 0x133 SLOAD PUSH2 0x252D SWAP1 TIMESTAMP PUSH2 0x4114 JUMP JUMPDEST CALLER PUSH1 0x0 DUP2 DUP2 MSTORE PUSH2 0x13E PUSH1 0x20 MSTORE PUSH1 0x40 SWAP1 KECCAK256 SWAP2 SWAP1 SWAP2 SSTORE PUSH2 0x254C SWAP1 DUP8 DUP8 PUSH2 0x2E54 JUMP JUMPDEST PUSH1 0x1 SWAP4 POP PUSH2 0x255A PUSH1 0x1 PUSH1 0xFB SSTORE JUMP JUMPDEST POP POP POP SWAP3 SWAP2 POP POP JUMP JUMPDEST PUSH2 0x256B PUSH2 0x2D0F JUMP JUMPDEST PUSH2 0x12E SLOAD PUSH1 0x0 SWAP1 DUP2 JUMPDEST DUP2 DUP2 LT ISZERO PUSH2 0x25E2 JUMPI PUSH2 0x12F PUSH1 0x0 PUSH2 0x12E DUP4 DUP2 SLOAD DUP2 LT PUSH2 0x2595 JUMPI PUSH2 0x2595 PUSH2 0x40E5 JUMP JUMPDEST PUSH1 0x0 SWAP2 DUP3 MSTORE PUSH1 0x20 DUP1 DUP4 KECCAK256 SWAP1 SWAP2 ADD SLOAD PUSH1 0x1 PUSH1 0x1 PUSH1 0xA0 SHL SUB AND DUP4 MSTORE DUP3 ADD SWAP3 SWAP1 SWAP3 MSTORE PUSH1 0x40 ADD SWAP1 KECCAK256 SLOAD PUSH1 0xFF AND ISZERO PUSH2 0x25D0 JUMPI DUP3 PUSH2 0x25CC DUP2 PUSH2 0x40FB JUMP JUMPDEST SWAP4 POP POP JUMPDEST DUP1 PUSH2 0x25DA DUP2 PUSH2 0x40FB JUMP JUMPDEST SWAP2 POP POP PUSH2 0x2574 JUMP JUMPDEST POP DUP2 DUP2 EQ DUP1 PUSH2 0x2633 JUMPI PUSH1 0x40 MLOAD PUSH3 0x461BCD PUSH1 0xE5 SHL DUP2 MSTORE PUSH1 0x20 PUSH1 0x4 DUP3 ADD MSTORE PUSH1 0x16 PUSH1 0x24 DUP3 ADD MSTORE PUSH32 0x496E73756666696369656E7420617070726F76616C7300000000000000000000 PUSH1 0x44 DUP3 ADD MSTORE PUSH1 0x64 ADD PUSH2 0x1158 JUMP JUMPDEST PUSH2 0x130 DUP1 SLOAD PUSH2 0x12D SLOAD PUSH1 0x1 PUSH1 0x1 PUSH1 0xA0 SHL SUB SWAP1 DUP2 AND PUSH1 0x1 PUSH1 0x1 PUSH1 0xA0 SHL SUB NOT DUP4 AND DUP2 OR SWAP1 SWAP4 SSTORE AND SWAP1 PUSH2 0x2662 DUP2 PUSH2 0x35E3 JUMP JUMPDEST PUSH2 0x12D DUP1 SLOAD PUSH1 0x1 PUSH1 0x1 PUSH1 0xA0 SHL SUB NOT AND SWAP1 SSTORE PUSH1 0x0 JUMPDEST DUP5 DUP2 LT ISZERO PUSH2 0x26DF JUMPI PUSH1 0x0 PUSH2 0x12F PUSH1 0x0 PUSH2 0x12E DUP5 DUP2 SLOAD DUP2 LT PUSH2 0x2699 JUMPI PUSH2 0x2699 PUSH2 0x40E5 JUMP JUMPDEST PUSH1 0x0 SWAP2 DUP3 MSTORE PUSH1 0x20 DUP1 DUP4 KECCAK256 SWAP2 SWAP1 SWAP2 ADD SLOAD PUSH1 0x1 PUSH1 0x1 PUSH1 0xA0 SHL SUB AND DUP4 MSTORE DUP3 ADD SWAP3 SWAP1 SWAP3 MSTORE PUSH1 0x40 ADD SWAP1 KECCAK256 DUP1 SLOAD PUSH1 0xFF NOT AND SWAP2 ISZERO ISZERO SWAP2 SWAP1 SWAP2 OR SWAP1 SSTORE DUP1 PUSH2 0x26D7 DUP2 PUSH2 0x40FB JUMP JUMPDEST SWAP2 POP POP PUSH2 0x2676 JUMP JUMPDEST POP DUP1 PUSH1 0x1 PUSH1 0x1 PUSH1 0xA0 SHL SUB AND DUP3 PUSH1 0x1 PUSH1 0x1 PUSH1 0xA0 SHL SUB AND PUSH32 0x8BE0079C531659141344CD1FD0A4F28419497F9722A3DAAFE3B4186F6B6457E0 PUSH1 0x40 MLOAD PUSH1 0x40 MLOAD DUP1 SWAP2 SUB SWAP1 LOG3 POP POP POP POP POP JUMP JUMPDEST PUSH2 0x272F PUSH2 0x2D0F JUMP JUMPDEST PUSH2 0x131 SSTORE JUMP JUMPDEST PUSH2 0x273D PUSH2 0x2D0F JUMP JUMPDEST PUSH2 0x143 DUP1 SLOAD PUSH1 0x1 PUSH1 0x1 PUSH1 0xA0 SHL SUB SWAP1 SWAP3 AND PUSH1 0x1 PUSH1 0x1 PUSH1 0xA0 SHL SUB NOT SWAP1 SWAP3 AND DUP3 OR SWAP1 SSTORE PUSH1 0x0 SWAP1 DUP2 MSTORE PUSH2 0x136 PUSH1 0x20 MSTORE PUSH1 0x40 SWAP1 KECCAK256 DUP1 SLOAD PUSH1 0xFF NOT AND PUSH1 0x1 OR SWAP1 SSTORE JUMP JUMPDEST PUSH2 0x2781 PUSH2 0x2D0F JUMP JUMPDEST PUSH2 0x138 SSTORE JUMP JUMPDEST PUSH2 0x12E DUP2 DUP2 SLOAD DUP2 LT PUSH2 0x2798 JUMPI PUSH1 0x0 DUP1 REVERT JUMPDEST PUSH1 0x0 SWAP2 DUP3 MSTORE PUSH1 0x20 SWAP1 SWAP2 KECCAK256 ADD SLOAD PUSH1 0x1 PUSH1 0x1 PUSH1 0xA0 SHL SUB AND SWAP1 POP DUP2 JUMP JUMPDEST PUSH2 0x27BA PUSH2 0x2D0F JUMP JUMPDEST PUSH1 0x1 PUSH1 0x1 PUSH1 0xA0 SHL SUB AND PUSH1 0x0 SWAP1 DUP2 MSTORE PUSH2 0x136 PUSH1 0x20 MSTORE PUSH1 0x40 SWAP1 KECCAK256 DUP1 SLOAD PUSH1 0xFF NOT AND SWAP1 SSTORE JUMP JUMPDEST PUSH2 0x27E4 PUSH2 0x2D0F JUMP JUMPDEST PUSH1 0x1 PUSH1 0x1 PUSH1 0xA0 SHL SUB AND PUSH1 0x0 SWAP1 DUP2 MSTORE PUSH2 0x140 PUSH1 0x20 MSTORE PUSH1 0x40 SWAP1 KECCAK256 DUP1 SLOAD PUSH1 0xFF NOT AND PUSH1 0x1 OR SWAP1 SSTORE JUMP JUMPDEST PUSH2 0x2811 PUSH2 0x2D0F JUMP JUMPDEST PUSH1 0x0 PUSH2 0x138 SSTORE JUMP JUMPDEST PUSH2 0x2821 PUSH2 0x2D0F JUMP JUMPDEST PUSH2 0x13C DUP1 SLOAD PUSH1 0xFF NOT AND SWAP2 ISZERO ISZERO SWAP2 SWAP1 SWAP2 OR SWAP1 SSTORE JUMP JUMPDEST PUSH2 0x283D PUSH2 0x2D0F JUMP JUMPDEST PUSH1 0x40 MLOAD PUSH3 0x461BCD PUSH1 0xE5 SHL DUP2 MSTORE PUSH1 0x20 PUSH1 0x4 DUP3 ADD MSTORE PUSH1 0x27 PUSH1 0x24 DUP3 ADD MSTORE PUSH32 0x506C656173652043616C6C2046696E616C697A65205472616E73666572204F77 PUSH1 0x44 DUP3 ADD MSTORE PUSH32 0x6E65727368697000000000000000000000000000000000000000000000000000 PUSH1 0x64 DUP3 ADD MSTORE PUSH1 0x84 ADD PUSH2 0x1158 JUMP JUMPDEST PUSH1 0x0 SLOAD PUSH2 0x100 SWAP1 DIV PUSH1 0xFF AND ISZERO DUP1 DUP1 ISZERO PUSH2 0x28CB JUMPI POP PUSH1 0x0 SLOAD PUSH1 0x1 PUSH1 0xFF SWAP1 SWAP2 AND LT JUMPDEST DUP1 PUSH2 0x28E5 JUMPI POP ADDRESS EXTCODESIZE ISZERO DUP1 ISZERO PUSH2 0x28E5 JUMPI POP PUSH1 0x0 SLOAD PUSH1 0xFF AND PUSH1 0x1 EQ JUMPDEST PUSH2 0x2957 JUMPI PUSH1 0x40 MLOAD PUSH3 0x461BCD PUSH1 0xE5 SHL DUP2 MSTORE PUSH1 0x20 PUSH1 0x4 DUP3 ADD MSTORE PUSH1 0x2E PUSH1 0x24 DUP3 ADD MSTORE PUSH32 0x496E697469616C697A61626C653A20636F6E747261637420697320616C726561 PUSH1 0x44 DUP3 ADD MSTORE PUSH32 0x647920696E697469616C697A6564000000000000000000000000000000000000 PUSH1 0x64 DUP3 ADD MSTORE PUSH1 0x84 ADD PUSH2 0x1158 JUMP JUMPDEST PUSH1 0x0 DUP1 SLOAD PUSH1 0xFF NOT AND PUSH1 0x1 OR SWAP1 SSTORE DUP1 ISZERO PUSH2 0x297A JUMPI PUSH1 0x0 DUP1 SLOAD PUSH2 0xFF00 NOT AND PUSH2 0x100 OR SWAP1 SSTORE JUMPDEST PUSH2 0x130 DUP1 SLOAD PUSH1 0x1 PUSH1 0x1 PUSH1 0xA0 SHL SUB NOT AND CALLER OR SWAP1 SSTORE PUSH2 0x2997 DUP8 DUP8 PUSH2 0x3670 JUMP JUMPDEST PUSH2 0x299F PUSH2 0x36E5 JUMP JUMPDEST PUSH2 0x29A7 PUSH2 0x3750 JUMP JUMPDEST PUSH2 0x29AF PUSH2 0x37C3 JUMP JUMPDEST PUSH2 0x29B7 PUSH2 0x3836 JUMP JUMPDEST PUSH2 0x13C DUP1 SLOAD PUSH1 0x32 PUSH2 0x137 SSTORE PUSH2 0x1388 PUSH2 0x138 SSTORE PUSH21 0x285E1D847B88056ADD3823C456EE83D37CDD60A01 PUSH32 0xFFFFFFFFFFFFFFFFFFFFFF000000000000000000000000000000000000000000 SWAP1 SWAP2 AND OR SWAP1 SSTORE PUSH2 0x7D0 PUSH2 0x139 SSTORE PUSH2 0x12C PUSH2 0x13A SSTORE PUSH2 0x135 DUP1 SLOAD PUSH2 0xFF00 NOT AND PUSH2 0x100 OR SWAP1 SSTORE PUSH1 0x0 PUSH2 0x131 SSTORE PUSH9 0x56BC75E2D63100000 PUSH2 0x132 SSTORE PUSH2 0x130 SLOAD PUSH2 0x2A66 SWAP1 PUSH1 0x1 PUSH1 0x1 PUSH1 0xA0 SHL SUB AND PUSH2 0x2A57 PUSH1 0xFF DUP9 AND PUSH1 0xA PUSH2 0x4257 JUMP JUMPDEST PUSH2 0x2A61 SWAP1 DUP8 PUSH2 0x40AC JUMP JUMPDEST PUSH2 0x325E JUMP JUMPDEST CALLER PUSH1 0x0 SWAP1 DUP2 MSTORE PUSH2 0x13D PUSH1 0x20 SWAP1 DUP2 MSTORE PUSH1 0x40 DUP1 DUP4 KECCAK256 DUP1 SLOAD PUSH1 0xFF NOT SWAP1 DUP2 AND SWAP1 SWAP2 SSTORE PUSH2 0x140 DUP4 MSTORE DUP2 DUP5 KECCAK256 DUP1 SLOAD DUP3 AND PUSH1 0x1 SWAP1 DUP2 OR SWAP1 SWAP2 SSTORE PUSH2 0x13E DUP5 MSTORE DUP3 DUP6 KECCAK256 TIMESTAMP SWAP1 SSTORE PUSH2 0x143 DUP1 SLOAD PUSH1 0x1 PUSH1 0x1 PUSH1 0xA0 SHL SUB NOT AND PUSH1 0x1 PUSH1 0x1 PUSH1 0xA0 SHL SUB DUP11 DUP2 AND SWAP2 SWAP1 SWAP2 OR DUP3 SSTORE ADDRESS DUP8 MSTORE PUSH2 0x136 SWAP1 SWAP6 MSTORE DUP4 DUP7 KECCAK256 DUP1 SLOAD DUP5 AND DUP4 OR SWAP1 SSTORE PUSH12 0x33B2E3C9FD0803CE8000000 PUSH2 0x144 SSTORE SLOAD SWAP1 SWAP4 AND DUP5 MSTORE SWAP1 DUP4 KECCAK256 DUP1 SLOAD SWAP1 SWAP2 AND SWAP1 SWAP2 OR SWAP1 SSTORE JUMPDEST DUP3 MLOAD DUP2 LT ISZERO PUSH2 0x2B67 JUMPI PUSH2 0x12E DUP4 DUP3 DUP2 MLOAD DUP2 LT PUSH2 0x2B1A JUMPI PUSH2 0x2B1A PUSH2 0x40E5 JUMP JUMPDEST PUSH1 0x20 SWAP1 DUP2 MUL SWAP2 SWAP1 SWAP2 ADD DUP2 ADD MLOAD DUP3 SLOAD PUSH1 0x1 DUP2 ADD DUP5 SSTORE PUSH1 0x0 SWAP4 DUP5 MSTORE SWAP2 SWAP1 SWAP3 KECCAK256 ADD DUP1 SLOAD PUSH1 0x1 PUSH1 0x1 PUSH1 0xA0 SHL SUB NOT AND PUSH1 0x1 PUSH1 0x1 PUSH1 0xA0 SHL SUB SWAP1 SWAP3 AND SWAP2 SWAP1 SWAP2 OR SWAP1 SSTORE DUP1 PUSH2 0x2B5F DUP2 PUSH2 0x40FB JUMP JUMPDEST SWAP2 POP POP PUSH2 0x2AFC JUMP JUMPDEST POP DUP1 ISZERO PUSH2 0x2BAE JUMPI PUSH1 0x0 DUP1 SLOAD PUSH2 0xFF00 NOT AND SWAP1 SSTORE PUSH1 0x40 MLOAD PUSH1 0x1 DUP2 MSTORE PUSH32 0x7F26B83FF96E1F2B6A682F133852F6798A09C465DA95921460CEFB3847402498 SWAP1 PUSH1 0x20 ADD PUSH1 0x40 MLOAD DUP1 SWAP2 SUB SWAP1 LOG1 JUMPDEST POP POP POP POP POP POP POP JUMP JUMPDEST PUSH1 0x1 PUSH1 0x1 PUSH1 0xA0 SHL SUB DUP4 AND PUSH2 0x2C32 JUMPI PUSH1 0x40 MLOAD PUSH3 0x461BCD PUSH1 0xE5 SHL DUP2 MSTORE PUSH1 0x20 PUSH1 0x4 DUP3 ADD MSTORE PUSH1 0x24 DUP1 DUP3 ADD MSTORE PUSH32 0x45524332303A20617070726F76652066726F6D20746865207A65726F20616464 PUSH1 0x44 DUP3 ADD MSTORE PUSH32 0x7265737300000000000000000000000000000000000000000000000000000000 PUSH1 0x64 DUP3 ADD MSTORE PUSH1 0x84 ADD PUSH2 0x1158 JUMP JUMPDEST PUSH1 0x1 PUSH1 0x1 PUSH1 0xA0 SHL SUB DUP3 AND PUSH2 0x2CAE JUMPI PUSH1 0x40 MLOAD PUSH3 0x461BCD PUSH1 0xE5 SHL DUP2 MSTORE PUSH1 0x20 PUSH1 0x4 DUP3 ADD MSTORE PUSH1 0x22 PUSH1 0x24 DUP3 ADD MSTORE PUSH32 0x45524332303A20617070726F766520746F20746865207A65726F206164647265 PUSH1 0x44 DUP3 ADD MSTORE PUSH32 0x7373000000000000000000000000000000000000000000000000000000000000 PUSH1 0x64 DUP3 ADD MSTORE PUSH1 0x84 ADD PUSH2 0x1158 JUMP JUMPDEST PUSH1 0x1 PUSH1 0x1 PUSH1 0xA0 SHL SUB DUP4 DUP2 AND PUSH1 0x0 DUP2 DUP2 MSTORE PUSH1 0x34 PUSH1 0x20 SWAP1 DUP2 MSTORE PUSH1 0x40 DUP1 DUP4 KECCAK256 SWAP5 DUP8 AND DUP1 DUP5 MSTORE SWAP5 DUP3 MSTORE SWAP2 DUP3 SWAP1 KECCAK256 DUP6 SWAP1 SSTORE SWAP1 MLOAD DUP5 DUP2 MSTORE PUSH32 0x8C5BE1E5EBEC7D5BD14F71427D1E84F3DD0314C0F7B2291E5B200AC8C7C3B925 SWAP2 ADD PUSH1 0x40 MLOAD DUP1 SWAP2 SUB SWAP1 LOG3 POP POP POP JUMP JUMPDEST PUSH1 0x97 SLOAD PUSH1 0x1 PUSH1 0x1 PUSH1 0xA0 SHL SUB AND CALLER EQ PUSH2 0x1844 JUMPI PUSH1 0x40 MLOAD PUSH3 0x461BCD PUSH1 0xE5 SHL DUP2 MSTORE PUSH1 0x20 PUSH1 0x4 DUP3 ADD DUP2 SWAP1 MSTORE PUSH1 0x24 DUP3 ADD MSTORE PUSH32 0x4F776E61626C653A2063616C6C6572206973206E6F7420746865206F776E6572 PUSH1 0x44 DUP3 ADD MSTORE PUSH1 0x64 ADD PUSH2 0x1158 JUMP JUMPDEST PUSH1 0x2 PUSH1 0xFB SLOAD SUB PUSH2 0x2DBB JUMPI PUSH1 0x40 MLOAD PUSH3 0x461BCD PUSH1 0xE5 SHL DUP2 MSTORE PUSH1 0x20 PUSH1 0x4 DUP3 ADD MSTORE PUSH1 0x1F PUSH1 0x24 DUP3 ADD MSTORE PUSH32 0x5265656E7472616E637947756172643A207265656E7472616E742063616C6C00 PUSH1 0x44 DUP3 ADD MSTORE PUSH1 0x64 ADD PUSH2 0x1158 JUMP JUMPDEST PUSH1 0x2 PUSH1 0xFB SSTORE JUMP JUMPDEST PUSH1 0x1 PUSH1 0x1 PUSH1 0xA0 SHL SUB DUP4 DUP2 AND PUSH1 0x0 SWAP1 DUP2 MSTORE PUSH1 0x34 PUSH1 0x20 SWAP1 DUP2 MSTORE PUSH1 0x40 DUP1 DUP4 KECCAK256 SWAP4 DUP7 AND DUP4 MSTORE SWAP3 SWAP1 MSTORE KECCAK256 SLOAD PUSH1 0x0 NOT DUP2 EQ PUSH2 0x2E4E JUMPI DUP2 DUP2 LT ISZERO PUSH2 0x2E41 JUMPI PUSH1 0x40 MLOAD PUSH3 0x461BCD PUSH1 0xE5 SHL DUP2 MSTORE PUSH1 0x20 PUSH1 0x4 DUP3 ADD MSTORE PUSH1 0x1D PUSH1 0x24 DUP3 ADD MSTORE PUSH32 0x45524332303A20696E73756666696369656E7420616C6C6F77616E6365000000 PUSH1 0x44 DUP3 ADD MSTORE PUSH1 0x64 ADD PUSH2 0x1158 JUMP JUMPDEST PUSH2 0x2E4E DUP5 DUP5 DUP5 DUP5 SUB PUSH2 0x2BB7 JUMP JUMPDEST POP POP POP POP JUMP JUMPDEST PUSH1 0x1 PUSH1 0x1 PUSH1 0xA0 SHL SUB DUP4 AND PUSH1 0x0 SWAP1 DUP2 MSTORE PUSH2 0x140 PUSH1 0x20 MSTORE PUSH1 0x40 SWAP1 KECCAK256 SLOAD DUP4 SWAP1 DUP3 SWAP1 PUSH1 0xFF AND PUSH2 0x2F1F JUMPI PUSH2 0x131 SLOAD DUP2 LT ISZERO PUSH2 0x2ECC JUMPI PUSH1 0x40 MLOAD PUSH3 0x461BCD PUSH1 0xE5 SHL DUP2 MSTORE PUSH1 0x20 PUSH1 0x4 DUP3 ADD MSTORE PUSH1 0x14 PUSH1 0x24 DUP3 ADD MSTORE PUSH32 0x416D6F756E742062656C6F77206D696E696D756D000000000000000000000000 PUSH1 0x44 DUP3 ADD MSTORE PUSH1 0x64 ADD PUSH2 0x1158 JUMP JUMPDEST PUSH2 0x132 SLOAD DUP2 GT ISZERO PUSH2 0x2F1F JUMPI PUSH1 0x40 MLOAD PUSH3 0x461BCD PUSH1 0xE5 SHL DUP2 MSTORE PUSH1 0x20 PUSH1 0x4 DUP3 ADD MSTORE PUSH1 0x16 PUSH1 0x24 DUP3 ADD MSTORE PUSH32 0x416D6F756E742065786365656473206D6178696D756D00000000000000000000 PUSH1 0x44 DUP3 ADD MSTORE PUSH1 0x64 ADD PUSH2 0x1158 JUMP JUMPDEST PUSH1 0x1 PUSH1 0x1 PUSH1 0xA0 SHL SUB DUP6 AND PUSH1 0x0 SWAP1 DUP2 MSTORE PUSH2 0x13D PUSH1 0x20 MSTORE PUSH1 0x40 SWAP1 KECCAK256 SLOAD PUSH1 0xFF AND ISZERO PUSH2 0x2F89 JUMPI PUSH1 0x40 MLOAD PUSH3 0x461BCD PUSH1 0xE5 SHL DUP2 MSTORE PUSH1 0x20 PUSH1 0x4 DUP3 ADD MSTORE PUSH1 0x1E PUSH1 0x24 DUP3 ADD MSTORE PUSH32 0x53656E64657227732077616C6C657420697320626C61636B6C69737465640000 PUSH1 0x44 DUP3 ADD MSTORE PUSH1 0x64 ADD PUSH2 0x1158 JUMP JUMPDEST PUSH1 0x1 PUSH1 0x1 PUSH1 0xA0 SHL SUB DUP6 AND PUSH2 0x2FED JUMPI PUSH1 0x40 MLOAD PUSH3 0x461BCD PUSH1 0xE5 SHL DUP2 MSTORE PUSH1 0x20 PUSH1 0x4 DUP3 ADD MSTORE PUSH1 0x25 PUSH1 0x24 DUP3 ADD MSTORE PUSH32 0x45524332303A207472616E736665722066726F6D20746865207A65726F206164 PUSH1 0x44 DUP3 ADD MSTORE PUSH5 0x6472657373 PUSH1 0xD8 SHL PUSH1 0x64 DUP3 ADD MSTORE PUSH1 0x84 ADD PUSH2 0x1158 JUMP JUMPDEST PUSH1 0x1 PUSH1 0x1 PUSH1 0xA0 SHL SUB DUP5 AND PUSH2 0x304F JUMPI PUSH1 0x40 MLOAD PUSH3 0x461BCD PUSH1 0xE5 SHL DUP2 MSTORE PUSH1 0x20 PUSH1 0x4 DUP3 ADD MSTORE PUSH1 0x23 PUSH1 0x24 DUP3 ADD MSTORE PUSH32 0x45524332303A207472616E7366657220746F20746865207A65726F2061646472 PUSH1 0x44 DUP3 ADD MSTORE PUSH3 0x657373 PUSH1 0xE8 SHL PUSH1 0x64 DUP3 ADD MSTORE PUSH1 0x84 ADD PUSH2 0x1158 JUMP JUMPDEST PUSH1 0x0 DUP4 GT PUSH2 0x30C5 JUMPI PUSH1 0x40 MLOAD PUSH3 0x461BCD PUSH1 0xE5 SHL DUP2 MSTORE PUSH1 0x20 PUSH1 0x4 DUP3 ADD MSTORE PUSH1 0x29 PUSH1 0x24 DUP3 ADD MSTORE PUSH32 0x5472616E7366657220616D6F756E74206D757374206265206772656174657220 PUSH1 0x44 DUP3 ADD MSTORE PUSH32 0x7468616E207A65726F0000000000000000000000000000000000000000000000 PUSH1 0x64 DUP3 ADD MSTORE PUSH1 0x84 ADD PUSH2 0x1158 JUMP JUMPDEST PUSH1 0x1 PUSH1 0x1 PUSH1 0xA0 SHL SUB DUP6 AND PUSH1 0x0 SWAP1 DUP2 MSTORE PUSH2 0x136 PUSH1 0x20 MSTORE PUSH1 0x40 SWAP1 KECCAK256 SLOAD DUP4 SWAP1 PUSH1 0xFF AND DUP1 PUSH2 0x3108 JUMPI POP PUSH1 0x1 PUSH1 0x1 PUSH1 0xA0 SHL SUB DUP6 AND PUSH1 0x0 SWAP1 DUP2 MSTORE PUSH2 0x136 PUSH1 0x20 MSTORE PUSH1 0x40 SWAP1 KECCAK256 SLOAD PUSH1 0xFF AND JUMPDEST ISZERO PUSH2 0x311E JUMPI PUSH2 0x3118 CALLER DUP7 DUP7 PUSH2 0x38A9 JUMP JUMPDEST POP PUSH2 0x1BB2 JUMP JUMPDEST PUSH2 0x135 SLOAD PUSH2 0x100 SWAP1 DIV PUSH1 0xFF AND ISZERO PUSH2 0x3167 JUMPI PUSH1 0x0 PUSH2 0x2710 PUSH2 0x137 SLOAD DUP4 PUSH2 0x3143 SWAP2 SWAP1 PUSH2 0x40AC JUMP JUMPDEST PUSH2 0x314D SWAP2 SWAP1 PUSH2 0x40C3 JUMP JUMPDEST SWAP1 POP PUSH2 0x3159 DUP8 DUP3 PUSH2 0x331F JUMP JUMPDEST PUSH2 0x3163 DUP2 DUP7 PUSH2 0x4099 JUMP JUMPDEST SWAP5 POP POP JUMPDEST PUSH2 0x13C SLOAD PUSH1 0xFF AND ISZERO PUSH2 0x31D7 JUMPI PUSH1 0x0 PUSH2 0x2710 DUP3 PUSH2 0x139 SLOAD PUSH2 0x3187 SWAP2 SWAP1 PUSH2 0x40AC JUMP JUMPDEST PUSH2 0x3191 SWAP2 SWAP1 PUSH2 0x40C3 JUMP JUMPDEST PUSH2 0x130 SLOAD SWAP1 SWAP2 POP PUSH2 0x31AD SWAP1 DUP9 SWAP1 PUSH1 0x1 PUSH1 0x1 PUSH1 0xA0 SHL SUB AND DUP4 PUSH2 0x38A9 JUMP JUMPDEST PUSH2 0x2710 DUP3 PUSH2 0x139 SLOAD PUSH2 0x31BF SWAP2 SWAP1 PUSH2 0x40AC JUMP JUMPDEST PUSH2 0x31C9 SWAP2 SWAP1 PUSH2 0x40C3 JUMP JUMPDEST PUSH2 0x31D3 SWAP1 DUP7 PUSH2 0x4099 JUMP JUMPDEST SWAP5 POP POP JUMPDEST PUSH2 0x31DF PUSH2 0x1081 JUMP JUMPDEST PUSH2 0x31EA DUP7 DUP7 DUP7 PUSH2 0x38A9 JUMP JUMPDEST POP POP POP POP POP POP JUMP JUMPDEST PUSH1 0x1 PUSH1 0xFB SSTORE JUMP JUMPDEST PUSH1 0x0 PUSH2 0x3205 DUP3 DUP5 PUSH2 0x4114 JUMP JUMPDEST SWAP4 SWAP3 POP POP POP JUMP JUMPDEST PUSH2 0x3214 PUSH2 0x3A6B JUMP JUMPDEST PUSH1 0xC9 DUP1 SLOAD PUSH1 0xFF NOT AND SWAP1 SSTORE PUSH32 0x5DB9EE0A495BF2E6FF9C91A7834C1BA4FDD244A5E8AA4E537BD38AEAE4B073AA CALLER JUMPDEST PUSH1 0x40 MLOAD PUSH1 0x1 PUSH1 0x1 PUSH1 0xA0 SHL SUB SWAP1 SWAP2 AND DUP2 MSTORE PUSH1 0x20 ADD PUSH1 0x40 MLOAD DUP1 SWAP2 SUB SWAP1 LOG1 JUMP JUMPDEST PUSH1 0x1 PUSH1 0x1 PUSH1 0xA0 SHL SUB DUP3 AND PUSH2 0x32B4 JUMPI PUSH1 0x40 MLOAD PUSH3 0x461BCD PUSH1 0xE5 SHL DUP2 MSTORE PUSH1 0x20 PUSH1 0x4 DUP3 ADD MSTORE PUSH1 0x1F PUSH1 0x24 DUP3 ADD MSTORE PUSH32 0x45524332303A206D696E7420746F20746865207A65726F206164647265737300 PUSH1 0x44 DUP3 ADD MSTORE PUSH1 0x64 ADD PUSH2 0x1158 JUMP JUMPDEST DUP1 PUSH1 0x35 PUSH1 0x0 DUP3 DUP3 SLOAD PUSH2 0x32C6 SWAP2 SWAP1 PUSH2 0x4114 JUMP JUMPDEST SWAP1 SWAP2 SSTORE POP POP PUSH1 0x1 PUSH1 0x1 PUSH1 0xA0 SHL SUB DUP3 AND PUSH1 0x0 DUP2 DUP2 MSTORE PUSH1 0x33 PUSH1 0x20 SWAP1 DUP2 MSTORE PUSH1 0x40 DUP1 DUP4 KECCAK256 DUP1 SLOAD DUP7 ADD SWAP1 SSTORE MLOAD DUP5 DUP2 MSTORE PUSH32 0xDDF252AD1BE2C89B69C2B068FC378DAA952BA7F163C4A11628F55A4DF523B3EF SWAP2 ADD PUSH1 0x40 MLOAD DUP1 SWAP2 SUB SWAP1 LOG3 POP POP JUMP JUMPDEST PUSH1 0x1 PUSH1 0x1 PUSH1 0xA0 SHL SUB DUP3 AND PUSH2 0x339B JUMPI PUSH1 0x40 MLOAD PUSH3 0x461BCD PUSH1 0xE5 SHL DUP2 MSTORE PUSH1 0x20 PUSH1 0x4 DUP3 ADD MSTORE PUSH1 0x21 PUSH1 0x24 DUP3 ADD MSTORE PUSH32 0x45524332303A206275726E2066726F6D20746865207A65726F20616464726573 PUSH1 0x44 DUP3 ADD MSTORE PUSH32 0x7300000000000000000000000000000000000000000000000000000000000000 PUSH1 0x64 DUP3 ADD MSTORE PUSH1 0x84 ADD PUSH2 0x1158 JUMP JUMPDEST PUSH1 0x1 PUSH1 0x1 PUSH1 0xA0 SHL SUB DUP3 AND PUSH1 0x0 SWAP1 DUP2 MSTORE PUSH1 0x33 PUSH1 0x20 MSTORE PUSH1 0x40 SWAP1 KECCAK256 SLOAD DUP2 DUP2 LT ISZERO PUSH2 0x342A JUMPI PUSH1 0x40 MLOAD PUSH3 0x461BCD PUSH1 0xE5 SHL DUP2 MSTORE PUSH1 0x20 PUSH1 0x4 DUP3 ADD MSTORE PUSH1 0x22 PUSH1 0x24 DUP3 ADD MSTORE PUSH32 0x45524332303A206275726E20616D6F756E7420657863656564732062616C616E PUSH1 0x44 DUP3 ADD MSTORE PUSH32 0x6365000000000000000000000000000000000000000000000000000000000000 PUSH1 0x64 DUP3 ADD MSTORE PUSH1 0x84 ADD PUSH2 0x1158 JUMP JUMPDEST PUSH1 0x1 PUSH1 0x1 PUSH1 0xA0 SHL SUB DUP4 AND PUSH1 0x0 DUP2 DUP2 MSTORE PUSH1 0x33 PUSH1 0x20 SWAP1 DUP2 MSTORE PUSH1 0x40 DUP1 DUP4 KECCAK256 DUP7 DUP7 SUB SWAP1 SSTORE PUSH1 0x35 DUP1 SLOAD DUP8 SWAP1 SUB SWAP1 SSTORE MLOAD DUP6 DUP2 MSTORE SWAP2 SWAP3 SWAP2 PUSH32 0xDDF252AD1BE2C89B69C2B068FC378DAA952BA7F163C4A11628F55A4DF523B3EF SWAP2 ADD PUSH1 0x40 MLOAD DUP1 SWAP2 SUB SWAP1 LOG3 POP POP POP JUMP JUMPDEST PUSH1 0x97 DUP1 SLOAD PUSH1 0x1 PUSH1 0x1 PUSH1 0xA0 SHL SUB DUP4 DUP2 AND PUSH1 0x1 PUSH1 0x1 PUSH1 0xA0 SHL SUB NOT DUP4 AND DUP2 OR SWAP1 SWAP4 SSTORE PUSH1 0x40 MLOAD SWAP2 AND SWAP2 SWAP1 DUP3 SWAP1 PUSH32 0x8BE0079C531659141344CD1FD0A4F28419497F9722A3DAAFE3B4186F6B6457E0 SWAP1 PUSH1 0x0 SWAP1 LOG3 POP POP JUMP JUMPDEST PUSH1 0x0 DUP1 JUMPDEST PUSH2 0x12E SLOAD DUP2 LT ISZERO PUSH2 0x353E JUMPI DUP3 PUSH1 0x1 PUSH1 0x1 PUSH1 0xA0 SHL SUB AND PUSH2 0x12E DUP3 DUP2 SLOAD DUP2 LT PUSH2 0x3509 JUMPI PUSH2 0x3509 PUSH2 0x40E5 JUMP JUMPDEST PUSH1 0x0 SWAP2 DUP3 MSTORE PUSH1 0x20 SWAP1 SWAP2 KECCAK256 ADD SLOAD PUSH1 0x1 PUSH1 0x1 PUSH1 0xA0 SHL SUB AND SUB PUSH2 0x352C JUMPI POP PUSH1 0x1 SWAP3 SWAP2 POP POP JUMP JUMPDEST DUP1 PUSH2 0x3536 DUP2 PUSH2 0x40FB JUMP JUMPDEST SWAP2 POP POP PUSH2 0x34E0 JUMP JUMPDEST POP PUSH1 0x0 SWAP3 SWAP2 POP POP JUMP JUMPDEST PUSH2 0x354F PUSH2 0x3590 JUMP JUMPDEST PUSH1 0xC9 DUP1 SLOAD PUSH1 0xFF NOT AND PUSH1 0x1 OR SWAP1 SSTORE PUSH32 0x62E78CEA01BEE320CD4E420270B5EA74000D11B0C9F74754EBDBFC544B05A258 PUSH2 0x3241 CALLER SWAP1 JUMP JUMPDEST PUSH1 0x0 PUSH2 0x3205 DUP3 DUP5 PUSH2 0x4099 JUMP JUMPDEST PUSH1 0xC9 SLOAD PUSH1 0xFF AND ISZERO PUSH2 0x1844 JUMPI PUSH1 0x40 MLOAD PUSH3 0x461BCD PUSH1 0xE5 SHL DUP2 MSTORE PUSH1 0x20 PUSH1 0x4 DUP3 ADD MSTORE PUSH1 0x10 PUSH1 0x24 DUP3 ADD MSTORE PUSH32 0x5061757361626C653A2070617573656400000000000000000000000000000000 PUSH1 0x44 DUP3 ADD MSTORE PUSH1 0x64 ADD PUSH2 0x1158 JUMP JUMPDEST PUSH2 0x35EB PUSH2 0x2D0F JUMP JUMPDEST PUSH1 0x1 PUSH1 0x1 PUSH1 0xA0 SHL SUB DUP2 AND PUSH2 0x3667 JUMPI PUSH1 0x40 MLOAD PUSH3 0x461BCD PUSH1 0xE5 SHL DUP2 MSTORE PUSH1 0x20 PUSH1 0x4 DUP3 ADD MSTORE PUSH1 0x26 PUSH1 0x24 DUP3 ADD MSTORE PUSH32 0x4F776E61626C653A206E6577206F776E657220697320746865207A65726F2061 PUSH1 0x44 DUP3 ADD MSTORE PUSH32 0x6464726573730000000000000000000000000000000000000000000000000000 PUSH1 0x64 DUP3 ADD MSTORE PUSH1 0x84 ADD PUSH2 0x1158 JUMP JUMPDEST PUSH2 0x10FB DUP2 PUSH2 0x348A JUMP JUMPDEST PUSH1 0x0 SLOAD PUSH2 0x100 SWAP1 DIV PUSH1 0xFF AND PUSH2 0x36DB JUMPI PUSH1 0x40 MLOAD PUSH3 0x461BCD PUSH1 0xE5 SHL DUP2 MSTORE PUSH1 0x20 PUSH1 0x4 DUP3 ADD MSTORE PUSH1 0x2B PUSH1 0x24 DUP3 ADD MSTORE PUSH32 0x496E697469616C697A61626C653A20636F6E7472616374206973206E6F742069 PUSH1 0x44 DUP3 ADD MSTORE PUSH11 0x6E697469616C697A696E67 PUSH1 0xA8 SHL PUSH1 0x64 DUP3 ADD MSTORE PUSH1 0x84 ADD PUSH2 0x1158 JUMP JUMPDEST PUSH2 0x1702 DUP3 DUP3 PUSH2 0x3ABD JUMP JUMPDEST PUSH1 0x0 SLOAD PUSH2 0x100 SWAP1 DIV PUSH1 0xFF AND PUSH2 0x1844 JUMPI PUSH1 0x40 MLOAD PUSH3 0x461BCD PUSH1 0xE5 SHL DUP2 MSTORE PUSH1 0x20 PUSH1 0x4 DUP3 ADD MSTORE PUSH1 0x2B PUSH1 0x24 DUP3 ADD MSTORE PUSH32 0x496E697469616C697A61626C653A20636F6E7472616374206973206E6F742069 PUSH1 0x44 DUP3 ADD MSTORE PUSH11 0x6E697469616C697A696E67 PUSH1 0xA8 SHL PUSH1 0x64 DUP3 ADD MSTORE PUSH1 0x84 ADD PUSH2 0x1158 JUMP JUMPDEST PUSH1 0x0 SLOAD PUSH2 0x100 SWAP1 DIV PUSH1 0xFF AND PUSH2 0x37BB JUMPI PUSH1 0x40 MLOAD PUSH3 0x461BCD PUSH1 0xE5 SHL DUP2 MSTORE PUSH1 0x20 PUSH1 0x4 DUP3 ADD MSTORE PUSH1 0x2B PUSH1 0x24 DUP3 ADD MSTORE PUSH32 0x496E697469616C697A61626C653A20636F6E7472616374206973206E6F742069 PUSH1 0x44 DUP3 ADD MSTORE PUSH11 0x6E697469616C697A696E67 PUSH1 0xA8 SHL PUSH1 0x64 DUP3 ADD MSTORE PUSH1 0x84 ADD PUSH2 0x1158 JUMP JUMPDEST PUSH2 0x1844 PUSH2 0x3B41 JUMP JUMPDEST PUSH1 0x0 SLOAD PUSH2 0x100 SWAP1 DIV PUSH1 0xFF AND PUSH2 0x382E JUMPI PUSH1 0x40 MLOAD PUSH3 0x461BCD PUSH1 0xE5 SHL DUP2 MSTORE PUSH1 0x20 PUSH1 0x4 DUP3 ADD MSTORE PUSH1 0x2B PUSH1 0x24 DUP3 ADD MSTORE PUSH32 0x496E697469616C697A61626C653A20636F6E7472616374206973206E6F742069 PUSH1 0x44 DUP3 ADD MSTORE PUSH11 0x6E697469616C697A696E67 PUSH1 0xA8 SHL PUSH1 0x64 DUP3 ADD MSTORE PUSH1 0x84 ADD PUSH2 0x1158 JUMP JUMPDEST PUSH2 0x1844 PUSH2 0x3BB5 JUMP JUMPDEST PUSH1 0x0 SLOAD PUSH2 0x100 SWAP1 DIV PUSH1 0xFF AND PUSH2 0x38A1 JUMPI PUSH1 0x40 MLOAD PUSH3 0x461BCD PUSH1 0xE5 SHL DUP2 MSTORE PUSH1 0x20 PUSH1 0x4 DUP3 ADD MSTORE PUSH1 0x2B PUSH1 0x24 DUP3 ADD MSTORE PUSH32 0x496E697469616C697A61626C653A20636F6E7472616374206973206E6F742069 PUSH1 0x44 DUP3 ADD MSTORE PUSH11 0x6E697469616C697A696E67 PUSH1 0xA8 SHL PUSH1 0x64 DUP3 ADD MSTORE PUSH1 0x84 ADD PUSH2 0x1158 JUMP JUMPDEST PUSH2 0x1844 PUSH2 0x3C2C JUMP JUMPDEST PUSH1 0x1 PUSH1 0x1 PUSH1 0xA0 SHL SUB DUP4 AND PUSH2 0x390D JUMPI PUSH1 0x40 MLOAD PUSH3 0x461BCD PUSH1 0xE5 SHL DUP2 MSTORE PUSH1 0x20 PUSH1 0x4 DUP3 ADD MSTORE PUSH1 0x25 PUSH1 0x24 DUP3 ADD MSTORE PUSH32 0x45524332303A207472616E736665722066726F6D20746865207A65726F206164 PUSH1 0x44 DUP3 ADD MSTORE PUSH5 0x6472657373 PUSH1 0xD8 SHL PUSH1 0x64 DUP3 ADD MSTORE PUSH1 0x84 ADD PUSH2 0x1158 JUMP JUMPDEST PUSH1 0x1 PUSH1 0x1 PUSH1 0xA0 SHL SUB DUP3 AND PUSH2 0x396F JUMPI PUSH1 0x40 MLOAD PUSH3 0x461BCD PUSH1 0xE5 SHL DUP2 MSTORE PUSH1 0x20 PUSH1 0x4 DUP3 ADD MSTORE PUSH1 0x23 PUSH1 0x24 DUP3 ADD MSTORE PUSH32 0x45524332303A207472616E7366657220746F20746865207A65726F2061646472 PUSH1 0x44 DUP3 ADD MSTORE PUSH3 0x657373 PUSH1 0xE8 SHL PUSH1 0x64 DUP3 ADD MSTORE PUSH1 0x84 ADD PUSH2 0x1158 JUMP JUMPDEST PUSH1 0x1 PUSH1 0x1 PUSH1 0xA0 SHL SUB DUP4 AND PUSH1 0x0 SWAP1 DUP2 MSTORE PUSH1 0x33 PUSH1 0x20 MSTORE PUSH1 0x40 SWAP1 KECCAK256 SLOAD DUP2 DUP2 LT ISZERO PUSH2 0x39FE JUMPI PUSH1 0x40 MLOAD PUSH3 0x461BCD PUSH1 0xE5 SHL DUP2 MSTORE PUSH1 0x20 PUSH1 0x4 DUP3 ADD MSTORE PUSH1 0x26 PUSH1 0x24 DUP3 ADD MSTORE PUSH32 0x45524332303A207472616E7366657220616D6F756E7420657863656564732062 PUSH1 0x44 DUP3 ADD MSTORE PUSH32 0x616C616E63650000000000000000000000000000000000000000000000000000 PUSH1 0x64 DUP3 ADD MSTORE PUSH1 0x84 ADD PUSH2 0x1158 JUMP JUMPDEST PUSH1 0x1 PUSH1 0x1 PUSH1 0xA0 SHL SUB DUP1 DUP6 AND PUSH1 0x0 DUP2 DUP2 MSTORE PUSH1 0x33 PUSH1 0x20 MSTORE PUSH1 0x40 DUP1 DUP3 KECCAK256 DUP7 DUP7 SUB SWAP1 SSTORE SWAP3 DUP7 AND DUP1 DUP3 MSTORE SWAP1 DUP4 SWAP1 KECCAK256 DUP1 SLOAD DUP7 ADD SWAP1 SSTORE SWAP2 MLOAD PUSH32 0xDDF252AD1BE2C89B69C2B068FC378DAA952BA7F163C4A11628F55A4DF523B3EF SWAP1 PUSH2 0x3A5E SWAP1 DUP7 DUP2 MSTORE PUSH1 0x20 ADD SWAP1 JUMP JUMPDEST PUSH1 0x40 MLOAD DUP1 SWAP2 SUB SWAP1 LOG3 PUSH2 0x2E4E JUMP JUMPDEST PUSH1 0xC9 SLOAD PUSH1 0xFF AND PUSH2 0x1844 JUMPI PUSH1 0x40 MLOAD PUSH3 0x461BCD PUSH1 0xE5 SHL DUP2 MSTORE PUSH1 0x20 PUSH1 0x4 DUP3 ADD MSTORE PUSH1 0x14 PUSH1 0x24 DUP3 ADD MSTORE PUSH32 0x5061757361626C653A206E6F7420706175736564000000000000000000000000 PUSH1 0x44 DUP3 ADD MSTORE PUSH1 0x64 ADD PUSH2 0x1158 JUMP JUMPDEST PUSH1 0x0 SLOAD PUSH2 0x100 SWAP1 DIV PUSH1 0xFF AND PUSH2 0x3B28 JUMPI PUSH1 0x40 MLOAD PUSH3 0x461BCD PUSH1 0xE5 SHL DUP2 MSTORE PUSH1 0x20 PUSH1 0x4 DUP3 ADD MSTORE PUSH1 0x2B PUSH1 0x24 DUP3 ADD MSTORE PUSH32 0x496E697469616C697A61626C653A20636F6E7472616374206973206E6F742069 PUSH1 0x44 DUP3 ADD MSTORE PUSH11 0x6E697469616C697A696E67 PUSH1 0xA8 SHL PUSH1 0x64 DUP3 ADD MSTORE PUSH1 0x84 ADD PUSH2 0x1158 JUMP JUMPDEST PUSH1 0x36 PUSH2 0x3B34 DUP4 DUP3 PUSH2 0x42A9 JUMP JUMPDEST POP PUSH1 0x37 PUSH2 0x1FE1 DUP3 DUP3 PUSH2 0x42A9 JUMP JUMPDEST PUSH1 0x0 SLOAD PUSH2 0x100 SWAP1 DIV PUSH1 0xFF AND PUSH2 0x3BAC JUMPI PUSH1 0x40 MLOAD PUSH3 0x461BCD PUSH1 0xE5 SHL DUP2 MSTORE PUSH1 0x20 PUSH1 0x4 DUP3 ADD MSTORE PUSH1 0x2B PUSH1 0x24 DUP3 ADD MSTORE PUSH32 0x496E697469616C697A61626C653A20636F6E7472616374206973206E6F742069 PUSH1 0x44 DUP3 ADD MSTORE PUSH11 0x6E697469616C697A696E67 PUSH1 0xA8 SHL PUSH1 0x64 DUP3 ADD MSTORE PUSH1 0x84 ADD PUSH2 0x1158 JUMP JUMPDEST PUSH2 0x1844 CALLER PUSH2 0x348A JUMP JUMPDEST PUSH1 0x0 SLOAD PUSH2 0x100 SWAP1 DIV PUSH1 0xFF AND PUSH2 0x3C20 JUMPI PUSH1 0x40 MLOAD PUSH3 0x461BCD PUSH1 0xE5 SHL DUP2 MSTORE PUSH1 0x20 PUSH1 0x4 DUP3 ADD MSTORE PUSH1 0x2B PUSH1 0x24 DUP3 ADD MSTORE PUSH32 0x496E697469616C697A61626C653A20636F6E7472616374206973206E6F742069 PUSH1 0x44 DUP3 ADD MSTORE PUSH11 0x6E697469616C697A696E67 PUSH1 0xA8 SHL PUSH1 0x64 DUP3 ADD MSTORE PUSH1 0x84 ADD PUSH2 0x1158 JUMP JUMPDEST PUSH1 0xC9 DUP1 SLOAD PUSH1 0xFF NOT AND SWAP1 SSTORE JUMP JUMPDEST PUSH1 0x0 SLOAD PUSH2 0x100 SWAP1 DIV PUSH1 0xFF AND PUSH2 0x31F2 JUMPI PUSH1 0x40 MLOAD PUSH3 0x461BCD PUSH1 0xE5 SHL DUP2 MSTORE PUSH1 0x20 PUSH1 0x4 DUP3 ADD MSTORE PUSH1 0x2B PUSH1 0x24 DUP3 ADD MSTORE PUSH32 0x496E697469616C697A61626C653A20636F6E7472616374206973206E6F742069 PUSH1 0x44 DUP3 ADD MSTORE PUSH11 0x6E697469616C697A696E67 PUSH1 0xA8 SHL PUSH1 0x64 DUP3 ADD MSTORE PUSH1 0x84 ADD PUSH2 0x1158 JUMP JUMPDEST PUSH1 0x0 PUSH1 0x20 DUP1 DUP4 MSTORE DUP4 MLOAD DUP1 DUP3 DUP6 ADD MSTORE PUSH1 0x0 JUMPDEST DUP2 DUP2 LT ISZERO PUSH2 0x3CC4 JUMPI DUP6 DUP2 ADD DUP4 ADD MLOAD DUP6 DUP3 ADD PUSH1 0x40 ADD MSTORE DUP3 ADD PUSH2 0x3CA8 JUMP JUMPDEST POP PUSH1 0x0 PUSH1 0x40 DUP3 DUP7 ADD ADD MSTORE PUSH1 0x40 PUSH1 0x1F NOT PUSH1 0x1F DUP4 ADD AND DUP6 ADD ADD SWAP3 POP POP POP SWAP3 SWAP2 POP POP JUMP JUMPDEST PUSH1 0x1 PUSH1 0x1 PUSH1 0xA0 SHL SUB DUP2 AND DUP2 EQ PUSH2 0x10FB JUMPI PUSH1 0x0 DUP1 REVERT JUMPDEST DUP1 CALLDATALOAD PUSH2 0x3D05 DUP2 PUSH2 0x3CE5 JUMP JUMPDEST SWAP2 SWAP1 POP JUMP JUMPDEST PUSH1 0x0 DUP1 PUSH1 0x40 DUP4 DUP6 SUB SLT ISZERO PUSH2 0x3D1D JUMPI PUSH1 0x0 DUP1 REVERT JUMPDEST DUP3 CALLDATALOAD PUSH2 0x3D28 DUP2 PUSH2 0x3CE5 JUMP JUMPDEST SWAP5 PUSH1 0x20 SWAP4 SWAP1 SWAP4 ADD CALLDATALOAD SWAP4 POP POP POP JUMP JUMPDEST PUSH1 0x0 PUSH1 0x20 DUP3 DUP5 SUB SLT ISZERO PUSH2 0x3D48 JUMPI PUSH1 0x0 DUP1 REVERT JUMPDEST DUP2 CALLDATALOAD PUSH2 0x3205 DUP2 PUSH2 0x3CE5 JUMP JUMPDEST PUSH1 0x0 DUP1 PUSH1 0x0 PUSH1 0x60 DUP5 DUP7 SUB SLT ISZERO PUSH2 0x3D68 JUMPI PUSH1 0x0 DUP1 REVERT JUMPDEST DUP4 CALLDATALOAD PUSH2 0x3D73 DUP2 PUSH2 0x3CE5 JUMP JUMPDEST SWAP3 POP PUSH1 0x20 DUP5 ADD CALLDATALOAD PUSH2 0x3D83 DUP2 PUSH2 0x3CE5 JUMP JUMPDEST SWAP3 SWAP6 SWAP3 SWAP5 POP POP POP PUSH1 0x40 SWAP2 SWAP1 SWAP2 ADD CALLDATALOAD SWAP1 JUMP JUMPDEST PUSH1 0x0 DUP1 PUSH1 0x0 DUP1 PUSH1 0x80 DUP6 DUP8 SUB SLT ISZERO PUSH2 0x3DAA JUMPI PUSH1 0x0 DUP1 REVERT JUMPDEST DUP5 CALLDATALOAD PUSH2 0x3DB5 DUP2 PUSH2 0x3CE5 JUMP JUMPDEST SWAP7 PUSH1 0x20 DUP7 ADD CALLDATALOAD SWAP7 POP PUSH1 0x40 DUP7 ADD CALLDATALOAD SWAP6 PUSH1 0x60 ADD CALLDATALOAD SWAP5 POP SWAP3 POP POP POP JUMP JUMPDEST PUSH1 0x0 PUSH1 0x20 DUP3 DUP5 SUB SLT ISZERO PUSH2 0x3DE1 JUMPI PUSH1 0x0 DUP1 REVERT JUMPDEST POP CALLDATALOAD SWAP2 SWAP1 POP JUMP JUMPDEST DUP1 ISZERO ISZERO DUP2 EQ PUSH2 0x10FB JUMPI PUSH1 0x0 DUP1 REVERT JUMPDEST PUSH1 0x0 PUSH1 0x20 DUP3 DUP5 SUB SLT ISZERO PUSH2 0x3E08 JUMPI PUSH1 0x0 DUP1 REVERT JUMPDEST DUP2 CALLDATALOAD PUSH2 0x3205 DUP2 PUSH2 0x3DE8 JUMP JUMPDEST PUSH1 0x0 DUP1 PUSH1 0x40 DUP4 DUP6 SUB SLT ISZERO PUSH2 0x3E26 JUMPI PUSH1 0x0 DUP1 REVERT JUMPDEST DUP3 CALLDATALOAD PUSH2 0x3E31 DUP2 PUSH2 0x3CE5 JUMP JUMPDEST SWAP2 POP PUSH1 0x20 DUP4 ADD CALLDATALOAD PUSH2 0x3E41 DUP2 PUSH2 0x3CE5 JUMP JUMPDEST DUP1 SWAP2 POP POP SWAP3 POP SWAP3 SWAP1 POP JUMP JUMPDEST PUSH4 0x4E487B71 PUSH1 0xE0 SHL PUSH1 0x0 MSTORE PUSH1 0x41 PUSH1 0x4 MSTORE PUSH1 0x24 PUSH1 0x0 REVERT JUMPDEST PUSH1 0x40 MLOAD PUSH1 0x1F DUP3 ADD PUSH1 0x1F NOT AND DUP2 ADD PUSH8 0xFFFFFFFFFFFFFFFF DUP2 GT DUP3 DUP3 LT OR ISZERO PUSH2 0x3E8B JUMPI PUSH2 0x3E8B PUSH2 0x3E4C JUMP JUMPDEST PUSH1 0x40 MSTORE SWAP2 SWAP1 POP JUMP JUMPDEST PUSH1 0x0 DUP3 PUSH1 0x1F DUP4 ADD SLT PUSH2 0x3EA4 JUMPI PUSH1 0x0 DUP1 REVERT JUMPDEST DUP2 CALLDATALOAD PUSH8 0xFFFFFFFFFFFFFFFF DUP2 GT ISZERO PUSH2 0x3EBE JUMPI PUSH2 0x3EBE PUSH2 0x3E4C JUMP JUMPDEST PUSH2 0x3ED1 PUSH1 0x1F DUP3 ADD PUSH1 0x1F NOT AND PUSH1 0x20 ADD PUSH2 0x3E62 JUMP JUMPDEST DUP2 DUP2 MSTORE DUP5 PUSH1 0x20 DUP4 DUP7 ADD ADD GT ISZERO PUSH2 0x3EE6 JUMPI PUSH1 0x0 DUP1 REVERT JUMPDEST DUP2 PUSH1 0x20 DUP6 ADD PUSH1 0x20 DUP4 ADD CALLDATACOPY PUSH1 0x0 SWAP2 DUP2 ADD PUSH1 0x20 ADD SWAP2 SWAP1 SWAP2 MSTORE SWAP4 SWAP3 POP POP POP JUMP JUMPDEST PUSH1 0x0 DUP3 PUSH1 0x1F DUP4 ADD SLT PUSH2 0x3F14 JUMPI PUSH1 0x0 DUP1 REVERT JUMPDEST DUP2 CALLDATALOAD PUSH1 0x20 PUSH8 0xFFFFFFFFFFFFFFFF DUP3 GT ISZERO PUSH2 0x3F30 JUMPI PUSH2 0x3F30 PUSH2 0x3E4C JUMP JUMPDEST DUP2 PUSH1 0x5 SHL PUSH2 0x3F3F DUP3 DUP3 ADD PUSH2 0x3E62 JUMP JUMPDEST SWAP3 DUP4 MSTORE DUP5 DUP2 ADD DUP3 ADD SWAP3 DUP3 DUP2 ADD SWAP1 DUP8 DUP6 GT ISZERO PUSH2 0x3F59 JUMPI PUSH1 0x0 DUP1 REVERT JUMPDEST DUP4 DUP8 ADD SWAP3 POP JUMPDEST DUP5 DUP4 LT ISZERO PUSH2 0x3F81 JUMPI DUP3 CALLDATALOAD PUSH2 0x3F72 DUP2 PUSH2 0x3CE5 JUMP JUMPDEST DUP3 MSTORE SWAP2 DUP4 ADD SWAP2 SWAP1 DUP4 ADD SWAP1 PUSH2 0x3F5F JUMP JUMPDEST SWAP8 SWAP7 POP POP POP POP POP POP POP JUMP JUMPDEST PUSH1 0x0 DUP1 PUSH1 0x0 DUP1 PUSH1 0x0 DUP1 PUSH1 0xC0 DUP8 DUP10 SUB SLT ISZERO PUSH2 0x3FA5 JUMPI PUSH1 0x0 DUP1 REVERT JUMPDEST DUP7 CALLDATALOAD PUSH8 0xFFFFFFFFFFFFFFFF DUP1 DUP3 GT ISZERO PUSH2 0x3FBD JUMPI PUSH1 0x0 DUP1 REVERT JUMPDEST PUSH2 0x3FC9 DUP11 DUP4 DUP12 ADD PUSH2 0x3E93 JUMP JUMPDEST SWAP8 POP PUSH1 0x20 DUP10 ADD CALLDATALOAD SWAP2 POP DUP1 DUP3 GT ISZERO PUSH2 0x3FDF JUMPI PUSH1 0x0 DUP1 REVERT JUMPDEST PUSH2 0x3FEB DUP11 DUP4 DUP12 ADD PUSH2 0x3E93 JUMP JUMPDEST SWAP7 POP PUSH1 0x40 DUP10 ADD CALLDATALOAD SWAP2 POP PUSH1 0xFF DUP3 AND DUP3 EQ PUSH2 0x4003 JUMPI PUSH1 0x0 DUP1 REVERT JUMPDEST DUP2 SWAP6 POP PUSH1 0x60 DUP10 ADD CALLDATALOAD SWAP5 POP PUSH2 0x4019 PUSH1 0x80 DUP11 ADD PUSH2 0x3CFA JUMP JUMPDEST SWAP4 POP PUSH1 0xA0 DUP10 ADD CALLDATALOAD SWAP2 POP DUP1 DUP3 GT ISZERO PUSH2 0x402F JUMPI PUSH1 0x0 DUP1 REVERT JUMPDEST POP PUSH2 0x403C DUP10 DUP3 DUP11 ADD PUSH2 0x3F03 JUMP JUMPDEST SWAP2 POP POP SWAP3 SWAP6 POP SWAP3 SWAP6 POP SWAP3 SWAP6 JUMP JUMPDEST PUSH1 0x1 DUP2 DUP2 SHR SWAP1 DUP3 AND DUP1 PUSH2 0x405D JUMPI PUSH1 0x7F DUP3 AND SWAP2 POP JUMPDEST PUSH1 0x20 DUP3 LT DUP2 SUB PUSH2 0x407D JUMPI PUSH4 0x4E487B71 PUSH1 0xE0 SHL PUSH1 0x0 MSTORE PUSH1 0x22 PUSH1 0x4 MSTORE PUSH1 0x24 PUSH1 0x0 REVERT JUMPDEST POP SWAP2 SWAP1 POP JUMP JUMPDEST PUSH4 0x4E487B71 PUSH1 0xE0 SHL PUSH1 0x0 MSTORE PUSH1 0x11 PUSH1 0x4 MSTORE PUSH1 0x24 PUSH1 0x0 REVERT JUMPDEST DUP2 DUP2 SUB DUP2 DUP2 GT ISZERO PUSH2 0x107B JUMPI PUSH2 0x107B PUSH2 0x4083 JUMP JUMPDEST DUP1 DUP3 MUL DUP2 ISZERO DUP3 DUP3 DIV DUP5 EQ OR PUSH2 0x107B JUMPI PUSH2 0x107B PUSH2 0x4083 JUMP JUMPDEST PUSH1 0x0 DUP3 PUSH2 0x40E0 JUMPI PUSH4 0x4E487B71 PUSH1 0xE0 SHL PUSH1 0x0 MSTORE PUSH1 0x12 PUSH1 0x4 MSTORE PUSH1 0x24 PUSH1 0x0 REVERT JUMPDEST POP DIV SWAP1 JUMP JUMPDEST PUSH4 0x4E487B71 PUSH1 0xE0 SHL PUSH1 0x0 MSTORE PUSH1 0x32 PUSH1 0x4 MSTORE PUSH1 0x24 PUSH1 0x0 REVERT JUMPDEST PUSH1 0x0 PUSH1 0x1 DUP3 ADD PUSH2 0x410D JUMPI PUSH2 0x410D PUSH2 0x4083 JUMP JUMPDEST POP PUSH1 0x1 ADD SWAP1 JUMP JUMPDEST DUP1 DUP3 ADD DUP1 DUP3 GT ISZERO PUSH2 0x107B JUMPI PUSH2 0x107B PUSH2 0x4083 JUMP JUMPDEST PUSH4 0x4E487B71 PUSH1 0xE0 SHL PUSH1 0x0 MSTORE PUSH1 0x31 PUSH1 0x4 MSTORE PUSH1 0x24 PUSH1 0x0 REVERT JUMPDEST PUSH1 0x0 PUSH1 0x20 DUP3 DUP5 SUB SLT ISZERO PUSH2 0x414F JUMPI PUSH1 0x0 DUP1 REVERT JUMPDEST POP MLOAD SWAP2 SWAP1 POP JUMP JUMPDEST PUSH1 0x0 PUSH1 0x20 DUP3 DUP5 SUB SLT ISZERO PUSH2 0x4168 JUMPI PUSH1 0x0 DUP1 REVERT JUMPDEST DUP2 MLOAD PUSH2 0x3205 DUP2 PUSH2 0x3DE8 JUMP JUMPDEST PUSH1 0x1 DUP2 DUP2 JUMPDEST DUP1 DUP6 GT ISZERO PUSH2 0x41AE JUMPI DUP2 PUSH1 0x0 NOT DIV DUP3 GT ISZERO PUSH2 0x4194 JUMPI PUSH2 0x4194 PUSH2 0x4083 JUMP JUMPDEST DUP1 DUP6 AND ISZERO PUSH2 0x41A1 JUMPI SWAP2 DUP2 MUL SWAP2 JUMPDEST SWAP4 DUP5 SHR SWAP4 SWAP1 DUP1 MUL SWAP1 PUSH2 0x4178 JUMP JUMPDEST POP SWAP3 POP SWAP3 SWAP1 POP JUMP JUMPDEST PUSH1 0x0 DUP3 PUSH2 0x41C5 JUMPI POP PUSH1 0x1 PUSH2 0x107B JUMP JUMPDEST DUP2 PUSH2 0x41D2 JUMPI POP PUSH1 0x0 PUSH2 0x107B JUMP JUMPDEST DUP2 PUSH1 0x1 DUP2 EQ PUSH2 0x41E8 JUMPI PUSH1 0x2 DUP2 EQ PUSH2 0x41F2 JUMPI PUSH2 0x420E JUMP JUMPDEST PUSH1 0x1 SWAP2 POP POP PUSH2 0x107B JUMP JUMPDEST PUSH1 0xFF DUP5 GT ISZERO PUSH2 0x4203 JUMPI PUSH2 0x4203 PUSH2 0x4083 JUMP JUMPDEST POP POP PUSH1 0x1 DUP3 SHL PUSH2 0x107B JUMP JUMPDEST POP PUSH1 0x20 DUP4 LT PUSH2 0x133 DUP4 LT AND PUSH1 0x4E DUP5 LT PUSH1 0xB DUP5 LT AND OR ISZERO PUSH2 0x4231 JUMPI POP DUP2 DUP2 EXP PUSH2 0x107B JUMP JUMPDEST PUSH2 0x423B DUP4 DUP4 PUSH2 0x4173 JUMP JUMPDEST DUP1 PUSH1 0x0 NOT DIV DUP3 GT ISZERO PUSH2 0x424F JUMPI PUSH2 0x424F PUSH2 0x4083 JUMP JUMPDEST MUL SWAP4 SWAP3 POP POP POP JUMP JUMPDEST PUSH1 0x0 PUSH2 0x3205 DUP4 DUP4 PUSH2 0x41B6 JUMP JUMPDEST PUSH1 0x1F DUP3 GT ISZERO PUSH2 0x1FE1 JUMPI PUSH1 0x0 DUP2 DUP2 MSTORE PUSH1 0x20 DUP2 KECCAK256 PUSH1 0x1F DUP6 ADD PUSH1 0x5 SHR DUP2 ADD PUSH1 0x20 DUP7 LT ISZERO PUSH2 0x428A JUMPI POP DUP1 JUMPDEST PUSH1 0x1F DUP6 ADD PUSH1 0x5 SHR DUP3 ADD SWAP2 POP JUMPDEST DUP2 DUP2 LT ISZERO PUSH2 0x31EA JUMPI DUP3 DUP2 SSTORE PUSH1 0x1 ADD PUSH2 0x4296 JUMP JUMPDEST DUP2 MLOAD PUSH8 0xFFFFFFFFFFFFFFFF DUP2 GT ISZERO PUSH2 0x42C3 JUMPI PUSH2 0x42C3 PUSH2 0x3E4C JUMP JUMPDEST PUSH2 0x42D7 DUP2 PUSH2 0x42D1 DUP5 SLOAD PUSH2 0x4049 JUMP JUMPDEST DUP5 PUSH2 0x4263 JUMP JUMPDEST PUSH1 0x20 DUP1 PUSH1 0x1F DUP4 GT PUSH1 0x1 DUP2 EQ PUSH2 0x430C JUMPI PUSH1 0x0 DUP5 ISZERO PUSH2 0x42F4 JUMPI POP DUP6 DUP4 ADD MLOAD JUMPDEST PUSH1 0x0 NOT PUSH1 0x3 DUP7 SWAP1 SHL SHR NOT AND PUSH1 0x1 DUP6 SWAP1 SHL OR DUP6 SSTORE PUSH2 0x31EA JUMP JUMPDEST PUSH1 0x0 DUP6 DUP2 MSTORE PUSH1 0x20 DUP2 KECCAK256 PUSH1 0x1F NOT DUP7 AND SWAP2 JUMPDEST DUP3 DUP2 LT ISZERO PUSH2 0x433B JUMPI DUP9 DUP7 ADD MLOAD DUP3 SSTORE SWAP5 DUP5 ADD SWAP5 PUSH1 0x1 SWAP1 SWAP2 ADD SWAP1 DUP5 ADD PUSH2 0x431C JUMP JUMPDEST POP DUP6 DUP3 LT ISZERO PUSH2 0x4359 JUMPI DUP8 DUP6 ADD MLOAD PUSH1 0x0 NOT PUSH1 0x3 DUP9 SWAP1 SHL PUSH1 0xF8 AND SHR NOT AND DUP2 SSTORE JUMPDEST POP POP POP POP POP PUSH1 0x1 SWAP1 DUP2 SHL ADD SWAP1 SSTORE POP JUMP INVALID LOG2 PUSH5 0x6970667358 0x22 SLT KECCAK256 0xA7 INVALID INVALID PUSH32 0xABAE0E3C017F8630896658D25EA678221711F16FEFDDEB9F09D0D3DC64736F6C PUSH4 0x43000813 STOP CALLER "},"methodIdentifiers":{"_frozenWallets(address)":"3eb5cbeb","_owner()":"b2bdfa7b","addToWhitelist(address)":"e43252d7","addVestingSchedule(address,uint256,uint256,uint256)":"24ef8c1b","allowance(address,address)":"dd62ed3e","approve(address,uint256)":"095ea7b3","balanceOf(address)":"70a08231","blackList(address)":"4838d165","burn(uint256)":"42966c68","burnFrom(address,uint256)":"79cc6790","burnableTax()":"d0a1bd44","buySellTaxRate()":"bd0e0acd","cancelOwnershipTransfer()":"23452b9c","castVote(bool)":"7ace48e7","claim()":"4e71d92d","decimals()":"313ce567","decreaseAllowance(address,uint256)":"a457c2d7","decreasingTaxInterval()":"622b67cb","disableBuySellTax(bool)":"f217fdbe","finalizeOwnershipTransfer()":"bf41c2a4","freezeWallet(address,uint256)":"85be583f","graduallyDecreasingTax()":"5e2f16c8","hasVoted(address)":"09eef43e","includeInTax(address)":"e17c4c74","increaseAllowance(address,uint256)":"39509351","initialize(string,string,uint8,uint256,address,address[])":"f8f1b6c9","isBlackList(address)":"b36d6919","isBuySellTaxEnabled()":"ab8b2f0d","isDeflationary()":"8e8c10a2","isExcludedFromTax(address)":"cb4ca631","isWhitelisted(address)":"3af32abf","lastUpdatedTaxTimestamp()":"760b7e38","liquidityLocked()":"57976fb4","lockLiquidity(uint256)":"2bfbd9cf","lockedLiquidityAmount()":"052c30bc","maxSupply()":"d5abeb01","maxTransactionAmount()":"c8c8ebe4","minTransactionAmount()":"17a5d4df","mint(address,uint256)":"40c10f19","name()":"06fdde03","owner()":"8da5cb5b","pause()":"8456cb59","paused()":"5c975abb","proposeOwnershipTransfer(address)":"21040fc3","proposedOwner()":"d153b60c","removeFromBlacklist(address)":"537df3b6","removeFromWhitelist(address)":"8ab1d681","removeVoter(address)":"86c1ff68","renounceOwnership()":"715018a6","router()":"f887ea40","setBurnableTax(uint256)":"2a32234f","setBuySellTaxRate(uint256)":"8f376fca","setDeflationary(bool)":"a30ff8b6","setGraduallyDecreasingInterval(uint256)":"553ba06c","setGraduallyDecreasingTax(uint256)":"d292059e","setGraduallyDecreasingTaxZero()":"eb60b83f","setIsExcludedFromTax(address)":"7884d888","setMaxTransferAmount(uint256)":"8bf55409","setMinTransactionAmount(uint256)":"bfed5ce3","setRouter(address)":"c0d78655","setTransferDelay(uint256)":"36e8c9b3","setUSDTAddress(address)":"55eba868","signers(address)":"736c0d5b","symbol()":"95d89b41","totalSupply()":"18160ddd","transfer(address,uint256)":"a9059cbb","transferAllowedAt()":"b5c43db4","transferDelay()":"0a702e8d","transferFrom(address,address,uint256)":"23b872dd","transferOwnership(address)":"f2fde38b","unfreezeWallet(address)":"60f588b7","unlockLiquidity(uint256)":"96e83924","unpause()":"3f4ba83a","updateGraduallyDecreasingTax()":"0b4d57f5","usdt()":"2f48ab7d","vestingInfo(address)":"f78e633d","voters(uint256)":"da58c7d9","withdrawDumpToken(address,address)":"99672158","withdrawEth(address)":"25e16063"}},"storageLayout":{"storage":[{"astId":139,"contract":"contracts/cgateToken.sol:CG8","label":"_initialized","offset":0,"slot":"0","type":"t_uint8"},{"astId":142,"contract":"contracts/cgateToken.sol:CG8","label":"_initializing","offset":1,"slot":"0","type":"t_bool"},{"astId":1675,"contract":"contracts/cgateToken.sol:CG8","label":"__gap","offset":0,"slot":"1","type":"t_array(t_uint256)50_storage"},{"astId":534,"contract":"contracts/cgateToken.sol:CG8","label":"_balances","offset":0,"slot":"51","type":"t_mapping(t_address,t_uint256)"},{"astId":540,"contract":"contracts/cgateToken.sol:CG8","label":"_allowances","offset":0,"slot":"52","type":"t_mapping(t_address,t_mapping(t_address,t_uint256))"},{"astId":542,"contract":"contracts/cgateToken.sol:CG8","label":"_totalSupply","offset":0,"slot":"53","type":"t_uint256"},{"astId":544,"contract":"contracts/cgateToken.sol:CG8","label":"_name","offset":0,"slot":"54","type":"t_string_storage"},{"astId":546,"contract":"contracts/cgateToken.sol:CG8","label":"_symbol","offset":0,"slot":"55","type":"t_string_storage"},{"astId":1126,"contract":"contracts/cgateToken.sol:CG8","label":"__gap","offset":0,"slot":"56","type":"t_array(t_uint256)45_storage"},{"astId":1269,"contract":"contracts/cgateToken.sol:CG8","label":"__gap","offset":0,"slot":"101","type":"t_array(t_uint256)50_storage"},{"astId":11,"contract":"contracts/cgateToken.sol:CG8","label":"_owner","offset":0,"slot":"151","type":"t_address"},{"astId":131,"contract":"contracts/cgateToken.sol:CG8","label":"__gap","offset":0,"slot":"152","type":"t_array(t_uint256)49_storage"},{"astId":323,"contract":"contracts/cgateToken.sol:CG8","label":"_paused","offset":0,"slot":"201","type":"t_bool"},{"astId":428,"contract":"contracts/cgateToken.sol:CG8","label":"__gap","offset":0,"slot":"202","type":"t_array(t_uint256)49_storage"},{"astId":444,"contract":"contracts/cgateToken.sol:CG8","label":"_status","offset":0,"slot":"251","type":"t_uint256"},{"astId":513,"contract":"contracts/cgateToken.sol:CG8","label":"__gap","offset":0,"slot":"252","type":"t_array(t_uint256)49_storage"},{"astId":5446,"contract":"contracts/cgateToken.sol:CG8","label":"proposedOwner","offset":0,"slot":"301","type":"t_address"},{"astId":5449,"contract":"contracts/cgateToken.sol:CG8","label":"voters","offset":0,"slot":"302","type":"t_array(t_address)dyn_storage"},{"astId":5453,"contract":"contracts/cgateToken.sol:CG8","label":"hasVoted","offset":0,"slot":"303","type":"t_mapping(t_address,t_bool)"},{"astId":5455,"contract":"contracts/cgateToken.sol:CG8","label":"_owner","offset":0,"slot":"304","type":"t_address"},{"astId":5457,"contract":"contracts/cgateToken.sol:CG8","label":"minTransactionAmount","offset":0,"slot":"305","type":"t_uint256"},{"astId":5459,"contract":"contracts/cgateToken.sol:CG8","label":"maxTransactionAmount","offset":0,"slot":"306","type":"t_uint256"},{"astId":5461,"contract":"contracts/cgateToken.sol:CG8","label":"transferDelay","offset":0,"slot":"307","type":"t_uint256"},{"astId":5463,"contract":"contracts/cgateToken.sol:CG8","label":"lockedLiquidityAmount","offset":0,"slot":"308","type":"t_uint256"},{"astId":5465,"contract":"contracts/cgateToken.sol:CG8","label":"liquidityLocked","offset":0,"slot":"309","type":"t_bool"},{"astId":5467,"contract":"contracts/cgateToken.sol:CG8","label":"isDeflationary","offset":1,"slot":"309","type":"t_bool"},{"astId":5471,"contract":"contracts/cgateToken.sol:CG8","label":"isExcludedFromTax","offset":0,"slot":"310","type":"t_mapping(t_address,t_bool)"},{"astId":5473,"contract":"contracts/cgateToken.sol:CG8","label":"burnableTax","offset":0,"slot":"311","type":"t_uint256"},{"astId":5475,"contract":"contracts/cgateToken.sol:CG8","label":"graduallyDecreasingTax","offset":0,"slot":"312","type":"t_uint256"},{"astId":5477,"contract":"contracts/cgateToken.sol:CG8","label":"buySellTaxRate","offset":0,"slot":"313","type":"t_uint256"},{"astId":5479,"contract":"contracts/cgateToken.sol:CG8","label":"decreasingTaxInterval","offset":0,"slot":"314","type":"t_uint256"},{"astId":5481,"contract":"contracts/cgateToken.sol:CG8","label":"lastUpdatedTaxTimestamp","offset":0,"slot":"315","type":"t_uint256"},{"astId":5483,"contract":"contracts/cgateToken.sol:CG8","label":"isBuySellTaxEnabled","offset":0,"slot":"316","type":"t_bool"},{"astId":5485,"contract":"contracts/cgateToken.sol:CG8","label":"usdt","offset":1,"slot":"316","type":"t_address"},{"astId":5502,"contract":"contracts/cgateToken.sol:CG8","label":"isBlacklisted","offset":0,"slot":"317","type":"t_mapping(t_address,t_bool)"},{"astId":5506,"contract":"contracts/cgateToken.sol:CG8","label":"_transferAllowedAt","offset":0,"slot":"318","type":"t_mapping(t_address,t_uint256)"},{"astId":5510,"contract":"contracts/cgateToken.sol:CG8","label":"_frozenWallets","offset":0,"slot":"319","type":"t_mapping(t_address,t_uint256)"},{"astId":5514,"contract":"contracts/cgateToken.sol:CG8","label":"_whitelistedWallets","offset":0,"slot":"320","type":"t_mapping(t_address,t_bool)"},{"astId":5518,"contract":"contracts/cgateToken.sol:CG8","label":"signers","offset":0,"slot":"321","type":"t_mapping(t_address,t_bool)"},{"astId":5523,"contract":"contracts/cgateToken.sol:CG8","label":"vestingInfo","offset":0,"slot":"322","type":"t_mapping(t_address,t_struct(Vesting)5498_storage)"},{"astId":5525,"contract":"contracts/cgateToken.sol:CG8","label":"router","offset":0,"slot":"323","type":"t_address"},{"astId":5527,"contract":"contracts/cgateToken.sol:CG8","label":"maxSupply","offset":0,"slot":"324","type":"t_uint256"}],"types":{"t_address":{"encoding":"inplace","label":"address","numberOfBytes":"20"},"t_array(t_address)dyn_storage":{"base":"t_address","encoding":"dynamic_array","label":"address[]","numberOfBytes":"32"},"t_array(t_uint256)45_storage":{"base":"t_uint256","encoding":"inplace","label":"uint256[45]","numberOfBytes":"1440"},"t_array(t_uint256)49_storage":{"base":"t_uint256","encoding":"inplace","label":"uint256[49]","numberOfBytes":"1568"},"t_array(t_uint256)50_storage":{"base":"t_uint256","encoding":"inplace","label":"uint256[50]","numberOfBytes":"1600"},"t_bool":{"encoding":"inplace","label":"bool","numberOfBytes":"1"},"t_mapping(t_address,t_bool)":{"encoding":"mapping","key":"t_address","label":"mapping(address => bool)","numberOfBytes":"32","value":"t_bool"},"t_mapping(t_address,t_mapping(t_address,t_uint256))":{"encoding":"mapping","key":"t_address","label":"mapping(address => mapping(address => uint256))","numberOfBytes":"32","value":"t_mapping(t_address,t_uint256)"},"t_mapping(t_address,t_struct(Vesting)5498_storage)":{"encoding":"mapping","key":"t_address","label":"mapping(address => struct CG8.Vesting)","numberOfBytes":"32","value":"t_struct(Vesting)5498_storage"},"t_mapping(t_address,t_uint256)":{"encoding":"mapping","key":"t_address","label":"mapping(address => uint256)","numberOfBytes":"32","value":"t_uint256"},"t_string_storage":{"encoding":"bytes","label":"string","numberOfBytes":"32"},"t_struct(Vesting)5498_storage":{"encoding":"inplace","label":"struct CG8.Vesting","members":[{"astId":5487,"contract":"contracts/cgateToken.sol:CG8","label":"amount","offset":0,"slot":"0","type":"t_uint256"},{"astId":5489,"contract":"contracts/cgateToken.sol:CG8","label":"beneficiary","offset":0,"slot":"1","type":"t_address"},{"astId":5491,"contract":"contracts/cgateToken.sol:CG8","label":"percentageOfTokensToBeReleased","offset":0,"slot":"2","type":"t_uint256"},{"astId":5493,"contract":"contracts/cgateToken.sol:CG8","label":"timeInterval","offset":0,"slot":"3","type":"t_uint256"},{"astId":5495,"contract":"contracts/cgateToken.sol:CG8","label":"lastWithdrawTimestamp","offset":0,"slot":"4","type":"t_uint256"},{"astId":5497,"contract":"contracts/cgateToken.sol:CG8","label":"claimedTokens","offset":0,"slot":"5","type":"t_uint256"}],"numberOfBytes":"192"},"t_uint256":{"encoding":"inplace","label":"uint256","numberOfBytes":"32"},"t_uint8":{"encoding":"inplace","label":"uint8","numberOfBytes":"1"}}}}}}