{"contracts/cgateStaking.sol":{"StakingPoolV3":{"abi":[{"anonymous":false,"inputs":[{"indexed":false,"internalType":"string","name":"message","type":"string"}],"name":"Error","type":"event"},{"anonymous":false,"inputs":[{"indexed":false,"internalType":"uint8","name":"version","type":"uint8"}],"name":"Initialized","type":"event"},{"anonymous":false,"inputs":[{"indexed":true,"internalType":"address","name":"newOwner","type":"address"}],"name":"OwnershipTransferProposed","type":"event"},{"anonymous":false,"inputs":[{"indexed":true,"internalType":"address","name":"voter","type":"address"},{"indexed":false,"internalType":"bool","name":"approve","type":"bool"}],"name":"VoteCasted","type":"event"},{"inputs":[],"name":"CG8_TOKEN_ADDRESS","outputs":[{"internalType":"address","name":"","type":"address"}],"stateMutability":"view","type":"function"},{"inputs":[],"name":"PANCAKE_FACTORY_ADDRESS","outputs":[{"internalType":"address","name":"","type":"address"}],"stateMutability":"view","type":"function"},{"inputs":[],"name":"PANCAKE_ROUTER_ADDRESS","outputs":[{"internalType":"address","name":"","type":"address"}],"stateMutability":"view","type":"function"},{"inputs":[],"name":"USDC_TOKEN_ADDRESS","outputs":[{"internalType":"address","name":"","type":"address"}],"stateMutability":"view","type":"function"},{"inputs":[],"name":"admin","outputs":[{"internalType":"address","name":"","type":"address"}],"stateMutability":"view","type":"function"},{"inputs":[],"name":"cancelOwnershipTransfer","outputs":[],"stateMutability":"nonpayable","type":"function"},{"inputs":[{"internalType":"bool","name":"approve","type":"bool"}],"name":"castVote","outputs":[],"stateMutability":"nonpayable","type":"function"},{"inputs":[{"internalType":"uint256","name":"poolId","type":"uint256"},{"internalType":"uint256","name":"stakeId","type":"uint256"}],"name":"claimIndividualReward","outputs":[{"internalType":"uint256","name":"","type":"uint256"}],"stateMutability":"nonpayable","type":"function"},{"inputs":[{"internalType":"uint256","name":"poolId","type":"uint256"}],"name":"claimReward","outputs":[],"stateMutability":"nonpayable","type":"function"},{"inputs":[{"internalType":"uint256","name":"_timePeriod","type":"uint256"},{"internalType":"address","name":"_stakeToken","type":"address"},{"internalType":"address","name":"_rewardToken","type":"address"},{"internalType":"uint256","name":"_rewardPercent","type":"uint256"},{"internalType":"uint256","name":"_referralRewardPercent","type":"uint256"}],"name":"createStakingPool","outputs":[],"stateMutability":"nonpayable","type":"function"},{"inputs":[],"name":"finalizeOwnershipTransfer","outputs":[],"stateMutability":"nonpayable","type":"function"},{"inputs":[],"name":"getCurrentCgatePrice","outputs":[{"internalType":"uint256","name":"","type":"uint256"}],"stateMutability":"view","type":"function"},{"inputs":[{"internalType":"address","name":"tokenA","type":"address"},{"internalType":"address","name":"tokenB","type":"address"}],"name":"getPair","outputs":[{"internalType":"address","name":"","type":"address"}],"stateMutability":"view","type":"function"},{"inputs":[{"internalType":"uint256","name":"poolId","type":"uint256"},{"internalType":"uint256","name":"stakeId","type":"uint256"},{"internalType":"address","name":"user","type":"address"}],"name":"getPendingReward","outputs":[{"internalType":"uint256","name":"","type":"uint256"}],"stateMutability":"view","type":"function"},{"inputs":[],"name":"getPrice","outputs":[{"internalType":"uint256","name":"","type":"uint256"}],"stateMutability":"view","type":"function"},{"inputs":[{"internalType":"address","name":"pair","type":"address"}],"name":"getReserves","outputs":[{"internalType":"uint112","name":"reserve0","type":"uint112"},{"internalType":"uint112","name":"reserve1","type":"uint112"}],"stateMutability":"view","type":"function"},{"inputs":[{"internalType":"uint256","name":"poolId","type":"uint256"},{"internalType":"address","name":"user","type":"address"}],"name":"getTotalPendingRewardsForPool","outputs":[{"internalType":"uint256","name":"","type":"uint256"}],"stateMutability":"view","type":"function"},{"inputs":[],"name":"getTotalPoolsCount","outputs":[{"internalType":"uint256","name":"","type":"uint256"}],"stateMutability":"view","type":"function"},{"inputs":[{"internalType":"address","name":"","type":"address"}],"name":"hasVoted","outputs":[{"internalType":"bool","name":"","type":"bool"}],"stateMutability":"view","type":"function"},{"inputs":[{"internalType":"address[]","name":"_initialVoters","type":"address[]"}],"name":"initialize","outputs":[],"stateMutability":"nonpayable","type":"function"},{"inputs":[],"name":"poolAddress","outputs":[{"internalType":"address","name":"","type":"address"}],"stateMutability":"view","type":"function"},{"inputs":[{"internalType":"uint256","name":"","type":"uint256"}],"name":"pools","outputs":[{"internalType":"uint256","name":"timePeriod","type":"uint256"},{"internalType":"address","name":"stakeToken","type":"address"},{"internalType":"address","name":"rewardToken","type":"address"},{"internalType":"uint256","name":"rewardPercentPerStakedTokenPerYear","type":"uint256"},{"internalType":"uint256","name":"referralRewardPercent","type":"uint256"},{"internalType":"bool","name":"isActive","type":"bool"},{"internalType":"uint256","name":"totalStakes","type":"uint256"}],"stateMutability":"view","type":"function"},{"inputs":[{"internalType":"address","name":"newOwner","type":"address"}],"name":"proposeOwnershipTransfer","outputs":[],"stateMutability":"nonpayable","type":"function"},{"inputs":[],"name":"proposedOwner","outputs":[{"internalType":"address","name":"","type":"address"}],"stateMutability":"view","type":"function"},{"inputs":[{"internalType":"address","name":"","type":"address"}],"name":"referrers","outputs":[{"internalType":"address","name":"","type":"address"}],"stateMutability":"view","type":"function"},{"inputs":[{"internalType":"address","name":"newAdmin","type":"address"}],"name":"setAdmin","outputs":[],"stateMutability":"nonpayable","type":"function"},{"inputs":[{"internalType":"address","name":"_cg8Address","type":"address"}],"name":"setCg8Address","outputs":[],"stateMutability":"nonpayable","type":"function"},{"inputs":[{"internalType":"address","name":"_factory","type":"address"}],"name":"setFactory","outputs":[],"stateMutability":"nonpayable","type":"function"},{"inputs":[{"internalType":"address","name":"_poolAddress","type":"address"}],"name":"setPoolAddress","outputs":[],"stateMutability":"nonpayable","type":"function"},{"inputs":[{"internalType":"uint256","name":"poolId","type":"uint256"},{"internalType":"uint256","name":"newPercentInBIPS","type":"uint256"}],"name":"setReferralRewardPercent","outputs":[],"stateMutability":"nonpayable","type":"function"},{"inputs":[{"internalType":"uint256","name":"poolId","type":"uint256"},{"internalType":"uint256","name":"_newRewardPercentInBIPS","type":"uint256"}],"name":"setRewardPercent","outputs":[],"stateMutability":"nonpayable","type":"function"},{"inputs":[{"internalType":"uint256","name":"poolId","type":"uint256"},{"internalType":"address","name":"_newRewardToken","type":"address"}],"name":"setRewardToken","outputs":[],"stateMutability":"nonpayable","type":"function"},{"inputs":[{"internalType":"address","name":"_router","type":"address"}],"name":"setRouter","outputs":[],"stateMutability":"nonpayable","type":"function"},{"inputs":[{"internalType":"address","name":"_referrer","type":"address"},{"internalType":"uint256","name":"_percentInBIPS","type":"uint256"}],"name":"setSpecialReferrerRewardPercent","outputs":[],"stateMutability":"nonpayable","type":"function"},{"inputs":[{"internalType":"uint256","name":"poolId","type":"uint256"},{"internalType":"uint256","name":"_newTimePeriod","type":"uint256"}],"name":"setTimePeriod","outputs":[],"stateMutability":"nonpayable","type":"function"},{"inputs":[{"internalType":"address","name":"_usdcAddress","type":"address"}],"name":"setUSDCAddress","outputs":[],"stateMutability":"nonpayable","type":"function"},{"inputs":[{"internalType":"address","name":"","type":"address"}],"name":"signers","outputs":[{"internalType":"bool","name":"","type":"bool"}],"stateMutability":"view","type":"function"},{"inputs":[{"internalType":"address","name":"","type":"address"}],"name":"specialReferrersPercents","outputs":[{"internalType":"uint256","name":"","type":"uint256"}],"stateMutability":"view","type":"function"},{"inputs":[{"internalType":"uint256","name":"poolId","type":"uint256"},{"internalType":"uint256","name":"_amount","type":"uint256"},{"internalType":"address","name":"referrer","type":"address"}],"name":"stake","outputs":[],"stateMutability":"nonpayable","type":"function"},{"inputs":[{"internalType":"uint256","name":"poolId","type":"uint256"}],"name":"togglePoolStatus","outputs":[],"stateMutability":"nonpayable","type":"function"},{"inputs":[{"internalType":"address","name":"user","type":"address"},{"internalType":"uint256","name":"poolId","type":"uint256"}],"name":"totalStakeCount","outputs":[{"internalType":"uint256","name":"count","type":"uint256"}],"stateMutability":"view","type":"function"},{"inputs":[{"internalType":"address","name":"user","type":"address"},{"internalType":"uint256","name":"poolId","type":"uint256"}],"name":"totalUnstakeAllowed","outputs":[{"internalType":"uint256","name":"totalWithdrawable","type":"uint256"}],"stateMutability":"view","type":"function"},{"inputs":[{"internalType":"uint256","name":"poolId","type":"uint256"}],"name":"unStake","outputs":[],"stateMutability":"nonpayable","type":"function"},{"inputs":[{"internalType":"uint256","name":"poolId","type":"uint256"},{"internalType":"uint256","name":"_stakeId","type":"uint256"}],"name":"unStakeIndividual","outputs":[],"stateMutability":"nonpayable","type":"function"},{"inputs":[{"internalType":"uint256","name":"newPrice","type":"uint256"}],"name":"updateCurrentCgatePrice","outputs":[],"stateMutability":"nonpayable","type":"function"},{"inputs":[{"internalType":"address","name":"","type":"address"},{"internalType":"uint256","name":"","type":"uint256"},{"internalType":"uint256","name":"","type":"uint256"}],"name":"userStakes","outputs":[{"internalType":"uint256","name":"amount","type":"uint256"},{"internalType":"uint256","name":"lastWithdrawTimestamp","type":"uint256"},{"internalType":"uint256","name":"rewardWithdrawnTillNow","type":"uint256"},{"internalType":"uint256","name":"stakeTime","type":"uint256"},{"internalType":"address","name":"referrer","type":"address"},{"internalType":"uint256","name":"depositedValueInDollars","type":"uint256"}],"stateMutability":"view","type":"function"},{"inputs":[{"internalType":"address","name":"","type":"address"}],"name":"users","outputs":[{"internalType":"uint256","name":"totalStaked","type":"uint256"},{"internalType":"uint256","name":"activeStakes","type":"uint256"},{"internalType":"uint256","name":"totalRewardWithdrawnTillNow","type":"uint256"},{"internalType":"uint256","name":"referralIncomeWithdrawnTillNow","type":"uint256"},{"internalType":"uint256","name":"totalReferrers","type":"uint256"}],"stateMutability":"view","type":"function"},{"inputs":[{"internalType":"address","name":"","type":"address"},{"internalType":"uint256","name":"","type":"uint256"}],"name":"usersStakesPerPool","outputs":[{"internalType":"uint256","name":"","type":"uint256"}],"stateMutability":"view","type":"function"},{"inputs":[{"internalType":"uint256","name":"","type":"uint256"}],"name":"voters","outputs":[{"internalType":"address","name":"","type":"address"}],"stateMutability":"view","type":"function"},{"inputs":[{"internalType":"address","name":"receiver","type":"address"},{"internalType":"contract IERC20","name":"_token","type":"address"}],"name":"withdrawDumpToken","outputs":[],"stateMutability":"nonpayable","type":"function"},{"inputs":[{"internalType":"address payable","name":"_receiver","type":"address"}],"name":"withdrawEth","outputs":[],"stateMutability":"nonpayable","type":"function"}],"evm":{"bytecode":{"linkReferences":{},"object":"608060405234801561001057600080fd5b50613d35806100206000396000f3fe608060405234801561001057600080fd5b50600436106103415760003560e01c806399672158116101bd578063c0d78655116100f9578063dbe4a261116100a2578063e9e15b4f1161007c578063e9e15b4f1461085e578063f851a44014610871578063fa8f683e14610884578063fb58d2cf146108ba57600080fd5b8063dbe4a26114610818578063e6a439051461082b578063e7ee12331461083e57600080fd5b8063c79bdb46116100d3578063c79bdb46146107df578063d153b60c146107f2578063da58c7d91461080557600080fd5b8063c0d78655146107a6578063c114fcfa146107b9578063c57830cd146107cc57600080fd5b8063ae169a5011610166578063b820a1cd11610140578063b820a1cd14610765578063bdd13d4a14610778578063bf2ce8081461078b578063bf41c2a41461079e57600080fd5b8063ae169a5014610714578063b3d673d814610727578063b401cdca1461073a57600080fd5b8063a87430ba11610197578063a87430ba146105fe578063aaf5bfc314610663578063ac4afa381461067657600080fd5b806399672158146105c55780639dda7fee146105d8578063a224cee7146105eb57600080fd5b8063509173a11161028c578063736c0d5b116102355780637ade26421161020f5780637ade26421461059a5780637b542a2a146105a2578063855c5d46146105b557806398d5fdca146105bd57600080fd5b8063736c0d5b146105515780637628a37d146105745780637ace48e71461058757600080fd5b80635d3eea91116102665780635d3eea91146105185780636b38e0491461052b578063704b6c021461053e57600080fd5b8063509173a1146104df57806357a8773e146104f25780635bb478081461050557600080fd5b806325e16063116102ee57806334144b0f116102c857806334144b0f146104335780633e99c1e41461047c5780634a3b68cc146104b657600080fd5b806325e16063146103ec57806328ac7c51146103ff57806329a166161461041257600080fd5b806321040fc31161031f57806321040fc3146103be578063216b31c1146103d157806323452b9c146103e457600080fd5b8063047ac00e1461034657806309eef43e1461035b5780631755ff2114610393575b600080fd5b61035961035436600461370d565b6108cd565b005b61037e610369366004613754565b60396020526000908152604090205460ff1681565b60405190151581526020015b60405180910390f35b6045546103a6906001600160a01b031681565b6040516001600160a01b03909116815260200161038a565b6103596103cc366004613754565b610b88565b6103596103df366004613771565b610c7a565b610359610d31565b6103596103fa366004613754565b610e02565b603a546103a6906001600160a01b031681565b61042561042036600461378a565b610ef1565b60405190815260200161038a565b6104466104413660046137c3565b6110b2565b6040805196875260208701959095529385019290925260608401526001600160a01b0316608083015260a082015260c00161038a565b61048f61048a366004613754565b61111c565b604080516dffffffffffffffffffffffffffff93841681529290911660208301520161038a565b6103a66104c4366004613754565b6040602081905260009182529020546001600160a01b031681565b603d546103a6906001600160a01b031681565b610359610500366004613754565b611191565b610359610513366004613754565b611205565b610359610526366004613771565b611279565b61042561053936600461370d565b611567565b61035961054c366004613754565b611963565b61037e61055f366004613754565b60446020526000908152604090205460ff1681565b61035961058236600461378a565b6119d7565b610359610595366004613806565b611e1c565b610425611f2a565b6103596105b0366004613771565b61202c565b603454610425565b610425612083565b6103596105d3366004613823565b612149565b6104256105e636600461385c565b6122c3565b6103596105f936600461389e565b6123f3565b61063b61060c366004613754565b604260205260009081526040902080546001820154600283015460038401546004909401549293919290919085565b604080519586526020860194909452928401919091526060830152608082015260a00161038a565b610359610671366004613754565b612620565b6106d1610684366004613771565b603e60205260009081526040902080546001820154600283015460038401546004850154600586015460069096015494956001600160a01b039485169593909416939192909160ff169087565b604080519788526001600160a01b039687166020890152949095169386019390935260608501919091526080840152151560a083015260c082015260e00161038a565b610359610722366004613771565b612694565b603c546103a6906001600160a01b031681565b61042561074836600461385c565b604360209081526000928352604080842090915290825290205481565b61035961077336600461370d565b612ad0565b610359610786366004613963565b612c1f565b61035961079936600461370d565b612d96565b610359612e98565b6103596107b4366004613754565b613042565b6104256107c7366004613963565b6130b6565b603b546103a6906001600160a01b031681565b6103596107ed36600461370d565b61310f565b6037546103a6906001600160a01b031681565b6103a6610813366004613771565b613271565b61035961082636600461385c565b61329b565b6103a6610839366004613823565b613309565b61042561084c366004613754565b60416020526000908152604090205481565b61035961086c366004613754565b6133a4565b6033546103a6906001600160a01b031681565b61042561089236600461385c565b6001600160a01b03919091166000908152603f60209081526040808320938352929052205490565b6103596108c8366004613988565b613418565b8160345481106109135760405162461bcd60e51b815260206004820152600c60248201526b125b9d985b1a5908141bdbdb60a21b60448201526064015b60405180910390fd5b6000838152603e6020526040902060050154839060ff1661096b5760405162461bcd60e51b8152602060048201526012602482015271506f6f6c204973204e6f742041637469766560701b604482015260640161090a565b336000908152603f602090815260408083208784529091528120805485908110610997576109976139da565b60009182526020808320888452603e9091526040909220600690910290910191508054600383015442916109ca91613a06565b811015610a195760405162461bcd60e51b815260206004820152601660248201527f54696d6520706572696f64206e6f742070617373656400000000000000000000604482015260640161090a565b610a238787611567565b506001838101829055820154835460405163a9059cbb60e01b815233600482015260248101919091526001600160a01b039091169063a9059cbb906044016020604051808303816000875af1158015610a80573d6000803e3d6000fd5b505050506040513d601f19601f82011682018060405250810190610aa49190613a19565b610af05760405162461bcd60e51b815260206004820152601c60248201527f5374616b656420746f6b656e207472616e73666572206661696c656400000000604482015260640161090a565b82543360009081526042602052604081206001018054909190610b14908490613a36565b909155505082543360009081526043602090815260408083208b845290915281208054909190610b45908490613a36565b909155505082546000888152603e602052604081206006018054909190610b6d908490613a36565b90915550506000808455600590930192909255505050505050565b6033546001600160a01b03163314610bda5760405162461bcd60e51b81526020600482015260216024820152600080516020613ce08339815191526044820152603760f91b606482015260840161090a565b6001600160a01b038116610c305760405162461bcd60e51b815260206004820181905260248201527f4e6577206f776e65722063616e6e6f74206265207a65726f2061646472657373604482015260640161090a565b603780546001600160a01b0319166001600160a01b0383169081179091556040517ff0c6916d81cd1f899264b5193e3bbe7afd2bcc3d05704bab73d0b8ac9387115890600090a250565b6033546001600160a01b03163314610ccc5760405162461bcd60e51b81526020600482015260216024820152600080516020613ce08339815191526044820152603760f91b606482015260840161090a565b806034548110610d0d5760405162461bcd60e51b815260206004820152600c60248201526b125b9d985b1a5908141bdbdb60a21b604482015260640161090a565b506000908152603e60205260409020600501805460ff19811660ff90911615179055565b6033546001600160a01b03163314610d835760405162461bcd60e51b81526020600482015260216024820152600080516020613ce08339815191526044820152603760f91b606482015260840161090a565b603780546001600160a01b031916905560005b603854811015610dff5760006039600060388481548110610db957610db96139da565b6000918252602080832091909101546001600160a01b031683528201929092526040019020805460ff191691151591909117905580610df781613a49565b915050610d96565b50565b6033546001600160a01b03163314610e545760405162461bcd60e51b81526020600482015260216024820152600080516020613ce08339815191526044820152603760f91b606482015260840161090a565b610e5c613541565b6001600160a01b038116610eb25760405162461bcd60e51b815260206004820152600f60248201527f496e76616c696420616464726573730000000000000000000000000000000000604482015260640161090a565b6040516001600160a01b038216904780156108fc02916000818181858888f19350505050158015610ee7573d6000803e3d6000fd5b50610dff60018055565b6000836034548110610f345760405162461bcd60e51b815260206004820152600c60248201526b125b9d985b1a5908141bdbdb60a21b604482015260640161090a565b6000858152603e6020526040902060050154859060ff16610f8c5760405162461bcd60e51b8152602060048201526012602482015271506f6f6c204973204e6f742041637469766560701b604482015260640161090a565b6001600160a01b0384166000908152603f602090815260408083208984529091529020548510610ffe5760405162461bcd60e51b815260206004820152600f60248201527f55736572204e6f74205374616b65640000000000000000000000000000000000604482015260640161090a565b6001600160a01b0384166000908152603f602090815260408083208984529091528120805487908110611033576110336139da565b600091825260208083208a8452603e90915260408320600692909202016001810154909350909142916110669083613a36565b9050600060355461271085600301548488600501546110859190613a62565b61108f9190613a62565b6110999190613a79565b6110a39190613a79565b9b9a5050505050505050505050565b603f60205282600052604060002060205281600052604060002081815481106110da57600080fd5b60009182526020909120600690910201805460018201546002830154600384015460048501546005909501549397509195509350916001600160a01b03169086565b600080600080846001600160a01b0316630902f1ac6040518163ffffffff1660e01b8152600401606060405180830381865afa158015611160573d6000803e3d6000fd5b505050506040513d601f19601f820116820180604052508101906111849190613ab9565b5090969095509350505050565b6033546001600160a01b031633146111e35760405162461bcd60e51b81526020600482015260216024820152600080516020613ce08339815191526044820152603760f91b606482015260840161090a565b603b80546001600160a01b0319166001600160a01b0392909216919091179055565b6033546001600160a01b031633146112575760405162461bcd60e51b81526020600482015260216024820152600080516020613ce08339815191526044820152603760f91b606482015260840161090a565b603d80546001600160a01b0319166001600160a01b0392909216919091179055565b8060345481106112ba5760405162461bcd60e51b815260206004820152600c60248201526b125b9d985b1a5908141bdbdb60a21b604482015260640161090a565b6000828152603e6020526040902060050154829060ff166113125760405162461bcd60e51b8152602060048201526012602482015271506f6f6c204973204e6f742041637469766560701b604482015260640161090a565b6000838152603e60205260408120815b336000908152603f6020908152604080832089845290915290205481101561144057336000908152603f602090815260408083208984529091528120805483908110611370576113706139da565b906000526020600020906006020190506000429050836000015482600301546113999190613a06565b811061142b5781546113ab9086613a06565b94506113b78884611567565b50600080835560018301829055338152603f602090815260408083208b845290915290208054849081106113ed576113ed6139da565b6000918252602082206006909102018181556001810182905560028101829055600381018290556004810180546001600160a01b0319169055600501555b5050808061143890613a49565b915050611322565b503360009081526042602052604081206001018054849290611463908490613a36565b909155505033600090815260436020908152604080832088845290915281208054849290611492908490613a36565b9091555050811561156057600181015460405163a9059cbb60e01b8152336004820152602481018490526001600160a01b039091169063a9059cbb906044016020604051808303816000875af11580156114f0573d6000803e3d6000fd5b505050506040513d601f19601f820116820180604052508101906115149190613a19565b6115605760405162461bcd60e51b815260206004820152601c60248201527f5374616b656420746f6b656e207472616e73666572206661696c656400000000604482015260640161090a565b5050505050565b60008260345481106115aa5760405162461bcd60e51b815260206004820152600c60248201526b125b9d985b1a5908141bdbdb60a21b604482015260640161090a565b6000848152603e6020526040902060050154849060ff166116025760405162461bcd60e51b8152602060048201526012602482015271506f6f6c204973204e6f742041637469766560701b604482015260640161090a565b336000908152603f60209081526040808320888452909152812080548690811061162e5761162e6139da565b60009182526020808320898452603e9091526040832060069092020180549093509091036116615760009450505061195b565b42600061166f898933610ef1565b9050801561195657600283015460405163a9059cbb60e01b8152336004820152602481018390526001600160a01b039091169063a9059cbb906044016020604051808303816000875af11580156116ca573d6000803e3d6000fd5b505050506040513d601f19601f820116820180604052508101906116ee9190613a19565b61173a5760405162461bcd60e51b815260206004820152601660248201527f526577617264207472616e73666572206661696c656400000000000000000000604482015260640161090a565b60048401546001600160a01b03161561190657600480840154908501546001600160a01b031660009081526041602052604090205415611793575060048401546001600160a01b03166000908152604160205260409020545b60006127106117a28385613a62565b6117ac9190613a79565b11156118b957600284015460048601546001600160a01b039182169163a9059cbb91166127106117dc8587613a62565b6117e69190613a79565b6040517fffffffff0000000000000000000000000000000000000000000000000000000060e085901b1681526001600160a01b03909216600483015260248201526044016020604051808303816000875af1158015611849573d6000803e3d6000fd5b505050506040513d601f19601f8201168201806040525081019061186d9190613a19565b6118b95760405162461bcd60e51b815260206004820152601f60248201527f526566657272616c20526577617264207472616e73666572206661696c656400604482015260640161090a565b6127106118c68284613a62565b6118d09190613a79565b60048601546001600160a01b0316600090815260426020526040812060030180549091906118ff908490613a06565b9091555050505b3360009081526042602052604081206002018054839290611928908490613a06565b92505081905550808460020160008282546119439190613a06565b909155505060019093015550925061195b565b505050505b505092915050565b6033546001600160a01b031633146119b55760405162461bcd60e51b81526020600482015260216024820152600080516020613ce08339815191526044820152603760f91b606482015260840161090a565b603380546001600160a01b0319166001600160a01b0392909216919091179055565b826034548110611a185760405162461bcd60e51b815260206004820152600c60248201526b125b9d985b1a5908141bdbdb60a21b604482015260640161090a565b6000848152603e6020526040902060050154849060ff16611a705760405162461bcd60e51b8152602060048201526012602482015271506f6f6c204973204e6f742041637469766560701b604482015260640161090a565b60008411611ac05760405162461bcd60e51b815260206004820152601d60248201527f416d6f756e74206d7573742062652067726561746572207468616e2030000000604482015260640161090a565b6001600160a01b0383163303611b185760405162461bcd60e51b815260206004820152601860248201527f596f752063616e277420726566657220796f757273656c660000000000000000604482015260640161090a565b6000858152603e602052604090819020600181015491517f23b872dd0000000000000000000000000000000000000000000000000000000081523360048201523060248201526044810187905290916001600160a01b0316906323b872dd906064016020604051808303816000875af1158015611b99573d6000803e3d6000fd5b505050506040513d601f19601f82011682018060405250810190611bbd9190613a19565b611c095760405162461bcd60e51b815260206004820152601560248201527f546f6b656e207472616e73666572206661696c65640000000000000000000000604482015260640161090a565b336000908152603f602090815260408083208984528252808320815160c081018352898152429381018490529182019390935260608101919091526001600160a01b038616608082015260a08101670de0b6b3a7640000611c68612083565b611c72908a613a62565b611c7c9190613a79565b90528154600180820184556000938452602080852084516006948502909101908155848201519281019290925560408085015160028401556060850151600384015560808501516004840180546001600160a01b0319166001600160a01b0390921691909117905560a090940151600590920191909155898452603e9052908220018054879290611d0e908490613a06565b90915550506040805160a081018252336000908152604260205291909120548190611d3a908890613a06565b815233600090815260426020908152604090912060010154910190611d60908890613a06565b815233600081815260426020818152604080842060028101805484890152600382018054848a0152606098890187905296865293835287518155878301516001820155878201519093559486015190935560809094015160049094019390935560438152818320898452905281208054879290611dde908490613a06565b90915550506001600160a01b0384166000908152604260205260408120600401805460019290611e0f908490613a06565b9091555050505050505050565b611e25336135a0565b611e715760405162461bcd60e51b815260206004820152601160248201527f4e6f7420612076616c696420766f746572000000000000000000000000000000604482015260640161090a565b3360009081526039602052604090205460ff1615611ed15760405162461bcd60e51b815260206004820152600d60248201527f416c726561647920766f74656400000000000000000000000000000000000000604482015260640161090a565b3360008181526039602052604090819020805460ff19166001179055517fa4861c5510bfa99706ed508d728f9c6b365ff27af1a3012e21980952ad2d844f90611f1f90841515815260200190565b60405180910390a250565b603b54603c546000918291611f4b916001600160a01b039081169116613309565b90506001600160a01b038116611f6357600091505090565b600080611f6f8361111c565b603a546040517f85f8c259000000000000000000000000000000000000000000000000000000008152670de0b6b3a764000060048201526dffffffffffffffffffffffffffff8084166024830152841660448201529294509092506000916001600160a01b03909116906385f8c25990606401602060405180830381865afa158015611fff573d6000803e3d6000fd5b505050506040513d601f19601f820116820180604052508101906120239190613afe565b95945050505050565b6033546001600160a01b0316331461207e5760405162461bcd60e51b81526020600482015260216024820152600080516020613ce08339815191526044820152603760f91b606482015260840161090a565b603655565b604554604080517f3850c7bd00000000000000000000000000000000000000000000000000000000815290516000926001600160a01b03169183918391633850c7bd9160048083019260e09291908290030181865afa1580156120ea573d6000803e3d6000fd5b505050506040513d601f19601f8201168201806040525081019061210e9190613b29565b505050505050905060c06002826001600160a01b031661212e9190613cac565b61214090670de0b6b3a7640000613a62565b901c9250505090565b6033546001600160a01b0316331461219b5760405162461bcd60e51b81526020600482015260216024820152600080516020613ce08339815191526044820152603760f91b606482015260840161090a565b6121a3613541565b6040517f70a082310000000000000000000000000000000000000000000000000000000081523060048201526001600160a01b0382169063a9059cbb90849083906370a0823190602401602060405180830381865afa15801561220a573d6000803e3d6000fd5b505050506040513d601f19601f8201168201806040525081019061222e9190613afe565b6040517fffffffff0000000000000000000000000000000000000000000000000000000060e085901b1681526001600160a01b03909216600483015260248201526044016020604051808303816000875af1158015612291573d6000803e3d6000fd5b505050506040513d601f19601f820116820180604052508101906122b59190613a19565b506122bf60018055565b5050565b6001600160a01b03821660009081526043602090815260408083208484529091528120548190156123ea5760005b6001600160a01b0385166000908152603f602090815260408083208784529091529020548110156123e8576000848152603e60209081526040808320546001600160a01b0389168452603f835281842088855290925290912080544292919084908110612360576123606139da565b90600052602060002090600602016003015461237c9190613a06565b116123d6576001600160a01b0385166000908152603f6020908152604080832087845290915290208054829081106123b6576123b66139da565b906000526020600020906006020160000154826123d39190613a06565b91505b806123e081613a49565b9150506122f1565b505b90505b92915050565b600054610100900460ff16158080156124135750600054600160ff909116105b8061242d5750303b15801561242d575060005460ff166001145b61249f5760405162461bcd60e51b815260206004820152602e60248201527f496e697469616c697a61626c653a20636f6e747261637420697320616c72656160448201527f647920696e697469616c697a6564000000000000000000000000000000000000606482015260840161090a565b6000805460ff1916600117905580156124c2576000805461ff0019166101001790555b6124ca613609565b603380546001600160a01b031990811633179091556301e1338060355564e8d4a51000603655603a80548216739ac64cc6e4415144c455bd8e4837fea55603e5c3179055603b80548216739f7b09eb38ed912ab5932dccad0b1f501abfe6fd179055603c8054821673d1fac5ff5d03b70d3383909692d09fc6d97c8219179055603d805490911673b7926c0430afb07aa7defde6da862ae0bde767bc17905560005b82518110156125d6576038838281518110612589576125896139da565b60209081029190910181015182546001810184556000938452919092200180546001600160a01b0319166001600160a01b03909216919091179055806125ce81613a49565b91505061256c565b5080156122bf576000805461ff0019169055604051600181527f7f26b83ff96e1f2b6a682f133852f6798a09c465da95921460cefb38474024989060200160405180910390a15050565b6033546001600160a01b031633146126725760405162461bcd60e51b81526020600482015260216024820152600080516020613ce08339815191526044820152603760f91b606482015260840161090a565b603c80546001600160a01b0319166001600160a01b0392909216919091179055565b8060345481106126d55760405162461bcd60e51b815260206004820152600c60248201526b125b9d985b1a5908141bdbdb60a21b604482015260640161090a565b6126dd613541565b6000828152603e6020526040902060050154829060ff166127355760405162461bcd60e51b8152602060048201526012602482015271506f6f6c204973204e6f742041637469766560701b604482015260640161090a565b6000838152603e6020526040812090805b336000908152603f602090815260408083208984529091529020548110156129fa57336000908152603f602090815260408083208984529091528120805483908110612794576127946139da565b906000526020600020906006020190506000816000015411156129e7574260006127bf898533610ef1565b60048401549091506001600160a01b03161561298f57600480870154908401546001600160a01b03166000908152604160205260409020541561281b575060048301546001600160a01b03166000908152604160205260409020545b600061271061282a8385613a62565b6128349190613a79565b111561298d57600287015460048501546001600160a01b039182169163a9059cbb91166127106128648587613a62565b61286e9190613a79565b6040517fffffffff0000000000000000000000000000000000000000000000000000000060e085901b1681526001600160a01b03909216600483015260248201526044016020604051808303816000875af11580156128d1573d6000803e3d6000fd5b505050506040513d601f19601f820116820180604052508101906128f59190613a19565b6129415760405162461bcd60e51b815260206004820152601f60248201527f526566657272616c20526577617264207472616e73666572206661696c656400604482015260640161090a565b61271061294e8284613a62565b6129589190613a79565b60048501546001600160a01b031660009081526042602052604081206003018054909190612987908490613a06565b90915550505b505b33600090815260426020526040812060020180548392906129b1908490613a06565b92505081905550808360020160008282546129cc9190613a06565b9091555050600183018290556129e28186613a06565b945050505b50806129f281613a49565b915050612746565b508015612ac457600282015460405163a9059cbb60e01b8152336004820152602481018390526001600160a01b039091169063a9059cbb906044016020604051808303816000875af1158015612a54573d6000803e3d6000fd5b505050506040513d601f19601f82011682018060405250810190612a789190613a19565b612ac45760405162461bcd60e51b815260206004820152601660248201527f526577617264207472616e73666572206661696c656400000000000000000000604482015260640161090a565b5050506122bf60018055565b6033546001600160a01b03163314612b225760405162461bcd60e51b81526020600482015260216024820152600080516020613ce08339815191526044820152603760f91b606482015260840161090a565b816034548110612b635760405162461bcd60e51b815260206004820152600c60248201526b125b9d985b1a5908141bdbdb60a21b604482015260640161090a565b6000838152603e6020526040902060050154839060ff16612bbb5760405162461bcd60e51b8152602060048201526012602482015271506f6f6c204973204e6f742041637469766560701b604482015260640161090a565b600084118015612bcd57506034548411155b612c0b5760405162461bcd60e51b815260206004820152600f60248201526e125b9d985b1a59081c1bdbdb081251608a1b604482015260640161090a565b50506000918252603e602052604090912055565b6033546001600160a01b03163314612c715760405162461bcd60e51b81526020600482015260216024820152600080516020613ce08339815191526044820152603760f91b606482015260840161090a565b612c79613541565b816034548110612cba5760405162461bcd60e51b815260206004820152600c60248201526b125b9d985b1a5908141bdbdb60a21b604482015260640161090a565b6000838152603e6020526040902060050154839060ff16612d125760405162461bcd60e51b8152602060048201526012602482015271506f6f6c204973204e6f742041637469766560701b604482015260640161090a565b600084118015612d2457506034548411155b612d625760405162461bcd60e51b815260206004820152600f60248201526e125b9d985b1a59081c1bdbdb081251608a1b604482015260640161090a565b50506000828152603e6020526040902060020180546001600160a01b0319166001600160a01b038316179055600180555050565b6033546001600160a01b03163314612de85760405162461bcd60e51b81526020600482015260216024820152600080516020613ce08339815191526044820152603760f91b606482015260840161090a565b816034548110612e295760405162461bcd60e51b815260206004820152600c60248201526b125b9d985b1a5908141bdbdb60a21b604482015260640161090a565b6000838152603e6020526040902060050154839060ff16612e815760405162461bcd60e51b8152602060048201526012602482015271506f6f6c204973204e6f742041637469766560701b604482015260640161090a565b50506000918252603e602052604090912060040155565b6033546001600160a01b03163314612eea5760405162461bcd60e51b81526020600482015260216024820152600080516020613ce08339815191526044820152603760f91b606482015260840161090a565b603854600090815b81811015612f5e576039600060388381548110612f1157612f116139da565b60009182526020808320909101546001600160a01b0316835282019290925260400190205460ff1615612f4c5782612f4881613a49565b9350505b80612f5681613a49565b915050612ef2565b5081811480612faf5760405162461bcd60e51b815260206004820152601660248201527f496e73756666696369656e7420617070726f76616c7300000000000000000000604482015260640161090a565b60378054603380546001600160a01b0383166001600160a01b0319918216811790925590911690915560005b838110156115605760006039600060388481548110612ffc57612ffc6139da565b6000918252602080832091909101546001600160a01b031683528201929092526040019020805460ff19169115159190911790558061303a81613a49565b915050612fdb565b6033546001600160a01b031633146130945760405162461bcd60e51b81526020600482015260216024820152600080516020613ce08339815191526044820152603760f91b606482015260840161090a565b603a80546001600160a01b0319166001600160a01b0392909216919091179055565b600080805b6001600160a01b0384166000908152603f602090815260408083208884529091529020548110156123e8576130f1858286610ef1565b6130fb9083613a06565b91508061310781613a49565b9150506130bb565b6033546001600160a01b031633146131615760405162461bcd60e51b81526020600482015260216024820152600080516020613ce08339815191526044820152603760f91b606482015260840161090a565b613169613541565b8160345481106131aa5760405162461bcd60e51b815260206004820152600c60248201526b125b9d985b1a5908141bdbdb60a21b604482015260640161090a565b6000838152603e6020526040902060050154839060ff166132025760405162461bcd60e51b8152602060048201526012602482015271506f6f6c204973204e6f742041637469766560701b604482015260640161090a565b60008411801561321457506034548411155b6132525760405162461bcd60e51b815260206004820152600f60248201526e125b9d985b1a59081c1bdbdb081251608a1b604482015260640161090a565b50506000828152603e602052604090206003018190556122bf60018055565b6038818154811061328157600080fd5b6000918252602090912001546001600160a01b0316905081565b6033546001600160a01b031633146132ed5760405162461bcd60e51b81526020600482015260216024820152600080516020613ce08339815191526044820152603760f91b606482015260840161090a565b6001600160a01b03909116600090815260416020526040902055565b603d546040517fe6a439050000000000000000000000000000000000000000000000000000000081526001600160a01b0384811660048301528381166024830152600092839291169063e6a4390590604401602060405180830381865afa158015613378573d6000803e3d6000fd5b505050506040513d601f19601f8201168201806040525081019061339c9190613cc2565b949350505050565b6033546001600160a01b031633146133f65760405162461bcd60e51b81526020600482015260216024820152600080516020613ce08339815191526044820152603760f91b606482015260840161090a565b604580546001600160a01b0319166001600160a01b0392909216919091179055565b6033546001600160a01b0316331461346a5760405162461bcd60e51b81526020600482015260216024820152600080516020613ce08339815191526044820152603760f91b606482015260840161090a565b613472613541565b6040805160e0810182528681526001600160a01b0380871660208084019182528783168486019081526060850188815260808601888152600160a08801818152600060c08a01818152603480548352603e9098529a812099518a55965191890180549289166001600160a01b031993841617905593516002890180549190981691161790955551600386015592516004850155915160058401805491151560ff19909216919091179055925160069092019190915580549161353383613a49565b919050555061156060018055565b6002600154036135935760405162461bcd60e51b815260206004820152601f60248201527f5265656e7472616e637947756172643a207265656e7472616e742063616c6c00604482015260640161090a565b6002600155565b60018055565b6000805b60385481101561360057826001600160a01b0316603882815481106135cb576135cb6139da565b6000918252602090912001546001600160a01b0316036135ee5750600192915050565b806135f881613a49565b9150506135a4565b50600092915050565b600054610100900460ff166136865760405162461bcd60e51b815260206004820152602b60248201527f496e697469616c697a61626c653a20636f6e7472616374206973206e6f74206960448201527f6e697469616c697a696e67000000000000000000000000000000000000000000606482015260840161090a565b61368e613690565b565b600054610100900460ff1661359a5760405162461bcd60e51b815260206004820152602b60248201527f496e697469616c697a61626c653a20636f6e7472616374206973206e6f74206960448201527f6e697469616c697a696e67000000000000000000000000000000000000000000606482015260840161090a565b6000806040838503121561372057600080fd5b50508035926020909101359150565b6001600160a01b0381168114610dff57600080fd5b803561374f8161372f565b919050565b60006020828403121561376657600080fd5b81356123ea8161372f565b60006020828403121561378357600080fd5b5035919050565b60008060006060848603121561379f57600080fd5b833592506020840135915060408401356137b88161372f565b809150509250925092565b6000806000606084860312156137d857600080fd5b83356137e38161372f565b95602085013595506040909401359392505050565b8015158114610dff57600080fd5b60006020828403121561381857600080fd5b81356123ea816137f8565b6000806040838503121561383657600080fd5b82356138418161372f565b915060208301356138518161372f565b809150509250929050565b6000806040838503121561386f57600080fd5b823561387a8161372f565b946020939093013593505050565b634e487b7160e01b600052604160045260246000fd5b600060208083850312156138b157600080fd5b823567ffffffffffffffff808211156138c957600080fd5b818501915085601f8301126138dd57600080fd5b8135818111156138ef576138ef613888565b8060051b604051601f19603f8301168101818110858211171561391457613914613888565b60405291825284820192508381018501918883111561393257600080fd5b938501935b828510156139575761394885613744565b84529385019392850192613937565b98975050505050505050565b6000806040838503121561397657600080fd5b8235915060208301356138518161372f565b600080600080600060a086880312156139a057600080fd5b8535945060208601356139b28161372f565b935060408601356139c28161372f565b94979396509394606081013594506080013592915050565b634e487b7160e01b600052603260045260246000fd5b634e487b7160e01b600052601160045260246000fd5b808201808211156123ed576123ed6139f0565b600060208284031215613a2b57600080fd5b81516123ea816137f8565b818103818111156123ed576123ed6139f0565b600060018201613a5b57613a5b6139f0565b5060010190565b80820281158282048414176123ed576123ed6139f0565b600082613a9657634e487b7160e01b600052601260045260246000fd5b500490565b80516dffffffffffffffffffffffffffff8116811461374f57600080fd5b600080600060608486031215613ace57600080fd5b613ad784613a9b565b9250613ae560208501613a9b565b9150604084015163ffffffff811681146137b857600080fd5b600060208284031215613b1057600080fd5b5051919050565b805161ffff8116811461374f57600080fd5b600080600080600080600060e0888a031215613b4457600080fd5b8751613b4f8161372f565b8097505060208801518060020b8114613b6757600080fd5b9550613b7560408901613b17565b9450613b8360608901613b17565b9350613b9160808901613b17565b925060a088015160ff81168114613ba757600080fd5b60c0890151909250613bb8816137f8565b8091505092959891949750929550565b600181815b80851115613c03578160001904821115613be957613be96139f0565b80851615613bf657918102915b93841c9390800290613bcd565b509250929050565b600082613c1a575060016123ed565b81613c27575060006123ed565b8160018114613c3d5760028114613c4757613c63565b60019150506123ed565b60ff841115613c5857613c586139f0565b50506001821b6123ed565b5060208310610133831016604e8410600b8410161715613c86575081810a6123ed565b613c908383613bc8565b8060001904821115613ca457613ca46139f0565b029392505050565b6000613cbb60ff841683613c0b565b9392505050565b600060208284031215613cd457600080fd5b81516123ea8161372f56fe4f6e6c792061646d696e2063616e2063616c6c20746869732066756e6374696fa2646970667358221220342ef9a09ed9b0fc044befa6527c0ac4169aee6c10c0d45954400d2a9085f93f64736f6c63430008130033","opcodes":"PUSH1 0x80 PUSH1 0x40 MSTORE CALLVALUE DUP1 ISZERO PUSH2 0x10 JUMPI PUSH1 0x0 DUP1 REVERT JUMPDEST POP PUSH2 0x3D35 DUP1 PUSH2 0x20 PUSH1 0x0 CODECOPY PUSH1 0x0 RETURN INVALID PUSH1 0x80 PUSH1 0x40 MSTORE CALLVALUE DUP1 ISZERO PUSH2 0x10 JUMPI PUSH1 0x0 DUP1 REVERT JUMPDEST POP PUSH1 0x4 CALLDATASIZE LT PUSH2 0x341 JUMPI PUSH1 0x0 CALLDATALOAD PUSH1 0xE0 SHR DUP1 PUSH4 0x99672158 GT PUSH2 0x1BD JUMPI DUP1 PUSH4 0xC0D78655 GT PUSH2 0xF9 JUMPI DUP1 PUSH4 0xDBE4A261 GT PUSH2 0xA2 JUMPI DUP1 PUSH4 0xE9E15B4F GT PUSH2 0x7C JUMPI DUP1 PUSH4 0xE9E15B4F EQ PUSH2 0x85E JUMPI DUP1 PUSH4 0xF851A440 EQ PUSH2 0x871 JUMPI DUP1 PUSH4 0xFA8F683E EQ PUSH2 0x884 JUMPI DUP1 PUSH4 0xFB58D2CF EQ PUSH2 0x8BA JUMPI PUSH1 0x0 DUP1 REVERT JUMPDEST DUP1 PUSH4 0xDBE4A261 EQ PUSH2 0x818 JUMPI DUP1 PUSH4 0xE6A43905 EQ PUSH2 0x82B JUMPI DUP1 PUSH4 0xE7EE1233 EQ PUSH2 0x83E JUMPI PUSH1 0x0 DUP1 REVERT JUMPDEST DUP1 PUSH4 0xC79BDB46 GT PUSH2 0xD3 JUMPI DUP1 PUSH4 0xC79BDB46 EQ PUSH2 0x7DF JUMPI DUP1 PUSH4 0xD153B60C EQ PUSH2 0x7F2 JUMPI DUP1 PUSH4 0xDA58C7D9 EQ PUSH2 0x805 JUMPI PUSH1 0x0 DUP1 REVERT JUMPDEST DUP1 PUSH4 0xC0D78655 EQ PUSH2 0x7A6 JUMPI DUP1 PUSH4 0xC114FCFA EQ PUSH2 0x7B9 JUMPI DUP1 PUSH4 0xC57830CD EQ PUSH2 0x7CC JUMPI PUSH1 0x0 DUP1 REVERT JUMPDEST DUP1 PUSH4 0xAE169A50 GT PUSH2 0x166 JUMPI DUP1 PUSH4 0xB820A1CD GT PUSH2 0x140 JUMPI DUP1 PUSH4 0xB820A1CD EQ PUSH2 0x765 JUMPI DUP1 PUSH4 0xBDD13D4A EQ PUSH2 0x778 JUMPI DUP1 PUSH4 0xBF2CE808 EQ PUSH2 0x78B JUMPI DUP1 PUSH4 0xBF41C2A4 EQ PUSH2 0x79E JUMPI PUSH1 0x0 DUP1 REVERT JUMPDEST DUP1 PUSH4 0xAE169A50 EQ PUSH2 0x714 JUMPI DUP1 PUSH4 0xB3D673D8 EQ PUSH2 0x727 JUMPI DUP1 PUSH4 0xB401CDCA EQ PUSH2 0x73A JUMPI PUSH1 0x0 DUP1 REVERT JUMPDEST DUP1 PUSH4 0xA87430BA GT PUSH2 0x197 JUMPI DUP1 PUSH4 0xA87430BA EQ PUSH2 0x5FE JUMPI DUP1 PUSH4 0xAAF5BFC3 EQ PUSH2 0x663 JUMPI DUP1 PUSH4 0xAC4AFA38 EQ PUSH2 0x676 JUMPI PUSH1 0x0 DUP1 REVERT JUMPDEST DUP1 PUSH4 0x99672158 EQ PUSH2 0x5C5 JUMPI DUP1 PUSH4 0x9DDA7FEE EQ PUSH2 0x5D8 JUMPI DUP1 PUSH4 0xA224CEE7 EQ PUSH2 0x5EB JUMPI PUSH1 0x0 DUP1 REVERT JUMPDEST DUP1 PUSH4 0x509173A1 GT PUSH2 0x28C JUMPI DUP1 PUSH4 0x736C0D5B GT PUSH2 0x235 JUMPI DUP1 PUSH4 0x7ADE2642 GT PUSH2 0x20F JUMPI DUP1 PUSH4 0x7ADE2642 EQ PUSH2 0x59A JUMPI DUP1 PUSH4 0x7B542A2A EQ PUSH2 0x5A2 JUMPI DUP1 PUSH4 0x855C5D46 EQ PUSH2 0x5B5 JUMPI DUP1 PUSH4 0x98D5FDCA EQ PUSH2 0x5BD JUMPI PUSH1 0x0 DUP1 REVERT JUMPDEST DUP1 PUSH4 0x736C0D5B EQ PUSH2 0x551 JUMPI DUP1 PUSH4 0x7628A37D EQ PUSH2 0x574 JUMPI DUP1 PUSH4 0x7ACE48E7 EQ PUSH2 0x587 JUMPI PUSH1 0x0 DUP1 REVERT JUMPDEST DUP1 PUSH4 0x5D3EEA91 GT PUSH2 0x266 JUMPI DUP1 PUSH4 0x5D3EEA91 EQ PUSH2 0x518 JUMPI DUP1 PUSH4 0x6B38E049 EQ PUSH2 0x52B JUMPI DUP1 PUSH4 0x704B6C02 EQ PUSH2 0x53E JUMPI PUSH1 0x0 DUP1 REVERT JUMPDEST DUP1 PUSH4 0x509173A1 EQ PUSH2 0x4DF JUMPI DUP1 PUSH4 0x57A8773E EQ PUSH2 0x4F2 JUMPI DUP1 PUSH4 0x5BB47808 EQ PUSH2 0x505 JUMPI PUSH1 0x0 DUP1 REVERT JUMPDEST DUP1 PUSH4 0x25E16063 GT PUSH2 0x2EE JUMPI DUP1 PUSH4 0x34144B0F GT PUSH2 0x2C8 JUMPI DUP1 PUSH4 0x34144B0F EQ PUSH2 0x433 JUMPI DUP1 PUSH4 0x3E99C1E4 EQ PUSH2 0x47C JUMPI DUP1 PUSH4 0x4A3B68CC EQ PUSH2 0x4B6 JUMPI PUSH1 0x0 DUP1 REVERT JUMPDEST DUP1 PUSH4 0x25E16063 EQ PUSH2 0x3EC JUMPI DUP1 PUSH4 0x28AC7C51 EQ PUSH2 0x3FF JUMPI DUP1 PUSH4 0x29A16616 EQ PUSH2 0x412 JUMPI PUSH1 0x0 DUP1 REVERT JUMPDEST DUP1 PUSH4 0x21040FC3 GT PUSH2 0x31F JUMPI DUP1 PUSH4 0x21040FC3 EQ PUSH2 0x3BE JUMPI DUP1 PUSH4 0x216B31C1 EQ PUSH2 0x3D1 JUMPI DUP1 PUSH4 0x23452B9C EQ PUSH2 0x3E4 JUMPI PUSH1 0x0 DUP1 REVERT JUMPDEST DUP1 PUSH4 0x47AC00E EQ PUSH2 0x346 JUMPI DUP1 PUSH4 0x9EEF43E EQ PUSH2 0x35B JUMPI DUP1 PUSH4 0x1755FF21 EQ PUSH2 0x393 JUMPI JUMPDEST PUSH1 0x0 DUP1 REVERT JUMPDEST PUSH2 0x359 PUSH2 0x354 CALLDATASIZE PUSH1 0x4 PUSH2 0x370D JUMP JUMPDEST PUSH2 0x8CD JUMP JUMPDEST STOP JUMPDEST PUSH2 0x37E PUSH2 0x369 CALLDATASIZE PUSH1 0x4 PUSH2 0x3754 JUMP JUMPDEST PUSH1 0x39 PUSH1 0x20 MSTORE PUSH1 0x0 SWAP1 DUP2 MSTORE PUSH1 0x40 SWAP1 KECCAK256 SLOAD PUSH1 0xFF AND DUP2 JUMP JUMPDEST PUSH1 0x40 MLOAD SWAP1 ISZERO ISZERO DUP2 MSTORE PUSH1 0x20 ADD JUMPDEST PUSH1 0x40 MLOAD DUP1 SWAP2 SUB SWAP1 RETURN JUMPDEST PUSH1 0x45 SLOAD PUSH2 0x3A6 SWAP1 PUSH1 0x1 PUSH1 0x1 PUSH1 0xA0 SHL SUB AND DUP2 JUMP JUMPDEST PUSH1 0x40 MLOAD PUSH1 0x1 PUSH1 0x1 PUSH1 0xA0 SHL SUB SWAP1 SWAP2 AND DUP2 MSTORE PUSH1 0x20 ADD PUSH2 0x38A JUMP JUMPDEST PUSH2 0x359 PUSH2 0x3CC CALLDATASIZE PUSH1 0x4 PUSH2 0x3754 JUMP JUMPDEST PUSH2 0xB88 JUMP JUMPDEST PUSH2 0x359 PUSH2 0x3DF CALLDATASIZE PUSH1 0x4 PUSH2 0x3771 JUMP JUMPDEST PUSH2 0xC7A JUMP JUMPDEST PUSH2 0x359 PUSH2 0xD31 JUMP JUMPDEST PUSH2 0x359 PUSH2 0x3FA CALLDATASIZE PUSH1 0x4 PUSH2 0x3754 JUMP JUMPDEST PUSH2 0xE02 JUMP JUMPDEST PUSH1 0x3A SLOAD PUSH2 0x3A6 SWAP1 PUSH1 0x1 PUSH1 0x1 PUSH1 0xA0 SHL SUB AND DUP2 JUMP JUMPDEST PUSH2 0x425 PUSH2 0x420 CALLDATASIZE PUSH1 0x4 PUSH2 0x378A JUMP JUMPDEST PUSH2 0xEF1 JUMP JUMPDEST PUSH1 0x40 MLOAD SWAP1 DUP2 MSTORE PUSH1 0x20 ADD PUSH2 0x38A JUMP JUMPDEST PUSH2 0x446 PUSH2 0x441 CALLDATASIZE PUSH1 0x4 PUSH2 0x37C3 JUMP JUMPDEST PUSH2 0x10B2 JUMP JUMPDEST PUSH1 0x40 DUP1 MLOAD SWAP7 DUP8 MSTORE PUSH1 0x20 DUP8 ADD SWAP6 SWAP1 SWAP6 MSTORE SWAP4 DUP6 ADD SWAP3 SWAP1 SWAP3 MSTORE PUSH1 0x60 DUP5 ADD MSTORE PUSH1 0x1 PUSH1 0x1 PUSH1 0xA0 SHL SUB AND PUSH1 0x80 DUP4 ADD MSTORE PUSH1 0xA0 DUP3 ADD MSTORE PUSH1 0xC0 ADD PUSH2 0x38A JUMP JUMPDEST PUSH2 0x48F PUSH2 0x48A CALLDATASIZE PUSH1 0x4 PUSH2 0x3754 JUMP JUMPDEST PUSH2 0x111C JUMP JUMPDEST PUSH1 0x40 DUP1 MLOAD PUSH14 0xFFFFFFFFFFFFFFFFFFFFFFFFFFFF SWAP4 DUP5 AND DUP2 MSTORE SWAP3 SWAP1 SWAP2 AND PUSH1 0x20 DUP4 ADD MSTORE ADD PUSH2 0x38A JUMP JUMPDEST PUSH2 0x3A6 PUSH2 0x4C4 CALLDATASIZE PUSH1 0x4 PUSH2 0x3754 JUMP JUMPDEST PUSH1 0x40 PUSH1 0x20 DUP2 SWAP1 MSTORE PUSH1 0x0 SWAP2 DUP3 MSTORE SWAP1 KECCAK256 SLOAD PUSH1 0x1 PUSH1 0x1 PUSH1 0xA0 SHL SUB AND DUP2 JUMP JUMPDEST PUSH1 0x3D SLOAD PUSH2 0x3A6 SWAP1 PUSH1 0x1 PUSH1 0x1 PUSH1 0xA0 SHL SUB AND DUP2 JUMP JUMPDEST PUSH2 0x359 PUSH2 0x500 CALLDATASIZE PUSH1 0x4 PUSH2 0x3754 JUMP JUMPDEST PUSH2 0x1191 JUMP JUMPDEST PUSH2 0x359 PUSH2 0x513 CALLDATASIZE PUSH1 0x4 PUSH2 0x3754 JUMP JUMPDEST PUSH2 0x1205 JUMP JUMPDEST PUSH2 0x359 PUSH2 0x526 CALLDATASIZE PUSH1 0x4 PUSH2 0x3771 JUMP JUMPDEST PUSH2 0x1279 JUMP JUMPDEST PUSH2 0x425 PUSH2 0x539 CALLDATASIZE PUSH1 0x4 PUSH2 0x370D JUMP JUMPDEST PUSH2 0x1567 JUMP JUMPDEST PUSH2 0x359 PUSH2 0x54C CALLDATASIZE PUSH1 0x4 PUSH2 0x3754 JUMP JUMPDEST PUSH2 0x1963 JUMP JUMPDEST PUSH2 0x37E PUSH2 0x55F CALLDATASIZE PUSH1 0x4 PUSH2 0x3754 JUMP JUMPDEST PUSH1 0x44 PUSH1 0x20 MSTORE PUSH1 0x0 SWAP1 DUP2 MSTORE PUSH1 0x40 SWAP1 KECCAK256 SLOAD PUSH1 0xFF AND DUP2 JUMP JUMPDEST PUSH2 0x359 PUSH2 0x582 CALLDATASIZE PUSH1 0x4 PUSH2 0x378A JUMP JUMPDEST PUSH2 0x19D7 JUMP JUMPDEST PUSH2 0x359 PUSH2 0x595 CALLDATASIZE PUSH1 0x4 PUSH2 0x3806 JUMP JUMPDEST PUSH2 0x1E1C JUMP JUMPDEST PUSH2 0x425 PUSH2 0x1F2A JUMP JUMPDEST PUSH2 0x359 PUSH2 0x5B0 CALLDATASIZE PUSH1 0x4 PUSH2 0x3771 JUMP JUMPDEST PUSH2 0x202C JUMP JUMPDEST PUSH1 0x34 SLOAD PUSH2 0x425 JUMP JUMPDEST PUSH2 0x425 PUSH2 0x2083 JUMP JUMPDEST PUSH2 0x359 PUSH2 0x5D3 CALLDATASIZE PUSH1 0x4 PUSH2 0x3823 JUMP JUMPDEST PUSH2 0x2149 JUMP JUMPDEST PUSH2 0x425 PUSH2 0x5E6 CALLDATASIZE PUSH1 0x4 PUSH2 0x385C JUMP JUMPDEST PUSH2 0x22C3 JUMP JUMPDEST PUSH2 0x359 PUSH2 0x5F9 CALLDATASIZE PUSH1 0x4 PUSH2 0x389E JUMP JUMPDEST PUSH2 0x23F3 JUMP JUMPDEST PUSH2 0x63B PUSH2 0x60C CALLDATASIZE PUSH1 0x4 PUSH2 0x3754 JUMP JUMPDEST PUSH1 0x42 PUSH1 0x20 MSTORE PUSH1 0x0 SWAP1 DUP2 MSTORE PUSH1 0x40 SWAP1 KECCAK256 DUP1 SLOAD PUSH1 0x1 DUP3 ADD SLOAD PUSH1 0x2 DUP4 ADD SLOAD PUSH1 0x3 DUP5 ADD SLOAD PUSH1 0x4 SWAP1 SWAP5 ADD SLOAD SWAP3 SWAP4 SWAP2 SWAP3 SWAP1 SWAP2 SWAP1 DUP6 JUMP JUMPDEST PUSH1 0x40 DUP1 MLOAD SWAP6 DUP7 MSTORE PUSH1 0x20 DUP7 ADD SWAP5 SWAP1 SWAP5 MSTORE SWAP3 DUP5 ADD SWAP2 SWAP1 SWAP2 MSTORE PUSH1 0x60 DUP4 ADD MSTORE PUSH1 0x80 DUP3 ADD MSTORE PUSH1 0xA0 ADD PUSH2 0x38A JUMP JUMPDEST PUSH2 0x359 PUSH2 0x671 CALLDATASIZE PUSH1 0x4 PUSH2 0x3754 JUMP JUMPDEST PUSH2 0x2620 JUMP JUMPDEST PUSH2 0x6D1 PUSH2 0x684 CALLDATASIZE PUSH1 0x4 PUSH2 0x3771 JUMP JUMPDEST PUSH1 0x3E PUSH1 0x20 MSTORE PUSH1 0x0 SWAP1 DUP2 MSTORE PUSH1 0x40 SWAP1 KECCAK256 DUP1 SLOAD PUSH1 0x1 DUP3 ADD SLOAD PUSH1 0x2 DUP4 ADD SLOAD PUSH1 0x3 DUP5 ADD SLOAD PUSH1 0x4 DUP6 ADD SLOAD PUSH1 0x5 DUP7 ADD SLOAD PUSH1 0x6 SWAP1 SWAP7 ADD SLOAD SWAP5 SWAP6 PUSH1 0x1 PUSH1 0x1 PUSH1 0xA0 SHL SUB SWAP5 DUP6 AND SWAP6 SWAP4 SWAP1 SWAP5 AND SWAP4 SWAP2 SWAP3 SWAP1 SWAP2 PUSH1 0xFF AND SWAP1 DUP8 JUMP JUMPDEST PUSH1 0x40 DUP1 MLOAD SWAP8 DUP9 MSTORE PUSH1 0x1 PUSH1 0x1 PUSH1 0xA0 SHL SUB SWAP7 DUP8 AND PUSH1 0x20 DUP10 ADD MSTORE SWAP5 SWAP1 SWAP6 AND SWAP4 DUP7 ADD SWAP4 SWAP1 SWAP4 MSTORE PUSH1 0x60 DUP6 ADD SWAP2 SWAP1 SWAP2 MSTORE PUSH1 0x80 DUP5 ADD MSTORE ISZERO ISZERO PUSH1 0xA0 DUP4 ADD MSTORE PUSH1 0xC0 DUP3 ADD MSTORE PUSH1 0xE0 ADD PUSH2 0x38A JUMP JUMPDEST PUSH2 0x359 PUSH2 0x722 CALLDATASIZE PUSH1 0x4 PUSH2 0x3771 JUMP JUMPDEST PUSH2 0x2694 JUMP JUMPDEST PUSH1 0x3C SLOAD PUSH2 0x3A6 SWAP1 PUSH1 0x1 PUSH1 0x1 PUSH1 0xA0 SHL SUB AND DUP2 JUMP JUMPDEST PUSH2 0x425 PUSH2 0x748 CALLDATASIZE PUSH1 0x4 PUSH2 0x385C JUMP JUMPDEST PUSH1 0x43 PUSH1 0x20 SWAP1 DUP2 MSTORE PUSH1 0x0 SWAP3 DUP4 MSTORE PUSH1 0x40 DUP1 DUP5 KECCAK256 SWAP1 SWAP2 MSTORE SWAP1 DUP3 MSTORE SWAP1 KECCAK256 SLOAD DUP2 JUMP JUMPDEST PUSH2 0x359 PUSH2 0x773 CALLDATASIZE PUSH1 0x4 PUSH2 0x370D JUMP JUMPDEST PUSH2 0x2AD0 JUMP JUMPDEST PUSH2 0x359 PUSH2 0x786 CALLDATASIZE PUSH1 0x4 PUSH2 0x3963 JUMP JUMPDEST PUSH2 0x2C1F JUMP JUMPDEST PUSH2 0x359 PUSH2 0x799 CALLDATASIZE PUSH1 0x4 PUSH2 0x370D JUMP JUMPDEST PUSH2 0x2D96 JUMP JUMPDEST PUSH2 0x359 PUSH2 0x2E98 JUMP JUMPDEST PUSH2 0x359 PUSH2 0x7B4 CALLDATASIZE PUSH1 0x4 PUSH2 0x3754 JUMP JUMPDEST PUSH2 0x3042 JUMP JUMPDEST PUSH2 0x425 PUSH2 0x7C7 CALLDATASIZE PUSH1 0x4 PUSH2 0x3963 JUMP JUMPDEST PUSH2 0x30B6 JUMP JUMPDEST PUSH1 0x3B SLOAD PUSH2 0x3A6 SWAP1 PUSH1 0x1 PUSH1 0x1 PUSH1 0xA0 SHL SUB AND DUP2 JUMP JUMPDEST PUSH2 0x359 PUSH2 0x7ED CALLDATASIZE PUSH1 0x4 PUSH2 0x370D JUMP JUMPDEST PUSH2 0x310F JUMP JUMPDEST PUSH1 0x37 SLOAD PUSH2 0x3A6 SWAP1 PUSH1 0x1 PUSH1 0x1 PUSH1 0xA0 SHL SUB AND DUP2 JUMP JUMPDEST PUSH2 0x3A6 PUSH2 0x813 CALLDATASIZE PUSH1 0x4 PUSH2 0x3771 JUMP JUMPDEST PUSH2 0x3271 JUMP JUMPDEST PUSH2 0x359 PUSH2 0x826 CALLDATASIZE PUSH1 0x4 PUSH2 0x385C JUMP JUMPDEST PUSH2 0x329B JUMP JUMPDEST PUSH2 0x3A6 PUSH2 0x839 CALLDATASIZE PUSH1 0x4 PUSH2 0x3823 JUMP JUMPDEST PUSH2 0x3309 JUMP JUMPDEST PUSH2 0x425 PUSH2 0x84C CALLDATASIZE PUSH1 0x4 PUSH2 0x3754 JUMP JUMPDEST PUSH1 0x41 PUSH1 0x20 MSTORE PUSH1 0x0 SWAP1 DUP2 MSTORE PUSH1 0x40 SWAP1 KECCAK256 SLOAD DUP2 JUMP JUMPDEST PUSH2 0x359 PUSH2 0x86C CALLDATASIZE PUSH1 0x4 PUSH2 0x3754 JUMP JUMPDEST PUSH2 0x33A4 JUMP JUMPDEST PUSH1 0x33 SLOAD PUSH2 0x3A6 SWAP1 PUSH1 0x1 PUSH1 0x1 PUSH1 0xA0 SHL SUB AND DUP2 JUMP JUMPDEST PUSH2 0x425 PUSH2 0x892 CALLDATASIZE PUSH1 0x4 PUSH2 0x385C JUMP JUMPDEST PUSH1 0x1 PUSH1 0x1 PUSH1 0xA0 SHL SUB SWAP2 SWAP1 SWAP2 AND PUSH1 0x0 SWAP1 DUP2 MSTORE PUSH1 0x3F PUSH1 0x20 SWAP1 DUP2 MSTORE PUSH1 0x40 DUP1 DUP4 KECCAK256 SWAP4 DUP4 MSTORE SWAP3 SWAP1 MSTORE KECCAK256 SLOAD SWAP1 JUMP JUMPDEST PUSH2 0x359 PUSH2 0x8C8 CALLDATASIZE PUSH1 0x4 PUSH2 0x3988 JUMP JUMPDEST PUSH2 0x3418 JUMP JUMPDEST DUP2 PUSH1 0x34 SLOAD DUP2 LT PUSH2 0x913 JUMPI PUSH1 0x40 MLOAD PUSH3 0x461BCD PUSH1 0xE5 SHL DUP2 MSTORE PUSH1 0x20 PUSH1 0x4 DUP3 ADD MSTORE PUSH1 0xC PUSH1 0x24 DUP3 ADD MSTORE PUSH12 0x125B9D985B1A5908141BDBDB PUSH1 0xA2 SHL PUSH1 0x44 DUP3 ADD MSTORE PUSH1 0x64 ADD JUMPDEST PUSH1 0x40 MLOAD DUP1 SWAP2 SUB SWAP1 REVERT JUMPDEST PUSH1 0x0 DUP4 DUP2 MSTORE PUSH1 0x3E PUSH1 0x20 MSTORE PUSH1 0x40 SWAP1 KECCAK256 PUSH1 0x5 ADD SLOAD DUP4 SWAP1 PUSH1 0xFF AND PUSH2 0x96B JUMPI PUSH1 0x40 MLOAD PUSH3 0x461BCD PUSH1 0xE5 SHL DUP2 MSTORE PUSH1 0x20 PUSH1 0x4 DUP3 ADD MSTORE PUSH1 0x12 PUSH1 0x24 DUP3 ADD MSTORE PUSH18 0x506F6F6C204973204E6F7420416374697665 PUSH1 0x70 SHL PUSH1 0x44 DUP3 ADD MSTORE PUSH1 0x64 ADD PUSH2 0x90A JUMP JUMPDEST CALLER PUSH1 0x0 SWAP1 DUP2 MSTORE PUSH1 0x3F PUSH1 0x20 SWAP1 DUP2 MSTORE PUSH1 0x40 DUP1 DUP4 KECCAK256 DUP8 DUP5 MSTORE SWAP1 SWAP2 MSTORE DUP2 KECCAK256 DUP1 SLOAD DUP6 SWAP1 DUP2 LT PUSH2 0x997 JUMPI PUSH2 0x997 PUSH2 0x39DA JUMP JUMPDEST PUSH1 0x0 SWAP2 DUP3 MSTORE PUSH1 0x20 DUP1 DUP4 KECCAK256 DUP9 DUP5 MSTORE PUSH1 0x3E SWAP1 SWAP2 MSTORE PUSH1 0x40 SWAP1 SWAP3 KECCAK256 PUSH1 0x6 SWAP1 SWAP2 MUL SWAP1 SWAP2 ADD SWAP2 POP DUP1 SLOAD PUSH1 0x3 DUP4 ADD SLOAD TIMESTAMP SWAP2 PUSH2 0x9CA SWAP2 PUSH2 0x3A06 JUMP JUMPDEST DUP2 LT ISZERO PUSH2 0xA19 JUMPI PUSH1 0x40 MLOAD PUSH3 0x461BCD PUSH1 0xE5 SHL DUP2 MSTORE PUSH1 0x20 PUSH1 0x4 DUP3 ADD MSTORE PUSH1 0x16 PUSH1 0x24 DUP3 ADD MSTORE PUSH32 0x54696D6520706572696F64206E6F742070617373656400000000000000000000 PUSH1 0x44 DUP3 ADD MSTORE PUSH1 0x64 ADD PUSH2 0x90A JUMP JUMPDEST PUSH2 0xA23 DUP8 DUP8 PUSH2 0x1567 JUMP JUMPDEST POP PUSH1 0x1 DUP4 DUP2 ADD DUP3 SWAP1 SSTORE DUP3 ADD SLOAD DUP4 SLOAD PUSH1 0x40 MLOAD PUSH4 0xA9059CBB PUSH1 0xE0 SHL DUP2 MSTORE CALLER PUSH1 0x4 DUP3 ADD MSTORE PUSH1 0x24 DUP2 ADD SWAP2 SWAP1 SWAP2 MSTORE PUSH1 0x1 PUSH1 0x1 PUSH1 0xA0 SHL SUB SWAP1 SWAP2 AND SWAP1 PUSH4 0xA9059CBB SWAP1 PUSH1 0x44 ADD PUSH1 0x20 PUSH1 0x40 MLOAD DUP1 DUP4 SUB DUP2 PUSH1 0x0 DUP8 GAS CALL ISZERO DUP1 ISZERO PUSH2 0xA80 JUMPI RETURNDATASIZE PUSH1 0x0 DUP1 RETURNDATACOPY RETURNDATASIZE PUSH1 0x0 REVERT JUMPDEST POP POP POP POP PUSH1 0x40 MLOAD RETURNDATASIZE PUSH1 0x1F NOT PUSH1 0x1F DUP3 ADD AND DUP3 ADD DUP1 PUSH1 0x40 MSTORE POP DUP2 ADD SWAP1 PUSH2 0xAA4 SWAP2 SWAP1 PUSH2 0x3A19 JUMP JUMPDEST PUSH2 0xAF0 JUMPI PUSH1 0x40 MLOAD PUSH3 0x461BCD PUSH1 0xE5 SHL DUP2 MSTORE PUSH1 0x20 PUSH1 0x4 DUP3 ADD MSTORE PUSH1 0x1C PUSH1 0x24 DUP3 ADD MSTORE PUSH32 0x5374616B656420746F6B656E207472616E73666572206661696C656400000000 PUSH1 0x44 DUP3 ADD MSTORE PUSH1 0x64 ADD PUSH2 0x90A JUMP JUMPDEST DUP3 SLOAD CALLER PUSH1 0x0 SWAP1 DUP2 MSTORE PUSH1 0x42 PUSH1 0x20 MSTORE PUSH1 0x40 DUP2 KECCAK256 PUSH1 0x1 ADD DUP1 SLOAD SWAP1 SWAP2 SWAP1 PUSH2 0xB14 SWAP1 DUP5 SWAP1 PUSH2 0x3A36 JUMP JUMPDEST SWAP1 SWAP2 SSTORE POP POP DUP3 SLOAD CALLER PUSH1 0x0 SWAP1 DUP2 MSTORE PUSH1 0x43 PUSH1 0x20 SWAP1 DUP2 MSTORE PUSH1 0x40 DUP1 DUP4 KECCAK256 DUP12 DUP5 MSTORE SWAP1 SWAP2 MSTORE DUP2 KECCAK256 DUP1 SLOAD SWAP1 SWAP2 SWAP1 PUSH2 0xB45 SWAP1 DUP5 SWAP1 PUSH2 0x3A36 JUMP JUMPDEST SWAP1 SWAP2 SSTORE POP POP DUP3 SLOAD PUSH1 0x0 DUP9 DUP2 MSTORE PUSH1 0x3E PUSH1 0x20 MSTORE PUSH1 0x40 DUP2 KECCAK256 PUSH1 0x6 ADD DUP1 SLOAD SWAP1 SWAP2 SWAP1 PUSH2 0xB6D SWAP1 DUP5 SWAP1 PUSH2 0x3A36 JUMP JUMPDEST SWAP1 SWAP2 SSTORE POP POP PUSH1 0x0 DUP1 DUP5 SSTORE PUSH1 0x5 SWAP1 SWAP4 ADD SWAP3 SWAP1 SWAP3 SSTORE POP POP POP POP POP POP JUMP JUMPDEST PUSH1 0x33 SLOAD PUSH1 0x1 PUSH1 0x1 PUSH1 0xA0 SHL SUB AND CALLER EQ PUSH2 0xBDA JUMPI PUSH1 0x40 MLOAD PUSH3 0x461BCD PUSH1 0xE5 SHL DUP2 MSTORE PUSH1 0x20 PUSH1 0x4 DUP3 ADD MSTORE PUSH1 0x21 PUSH1 0x24 DUP3 ADD MSTORE PUSH1 0x0 DUP1 MLOAD PUSH1 0x20 PUSH2 0x3CE0 DUP4 CODECOPY DUP2 MLOAD SWAP2 MSTORE PUSH1 0x44 DUP3 ADD MSTORE PUSH1 0x37 PUSH1 0xF9 SHL PUSH1 0x64 DUP3 ADD MSTORE PUSH1 0x84 ADD PUSH2 0x90A JUMP JUMPDEST PUSH1 0x1 PUSH1 0x1 PUSH1 0xA0 SHL SUB DUP2 AND PUSH2 0xC30 JUMPI PUSH1 0x40 MLOAD PUSH3 0x461BCD PUSH1 0xE5 SHL DUP2 MSTORE PUSH1 0x20 PUSH1 0x4 DUP3 ADD DUP2 SWAP1 MSTORE PUSH1 0x24 DUP3 ADD MSTORE PUSH32 0x4E6577206F776E65722063616E6E6F74206265207A65726F2061646472657373 PUSH1 0x44 DUP3 ADD MSTORE PUSH1 0x64 ADD PUSH2 0x90A JUMP JUMPDEST PUSH1 0x37 DUP1 SLOAD PUSH1 0x1 PUSH1 0x1 PUSH1 0xA0 SHL SUB NOT AND PUSH1 0x1 PUSH1 0x1 PUSH1 0xA0 SHL SUB DUP4 AND SWAP1 DUP2 OR SWAP1 SWAP2 SSTORE PUSH1 0x40 MLOAD PUSH32 0xF0C6916D81CD1F899264B5193E3BBE7AFD2BCC3D05704BAB73D0B8AC93871158 SWAP1 PUSH1 0x0 SWAP1 LOG2 POP JUMP JUMPDEST PUSH1 0x33 SLOAD PUSH1 0x1 PUSH1 0x1 PUSH1 0xA0 SHL SUB AND CALLER EQ PUSH2 0xCCC JUMPI PUSH1 0x40 MLOAD PUSH3 0x461BCD PUSH1 0xE5 SHL DUP2 MSTORE PUSH1 0x20 PUSH1 0x4 DUP3 ADD MSTORE PUSH1 0x21 PUSH1 0x24 DUP3 ADD MSTORE PUSH1 0x0 DUP1 MLOAD PUSH1 0x20 PUSH2 0x3CE0 DUP4 CODECOPY DUP2 MLOAD SWAP2 MSTORE PUSH1 0x44 DUP3 ADD MSTORE PUSH1 0x37 PUSH1 0xF9 SHL PUSH1 0x64 DUP3 ADD MSTORE PUSH1 0x84 ADD PUSH2 0x90A JUMP JUMPDEST DUP1 PUSH1 0x34 SLOAD DUP2 LT PUSH2 0xD0D JUMPI PUSH1 0x40 MLOAD PUSH3 0x461BCD PUSH1 0xE5 SHL DUP2 MSTORE PUSH1 0x20 PUSH1 0x4 DUP3 ADD MSTORE PUSH1 0xC PUSH1 0x24 DUP3 ADD MSTORE PUSH12 0x125B9D985B1A5908141BDBDB PUSH1 0xA2 SHL PUSH1 0x44 DUP3 ADD MSTORE PUSH1 0x64 ADD PUSH2 0x90A JUMP JUMPDEST POP PUSH1 0x0 SWAP1 DUP2 MSTORE PUSH1 0x3E PUSH1 0x20 MSTORE PUSH1 0x40 SWAP1 KECCAK256 PUSH1 0x5 ADD DUP1 SLOAD PUSH1 0xFF NOT DUP2 AND PUSH1 0xFF SWAP1 SWAP2 AND ISZERO OR SWAP1 SSTORE JUMP JUMPDEST PUSH1 0x33 SLOAD PUSH1 0x1 PUSH1 0x1 PUSH1 0xA0 SHL SUB AND CALLER EQ PUSH2 0xD83 JUMPI PUSH1 0x40 MLOAD PUSH3 0x461BCD PUSH1 0xE5 SHL DUP2 MSTORE PUSH1 0x20 PUSH1 0x4 DUP3 ADD MSTORE PUSH1 0x21 PUSH1 0x24 DUP3 ADD MSTORE PUSH1 0x0 DUP1 MLOAD PUSH1 0x20 PUSH2 0x3CE0 DUP4 CODECOPY DUP2 MLOAD SWAP2 MSTORE PUSH1 0x44 DUP3 ADD MSTORE PUSH1 0x37 PUSH1 0xF9 SHL PUSH1 0x64 DUP3 ADD MSTORE PUSH1 0x84 ADD PUSH2 0x90A JUMP JUMPDEST PUSH1 0x37 DUP1 SLOAD PUSH1 0x1 PUSH1 0x1 PUSH1 0xA0 SHL SUB NOT AND SWAP1 SSTORE PUSH1 0x0 JUMPDEST PUSH1 0x38 SLOAD DUP2 LT ISZERO PUSH2 0xDFF JUMPI PUSH1 0x0 PUSH1 0x39 PUSH1 0x0 PUSH1 0x38 DUP5 DUP2 SLOAD DUP2 LT PUSH2 0xDB9 JUMPI PUSH2 0xDB9 PUSH2 0x39DA JUMP JUMPDEST PUSH1 0x0 SWAP2 DUP3 MSTORE PUSH1 0x20 DUP1 DUP4 KECCAK256 SWAP2 SWAP1 SWAP2 ADD SLOAD PUSH1 0x1 PUSH1 0x1 PUSH1 0xA0 SHL SUB AND DUP4 MSTORE DUP3 ADD SWAP3 SWAP1 SWAP3 MSTORE PUSH1 0x40 ADD SWAP1 KECCAK256 DUP1 SLOAD PUSH1 0xFF NOT AND SWAP2 ISZERO ISZERO SWAP2 SWAP1 SWAP2 OR SWAP1 SSTORE DUP1 PUSH2 0xDF7 DUP2 PUSH2 0x3A49 JUMP JUMPDEST SWAP2 POP POP PUSH2 0xD96 JUMP JUMPDEST POP JUMP JUMPDEST PUSH1 0x33 SLOAD PUSH1 0x1 PUSH1 0x1 PUSH1 0xA0 SHL SUB AND CALLER EQ PUSH2 0xE54 JUMPI PUSH1 0x40 MLOAD PUSH3 0x461BCD PUSH1 0xE5 SHL DUP2 MSTORE PUSH1 0x20 PUSH1 0x4 DUP3 ADD MSTORE PUSH1 0x21 PUSH1 0x24 DUP3 ADD MSTORE PUSH1 0x0 DUP1 MLOAD PUSH1 0x20 PUSH2 0x3CE0 DUP4 CODECOPY DUP2 MLOAD SWAP2 MSTORE PUSH1 0x44 DUP3 ADD MSTORE PUSH1 0x37 PUSH1 0xF9 SHL PUSH1 0x64 DUP3 ADD MSTORE PUSH1 0x84 ADD PUSH2 0x90A JUMP JUMPDEST PUSH2 0xE5C PUSH2 0x3541 JUMP JUMPDEST PUSH1 0x1 PUSH1 0x1 PUSH1 0xA0 SHL SUB DUP2 AND PUSH2 0xEB2 JUMPI PUSH1 0x40 MLOAD PUSH3 0x461BCD PUSH1 0xE5 SHL DUP2 MSTORE PUSH1 0x20 PUSH1 0x4 DUP3 ADD MSTORE PUSH1 0xF PUSH1 0x24 DUP3 ADD MSTORE PUSH32 0x496E76616C696420616464726573730000000000000000000000000000000000 PUSH1 0x44 DUP3 ADD MSTORE PUSH1 0x64 ADD PUSH2 0x90A JUMP JUMPDEST PUSH1 0x40 MLOAD PUSH1 0x1 PUSH1 0x1 PUSH1 0xA0 SHL SUB DUP3 AND SWAP1 SELFBALANCE DUP1 ISZERO PUSH2 0x8FC MUL SWAP2 PUSH1 0x0 DUP2 DUP2 DUP2 DUP6 DUP9 DUP9 CALL SWAP4 POP POP POP POP ISZERO DUP1 ISZERO PUSH2 0xEE7 JUMPI RETURNDATASIZE PUSH1 0x0 DUP1 RETURNDATACOPY RETURNDATASIZE PUSH1 0x0 REVERT JUMPDEST POP PUSH2 0xDFF PUSH1 0x1 DUP1 SSTORE JUMP JUMPDEST PUSH1 0x0 DUP4 PUSH1 0x34 SLOAD DUP2 LT PUSH2 0xF34 JUMPI PUSH1 0x40 MLOAD PUSH3 0x461BCD PUSH1 0xE5 SHL DUP2 MSTORE PUSH1 0x20 PUSH1 0x4 DUP3 ADD MSTORE PUSH1 0xC PUSH1 0x24 DUP3 ADD MSTORE PUSH12 0x125B9D985B1A5908141BDBDB PUSH1 0xA2 SHL PUSH1 0x44 DUP3 ADD MSTORE PUSH1 0x64 ADD PUSH2 0x90A JUMP JUMPDEST PUSH1 0x0 DUP6 DUP2 MSTORE PUSH1 0x3E PUSH1 0x20 MSTORE PUSH1 0x40 SWAP1 KECCAK256 PUSH1 0x5 ADD SLOAD DUP6 SWAP1 PUSH1 0xFF AND PUSH2 0xF8C JUMPI PUSH1 0x40 MLOAD PUSH3 0x461BCD PUSH1 0xE5 SHL DUP2 MSTORE PUSH1 0x20 PUSH1 0x4 DUP3 ADD MSTORE PUSH1 0x12 PUSH1 0x24 DUP3 ADD MSTORE PUSH18 0x506F6F6C204973204E6F7420416374697665 PUSH1 0x70 SHL PUSH1 0x44 DUP3 ADD MSTORE PUSH1 0x64 ADD PUSH2 0x90A JUMP JUMPDEST PUSH1 0x1 PUSH1 0x1 PUSH1 0xA0 SHL SUB DUP5 AND PUSH1 0x0 SWAP1 DUP2 MSTORE PUSH1 0x3F PUSH1 0x20 SWAP1 DUP2 MSTORE PUSH1 0x40 DUP1 DUP4 KECCAK256 DUP10 DUP5 MSTORE SWAP1 SWAP2 MSTORE SWAP1 KECCAK256 SLOAD DUP6 LT PUSH2 0xFFE JUMPI PUSH1 0x40 MLOAD PUSH3 0x461BCD PUSH1 0xE5 SHL DUP2 MSTORE PUSH1 0x20 PUSH1 0x4 DUP3 ADD MSTORE PUSH1 0xF PUSH1 0x24 DUP3 ADD MSTORE PUSH32 0x55736572204E6F74205374616B65640000000000000000000000000000000000 PUSH1 0x44 DUP3 ADD MSTORE PUSH1 0x64 ADD PUSH2 0x90A JUMP JUMPDEST PUSH1 0x1 PUSH1 0x1 PUSH1 0xA0 SHL SUB DUP5 AND PUSH1 0x0 SWAP1 DUP2 MSTORE PUSH1 0x3F PUSH1 0x20 SWAP1 DUP2 MSTORE PUSH1 0x40 DUP1 DUP4 KECCAK256 DUP10 DUP5 MSTORE SWAP1 SWAP2 MSTORE DUP2 KECCAK256 DUP1 SLOAD DUP8 SWAP1 DUP2 LT PUSH2 0x1033 JUMPI PUSH2 0x1033 PUSH2 0x39DA JUMP JUMPDEST PUSH1 0x0 SWAP2 DUP3 MSTORE PUSH1 0x20 DUP1 DUP4 KECCAK256 DUP11 DUP5 MSTORE PUSH1 0x3E SWAP1 SWAP2 MSTORE PUSH1 0x40 DUP4 KECCAK256 PUSH1 0x6 SWAP3 SWAP1 SWAP3 MUL ADD PUSH1 0x1 DUP2 ADD SLOAD SWAP1 SWAP4 POP SWAP1 SWAP2 TIMESTAMP SWAP2 PUSH2 0x1066 SWAP1 DUP4 PUSH2 0x3A36 JUMP JUMPDEST SWAP1 POP PUSH1 0x0 PUSH1 0x35 SLOAD PUSH2 0x2710 DUP6 PUSH1 0x3 ADD SLOAD DUP5 DUP9 PUSH1 0x5 ADD SLOAD PUSH2 0x1085 SWAP2 SWAP1 PUSH2 0x3A62 JUMP JUMPDEST PUSH2 0x108F SWAP2 SWAP1 PUSH2 0x3A62 JUMP JUMPDEST PUSH2 0x1099 SWAP2 SWAP1 PUSH2 0x3A79 JUMP JUMPDEST PUSH2 0x10A3 SWAP2 SWAP1 PUSH2 0x3A79 JUMP JUMPDEST SWAP12 SWAP11 POP POP POP POP POP POP POP POP POP POP POP JUMP JUMPDEST PUSH1 0x3F PUSH1 0x20 MSTORE DUP3 PUSH1 0x0 MSTORE PUSH1 0x40 PUSH1 0x0 KECCAK256 PUSH1 0x20 MSTORE DUP2 PUSH1 0x0 MSTORE PUSH1 0x40 PUSH1 0x0 KECCAK256 DUP2 DUP2 SLOAD DUP2 LT PUSH2 0x10DA JUMPI PUSH1 0x0 DUP1 REVERT JUMPDEST PUSH1 0x0 SWAP2 DUP3 MSTORE PUSH1 0x20 SWAP1 SWAP2 KECCAK256 PUSH1 0x6 SWAP1 SWAP2 MUL ADD DUP1 SLOAD PUSH1 0x1 DUP3 ADD SLOAD PUSH1 0x2 DUP4 ADD SLOAD PUSH1 0x3 DUP5 ADD SLOAD PUSH1 0x4 DUP6 ADD SLOAD PUSH1 0x5 SWAP1 SWAP6 ADD SLOAD SWAP4 SWAP8 POP SWAP2 SWAP6 POP SWAP4 POP SWAP2 PUSH1 0x1 PUSH1 0x1 PUSH1 0xA0 SHL SUB AND SWAP1 DUP7 JUMP JUMPDEST PUSH1 0x0 DUP1 PUSH1 0x0 DUP1 DUP5 PUSH1 0x1 PUSH1 0x1 PUSH1 0xA0 SHL SUB AND PUSH4 0x902F1AC PUSH1 0x40 MLOAD DUP2 PUSH4 0xFFFFFFFF AND PUSH1 0xE0 SHL DUP2 MSTORE PUSH1 0x4 ADD PUSH1 0x60 PUSH1 0x40 MLOAD DUP1 DUP4 SUB DUP2 DUP7 GAS STATICCALL ISZERO DUP1 ISZERO PUSH2 0x1160 JUMPI RETURNDATASIZE PUSH1 0x0 DUP1 RETURNDATACOPY RETURNDATASIZE PUSH1 0x0 REVERT JUMPDEST POP POP POP POP PUSH1 0x40 MLOAD RETURNDATASIZE PUSH1 0x1F NOT PUSH1 0x1F DUP3 ADD AND DUP3 ADD DUP1 PUSH1 0x40 MSTORE POP DUP2 ADD SWAP1 PUSH2 0x1184 SWAP2 SWAP1 PUSH2 0x3AB9 JUMP JUMPDEST POP SWAP1 SWAP7 SWAP1 SWAP6 POP SWAP4 POP POP POP POP JUMP JUMPDEST PUSH1 0x33 SLOAD PUSH1 0x1 PUSH1 0x1 PUSH1 0xA0 SHL SUB AND CALLER EQ PUSH2 0x11E3 JUMPI PUSH1 0x40 MLOAD PUSH3 0x461BCD PUSH1 0xE5 SHL DUP2 MSTORE PUSH1 0x20 PUSH1 0x4 DUP3 ADD MSTORE PUSH1 0x21 PUSH1 0x24 DUP3 ADD MSTORE PUSH1 0x0 DUP1 MLOAD PUSH1 0x20 PUSH2 0x3CE0 DUP4 CODECOPY DUP2 MLOAD SWAP2 MSTORE PUSH1 0x44 DUP3 ADD MSTORE PUSH1 0x37 PUSH1 0xF9 SHL PUSH1 0x64 DUP3 ADD MSTORE PUSH1 0x84 ADD PUSH2 0x90A JUMP JUMPDEST PUSH1 0x3B DUP1 SLOAD PUSH1 0x1 PUSH1 0x1 PUSH1 0xA0 SHL SUB NOT AND PUSH1 0x1 PUSH1 0x1 PUSH1 0xA0 SHL SUB SWAP3 SWAP1 SWAP3 AND SWAP2 SWAP1 SWAP2 OR SWAP1 SSTORE JUMP JUMPDEST PUSH1 0x33 SLOAD PUSH1 0x1 PUSH1 0x1 PUSH1 0xA0 SHL SUB AND CALLER EQ PUSH2 0x1257 JUMPI PUSH1 0x40 MLOAD PUSH3 0x461BCD PUSH1 0xE5 SHL DUP2 MSTORE PUSH1 0x20 PUSH1 0x4 DUP3 ADD MSTORE PUSH1 0x21 PUSH1 0x24 DUP3 ADD MSTORE PUSH1 0x0 DUP1 MLOAD PUSH1 0x20 PUSH2 0x3CE0 DUP4 CODECOPY DUP2 MLOAD SWAP2 MSTORE PUSH1 0x44 DUP3 ADD MSTORE PUSH1 0x37 PUSH1 0xF9 SHL PUSH1 0x64 DUP3 ADD MSTORE PUSH1 0x84 ADD PUSH2 0x90A JUMP JUMPDEST PUSH1 0x3D DUP1 SLOAD PUSH1 0x1 PUSH1 0x1 PUSH1 0xA0 SHL SUB NOT AND PUSH1 0x1 PUSH1 0x1 PUSH1 0xA0 SHL SUB SWAP3 SWAP1 SWAP3 AND SWAP2 SWAP1 SWAP2 OR SWAP1 SSTORE JUMP JUMPDEST DUP1 PUSH1 0x34 SLOAD DUP2 LT PUSH2 0x12BA JUMPI PUSH1 0x40 MLOAD PUSH3 0x461BCD PUSH1 0xE5 SHL DUP2 MSTORE PUSH1 0x20 PUSH1 0x4 DUP3 ADD MSTORE PUSH1 0xC PUSH1 0x24 DUP3 ADD MSTORE PUSH12 0x125B9D985B1A5908141BDBDB PUSH1 0xA2 SHL PUSH1 0x44 DUP3 ADD MSTORE PUSH1 0x64 ADD PUSH2 0x90A JUMP JUMPDEST PUSH1 0x0 DUP3 DUP2 MSTORE PUSH1 0x3E PUSH1 0x20 MSTORE PUSH1 0x40 SWAP1 KECCAK256 PUSH1 0x5 ADD SLOAD DUP3 SWAP1 PUSH1 0xFF AND PUSH2 0x1312 JUMPI PUSH1 0x40 MLOAD PUSH3 0x461BCD PUSH1 0xE5 SHL DUP2 MSTORE PUSH1 0x20 PUSH1 0x4 DUP3 ADD MSTORE PUSH1 0x12 PUSH1 0x24 DUP3 ADD MSTORE PUSH18 0x506F6F6C204973204E6F7420416374697665 PUSH1 0x70 SHL PUSH1 0x44 DUP3 ADD MSTORE PUSH1 0x64 ADD PUSH2 0x90A JUMP JUMPDEST PUSH1 0x0 DUP4 DUP2 MSTORE PUSH1 0x3E PUSH1 0x20 MSTORE PUSH1 0x40 DUP2 KECCAK256 DUP2 JUMPDEST CALLER PUSH1 0x0 SWAP1 DUP2 MSTORE PUSH1 0x3F PUSH1 0x20 SWAP1 DUP2 MSTORE PUSH1 0x40 DUP1 DUP4 KECCAK256 DUP10 DUP5 MSTORE SWAP1 SWAP2 MSTORE SWAP1 KECCAK256 SLOAD DUP2 LT ISZERO PUSH2 0x1440 JUMPI CALLER PUSH1 0x0 SWAP1 DUP2 MSTORE PUSH1 0x3F PUSH1 0x20 SWAP1 DUP2 MSTORE PUSH1 0x40 DUP1 DUP4 KECCAK256 DUP10 DUP5 MSTORE SWAP1 SWAP2 MSTORE DUP2 KECCAK256 DUP1 SLOAD DUP4 SWAP1 DUP2 LT PUSH2 0x1370 JUMPI PUSH2 0x1370 PUSH2 0x39DA JUMP JUMPDEST SWAP1 PUSH1 0x0 MSTORE PUSH1 0x20 PUSH1 0x0 KECCAK256 SWAP1 PUSH1 0x6 MUL ADD SWAP1 POP PUSH1 0x0 TIMESTAMP SWAP1 POP DUP4 PUSH1 0x0 ADD SLOAD DUP3 PUSH1 0x3 ADD SLOAD PUSH2 0x1399 SWAP2 SWAP1 PUSH2 0x3A06 JUMP JUMPDEST DUP2 LT PUSH2 0x142B JUMPI DUP2 SLOAD PUSH2 0x13AB SWAP1 DUP7 PUSH2 0x3A06 JUMP JUMPDEST SWAP5 POP PUSH2 0x13B7 DUP9 DUP5 PUSH2 0x1567 JUMP JUMPDEST POP PUSH1 0x0 DUP1 DUP4 SSTORE PUSH1 0x1 DUP4 ADD DUP3 SWAP1 SSTORE CALLER DUP2 MSTORE PUSH1 0x3F PUSH1 0x20 SWAP1 DUP2 MSTORE PUSH1 0x40 DUP1 DUP4 KECCAK256 DUP12 DUP5 MSTORE SWAP1 SWAP2 MSTORE SWAP1 KECCAK256 DUP1 SLOAD DUP5 SWAP1 DUP2 LT PUSH2 0x13ED JUMPI PUSH2 0x13ED PUSH2 0x39DA JUMP JUMPDEST PUSH1 0x0 SWAP2 DUP3 MSTORE PUSH1 0x20 DUP3 KECCAK256 PUSH1 0x6 SWAP1 SWAP2 MUL ADD DUP2 DUP2 SSTORE PUSH1 0x1 DUP2 ADD DUP3 SWAP1 SSTORE PUSH1 0x2 DUP2 ADD DUP3 SWAP1 SSTORE PUSH1 0x3 DUP2 ADD DUP3 SWAP1 SSTORE PUSH1 0x4 DUP2 ADD DUP1 SLOAD PUSH1 0x1 PUSH1 0x1 PUSH1 0xA0 SHL SUB NOT AND SWAP1 SSTORE PUSH1 0x5 ADD SSTORE JUMPDEST POP POP DUP1 DUP1 PUSH2 0x1438 SWAP1 PUSH2 0x3A49 JUMP JUMPDEST SWAP2 POP POP PUSH2 0x1322 JUMP JUMPDEST POP CALLER PUSH1 0x0 SWAP1 DUP2 MSTORE PUSH1 0x42 PUSH1 0x20 MSTORE PUSH1 0x40 DUP2 KECCAK256 PUSH1 0x1 ADD DUP1 SLOAD DUP5 SWAP3 SWAP1 PUSH2 0x1463 SWAP1 DUP5 SWAP1 PUSH2 0x3A36 JUMP JUMPDEST SWAP1 SWAP2 SSTORE POP POP CALLER PUSH1 0x0 SWAP1 DUP2 MSTORE PUSH1 0x43 PUSH1 0x20 SWAP1 DUP2 MSTORE PUSH1 0x40 DUP1 DUP4 KECCAK256 DUP9 DUP5 MSTORE SWAP1 SWAP2 MSTORE DUP2 KECCAK256 DUP1 SLOAD DUP5 SWAP3 SWAP1 PUSH2 0x1492 SWAP1 DUP5 SWAP1 PUSH2 0x3A36 JUMP JUMPDEST SWAP1 SWAP2 SSTORE POP POP DUP2 ISZERO PUSH2 0x1560 JUMPI PUSH1 0x1 DUP2 ADD SLOAD PUSH1 0x40 MLOAD PUSH4 0xA9059CBB PUSH1 0xE0 SHL DUP2 MSTORE CALLER PUSH1 0x4 DUP3 ADD MSTORE PUSH1 0x24 DUP2 ADD DUP5 SWAP1 MSTORE PUSH1 0x1 PUSH1 0x1 PUSH1 0xA0 SHL SUB SWAP1 SWAP2 AND SWAP1 PUSH4 0xA9059CBB SWAP1 PUSH1 0x44 ADD PUSH1 0x20 PUSH1 0x40 MLOAD DUP1 DUP4 SUB DUP2 PUSH1 0x0 DUP8 GAS CALL ISZERO DUP1 ISZERO PUSH2 0x14F0 JUMPI RETURNDATASIZE PUSH1 0x0 DUP1 RETURNDATACOPY RETURNDATASIZE PUSH1 0x0 REVERT JUMPDEST POP POP POP POP PUSH1 0x40 MLOAD RETURNDATASIZE PUSH1 0x1F NOT PUSH1 0x1F DUP3 ADD AND DUP3 ADD DUP1 PUSH1 0x40 MSTORE POP DUP2 ADD SWAP1 PUSH2 0x1514 SWAP2 SWAP1 PUSH2 0x3A19 JUMP JUMPDEST PUSH2 0x1560 JUMPI PUSH1 0x40 MLOAD PUSH3 0x461BCD PUSH1 0xE5 SHL DUP2 MSTORE PUSH1 0x20 PUSH1 0x4 DUP3 ADD MSTORE PUSH1 0x1C PUSH1 0x24 DUP3 ADD MSTORE PUSH32 0x5374616B656420746F6B656E207472616E73666572206661696C656400000000 PUSH1 0x44 DUP3 ADD MSTORE PUSH1 0x64 ADD PUSH2 0x90A JUMP JUMPDEST POP POP POP POP POP JUMP JUMPDEST PUSH1 0x0 DUP3 PUSH1 0x34 SLOAD DUP2 LT PUSH2 0x15AA JUMPI PUSH1 0x40 MLOAD PUSH3 0x461BCD PUSH1 0xE5 SHL DUP2 MSTORE PUSH1 0x20 PUSH1 0x4 DUP3 ADD MSTORE PUSH1 0xC PUSH1 0x24 DUP3 ADD MSTORE PUSH12 0x125B9D985B1A5908141BDBDB PUSH1 0xA2 SHL PUSH1 0x44 DUP3 ADD MSTORE PUSH1 0x64 ADD PUSH2 0x90A JUMP JUMPDEST PUSH1 0x0 DUP5 DUP2 MSTORE PUSH1 0x3E PUSH1 0x20 MSTORE PUSH1 0x40 SWAP1 KECCAK256 PUSH1 0x5 ADD SLOAD DUP5 SWAP1 PUSH1 0xFF AND PUSH2 0x1602 JUMPI PUSH1 0x40 MLOAD PUSH3 0x461BCD PUSH1 0xE5 SHL DUP2 MSTORE PUSH1 0x20 PUSH1 0x4 DUP3 ADD MSTORE PUSH1 0x12 PUSH1 0x24 DUP3 ADD MSTORE PUSH18 0x506F6F6C204973204E6F7420416374697665 PUSH1 0x70 SHL PUSH1 0x44 DUP3 ADD MSTORE PUSH1 0x64 ADD PUSH2 0x90A JUMP JUMPDEST CALLER PUSH1 0x0 SWAP1 DUP2 MSTORE PUSH1 0x3F PUSH1 0x20 SWAP1 DUP2 MSTORE PUSH1 0x40 DUP1 DUP4 KECCAK256 DUP9 DUP5 MSTORE SWAP1 SWAP2 MSTORE DUP2 KECCAK256 DUP1 SLOAD DUP7 SWAP1 DUP2 LT PUSH2 0x162E JUMPI PUSH2 0x162E PUSH2 0x39DA JUMP JUMPDEST PUSH1 0x0 SWAP2 DUP3 MSTORE PUSH1 0x20 DUP1 DUP4 KECCAK256 DUP10 DUP5 MSTORE PUSH1 0x3E SWAP1 SWAP2 MSTORE PUSH1 0x40 DUP4 KECCAK256 PUSH1 0x6 SWAP1 SWAP3 MUL ADD DUP1 SLOAD SWAP1 SWAP4 POP SWAP1 SWAP2 SUB PUSH2 0x1661 JUMPI PUSH1 0x0 SWAP5 POP POP POP PUSH2 0x195B JUMP JUMPDEST TIMESTAMP PUSH1 0x0 PUSH2 0x166F DUP10 DUP10 CALLER PUSH2 0xEF1 JUMP JUMPDEST SWAP1 POP DUP1 ISZERO PUSH2 0x1956 JUMPI PUSH1 0x2 DUP4 ADD SLOAD PUSH1 0x40 MLOAD PUSH4 0xA9059CBB PUSH1 0xE0 SHL DUP2 MSTORE CALLER PUSH1 0x4 DUP3 ADD MSTORE PUSH1 0x24 DUP2 ADD DUP4 SWAP1 MSTORE PUSH1 0x1 PUSH1 0x1 PUSH1 0xA0 SHL SUB SWAP1 SWAP2 AND SWAP1 PUSH4 0xA9059CBB SWAP1 PUSH1 0x44 ADD PUSH1 0x20 PUSH1 0x40 MLOAD DUP1 DUP4 SUB DUP2 PUSH1 0x0 DUP8 GAS CALL ISZERO DUP1 ISZERO PUSH2 0x16CA JUMPI RETURNDATASIZE PUSH1 0x0 DUP1 RETURNDATACOPY RETURNDATASIZE PUSH1 0x0 REVERT JUMPDEST POP POP POP POP PUSH1 0x40 MLOAD RETURNDATASIZE PUSH1 0x1F NOT PUSH1 0x1F DUP3 ADD AND DUP3 ADD DUP1 PUSH1 0x40 MSTORE POP DUP2 ADD SWAP1 PUSH2 0x16EE SWAP2 SWAP1 PUSH2 0x3A19 JUMP JUMPDEST PUSH2 0x173A JUMPI PUSH1 0x40 MLOAD PUSH3 0x461BCD PUSH1 0xE5 SHL DUP2 MSTORE PUSH1 0x20 PUSH1 0x4 DUP3 ADD MSTORE PUSH1 0x16 PUSH1 0x24 DUP3 ADD MSTORE PUSH32 0x526577617264207472616E73666572206661696C656400000000000000000000 PUSH1 0x44 DUP3 ADD MSTORE PUSH1 0x64 ADD PUSH2 0x90A JUMP JUMPDEST PUSH1 0x4 DUP5 ADD SLOAD PUSH1 0x1 PUSH1 0x1 PUSH1 0xA0 SHL SUB AND ISZERO PUSH2 0x1906 JUMPI PUSH1 0x4 DUP1 DUP5 ADD SLOAD SWAP1 DUP6 ADD SLOAD PUSH1 0x1 PUSH1 0x1 PUSH1 0xA0 SHL SUB AND PUSH1 0x0 SWAP1 DUP2 MSTORE PUSH1 0x41 PUSH1 0x20 MSTORE PUSH1 0x40 SWAP1 KECCAK256 SLOAD ISZERO PUSH2 0x1793 JUMPI POP PUSH1 0x4 DUP5 ADD SLOAD PUSH1 0x1 PUSH1 0x1 PUSH1 0xA0 SHL SUB AND PUSH1 0x0 SWAP1 DUP2 MSTORE PUSH1 0x41 PUSH1 0x20 MSTORE PUSH1 0x40 SWAP1 KECCAK256 SLOAD JUMPDEST PUSH1 0x0 PUSH2 0x2710 PUSH2 0x17A2 DUP4 DUP6 PUSH2 0x3A62 JUMP JUMPDEST PUSH2 0x17AC SWAP2 SWAP1 PUSH2 0x3A79 JUMP JUMPDEST GT ISZERO PUSH2 0x18B9 JUMPI PUSH1 0x2 DUP5 ADD SLOAD PUSH1 0x4 DUP7 ADD SLOAD PUSH1 0x1 PUSH1 0x1 PUSH1 0xA0 SHL SUB SWAP2 DUP3 AND SWAP2 PUSH4 0xA9059CBB SWAP2 AND PUSH2 0x2710 PUSH2 0x17DC DUP6 DUP8 PUSH2 0x3A62 JUMP JUMPDEST PUSH2 0x17E6 SWAP2 SWAP1 PUSH2 0x3A79 JUMP JUMPDEST PUSH1 0x40 MLOAD PUSH32 0xFFFFFFFF00000000000000000000000000000000000000000000000000000000 PUSH1 0xE0 DUP6 SWAP1 SHL AND DUP2 MSTORE PUSH1 0x1 PUSH1 0x1 PUSH1 0xA0 SHL SUB SWAP1 SWAP3 AND PUSH1 0x4 DUP4 ADD MSTORE PUSH1 0x24 DUP3 ADD MSTORE PUSH1 0x44 ADD PUSH1 0x20 PUSH1 0x40 MLOAD DUP1 DUP4 SUB DUP2 PUSH1 0x0 DUP8 GAS CALL ISZERO DUP1 ISZERO PUSH2 0x1849 JUMPI RETURNDATASIZE PUSH1 0x0 DUP1 RETURNDATACOPY RETURNDATASIZE PUSH1 0x0 REVERT JUMPDEST POP POP POP POP PUSH1 0x40 MLOAD RETURNDATASIZE PUSH1 0x1F NOT PUSH1 0x1F DUP3 ADD AND DUP3 ADD DUP1 PUSH1 0x40 MSTORE POP DUP2 ADD SWAP1 PUSH2 0x186D SWAP2 SWAP1 PUSH2 0x3A19 JUMP JUMPDEST PUSH2 0x18B9 JUMPI PUSH1 0x40 MLOAD PUSH3 0x461BCD PUSH1 0xE5 SHL DUP2 MSTORE PUSH1 0x20 PUSH1 0x4 DUP3 ADD MSTORE PUSH1 0x1F PUSH1 0x24 DUP3 ADD MSTORE PUSH32 0x526566657272616C20526577617264207472616E73666572206661696C656400 PUSH1 0x44 DUP3 ADD MSTORE PUSH1 0x64 ADD PUSH2 0x90A JUMP JUMPDEST PUSH2 0x2710 PUSH2 0x18C6 DUP3 DUP5 PUSH2 0x3A62 JUMP JUMPDEST PUSH2 0x18D0 SWAP2 SWAP1 PUSH2 0x3A79 JUMP JUMPDEST PUSH1 0x4 DUP7 ADD SLOAD PUSH1 0x1 PUSH1 0x1 PUSH1 0xA0 SHL SUB AND PUSH1 0x0 SWAP1 DUP2 MSTORE PUSH1 0x42 PUSH1 0x20 MSTORE PUSH1 0x40 DUP2 KECCAK256 PUSH1 0x3 ADD DUP1 SLOAD SWAP1 SWAP2 SWAP1 PUSH2 0x18FF SWAP1 DUP5 SWAP1 PUSH2 0x3A06 JUMP JUMPDEST SWAP1 SWAP2 SSTORE POP POP POP JUMPDEST CALLER PUSH1 0x0 SWAP1 DUP2 MSTORE PUSH1 0x42 PUSH1 0x20 MSTORE PUSH1 0x40 DUP2 KECCAK256 PUSH1 0x2 ADD DUP1 SLOAD DUP4 SWAP3 SWAP1 PUSH2 0x1928 SWAP1 DUP5 SWAP1 PUSH2 0x3A06 JUMP JUMPDEST SWAP3 POP POP DUP2 SWAP1 SSTORE POP DUP1 DUP5 PUSH1 0x2 ADD PUSH1 0x0 DUP3 DUP3 SLOAD PUSH2 0x1943 SWAP2 SWAP1 PUSH2 0x3A06 JUMP JUMPDEST SWAP1 SWAP2 SSTORE POP POP PUSH1 0x1 SWAP1 SWAP4 ADD SSTORE POP SWAP3 POP PUSH2 0x195B JUMP JUMPDEST POP POP POP POP JUMPDEST POP POP SWAP3 SWAP2 POP POP JUMP JUMPDEST PUSH1 0x33 SLOAD PUSH1 0x1 PUSH1 0x1 PUSH1 0xA0 SHL SUB AND CALLER EQ PUSH2 0x19B5 JUMPI PUSH1 0x40 MLOAD PUSH3 0x461BCD PUSH1 0xE5 SHL DUP2 MSTORE PUSH1 0x20 PUSH1 0x4 DUP3 ADD MSTORE PUSH1 0x21 PUSH1 0x24 DUP3 ADD MSTORE PUSH1 0x0 DUP1 MLOAD PUSH1 0x20 PUSH2 0x3CE0 DUP4 CODECOPY DUP2 MLOAD SWAP2 MSTORE PUSH1 0x44 DUP3 ADD MSTORE PUSH1 0x37 PUSH1 0xF9 SHL PUSH1 0x64 DUP3 ADD MSTORE PUSH1 0x84 ADD PUSH2 0x90A JUMP JUMPDEST PUSH1 0x33 DUP1 SLOAD PUSH1 0x1 PUSH1 0x1 PUSH1 0xA0 SHL SUB NOT AND PUSH1 0x1 PUSH1 0x1 PUSH1 0xA0 SHL SUB SWAP3 SWAP1 SWAP3 AND SWAP2 SWAP1 SWAP2 OR SWAP1 SSTORE JUMP JUMPDEST DUP3 PUSH1 0x34 SLOAD DUP2 LT PUSH2 0x1A18 JUMPI PUSH1 0x40 MLOAD PUSH3 0x461BCD PUSH1 0xE5 SHL DUP2 MSTORE PUSH1 0x20 PUSH1 0x4 DUP3 ADD MSTORE PUSH1 0xC PUSH1 0x24 DUP3 ADD MSTORE PUSH12 0x125B9D985B1A5908141BDBDB PUSH1 0xA2 SHL PUSH1 0x44 DUP3 ADD MSTORE PUSH1 0x64 ADD PUSH2 0x90A JUMP JUMPDEST PUSH1 0x0 DUP5 DUP2 MSTORE PUSH1 0x3E PUSH1 0x20 MSTORE PUSH1 0x40 SWAP1 KECCAK256 PUSH1 0x5 ADD SLOAD DUP5 SWAP1 PUSH1 0xFF AND PUSH2 0x1A70 JUMPI PUSH1 0x40 MLOAD PUSH3 0x461BCD PUSH1 0xE5 SHL DUP2 MSTORE PUSH1 0x20 PUSH1 0x4 DUP3 ADD MSTORE PUSH1 0x12 PUSH1 0x24 DUP3 ADD MSTORE PUSH18 0x506F6F6C204973204E6F7420416374697665 PUSH1 0x70 SHL PUSH1 0x44 DUP3 ADD MSTORE PUSH1 0x64 ADD PUSH2 0x90A JUMP JUMPDEST PUSH1 0x0 DUP5 GT PUSH2 0x1AC0 JUMPI PUSH1 0x40 MLOAD PUSH3 0x461BCD PUSH1 0xE5 SHL DUP2 MSTORE PUSH1 0x20 PUSH1 0x4 DUP3 ADD MSTORE PUSH1 0x1D PUSH1 0x24 DUP3 ADD MSTORE PUSH32 0x416D6F756E74206D7573742062652067726561746572207468616E2030000000 PUSH1 0x44 DUP3 ADD MSTORE PUSH1 0x64 ADD PUSH2 0x90A JUMP JUMPDEST PUSH1 0x1 PUSH1 0x1 PUSH1 0xA0 SHL SUB DUP4 AND CALLER SUB PUSH2 0x1B18 JUMPI PUSH1 0x40 MLOAD PUSH3 0x461BCD PUSH1 0xE5 SHL DUP2 MSTORE PUSH1 0x20 PUSH1 0x4 DUP3 ADD MSTORE PUSH1 0x18 PUSH1 0x24 DUP3 ADD MSTORE PUSH32 0x596F752063616E277420726566657220796F757273656C660000000000000000 PUSH1 0x44 DUP3 ADD MSTORE PUSH1 0x64 ADD PUSH2 0x90A JUMP JUMPDEST PUSH1 0x0 DUP6 DUP2 MSTORE PUSH1 0x3E PUSH1 0x20 MSTORE PUSH1 0x40 SWAP1 DUP2 SWAP1 KECCAK256 PUSH1 0x1 DUP2 ADD SLOAD SWAP2 MLOAD PUSH32 0x23B872DD00000000000000000000000000000000000000000000000000000000 DUP2 MSTORE CALLER PUSH1 0x4 DUP3 ADD MSTORE ADDRESS PUSH1 0x24 DUP3 ADD MSTORE PUSH1 0x44 DUP2 ADD DUP8 SWAP1 MSTORE SWAP1 SWAP2 PUSH1 0x1 PUSH1 0x1 PUSH1 0xA0 SHL SUB AND SWAP1 PUSH4 0x23B872DD SWAP1 PUSH1 0x64 ADD PUSH1 0x20 PUSH1 0x40 MLOAD DUP1 DUP4 SUB DUP2 PUSH1 0x0 DUP8 GAS CALL ISZERO DUP1 ISZERO PUSH2 0x1B99 JUMPI RETURNDATASIZE PUSH1 0x0 DUP1 RETURNDATACOPY RETURNDATASIZE PUSH1 0x0 REVERT JUMPDEST POP POP POP POP PUSH1 0x40 MLOAD RETURNDATASIZE PUSH1 0x1F NOT PUSH1 0x1F DUP3 ADD AND DUP3 ADD DUP1 PUSH1 0x40 MSTORE POP DUP2 ADD SWAP1 PUSH2 0x1BBD SWAP2 SWAP1 PUSH2 0x3A19 JUMP JUMPDEST PUSH2 0x1C09 JUMPI PUSH1 0x40 MLOAD PUSH3 0x461BCD PUSH1 0xE5 SHL DUP2 MSTORE PUSH1 0x20 PUSH1 0x4 DUP3 ADD MSTORE PUSH1 0x15 PUSH1 0x24 DUP3 ADD MSTORE PUSH32 0x546F6B656E207472616E73666572206661696C65640000000000000000000000 PUSH1 0x44 DUP3 ADD MSTORE PUSH1 0x64 ADD PUSH2 0x90A JUMP JUMPDEST CALLER PUSH1 0x0 SWAP1 DUP2 MSTORE PUSH1 0x3F PUSH1 0x20 SWAP1 DUP2 MSTORE PUSH1 0x40 DUP1 DUP4 KECCAK256 DUP10 DUP5 MSTORE DUP3 MSTORE DUP1 DUP4 KECCAK256 DUP2 MLOAD PUSH1 0xC0 DUP2 ADD DUP4 MSTORE DUP10 DUP2 MSTORE TIMESTAMP SWAP4 DUP2 ADD DUP5 SWAP1 MSTORE SWAP2 DUP3 ADD SWAP4 SWAP1 SWAP4 MSTORE PUSH1 0x60 DUP2 ADD SWAP2 SWAP1 SWAP2 MSTORE PUSH1 0x1 PUSH1 0x1 PUSH1 0xA0 SHL SUB DUP7 AND PUSH1 0x80 DUP3 ADD MSTORE PUSH1 0xA0 DUP2 ADD PUSH8 0xDE0B6B3A7640000 PUSH2 0x1C68 PUSH2 0x2083 JUMP JUMPDEST PUSH2 0x1C72 SWAP1 DUP11 PUSH2 0x3A62 JUMP JUMPDEST PUSH2 0x1C7C SWAP2 SWAP1 PUSH2 0x3A79 JUMP JUMPDEST SWAP1 MSTORE DUP2 SLOAD PUSH1 0x1 DUP1 DUP3 ADD DUP5 SSTORE PUSH1 0x0 SWAP4 DUP5 MSTORE PUSH1 0x20 DUP1 DUP6 KECCAK256 DUP5 MLOAD PUSH1 0x6 SWAP5 DUP6 MUL SWAP1 SWAP2 ADD SWAP1 DUP2 SSTORE DUP5 DUP3 ADD MLOAD SWAP3 DUP2 ADD SWAP3 SWAP1 SWAP3 SSTORE PUSH1 0x40 DUP1 DUP6 ADD MLOAD PUSH1 0x2 DUP5 ADD SSTORE PUSH1 0x60 DUP6 ADD MLOAD PUSH1 0x3 DUP5 ADD SSTORE PUSH1 0x80 DUP6 ADD MLOAD PUSH1 0x4 DUP5 ADD DUP1 SLOAD PUSH1 0x1 PUSH1 0x1 PUSH1 0xA0 SHL SUB NOT AND PUSH1 0x1 PUSH1 0x1 PUSH1 0xA0 SHL SUB SWAP1 SWAP3 AND SWAP2 SWAP1 SWAP2 OR SWAP1 SSTORE PUSH1 0xA0 SWAP1 SWAP5 ADD MLOAD PUSH1 0x5 SWAP1 SWAP3 ADD SWAP2 SWAP1 SWAP2 SSTORE DUP10 DUP5 MSTORE PUSH1 0x3E SWAP1 MSTORE SWAP1 DUP3 KECCAK256 ADD DUP1 SLOAD DUP8 SWAP3 SWAP1 PUSH2 0x1D0E SWAP1 DUP5 SWAP1 PUSH2 0x3A06 JUMP JUMPDEST SWAP1 SWAP2 SSTORE POP POP PUSH1 0x40 DUP1 MLOAD PUSH1 0xA0 DUP2 ADD DUP3 MSTORE CALLER PUSH1 0x0 SWAP1 DUP2 MSTORE PUSH1 0x42 PUSH1 0x20 MSTORE SWAP2 SWAP1 SWAP2 KECCAK256 SLOAD DUP2 SWAP1 PUSH2 0x1D3A SWAP1 DUP9 SWAP1 PUSH2 0x3A06 JUMP JUMPDEST DUP2 MSTORE CALLER PUSH1 0x0 SWAP1 DUP2 MSTORE PUSH1 0x42 PUSH1 0x20 SWAP1 DUP2 MSTORE PUSH1 0x40 SWAP1 SWAP2 KECCAK256 PUSH1 0x1 ADD SLOAD SWAP2 ADD SWAP1 PUSH2 0x1D60 SWAP1 DUP9 SWAP1 PUSH2 0x3A06 JUMP JUMPDEST DUP2 MSTORE CALLER PUSH1 0x0 DUP2 DUP2 MSTORE PUSH1 0x42 PUSH1 0x20 DUP2 DUP2 MSTORE PUSH1 0x40 DUP1 DUP5 KECCAK256 PUSH1 0x2 DUP2 ADD DUP1 SLOAD DUP5 DUP10 ADD MSTORE PUSH1 0x3 DUP3 ADD DUP1 SLOAD DUP5 DUP11 ADD MSTORE PUSH1 0x60 SWAP9 DUP10 ADD DUP8 SWAP1 MSTORE SWAP7 DUP7 MSTORE SWAP4 DUP4 MSTORE DUP8 MLOAD DUP2 SSTORE DUP8 DUP4 ADD MLOAD PUSH1 0x1 DUP3 ADD SSTORE DUP8 DUP3 ADD MLOAD SWAP1 SWAP4 SSTORE SWAP5 DUP7 ADD MLOAD SWAP1 SWAP4 SSTORE PUSH1 0x80 SWAP1 SWAP5 ADD MLOAD PUSH1 0x4 SWAP1 SWAP5 ADD SWAP4 SWAP1 SWAP4 SSTORE PUSH1 0x43 DUP2 MSTORE DUP2 DUP4 KECCAK256 DUP10 DUP5 MSTORE SWAP1 MSTORE DUP2 KECCAK256 DUP1 SLOAD DUP8 SWAP3 SWAP1 PUSH2 0x1DDE SWAP1 DUP5 SWAP1 PUSH2 0x3A06 JUMP JUMPDEST SWAP1 SWAP2 SSTORE POP POP PUSH1 0x1 PUSH1 0x1 PUSH1 0xA0 SHL SUB DUP5 AND PUSH1 0x0 SWAP1 DUP2 MSTORE PUSH1 0x42 PUSH1 0x20 MSTORE PUSH1 0x40 DUP2 KECCAK256 PUSH1 0x4 ADD DUP1 SLOAD PUSH1 0x1 SWAP3 SWAP1 PUSH2 0x1E0F SWAP1 DUP5 SWAP1 PUSH2 0x3A06 JUMP JUMPDEST SWAP1 SWAP2 SSTORE POP POP POP POP POP POP POP POP JUMP JUMPDEST PUSH2 0x1E25 CALLER PUSH2 0x35A0 JUMP JUMPDEST PUSH2 0x1E71 JUMPI PUSH1 0x40 MLOAD PUSH3 0x461BCD PUSH1 0xE5 SHL DUP2 MSTORE PUSH1 0x20 PUSH1 0x4 DUP3 ADD MSTORE PUSH1 0x11 PUSH1 0x24 DUP3 ADD MSTORE PUSH32 0x4E6F7420612076616C696420766F746572000000000000000000000000000000 PUSH1 0x44 DUP3 ADD MSTORE PUSH1 0x64 ADD PUSH2 0x90A JUMP JUMPDEST CALLER PUSH1 0x0 SWAP1 DUP2 MSTORE PUSH1 0x39 PUSH1 0x20 MSTORE PUSH1 0x40 SWAP1 KECCAK256 SLOAD PUSH1 0xFF AND ISZERO PUSH2 0x1ED1 JUMPI PUSH1 0x40 MLOAD PUSH3 0x461BCD PUSH1 0xE5 SHL DUP2 MSTORE PUSH1 0x20 PUSH1 0x4 DUP3 ADD MSTORE PUSH1 0xD PUSH1 0x24 DUP3 ADD MSTORE PUSH32 0x416C726561647920766F74656400000000000000000000000000000000000000 PUSH1 0x44 DUP3 ADD MSTORE PUSH1 0x64 ADD PUSH2 0x90A JUMP JUMPDEST CALLER PUSH1 0x0 DUP2 DUP2 MSTORE PUSH1 0x39 PUSH1 0x20 MSTORE PUSH1 0x40 SWAP1 DUP2 SWAP1 KECCAK256 DUP1 SLOAD PUSH1 0xFF NOT AND PUSH1 0x1 OR SWAP1 SSTORE MLOAD PUSH32 0xA4861C5510BFA99706ED508D728F9C6B365FF27AF1A3012E21980952AD2D844F SWAP1 PUSH2 0x1F1F SWAP1 DUP5 ISZERO ISZERO DUP2 MSTORE PUSH1 0x20 ADD SWAP1 JUMP JUMPDEST PUSH1 0x40 MLOAD DUP1 SWAP2 SUB SWAP1 LOG2 POP JUMP JUMPDEST PUSH1 0x3B SLOAD PUSH1 0x3C SLOAD PUSH1 0x0 SWAP2 DUP3 SWAP2 PUSH2 0x1F4B SWAP2 PUSH1 0x1 PUSH1 0x1 PUSH1 0xA0 SHL SUB SWAP1 DUP2 AND SWAP2 AND PUSH2 0x3309 JUMP JUMPDEST SWAP1 POP PUSH1 0x1 PUSH1 0x1 PUSH1 0xA0 SHL SUB DUP2 AND PUSH2 0x1F63 JUMPI PUSH1 0x0 SWAP2 POP POP SWAP1 JUMP JUMPDEST PUSH1 0x0 DUP1 PUSH2 0x1F6F DUP4 PUSH2 0x111C JUMP JUMPDEST PUSH1 0x3A SLOAD PUSH1 0x40 MLOAD PUSH32 0x85F8C25900000000000000000000000000000000000000000000000000000000 DUP2 MSTORE PUSH8 0xDE0B6B3A7640000 PUSH1 0x4 DUP3 ADD MSTORE PUSH14 0xFFFFFFFFFFFFFFFFFFFFFFFFFFFF DUP1 DUP5 AND PUSH1 0x24 DUP4 ADD MSTORE DUP5 AND PUSH1 0x44 DUP3 ADD MSTORE SWAP3 SWAP5 POP SWAP1 SWAP3 POP PUSH1 0x0 SWAP2 PUSH1 0x1 PUSH1 0x1 PUSH1 0xA0 SHL SUB SWAP1 SWAP2 AND SWAP1 PUSH4 0x85F8C259 SWAP1 PUSH1 0x64 ADD PUSH1 0x20 PUSH1 0x40 MLOAD DUP1 DUP4 SUB DUP2 DUP7 GAS STATICCALL ISZERO DUP1 ISZERO PUSH2 0x1FFF JUMPI RETURNDATASIZE PUSH1 0x0 DUP1 RETURNDATACOPY RETURNDATASIZE PUSH1 0x0 REVERT JUMPDEST POP POP POP POP PUSH1 0x40 MLOAD RETURNDATASIZE PUSH1 0x1F NOT PUSH1 0x1F DUP3 ADD AND DUP3 ADD DUP1 PUSH1 0x40 MSTORE POP DUP2 ADD SWAP1 PUSH2 0x2023 SWAP2 SWAP1 PUSH2 0x3AFE JUMP JUMPDEST SWAP6 SWAP5 POP POP POP POP POP JUMP JUMPDEST PUSH1 0x33 SLOAD PUSH1 0x1 PUSH1 0x1 PUSH1 0xA0 SHL SUB AND CALLER EQ PUSH2 0x207E JUMPI PUSH1 0x40 MLOAD PUSH3 0x461BCD PUSH1 0xE5 SHL DUP2 MSTORE PUSH1 0x20 PUSH1 0x4 DUP3 ADD MSTORE PUSH1 0x21 PUSH1 0x24 DUP3 ADD MSTORE PUSH1 0x0 DUP1 MLOAD PUSH1 0x20 PUSH2 0x3CE0 DUP4 CODECOPY DUP2 MLOAD SWAP2 MSTORE PUSH1 0x44 DUP3 ADD MSTORE PUSH1 0x37 PUSH1 0xF9 SHL PUSH1 0x64 DUP3 ADD MSTORE PUSH1 0x84 ADD PUSH2 0x90A JUMP JUMPDEST PUSH1 0x36 SSTORE JUMP JUMPDEST PUSH1 0x45 SLOAD PUSH1 0x40 DUP1 MLOAD PUSH32 0x3850C7BD00000000000000000000000000000000000000000000000000000000 DUP2 MSTORE SWAP1 MLOAD PUSH1 0x0 SWAP3 PUSH1 0x1 PUSH1 0x1 PUSH1 0xA0 SHL SUB AND SWAP2 DUP4 SWAP2 DUP4 SWAP2 PUSH4 0x3850C7BD SWAP2 PUSH1 0x4 DUP1 DUP4 ADD SWAP3 PUSH1 0xE0 SWAP3 SWAP2 SWAP1 DUP3 SWAP1 SUB ADD DUP2 DUP7 GAS STATICCALL ISZERO DUP1 ISZERO PUSH2 0x20EA JUMPI RETURNDATASIZE PUSH1 0x0 DUP1 RETURNDATACOPY RETURNDATASIZE PUSH1 0x0 REVERT JUMPDEST POP POP POP POP PUSH1 0x40 MLOAD RETURNDATASIZE PUSH1 0x1F NOT PUSH1 0x1F DUP3 ADD AND DUP3 ADD DUP1 PUSH1 0x40 MSTORE POP DUP2 ADD SWAP1 PUSH2 0x210E SWAP2 SWAP1 PUSH2 0x3B29 JUMP JUMPDEST POP POP POP POP POP POP SWAP1 POP PUSH1 0xC0 PUSH1 0x2 DUP3 PUSH1 0x1 PUSH1 0x1 PUSH1 0xA0 SHL SUB AND PUSH2 0x212E SWAP2 SWAP1 PUSH2 0x3CAC JUMP JUMPDEST PUSH2 0x2140 SWAP1 PUSH8 0xDE0B6B3A7640000 PUSH2 0x3A62 JUMP JUMPDEST SWAP1 SHR SWAP3 POP POP POP SWAP1 JUMP JUMPDEST PUSH1 0x33 SLOAD PUSH1 0x1 PUSH1 0x1 PUSH1 0xA0 SHL SUB AND CALLER EQ PUSH2 0x219B JUMPI PUSH1 0x40 MLOAD PUSH3 0x461BCD PUSH1 0xE5 SHL DUP2 MSTORE PUSH1 0x20 PUSH1 0x4 DUP3 ADD MSTORE PUSH1 0x21 PUSH1 0x24 DUP3 ADD MSTORE PUSH1 0x0 DUP1 MLOAD PUSH1 0x20 PUSH2 0x3CE0 DUP4 CODECOPY DUP2 MLOAD SWAP2 MSTORE PUSH1 0x44 DUP3 ADD MSTORE PUSH1 0x37 PUSH1 0xF9 SHL PUSH1 0x64 DUP3 ADD MSTORE PUSH1 0x84 ADD PUSH2 0x90A JUMP JUMPDEST PUSH2 0x21A3 PUSH2 0x3541 JUMP JUMPDEST PUSH1 0x40 MLOAD PUSH32 0x70A0823100000000000000000000000000000000000000000000000000000000 DUP2 MSTORE ADDRESS PUSH1 0x4 DUP3 ADD MSTORE PUSH1 0x1 PUSH1 0x1 PUSH1 0xA0 SHL SUB DUP3 AND SWAP1 PUSH4 0xA9059CBB SWAP1 DUP5 SWAP1 DUP4 SWAP1 PUSH4 0x70A08231 SWAP1 PUSH1 0x24 ADD PUSH1 0x20 PUSH1 0x40 MLOAD DUP1 DUP4 SUB DUP2 DUP7 GAS STATICCALL ISZERO DUP1 ISZERO PUSH2 0x220A JUMPI RETURNDATASIZE PUSH1 0x0 DUP1 RETURNDATACOPY RETURNDATASIZE PUSH1 0x0 REVERT JUMPDEST POP POP POP POP PUSH1 0x40 MLOAD RETURNDATASIZE PUSH1 0x1F NOT PUSH1 0x1F DUP3 ADD AND DUP3 ADD DUP1 PUSH1 0x40 MSTORE POP DUP2 ADD SWAP1 PUSH2 0x222E SWAP2 SWAP1 PUSH2 0x3AFE JUMP JUMPDEST PUSH1 0x40 MLOAD PUSH32 0xFFFFFFFF00000000000000000000000000000000000000000000000000000000 PUSH1 0xE0 DUP6 SWAP1 SHL AND DUP2 MSTORE PUSH1 0x1 PUSH1 0x1 PUSH1 0xA0 SHL SUB SWAP1 SWAP3 AND PUSH1 0x4 DUP4 ADD MSTORE PUSH1 0x24 DUP3 ADD MSTORE PUSH1 0x44 ADD PUSH1 0x20 PUSH1 0x40 MLOAD DUP1 DUP4 SUB DUP2 PUSH1 0x0 DUP8 GAS CALL ISZERO DUP1 ISZERO PUSH2 0x2291 JUMPI RETURNDATASIZE PUSH1 0x0 DUP1 RETURNDATACOPY RETURNDATASIZE PUSH1 0x0 REVERT JUMPDEST POP POP POP POP PUSH1 0x40 MLOAD RETURNDATASIZE PUSH1 0x1F NOT PUSH1 0x1F DUP3 ADD AND DUP3 ADD DUP1 PUSH1 0x40 MSTORE POP DUP2 ADD SWAP1 PUSH2 0x22B5 SWAP2 SWAP1 PUSH2 0x3A19 JUMP JUMPDEST POP PUSH2 0x22BF PUSH1 0x1 DUP1 SSTORE JUMP JUMPDEST POP POP JUMP JUMPDEST PUSH1 0x1 PUSH1 0x1 PUSH1 0xA0 SHL SUB DUP3 AND PUSH1 0x0 SWAP1 DUP2 MSTORE PUSH1 0x43 PUSH1 0x20 SWAP1 DUP2 MSTORE PUSH1 0x40 DUP1 DUP4 KECCAK256 DUP5 DUP5 MSTORE SWAP1 SWAP2 MSTORE DUP2 KECCAK256 SLOAD DUP2 SWAP1 ISZERO PUSH2 0x23EA JUMPI PUSH1 0x0 JUMPDEST PUSH1 0x1 PUSH1 0x1 PUSH1 0xA0 SHL SUB DUP6 AND PUSH1 0x0 SWAP1 DUP2 MSTORE PUSH1 0x3F PUSH1 0x20 SWAP1 DUP2 MSTORE PUSH1 0x40 DUP1 DUP4 KECCAK256 DUP8 DUP5 MSTORE SWAP1 SWAP2 MSTORE SWAP1 KECCAK256 SLOAD DUP2 LT ISZERO PUSH2 0x23E8 JUMPI PUSH1 0x0 DUP5 DUP2 MSTORE PUSH1 0x3E PUSH1 0x20 SWAP1 DUP2 MSTORE PUSH1 0x40 DUP1 DUP4 KECCAK256 SLOAD PUSH1 0x1 PUSH1 0x1 PUSH1 0xA0 SHL SUB DUP10 AND DUP5 MSTORE PUSH1 0x3F DUP4 MSTORE DUP2 DUP5 KECCAK256 DUP9 DUP6 MSTORE SWAP1 SWAP3 MSTORE SWAP1 SWAP2 KECCAK256 DUP1 SLOAD TIMESTAMP SWAP3 SWAP2 SWAP1 DUP5 SWAP1 DUP2 LT PUSH2 0x2360 JUMPI PUSH2 0x2360 PUSH2 0x39DA JUMP JUMPDEST SWAP1 PUSH1 0x0 MSTORE PUSH1 0x20 PUSH1 0x0 KECCAK256 SWAP1 PUSH1 0x6 MUL ADD PUSH1 0x3 ADD SLOAD PUSH2 0x237C SWAP2 SWAP1 PUSH2 0x3A06 JUMP JUMPDEST GT PUSH2 0x23D6 JUMPI PUSH1 0x1 PUSH1 0x1 PUSH1 0xA0 SHL SUB DUP6 AND PUSH1 0x0 SWAP1 DUP2 MSTORE PUSH1 0x3F PUSH1 0x20 SWAP1 DUP2 MSTORE PUSH1 0x40 DUP1 DUP4 KECCAK256 DUP8 DUP5 MSTORE SWAP1 SWAP2 MSTORE SWAP1 KECCAK256 DUP1 SLOAD DUP3 SWAP1 DUP2 LT PUSH2 0x23B6 JUMPI PUSH2 0x23B6 PUSH2 0x39DA JUMP JUMPDEST SWAP1 PUSH1 0x0 MSTORE PUSH1 0x20 PUSH1 0x0 KECCAK256 SWAP1 PUSH1 0x6 MUL ADD PUSH1 0x0 ADD SLOAD DUP3 PUSH2 0x23D3 SWAP2 SWAP1 PUSH2 0x3A06 JUMP JUMPDEST SWAP2 POP JUMPDEST DUP1 PUSH2 0x23E0 DUP2 PUSH2 0x3A49 JUMP JUMPDEST SWAP2 POP POP PUSH2 0x22F1 JUMP JUMPDEST POP JUMPDEST SWAP1 POP JUMPDEST SWAP3 SWAP2 POP POP JUMP JUMPDEST PUSH1 0x0 SLOAD PUSH2 0x100 SWAP1 DIV PUSH1 0xFF AND ISZERO DUP1 DUP1 ISZERO PUSH2 0x2413 JUMPI POP PUSH1 0x0 SLOAD PUSH1 0x1 PUSH1 0xFF SWAP1 SWAP2 AND LT JUMPDEST DUP1 PUSH2 0x242D JUMPI POP ADDRESS EXTCODESIZE ISZERO DUP1 ISZERO PUSH2 0x242D JUMPI POP PUSH1 0x0 SLOAD PUSH1 0xFF AND PUSH1 0x1 EQ JUMPDEST PUSH2 0x249F JUMPI PUSH1 0x40 MLOAD PUSH3 0x461BCD PUSH1 0xE5 SHL DUP2 MSTORE PUSH1 0x20 PUSH1 0x4 DUP3 ADD MSTORE PUSH1 0x2E PUSH1 0x24 DUP3 ADD MSTORE PUSH32 0x496E697469616C697A61626C653A20636F6E747261637420697320616C726561 PUSH1 0x44 DUP3 ADD MSTORE PUSH32 0x647920696E697469616C697A6564000000000000000000000000000000000000 PUSH1 0x64 DUP3 ADD MSTORE PUSH1 0x84 ADD PUSH2 0x90A JUMP JUMPDEST PUSH1 0x0 DUP1 SLOAD PUSH1 0xFF NOT AND PUSH1 0x1 OR SWAP1 SSTORE DUP1 ISZERO PUSH2 0x24C2 JUMPI PUSH1 0x0 DUP1 SLOAD PUSH2 0xFF00 NOT AND PUSH2 0x100 OR SWAP1 SSTORE JUMPDEST PUSH2 0x24CA PUSH2 0x3609 JUMP JUMPDEST PUSH1 0x33 DUP1 SLOAD PUSH1 0x1 PUSH1 0x1 PUSH1 0xA0 SHL SUB NOT SWAP1 DUP2 AND CALLER OR SWAP1 SWAP2 SSTORE PUSH4 0x1E13380 PUSH1 0x35 SSTORE PUSH5 0xE8D4A51000 PUSH1 0x36 SSTORE PUSH1 0x3A DUP1 SLOAD DUP3 AND PUSH20 0x9AC64CC6E4415144C455BD8E4837FEA55603E5C3 OR SWAP1 SSTORE PUSH1 0x3B DUP1 SLOAD DUP3 AND PUSH20 0x9F7B09EB38ED912AB5932DCCAD0B1F501ABFE6FD OR SWAP1 SSTORE PUSH1 0x3C DUP1 SLOAD DUP3 AND PUSH20 0xD1FAC5FF5D03B70D3383909692D09FC6D97C8219 OR SWAP1 SSTORE PUSH1 0x3D DUP1 SLOAD SWAP1 SWAP2 AND PUSH20 0xB7926C0430AFB07AA7DEFDE6DA862AE0BDE767BC OR SWAP1 SSTORE PUSH1 0x0 JUMPDEST DUP3 MLOAD DUP2 LT ISZERO PUSH2 0x25D6 JUMPI PUSH1 0x38 DUP4 DUP3 DUP2 MLOAD DUP2 LT PUSH2 0x2589 JUMPI PUSH2 0x2589 PUSH2 0x39DA JUMP JUMPDEST PUSH1 0x20 SWAP1 DUP2 MUL SWAP2 SWAP1 SWAP2 ADD DUP2 ADD MLOAD DUP3 SLOAD PUSH1 0x1 DUP2 ADD DUP5 SSTORE PUSH1 0x0 SWAP4 DUP5 MSTORE SWAP2 SWAP1 SWAP3 KECCAK256 ADD DUP1 SLOAD PUSH1 0x1 PUSH1 0x1 PUSH1 0xA0 SHL SUB NOT AND PUSH1 0x1 PUSH1 0x1 PUSH1 0xA0 SHL SUB SWAP1 SWAP3 AND SWAP2 SWAP1 SWAP2 OR SWAP1 SSTORE DUP1 PUSH2 0x25CE DUP2 PUSH2 0x3A49 JUMP JUMPDEST SWAP2 POP POP PUSH2 0x256C JUMP JUMPDEST POP DUP1 ISZERO PUSH2 0x22BF JUMPI PUSH1 0x0 DUP1 SLOAD PUSH2 0xFF00 NOT AND SWAP1 SSTORE PUSH1 0x40 MLOAD PUSH1 0x1 DUP2 MSTORE PUSH32 0x7F26B83FF96E1F2B6A682F133852F6798A09C465DA95921460CEFB3847402498 SWAP1 PUSH1 0x20 ADD PUSH1 0x40 MLOAD DUP1 SWAP2 SUB SWAP1 LOG1 POP POP JUMP JUMPDEST PUSH1 0x33 SLOAD PUSH1 0x1 PUSH1 0x1 PUSH1 0xA0 SHL SUB AND CALLER EQ PUSH2 0x2672 JUMPI PUSH1 0x40 MLOAD PUSH3 0x461BCD PUSH1 0xE5 SHL DUP2 MSTORE PUSH1 0x20 PUSH1 0x4 DUP3 ADD MSTORE PUSH1 0x21 PUSH1 0x24 DUP3 ADD MSTORE PUSH1 0x0 DUP1 MLOAD PUSH1 0x20 PUSH2 0x3CE0 DUP4 CODECOPY DUP2 MLOAD SWAP2 MSTORE PUSH1 0x44 DUP3 ADD MSTORE PUSH1 0x37 PUSH1 0xF9 SHL PUSH1 0x64 DUP3 ADD MSTORE PUSH1 0x84 ADD PUSH2 0x90A JUMP JUMPDEST PUSH1 0x3C DUP1 SLOAD PUSH1 0x1 PUSH1 0x1 PUSH1 0xA0 SHL SUB NOT AND PUSH1 0x1 PUSH1 0x1 PUSH1 0xA0 SHL SUB SWAP3 SWAP1 SWAP3 AND SWAP2 SWAP1 SWAP2 OR SWAP1 SSTORE JUMP JUMPDEST DUP1 PUSH1 0x34 SLOAD DUP2 LT PUSH2 0x26D5 JUMPI PUSH1 0x40 MLOAD PUSH3 0x461BCD PUSH1 0xE5 SHL DUP2 MSTORE PUSH1 0x20 PUSH1 0x4 DUP3 ADD MSTORE PUSH1 0xC PUSH1 0x24 DUP3 ADD MSTORE PUSH12 0x125B9D985B1A5908141BDBDB PUSH1 0xA2 SHL PUSH1 0x44 DUP3 ADD MSTORE PUSH1 0x64 ADD PUSH2 0x90A JUMP JUMPDEST PUSH2 0x26DD PUSH2 0x3541 JUMP JUMPDEST PUSH1 0x0 DUP3 DUP2 MSTORE PUSH1 0x3E PUSH1 0x20 MSTORE PUSH1 0x40 SWAP1 KECCAK256 PUSH1 0x5 ADD SLOAD DUP3 SWAP1 PUSH1 0xFF AND PUSH2 0x2735 JUMPI PUSH1 0x40 MLOAD PUSH3 0x461BCD PUSH1 0xE5 SHL DUP2 MSTORE PUSH1 0x20 PUSH1 0x4 DUP3 ADD MSTORE PUSH1 0x12 PUSH1 0x24 DUP3 ADD MSTORE PUSH18 0x506F6F6C204973204E6F7420416374697665 PUSH1 0x70 SHL PUSH1 0x44 DUP3 ADD MSTORE PUSH1 0x64 ADD PUSH2 0x90A JUMP JUMPDEST PUSH1 0x0 DUP4 DUP2 MSTORE PUSH1 0x3E PUSH1 0x20 MSTORE PUSH1 0x40 DUP2 KECCAK256 SWAP1 DUP1 JUMPDEST CALLER PUSH1 0x0 SWAP1 DUP2 MSTORE PUSH1 0x3F PUSH1 0x20 SWAP1 DUP2 MSTORE PUSH1 0x40 DUP1 DUP4 KECCAK256 DUP10 DUP5 MSTORE SWAP1 SWAP2 MSTORE SWAP1 KECCAK256 SLOAD DUP2 LT ISZERO PUSH2 0x29FA JUMPI CALLER PUSH1 0x0 SWAP1 DUP2 MSTORE PUSH1 0x3F PUSH1 0x20 SWAP1 DUP2 MSTORE PUSH1 0x40 DUP1 DUP4 KECCAK256 DUP10 DUP5 MSTORE SWAP1 SWAP2 MSTORE DUP2 KECCAK256 DUP1 SLOAD DUP4 SWAP1 DUP2 LT PUSH2 0x2794 JUMPI PUSH2 0x2794 PUSH2 0x39DA JUMP JUMPDEST SWAP1 PUSH1 0x0 MSTORE PUSH1 0x20 PUSH1 0x0 KECCAK256 SWAP1 PUSH1 0x6 MUL ADD SWAP1 POP PUSH1 0x0 DUP2 PUSH1 0x0 ADD SLOAD GT ISZERO PUSH2 0x29E7 JUMPI TIMESTAMP PUSH1 0x0 PUSH2 0x27BF DUP10 DUP6 CALLER PUSH2 0xEF1 JUMP JUMPDEST PUSH1 0x4 DUP5 ADD SLOAD SWAP1 SWAP2 POP PUSH1 0x1 PUSH1 0x1 PUSH1 0xA0 SHL SUB AND ISZERO PUSH2 0x298F JUMPI PUSH1 0x4 DUP1 DUP8 ADD SLOAD SWAP1 DUP5 ADD SLOAD PUSH1 0x1 PUSH1 0x1 PUSH1 0xA0 SHL SUB AND PUSH1 0x0 SWAP1 DUP2 MSTORE PUSH1 0x41 PUSH1 0x20 MSTORE PUSH1 0x40 SWAP1 KECCAK256 SLOAD ISZERO PUSH2 0x281B JUMPI POP PUSH1 0x4 DUP4 ADD SLOAD PUSH1 0x1 PUSH1 0x1 PUSH1 0xA0 SHL SUB AND PUSH1 0x0 SWAP1 DUP2 MSTORE PUSH1 0x41 PUSH1 0x20 MSTORE PUSH1 0x40 SWAP1 KECCAK256 SLOAD JUMPDEST PUSH1 0x0 PUSH2 0x2710 PUSH2 0x282A DUP4 DUP6 PUSH2 0x3A62 JUMP JUMPDEST PUSH2 0x2834 SWAP2 SWAP1 PUSH2 0x3A79 JUMP JUMPDEST GT ISZERO PUSH2 0x298D JUMPI PUSH1 0x2 DUP8 ADD SLOAD PUSH1 0x4 DUP6 ADD SLOAD PUSH1 0x1 PUSH1 0x1 PUSH1 0xA0 SHL SUB SWAP2 DUP3 AND SWAP2 PUSH4 0xA9059CBB SWAP2 AND PUSH2 0x2710 PUSH2 0x2864 DUP6 DUP8 PUSH2 0x3A62 JUMP JUMPDEST PUSH2 0x286E SWAP2 SWAP1 PUSH2 0x3A79 JUMP JUMPDEST PUSH1 0x40 MLOAD PUSH32 0xFFFFFFFF00000000000000000000000000000000000000000000000000000000 PUSH1 0xE0 DUP6 SWAP1 SHL AND DUP2 MSTORE PUSH1 0x1 PUSH1 0x1 PUSH1 0xA0 SHL SUB SWAP1 SWAP3 AND PUSH1 0x4 DUP4 ADD MSTORE PUSH1 0x24 DUP3 ADD MSTORE PUSH1 0x44 ADD PUSH1 0x20 PUSH1 0x40 MLOAD DUP1 DUP4 SUB DUP2 PUSH1 0x0 DUP8 GAS CALL ISZERO DUP1 ISZERO PUSH2 0x28D1 JUMPI RETURNDATASIZE PUSH1 0x0 DUP1 RETURNDATACOPY RETURNDATASIZE PUSH1 0x0 REVERT JUMPDEST POP POP POP POP PUSH1 0x40 MLOAD RETURNDATASIZE PUSH1 0x1F NOT PUSH1 0x1F DUP3 ADD AND DUP3 ADD DUP1 PUSH1 0x40 MSTORE POP DUP2 ADD SWAP1 PUSH2 0x28F5 SWAP2 SWAP1 PUSH2 0x3A19 JUMP JUMPDEST PUSH2 0x2941 JUMPI PUSH1 0x40 MLOAD PUSH3 0x461BCD PUSH1 0xE5 SHL DUP2 MSTORE PUSH1 0x20 PUSH1 0x4 DUP3 ADD MSTORE PUSH1 0x1F PUSH1 0x24 DUP3 ADD MSTORE PUSH32 0x526566657272616C20526577617264207472616E73666572206661696C656400 PUSH1 0x44 DUP3 ADD MSTORE PUSH1 0x64 ADD PUSH2 0x90A JUMP JUMPDEST PUSH2 0x2710 PUSH2 0x294E DUP3 DUP5 PUSH2 0x3A62 JUMP JUMPDEST PUSH2 0x2958 SWAP2 SWAP1 PUSH2 0x3A79 JUMP JUMPDEST PUSH1 0x4 DUP6 ADD SLOAD PUSH1 0x1 PUSH1 0x1 PUSH1 0xA0 SHL SUB AND PUSH1 0x0 SWAP1 DUP2 MSTORE PUSH1 0x42 PUSH1 0x20 MSTORE PUSH1 0x40 DUP2 KECCAK256 PUSH1 0x3 ADD DUP1 SLOAD SWAP1 SWAP2 SWAP1 PUSH2 0x2987 SWAP1 DUP5 SWAP1 PUSH2 0x3A06 JUMP JUMPDEST SWAP1 SWAP2 SSTORE POP POP JUMPDEST POP JUMPDEST CALLER PUSH1 0x0 SWAP1 DUP2 MSTORE PUSH1 0x42 PUSH1 0x20 MSTORE PUSH1 0x40 DUP2 KECCAK256 PUSH1 0x2 ADD DUP1 SLOAD DUP4 SWAP3 SWAP1 PUSH2 0x29B1 SWAP1 DUP5 SWAP1 PUSH2 0x3A06 JUMP JUMPDEST SWAP3 POP POP DUP2 SWAP1 SSTORE POP DUP1 DUP4 PUSH1 0x2 ADD PUSH1 0x0 DUP3 DUP3 SLOAD PUSH2 0x29CC SWAP2 SWAP1 PUSH2 0x3A06 JUMP JUMPDEST SWAP1 SWAP2 SSTORE POP POP PUSH1 0x1 DUP4 ADD DUP3 SWAP1 SSTORE PUSH2 0x29E2 DUP2 DUP7 PUSH2 0x3A06 JUMP JUMPDEST SWAP5 POP POP POP JUMPDEST POP DUP1 PUSH2 0x29F2 DUP2 PUSH2 0x3A49 JUMP JUMPDEST SWAP2 POP POP PUSH2 0x2746 JUMP JUMPDEST POP DUP1 ISZERO PUSH2 0x2AC4 JUMPI PUSH1 0x2 DUP3 ADD SLOAD PUSH1 0x40 MLOAD PUSH4 0xA9059CBB PUSH1 0xE0 SHL DUP2 MSTORE CALLER PUSH1 0x4 DUP3 ADD MSTORE PUSH1 0x24 DUP2 ADD DUP4 SWAP1 MSTORE PUSH1 0x1 PUSH1 0x1 PUSH1 0xA0 SHL SUB SWAP1 SWAP2 AND SWAP1 PUSH4 0xA9059CBB SWAP1 PUSH1 0x44 ADD PUSH1 0x20 PUSH1 0x40 MLOAD DUP1 DUP4 SUB DUP2 PUSH1 0x0 DUP8 GAS CALL ISZERO DUP1 ISZERO PUSH2 0x2A54 JUMPI RETURNDATASIZE PUSH1 0x0 DUP1 RETURNDATACOPY RETURNDATASIZE PUSH1 0x0 REVERT JUMPDEST POP POP POP POP PUSH1 0x40 MLOAD RETURNDATASIZE PUSH1 0x1F NOT PUSH1 0x1F DUP3 ADD AND DUP3 ADD DUP1 PUSH1 0x40 MSTORE POP DUP2 ADD SWAP1 PUSH2 0x2A78 SWAP2 SWAP1 PUSH2 0x3A19 JUMP JUMPDEST PUSH2 0x2AC4 JUMPI PUSH1 0x40 MLOAD PUSH3 0x461BCD PUSH1 0xE5 SHL DUP2 MSTORE PUSH1 0x20 PUSH1 0x4 DUP3 ADD MSTORE PUSH1 0x16 PUSH1 0x24 DUP3 ADD MSTORE PUSH32 0x526577617264207472616E73666572206661696C656400000000000000000000 PUSH1 0x44 DUP3 ADD MSTORE PUSH1 0x64 ADD PUSH2 0x90A JUMP JUMPDEST POP POP POP PUSH2 0x22BF PUSH1 0x1 DUP1 SSTORE JUMP JUMPDEST PUSH1 0x33 SLOAD PUSH1 0x1 PUSH1 0x1 PUSH1 0xA0 SHL SUB AND CALLER EQ PUSH2 0x2B22 JUMPI PUSH1 0x40 MLOAD PUSH3 0x461BCD PUSH1 0xE5 SHL DUP2 MSTORE PUSH1 0x20 PUSH1 0x4 DUP3 ADD MSTORE PUSH1 0x21 PUSH1 0x24 DUP3 ADD MSTORE PUSH1 0x0 DUP1 MLOAD PUSH1 0x20 PUSH2 0x3CE0 DUP4 CODECOPY DUP2 MLOAD SWAP2 MSTORE PUSH1 0x44 DUP3 ADD MSTORE PUSH1 0x37 PUSH1 0xF9 SHL PUSH1 0x64 DUP3 ADD MSTORE PUSH1 0x84 ADD PUSH2 0x90A JUMP JUMPDEST DUP2 PUSH1 0x34 SLOAD DUP2 LT PUSH2 0x2B63 JUMPI PUSH1 0x40 MLOAD PUSH3 0x461BCD PUSH1 0xE5 SHL DUP2 MSTORE PUSH1 0x20 PUSH1 0x4 DUP3 ADD MSTORE PUSH1 0xC PUSH1 0x24 DUP3 ADD MSTORE PUSH12 0x125B9D985B1A5908141BDBDB PUSH1 0xA2 SHL PUSH1 0x44 DUP3 ADD MSTORE PUSH1 0x64 ADD PUSH2 0x90A JUMP JUMPDEST PUSH1 0x0 DUP4 DUP2 MSTORE PUSH1 0x3E PUSH1 0x20 MSTORE PUSH1 0x40 SWAP1 KECCAK256 PUSH1 0x5 ADD SLOAD DUP4 SWAP1 PUSH1 0xFF AND PUSH2 0x2BBB JUMPI PUSH1 0x40 MLOAD PUSH3 0x461BCD PUSH1 0xE5 SHL DUP2 MSTORE PUSH1 0x20 PUSH1 0x4 DUP3 ADD MSTORE PUSH1 0x12 PUSH1 0x24 DUP3 ADD MSTORE PUSH18 0x506F6F6C204973204E6F7420416374697665 PUSH1 0x70 SHL PUSH1 0x44 DUP3 ADD MSTORE PUSH1 0x64 ADD PUSH2 0x90A JUMP JUMPDEST PUSH1 0x0 DUP5 GT DUP1 ISZERO PUSH2 0x2BCD JUMPI POP PUSH1 0x34 SLOAD DUP5 GT ISZERO JUMPDEST PUSH2 0x2C0B JUMPI PUSH1 0x40 MLOAD PUSH3 0x461BCD PUSH1 0xE5 SHL DUP2 MSTORE PUSH1 0x20 PUSH1 0x4 DUP3 ADD MSTORE PUSH1 0xF PUSH1 0x24 DUP3 ADD MSTORE PUSH15 0x125B9D985B1A59081C1BDBDB081251 PUSH1 0x8A SHL PUSH1 0x44 DUP3 ADD MSTORE PUSH1 0x64 ADD PUSH2 0x90A JUMP JUMPDEST POP POP PUSH1 0x0 SWAP2 DUP3 MSTORE PUSH1 0x3E PUSH1 0x20 MSTORE PUSH1 0x40 SWAP1 SWAP2 KECCAK256 SSTORE JUMP JUMPDEST PUSH1 0x33 SLOAD PUSH1 0x1 PUSH1 0x1 PUSH1 0xA0 SHL SUB AND CALLER EQ PUSH2 0x2C71 JUMPI PUSH1 0x40 MLOAD PUSH3 0x461BCD PUSH1 0xE5 SHL DUP2 MSTORE PUSH1 0x20 PUSH1 0x4 DUP3 ADD MSTORE PUSH1 0x21 PUSH1 0x24 DUP3 ADD MSTORE PUSH1 0x0 DUP1 MLOAD PUSH1 0x20 PUSH2 0x3CE0 DUP4 CODECOPY DUP2 MLOAD SWAP2 MSTORE PUSH1 0x44 DUP3 ADD MSTORE PUSH1 0x37 PUSH1 0xF9 SHL PUSH1 0x64 DUP3 ADD MSTORE PUSH1 0x84 ADD PUSH2 0x90A JUMP JUMPDEST PUSH2 0x2C79 PUSH2 0x3541 JUMP JUMPDEST DUP2 PUSH1 0x34 SLOAD DUP2 LT PUSH2 0x2CBA JUMPI PUSH1 0x40 MLOAD PUSH3 0x461BCD PUSH1 0xE5 SHL DUP2 MSTORE PUSH1 0x20 PUSH1 0x4 DUP3 ADD MSTORE PUSH1 0xC PUSH1 0x24 DUP3 ADD MSTORE PUSH12 0x125B9D985B1A5908141BDBDB PUSH1 0xA2 SHL PUSH1 0x44 DUP3 ADD MSTORE PUSH1 0x64 ADD PUSH2 0x90A JUMP JUMPDEST PUSH1 0x0 DUP4 DUP2 MSTORE PUSH1 0x3E PUSH1 0x20 MSTORE PUSH1 0x40 SWAP1 KECCAK256 PUSH1 0x5 ADD SLOAD DUP4 SWAP1 PUSH1 0xFF AND PUSH2 0x2D12 JUMPI PUSH1 0x40 MLOAD PUSH3 0x461BCD PUSH1 0xE5 SHL DUP2 MSTORE PUSH1 0x20 PUSH1 0x4 DUP3 ADD MSTORE PUSH1 0x12 PUSH1 0x24 DUP3 ADD MSTORE PUSH18 0x506F6F6C204973204E6F7420416374697665 PUSH1 0x70 SHL PUSH1 0x44 DUP3 ADD MSTORE PUSH1 0x64 ADD PUSH2 0x90A JUMP JUMPDEST PUSH1 0x0 DUP5 GT DUP1 ISZERO PUSH2 0x2D24 JUMPI POP PUSH1 0x34 SLOAD DUP5 GT ISZERO JUMPDEST PUSH2 0x2D62 JUMPI PUSH1 0x40 MLOAD PUSH3 0x461BCD PUSH1 0xE5 SHL DUP2 MSTORE PUSH1 0x20 PUSH1 0x4 DUP3 ADD MSTORE PUSH1 0xF PUSH1 0x24 DUP3 ADD MSTORE PUSH15 0x125B9D985B1A59081C1BDBDB081251 PUSH1 0x8A SHL PUSH1 0x44 DUP3 ADD MSTORE PUSH1 0x64 ADD PUSH2 0x90A JUMP JUMPDEST POP POP PUSH1 0x0 DUP3 DUP2 MSTORE PUSH1 0x3E PUSH1 0x20 MSTORE PUSH1 0x40 SWAP1 KECCAK256 PUSH1 0x2 ADD DUP1 SLOAD PUSH1 0x1 PUSH1 0x1 PUSH1 0xA0 SHL SUB NOT AND PUSH1 0x1 PUSH1 0x1 PUSH1 0xA0 SHL SUB DUP4 AND OR SWAP1 SSTORE PUSH1 0x1 DUP1 SSTORE POP POP JUMP JUMPDEST PUSH1 0x33 SLOAD PUSH1 0x1 PUSH1 0x1 PUSH1 0xA0 SHL SUB AND CALLER EQ PUSH2 0x2DE8 JUMPI PUSH1 0x40 MLOAD PUSH3 0x461BCD PUSH1 0xE5 SHL DUP2 MSTORE PUSH1 0x20 PUSH1 0x4 DUP3 ADD MSTORE PUSH1 0x21 PUSH1 0x24 DUP3 ADD MSTORE PUSH1 0x0 DUP1 MLOAD PUSH1 0x20 PUSH2 0x3CE0 DUP4 CODECOPY DUP2 MLOAD SWAP2 MSTORE PUSH1 0x44 DUP3 ADD MSTORE PUSH1 0x37 PUSH1 0xF9 SHL PUSH1 0x64 DUP3 ADD MSTORE PUSH1 0x84 ADD PUSH2 0x90A JUMP JUMPDEST DUP2 PUSH1 0x34 SLOAD DUP2 LT PUSH2 0x2E29 JUMPI PUSH1 0x40 MLOAD PUSH3 0x461BCD PUSH1 0xE5 SHL DUP2 MSTORE PUSH1 0x20 PUSH1 0x4 DUP3 ADD MSTORE PUSH1 0xC PUSH1 0x24 DUP3 ADD MSTORE PUSH12 0x125B9D985B1A5908141BDBDB PUSH1 0xA2 SHL PUSH1 0x44 DUP3 ADD MSTORE PUSH1 0x64 ADD PUSH2 0x90A JUMP JUMPDEST PUSH1 0x0 DUP4 DUP2 MSTORE PUSH1 0x3E PUSH1 0x20 MSTORE PUSH1 0x40 SWAP1 KECCAK256 PUSH1 0x5 ADD SLOAD DUP4 SWAP1 PUSH1 0xFF AND PUSH2 0x2E81 JUMPI PUSH1 0x40 MLOAD PUSH3 0x461BCD PUSH1 0xE5 SHL DUP2 MSTORE PUSH1 0x20 PUSH1 0x4 DUP3 ADD MSTORE PUSH1 0x12 PUSH1 0x24 DUP3 ADD MSTORE PUSH18 0x506F6F6C204973204E6F7420416374697665 PUSH1 0x70 SHL PUSH1 0x44 DUP3 ADD MSTORE PUSH1 0x64 ADD PUSH2 0x90A JUMP JUMPDEST POP POP PUSH1 0x0 SWAP2 DUP3 MSTORE PUSH1 0x3E PUSH1 0x20 MSTORE PUSH1 0x40 SWAP1 SWAP2 KECCAK256 PUSH1 0x4 ADD SSTORE JUMP JUMPDEST PUSH1 0x33 SLOAD PUSH1 0x1 PUSH1 0x1 PUSH1 0xA0 SHL SUB AND CALLER EQ PUSH2 0x2EEA JUMPI PUSH1 0x40 MLOAD PUSH3 0x461BCD PUSH1 0xE5 SHL DUP2 MSTORE PUSH1 0x20 PUSH1 0x4 DUP3 ADD MSTORE PUSH1 0x21 PUSH1 0x24 DUP3 ADD MSTORE PUSH1 0x0 DUP1 MLOAD PUSH1 0x20 PUSH2 0x3CE0 DUP4 CODECOPY DUP2 MLOAD SWAP2 MSTORE PUSH1 0x44 DUP3 ADD MSTORE PUSH1 0x37 PUSH1 0xF9 SHL PUSH1 0x64 DUP3 ADD MSTORE PUSH1 0x84 ADD PUSH2 0x90A JUMP JUMPDEST PUSH1 0x38 SLOAD PUSH1 0x0 SWAP1 DUP2 JUMPDEST DUP2 DUP2 LT ISZERO PUSH2 0x2F5E JUMPI PUSH1 0x39 PUSH1 0x0 PUSH1 0x38 DUP4 DUP2 SLOAD DUP2 LT PUSH2 0x2F11 JUMPI PUSH2 0x2F11 PUSH2 0x39DA JUMP JUMPDEST PUSH1 0x0 SWAP2 DUP3 MSTORE PUSH1 0x20 DUP1 DUP4 KECCAK256 SWAP1 SWAP2 ADD SLOAD PUSH1 0x1 PUSH1 0x1 PUSH1 0xA0 SHL SUB AND DUP4 MSTORE DUP3 ADD SWAP3 SWAP1 SWAP3 MSTORE PUSH1 0x40 ADD SWAP1 KECCAK256 SLOAD PUSH1 0xFF AND ISZERO PUSH2 0x2F4C JUMPI DUP3 PUSH2 0x2F48 DUP2 PUSH2 0x3A49 JUMP JUMPDEST SWAP4 POP POP JUMPDEST DUP1 PUSH2 0x2F56 DUP2 PUSH2 0x3A49 JUMP JUMPDEST SWAP2 POP POP PUSH2 0x2EF2 JUMP JUMPDEST POP DUP2 DUP2 EQ DUP1 PUSH2 0x2FAF JUMPI PUSH1 0x40 MLOAD PUSH3 0x461BCD PUSH1 0xE5 SHL DUP2 MSTORE PUSH1 0x20 PUSH1 0x4 DUP3 ADD MSTORE PUSH1 0x16 PUSH1 0x24 DUP3 ADD MSTORE PUSH32 0x496E73756666696369656E7420617070726F76616C7300000000000000000000 PUSH1 0x44 DUP3 ADD MSTORE PUSH1 0x64 ADD PUSH2 0x90A JUMP JUMPDEST PUSH1 0x37 DUP1 SLOAD PUSH1 0x33 DUP1 SLOAD PUSH1 0x1 PUSH1 0x1 PUSH1 0xA0 SHL SUB DUP4 AND PUSH1 0x1 PUSH1 0x1 PUSH1 0xA0 SHL SUB NOT SWAP2 DUP3 AND DUP2 OR SWAP1 SWAP3 SSTORE SWAP1 SWAP2 AND SWAP1 SWAP2 SSTORE PUSH1 0x0 JUMPDEST DUP4 DUP2 LT ISZERO PUSH2 0x1560 JUMPI PUSH1 0x0 PUSH1 0x39 PUSH1 0x0 PUSH1 0x38 DUP5 DUP2 SLOAD DUP2 LT PUSH2 0x2FFC JUMPI PUSH2 0x2FFC PUSH2 0x39DA JUMP JUMPDEST PUSH1 0x0 SWAP2 DUP3 MSTORE PUSH1 0x20 DUP1 DUP4 KECCAK256 SWAP2 SWAP1 SWAP2 ADD SLOAD PUSH1 0x1 PUSH1 0x1 PUSH1 0xA0 SHL SUB AND DUP4 MSTORE DUP3 ADD SWAP3 SWAP1 SWAP3 MSTORE PUSH1 0x40 ADD SWAP1 KECCAK256 DUP1 SLOAD PUSH1 0xFF NOT AND SWAP2 ISZERO ISZERO SWAP2 SWAP1 SWAP2 OR SWAP1 SSTORE DUP1 PUSH2 0x303A DUP2 PUSH2 0x3A49 JUMP JUMPDEST SWAP2 POP POP PUSH2 0x2FDB JUMP JUMPDEST PUSH1 0x33 SLOAD PUSH1 0x1 PUSH1 0x1 PUSH1 0xA0 SHL SUB AND CALLER EQ PUSH2 0x3094 JUMPI PUSH1 0x40 MLOAD PUSH3 0x461BCD PUSH1 0xE5 SHL DUP2 MSTORE PUSH1 0x20 PUSH1 0x4 DUP3 ADD MSTORE PUSH1 0x21 PUSH1 0x24 DUP3 ADD MSTORE PUSH1 0x0 DUP1 MLOAD PUSH1 0x20 PUSH2 0x3CE0 DUP4 CODECOPY DUP2 MLOAD SWAP2 MSTORE PUSH1 0x44 DUP3 ADD MSTORE PUSH1 0x37 PUSH1 0xF9 SHL PUSH1 0x64 DUP3 ADD MSTORE PUSH1 0x84 ADD PUSH2 0x90A JUMP JUMPDEST PUSH1 0x3A DUP1 SLOAD PUSH1 0x1 PUSH1 0x1 PUSH1 0xA0 SHL SUB NOT AND PUSH1 0x1 PUSH1 0x1 PUSH1 0xA0 SHL SUB SWAP3 SWAP1 SWAP3 AND SWAP2 SWAP1 SWAP2 OR SWAP1 SSTORE JUMP JUMPDEST PUSH1 0x0 DUP1 DUP1 JUMPDEST PUSH1 0x1 PUSH1 0x1 PUSH1 0xA0 SHL SUB DUP5 AND PUSH1 0x0 SWAP1 DUP2 MSTORE PUSH1 0x3F PUSH1 0x20 SWAP1 DUP2 MSTORE PUSH1 0x40 DUP1 DUP4 KECCAK256 DUP9 DUP5 MSTORE SWAP1 SWAP2 MSTORE SWAP1 KECCAK256 SLOAD DUP2 LT ISZERO PUSH2 0x23E8 JUMPI PUSH2 0x30F1 DUP6 DUP3 DUP7 PUSH2 0xEF1 JUMP JUMPDEST PUSH2 0x30FB SWAP1 DUP4 PUSH2 0x3A06 JUMP JUMPDEST SWAP2 POP DUP1 PUSH2 0x3107 DUP2 PUSH2 0x3A49 JUMP JUMPDEST SWAP2 POP POP PUSH2 0x30BB JUMP JUMPDEST PUSH1 0x33 SLOAD PUSH1 0x1 PUSH1 0x1 PUSH1 0xA0 SHL SUB AND CALLER EQ PUSH2 0x3161 JUMPI PUSH1 0x40 MLOAD PUSH3 0x461BCD PUSH1 0xE5 SHL DUP2 MSTORE PUSH1 0x20 PUSH1 0x4 DUP3 ADD MSTORE PUSH1 0x21 PUSH1 0x24 DUP3 ADD MSTORE PUSH1 0x0 DUP1 MLOAD PUSH1 0x20 PUSH2 0x3CE0 DUP4 CODECOPY DUP2 MLOAD SWAP2 MSTORE PUSH1 0x44 DUP3 ADD MSTORE PUSH1 0x37 PUSH1 0xF9 SHL PUSH1 0x64 DUP3 ADD MSTORE PUSH1 0x84 ADD PUSH2 0x90A JUMP JUMPDEST PUSH2 0x3169 PUSH2 0x3541 JUMP JUMPDEST DUP2 PUSH1 0x34 SLOAD DUP2 LT PUSH2 0x31AA JUMPI PUSH1 0x40 MLOAD PUSH3 0x461BCD PUSH1 0xE5 SHL DUP2 MSTORE PUSH1 0x20 PUSH1 0x4 DUP3 ADD MSTORE PUSH1 0xC PUSH1 0x24 DUP3 ADD MSTORE PUSH12 0x125B9D985B1A5908141BDBDB PUSH1 0xA2 SHL PUSH1 0x44 DUP3 ADD MSTORE PUSH1 0x64 ADD PUSH2 0x90A JUMP JUMPDEST PUSH1 0x0 DUP4 DUP2 MSTORE PUSH1 0x3E PUSH1 0x20 MSTORE PUSH1 0x40 SWAP1 KECCAK256 PUSH1 0x5 ADD SLOAD DUP4 SWAP1 PUSH1 0xFF AND PUSH2 0x3202 JUMPI PUSH1 0x40 MLOAD PUSH3 0x461BCD PUSH1 0xE5 SHL DUP2 MSTORE PUSH1 0x20 PUSH1 0x4 DUP3 ADD MSTORE PUSH1 0x12 PUSH1 0x24 DUP3 ADD MSTORE PUSH18 0x506F6F6C204973204E6F7420416374697665 PUSH1 0x70 SHL PUSH1 0x44 DUP3 ADD MSTORE PUSH1 0x64 ADD PUSH2 0x90A JUMP JUMPDEST PUSH1 0x0 DUP5 GT DUP1 ISZERO PUSH2 0x3214 JUMPI POP PUSH1 0x34 SLOAD DUP5 GT ISZERO JUMPDEST PUSH2 0x3252 JUMPI PUSH1 0x40 MLOAD PUSH3 0x461BCD PUSH1 0xE5 SHL DUP2 MSTORE PUSH1 0x20 PUSH1 0x4 DUP3 ADD MSTORE PUSH1 0xF PUSH1 0x24 DUP3 ADD MSTORE PUSH15 0x125B9D985B1A59081C1BDBDB081251 PUSH1 0x8A SHL PUSH1 0x44 DUP3 ADD MSTORE PUSH1 0x64 ADD PUSH2 0x90A JUMP JUMPDEST POP POP PUSH1 0x0 DUP3 DUP2 MSTORE PUSH1 0x3E PUSH1 0x20 MSTORE PUSH1 0x40 SWAP1 KECCAK256 PUSH1 0x3 ADD DUP2 SWAP1 SSTORE PUSH2 0x22BF PUSH1 0x1 DUP1 SSTORE JUMP JUMPDEST PUSH1 0x38 DUP2 DUP2 SLOAD DUP2 LT PUSH2 0x3281 JUMPI PUSH1 0x0 DUP1 REVERT JUMPDEST PUSH1 0x0 SWAP2 DUP3 MSTORE PUSH1 0x20 SWAP1 SWAP2 KECCAK256 ADD SLOAD PUSH1 0x1 PUSH1 0x1 PUSH1 0xA0 SHL SUB AND SWAP1 POP DUP2 JUMP JUMPDEST PUSH1 0x33 SLOAD PUSH1 0x1 PUSH1 0x1 PUSH1 0xA0 SHL SUB AND CALLER EQ PUSH2 0x32ED JUMPI PUSH1 0x40 MLOAD PUSH3 0x461BCD PUSH1 0xE5 SHL DUP2 MSTORE PUSH1 0x20 PUSH1 0x4 DUP3 ADD MSTORE PUSH1 0x21 PUSH1 0x24 DUP3 ADD MSTORE PUSH1 0x0 DUP1 MLOAD PUSH1 0x20 PUSH2 0x3CE0 DUP4 CODECOPY DUP2 MLOAD SWAP2 MSTORE PUSH1 0x44 DUP3 ADD MSTORE PUSH1 0x37 PUSH1 0xF9 SHL PUSH1 0x64 DUP3 ADD MSTORE PUSH1 0x84 ADD PUSH2 0x90A JUMP JUMPDEST PUSH1 0x1 PUSH1 0x1 PUSH1 0xA0 SHL SUB SWAP1 SWAP2 AND PUSH1 0x0 SWAP1 DUP2 MSTORE PUSH1 0x41 PUSH1 0x20 MSTORE PUSH1 0x40 SWAP1 KECCAK256 SSTORE JUMP JUMPDEST PUSH1 0x3D SLOAD PUSH1 0x40 MLOAD PUSH32 0xE6A4390500000000000000000000000000000000000000000000000000000000 DUP2 MSTORE PUSH1 0x1 PUSH1 0x1 PUSH1 0xA0 SHL SUB DUP5 DUP2 AND PUSH1 0x4 DUP4 ADD MSTORE DUP4 DUP2 AND PUSH1 0x24 DUP4 ADD MSTORE PUSH1 0x0 SWAP3 DUP4 SWAP3 SWAP2 AND SWAP1 PUSH4 0xE6A43905 SWAP1 PUSH1 0x44 ADD PUSH1 0x20 PUSH1 0x40 MLOAD DUP1 DUP4 SUB DUP2 DUP7 GAS STATICCALL ISZERO DUP1 ISZERO PUSH2 0x3378 JUMPI RETURNDATASIZE PUSH1 0x0 DUP1 RETURNDATACOPY RETURNDATASIZE PUSH1 0x0 REVERT JUMPDEST POP POP POP POP PUSH1 0x40 MLOAD RETURNDATASIZE PUSH1 0x1F NOT PUSH1 0x1F DUP3 ADD AND DUP3 ADD DUP1 PUSH1 0x40 MSTORE POP DUP2 ADD SWAP1 PUSH2 0x339C SWAP2 SWAP1 PUSH2 0x3CC2 JUMP JUMPDEST SWAP5 SWAP4 POP POP POP POP JUMP JUMPDEST PUSH1 0x33 SLOAD PUSH1 0x1 PUSH1 0x1 PUSH1 0xA0 SHL SUB AND CALLER EQ PUSH2 0x33F6 JUMPI PUSH1 0x40 MLOAD PUSH3 0x461BCD PUSH1 0xE5 SHL DUP2 MSTORE PUSH1 0x20 PUSH1 0x4 DUP3 ADD MSTORE PUSH1 0x21 PUSH1 0x24 DUP3 ADD MSTORE PUSH1 0x0 DUP1 MLOAD PUSH1 0x20 PUSH2 0x3CE0 DUP4 CODECOPY DUP2 MLOAD SWAP2 MSTORE PUSH1 0x44 DUP3 ADD MSTORE PUSH1 0x37 PUSH1 0xF9 SHL PUSH1 0x64 DUP3 ADD MSTORE PUSH1 0x84 ADD PUSH2 0x90A JUMP JUMPDEST PUSH1 0x45 DUP1 SLOAD PUSH1 0x1 PUSH1 0x1 PUSH1 0xA0 SHL SUB NOT AND PUSH1 0x1 PUSH1 0x1 PUSH1 0xA0 SHL SUB SWAP3 SWAP1 SWAP3 AND SWAP2 SWAP1 SWAP2 OR SWAP1 SSTORE JUMP JUMPDEST PUSH1 0x33 SLOAD PUSH1 0x1 PUSH1 0x1 PUSH1 0xA0 SHL SUB AND CALLER EQ PUSH2 0x346A JUMPI PUSH1 0x40 MLOAD PUSH3 0x461BCD PUSH1 0xE5 SHL DUP2 MSTORE PUSH1 0x20 PUSH1 0x4 DUP3 ADD MSTORE PUSH1 0x21 PUSH1 0x24 DUP3 ADD MSTORE PUSH1 0x0 DUP1 MLOAD PUSH1 0x20 PUSH2 0x3CE0 DUP4 CODECOPY DUP2 MLOAD SWAP2 MSTORE PUSH1 0x44 DUP3 ADD MSTORE PUSH1 0x37 PUSH1 0xF9 SHL PUSH1 0x64 DUP3 ADD MSTORE PUSH1 0x84 ADD PUSH2 0x90A JUMP JUMPDEST PUSH2 0x3472 PUSH2 0x3541 JUMP JUMPDEST PUSH1 0x40 DUP1 MLOAD PUSH1 0xE0 DUP2 ADD DUP3 MSTORE DUP7 DUP2 MSTORE PUSH1 0x1 PUSH1 0x1 PUSH1 0xA0 SHL SUB DUP1 DUP8 AND PUSH1 0x20 DUP1 DUP5 ADD SWAP2 DUP3 MSTORE DUP8 DUP4 AND DUP5 DUP7 ADD SWAP1 DUP2 MSTORE PUSH1 0x60 DUP6 ADD DUP9 DUP2 MSTORE PUSH1 0x80 DUP7 ADD DUP9 DUP2 MSTORE PUSH1 0x1 PUSH1 0xA0 DUP9 ADD DUP2 DUP2 MSTORE PUSH1 0x0 PUSH1 0xC0 DUP11 ADD DUP2 DUP2 MSTORE PUSH1 0x34 DUP1 SLOAD DUP4 MSTORE PUSH1 0x3E SWAP1 SWAP9 MSTORE SWAP11 DUP2 KECCAK256 SWAP10 MLOAD DUP11 SSTORE SWAP7 MLOAD SWAP2 DUP10 ADD DUP1 SLOAD SWAP3 DUP10 AND PUSH1 0x1 PUSH1 0x1 PUSH1 0xA0 SHL SUB NOT SWAP4 DUP5 AND OR SWAP1 SSTORE SWAP4 MLOAD PUSH1 0x2 DUP10 ADD DUP1 SLOAD SWAP2 SWAP1 SWAP9 AND SWAP2 AND OR SWAP1 SWAP6 SSTORE MLOAD PUSH1 0x3 DUP7 ADD SSTORE SWAP3 MLOAD PUSH1 0x4 DUP6 ADD SSTORE SWAP2 MLOAD PUSH1 0x5 DUP5 ADD DUP1 SLOAD SWAP2 ISZERO ISZERO PUSH1 0xFF NOT SWAP1 SWAP3 AND SWAP2 SWAP1 SWAP2 OR SWAP1 SSTORE SWAP3 MLOAD PUSH1 0x6 SWAP1 SWAP3 ADD SWAP2 SWAP1 SWAP2 SSTORE DUP1 SLOAD SWAP2 PUSH2 0x3533 DUP4 PUSH2 0x3A49 JUMP JUMPDEST SWAP2 SWAP1 POP SSTORE POP PUSH2 0x1560 PUSH1 0x1 DUP1 SSTORE JUMP JUMPDEST PUSH1 0x2 PUSH1 0x1 SLOAD SUB PUSH2 0x3593 JUMPI PUSH1 0x40 MLOAD PUSH3 0x461BCD PUSH1 0xE5 SHL DUP2 MSTORE PUSH1 0x20 PUSH1 0x4 DUP3 ADD MSTORE PUSH1 0x1F PUSH1 0x24 DUP3 ADD MSTORE PUSH32 0x5265656E7472616E637947756172643A207265656E7472616E742063616C6C00 PUSH1 0x44 DUP3 ADD MSTORE PUSH1 0x64 ADD PUSH2 0x90A JUMP JUMPDEST PUSH1 0x2 PUSH1 0x1 SSTORE JUMP JUMPDEST PUSH1 0x1 DUP1 SSTORE JUMP JUMPDEST PUSH1 0x0 DUP1 JUMPDEST PUSH1 0x38 SLOAD DUP2 LT ISZERO PUSH2 0x3600 JUMPI DUP3 PUSH1 0x1 PUSH1 0x1 PUSH1 0xA0 SHL SUB AND PUSH1 0x38 DUP3 DUP2 SLOAD DUP2 LT PUSH2 0x35CB JUMPI PUSH2 0x35CB PUSH2 0x39DA JUMP JUMPDEST PUSH1 0x0 SWAP2 DUP3 MSTORE PUSH1 0x20 SWAP1 SWAP2 KECCAK256 ADD SLOAD PUSH1 0x1 PUSH1 0x1 PUSH1 0xA0 SHL SUB AND SUB PUSH2 0x35EE JUMPI POP PUSH1 0x1 SWAP3 SWAP2 POP POP JUMP JUMPDEST DUP1 PUSH2 0x35F8 DUP2 PUSH2 0x3A49 JUMP JUMPDEST SWAP2 POP POP PUSH2 0x35A4 JUMP JUMPDEST POP PUSH1 0x0 SWAP3 SWAP2 POP POP JUMP JUMPDEST PUSH1 0x0 SLOAD PUSH2 0x100 SWAP1 DIV PUSH1 0xFF AND PUSH2 0x3686 JUMPI PUSH1 0x40 MLOAD PUSH3 0x461BCD PUSH1 0xE5 SHL DUP2 MSTORE PUSH1 0x20 PUSH1 0x4 DUP3 ADD MSTORE PUSH1 0x2B PUSH1 0x24 DUP3 ADD MSTORE PUSH32 0x496E697469616C697A61626C653A20636F6E7472616374206973206E6F742069 PUSH1 0x44 DUP3 ADD MSTORE PUSH32 0x6E697469616C697A696E67000000000000000000000000000000000000000000 PUSH1 0x64 DUP3 ADD MSTORE PUSH1 0x84 ADD PUSH2 0x90A JUMP JUMPDEST PUSH2 0x368E PUSH2 0x3690 JUMP JUMPDEST JUMP JUMPDEST PUSH1 0x0 SLOAD PUSH2 0x100 SWAP1 DIV PUSH1 0xFF AND PUSH2 0x359A JUMPI PUSH1 0x40 MLOAD PUSH3 0x461BCD PUSH1 0xE5 SHL DUP2 MSTORE PUSH1 0x20 PUSH1 0x4 DUP3 ADD MSTORE PUSH1 0x2B PUSH1 0x24 DUP3 ADD MSTORE PUSH32 0x496E697469616C697A61626C653A20636F6E7472616374206973206E6F742069 PUSH1 0x44 DUP3 ADD MSTORE PUSH32 0x6E697469616C697A696E67000000000000000000000000000000000000000000 PUSH1 0x64 DUP3 ADD MSTORE PUSH1 0x84 ADD PUSH2 0x90A JUMP JUMPDEST PUSH1 0x0 DUP1 PUSH1 0x40 DUP4 DUP6 SUB SLT ISZERO PUSH2 0x3720 JUMPI PUSH1 0x0 DUP1 REVERT JUMPDEST POP POP DUP1 CALLDATALOAD SWAP3 PUSH1 0x20 SWAP1 SWAP2 ADD CALLDATALOAD SWAP2 POP JUMP JUMPDEST PUSH1 0x1 PUSH1 0x1 PUSH1 0xA0 SHL SUB DUP2 AND DUP2 EQ PUSH2 0xDFF JUMPI PUSH1 0x0 DUP1 REVERT JUMPDEST DUP1 CALLDATALOAD PUSH2 0x374F DUP2 PUSH2 0x372F JUMP JUMPDEST SWAP2 SWAP1 POP JUMP JUMPDEST PUSH1 0x0 PUSH1 0x20 DUP3 DUP5 SUB SLT ISZERO PUSH2 0x3766 JUMPI PUSH1 0x0 DUP1 REVERT JUMPDEST DUP2 CALLDATALOAD PUSH2 0x23EA DUP2 PUSH2 0x372F JUMP JUMPDEST PUSH1 0x0 PUSH1 0x20 DUP3 DUP5 SUB SLT ISZERO PUSH2 0x3783 JUMPI PUSH1 0x0 DUP1 REVERT JUMPDEST POP CALLDATALOAD SWAP2 SWAP1 POP JUMP JUMPDEST PUSH1 0x0 DUP1 PUSH1 0x0 PUSH1 0x60 DUP5 DUP7 SUB SLT ISZERO PUSH2 0x379F JUMPI PUSH1 0x0 DUP1 REVERT JUMPDEST DUP4 CALLDATALOAD SWAP3 POP PUSH1 0x20 DUP5 ADD CALLDATALOAD SWAP2 POP PUSH1 0x40 DUP5 ADD CALLDATALOAD PUSH2 0x37B8 DUP2 PUSH2 0x372F JUMP JUMPDEST DUP1 SWAP2 POP POP SWAP3 POP SWAP3 POP SWAP3 JUMP JUMPDEST PUSH1 0x0 DUP1 PUSH1 0x0 PUSH1 0x60 DUP5 DUP7 SUB SLT ISZERO PUSH2 0x37D8 JUMPI PUSH1 0x0 DUP1 REVERT JUMPDEST DUP4 CALLDATALOAD PUSH2 0x37E3 DUP2 PUSH2 0x372F JUMP JUMPDEST SWAP6 PUSH1 0x20 DUP6 ADD CALLDATALOAD SWAP6 POP PUSH1 0x40 SWAP1 SWAP5 ADD CALLDATALOAD SWAP4 SWAP3 POP POP POP JUMP JUMPDEST DUP1 ISZERO ISZERO DUP2 EQ PUSH2 0xDFF JUMPI PUSH1 0x0 DUP1 REVERT JUMPDEST PUSH1 0x0 PUSH1 0x20 DUP3 DUP5 SUB SLT ISZERO PUSH2 0x3818 JUMPI PUSH1 0x0 DUP1 REVERT JUMPDEST DUP2 CALLDATALOAD PUSH2 0x23EA DUP2 PUSH2 0x37F8 JUMP JUMPDEST PUSH1 0x0 DUP1 PUSH1 0x40 DUP4 DUP6 SUB SLT ISZERO PUSH2 0x3836 JUMPI PUSH1 0x0 DUP1 REVERT JUMPDEST DUP3 CALLDATALOAD PUSH2 0x3841 DUP2 PUSH2 0x372F JUMP JUMPDEST SWAP2 POP PUSH1 0x20 DUP4 ADD CALLDATALOAD PUSH2 0x3851 DUP2 PUSH2 0x372F JUMP JUMPDEST DUP1 SWAP2 POP POP SWAP3 POP SWAP3 SWAP1 POP JUMP JUMPDEST PUSH1 0x0 DUP1 PUSH1 0x40 DUP4 DUP6 SUB SLT ISZERO PUSH2 0x386F JUMPI PUSH1 0x0 DUP1 REVERT JUMPDEST DUP3 CALLDATALOAD PUSH2 0x387A DUP2 PUSH2 0x372F JUMP JUMPDEST SWAP5 PUSH1 0x20 SWAP4 SWAP1 SWAP4 ADD CALLDATALOAD SWAP4 POP POP POP JUMP JUMPDEST PUSH4 0x4E487B71 PUSH1 0xE0 SHL PUSH1 0x0 MSTORE PUSH1 0x41 PUSH1 0x4 MSTORE PUSH1 0x24 PUSH1 0x0 REVERT JUMPDEST PUSH1 0x0 PUSH1 0x20 DUP1 DUP4 DUP6 SUB SLT ISZERO PUSH2 0x38B1 JUMPI PUSH1 0x0 DUP1 REVERT JUMPDEST DUP3 CALLDATALOAD PUSH8 0xFFFFFFFFFFFFFFFF DUP1 DUP3 GT ISZERO PUSH2 0x38C9 JUMPI PUSH1 0x0 DUP1 REVERT JUMPDEST DUP2 DUP6 ADD SWAP2 POP DUP6 PUSH1 0x1F DUP4 ADD SLT PUSH2 0x38DD JUMPI PUSH1 0x0 DUP1 REVERT JUMPDEST DUP2 CALLDATALOAD DUP2 DUP2 GT ISZERO PUSH2 0x38EF JUMPI PUSH2 0x38EF PUSH2 0x3888 JUMP JUMPDEST DUP1 PUSH1 0x5 SHL PUSH1 0x40 MLOAD PUSH1 0x1F NOT PUSH1 0x3F DUP4 ADD AND DUP2 ADD DUP2 DUP2 LT DUP6 DUP3 GT OR ISZERO PUSH2 0x3914 JUMPI PUSH2 0x3914 PUSH2 0x3888 JUMP JUMPDEST PUSH1 0x40 MSTORE SWAP2 DUP3 MSTORE DUP5 DUP3 ADD SWAP3 POP DUP4 DUP2 ADD DUP6 ADD SWAP2 DUP9 DUP4 GT ISZERO PUSH2 0x3932 JUMPI PUSH1 0x0 DUP1 REVERT JUMPDEST SWAP4 DUP6 ADD SWAP4 JUMPDEST DUP3 DUP6 LT ISZERO PUSH2 0x3957 JUMPI PUSH2 0x3948 DUP6 PUSH2 0x3744 JUMP JUMPDEST DUP5 MSTORE SWAP4 DUP6 ADD SWAP4 SWAP3 DUP6 ADD SWAP3 PUSH2 0x3937 JUMP JUMPDEST SWAP9 SWAP8 POP POP POP POP POP POP POP POP JUMP JUMPDEST PUSH1 0x0 DUP1 PUSH1 0x40 DUP4 DUP6 SUB SLT ISZERO PUSH2 0x3976 JUMPI PUSH1 0x0 DUP1 REVERT JUMPDEST DUP3 CALLDATALOAD SWAP2 POP PUSH1 0x20 DUP4 ADD CALLDATALOAD PUSH2 0x3851 DUP2 PUSH2 0x372F JUMP JUMPDEST PUSH1 0x0 DUP1 PUSH1 0x0 DUP1 PUSH1 0x0 PUSH1 0xA0 DUP7 DUP9 SUB SLT ISZERO PUSH2 0x39A0 JUMPI PUSH1 0x0 DUP1 REVERT JUMPDEST DUP6 CALLDATALOAD SWAP5 POP PUSH1 0x20 DUP7 ADD CALLDATALOAD PUSH2 0x39B2 DUP2 PUSH2 0x372F JUMP JUMPDEST SWAP4 POP PUSH1 0x40 DUP7 ADD CALLDATALOAD PUSH2 0x39C2 DUP2 PUSH2 0x372F JUMP JUMPDEST SWAP5 SWAP8 SWAP4 SWAP7 POP SWAP4 SWAP5 PUSH1 0x60 DUP2 ADD CALLDATALOAD SWAP5 POP PUSH1 0x80 ADD CALLDATALOAD SWAP3 SWAP2 POP POP JUMP JUMPDEST PUSH4 0x4E487B71 PUSH1 0xE0 SHL PUSH1 0x0 MSTORE PUSH1 0x32 PUSH1 0x4 MSTORE PUSH1 0x24 PUSH1 0x0 REVERT JUMPDEST PUSH4 0x4E487B71 PUSH1 0xE0 SHL PUSH1 0x0 MSTORE PUSH1 0x11 PUSH1 0x4 MSTORE PUSH1 0x24 PUSH1 0x0 REVERT JUMPDEST DUP1 DUP3 ADD DUP1 DUP3 GT ISZERO PUSH2 0x23ED JUMPI PUSH2 0x23ED PUSH2 0x39F0 JUMP JUMPDEST PUSH1 0x0 PUSH1 0x20 DUP3 DUP5 SUB SLT ISZERO PUSH2 0x3A2B JUMPI PUSH1 0x0 DUP1 REVERT JUMPDEST DUP2 MLOAD PUSH2 0x23EA DUP2 PUSH2 0x37F8 JUMP JUMPDEST DUP2 DUP2 SUB DUP2 DUP2 GT ISZERO PUSH2 0x23ED JUMPI PUSH2 0x23ED PUSH2 0x39F0 JUMP JUMPDEST PUSH1 0x0 PUSH1 0x1 DUP3 ADD PUSH2 0x3A5B JUMPI PUSH2 0x3A5B PUSH2 0x39F0 JUMP JUMPDEST POP PUSH1 0x1 ADD SWAP1 JUMP JUMPDEST DUP1 DUP3 MUL DUP2 ISZERO DUP3 DUP3 DIV DUP5 EQ OR PUSH2 0x23ED JUMPI PUSH2 0x23ED PUSH2 0x39F0 JUMP JUMPDEST PUSH1 0x0 DUP3 PUSH2 0x3A96 JUMPI PUSH4 0x4E487B71 PUSH1 0xE0 SHL PUSH1 0x0 MSTORE PUSH1 0x12 PUSH1 0x4 MSTORE PUSH1 0x24 PUSH1 0x0 REVERT JUMPDEST POP DIV SWAP1 JUMP JUMPDEST DUP1 MLOAD PUSH14 0xFFFFFFFFFFFFFFFFFFFFFFFFFFFF DUP2 AND DUP2 EQ PUSH2 0x374F JUMPI PUSH1 0x0 DUP1 REVERT JUMPDEST PUSH1 0x0 DUP1 PUSH1 0x0 PUSH1 0x60 DUP5 DUP7 SUB SLT ISZERO PUSH2 0x3ACE JUMPI PUSH1 0x0 DUP1 REVERT JUMPDEST PUSH2 0x3AD7 DUP5 PUSH2 0x3A9B JUMP JUMPDEST SWAP3 POP PUSH2 0x3AE5 PUSH1 0x20 DUP6 ADD PUSH2 0x3A9B JUMP JUMPDEST SWAP2 POP PUSH1 0x40 DUP5 ADD MLOAD PUSH4 0xFFFFFFFF DUP2 AND DUP2 EQ PUSH2 0x37B8 JUMPI PUSH1 0x0 DUP1 REVERT JUMPDEST PUSH1 0x0 PUSH1 0x20 DUP3 DUP5 SUB SLT ISZERO PUSH2 0x3B10 JUMPI PUSH1 0x0 DUP1 REVERT JUMPDEST POP MLOAD SWAP2 SWAP1 POP JUMP JUMPDEST DUP1 MLOAD PUSH2 0xFFFF DUP2 AND DUP2 EQ PUSH2 0x374F JUMPI PUSH1 0x0 DUP1 REVERT JUMPDEST PUSH1 0x0 DUP1 PUSH1 0x0 DUP1 PUSH1 0x0 DUP1 PUSH1 0x0 PUSH1 0xE0 DUP9 DUP11 SUB SLT ISZERO PUSH2 0x3B44 JUMPI PUSH1 0x0 DUP1 REVERT JUMPDEST DUP8 MLOAD PUSH2 0x3B4F DUP2 PUSH2 0x372F JUMP JUMPDEST DUP1 SWAP8 POP POP PUSH1 0x20 DUP9 ADD MLOAD DUP1 PUSH1 0x2 SIGNEXTEND DUP2 EQ PUSH2 0x3B67 JUMPI PUSH1 0x0 DUP1 REVERT JUMPDEST SWAP6 POP PUSH2 0x3B75 PUSH1 0x40 DUP10 ADD PUSH2 0x3B17 JUMP JUMPDEST SWAP5 POP PUSH2 0x3B83 PUSH1 0x60 DUP10 ADD PUSH2 0x3B17 JUMP JUMPDEST SWAP4 POP PUSH2 0x3B91 PUSH1 0x80 DUP10 ADD PUSH2 0x3B17 JUMP JUMPDEST SWAP3 POP PUSH1 0xA0 DUP9 ADD MLOAD PUSH1 0xFF DUP2 AND DUP2 EQ PUSH2 0x3BA7 JUMPI PUSH1 0x0 DUP1 REVERT JUMPDEST PUSH1 0xC0 DUP10 ADD MLOAD SWAP1 SWAP3 POP PUSH2 0x3BB8 DUP2 PUSH2 0x37F8 JUMP JUMPDEST DUP1 SWAP2 POP POP SWAP3 SWAP6 SWAP9 SWAP2 SWAP5 SWAP8 POP SWAP3 SWAP6 POP JUMP JUMPDEST PUSH1 0x1 DUP2 DUP2 JUMPDEST DUP1 DUP6 GT ISZERO PUSH2 0x3C03 JUMPI DUP2 PUSH1 0x0 NOT DIV DUP3 GT ISZERO PUSH2 0x3BE9 JUMPI PUSH2 0x3BE9 PUSH2 0x39F0 JUMP JUMPDEST DUP1 DUP6 AND ISZERO PUSH2 0x3BF6 JUMPI SWAP2 DUP2 MUL SWAP2 JUMPDEST SWAP4 DUP5 SHR SWAP4 SWAP1 DUP1 MUL SWAP1 PUSH2 0x3BCD JUMP JUMPDEST POP SWAP3 POP SWAP3 SWAP1 POP JUMP JUMPDEST PUSH1 0x0 DUP3 PUSH2 0x3C1A JUMPI POP PUSH1 0x1 PUSH2 0x23ED JUMP JUMPDEST DUP2 PUSH2 0x3C27 JUMPI POP PUSH1 0x0 PUSH2 0x23ED JUMP JUMPDEST DUP2 PUSH1 0x1 DUP2 EQ PUSH2 0x3C3D JUMPI PUSH1 0x2 DUP2 EQ PUSH2 0x3C47 JUMPI PUSH2 0x3C63 JUMP JUMPDEST PUSH1 0x1 SWAP2 POP POP PUSH2 0x23ED JUMP JUMPDEST PUSH1 0xFF DUP5 GT ISZERO PUSH2 0x3C58 JUMPI PUSH2 0x3C58 PUSH2 0x39F0 JUMP JUMPDEST POP POP PUSH1 0x1 DUP3 SHL PUSH2 0x23ED JUMP JUMPDEST POP PUSH1 0x20 DUP4 LT PUSH2 0x133 DUP4 LT AND PUSH1 0x4E DUP5 LT PUSH1 0xB DUP5 LT AND OR ISZERO PUSH2 0x3C86 JUMPI POP DUP2 DUP2 EXP PUSH2 0x23ED JUMP JUMPDEST PUSH2 0x3C90 DUP4 DUP4 PUSH2 0x3BC8 JUMP JUMPDEST DUP1 PUSH1 0x0 NOT DIV DUP3 GT ISZERO PUSH2 0x3CA4 JUMPI PUSH2 0x3CA4 PUSH2 0x39F0 JUMP JUMPDEST MUL SWAP4 SWAP3 POP POP POP JUMP JUMPDEST PUSH1 0x0 PUSH2 0x3CBB PUSH1 0xFF DUP5 AND DUP4 PUSH2 0x3C0B JUMP JUMPDEST SWAP4 SWAP3 POP POP POP JUMP JUMPDEST PUSH1 0x0 PUSH1 0x20 DUP3 DUP5 SUB SLT ISZERO PUSH2 0x3CD4 JUMPI PUSH1 0x0 DUP1 REVERT JUMPDEST DUP2 MLOAD PUSH2 0x23EA DUP2 PUSH2 0x372F JUMP INVALID 0x4F PUSH15 0x6C792061646D696E2063616E206361 PUSH13 0x6C20746869732066756E637469 PUSH16 0xA2646970667358221220342EF9A09ED9 0xB0 0xFC DIV 0x4B 0xEF 0xA6 MSTORE PUSH29 0xAC4169AEE6C10C0D45954400D2A9085F93F64736F6C63430008130033 "},"methodIdentifiers":{"CG8_TOKEN_ADDRESS()":"c57830cd","PANCAKE_FACTORY_ADDRESS()":"509173a1","PANCAKE_ROUTER_ADDRESS()":"28ac7c51","USDC_TOKEN_ADDRESS()":"b3d673d8","admin()":"f851a440","cancelOwnershipTransfer()":"23452b9c","castVote(bool)":"7ace48e7","claimIndividualReward(uint256,uint256)":"6b38e049","claimReward(uint256)":"ae169a50","createStakingPool(uint256,address,address,uint256,uint256)":"fb58d2cf","finalizeOwnershipTransfer()":"bf41c2a4","getCurrentCgatePrice()":"7ade2642","getPair(address,address)":"e6a43905","getPendingReward(uint256,uint256,address)":"29a16616","getPrice()":"98d5fdca","getReserves(address)":"3e99c1e4","getTotalPendingRewardsForPool(uint256,address)":"c114fcfa","getTotalPoolsCount()":"855c5d46","hasVoted(address)":"09eef43e","initialize(address[])":"a224cee7","poolAddress()":"1755ff21","pools(uint256)":"ac4afa38","proposeOwnershipTransfer(address)":"21040fc3","proposedOwner()":"d153b60c","referrers(address)":"4a3b68cc","setAdmin(address)":"704b6c02","setCg8Address(address)":"57a8773e","setFactory(address)":"5bb47808","setPoolAddress(address)":"e9e15b4f","setReferralRewardPercent(uint256,uint256)":"bf2ce808","setRewardPercent(uint256,uint256)":"c79bdb46","setRewardToken(uint256,address)":"bdd13d4a","setRouter(address)":"c0d78655","setSpecialReferrerRewardPercent(address,uint256)":"dbe4a261","setTimePeriod(uint256,uint256)":"b820a1cd","setUSDCAddress(address)":"aaf5bfc3","signers(address)":"736c0d5b","specialReferrersPercents(address)":"e7ee1233","stake(uint256,uint256,address)":"7628a37d","togglePoolStatus(uint256)":"216b31c1","totalStakeCount(address,uint256)":"fa8f683e","totalUnstakeAllowed(address,uint256)":"9dda7fee","unStake(uint256)":"5d3eea91","unStakeIndividual(uint256,uint256)":"047ac00e","updateCurrentCgatePrice(uint256)":"7b542a2a","userStakes(address,uint256,uint256)":"34144b0f","users(address)":"a87430ba","usersStakesPerPool(address,uint256)":"b401cdca","voters(uint256)":"da58c7d9","withdrawDumpToken(address,address)":"99672158","withdrawEth(address)":"25e16063"}},"storageLayout":{"storage":[{"astId":6,"contract":"contracts/cgateStaking.sol:StakingPoolV3","label":"_initialized","offset":0,"slot":"0","type":"t_uint8"},{"astId":9,"contract":"contracts/cgateStaking.sol:StakingPoolV3","label":"_initializing","offset":1,"slot":"0","type":"t_bool"},{"astId":183,"contract":"contracts/cgateStaking.sol:StakingPoolV3","label":"_status","offset":0,"slot":"1","type":"t_uint256"},{"astId":252,"contract":"contracts/cgateStaking.sol:StakingPoolV3","label":"__gap","offset":0,"slot":"2","type":"t_array(t_uint256)49_storage"},{"astId":1469,"contract":"contracts/cgateStaking.sol:StakingPoolV3","label":"admin","offset":0,"slot":"51","type":"t_address"},{"astId":1471,"contract":"contracts/cgateStaking.sol:StakingPoolV3","label":"poolIdCounter","offset":0,"slot":"52","type":"t_uint256"},{"astId":1473,"contract":"contracts/cgateStaking.sol:StakingPoolV3","label":"oneYear","offset":0,"slot":"53","type":"t_uint256"},{"astId":1475,"contract":"contracts/cgateStaking.sol:StakingPoolV3","label":"price","offset":0,"slot":"54","type":"t_uint256"},{"astId":1477,"contract":"contracts/cgateStaking.sol:StakingPoolV3","label":"proposedOwner","offset":0,"slot":"55","type":"t_address"},{"astId":1480,"contract":"contracts/cgateStaking.sol:StakingPoolV3","label":"voters","offset":0,"slot":"56","type":"t_array(t_address)dyn_storage"},{"astId":1484,"contract":"contracts/cgateStaking.sol:StakingPoolV3","label":"hasVoted","offset":0,"slot":"57","type":"t_mapping(t_address,t_bool)"},{"astId":1486,"contract":"contracts/cgateStaking.sol:StakingPoolV3","label":"PANCAKE_ROUTER_ADDRESS","offset":0,"slot":"58","type":"t_address"},{"astId":1488,"contract":"contracts/cgateStaking.sol:StakingPoolV3","label":"CG8_TOKEN_ADDRESS","offset":0,"slot":"59","type":"t_address"},{"astId":1490,"contract":"contracts/cgateStaking.sol:StakingPoolV3","label":"USDC_TOKEN_ADDRESS","offset":0,"slot":"60","type":"t_address"},{"astId":1492,"contract":"contracts/cgateStaking.sol:StakingPoolV3","label":"PANCAKE_FACTORY_ADDRESS","offset":0,"slot":"61","type":"t_address"},{"astId":1536,"contract":"contracts/cgateStaking.sol:StakingPoolV3","label":"pools","offset":0,"slot":"62","type":"t_mapping(t_uint256,t_struct(Pool)1507_storage)"},{"astId":1544,"contract":"contracts/cgateStaking.sol:StakingPoolV3","label":"userStakes","offset":0,"slot":"63","type":"t_mapping(t_address,t_mapping(t_uint256,t_array(t_struct(UserStake)1531_storage)dyn_storage))"},{"astId":1548,"contract":"contracts/cgateStaking.sol:StakingPoolV3","label":"referrers","offset":0,"slot":"64","type":"t_mapping(t_address,t_address)"},{"astId":1552,"contract":"contracts/cgateStaking.sol:StakingPoolV3","label":"specialReferrersPercents","offset":0,"slot":"65","type":"t_mapping(t_address,t_uint256)"},{"astId":1557,"contract":"contracts/cgateStaking.sol:StakingPoolV3","label":"users","offset":0,"slot":"66","type":"t_mapping(t_address,t_struct(UserInfo)1518_storage)"},{"astId":1563,"contract":"contracts/cgateStaking.sol:StakingPoolV3","label":"usersStakesPerPool","offset":0,"slot":"67","type":"t_mapping(t_address,t_mapping(t_uint256,t_uint256))"},{"astId":1567,"contract":"contracts/cgateStaking.sol:StakingPoolV3","label":"signers","offset":0,"slot":"68","type":"t_mapping(t_address,t_bool)"},{"astId":1569,"contract":"contracts/cgateStaking.sol:StakingPoolV3","label":"poolAddress","offset":0,"slot":"69","type":"t_address"}],"types":{"t_address":{"encoding":"inplace","label":"address","numberOfBytes":"20"},"t_array(t_address)dyn_storage":{"base":"t_address","encoding":"dynamic_array","label":"address[]","numberOfBytes":"32"},"t_array(t_struct(UserStake)1531_storage)dyn_storage":{"base":"t_struct(UserStake)1531_storage","encoding":"dynamic_array","label":"struct StakingPoolV3.UserStake[]","numberOfBytes":"32"},"t_array(t_uint256)49_storage":{"base":"t_uint256","encoding":"inplace","label":"uint256[49]","numberOfBytes":"1568"},"t_bool":{"encoding":"inplace","label":"bool","numberOfBytes":"1"},"t_mapping(t_address,t_address)":{"encoding":"mapping","key":"t_address","label":"mapping(address => address)","numberOfBytes":"32","value":"t_address"},"t_mapping(t_address,t_bool)":{"encoding":"mapping","key":"t_address","label":"mapping(address => bool)","numberOfBytes":"32","value":"t_bool"},"t_mapping(t_address,t_mapping(t_uint256,t_array(t_struct(UserStake)1531_storage)dyn_storage))":{"encoding":"mapping","key":"t_address","label":"mapping(address => mapping(uint256 => struct StakingPoolV3.UserStake[]))","numberOfBytes":"32","value":"t_mapping(t_uint256,t_array(t_struct(UserStake)1531_storage)dyn_storage)"},"t_mapping(t_address,t_mapping(t_uint256,t_uint256))":{"encoding":"mapping","key":"t_address","label":"mapping(address => mapping(uint256 => uint256))","numberOfBytes":"32","value":"t_mapping(t_uint256,t_uint256)"},"t_mapping(t_address,t_struct(UserInfo)1518_storage)":{"encoding":"mapping","key":"t_address","label":"mapping(address => struct StakingPoolV3.UserInfo)","numberOfBytes":"32","value":"t_struct(UserInfo)1518_storage"},"t_mapping(t_address,t_uint256)":{"encoding":"mapping","key":"t_address","label":"mapping(address => uint256)","numberOfBytes":"32","value":"t_uint256"},"t_mapping(t_uint256,t_array(t_struct(UserStake)1531_storage)dyn_storage)":{"encoding":"mapping","key":"t_uint256","label":"mapping(uint256 => struct StakingPoolV3.UserStake[])","numberOfBytes":"32","value":"t_array(t_struct(UserStake)1531_storage)dyn_storage"},"t_mapping(t_uint256,t_struct(Pool)1507_storage)":{"encoding":"mapping","key":"t_uint256","label":"mapping(uint256 => struct StakingPoolV3.Pool)","numberOfBytes":"32","value":"t_struct(Pool)1507_storage"},"t_mapping(t_uint256,t_uint256)":{"encoding":"mapping","key":"t_uint256","label":"mapping(uint256 => uint256)","numberOfBytes":"32","value":"t_uint256"},"t_struct(Pool)1507_storage":{"encoding":"inplace","label":"struct StakingPoolV3.Pool","members":[{"astId":1494,"contract":"contracts/cgateStaking.sol:StakingPoolV3","label":"timePeriod","offset":0,"slot":"0","type":"t_uint256"},{"astId":1496,"contract":"contracts/cgateStaking.sol:StakingPoolV3","label":"stakeToken","offset":0,"slot":"1","type":"t_address"},{"astId":1498,"contract":"contracts/cgateStaking.sol:StakingPoolV3","label":"rewardToken","offset":0,"slot":"2","type":"t_address"},{"astId":1500,"contract":"contracts/cgateStaking.sol:StakingPoolV3","label":"rewardPercentPerStakedTokenPerYear","offset":0,"slot":"3","type":"t_uint256"},{"astId":1502,"contract":"contracts/cgateStaking.sol:StakingPoolV3","label":"referralRewardPercent","offset":0,"slot":"4","type":"t_uint256"},{"astId":1504,"contract":"contracts/cgateStaking.sol:StakingPoolV3","label":"isActive","offset":0,"slot":"5","type":"t_bool"},{"astId":1506,"contract":"contracts/cgateStaking.sol:StakingPoolV3","label":"totalStakes","offset":0,"slot":"6","type":"t_uint256"}],"numberOfBytes":"224"},"t_struct(UserInfo)1518_storage":{"encoding":"inplace","label":"struct StakingPoolV3.UserInfo","members":[{"astId":1509,"contract":"contracts/cgateStaking.sol:StakingPoolV3","label":"totalStaked","offset":0,"slot":"0","type":"t_uint256"},{"astId":1511,"contract":"contracts/cgateStaking.sol:StakingPoolV3","label":"activeStakes","offset":0,"slot":"1","type":"t_uint256"},{"astId":1513,"contract":"contracts/cgateStaking.sol:StakingPoolV3","label":"totalRewardWithdrawnTillNow","offset":0,"slot":"2","type":"t_uint256"},{"astId":1515,"contract":"contracts/cgateStaking.sol:StakingPoolV3","label":"referralIncomeWithdrawnTillNow","offset":0,"slot":"3","type":"t_uint256"},{"astId":1517,"contract":"contracts/cgateStaking.sol:StakingPoolV3","label":"totalReferrers","offset":0,"slot":"4","type":"t_uint256"}],"numberOfBytes":"160"},"t_struct(UserStake)1531_storage":{"encoding":"inplace","label":"struct StakingPoolV3.UserStake","members":[{"astId":1520,"contract":"contracts/cgateStaking.sol:StakingPoolV3","label":"amount","offset":0,"slot":"0","type":"t_uint256"},{"astId":1522,"contract":"contracts/cgateStaking.sol:StakingPoolV3","label":"lastWithdrawTimestamp","offset":0,"slot":"1","type":"t_uint256"},{"astId":1524,"contract":"contracts/cgateStaking.sol:StakingPoolV3","label":"rewardWithdrawnTillNow","offset":0,"slot":"2","type":"t_uint256"},{"astId":1526,"contract":"contracts/cgateStaking.sol:StakingPoolV3","label":"stakeTime","offset":0,"slot":"3","type":"t_uint256"},{"astId":1528,"contract":"contracts/cgateStaking.sol:StakingPoolV3","label":"referrer","offset":0,"slot":"4","type":"t_address"},{"astId":1530,"contract":"contracts/cgateStaking.sol:StakingPoolV3","label":"depositedValueInDollars","offset":0,"slot":"5","type":"t_uint256"}],"numberOfBytes":"192"},"t_uint256":{"encoding":"inplace","label":"uint256","numberOfBytes":"32"},"t_uint8":{"encoding":"inplace","label":"uint8","numberOfBytes":"1"}}}}}}