{"contracts/cgateToken.sol":{"CG8":{"abi":[{"anonymous":false,"inputs":[{"indexed":true,"internalType":"address","name":"owner","type":"address"},{"indexed":true,"internalType":"address","name":"spender","type":"address"},{"indexed":false,"internalType":"uint256","name":"value","type":"uint256"}],"name":"Approval","type":"event"},{"anonymous":false,"inputs":[{"indexed":false,"internalType":"uint8","name":"version","type":"uint8"}],"name":"Initialized","type":"event"},{"anonymous":false,"inputs":[{"indexed":true,"internalType":"address","name":"newOwner","type":"address"}],"name":"OwnershipTransferProposed","type":"event"},{"anonymous":false,"inputs":[{"indexed":true,"internalType":"address","name":"previousOwner","type":"address"},{"indexed":true,"internalType":"address","name":"newOwner","type":"address"}],"name":"OwnershipTransferred","type":"event"},{"anonymous":false,"inputs":[{"indexed":false,"internalType":"address","name":"account","type":"address"}],"name":"Paused","type":"event"},{"anonymous":false,"inputs":[{"indexed":true,"internalType":"address","name":"from","type":"address"},{"indexed":true,"internalType":"address","name":"to","type":"address"},{"indexed":false,"internalType":"uint256","name":"value","type":"uint256"}],"name":"Transfer","type":"event"},{"anonymous":false,"inputs":[{"indexed":false,"internalType":"address","name":"account","type":"address"}],"name":"Unpaused","type":"event"},{"anonymous":false,"inputs":[{"indexed":true,"internalType":"address","name":"voter","type":"address"},{"indexed":false,"internalType":"bool","name":"approve","type":"bool"}],"name":"VoteCasted","type":"event"},{"inputs":[{"internalType":"address","name":"","type":"address"}],"name":"_frozenWallets","outputs":[{"internalType":"uint256","name":"","type":"uint256"}],"stateMutability":"view","type":"function"},{"inputs":[],"name":"_owner","outputs":[{"internalType":"address","name":"","type":"address"}],"stateMutability":"view","type":"function"},{"inputs":[{"internalType":"address","name":"wallet","type":"address"}],"name":"addToWhitelist","outputs":[],"stateMutability":"nonpayable","type":"function"},{"inputs":[{"internalType":"address","name":"beneficiary","type":"address"},{"internalType":"uint256","name":"amount","type":"uint256"},{"internalType":"uint256","name":"percentageToRelease","type":"uint256"},{"internalType":"uint256","name":"timeInterval","type":"uint256"}],"name":"addVestingSchedule","outputs":[],"stateMutability":"nonpayable","type":"function"},{"inputs":[{"internalType":"address","name":"owner","type":"address"},{"internalType":"address","name":"spender","type":"address"}],"name":"allowance","outputs":[{"internalType":"uint256","name":"","type":"uint256"}],"stateMutability":"view","type":"function"},{"inputs":[{"internalType":"address","name":"spender","type":"address"},{"internalType":"uint256","name":"amount","type":"uint256"}],"name":"approve","outputs":[{"internalType":"bool","name":"","type":"bool"}],"stateMutability":"nonpayable","type":"function"},{"inputs":[{"internalType":"address","name":"account","type":"address"}],"name":"balanceOf","outputs":[{"internalType":"uint256","name":"","type":"uint256"}],"stateMutability":"view","type":"function"},{"inputs":[{"internalType":"address","name":"_user","type":"address"}],"name":"blackList","outputs":[],"stateMutability":"nonpayable","type":"function"},{"inputs":[{"internalType":"uint256","name":"amount","type":"uint256"}],"name":"burn","outputs":[],"stateMutability":"nonpayable","type":"function"},{"inputs":[{"internalType":"address","name":"account","type":"address"},{"internalType":"uint256","name":"amount","type":"uint256"}],"name":"burnFrom","outputs":[],"stateMutability":"nonpayable","type":"function"},{"inputs":[],"name":"burnableTax","outputs":[{"internalType":"uint256","name":"","type":"uint256"}],"stateMutability":"view","type":"function"},{"inputs":[],"name":"buySellTaxRate","outputs":[{"internalType":"uint256","name":"","type":"uint256"}],"stateMutability":"view","type":"function"},{"inputs":[],"name":"cancelOwnershipTransfer","outputs":[],"stateMutability":"nonpayable","type":"function"},{"inputs":[{"internalType":"bool","name":"approve","type":"bool"}],"name":"castVote","outputs":[],"stateMutability":"nonpayable","type":"function"},{"inputs":[],"name":"claim","outputs":[],"stateMutability":"nonpayable","type":"function"},{"inputs":[],"name":"decimals","outputs":[{"internalType":"uint8","name":"","type":"uint8"}],"stateMutability":"view","type":"function"},{"inputs":[{"internalType":"address","name":"spender","type":"address"},{"internalType":"uint256","name":"subtractedValue","type":"uint256"}],"name":"decreaseAllowance","outputs":[{"internalType":"bool","name":"","type":"bool"}],"stateMutability":"nonpayable","type":"function"},{"inputs":[],"name":"decreasingTaxInterval","outputs":[{"internalType":"uint256","name":"","type":"uint256"}],"stateMutability":"view","type":"function"},{"inputs":[{"internalType":"bool","name":"_enabled","type":"bool"}],"name":"disableBuySellTax","outputs":[],"stateMutability":"nonpayable","type":"function"},{"inputs":[],"name":"finalizeOwnershipTransfer","outputs":[],"stateMutability":"nonpayable","type":"function"},{"inputs":[{"internalType":"address","name":"wallet","type":"address"},{"internalType":"uint256","name":"freezeDuration","type":"uint256"}],"name":"freezeWallet","outputs":[],"stateMutability":"nonpayable","type":"function"},{"inputs":[],"name":"graduallyDecreasingTax","outputs":[{"internalType":"uint256","name":"","type":"uint256"}],"stateMutability":"view","type":"function"},{"inputs":[{"internalType":"address","name":"","type":"address"}],"name":"hasVoted","outputs":[{"internalType":"bool","name":"","type":"bool"}],"stateMutability":"view","type":"function"},{"inputs":[],"name":"holdersCount","outputs":[{"internalType":"uint256","name":"","type":"uint256"}],"stateMutability":"view","type":"function"},{"inputs":[{"internalType":"address","name":"wallet","type":"address"}],"name":"includeInTax","outputs":[],"stateMutability":"nonpayable","type":"function"},{"inputs":[{"internalType":"address","name":"spender","type":"address"},{"internalType":"uint256","name":"addedValue","type":"uint256"}],"name":"increaseAllowance","outputs":[{"internalType":"bool","name":"","type":"bool"}],"stateMutability":"nonpayable","type":"function"},{"inputs":[{"internalType":"string","name":"_name","type":"string"},{"internalType":"string","name":"_symbol","type":"string"},{"internalType":"uint8","name":"_decimals","type":"uint8"},{"internalType":"uint256","name":"_initialSupply","type":"uint256"},{"internalType":"address","name":"_router","type":"address"},{"internalType":"address[]","name":"_initialVoters","type":"address[]"}],"name":"initialize","outputs":[],"stateMutability":"nonpayable","type":"function"},{"inputs":[{"internalType":"address","name":"_user","type":"address"}],"name":"isBlackList","outputs":[{"internalType":"bool","name":"","type":"bool"}],"stateMutability":"view","type":"function"},{"inputs":[],"name":"isBuySellTaxEnabled","outputs":[{"internalType":"bool","name":"","type":"bool"}],"stateMutability":"view","type":"function"},{"inputs":[],"name":"isDeflationary","outputs":[{"internalType":"bool","name":"","type":"bool"}],"stateMutability":"view","type":"function"},{"inputs":[{"internalType":"address","name":"","type":"address"}],"name":"isExcludedFromTax","outputs":[{"internalType":"bool","name":"","type":"bool"}],"stateMutability":"view","type":"function"},{"inputs":[{"internalType":"address","name":"user","type":"address"}],"name":"isWhitelisted","outputs":[{"internalType":"bool","name":"","type":"bool"}],"stateMutability":"view","type":"function"},{"inputs":[],"name":"lastUpdatedTaxTimestamp","outputs":[{"internalType":"uint256","name":"","type":"uint256"}],"stateMutability":"view","type":"function"},{"inputs":[],"name":"liquidityLocked","outputs":[{"internalType":"bool","name":"","type":"bool"}],"stateMutability":"view","type":"function"},{"inputs":[{"internalType":"uint256","name":"amount","type":"uint256"}],"name":"lockLiquidity","outputs":[],"stateMutability":"nonpayable","type":"function"},{"inputs":[],"name":"lockedLiquidityAmount","outputs":[{"internalType":"uint256","name":"","type":"uint256"}],"stateMutability":"view","type":"function"},{"inputs":[],"name":"maxSupply","outputs":[{"internalType":"uint256","name":"","type":"uint256"}],"stateMutability":"view","type":"function"},{"inputs":[],"name":"maxTransactionAmount","outputs":[{"internalType":"uint256","name":"","type":"uint256"}],"stateMutability":"view","type":"function"},{"inputs":[],"name":"minTransactionAmount","outputs":[{"internalType":"uint256","name":"","type":"uint256"}],"stateMutability":"view","type":"function"},{"inputs":[{"internalType":"address","name":"account","type":"address"},{"internalType":"uint256","name":"amount","type":"uint256"}],"name":"mint","outputs":[],"stateMutability":"nonpayable","type":"function"},{"inputs":[],"name":"name","outputs":[{"internalType":"string","name":"","type":"string"}],"stateMutability":"view","type":"function"},{"inputs":[],"name":"owner","outputs":[{"internalType":"address","name":"","type":"address"}],"stateMutability":"view","type":"function"},{"inputs":[],"name":"pause","outputs":[],"stateMutability":"nonpayable","type":"function"},{"inputs":[],"name":"paused","outputs":[{"internalType":"bool","name":"","type":"bool"}],"stateMutability":"view","type":"function"},{"inputs":[{"internalType":"address","name":"newOwner","type":"address"}],"name":"proposeOwnershipTransfer","outputs":[],"stateMutability":"nonpayable","type":"function"},{"inputs":[],"name":"proposedOwner","outputs":[{"internalType":"address","name":"","type":"address"}],"stateMutability":"view","type":"function"},{"inputs":[{"internalType":"address","name":"_user","type":"address"}],"name":"removeFromBlacklist","outputs":[],"stateMutability":"nonpayable","type":"function"},{"inputs":[{"internalType":"address","name":"wallet","type":"address"}],"name":"removeFromWhitelist","outputs":[],"stateMutability":"nonpayable","type":"function"},{"inputs":[{"internalType":"address","name":"_voterAddress","type":"address"}],"name":"removeVoter","outputs":[],"stateMutability":"nonpayable","type":"function"},{"inputs":[],"name":"renounceOwnership","outputs":[],"stateMutability":"nonpayable","type":"function"},{"inputs":[],"name":"router","outputs":[{"internalType":"address","name":"","type":"address"}],"stateMutability":"view","type":"function"},{"inputs":[{"internalType":"uint256","name":"_burnableTax","type":"uint256"}],"name":"setBurnableTax","outputs":[],"stateMutability":"nonpayable","type":"function"},{"inputs":[{"internalType":"uint256","name":"_rate","type":"uint256"}],"name":"setBuySellTaxRate","outputs":[],"stateMutability":"nonpayable","type":"function"},{"inputs":[{"internalType":"bool","name":"_enabled","type":"bool"}],"name":"setDeflationary","outputs":[],"stateMutability":"nonpayable","type":"function"},{"inputs":[{"internalType":"uint256","name":"_decreasingTaxInterval","type":"uint256"}],"name":"setGraduallyDecreasingInterval","outputs":[],"stateMutability":"nonpayable","type":"function"},{"inputs":[{"internalType":"uint256","name":"tax","type":"uint256"}],"name":"setGraduallyDecreasingTax","outputs":[],"stateMutability":"nonpayable","type":"function"},{"inputs":[],"name":"setGraduallyDecreasingTaxZero","outputs":[],"stateMutability":"nonpayable","type":"function"},{"inputs":[{"internalType":"address","name":"wallet","type":"address"}],"name":"setIsExcludedFromTax","outputs":[],"stateMutability":"nonpayable","type":"function"},{"inputs":[{"internalType":"uint256","name":"amount","type":"uint256"}],"name":"setMaxTransferAmount","outputs":[],"stateMutability":"nonpayable","type":"function"},{"inputs":[{"internalType":"uint256","name":"amount","type":"uint256"}],"name":"setMinTransactionAmount","outputs":[],"stateMutability":"nonpayable","type":"function"},{"inputs":[{"internalType":"address","name":"_newRouter","type":"address"}],"name":"setRouter","outputs":[],"stateMutability":"nonpayable","type":"function"},{"inputs":[{"internalType":"uint256","name":"delay","type":"uint256"}],"name":"setTransferDelay","outputs":[],"stateMutability":"nonpayable","type":"function"},{"inputs":[{"internalType":"address","name":"_usdt","type":"address"}],"name":"setUSDTAddress","outputs":[],"stateMutability":"nonpayable","type":"function"},{"inputs":[{"internalType":"address","name":"","type":"address"}],"name":"signers","outputs":[{"internalType":"bool","name":"","type":"bool"}],"stateMutability":"view","type":"function"},{"inputs":[],"name":"symbol","outputs":[{"internalType":"string","name":"","type":"string"}],"stateMutability":"view","type":"function"},{"inputs":[],"name":"totalSupply","outputs":[{"internalType":"uint256","name":"","type":"uint256"}],"stateMutability":"view","type":"function"},{"inputs":[{"internalType":"address","name":"recipient","type":"address"},{"internalType":"uint256","name":"amount","type":"uint256"}],"name":"transfer","outputs":[{"internalType":"bool","name":"","type":"bool"}],"stateMutability":"nonpayable","type":"function"},{"inputs":[],"name":"transferAllowedAt","outputs":[{"internalType":"uint256","name":"","type":"uint256"}],"stateMutability":"view","type":"function"},{"inputs":[],"name":"transferDelay","outputs":[{"internalType":"uint256","name":"","type":"uint256"}],"stateMutability":"view","type":"function"},{"inputs":[{"internalType":"address","name":"from","type":"address"},{"internalType":"address","name":"to","type":"address"},{"internalType":"uint256","name":"amount","type":"uint256"}],"name":"transferFrom","outputs":[{"internalType":"bool","name":"","type":"bool"}],"stateMutability":"nonpayable","type":"function"},{"inputs":[{"internalType":"address","name":"newOwner","type":"address"}],"name":"transferOwnership","outputs":[],"stateMutability":"nonpayable","type":"function"},{"inputs":[{"internalType":"address","name":"wallet","type":"address"}],"name":"unfreezeWallet","outputs":[],"stateMutability":"nonpayable","type":"function"},{"inputs":[{"internalType":"uint256","name":"amount","type":"uint256"}],"name":"unlockLiquidity","outputs":[],"stateMutability":"nonpayable","type":"function"},{"inputs":[],"name":"unpause","outputs":[],"stateMutability":"nonpayable","type":"function"},{"inputs":[],"name":"updateGraduallyDecreasingTax","outputs":[],"stateMutability":"nonpayable","type":"function"},{"inputs":[],"name":"usdt","outputs":[{"internalType":"address","name":"","type":"address"}],"stateMutability":"view","type":"function"},{"inputs":[{"internalType":"address","name":"","type":"address"}],"name":"vestingInfo","outputs":[{"internalType":"uint256","name":"amount","type":"uint256"},{"internalType":"address","name":"beneficiary","type":"address"},{"internalType":"uint256","name":"percentageOfTokensToBeReleased","type":"uint256"},{"internalType":"uint256","name":"timeInterval","type":"uint256"},{"internalType":"uint256","name":"lastWithdrawTimestamp","type":"uint256"},{"internalType":"uint256","name":"claimedTokens","type":"uint256"}],"stateMutability":"view","type":"function"},{"inputs":[{"internalType":"uint256","name":"","type":"uint256"}],"name":"voters","outputs":[{"internalType":"address","name":"","type":"address"}],"stateMutability":"view","type":"function"},{"inputs":[{"internalType":"address","name":"receiver","type":"address"},{"internalType":"contract IERC20","name":"_token","type":"address"}],"name":"withdrawDumpToken","outputs":[],"stateMutability":"nonpayable","type":"function"},{"inputs":[{"internalType":"address payable","name":"_receiver","type":"address"}],"name":"withdrawEth","outputs":[],"stateMutability":"nonpayable","type":"function"},{"stateMutability":"payable","type":"receive"}],"evm":{"bytecode":{"linkReferences":{},"object":"608060405234801561001057600080fd5b50614594806100206000396000f3fe6080604052600436106105775760003560e01c806379cc6790116102ca578063bd0e0acd11610179578063da58c7d9116100d6578063f217fdbe1161008a578063f78e633d1161006f578063f78e633d14610f36578063f887ea4014610fc6578063f8f1b6c914610fe757600080fd5b8063f217fdbe14610ef6578063f2fde38b14610f1657600080fd5b8063e17c4c74116100bb578063e17c4c7414610ea1578063e43252d714610ec1578063eb60b83f14610ee157600080fd5b8063da58c7d914610e3b578063dd62ed3e14610e5b57600080fd5b8063cb4ca6311161012d578063d153b60c11610112578063d153b60c14610de3578063d292059e14610e04578063d5abeb0114610e2457600080fd5b8063cb4ca63114610d9b578063d0a1bd4414610dcc57600080fd5b8063bfed5ce31161015e578063bfed5ce314610d44578063c0d7865514610d64578063c8c8ebe414610d8457600080fd5b8063bd0e0acd14610d18578063bf41c2a414610d2f57600080fd5b806395d89b4111610227578063a9059cbb116101db578063b2bdfa7b116101c0578063b2bdfa7b14610c9a578063b36d691914610cbb578063b5c43db414610cf557600080fd5b8063a9059cbb14610c5f578063ab8b2f0d14610c7f57600080fd5b8063996721581161020c5780639967215814610bff578063a30ff8b614610c1f578063a457c2d714610c3f57600080fd5b806395d89b4114610bca57806396e8392414610bdf57600080fd5b80638ab1d6811161027e5780638da5cb5b116102635780638da5cb5b14610b6c5780638e8c10a214610b8a5780638f376fca14610baa57600080fd5b80638ab1d68114610b2c5780638bf5540914610b4c57600080fd5b80638456cb59116102af5780638456cb5914610ad757806385be583f14610aec57806386c1ff6814610b0c57600080fd5b806379cc679014610a975780637ace48e714610ab757600080fd5b80633eb5cbeb116104265780635c975abb1161038357806370a0823111610337578063736c0d5b1161031c578063736c0d5b14610a2f578063760b7e3814610a605780637884d88814610a7757600080fd5b806370a08231146109e4578063715018a614610a1a57600080fd5b806360f588b71161036857806360f588b714610996578063622b67cb146109b65780636b4ed21b146109cd57600080fd5b80635c975abb146109675780635e2f16c81461097f57600080fd5b80634e71d92d116103da578063553ba06c116103bf578063553ba06c1461090c57806355eba8681461092c57806357976fb41461094c57600080fd5b80634e71d92d146108d7578063537df3b6146108ec57600080fd5b806340c10f191161040b57806340c10f191461087757806342966c68146108975780634838d165146108b757600080fd5b80633eb5cbeb146108345780633f4ba83a1461086257600080fd5b806323b872dd116104d45780632f48ab7d1161048857806336e8c9b31161046d57806336e8c9b3146107ba57806339509351146107da5780633af32abf146107fa57600080fd5b80632f48ab7d14610760578063313ce5671461079e57600080fd5b806325e16063116104b957806325e16063146106ff5780632a32234f1461071f5780632bfbd9cf1461074057600080fd5b806323b872dd146106bf57806324ef8c1b146106df57600080fd5b80630b4d57f51161052b57806318160ddd1161051057806318160ddd1461067557806321040fc31461068a57806323452b9c146106aa57600080fd5b80630b4d57f51461064757806317a5d4df1461065e57600080fd5b8063095ea7b31161055c578063095ea7b3146105cf57806309eef43e146105ff5780630a702e8d1461063057600080fd5b8063052c30bc1461058357806306fdde03146105ad57600080fd5b3661057e57005b600080fd5b34801561058f57600080fd5b5061059a6101345481565b6040519081526020015b60405180910390f35b3480156105b957600080fd5b506105c2611007565b6040516105a49190613e8c565b3480156105db57600080fd5b506105ef6105ea366004613eff565b611099565b60405190151581526020016105a4565b34801561060b57600080fd5b506105ef61061a366004613f2b565b61012f6020526000908152604090205460ff1681565b34801561063c57600080fd5b5061059a6101335481565b34801561065357600080fd5b5061065c6110b3565b005b34801561066a57600080fd5b5061059a6101315481565b34801561068157600080fd5b5060355461059a565b34801561069657600080fd5b5061065c6106a5366004613f2b565b611130565b3480156106b657600080fd5b5061065c6111de565b3480156106cb57600080fd5b506105ef6106da366004613f48565b611266565b3480156106eb57600080fd5b5061065c6106fa366004613f89565b6114e0565b34801561070b57600080fd5b5061065c61071a366004613f2b565b6116ac565b34801561072b57600080fd5b5061065c61073a366004613fc4565b61013755565b34801561074c57600080fd5b5061065c61075b366004613fc4565b611743565b34801561076c57600080fd5b5061013c546107869061010090046001600160a01b031681565b6040516001600160a01b0390911681526020016105a4565b3480156107aa57600080fd5b50604051601281526020016105a4565b3480156107c657600080fd5b5061065c6107d5366004613fc4565b611824565b3480156107e657600080fd5b506105ef6107f5366004613eff565b611832565b34801561080657600080fd5b506105ef610815366004613f2b565b6001600160a01b03166000908152610140602052604090205460ff1690565b34801561084057600080fd5b5061059a61084f366004613f2b565b61013f6020526000908152604090205481565b34801561086e57600080fd5b5061065c611871565b34801561088357600080fd5b5061065c610892366004613eff565b611883565b3480156108a357600080fd5b5061065c6108b2366004613fc4565b611912565b3480156108c357600080fd5b5061065c6108d2366004613f2b565b61191c565b3480156108e357600080fd5b5061065c6119b3565b3480156108f857600080fd5b5061065c610907366004613f2b565b611bf6565b34801561091857600080fd5b5061065c610927366004613fc4565b611c89565b34801561093857600080fd5b5061065c610947366004613f2b565b611c97565b34801561095857600080fd5b50610135546105ef9060ff1681565b34801561097357600080fd5b5060c95460ff166105ef565b34801561098b57600080fd5b5061059a6101385481565b3480156109a257600080fd5b5061065c6109b1366004613f2b565b611cdf565b3480156109c257600080fd5b5061059a61013a5481565b3480156109d957600080fd5b5061059a6101465481565b3480156109f057600080fd5b5061059a6109ff366004613f2b565b6001600160a01b031660009081526033602052604090205490565b348015610a2657600080fd5b5061065c611d02565b348015610a3b57600080fd5b506105ef610a4a366004613f2b565b6101416020526000908152604090205460ff1681565b348015610a6c57600080fd5b5061059a61013b5481565b348015610a8357600080fd5b5061065c610a92366004613f2b565b611d14565b348015610aa357600080fd5b5061065c610ab2366004613eff565b611d41565b348015610ac357600080fd5b5061065c610ad2366004613feb565b611d53565b348015610ae357600080fd5b5061065c611e5f565b348015610af857600080fd5b5061065c610b07366004613eff565b611e6f565b348015610b1857600080fd5b5061065c610b27366004613f2b565b611ef8565b348015610b3857600080fd5b5061065c610b47366004613f2b565b612023565b348015610b5857600080fd5b5061065c610b67366004613fc4565b61204d565b348015610b7857600080fd5b506097546001600160a01b0316610786565b348015610b9657600080fd5b50610135546105ef90610100900460ff1681565b348015610bb657600080fd5b5061065c610bc5366004613fc4565b61205b565b348015610bd657600080fd5b506105c2612069565b348015610beb57600080fd5b5061065c610bfa366004613fc4565b612078565b348015610c0b57600080fd5b5061065c610c1a366004614008565b612156565b348015610c2b57600080fd5b5061065c610c3a366004613feb565b612270565b348015610c4b57600080fd5b506105ef610c5a366004613eff565b612293565b348015610c6b57600080fd5b506105ef610c7a366004613eff565b612348565b348015610c8b57600080fd5b5061013c546105ef9060ff1681565b348015610ca657600080fd5b5061013054610786906001600160a01b031681565b348015610cc757600080fd5b506105ef610cd6366004613f2b565b6001600160a01b0316600090815261013d602052604090205460ff1690565b348015610d0157600080fd5b5033600090815261013e602052604090205461059a565b348015610d2457600080fd5b5061059a6101395481565b348015610d3b57600080fd5b5061065c6125ab565b348015610d5057600080fd5b5061065c610d5f366004613fc4565b61276f565b348015610d7057600080fd5b5061065c610d7f366004613f2b565b61277d565b348015610d9057600080fd5b5061059a6101325481565b348015610da757600080fd5b506105ef610db6366004613f2b565b6101366020526000908152604090205460ff1681565b348015610dd857600080fd5b5061059a6101375481565b348015610def57600080fd5b5061012d54610786906001600160a01b031681565b348015610e1057600080fd5b5061065c610e1f366004613fc4565b6127c1565b348015610e3057600080fd5b5061059a6101445481565b348015610e4757600080fd5b50610786610e56366004613fc4565b6127cf565b348015610e6757600080fd5b5061059a610e76366004614008565b6001600160a01b03918216600090815260346020908152604080832093909416825291909152205490565b348015610ead57600080fd5b5061065c610ebc366004613f2b565b6127fa565b348015610ecd57600080fd5b5061065c610edc366004613f2b565b612824565b348015610eed57600080fd5b5061065c612851565b348015610f0257600080fd5b5061065c610f11366004613feb565b612861565b348015610f2257600080fd5b5061065c610f31366004613f2b565b61287d565b348015610f4257600080fd5b50610f91610f51366004613f2b565b6101426020526000908152604090208054600182015460028301546003840154600485015460059095015493946001600160a01b03909316939192909186565b604080519687526001600160a01b039095166020870152938501929092526060840152608083015260a082015260c0016105a4565b348015610fd257600080fd5b5061014354610786906001600160a01b031681565b348015610ff357600080fd5b5061065c611002366004614181565b6128f3565b6060603680546110169061423e565b80601f01602080910402602001604051908101604052809291908181526020018280546110429061423e565b801561108f5780601f106110645761010080835404028352916020019161108f565b820191906000526020600020905b81548152906001019060200180831161107257829003601f168201915b5050505050905090565b6000336110a7818585612c34565b60019150505b92915050565b600061013b54426110c4919061428e565b905061013a54811061112d576000610139546127106110e3919061428e565b116110f657506000610138554261013b55565b612710610139546101385461110b91906142a1565b61111591906142b8565b61013954611123919061428e565b610139554261013b555b50565b611138612d8c565b6001600160a01b0381166111935760405162461bcd60e51b815260206004820181905260248201527f4e6577206f776e65722063616e6e6f74206265207a65726f206164647265737360448201526064015b60405180910390fd5b61012d80546001600160a01b0319166001600160a01b0383169081179091556040517ff0c6916d81cd1f899264b5193e3bbe7afd2bcc3d05704bab73d0b8ac9387115890600090a250565b6111e6612d8c565b61012d80546001600160a01b031916905560005b61012e5481101561112d57600061012f600061012e8481548110611220576112206142da565b6000918252602080832091909101546001600160a01b031683528201929092526040019020805460ff19169115159190911790558061125e816142f0565b9150506111fa565b6001600160a01b038316600090815261013f6020526040812054849015806112a657506001600160a01b038116600090815261013f602052604090205442115b6112f25760405162461bcd60e51b815260206004820152601060248201527f57616c6c65742069732066726f7a656e00000000000000000000000000000000604482015260640161118a565b3360008181526101406020526040902054849060ff166113b2576101315481101561135f5760405162461bcd60e51b815260206004820152601460248201527f416d6f756e742062656c6f77206d696e696d756d000000000000000000000000604482015260640161118a565b610132548111156113b25760405162461bcd60e51b815260206004820152601660248201527f416d6f756e742065786365656473206d6178696d756d00000000000000000000604482015260640161118a565b6113ba612de6565b6001600160a01b038716600090815261013d602052604090205460ff16156114245760405162461bcd60e51b815260206004820152601e60248201527f53656e64657227732077616c6c657420697320626c61636b6c69737465640000604482015260640161118a565b33600090815261013e60205260409020544210156114845760405162461bcd60e51b815260206004820152601860248201527f5472616e73666572206e6f7420616c6c6f776564207965740000000000000000604482015260640161118a565b610133546114929042614309565b33600081815261013e60205260409020919091556114b290889087612e3f565b6114bd878787612ed1565b6114c8878787612f88565b600193506114d6600160fb55565b5050509392505050565b6114e8612d8c565b6001600160a01b0384166115645760405162461bcd60e51b815260206004820152602260248201527f42656e656669636961727920616464726573732063616e6e6f74206265207a6560448201527f726f000000000000000000000000000000000000000000000000000000000000606482015260840161118a565b60008211801561157657506127108211155b6115e75760405162461bcd60e51b8152602060048201526024808201527f50657263656e74616765206d757374206265206265747765656e203120616e6460448201527f2031303000000000000000000000000000000000000000000000000000000000606482015260840161118a565b6000811161165d5760405162461bcd60e51b815260206004820152602760248201527f54696d6520696e74657276616c206d757374206265206772656174657220746860448201527f616e207a65726f00000000000000000000000000000000000000000000000000606482015260840161118a565b6001600160a01b039093166000818152610142602052604081209384556001840180546001600160a01b0319169092179091556002830191909155600382019290925542600482015560050155565b6116b4612d8c565b6001600160a01b03811661170a5760405162461bcd60e51b815260206004820152600f60248201527f496e76616c696420616464726573730000000000000000000000000000000000604482015260640161118a565b6040516001600160a01b038216904780156108fc02916000818181858888f1935050505015801561173f573d6000803e3d6000fd5b5050565b6101355460ff16156117975760405162461bcd60e51b815260206004820152601360248201527f4c6971756964697479206973206c6f636b656400000000000000000000000000604482015260640161118a565b306000908152603360205260409020548111156117f65760405162461bcd60e51b815260206004820152601460248201527f496e73756666696369656e742062616c616e6365000000000000000000000000604482015260640161118a565b6118003082612348565b506101345461180f908261332d565b6101345550610135805460ff19166001179055565b61182c612d8c565b61013355565b3360008181526034602090815260408083206001600160a01b03871684529091528120549091906110a7908290869061186c908790614309565b612c34565b611879612d8c565b611881613340565b565b61188b612d8c565b611893612de6565b600061189e60355490565b610144549091506118af8383614309565b11156118fd5760405162461bcd60e51b815260206004820152601960248201527f537570706c792052656163686564204d617820537570706c7900000000000000604482015260640161118a565b6119078383613392565b5061173f600160fb55565b61112d33826133f9565b611924612d8c565b6001600160a01b038116600090815261013d602052604090205460ff161561198e5760405162461bcd60e51b815260206004820152601860248201527f7573657220616c726561647920626c61636b6c69737465640000000000000000604482015260640161118a565b6001600160a01b0316600090815261013d60205260409020805460ff19166001179055565b336000908152610142602052604090208054611a375760405162461bcd60e51b815260206004820152602860248201527f4e6f2076657374696e67207363686564756c6520666f756e6420666f7220746860448201527f652073656e646572000000000000000000000000000000000000000000000000606482015260840161118a565b60048101544290600090611a4b908361428e565b8354600385015491925090821015611aa55760405162461bcd60e51b815260206004820152601c60248201527f546f6b656e732063616e6e6f7420626520636c61696d65642079657400000000604482015260640161118a565b6000612710856002015483611aba91906142a1565b611ac491906142b8565b905080856005016000828254611ada9190614309565b90915550506004850184905581811115611b5c5760405162461bcd60e51b815260206004820152602a60248201527f546f6b656e7320746f20636c61696d2065786365656420746f74616c2076657360448201527f74656420746f6b656e7300000000000000000000000000000000000000000000606482015260840161118a565b845460058601541115611bd75760405162461bcd60e51b815260206004820152602960248201527f4e6f7420656e6f75676820746f6b656e7320696e207468652076657374696e6760448201527f207363686564756c650000000000000000000000000000000000000000000000606482015260840161118a565b61013054611bef906001600160a01b03163383612f88565b5050505050565b611bfe612d8c565b6001600160a01b038116600090815261013d602052604090205460ff16611c675760405162461bcd60e51b815260206004820152601860248201527f7573657220616c726561647920626c61636b6c69737465640000000000000000604482015260640161118a565b6001600160a01b0316600090815261013d60205260409020805460ff19169055565b611c91612d8c565b61013a55565b611c9f612d8c565b61013c80546001600160a01b03909216610100027fffffffffffffffffffffff0000000000000000000000000000000000000000ff909216919091179055565b611ce7612d8c565b6001600160a01b0316600090815261013f6020526040812055565b611d0a612d8c565b6118816000613453565b611d1c612d8c565b6001600160a01b0316600090815261013660205260409020805460ff19166001179055565b611d49612d8c565b61173f82826133f9565b611d5c336134a5565b611da85760405162461bcd60e51b815260206004820152601160248201527f4e6f7420612076616c696420766f746572000000000000000000000000000000604482015260640161118a565b33600090815261012f602052604090205460ff1615611e095760405162461bcd60e51b815260206004820152600d60248201527f416c726561647920766f74656400000000000000000000000000000000000000604482015260640161118a565b33600081815261012f6020908152604091829020805460ff191685151590811790915591519182527fa4861c5510bfa99706ed508d728f9c6b365ff27af1a3012e21980952ad2d844f910160405180910390a250565b611e67612d8c565b611881613510565b611e77612d8c565b6001600160a01b038216611ecd5760405162461bcd60e51b815260206004820152601660248201527f496e76616c69642077616c6c6574206164647265737300000000000000000000604482015260640161118a565b611ed78142614309565b6001600160a01b03909216600090815261013f602052604090209190915550565b611f00612d8c565b600080805b61012e54811015611f6657836001600160a01b031661012e8281548110611f2e57611f2e6142da565b6000918252602090912001546001600160a01b031603611f545780925060019150611f66565b80611f5e816142f0565b915050611f05565b50801561201e5761012e8054611f7e9060019061428e565b81548110611f8e57611f8e6142da565b60009182526020909120015461012e80546001600160a01b039092169184908110611fbb57611fbb6142da565b9060005260206000200160006101000a8154816001600160a01b0302191690836001600160a01b0316021790555061012e805480611ffb57611ffb61431c565b600082815260209020810160001990810180546001600160a01b03191690550190555b505050565b61202b612d8c565b6001600160a01b0316600090815261014060205260409020805460ff19169055565b612055612d8c565b61013255565b612063612d8c565b61013955565b6060603780546110169061423e565b6101355460ff166120cb5760405162461bcd60e51b815260206004820152601760248201527f4c6971756964697479206973206e6f74206c6f636b6564000000000000000000604482015260640161118a565b8061013454101561211e5760405162461bcd60e51b815260206004820152601b60248201527f4e6f7420656e6f756768206c6f636b6564206c69717569646974790000000000604482015260640161118a565b61013054612135906001600160a01b031682612348565b5061013454612144908261354d565b6101345550610135805460ff19169055565b61215e612d8c565b6040517f70a082310000000000000000000000000000000000000000000000000000000081523060048201526001600160a01b0382169063a9059cbb90849083906370a0823190602401602060405180830381865afa1580156121c5573d6000803e3d6000fd5b505050506040513d601f19601f820116820180604052508101906121e99190614332565b6040517fffffffff0000000000000000000000000000000000000000000000000000000060e085901b1681526001600160a01b03909216600483015260248201526044016020604051808303816000875af115801561224c573d6000803e3d6000fd5b505050506040513d601f19601f8201168201806040525081019061201e919061434b565b612278612d8c565b61013580549115156101000261ff0019909216919091179055565b3360008181526034602090815260408083206001600160a01b0387168452909152812054909190838110156123305760405162461bcd60e51b815260206004820152602560248201527f45524332303a2064656372656173656420616c6c6f77616e63652062656c6f7760448201527f207a65726f000000000000000000000000000000000000000000000000000000606482015260840161118a565b61233d8286868403612c34565b506001949350505050565b6000612352613559565b33600081815261013f6020526040902054158061238757506001600160a01b038116600090815261013f602052604090205442115b6123d35760405162461bcd60e51b815260206004820152601060248201527f57616c6c65742069732066726f7a656e00000000000000000000000000000000604482015260640161118a565b3360008181526101406020526040902054849060ff1661249357610131548110156124405760405162461bcd60e51b815260206004820152601460248201527f416d6f756e742062656c6f77206d696e696d756d000000000000000000000000604482015260640161118a565b610132548111156124935760405162461bcd60e51b815260206004820152601660248201527f416d6f756e742065786365656473206d6178696d756d00000000000000000000604482015260640161118a565b61249b612de6565b33600090815261013d602052604090205460ff16156124fc5760405162461bcd60e51b815260206004820152601e60248201527f53656e64657227732077616c6c657420697320626c61636b6c69737465640000604482015260640161118a565b33600090815261013e602052604090205442101561255c5760405162461bcd60e51b815260206004820152601860248201527f5472616e73666572206e6f7420616c6c6f776564207965740000000000000000604482015260640161118a565b6101335461256a9042614309565b33600081815261013e6020526040902091909155612589908787612ed1565b612594338787612f88565b600193506125a2600160fb55565b50505092915050565b6125b3612d8c565b61012e54600090815b8181101561262a5761012f600061012e83815481106125dd576125dd6142da565b60009182526020808320909101546001600160a01b0316835282019290925260400190205460ff16156126185782612614816142f0565b9350505b80612622816142f0565b9150506125bc565b508181148061267b5760405162461bcd60e51b815260206004820152601660248201527f496e73756666696369656e7420617070726f76616c7300000000000000000000604482015260640161118a565b610130805461012d546001600160a01b039081166001600160a01b03198316811790935516906126aa816135ac565b61012d80546001600160a01b031916905560005b8481101561272757600061012f600061012e84815481106126e1576126e16142da565b6000918252602080832091909101546001600160a01b031683528201929092526040019020805460ff19169115159190911790558061271f816142f0565b9150506126be565b50806001600160a01b0316826001600160a01b03167f8be0079c531659141344cd1fd0a4f28419497f9722a3daafe3b4186f6b6457e060405160405180910390a35050505050565b612777612d8c565b61013155565b612785612d8c565b61014380546001600160a01b039092166001600160a01b031990921682179055600090815261013660205260409020805460ff19166001179055565b6127c9612d8c565b61013855565b61012e81815481106127e057600080fd5b6000918252602090912001546001600160a01b0316905081565b612802612d8c565b6001600160a01b0316600090815261013660205260409020805460ff19169055565b61282c612d8c565b6001600160a01b0316600090815261014060205260409020805460ff19166001179055565b612859612d8c565b600061013855565b612869612d8c565b61013c805460ff1916911515919091179055565b612885612d8c565b60405162461bcd60e51b815260206004820152602760248201527f506c656173652043616c6c2046696e616c697a65205472616e73666572204f7760448201527f6e65727368697000000000000000000000000000000000000000000000000000606482015260840161118a565b600054610100900460ff16158080156129135750600054600160ff909116105b8061292d5750303b15801561292d575060005460ff166001145b61299f5760405162461bcd60e51b815260206004820152602e60248201527f496e697469616c697a61626c653a20636f6e747261637420697320616c72656160448201527f647920696e697469616c697a6564000000000000000000000000000000000000606482015260840161118a565b6000805460ff1916600117905580156129c2576000805461ff0019166101001790555b61013080546001600160a01b031916331790556129df8787613639565b6129e76136ae565b6129ef613719565b6129f761378c565b6129ff6137ff565b61013c805460326101375561138861013855740285e1d847b88056add3823c456ee83d37cdd60a017fffffffffffffffffffffff0000000000000000000000000000000000000000009091161790556107d06101395561012c61013a55610135805461ff00191661010017905560006101315568056bc75e2d631000006101325561013054612aae906001600160a01b0316612a9f60ff8816600a61444c565b612aa990876142a1565b613392565b33600090815261013d60209081526040808320805460ff19908116909155610140835281842080548216600190811790915561013e845282852042905561014380546001600160a01b0319166001600160a01b038a811691909117825530875261013690955283862080548416831790556b033b2e3c9fd0803ce800000061014455549093168452908320805490911690911790555b8251811015612baf5761012e838281518110612b6257612b626142da565b60209081029190910181015182546001810184556000938452919092200180546001600160a01b0319166001600160a01b0390921691909117905580612ba7816142f0565b915050612b44565b508315612be557610130546001600160a01b0316600090815261014560205260409020805460ff19166001908117909155610146555b8015612c2b576000805461ff0019169055604051600181527f7f26b83ff96e1f2b6a682f133852f6798a09c465da95921460cefb38474024989060200160405180910390a15b50505050505050565b6001600160a01b038316612caf5760405162461bcd60e51b8152602060048201526024808201527f45524332303a20617070726f76652066726f6d20746865207a65726f2061646460448201527f7265737300000000000000000000000000000000000000000000000000000000606482015260840161118a565b6001600160a01b038216612d2b5760405162461bcd60e51b815260206004820152602260248201527f45524332303a20617070726f766520746f20746865207a65726f20616464726560448201527f7373000000000000000000000000000000000000000000000000000000000000606482015260840161118a565b6001600160a01b0383811660008181526034602090815260408083209487168084529482529182902085905590518481527f8c5be1e5ebec7d5bd14f71427d1e84f3dd0314c0f7b2291e5b200ac8c7c3b925910160405180910390a3505050565b6097546001600160a01b031633146118815760405162461bcd60e51b815260206004820181905260248201527f4f776e61626c653a2063616c6c6572206973206e6f7420746865206f776e6572604482015260640161118a565b600260fb5403612e385760405162461bcd60e51b815260206004820152601f60248201527f5265656e7472616e637947756172643a207265656e7472616e742063616c6c00604482015260640161118a565b600260fb55565b6001600160a01b038381166000908152603460209081526040808320938616835292905220546000198114612ecb5781811015612ebe5760405162461bcd60e51b815260206004820152601d60248201527f45524332303a20696e73756666696369656e7420616c6c6f77616e6365000000604482015260640161118a565b612ecb8484848403612c34565b50505050565b80612ef1846001600160a01b031660009081526033602052604090205490565b03612f2b576001600160a01b038316600090815261014560205260409020805460ff1916905561014654612f2690600161354d565b610146555b6001600160a01b03821660009081526033602052604090205460000361201e576001600160a01b038216600090815261014560205260409020805460ff1916600190811790915561014654612f7f9161332d565b61014655505050565b6001600160a01b038316600090815261014060205260409020548390829060ff1661305357610131548110156130005760405162461bcd60e51b815260206004820152601460248201527f416d6f756e742062656c6f77206d696e696d756d000000000000000000000000604482015260640161118a565b610132548111156130535760405162461bcd60e51b815260206004820152601660248201527f416d6f756e742065786365656473206d6178696d756d00000000000000000000604482015260640161118a565b6001600160a01b038516600090815261013d602052604090205460ff16156130bd5760405162461bcd60e51b815260206004820152601e60248201527f53656e64657227732077616c6c657420697320626c61636b6c69737465640000604482015260640161118a565b6001600160a01b0385166131215760405162461bcd60e51b815260206004820152602560248201527f45524332303a207472616e736665722066726f6d20746865207a65726f206164604482015264647265737360d81b606482015260840161118a565b6001600160a01b0384166131835760405162461bcd60e51b815260206004820152602360248201527f45524332303a207472616e7366657220746f20746865207a65726f206164647260448201526265737360e81b606482015260840161118a565b600083116131f95760405162461bcd60e51b815260206004820152602960248201527f5472616e7366657220616d6f756e74206d75737420626520677265617465722060448201527f7468616e207a65726f0000000000000000000000000000000000000000000000606482015260840161118a565b6001600160a01b03851660009081526101366020526040902054839060ff168061323c57506001600160a01b0385166000908152610136602052604090205460ff165b156132525761324c868686613872565b50611bef565b61013554610100900460ff161561329b576000612710610137548361327791906142a1565b61328191906142b8565b905061328d87826133f9565b613297818661428e565b9450505b61013c5460ff161561330b57600061271082610139546132bb91906142a1565b6132c591906142b8565b610130549091506132e19088906001600160a01b031683613872565b61271082610139546132f391906142a1565b6132fd91906142b8565b613307908661428e565b9450505b6133136110b3565b61331e868686613872565b505050505050565b600160fb55565b60006133398284614309565b9392505050565b613348613a34565b60c9805460ff191690557f5db9ee0a495bf2e6ff9c91a7834c1ba4fdd244a5e8aa4e537bd38aeae4b073aa335b6040516001600160a01b03909116815260200160405180910390a1565b61339c8282613a86565b6001600160a01b0382166000908152610145602052604090205460ff1661173f576001600160a01b038216600090815261014560205260409020805460ff19166001908117909155610146546133f19161332d565b610146555050565b6134038282613b47565b6001600160a01b03821660009081526033602052604090205460000361173f576001600160a01b038216600090815261014560205260409020805460ff19169055610146546133f190600161354d565b609780546001600160a01b038381166001600160a01b0319831681179093556040519116919082907f8be0079c531659141344cd1fd0a4f28419497f9722a3daafe3b4186f6b6457e090600090a35050565b6000805b61012e5481101561350757826001600160a01b031661012e82815481106134d2576134d26142da565b6000918252602090912001546001600160a01b0316036134f55750600192915050565b806134ff816142f0565b9150506134a9565b50600092915050565b613518613559565b60c9805460ff191660011790557f62e78cea01bee320cd4e420270b5ea74000d11b0c9f74754ebdbfc544b05a2586133753390565b6000613339828461428e565b60c95460ff16156118815760405162461bcd60e51b815260206004820152601060248201527f5061757361626c653a2070617573656400000000000000000000000000000000604482015260640161118a565b6135b4612d8c565b6001600160a01b0381166136305760405162461bcd60e51b815260206004820152602660248201527f4f776e61626c653a206e6577206f776e657220697320746865207a65726f206160448201527f6464726573730000000000000000000000000000000000000000000000000000606482015260840161118a565b61112d81613453565b600054610100900460ff166136a45760405162461bcd60e51b815260206004820152602b60248201527f496e697469616c697a61626c653a20636f6e7472616374206973206e6f74206960448201526a6e697469616c697a696e6760a81b606482015260840161118a565b61173f8282613cb2565b600054610100900460ff166118815760405162461bcd60e51b815260206004820152602b60248201527f496e697469616c697a61626c653a20636f6e7472616374206973206e6f74206960448201526a6e697469616c697a696e6760a81b606482015260840161118a565b600054610100900460ff166137845760405162461bcd60e51b815260206004820152602b60248201527f496e697469616c697a61626c653a20636f6e7472616374206973206e6f74206960448201526a6e697469616c697a696e6760a81b606482015260840161118a565b611881613d36565b600054610100900460ff166137f75760405162461bcd60e51b815260206004820152602b60248201527f496e697469616c697a61626c653a20636f6e7472616374206973206e6f74206960448201526a6e697469616c697a696e6760a81b606482015260840161118a565b611881613daa565b600054610100900460ff1661386a5760405162461bcd60e51b815260206004820152602b60248201527f496e697469616c697a61626c653a20636f6e7472616374206973206e6f74206960448201526a6e697469616c697a696e6760a81b606482015260840161118a565b611881613e21565b6001600160a01b0383166138d65760405162461bcd60e51b815260206004820152602560248201527f45524332303a207472616e736665722066726f6d20746865207a65726f206164604482015264647265737360d81b606482015260840161118a565b6001600160a01b0382166139385760405162461bcd60e51b815260206004820152602360248201527f45524332303a207472616e7366657220746f20746865207a65726f206164647260448201526265737360e81b606482015260840161118a565b6001600160a01b038316600090815260336020526040902054818110156139c75760405162461bcd60e51b815260206004820152602660248201527f45524332303a207472616e7366657220616d6f756e742065786365656473206260448201527f616c616e63650000000000000000000000000000000000000000000000000000606482015260840161118a565b6001600160a01b0380851660008181526033602052604080822086860390559286168082529083902080548601905591517fddf252ad1be2c89b69c2b068fc378daa952ba7f163c4a11628f55a4df523b3ef90613a279086815260200190565b60405180910390a3612ecb565b60c95460ff166118815760405162461bcd60e51b815260206004820152601460248201527f5061757361626c653a206e6f7420706175736564000000000000000000000000604482015260640161118a565b6001600160a01b038216613adc5760405162461bcd60e51b815260206004820152601f60248201527f45524332303a206d696e7420746f20746865207a65726f206164647265737300604482015260640161118a565b8060356000828254613aee9190614309565b90915550506001600160a01b0382166000818152603360209081526040808320805486019055518481527fddf252ad1be2c89b69c2b068fc378daa952ba7f163c4a11628f55a4df523b3ef910160405180910390a35050565b6001600160a01b038216613bc35760405162461bcd60e51b815260206004820152602160248201527f45524332303a206275726e2066726f6d20746865207a65726f2061646472657360448201527f7300000000000000000000000000000000000000000000000000000000000000606482015260840161118a565b6001600160a01b03821660009081526033602052604090205481811015613c525760405162461bcd60e51b815260206004820152602260248201527f45524332303a206275726e20616d6f756e7420657863656564732062616c616e60448201527f6365000000000000000000000000000000000000000000000000000000000000606482015260840161118a565b6001600160a01b03831660008181526033602090815260408083208686039055603580548790039055518581529192917fddf252ad1be2c89b69c2b068fc378daa952ba7f163c4a11628f55a4df523b3ef910160405180910390a3505050565b600054610100900460ff16613d1d5760405162461bcd60e51b815260206004820152602b60248201527f496e697469616c697a61626c653a20636f6e7472616374206973206e6f74206960448201526a6e697469616c697a696e6760a81b606482015260840161118a565b6036613d29838261449e565b50603761201e828261449e565b600054610100900460ff16613da15760405162461bcd60e51b815260206004820152602b60248201527f496e697469616c697a61626c653a20636f6e7472616374206973206e6f74206960448201526a6e697469616c697a696e6760a81b606482015260840161118a565b61188133613453565b600054610100900460ff16613e155760405162461bcd60e51b815260206004820152602b60248201527f496e697469616c697a61626c653a20636f6e7472616374206973206e6f74206960448201526a6e697469616c697a696e6760a81b606482015260840161118a565b60c9805460ff19169055565b600054610100900460ff166133265760405162461bcd60e51b815260206004820152602b60248201527f496e697469616c697a61626c653a20636f6e7472616374206973206e6f74206960448201526a6e697469616c697a696e6760a81b606482015260840161118a565b600060208083528351808285015260005b81811015613eb957858101830151858201604001528201613e9d565b506000604082860101526040601f19601f8301168501019250505092915050565b6001600160a01b038116811461112d57600080fd5b8035613efa81613eda565b919050565b60008060408385031215613f1257600080fd5b8235613f1d81613eda565b946020939093013593505050565b600060208284031215613f3d57600080fd5b813561333981613eda565b600080600060608486031215613f5d57600080fd5b8335613f6881613eda565b92506020840135613f7881613eda565b929592945050506040919091013590565b60008060008060808587031215613f9f57600080fd5b8435613faa81613eda565b966020860135965060408601359560600135945092505050565b600060208284031215613fd657600080fd5b5035919050565b801515811461112d57600080fd5b600060208284031215613ffd57600080fd5b813561333981613fdd565b6000806040838503121561401b57600080fd5b823561402681613eda565b9150602083013561403681613eda565b809150509250929050565b634e487b7160e01b600052604160045260246000fd5b604051601f8201601f1916810167ffffffffffffffff8111828210171561408057614080614041565b604052919050565b600082601f83011261409957600080fd5b813567ffffffffffffffff8111156140b3576140b3614041565b6140c6601f8201601f1916602001614057565b8181528460208386010111156140db57600080fd5b816020850160208301376000918101602001919091529392505050565b600082601f83011261410957600080fd5b8135602067ffffffffffffffff82111561412557614125614041565b8160051b614134828201614057565b928352848101820192828101908785111561414e57600080fd5b83870192505b8483101561417657823561416781613eda565b82529183019190830190614154565b979650505050505050565b60008060008060008060c0878903121561419a57600080fd5b863567ffffffffffffffff808211156141b257600080fd5b6141be8a838b01614088565b975060208901359150808211156141d457600080fd5b6141e08a838b01614088565b96506040890135915060ff821682146141f857600080fd5b8195506060890135945061420e60808a01613eef565b935060a089013591508082111561422457600080fd5b5061423189828a016140f8565b9150509295509295509295565b600181811c9082168061425257607f821691505b60208210810361427257634e487b7160e01b600052602260045260246000fd5b50919050565b634e487b7160e01b600052601160045260246000fd5b818103818111156110ad576110ad614278565b80820281158282048414176110ad576110ad614278565b6000826142d557634e487b7160e01b600052601260045260246000fd5b500490565b634e487b7160e01b600052603260045260246000fd5b60006001820161430257614302614278565b5060010190565b808201808211156110ad576110ad614278565b634e487b7160e01b600052603160045260246000fd5b60006020828403121561434457600080fd5b5051919050565b60006020828403121561435d57600080fd5b815161333981613fdd565b600181815b808511156143a357816000190482111561438957614389614278565b8085161561439657918102915b93841c939080029061436d565b509250929050565b6000826143ba575060016110ad565b816143c7575060006110ad565b81600181146143dd57600281146143e757614403565b60019150506110ad565b60ff8411156143f8576143f8614278565b50506001821b6110ad565b5060208310610133831016604e8410600b8410161715614426575081810a6110ad565b6144308383614368565b806000190482111561444457614444614278565b029392505050565b600061333983836143ab565b601f82111561201e57600081815260208120601f850160051c8101602086101561447f5750805b601f850160051c820191505b8181101561331e5782815560010161448b565b815167ffffffffffffffff8111156144b8576144b8614041565b6144cc816144c6845461423e565b84614458565b602080601f83116001811461450157600084156144e95750858301515b600019600386901b1c1916600185901b17855561331e565b600085815260208120601f198616915b8281101561453057888601518255948401946001909101908401614511565b508582101561454e5787850151600019600388901b60f8161c191681555b5050505050600190811b0190555056fea2646970667358221220c37cf03f1bdfbed7927e9720fad6887523dfb5f80a4f79ee40692c9611bd8cac64736f6c63430008130033","opcodes":"PUSH1 0x80 PUSH1 0x40 MSTORE CALLVALUE DUP1 ISZERO PUSH2 0x10 JUMPI PUSH1 0x0 DUP1 REVERT JUMPDEST POP PUSH2 0x4594 DUP1 PUSH2 0x20 PUSH1 0x0 CODECOPY PUSH1 0x0 RETURN INVALID PUSH1 0x80 PUSH1 0x40 MSTORE PUSH1 0x4 CALLDATASIZE LT PUSH2 0x577 JUMPI PUSH1 0x0 CALLDATALOAD PUSH1 0xE0 SHR DUP1 PUSH4 0x79CC6790 GT PUSH2 0x2CA JUMPI DUP1 PUSH4 0xBD0E0ACD GT PUSH2 0x179 JUMPI DUP1 PUSH4 0xDA58C7D9 GT PUSH2 0xD6 JUMPI DUP1 PUSH4 0xF217FDBE GT PUSH2 0x8A JUMPI DUP1 PUSH4 0xF78E633D GT PUSH2 0x6F JUMPI DUP1 PUSH4 0xF78E633D EQ PUSH2 0xF36 JUMPI DUP1 PUSH4 0xF887EA40 EQ PUSH2 0xFC6 JUMPI DUP1 PUSH4 0xF8F1B6C9 EQ PUSH2 0xFE7 JUMPI PUSH1 0x0 DUP1 REVERT JUMPDEST DUP1 PUSH4 0xF217FDBE EQ PUSH2 0xEF6 JUMPI DUP1 PUSH4 0xF2FDE38B EQ PUSH2 0xF16 JUMPI PUSH1 0x0 DUP1 REVERT JUMPDEST DUP1 PUSH4 0xE17C4C74 GT PUSH2 0xBB JUMPI DUP1 PUSH4 0xE17C4C74 EQ PUSH2 0xEA1 JUMPI DUP1 PUSH4 0xE43252D7 EQ PUSH2 0xEC1 JUMPI DUP1 PUSH4 0xEB60B83F EQ PUSH2 0xEE1 JUMPI PUSH1 0x0 DUP1 REVERT JUMPDEST DUP1 PUSH4 0xDA58C7D9 EQ PUSH2 0xE3B JUMPI DUP1 PUSH4 0xDD62ED3E EQ PUSH2 0xE5B JUMPI PUSH1 0x0 DUP1 REVERT JUMPDEST DUP1 PUSH4 0xCB4CA631 GT PUSH2 0x12D JUMPI DUP1 PUSH4 0xD153B60C GT PUSH2 0x112 JUMPI DUP1 PUSH4 0xD153B60C EQ PUSH2 0xDE3 JUMPI DUP1 PUSH4 0xD292059E EQ PUSH2 0xE04 JUMPI DUP1 PUSH4 0xD5ABEB01 EQ PUSH2 0xE24 JUMPI PUSH1 0x0 DUP1 REVERT JUMPDEST DUP1 PUSH4 0xCB4CA631 EQ PUSH2 0xD9B JUMPI DUP1 PUSH4 0xD0A1BD44 EQ PUSH2 0xDCC JUMPI PUSH1 0x0 DUP1 REVERT JUMPDEST DUP1 PUSH4 0xBFED5CE3 GT PUSH2 0x15E JUMPI DUP1 PUSH4 0xBFED5CE3 EQ PUSH2 0xD44 JUMPI DUP1 PUSH4 0xC0D78655 EQ PUSH2 0xD64 JUMPI DUP1 PUSH4 0xC8C8EBE4 EQ PUSH2 0xD84 JUMPI PUSH1 0x0 DUP1 REVERT JUMPDEST DUP1 PUSH4 0xBD0E0ACD EQ PUSH2 0xD18 JUMPI DUP1 PUSH4 0xBF41C2A4 EQ PUSH2 0xD2F JUMPI PUSH1 0x0 DUP1 REVERT JUMPDEST DUP1 PUSH4 0x95D89B41 GT PUSH2 0x227 JUMPI DUP1 PUSH4 0xA9059CBB GT PUSH2 0x1DB JUMPI DUP1 PUSH4 0xB2BDFA7B GT PUSH2 0x1C0 JUMPI DUP1 PUSH4 0xB2BDFA7B EQ PUSH2 0xC9A JUMPI DUP1 PUSH4 0xB36D6919 EQ PUSH2 0xCBB JUMPI DUP1 PUSH4 0xB5C43DB4 EQ PUSH2 0xCF5 JUMPI PUSH1 0x0 DUP1 REVERT JUMPDEST DUP1 PUSH4 0xA9059CBB EQ PUSH2 0xC5F JUMPI DUP1 PUSH4 0xAB8B2F0D EQ PUSH2 0xC7F JUMPI PUSH1 0x0 DUP1 REVERT JUMPDEST DUP1 PUSH4 0x99672158 GT PUSH2 0x20C JUMPI DUP1 PUSH4 0x99672158 EQ PUSH2 0xBFF JUMPI DUP1 PUSH4 0xA30FF8B6 EQ PUSH2 0xC1F JUMPI DUP1 PUSH4 0xA457C2D7 EQ PUSH2 0xC3F JUMPI PUSH1 0x0 DUP1 REVERT JUMPDEST DUP1 PUSH4 0x95D89B41 EQ PUSH2 0xBCA JUMPI DUP1 PUSH4 0x96E83924 EQ PUSH2 0xBDF JUMPI PUSH1 0x0 DUP1 REVERT JUMPDEST DUP1 PUSH4 0x8AB1D681 GT PUSH2 0x27E JUMPI DUP1 PUSH4 0x8DA5CB5B GT PUSH2 0x263 JUMPI DUP1 PUSH4 0x8DA5CB5B EQ PUSH2 0xB6C JUMPI DUP1 PUSH4 0x8E8C10A2 EQ PUSH2 0xB8A JUMPI DUP1 PUSH4 0x8F376FCA EQ PUSH2 0xBAA JUMPI PUSH1 0x0 DUP1 REVERT JUMPDEST DUP1 PUSH4 0x8AB1D681 EQ PUSH2 0xB2C JUMPI DUP1 PUSH4 0x8BF55409 EQ PUSH2 0xB4C JUMPI PUSH1 0x0 DUP1 REVERT JUMPDEST DUP1 PUSH4 0x8456CB59 GT PUSH2 0x2AF JUMPI DUP1 PUSH4 0x8456CB59 EQ PUSH2 0xAD7 JUMPI DUP1 PUSH4 0x85BE583F EQ PUSH2 0xAEC JUMPI DUP1 PUSH4 0x86C1FF68 EQ PUSH2 0xB0C JUMPI PUSH1 0x0 DUP1 REVERT JUMPDEST DUP1 PUSH4 0x79CC6790 EQ PUSH2 0xA97 JUMPI DUP1 PUSH4 0x7ACE48E7 EQ PUSH2 0xAB7 JUMPI PUSH1 0x0 DUP1 REVERT JUMPDEST DUP1 PUSH4 0x3EB5CBEB GT PUSH2 0x426 JUMPI DUP1 PUSH4 0x5C975ABB GT PUSH2 0x383 JUMPI DUP1 PUSH4 0x70A08231 GT PUSH2 0x337 JUMPI DUP1 PUSH4 0x736C0D5B GT PUSH2 0x31C JUMPI DUP1 PUSH4 0x736C0D5B EQ PUSH2 0xA2F JUMPI DUP1 PUSH4 0x760B7E38 EQ PUSH2 0xA60 JUMPI DUP1 PUSH4 0x7884D888 EQ PUSH2 0xA77 JUMPI PUSH1 0x0 DUP1 REVERT JUMPDEST DUP1 PUSH4 0x70A08231 EQ PUSH2 0x9E4 JUMPI DUP1 PUSH4 0x715018A6 EQ PUSH2 0xA1A JUMPI PUSH1 0x0 DUP1 REVERT JUMPDEST DUP1 PUSH4 0x60F588B7 GT PUSH2 0x368 JUMPI DUP1 PUSH4 0x60F588B7 EQ PUSH2 0x996 JUMPI DUP1 PUSH4 0x622B67CB EQ PUSH2 0x9B6 JUMPI DUP1 PUSH4 0x6B4ED21B EQ PUSH2 0x9CD JUMPI PUSH1 0x0 DUP1 REVERT JUMPDEST DUP1 PUSH4 0x5C975ABB EQ PUSH2 0x967 JUMPI DUP1 PUSH4 0x5E2F16C8 EQ PUSH2 0x97F JUMPI PUSH1 0x0 DUP1 REVERT JUMPDEST DUP1 PUSH4 0x4E71D92D GT PUSH2 0x3DA JUMPI DUP1 PUSH4 0x553BA06C GT PUSH2 0x3BF JUMPI DUP1 PUSH4 0x553BA06C EQ PUSH2 0x90C JUMPI DUP1 PUSH4 0x55EBA868 EQ PUSH2 0x92C JUMPI DUP1 PUSH4 0x57976FB4 EQ PUSH2 0x94C JUMPI PUSH1 0x0 DUP1 REVERT JUMPDEST DUP1 PUSH4 0x4E71D92D EQ PUSH2 0x8D7 JUMPI DUP1 PUSH4 0x537DF3B6 EQ PUSH2 0x8EC JUMPI PUSH1 0x0 DUP1 REVERT JUMPDEST DUP1 PUSH4 0x40C10F19 GT PUSH2 0x40B JUMPI DUP1 PUSH4 0x40C10F19 EQ PUSH2 0x877 JUMPI DUP1 PUSH4 0x42966C68 EQ PUSH2 0x897 JUMPI DUP1 PUSH4 0x4838D165 EQ PUSH2 0x8B7 JUMPI PUSH1 0x0 DUP1 REVERT JUMPDEST DUP1 PUSH4 0x3EB5CBEB EQ PUSH2 0x834 JUMPI DUP1 PUSH4 0x3F4BA83A EQ PUSH2 0x862 JUMPI PUSH1 0x0 DUP1 REVERT JUMPDEST DUP1 PUSH4 0x23B872DD GT PUSH2 0x4D4 JUMPI DUP1 PUSH4 0x2F48AB7D GT PUSH2 0x488 JUMPI DUP1 PUSH4 0x36E8C9B3 GT PUSH2 0x46D JUMPI DUP1 PUSH4 0x36E8C9B3 EQ PUSH2 0x7BA JUMPI DUP1 PUSH4 0x39509351 EQ PUSH2 0x7DA JUMPI DUP1 PUSH4 0x3AF32ABF EQ PUSH2 0x7FA JUMPI PUSH1 0x0 DUP1 REVERT JUMPDEST DUP1 PUSH4 0x2F48AB7D EQ PUSH2 0x760 JUMPI DUP1 PUSH4 0x313CE567 EQ PUSH2 0x79E JUMPI PUSH1 0x0 DUP1 REVERT JUMPDEST DUP1 PUSH4 0x25E16063 GT PUSH2 0x4B9 JUMPI DUP1 PUSH4 0x25E16063 EQ PUSH2 0x6FF JUMPI DUP1 PUSH4 0x2A32234F EQ PUSH2 0x71F JUMPI DUP1 PUSH4 0x2BFBD9CF EQ PUSH2 0x740 JUMPI PUSH1 0x0 DUP1 REVERT JUMPDEST DUP1 PUSH4 0x23B872DD EQ PUSH2 0x6BF JUMPI DUP1 PUSH4 0x24EF8C1B EQ PUSH2 0x6DF JUMPI PUSH1 0x0 DUP1 REVERT JUMPDEST DUP1 PUSH4 0xB4D57F5 GT PUSH2 0x52B JUMPI DUP1 PUSH4 0x18160DDD GT PUSH2 0x510 JUMPI DUP1 PUSH4 0x18160DDD EQ PUSH2 0x675 JUMPI DUP1 PUSH4 0x21040FC3 EQ PUSH2 0x68A JUMPI DUP1 PUSH4 0x23452B9C EQ PUSH2 0x6AA JUMPI PUSH1 0x0 DUP1 REVERT JUMPDEST DUP1 PUSH4 0xB4D57F5 EQ PUSH2 0x647 JUMPI DUP1 PUSH4 0x17A5D4DF EQ PUSH2 0x65E JUMPI PUSH1 0x0 DUP1 REVERT JUMPDEST DUP1 PUSH4 0x95EA7B3 GT PUSH2 0x55C JUMPI DUP1 PUSH4 0x95EA7B3 EQ PUSH2 0x5CF JUMPI DUP1 PUSH4 0x9EEF43E EQ PUSH2 0x5FF JUMPI DUP1 PUSH4 0xA702E8D EQ PUSH2 0x630 JUMPI PUSH1 0x0 DUP1 REVERT JUMPDEST DUP1 PUSH4 0x52C30BC EQ PUSH2 0x583 JUMPI DUP1 PUSH4 0x6FDDE03 EQ PUSH2 0x5AD JUMPI PUSH1 0x0 DUP1 REVERT JUMPDEST CALLDATASIZE PUSH2 0x57E JUMPI STOP JUMPDEST PUSH1 0x0 DUP1 REVERT JUMPDEST CALLVALUE DUP1 ISZERO PUSH2 0x58F JUMPI PUSH1 0x0 DUP1 REVERT JUMPDEST POP PUSH2 0x59A PUSH2 0x134 SLOAD DUP2 JUMP JUMPDEST PUSH1 0x40 MLOAD SWAP1 DUP2 MSTORE PUSH1 0x20 ADD JUMPDEST PUSH1 0x40 MLOAD DUP1 SWAP2 SUB SWAP1 RETURN JUMPDEST CALLVALUE DUP1 ISZERO PUSH2 0x5B9 JUMPI PUSH1 0x0 DUP1 REVERT JUMPDEST POP PUSH2 0x5C2 PUSH2 0x1007 JUMP JUMPDEST PUSH1 0x40 MLOAD PUSH2 0x5A4 SWAP2 SWAP1 PUSH2 0x3E8C JUMP JUMPDEST CALLVALUE DUP1 ISZERO PUSH2 0x5DB JUMPI PUSH1 0x0 DUP1 REVERT JUMPDEST POP PUSH2 0x5EF PUSH2 0x5EA CALLDATASIZE PUSH1 0x4 PUSH2 0x3EFF JUMP JUMPDEST PUSH2 0x1099 JUMP JUMPDEST PUSH1 0x40 MLOAD SWAP1 ISZERO ISZERO DUP2 MSTORE PUSH1 0x20 ADD PUSH2 0x5A4 JUMP JUMPDEST CALLVALUE DUP1 ISZERO PUSH2 0x60B JUMPI PUSH1 0x0 DUP1 REVERT JUMPDEST POP PUSH2 0x5EF PUSH2 0x61A CALLDATASIZE PUSH1 0x4 PUSH2 0x3F2B JUMP JUMPDEST PUSH2 0x12F PUSH1 0x20 MSTORE PUSH1 0x0 SWAP1 DUP2 MSTORE PUSH1 0x40 SWAP1 KECCAK256 SLOAD PUSH1 0xFF AND DUP2 JUMP JUMPDEST CALLVALUE DUP1 ISZERO PUSH2 0x63C JUMPI PUSH1 0x0 DUP1 REVERT JUMPDEST POP PUSH2 0x59A PUSH2 0x133 SLOAD DUP2 JUMP JUMPDEST CALLVALUE DUP1 ISZERO PUSH2 0x653 JUMPI PUSH1 0x0 DUP1 REVERT JUMPDEST POP PUSH2 0x65C PUSH2 0x10B3 JUMP JUMPDEST STOP JUMPDEST CALLVALUE DUP1 ISZERO PUSH2 0x66A JUMPI PUSH1 0x0 DUP1 REVERT JUMPDEST POP PUSH2 0x59A PUSH2 0x131 SLOAD DUP2 JUMP JUMPDEST CALLVALUE DUP1 ISZERO PUSH2 0x681 JUMPI PUSH1 0x0 DUP1 REVERT JUMPDEST POP PUSH1 0x35 SLOAD PUSH2 0x59A JUMP JUMPDEST CALLVALUE DUP1 ISZERO PUSH2 0x696 JUMPI PUSH1 0x0 DUP1 REVERT JUMPDEST POP PUSH2 0x65C PUSH2 0x6A5 CALLDATASIZE PUSH1 0x4 PUSH2 0x3F2B JUMP JUMPDEST PUSH2 0x1130 JUMP JUMPDEST CALLVALUE DUP1 ISZERO PUSH2 0x6B6 JUMPI PUSH1 0x0 DUP1 REVERT JUMPDEST POP PUSH2 0x65C PUSH2 0x11DE JUMP JUMPDEST CALLVALUE DUP1 ISZERO PUSH2 0x6CB JUMPI PUSH1 0x0 DUP1 REVERT JUMPDEST POP PUSH2 0x5EF PUSH2 0x6DA CALLDATASIZE PUSH1 0x4 PUSH2 0x3F48 JUMP JUMPDEST PUSH2 0x1266 JUMP JUMPDEST CALLVALUE DUP1 ISZERO PUSH2 0x6EB JUMPI PUSH1 0x0 DUP1 REVERT JUMPDEST POP PUSH2 0x65C PUSH2 0x6FA CALLDATASIZE PUSH1 0x4 PUSH2 0x3F89 JUMP JUMPDEST PUSH2 0x14E0 JUMP JUMPDEST CALLVALUE DUP1 ISZERO PUSH2 0x70B JUMPI PUSH1 0x0 DUP1 REVERT JUMPDEST POP PUSH2 0x65C PUSH2 0x71A CALLDATASIZE PUSH1 0x4 PUSH2 0x3F2B JUMP JUMPDEST PUSH2 0x16AC JUMP JUMPDEST CALLVALUE DUP1 ISZERO PUSH2 0x72B JUMPI PUSH1 0x0 DUP1 REVERT JUMPDEST POP PUSH2 0x65C PUSH2 0x73A CALLDATASIZE PUSH1 0x4 PUSH2 0x3FC4 JUMP JUMPDEST PUSH2 0x137 SSTORE JUMP JUMPDEST CALLVALUE DUP1 ISZERO PUSH2 0x74C JUMPI PUSH1 0x0 DUP1 REVERT JUMPDEST POP PUSH2 0x65C PUSH2 0x75B CALLDATASIZE PUSH1 0x4 PUSH2 0x3FC4 JUMP JUMPDEST PUSH2 0x1743 JUMP JUMPDEST CALLVALUE DUP1 ISZERO PUSH2 0x76C JUMPI PUSH1 0x0 DUP1 REVERT JUMPDEST POP PUSH2 0x13C SLOAD PUSH2 0x786 SWAP1 PUSH2 0x100 SWAP1 DIV PUSH1 0x1 PUSH1 0x1 PUSH1 0xA0 SHL SUB AND DUP2 JUMP JUMPDEST PUSH1 0x40 MLOAD PUSH1 0x1 PUSH1 0x1 PUSH1 0xA0 SHL SUB SWAP1 SWAP2 AND DUP2 MSTORE PUSH1 0x20 ADD PUSH2 0x5A4 JUMP JUMPDEST CALLVALUE DUP1 ISZERO PUSH2 0x7AA JUMPI PUSH1 0x0 DUP1 REVERT JUMPDEST POP PUSH1 0x40 MLOAD PUSH1 0x12 DUP2 MSTORE PUSH1 0x20 ADD PUSH2 0x5A4 JUMP JUMPDEST CALLVALUE DUP1 ISZERO PUSH2 0x7C6 JUMPI PUSH1 0x0 DUP1 REVERT JUMPDEST POP PUSH2 0x65C PUSH2 0x7D5 CALLDATASIZE PUSH1 0x4 PUSH2 0x3FC4 JUMP JUMPDEST PUSH2 0x1824 JUMP JUMPDEST CALLVALUE DUP1 ISZERO PUSH2 0x7E6 JUMPI PUSH1 0x0 DUP1 REVERT JUMPDEST POP PUSH2 0x5EF PUSH2 0x7F5 CALLDATASIZE PUSH1 0x4 PUSH2 0x3EFF JUMP JUMPDEST PUSH2 0x1832 JUMP JUMPDEST CALLVALUE DUP1 ISZERO PUSH2 0x806 JUMPI PUSH1 0x0 DUP1 REVERT JUMPDEST POP PUSH2 0x5EF PUSH2 0x815 CALLDATASIZE PUSH1 0x4 PUSH2 0x3F2B JUMP JUMPDEST PUSH1 0x1 PUSH1 0x1 PUSH1 0xA0 SHL SUB AND PUSH1 0x0 SWAP1 DUP2 MSTORE PUSH2 0x140 PUSH1 0x20 MSTORE PUSH1 0x40 SWAP1 KECCAK256 SLOAD PUSH1 0xFF AND SWAP1 JUMP JUMPDEST CALLVALUE DUP1 ISZERO PUSH2 0x840 JUMPI PUSH1 0x0 DUP1 REVERT JUMPDEST POP PUSH2 0x59A PUSH2 0x84F CALLDATASIZE PUSH1 0x4 PUSH2 0x3F2B JUMP JUMPDEST PUSH2 0x13F PUSH1 0x20 MSTORE PUSH1 0x0 SWAP1 DUP2 MSTORE PUSH1 0x40 SWAP1 KECCAK256 SLOAD DUP2 JUMP JUMPDEST CALLVALUE DUP1 ISZERO PUSH2 0x86E JUMPI PUSH1 0x0 DUP1 REVERT JUMPDEST POP PUSH2 0x65C PUSH2 0x1871 JUMP JUMPDEST CALLVALUE DUP1 ISZERO PUSH2 0x883 JUMPI PUSH1 0x0 DUP1 REVERT JUMPDEST POP PUSH2 0x65C PUSH2 0x892 CALLDATASIZE PUSH1 0x4 PUSH2 0x3EFF JUMP JUMPDEST PUSH2 0x1883 JUMP JUMPDEST CALLVALUE DUP1 ISZERO PUSH2 0x8A3 JUMPI PUSH1 0x0 DUP1 REVERT JUMPDEST POP PUSH2 0x65C PUSH2 0x8B2 CALLDATASIZE PUSH1 0x4 PUSH2 0x3FC4 JUMP JUMPDEST PUSH2 0x1912 JUMP JUMPDEST CALLVALUE DUP1 ISZERO PUSH2 0x8C3 JUMPI PUSH1 0x0 DUP1 REVERT JUMPDEST POP PUSH2 0x65C PUSH2 0x8D2 CALLDATASIZE PUSH1 0x4 PUSH2 0x3F2B JUMP JUMPDEST PUSH2 0x191C JUMP JUMPDEST CALLVALUE DUP1 ISZERO PUSH2 0x8E3 JUMPI PUSH1 0x0 DUP1 REVERT JUMPDEST POP PUSH2 0x65C PUSH2 0x19B3 JUMP JUMPDEST CALLVALUE DUP1 ISZERO PUSH2 0x8F8 JUMPI PUSH1 0x0 DUP1 REVERT JUMPDEST POP PUSH2 0x65C PUSH2 0x907 CALLDATASIZE PUSH1 0x4 PUSH2 0x3F2B JUMP JUMPDEST PUSH2 0x1BF6 JUMP JUMPDEST CALLVALUE DUP1 ISZERO PUSH2 0x918 JUMPI PUSH1 0x0 DUP1 REVERT JUMPDEST POP PUSH2 0x65C PUSH2 0x927 CALLDATASIZE PUSH1 0x4 PUSH2 0x3FC4 JUMP JUMPDEST PUSH2 0x1C89 JUMP JUMPDEST CALLVALUE DUP1 ISZERO PUSH2 0x938 JUMPI PUSH1 0x0 DUP1 REVERT JUMPDEST POP PUSH2 0x65C PUSH2 0x947 CALLDATASIZE PUSH1 0x4 PUSH2 0x3F2B JUMP JUMPDEST PUSH2 0x1C97 JUMP JUMPDEST CALLVALUE DUP1 ISZERO PUSH2 0x958 JUMPI PUSH1 0x0 DUP1 REVERT JUMPDEST POP PUSH2 0x135 SLOAD PUSH2 0x5EF SWAP1 PUSH1 0xFF AND DUP2 JUMP JUMPDEST CALLVALUE DUP1 ISZERO PUSH2 0x973 JUMPI PUSH1 0x0 DUP1 REVERT JUMPDEST POP PUSH1 0xC9 SLOAD PUSH1 0xFF AND PUSH2 0x5EF JUMP JUMPDEST CALLVALUE DUP1 ISZERO PUSH2 0x98B JUMPI PUSH1 0x0 DUP1 REVERT JUMPDEST POP PUSH2 0x59A PUSH2 0x138 SLOAD DUP2 JUMP JUMPDEST CALLVALUE DUP1 ISZERO PUSH2 0x9A2 JUMPI PUSH1 0x0 DUP1 REVERT JUMPDEST POP PUSH2 0x65C PUSH2 0x9B1 CALLDATASIZE PUSH1 0x4 PUSH2 0x3F2B JUMP JUMPDEST PUSH2 0x1CDF JUMP JUMPDEST CALLVALUE DUP1 ISZERO PUSH2 0x9C2 JUMPI PUSH1 0x0 DUP1 REVERT JUMPDEST POP PUSH2 0x59A PUSH2 0x13A SLOAD DUP2 JUMP JUMPDEST CALLVALUE DUP1 ISZERO PUSH2 0x9D9 JUMPI PUSH1 0x0 DUP1 REVERT JUMPDEST POP PUSH2 0x59A PUSH2 0x146 SLOAD DUP2 JUMP JUMPDEST CALLVALUE DUP1 ISZERO PUSH2 0x9F0 JUMPI PUSH1 0x0 DUP1 REVERT JUMPDEST POP PUSH2 0x59A PUSH2 0x9FF CALLDATASIZE PUSH1 0x4 PUSH2 0x3F2B JUMP JUMPDEST PUSH1 0x1 PUSH1 0x1 PUSH1 0xA0 SHL SUB AND PUSH1 0x0 SWAP1 DUP2 MSTORE PUSH1 0x33 PUSH1 0x20 MSTORE PUSH1 0x40 SWAP1 KECCAK256 SLOAD SWAP1 JUMP JUMPDEST CALLVALUE DUP1 ISZERO PUSH2 0xA26 JUMPI PUSH1 0x0 DUP1 REVERT JUMPDEST POP PUSH2 0x65C PUSH2 0x1D02 JUMP JUMPDEST CALLVALUE DUP1 ISZERO PUSH2 0xA3B JUMPI PUSH1 0x0 DUP1 REVERT JUMPDEST POP PUSH2 0x5EF PUSH2 0xA4A CALLDATASIZE PUSH1 0x4 PUSH2 0x3F2B JUMP JUMPDEST PUSH2 0x141 PUSH1 0x20 MSTORE PUSH1 0x0 SWAP1 DUP2 MSTORE PUSH1 0x40 SWAP1 KECCAK256 SLOAD PUSH1 0xFF AND DUP2 JUMP JUMPDEST CALLVALUE DUP1 ISZERO PUSH2 0xA6C JUMPI PUSH1 0x0 DUP1 REVERT JUMPDEST POP PUSH2 0x59A PUSH2 0x13B SLOAD DUP2 JUMP JUMPDEST CALLVALUE DUP1 ISZERO PUSH2 0xA83 JUMPI PUSH1 0x0 DUP1 REVERT JUMPDEST POP PUSH2 0x65C PUSH2 0xA92 CALLDATASIZE PUSH1 0x4 PUSH2 0x3F2B JUMP JUMPDEST PUSH2 0x1D14 JUMP JUMPDEST CALLVALUE DUP1 ISZERO PUSH2 0xAA3 JUMPI PUSH1 0x0 DUP1 REVERT JUMPDEST POP PUSH2 0x65C PUSH2 0xAB2 CALLDATASIZE PUSH1 0x4 PUSH2 0x3EFF JUMP JUMPDEST PUSH2 0x1D41 JUMP JUMPDEST CALLVALUE DUP1 ISZERO PUSH2 0xAC3 JUMPI PUSH1 0x0 DUP1 REVERT JUMPDEST POP PUSH2 0x65C PUSH2 0xAD2 CALLDATASIZE PUSH1 0x4 PUSH2 0x3FEB JUMP JUMPDEST PUSH2 0x1D53 JUMP JUMPDEST CALLVALUE DUP1 ISZERO PUSH2 0xAE3 JUMPI PUSH1 0x0 DUP1 REVERT JUMPDEST POP PUSH2 0x65C PUSH2 0x1E5F JUMP JUMPDEST CALLVALUE DUP1 ISZERO PUSH2 0xAF8 JUMPI PUSH1 0x0 DUP1 REVERT JUMPDEST POP PUSH2 0x65C PUSH2 0xB07 CALLDATASIZE PUSH1 0x4 PUSH2 0x3EFF JUMP JUMPDEST PUSH2 0x1E6F JUMP JUMPDEST CALLVALUE DUP1 ISZERO PUSH2 0xB18 JUMPI PUSH1 0x0 DUP1 REVERT JUMPDEST POP PUSH2 0x65C PUSH2 0xB27 CALLDATASIZE PUSH1 0x4 PUSH2 0x3F2B JUMP JUMPDEST PUSH2 0x1EF8 JUMP JUMPDEST CALLVALUE DUP1 ISZERO PUSH2 0xB38 JUMPI PUSH1 0x0 DUP1 REVERT JUMPDEST POP PUSH2 0x65C PUSH2 0xB47 CALLDATASIZE PUSH1 0x4 PUSH2 0x3F2B JUMP JUMPDEST PUSH2 0x2023 JUMP JUMPDEST CALLVALUE DUP1 ISZERO PUSH2 0xB58 JUMPI PUSH1 0x0 DUP1 REVERT JUMPDEST POP PUSH2 0x65C PUSH2 0xB67 CALLDATASIZE PUSH1 0x4 PUSH2 0x3FC4 JUMP JUMPDEST PUSH2 0x204D JUMP JUMPDEST CALLVALUE DUP1 ISZERO PUSH2 0xB78 JUMPI PUSH1 0x0 DUP1 REVERT JUMPDEST POP PUSH1 0x97 SLOAD PUSH1 0x1 PUSH1 0x1 PUSH1 0xA0 SHL SUB AND PUSH2 0x786 JUMP JUMPDEST CALLVALUE DUP1 ISZERO PUSH2 0xB96 JUMPI PUSH1 0x0 DUP1 REVERT JUMPDEST POP PUSH2 0x135 SLOAD PUSH2 0x5EF SWAP1 PUSH2 0x100 SWAP1 DIV PUSH1 0xFF AND DUP2 JUMP JUMPDEST CALLVALUE DUP1 ISZERO PUSH2 0xBB6 JUMPI PUSH1 0x0 DUP1 REVERT JUMPDEST POP PUSH2 0x65C PUSH2 0xBC5 CALLDATASIZE PUSH1 0x4 PUSH2 0x3FC4 JUMP JUMPDEST PUSH2 0x205B JUMP JUMPDEST CALLVALUE DUP1 ISZERO PUSH2 0xBD6 JUMPI PUSH1 0x0 DUP1 REVERT JUMPDEST POP PUSH2 0x5C2 PUSH2 0x2069 JUMP JUMPDEST CALLVALUE DUP1 ISZERO PUSH2 0xBEB JUMPI PUSH1 0x0 DUP1 REVERT JUMPDEST POP PUSH2 0x65C PUSH2 0xBFA CALLDATASIZE PUSH1 0x4 PUSH2 0x3FC4 JUMP JUMPDEST PUSH2 0x2078 JUMP JUMPDEST CALLVALUE DUP1 ISZERO PUSH2 0xC0B JUMPI PUSH1 0x0 DUP1 REVERT JUMPDEST POP PUSH2 0x65C PUSH2 0xC1A CALLDATASIZE PUSH1 0x4 PUSH2 0x4008 JUMP JUMPDEST PUSH2 0x2156 JUMP JUMPDEST CALLVALUE DUP1 ISZERO PUSH2 0xC2B JUMPI PUSH1 0x0 DUP1 REVERT JUMPDEST POP PUSH2 0x65C PUSH2 0xC3A CALLDATASIZE PUSH1 0x4 PUSH2 0x3FEB JUMP JUMPDEST PUSH2 0x2270 JUMP JUMPDEST CALLVALUE DUP1 ISZERO PUSH2 0xC4B JUMPI PUSH1 0x0 DUP1 REVERT JUMPDEST POP PUSH2 0x5EF PUSH2 0xC5A CALLDATASIZE PUSH1 0x4 PUSH2 0x3EFF JUMP JUMPDEST PUSH2 0x2293 JUMP JUMPDEST CALLVALUE DUP1 ISZERO PUSH2 0xC6B JUMPI PUSH1 0x0 DUP1 REVERT JUMPDEST POP PUSH2 0x5EF PUSH2 0xC7A CALLDATASIZE PUSH1 0x4 PUSH2 0x3EFF JUMP JUMPDEST PUSH2 0x2348 JUMP JUMPDEST CALLVALUE DUP1 ISZERO PUSH2 0xC8B JUMPI PUSH1 0x0 DUP1 REVERT JUMPDEST POP PUSH2 0x13C SLOAD PUSH2 0x5EF SWAP1 PUSH1 0xFF AND DUP2 JUMP JUMPDEST CALLVALUE DUP1 ISZERO PUSH2 0xCA6 JUMPI PUSH1 0x0 DUP1 REVERT JUMPDEST POP PUSH2 0x130 SLOAD PUSH2 0x786 SWAP1 PUSH1 0x1 PUSH1 0x1 PUSH1 0xA0 SHL SUB AND DUP2 JUMP JUMPDEST CALLVALUE DUP1 ISZERO PUSH2 0xCC7 JUMPI PUSH1 0x0 DUP1 REVERT JUMPDEST POP PUSH2 0x5EF PUSH2 0xCD6 CALLDATASIZE PUSH1 0x4 PUSH2 0x3F2B JUMP JUMPDEST PUSH1 0x1 PUSH1 0x1 PUSH1 0xA0 SHL SUB AND PUSH1 0x0 SWAP1 DUP2 MSTORE PUSH2 0x13D PUSH1 0x20 MSTORE PUSH1 0x40 SWAP1 KECCAK256 SLOAD PUSH1 0xFF AND SWAP1 JUMP JUMPDEST CALLVALUE DUP1 ISZERO PUSH2 0xD01 JUMPI PUSH1 0x0 DUP1 REVERT JUMPDEST POP CALLER PUSH1 0x0 SWAP1 DUP2 MSTORE PUSH2 0x13E PUSH1 0x20 MSTORE PUSH1 0x40 SWAP1 KECCAK256 SLOAD PUSH2 0x59A JUMP JUMPDEST CALLVALUE DUP1 ISZERO PUSH2 0xD24 JUMPI PUSH1 0x0 DUP1 REVERT JUMPDEST POP PUSH2 0x59A PUSH2 0x139 SLOAD DUP2 JUMP JUMPDEST CALLVALUE DUP1 ISZERO PUSH2 0xD3B JUMPI PUSH1 0x0 DUP1 REVERT JUMPDEST POP PUSH2 0x65C PUSH2 0x25AB JUMP JUMPDEST CALLVALUE DUP1 ISZERO PUSH2 0xD50 JUMPI PUSH1 0x0 DUP1 REVERT JUMPDEST POP PUSH2 0x65C PUSH2 0xD5F CALLDATASIZE PUSH1 0x4 PUSH2 0x3FC4 JUMP JUMPDEST PUSH2 0x276F JUMP JUMPDEST CALLVALUE DUP1 ISZERO PUSH2 0xD70 JUMPI PUSH1 0x0 DUP1 REVERT JUMPDEST POP PUSH2 0x65C PUSH2 0xD7F CALLDATASIZE PUSH1 0x4 PUSH2 0x3F2B JUMP JUMPDEST PUSH2 0x277D JUMP JUMPDEST CALLVALUE DUP1 ISZERO PUSH2 0xD90 JUMPI PUSH1 0x0 DUP1 REVERT JUMPDEST POP PUSH2 0x59A PUSH2 0x132 SLOAD DUP2 JUMP JUMPDEST CALLVALUE DUP1 ISZERO PUSH2 0xDA7 JUMPI PUSH1 0x0 DUP1 REVERT JUMPDEST POP PUSH2 0x5EF PUSH2 0xDB6 CALLDATASIZE PUSH1 0x4 PUSH2 0x3F2B JUMP JUMPDEST PUSH2 0x136 PUSH1 0x20 MSTORE PUSH1 0x0 SWAP1 DUP2 MSTORE PUSH1 0x40 SWAP1 KECCAK256 SLOAD PUSH1 0xFF AND DUP2 JUMP JUMPDEST CALLVALUE DUP1 ISZERO PUSH2 0xDD8 JUMPI PUSH1 0x0 DUP1 REVERT JUMPDEST POP PUSH2 0x59A PUSH2 0x137 SLOAD DUP2 JUMP JUMPDEST CALLVALUE DUP1 ISZERO PUSH2 0xDEF JUMPI PUSH1 0x0 DUP1 REVERT JUMPDEST POP PUSH2 0x12D SLOAD PUSH2 0x786 SWAP1 PUSH1 0x1 PUSH1 0x1 PUSH1 0xA0 SHL SUB AND DUP2 JUMP JUMPDEST CALLVALUE DUP1 ISZERO PUSH2 0xE10 JUMPI PUSH1 0x0 DUP1 REVERT JUMPDEST POP PUSH2 0x65C PUSH2 0xE1F CALLDATASIZE PUSH1 0x4 PUSH2 0x3FC4 JUMP JUMPDEST PUSH2 0x27C1 JUMP JUMPDEST CALLVALUE DUP1 ISZERO PUSH2 0xE30 JUMPI PUSH1 0x0 DUP1 REVERT JUMPDEST POP PUSH2 0x59A PUSH2 0x144 SLOAD DUP2 JUMP JUMPDEST CALLVALUE DUP1 ISZERO PUSH2 0xE47 JUMPI PUSH1 0x0 DUP1 REVERT JUMPDEST POP PUSH2 0x786 PUSH2 0xE56 CALLDATASIZE PUSH1 0x4 PUSH2 0x3FC4 JUMP JUMPDEST PUSH2 0x27CF JUMP JUMPDEST CALLVALUE DUP1 ISZERO PUSH2 0xE67 JUMPI PUSH1 0x0 DUP1 REVERT JUMPDEST POP PUSH2 0x59A PUSH2 0xE76 CALLDATASIZE PUSH1 0x4 PUSH2 0x4008 JUMP JUMPDEST PUSH1 0x1 PUSH1 0x1 PUSH1 0xA0 SHL SUB SWAP2 DUP3 AND PUSH1 0x0 SWAP1 DUP2 MSTORE PUSH1 0x34 PUSH1 0x20 SWAP1 DUP2 MSTORE PUSH1 0x40 DUP1 DUP4 KECCAK256 SWAP4 SWAP1 SWAP5 AND DUP3 MSTORE SWAP2 SWAP1 SWAP2 MSTORE KECCAK256 SLOAD SWAP1 JUMP JUMPDEST CALLVALUE DUP1 ISZERO PUSH2 0xEAD JUMPI PUSH1 0x0 DUP1 REVERT JUMPDEST POP PUSH2 0x65C PUSH2 0xEBC CALLDATASIZE PUSH1 0x4 PUSH2 0x3F2B JUMP JUMPDEST PUSH2 0x27FA JUMP JUMPDEST CALLVALUE DUP1 ISZERO PUSH2 0xECD JUMPI PUSH1 0x0 DUP1 REVERT JUMPDEST POP PUSH2 0x65C PUSH2 0xEDC CALLDATASIZE PUSH1 0x4 PUSH2 0x3F2B JUMP JUMPDEST PUSH2 0x2824 JUMP JUMPDEST CALLVALUE DUP1 ISZERO PUSH2 0xEED JUMPI PUSH1 0x0 DUP1 REVERT JUMPDEST POP PUSH2 0x65C PUSH2 0x2851 JUMP JUMPDEST CALLVALUE DUP1 ISZERO PUSH2 0xF02 JUMPI PUSH1 0x0 DUP1 REVERT JUMPDEST POP PUSH2 0x65C PUSH2 0xF11 CALLDATASIZE PUSH1 0x4 PUSH2 0x3FEB JUMP JUMPDEST PUSH2 0x2861 JUMP JUMPDEST CALLVALUE DUP1 ISZERO PUSH2 0xF22 JUMPI PUSH1 0x0 DUP1 REVERT JUMPDEST POP PUSH2 0x65C PUSH2 0xF31 CALLDATASIZE PUSH1 0x4 PUSH2 0x3F2B JUMP JUMPDEST PUSH2 0x287D JUMP JUMPDEST CALLVALUE DUP1 ISZERO PUSH2 0xF42 JUMPI PUSH1 0x0 DUP1 REVERT JUMPDEST POP PUSH2 0xF91 PUSH2 0xF51 CALLDATASIZE PUSH1 0x4 PUSH2 0x3F2B JUMP JUMPDEST PUSH2 0x142 PUSH1 0x20 MSTORE PUSH1 0x0 SWAP1 DUP2 MSTORE PUSH1 0x40 SWAP1 KECCAK256 DUP1 SLOAD PUSH1 0x1 DUP3 ADD SLOAD PUSH1 0x2 DUP4 ADD SLOAD PUSH1 0x3 DUP5 ADD SLOAD PUSH1 0x4 DUP6 ADD SLOAD PUSH1 0x5 SWAP1 SWAP6 ADD SLOAD SWAP4 SWAP5 PUSH1 0x1 PUSH1 0x1 PUSH1 0xA0 SHL SUB SWAP1 SWAP4 AND SWAP4 SWAP2 SWAP3 SWAP1 SWAP2 DUP7 JUMP JUMPDEST PUSH1 0x40 DUP1 MLOAD SWAP7 DUP8 MSTORE PUSH1 0x1 PUSH1 0x1 PUSH1 0xA0 SHL SUB SWAP1 SWAP6 AND PUSH1 0x20 DUP8 ADD MSTORE SWAP4 DUP6 ADD SWAP3 SWAP1 SWAP3 MSTORE PUSH1 0x60 DUP5 ADD MSTORE PUSH1 0x80 DUP4 ADD MSTORE PUSH1 0xA0 DUP3 ADD MSTORE PUSH1 0xC0 ADD PUSH2 0x5A4 JUMP JUMPDEST CALLVALUE DUP1 ISZERO PUSH2 0xFD2 JUMPI PUSH1 0x0 DUP1 REVERT JUMPDEST POP PUSH2 0x143 SLOAD PUSH2 0x786 SWAP1 PUSH1 0x1 PUSH1 0x1 PUSH1 0xA0 SHL SUB AND DUP2 JUMP JUMPDEST CALLVALUE DUP1 ISZERO PUSH2 0xFF3 JUMPI PUSH1 0x0 DUP1 REVERT JUMPDEST POP PUSH2 0x65C PUSH2 0x1002 CALLDATASIZE PUSH1 0x4 PUSH2 0x4181 JUMP JUMPDEST PUSH2 0x28F3 JUMP JUMPDEST PUSH1 0x60 PUSH1 0x36 DUP1 SLOAD PUSH2 0x1016 SWAP1 PUSH2 0x423E JUMP JUMPDEST DUP1 PUSH1 0x1F ADD PUSH1 0x20 DUP1 SWAP2 DIV MUL PUSH1 0x20 ADD PUSH1 0x40 MLOAD SWAP1 DUP2 ADD PUSH1 0x40 MSTORE DUP1 SWAP3 SWAP2 SWAP1 DUP2 DUP2 MSTORE PUSH1 0x20 ADD DUP3 DUP1 SLOAD PUSH2 0x1042 SWAP1 PUSH2 0x423E JUMP JUMPDEST DUP1 ISZERO PUSH2 0x108F JUMPI DUP1 PUSH1 0x1F LT PUSH2 0x1064 JUMPI PUSH2 0x100 DUP1 DUP4 SLOAD DIV MUL DUP4 MSTORE SWAP2 PUSH1 0x20 ADD SWAP2 PUSH2 0x108F JUMP JUMPDEST DUP3 ADD SWAP2 SWAP1 PUSH1 0x0 MSTORE PUSH1 0x20 PUSH1 0x0 KECCAK256 SWAP1 JUMPDEST DUP2 SLOAD DUP2 MSTORE SWAP1 PUSH1 0x1 ADD SWAP1 PUSH1 0x20 ADD DUP1 DUP4 GT PUSH2 0x1072 JUMPI DUP3 SWAP1 SUB PUSH1 0x1F AND DUP3 ADD SWAP2 JUMPDEST POP POP POP POP POP SWAP1 POP SWAP1 JUMP JUMPDEST PUSH1 0x0 CALLER PUSH2 0x10A7 DUP2 DUP6 DUP6 PUSH2 0x2C34 JUMP JUMPDEST PUSH1 0x1 SWAP2 POP POP JUMPDEST SWAP3 SWAP2 POP POP JUMP JUMPDEST PUSH1 0x0 PUSH2 0x13B SLOAD TIMESTAMP PUSH2 0x10C4 SWAP2 SWAP1 PUSH2 0x428E JUMP JUMPDEST SWAP1 POP PUSH2 0x13A SLOAD DUP2 LT PUSH2 0x112D JUMPI PUSH1 0x0 PUSH2 0x139 SLOAD PUSH2 0x2710 PUSH2 0x10E3 SWAP2 SWAP1 PUSH2 0x428E JUMP JUMPDEST GT PUSH2 0x10F6 JUMPI POP PUSH1 0x0 PUSH2 0x138 SSTORE TIMESTAMP PUSH2 0x13B SSTORE JUMP JUMPDEST PUSH2 0x2710 PUSH2 0x139 SLOAD PUSH2 0x138 SLOAD PUSH2 0x110B SWAP2 SWAP1 PUSH2 0x42A1 JUMP JUMPDEST PUSH2 0x1115 SWAP2 SWAP1 PUSH2 0x42B8 JUMP JUMPDEST PUSH2 0x139 SLOAD PUSH2 0x1123 SWAP2 SWAP1 PUSH2 0x428E JUMP JUMPDEST PUSH2 0x139 SSTORE TIMESTAMP PUSH2 0x13B SSTORE JUMPDEST POP JUMP JUMPDEST PUSH2 0x1138 PUSH2 0x2D8C JUMP JUMPDEST PUSH1 0x1 PUSH1 0x1 PUSH1 0xA0 SHL SUB DUP2 AND PUSH2 0x1193 JUMPI PUSH1 0x40 MLOAD PUSH3 0x461BCD PUSH1 0xE5 SHL DUP2 MSTORE PUSH1 0x20 PUSH1 0x4 DUP3 ADD DUP2 SWAP1 MSTORE PUSH1 0x24 DUP3 ADD MSTORE PUSH32 0x4E6577206F776E65722063616E6E6F74206265207A65726F2061646472657373 PUSH1 0x44 DUP3 ADD MSTORE PUSH1 0x64 ADD JUMPDEST PUSH1 0x40 MLOAD DUP1 SWAP2 SUB SWAP1 REVERT JUMPDEST PUSH2 0x12D DUP1 SLOAD PUSH1 0x1 PUSH1 0x1 PUSH1 0xA0 SHL SUB NOT AND PUSH1 0x1 PUSH1 0x1 PUSH1 0xA0 SHL SUB DUP4 AND SWAP1 DUP2 OR SWAP1 SWAP2 SSTORE PUSH1 0x40 MLOAD PUSH32 0xF0C6916D81CD1F899264B5193E3BBE7AFD2BCC3D05704BAB73D0B8AC93871158 SWAP1 PUSH1 0x0 SWAP1 LOG2 POP JUMP JUMPDEST PUSH2 0x11E6 PUSH2 0x2D8C JUMP JUMPDEST PUSH2 0x12D DUP1 SLOAD PUSH1 0x1 PUSH1 0x1 PUSH1 0xA0 SHL SUB NOT AND SWAP1 SSTORE PUSH1 0x0 JUMPDEST PUSH2 0x12E SLOAD DUP2 LT ISZERO PUSH2 0x112D JUMPI PUSH1 0x0 PUSH2 0x12F PUSH1 0x0 PUSH2 0x12E DUP5 DUP2 SLOAD DUP2 LT PUSH2 0x1220 JUMPI PUSH2 0x1220 PUSH2 0x42DA JUMP JUMPDEST PUSH1 0x0 SWAP2 DUP3 MSTORE PUSH1 0x20 DUP1 DUP4 KECCAK256 SWAP2 SWAP1 SWAP2 ADD SLOAD PUSH1 0x1 PUSH1 0x1 PUSH1 0xA0 SHL SUB AND DUP4 MSTORE DUP3 ADD SWAP3 SWAP1 SWAP3 MSTORE PUSH1 0x40 ADD SWAP1 KECCAK256 DUP1 SLOAD PUSH1 0xFF NOT AND SWAP2 ISZERO ISZERO SWAP2 SWAP1 SWAP2 OR SWAP1 SSTORE DUP1 PUSH2 0x125E DUP2 PUSH2 0x42F0 JUMP JUMPDEST SWAP2 POP POP PUSH2 0x11FA JUMP JUMPDEST PUSH1 0x1 PUSH1 0x1 PUSH1 0xA0 SHL SUB DUP4 AND PUSH1 0x0 SWAP1 DUP2 MSTORE PUSH2 0x13F PUSH1 0x20 MSTORE PUSH1 0x40 DUP2 KECCAK256 SLOAD DUP5 SWAP1 ISZERO DUP1 PUSH2 0x12A6 JUMPI POP PUSH1 0x1 PUSH1 0x1 PUSH1 0xA0 SHL SUB DUP2 AND PUSH1 0x0 SWAP1 DUP2 MSTORE PUSH2 0x13F PUSH1 0x20 MSTORE PUSH1 0x40 SWAP1 KECCAK256 SLOAD TIMESTAMP GT JUMPDEST PUSH2 0x12F2 JUMPI PUSH1 0x40 MLOAD PUSH3 0x461BCD PUSH1 0xE5 SHL DUP2 MSTORE PUSH1 0x20 PUSH1 0x4 DUP3 ADD MSTORE PUSH1 0x10 PUSH1 0x24 DUP3 ADD MSTORE PUSH32 0x57616C6C65742069732066726F7A656E00000000000000000000000000000000 PUSH1 0x44 DUP3 ADD MSTORE PUSH1 0x64 ADD PUSH2 0x118A JUMP JUMPDEST CALLER PUSH1 0x0 DUP2 DUP2 MSTORE PUSH2 0x140 PUSH1 0x20 MSTORE PUSH1 0x40 SWAP1 KECCAK256 SLOAD DUP5 SWAP1 PUSH1 0xFF AND PUSH2 0x13B2 JUMPI PUSH2 0x131 SLOAD DUP2 LT ISZERO PUSH2 0x135F JUMPI PUSH1 0x40 MLOAD PUSH3 0x461BCD PUSH1 0xE5 SHL DUP2 MSTORE PUSH1 0x20 PUSH1 0x4 DUP3 ADD MSTORE PUSH1 0x14 PUSH1 0x24 DUP3 ADD MSTORE PUSH32 0x416D6F756E742062656C6F77206D696E696D756D000000000000000000000000 PUSH1 0x44 DUP3 ADD MSTORE PUSH1 0x64 ADD PUSH2 0x118A JUMP JUMPDEST PUSH2 0x132 SLOAD DUP2 GT ISZERO PUSH2 0x13B2 JUMPI PUSH1 0x40 MLOAD PUSH3 0x461BCD PUSH1 0xE5 SHL DUP2 MSTORE PUSH1 0x20 PUSH1 0x4 DUP3 ADD MSTORE PUSH1 0x16 PUSH1 0x24 DUP3 ADD MSTORE PUSH32 0x416D6F756E742065786365656473206D6178696D756D00000000000000000000 PUSH1 0x44 DUP3 ADD MSTORE PUSH1 0x64 ADD PUSH2 0x118A JUMP JUMPDEST PUSH2 0x13BA PUSH2 0x2DE6 JUMP JUMPDEST PUSH1 0x1 PUSH1 0x1 PUSH1 0xA0 SHL SUB DUP8 AND PUSH1 0x0 SWAP1 DUP2 MSTORE PUSH2 0x13D PUSH1 0x20 MSTORE PUSH1 0x40 SWAP1 KECCAK256 SLOAD PUSH1 0xFF AND ISZERO PUSH2 0x1424 JUMPI PUSH1 0x40 MLOAD PUSH3 0x461BCD PUSH1 0xE5 SHL DUP2 MSTORE PUSH1 0x20 PUSH1 0x4 DUP3 ADD MSTORE PUSH1 0x1E PUSH1 0x24 DUP3 ADD MSTORE PUSH32 0x53656E64657227732077616C6C657420697320626C61636B6C69737465640000 PUSH1 0x44 DUP3 ADD MSTORE PUSH1 0x64 ADD PUSH2 0x118A JUMP JUMPDEST CALLER PUSH1 0x0 SWAP1 DUP2 MSTORE PUSH2 0x13E PUSH1 0x20 MSTORE PUSH1 0x40 SWAP1 KECCAK256 SLOAD TIMESTAMP LT ISZERO PUSH2 0x1484 JUMPI PUSH1 0x40 MLOAD PUSH3 0x461BCD PUSH1 0xE5 SHL DUP2 MSTORE PUSH1 0x20 PUSH1 0x4 DUP3 ADD MSTORE PUSH1 0x18 PUSH1 0x24 DUP3 ADD MSTORE PUSH32 0x5472616E73666572206E6F7420616C6C6F776564207965740000000000000000 PUSH1 0x44 DUP3 ADD MSTORE PUSH1 0x64 ADD PUSH2 0x118A JUMP JUMPDEST PUSH2 0x133 SLOAD PUSH2 0x1492 SWAP1 TIMESTAMP PUSH2 0x4309 JUMP JUMPDEST CALLER PUSH1 0x0 DUP2 DUP2 MSTORE PUSH2 0x13E PUSH1 0x20 MSTORE PUSH1 0x40 SWAP1 KECCAK256 SWAP2 SWAP1 SWAP2 SSTORE PUSH2 0x14B2 SWAP1 DUP9 SWAP1 DUP8 PUSH2 0x2E3F JUMP JUMPDEST PUSH2 0x14BD DUP8 DUP8 DUP8 PUSH2 0x2ED1 JUMP JUMPDEST PUSH2 0x14C8 DUP8 DUP8 DUP8 PUSH2 0x2F88 JUMP JUMPDEST PUSH1 0x1 SWAP4 POP PUSH2 0x14D6 PUSH1 0x1 PUSH1 0xFB SSTORE JUMP JUMPDEST POP POP POP SWAP4 SWAP3 POP POP POP JUMP JUMPDEST PUSH2 0x14E8 PUSH2 0x2D8C JUMP JUMPDEST PUSH1 0x1 PUSH1 0x1 PUSH1 0xA0 SHL SUB DUP5 AND PUSH2 0x1564 JUMPI PUSH1 0x40 MLOAD PUSH3 0x461BCD PUSH1 0xE5 SHL DUP2 MSTORE PUSH1 0x20 PUSH1 0x4 DUP3 ADD MSTORE PUSH1 0x22 PUSH1 0x24 DUP3 ADD MSTORE PUSH32 0x42656E656669636961727920616464726573732063616E6E6F74206265207A65 PUSH1 0x44 DUP3 ADD MSTORE PUSH32 0x726F000000000000000000000000000000000000000000000000000000000000 PUSH1 0x64 DUP3 ADD MSTORE PUSH1 0x84 ADD PUSH2 0x118A JUMP JUMPDEST PUSH1 0x0 DUP3 GT DUP1 ISZERO PUSH2 0x1576 JUMPI POP PUSH2 0x2710 DUP3 GT ISZERO JUMPDEST PUSH2 0x15E7 JUMPI PUSH1 0x40 MLOAD PUSH3 0x461BCD PUSH1 0xE5 SHL DUP2 MSTORE PUSH1 0x20 PUSH1 0x4 DUP3 ADD MSTORE PUSH1 0x24 DUP1 DUP3 ADD MSTORE PUSH32 0x50657263656E74616765206D757374206265206265747765656E203120616E64 PUSH1 0x44 DUP3 ADD MSTORE PUSH32 0x2031303000000000000000000000000000000000000000000000000000000000 PUSH1 0x64 DUP3 ADD MSTORE PUSH1 0x84 ADD PUSH2 0x118A JUMP JUMPDEST PUSH1 0x0 DUP2 GT PUSH2 0x165D JUMPI PUSH1 0x40 MLOAD PUSH3 0x461BCD PUSH1 0xE5 SHL DUP2 MSTORE PUSH1 0x20 PUSH1 0x4 DUP3 ADD MSTORE PUSH1 0x27 PUSH1 0x24 DUP3 ADD MSTORE PUSH32 0x54696D6520696E74657276616C206D7573742062652067726561746572207468 PUSH1 0x44 DUP3 ADD MSTORE PUSH32 0x616E207A65726F00000000000000000000000000000000000000000000000000 PUSH1 0x64 DUP3 ADD MSTORE PUSH1 0x84 ADD PUSH2 0x118A JUMP JUMPDEST PUSH1 0x1 PUSH1 0x1 PUSH1 0xA0 SHL SUB SWAP1 SWAP4 AND PUSH1 0x0 DUP2 DUP2 MSTORE PUSH2 0x142 PUSH1 0x20 MSTORE PUSH1 0x40 DUP2 KECCAK256 SWAP4 DUP5 SSTORE PUSH1 0x1 DUP5 ADD DUP1 SLOAD PUSH1 0x1 PUSH1 0x1 PUSH1 0xA0 SHL SUB NOT AND SWAP1 SWAP3 OR SWAP1 SWAP2 SSTORE PUSH1 0x2 DUP4 ADD SWAP2 SWAP1 SWAP2 SSTORE PUSH1 0x3 DUP3 ADD SWAP3 SWAP1 SWAP3 SSTORE TIMESTAMP PUSH1 0x4 DUP3 ADD SSTORE PUSH1 0x5 ADD SSTORE JUMP JUMPDEST PUSH2 0x16B4 PUSH2 0x2D8C JUMP JUMPDEST PUSH1 0x1 PUSH1 0x1 PUSH1 0xA0 SHL SUB DUP2 AND PUSH2 0x170A JUMPI PUSH1 0x40 MLOAD PUSH3 0x461BCD PUSH1 0xE5 SHL DUP2 MSTORE PUSH1 0x20 PUSH1 0x4 DUP3 ADD MSTORE PUSH1 0xF PUSH1 0x24 DUP3 ADD MSTORE PUSH32 0x496E76616C696420616464726573730000000000000000000000000000000000 PUSH1 0x44 DUP3 ADD MSTORE PUSH1 0x64 ADD PUSH2 0x118A JUMP JUMPDEST PUSH1 0x40 MLOAD PUSH1 0x1 PUSH1 0x1 PUSH1 0xA0 SHL SUB DUP3 AND SWAP1 SELFBALANCE DUP1 ISZERO PUSH2 0x8FC MUL SWAP2 PUSH1 0x0 DUP2 DUP2 DUP2 DUP6 DUP9 DUP9 CALL SWAP4 POP POP POP POP ISZERO DUP1 ISZERO PUSH2 0x173F JUMPI RETURNDATASIZE PUSH1 0x0 DUP1 RETURNDATACOPY RETURNDATASIZE PUSH1 0x0 REVERT JUMPDEST POP POP JUMP JUMPDEST PUSH2 0x135 SLOAD PUSH1 0xFF AND ISZERO PUSH2 0x1797 JUMPI PUSH1 0x40 MLOAD PUSH3 0x461BCD PUSH1 0xE5 SHL DUP2 MSTORE PUSH1 0x20 PUSH1 0x4 DUP3 ADD MSTORE PUSH1 0x13 PUSH1 0x24 DUP3 ADD MSTORE PUSH32 0x4C6971756964697479206973206C6F636B656400000000000000000000000000 PUSH1 0x44 DUP3 ADD MSTORE PUSH1 0x64 ADD PUSH2 0x118A JUMP JUMPDEST ADDRESS PUSH1 0x0 SWAP1 DUP2 MSTORE PUSH1 0x33 PUSH1 0x20 MSTORE PUSH1 0x40 SWAP1 KECCAK256 SLOAD DUP2 GT ISZERO PUSH2 0x17F6 JUMPI PUSH1 0x40 MLOAD PUSH3 0x461BCD PUSH1 0xE5 SHL DUP2 MSTORE PUSH1 0x20 PUSH1 0x4 DUP3 ADD MSTORE PUSH1 0x14 PUSH1 0x24 DUP3 ADD MSTORE PUSH32 0x496E73756666696369656E742062616C616E6365000000000000000000000000 PUSH1 0x44 DUP3 ADD MSTORE PUSH1 0x64 ADD PUSH2 0x118A JUMP JUMPDEST PUSH2 0x1800 ADDRESS DUP3 PUSH2 0x2348 JUMP JUMPDEST POP PUSH2 0x134 SLOAD PUSH2 0x180F SWAP1 DUP3 PUSH2 0x332D JUMP JUMPDEST PUSH2 0x134 SSTORE POP PUSH2 0x135 DUP1 SLOAD PUSH1 0xFF NOT AND PUSH1 0x1 OR SWAP1 SSTORE JUMP JUMPDEST PUSH2 0x182C PUSH2 0x2D8C JUMP JUMPDEST PUSH2 0x133 SSTORE JUMP JUMPDEST CALLER PUSH1 0x0 DUP2 DUP2 MSTORE PUSH1 0x34 PUSH1 0x20 SWAP1 DUP2 MSTORE PUSH1 0x40 DUP1 DUP4 KECCAK256 PUSH1 0x1 PUSH1 0x1 PUSH1 0xA0 SHL SUB DUP8 AND DUP5 MSTORE SWAP1 SWAP2 MSTORE DUP2 KECCAK256 SLOAD SWAP1 SWAP2 SWAP1 PUSH2 0x10A7 SWAP1 DUP3 SWAP1 DUP7 SWAP1 PUSH2 0x186C SWAP1 DUP8 SWAP1 PUSH2 0x4309 JUMP JUMPDEST PUSH2 0x2C34 JUMP JUMPDEST PUSH2 0x1879 PUSH2 0x2D8C JUMP JUMPDEST PUSH2 0x1881 PUSH2 0x3340 JUMP JUMPDEST JUMP JUMPDEST PUSH2 0x188B PUSH2 0x2D8C JUMP JUMPDEST PUSH2 0x1893 PUSH2 0x2DE6 JUMP JUMPDEST PUSH1 0x0 PUSH2 0x189E PUSH1 0x35 SLOAD SWAP1 JUMP JUMPDEST PUSH2 0x144 SLOAD SWAP1 SWAP2 POP PUSH2 0x18AF DUP4 DUP4 PUSH2 0x4309 JUMP JUMPDEST GT ISZERO PUSH2 0x18FD JUMPI PUSH1 0x40 MLOAD PUSH3 0x461BCD PUSH1 0xE5 SHL DUP2 MSTORE PUSH1 0x20 PUSH1 0x4 DUP3 ADD MSTORE PUSH1 0x19 PUSH1 0x24 DUP3 ADD MSTORE PUSH32 0x537570706C792052656163686564204D617820537570706C7900000000000000 PUSH1 0x44 DUP3 ADD MSTORE PUSH1 0x64 ADD PUSH2 0x118A JUMP JUMPDEST PUSH2 0x1907 DUP4 DUP4 PUSH2 0x3392 JUMP JUMPDEST POP PUSH2 0x173F PUSH1 0x1 PUSH1 0xFB SSTORE JUMP JUMPDEST PUSH2 0x112D CALLER DUP3 PUSH2 0x33F9 JUMP JUMPDEST PUSH2 0x1924 PUSH2 0x2D8C JUMP JUMPDEST PUSH1 0x1 PUSH1 0x1 PUSH1 0xA0 SHL SUB DUP2 AND PUSH1 0x0 SWAP1 DUP2 MSTORE PUSH2 0x13D PUSH1 0x20 MSTORE PUSH1 0x40 SWAP1 KECCAK256 SLOAD PUSH1 0xFF AND ISZERO PUSH2 0x198E JUMPI PUSH1 0x40 MLOAD PUSH3 0x461BCD PUSH1 0xE5 SHL DUP2 MSTORE PUSH1 0x20 PUSH1 0x4 DUP3 ADD MSTORE PUSH1 0x18 PUSH1 0x24 DUP3 ADD MSTORE PUSH32 0x7573657220616C726561647920626C61636B6C69737465640000000000000000 PUSH1 0x44 DUP3 ADD MSTORE PUSH1 0x64 ADD PUSH2 0x118A JUMP JUMPDEST PUSH1 0x1 PUSH1 0x1 PUSH1 0xA0 SHL SUB AND PUSH1 0x0 SWAP1 DUP2 MSTORE PUSH2 0x13D PUSH1 0x20 MSTORE PUSH1 0x40 SWAP1 KECCAK256 DUP1 SLOAD PUSH1 0xFF NOT AND PUSH1 0x1 OR SWAP1 SSTORE JUMP JUMPDEST CALLER PUSH1 0x0 SWAP1 DUP2 MSTORE PUSH2 0x142 PUSH1 0x20 MSTORE PUSH1 0x40 SWAP1 KECCAK256 DUP1 SLOAD PUSH2 0x1A37 JUMPI PUSH1 0x40 MLOAD PUSH3 0x461BCD PUSH1 0xE5 SHL DUP2 MSTORE PUSH1 0x20 PUSH1 0x4 DUP3 ADD MSTORE PUSH1 0x28 PUSH1 0x24 DUP3 ADD MSTORE PUSH32 0x4E6F2076657374696E67207363686564756C6520666F756E6420666F72207468 PUSH1 0x44 DUP3 ADD MSTORE PUSH32 0x652073656E646572000000000000000000000000000000000000000000000000 PUSH1 0x64 DUP3 ADD MSTORE PUSH1 0x84 ADD PUSH2 0x118A JUMP JUMPDEST PUSH1 0x4 DUP2 ADD SLOAD TIMESTAMP SWAP1 PUSH1 0x0 SWAP1 PUSH2 0x1A4B SWAP1 DUP4 PUSH2 0x428E JUMP JUMPDEST DUP4 SLOAD PUSH1 0x3 DUP6 ADD SLOAD SWAP2 SWAP3 POP SWAP1 DUP3 LT ISZERO PUSH2 0x1AA5 JUMPI PUSH1 0x40 MLOAD PUSH3 0x461BCD PUSH1 0xE5 SHL DUP2 MSTORE PUSH1 0x20 PUSH1 0x4 DUP3 ADD MSTORE PUSH1 0x1C PUSH1 0x24 DUP3 ADD MSTORE PUSH32 0x546F6B656E732063616E6E6F7420626520636C61696D65642079657400000000 PUSH1 0x44 DUP3 ADD MSTORE PUSH1 0x64 ADD PUSH2 0x118A JUMP JUMPDEST PUSH1 0x0 PUSH2 0x2710 DUP6 PUSH1 0x2 ADD SLOAD DUP4 PUSH2 0x1ABA SWAP2 SWAP1 PUSH2 0x42A1 JUMP JUMPDEST PUSH2 0x1AC4 SWAP2 SWAP1 PUSH2 0x42B8 JUMP JUMPDEST SWAP1 POP DUP1 DUP6 PUSH1 0x5 ADD PUSH1 0x0 DUP3 DUP3 SLOAD PUSH2 0x1ADA SWAP2 SWAP1 PUSH2 0x4309 JUMP JUMPDEST SWAP1 SWAP2 SSTORE POP POP PUSH1 0x4 DUP6 ADD DUP5 SWAP1 SSTORE DUP2 DUP2 GT ISZERO PUSH2 0x1B5C JUMPI PUSH1 0x40 MLOAD PUSH3 0x461BCD PUSH1 0xE5 SHL DUP2 MSTORE PUSH1 0x20 PUSH1 0x4 DUP3 ADD MSTORE PUSH1 0x2A PUSH1 0x24 DUP3 ADD MSTORE PUSH32 0x546F6B656E7320746F20636C61696D2065786365656420746F74616C20766573 PUSH1 0x44 DUP3 ADD MSTORE PUSH32 0x74656420746F6B656E7300000000000000000000000000000000000000000000 PUSH1 0x64 DUP3 ADD MSTORE PUSH1 0x84 ADD PUSH2 0x118A JUMP JUMPDEST DUP5 SLOAD PUSH1 0x5 DUP7 ADD SLOAD GT ISZERO PUSH2 0x1BD7 JUMPI PUSH1 0x40 MLOAD PUSH3 0x461BCD PUSH1 0xE5 SHL DUP2 MSTORE PUSH1 0x20 PUSH1 0x4 DUP3 ADD MSTORE PUSH1 0x29 PUSH1 0x24 DUP3 ADD MSTORE PUSH32 0x4E6F7420656E6F75676820746F6B656E7320696E207468652076657374696E67 PUSH1 0x44 DUP3 ADD MSTORE PUSH32 0x207363686564756C650000000000000000000000000000000000000000000000 PUSH1 0x64 DUP3 ADD MSTORE PUSH1 0x84 ADD PUSH2 0x118A JUMP JUMPDEST PUSH2 0x130 SLOAD PUSH2 0x1BEF SWAP1 PUSH1 0x1 PUSH1 0x1 PUSH1 0xA0 SHL SUB AND CALLER DUP4 PUSH2 0x2F88 JUMP JUMPDEST POP POP POP POP POP JUMP JUMPDEST PUSH2 0x1BFE PUSH2 0x2D8C JUMP JUMPDEST PUSH1 0x1 PUSH1 0x1 PUSH1 0xA0 SHL SUB DUP2 AND PUSH1 0x0 SWAP1 DUP2 MSTORE PUSH2 0x13D PUSH1 0x20 MSTORE PUSH1 0x40 SWAP1 KECCAK256 SLOAD PUSH1 0xFF AND PUSH2 0x1C67 JUMPI PUSH1 0x40 MLOAD PUSH3 0x461BCD PUSH1 0xE5 SHL DUP2 MSTORE PUSH1 0x20 PUSH1 0x4 DUP3 ADD MSTORE PUSH1 0x18 PUSH1 0x24 DUP3 ADD MSTORE PUSH32 0x7573657220616C726561647920626C61636B6C69737465640000000000000000 PUSH1 0x44 DUP3 ADD MSTORE PUSH1 0x64 ADD PUSH2 0x118A JUMP JUMPDEST PUSH1 0x1 PUSH1 0x1 PUSH1 0xA0 SHL SUB AND PUSH1 0x0 SWAP1 DUP2 MSTORE PUSH2 0x13D PUSH1 0x20 MSTORE PUSH1 0x40 SWAP1 KECCAK256 DUP1 SLOAD PUSH1 0xFF NOT AND SWAP1 SSTORE JUMP JUMPDEST PUSH2 0x1C91 PUSH2 0x2D8C JUMP JUMPDEST PUSH2 0x13A SSTORE JUMP JUMPDEST PUSH2 0x1C9F PUSH2 0x2D8C JUMP JUMPDEST PUSH2 0x13C DUP1 SLOAD PUSH1 0x1 PUSH1 0x1 PUSH1 0xA0 SHL SUB SWAP1 SWAP3 AND PUSH2 0x100 MUL PUSH32 0xFFFFFFFFFFFFFFFFFFFFFF0000000000000000000000000000000000000000FF SWAP1 SWAP3 AND SWAP2 SWAP1 SWAP2 OR SWAP1 SSTORE JUMP JUMPDEST PUSH2 0x1CE7 PUSH2 0x2D8C JUMP JUMPDEST PUSH1 0x1 PUSH1 0x1 PUSH1 0xA0 SHL SUB AND PUSH1 0x0 SWAP1 DUP2 MSTORE PUSH2 0x13F PUSH1 0x20 MSTORE PUSH1 0x40 DUP2 KECCAK256 SSTORE JUMP JUMPDEST PUSH2 0x1D0A PUSH2 0x2D8C JUMP JUMPDEST PUSH2 0x1881 PUSH1 0x0 PUSH2 0x3453 JUMP JUMPDEST PUSH2 0x1D1C PUSH2 0x2D8C JUMP JUMPDEST PUSH1 0x1 PUSH1 0x1 PUSH1 0xA0 SHL SUB AND PUSH1 0x0 SWAP1 DUP2 MSTORE PUSH2 0x136 PUSH1 0x20 MSTORE PUSH1 0x40 SWAP1 KECCAK256 DUP1 SLOAD PUSH1 0xFF NOT AND PUSH1 0x1 OR SWAP1 SSTORE JUMP JUMPDEST PUSH2 0x1D49 PUSH2 0x2D8C JUMP JUMPDEST PUSH2 0x173F DUP3 DUP3 PUSH2 0x33F9 JUMP JUMPDEST PUSH2 0x1D5C CALLER PUSH2 0x34A5 JUMP JUMPDEST PUSH2 0x1DA8 JUMPI PUSH1 0x40 MLOAD PUSH3 0x461BCD PUSH1 0xE5 SHL DUP2 MSTORE PUSH1 0x20 PUSH1 0x4 DUP3 ADD MSTORE PUSH1 0x11 PUSH1 0x24 DUP3 ADD MSTORE PUSH32 0x4E6F7420612076616C696420766F746572000000000000000000000000000000 PUSH1 0x44 DUP3 ADD MSTORE PUSH1 0x64 ADD PUSH2 0x118A JUMP JUMPDEST CALLER PUSH1 0x0 SWAP1 DUP2 MSTORE PUSH2 0x12F PUSH1 0x20 MSTORE PUSH1 0x40 SWAP1 KECCAK256 SLOAD PUSH1 0xFF AND ISZERO PUSH2 0x1E09 JUMPI PUSH1 0x40 MLOAD PUSH3 0x461BCD PUSH1 0xE5 SHL DUP2 MSTORE PUSH1 0x20 PUSH1 0x4 DUP3 ADD MSTORE PUSH1 0xD PUSH1 0x24 DUP3 ADD MSTORE PUSH32 0x416C726561647920766F74656400000000000000000000000000000000000000 PUSH1 0x44 DUP3 ADD MSTORE PUSH1 0x64 ADD PUSH2 0x118A JUMP JUMPDEST CALLER PUSH1 0x0 DUP2 DUP2 MSTORE PUSH2 0x12F PUSH1 0x20 SWAP1 DUP2 MSTORE PUSH1 0x40 SWAP2 DUP3 SWAP1 KECCAK256 DUP1 SLOAD PUSH1 0xFF NOT AND DUP6 ISZERO ISZERO SWAP1 DUP2 OR SWAP1 SWAP2 SSTORE SWAP2 MLOAD SWAP2 DUP3 MSTORE PUSH32 0xA4861C5510BFA99706ED508D728F9C6B365FF27AF1A3012E21980952AD2D844F SWAP2 ADD PUSH1 0x40 MLOAD DUP1 SWAP2 SUB SWAP1 LOG2 POP JUMP JUMPDEST PUSH2 0x1E67 PUSH2 0x2D8C JUMP JUMPDEST PUSH2 0x1881 PUSH2 0x3510 JUMP JUMPDEST PUSH2 0x1E77 PUSH2 0x2D8C JUMP JUMPDEST PUSH1 0x1 PUSH1 0x1 PUSH1 0xA0 SHL SUB DUP3 AND PUSH2 0x1ECD JUMPI PUSH1 0x40 MLOAD PUSH3 0x461BCD PUSH1 0xE5 SHL DUP2 MSTORE PUSH1 0x20 PUSH1 0x4 DUP3 ADD MSTORE PUSH1 0x16 PUSH1 0x24 DUP3 ADD MSTORE PUSH32 0x496E76616C69642077616C6C6574206164647265737300000000000000000000 PUSH1 0x44 DUP3 ADD MSTORE PUSH1 0x64 ADD PUSH2 0x118A JUMP JUMPDEST PUSH2 0x1ED7 DUP2 TIMESTAMP PUSH2 0x4309 JUMP JUMPDEST PUSH1 0x1 PUSH1 0x1 PUSH1 0xA0 SHL SUB SWAP1 SWAP3 AND PUSH1 0x0 SWAP1 DUP2 MSTORE PUSH2 0x13F PUSH1 0x20 MSTORE PUSH1 0x40 SWAP1 KECCAK256 SWAP2 SWAP1 SWAP2 SSTORE POP JUMP JUMPDEST PUSH2 0x1F00 PUSH2 0x2D8C JUMP JUMPDEST PUSH1 0x0 DUP1 DUP1 JUMPDEST PUSH2 0x12E SLOAD DUP2 LT ISZERO PUSH2 0x1F66 JUMPI DUP4 PUSH1 0x1 PUSH1 0x1 PUSH1 0xA0 SHL SUB AND PUSH2 0x12E DUP3 DUP2 SLOAD DUP2 LT PUSH2 0x1F2E JUMPI PUSH2 0x1F2E PUSH2 0x42DA JUMP JUMPDEST PUSH1 0x0 SWAP2 DUP3 MSTORE PUSH1 0x20 SWAP1 SWAP2 KECCAK256 ADD SLOAD PUSH1 0x1 PUSH1 0x1 PUSH1 0xA0 SHL SUB AND SUB PUSH2 0x1F54 JUMPI DUP1 SWAP3 POP PUSH1 0x1 SWAP2 POP PUSH2 0x1F66 JUMP JUMPDEST DUP1 PUSH2 0x1F5E DUP2 PUSH2 0x42F0 JUMP JUMPDEST SWAP2 POP POP PUSH2 0x1F05 JUMP JUMPDEST POP DUP1 ISZERO PUSH2 0x201E JUMPI PUSH2 0x12E DUP1 SLOAD PUSH2 0x1F7E SWAP1 PUSH1 0x1 SWAP1 PUSH2 0x428E JUMP JUMPDEST DUP2 SLOAD DUP2 LT PUSH2 0x1F8E JUMPI PUSH2 0x1F8E PUSH2 0x42DA JUMP JUMPDEST PUSH1 0x0 SWAP2 DUP3 MSTORE PUSH1 0x20 SWAP1 SWAP2 KECCAK256 ADD SLOAD PUSH2 0x12E DUP1 SLOAD PUSH1 0x1 PUSH1 0x1 PUSH1 0xA0 SHL SUB SWAP1 SWAP3 AND SWAP2 DUP5 SWAP1 DUP2 LT PUSH2 0x1FBB JUMPI PUSH2 0x1FBB PUSH2 0x42DA JUMP JUMPDEST SWAP1 PUSH1 0x0 MSTORE PUSH1 0x20 PUSH1 0x0 KECCAK256 ADD PUSH1 0x0 PUSH2 0x100 EXP DUP2 SLOAD DUP2 PUSH1 0x1 PUSH1 0x1 PUSH1 0xA0 SHL SUB MUL NOT AND SWAP1 DUP4 PUSH1 0x1 PUSH1 0x1 PUSH1 0xA0 SHL SUB AND MUL OR SWAP1 SSTORE POP PUSH2 0x12E DUP1 SLOAD DUP1 PUSH2 0x1FFB JUMPI PUSH2 0x1FFB PUSH2 0x431C JUMP JUMPDEST PUSH1 0x0 DUP3 DUP2 MSTORE PUSH1 0x20 SWAP1 KECCAK256 DUP2 ADD PUSH1 0x0 NOT SWAP1 DUP2 ADD DUP1 SLOAD PUSH1 0x1 PUSH1 0x1 PUSH1 0xA0 SHL SUB NOT AND SWAP1 SSTORE ADD SWAP1 SSTORE JUMPDEST POP POP POP JUMP JUMPDEST PUSH2 0x202B PUSH2 0x2D8C JUMP JUMPDEST PUSH1 0x1 PUSH1 0x1 PUSH1 0xA0 SHL SUB AND PUSH1 0x0 SWAP1 DUP2 MSTORE PUSH2 0x140 PUSH1 0x20 MSTORE PUSH1 0x40 SWAP1 KECCAK256 DUP1 SLOAD PUSH1 0xFF NOT AND SWAP1 SSTORE JUMP JUMPDEST PUSH2 0x2055 PUSH2 0x2D8C JUMP JUMPDEST PUSH2 0x132 SSTORE JUMP JUMPDEST PUSH2 0x2063 PUSH2 0x2D8C JUMP JUMPDEST PUSH2 0x139 SSTORE JUMP JUMPDEST PUSH1 0x60 PUSH1 0x37 DUP1 SLOAD PUSH2 0x1016 SWAP1 PUSH2 0x423E JUMP JUMPDEST PUSH2 0x135 SLOAD PUSH1 0xFF AND PUSH2 0x20CB JUMPI PUSH1 0x40 MLOAD PUSH3 0x461BCD PUSH1 0xE5 SHL DUP2 MSTORE PUSH1 0x20 PUSH1 0x4 DUP3 ADD MSTORE PUSH1 0x17 PUSH1 0x24 DUP3 ADD MSTORE PUSH32 0x4C6971756964697479206973206E6F74206C6F636B6564000000000000000000 PUSH1 0x44 DUP3 ADD MSTORE PUSH1 0x64 ADD PUSH2 0x118A JUMP JUMPDEST DUP1 PUSH2 0x134 SLOAD LT ISZERO PUSH2 0x211E JUMPI PUSH1 0x40 MLOAD PUSH3 0x461BCD PUSH1 0xE5 SHL DUP2 MSTORE PUSH1 0x20 PUSH1 0x4 DUP3 ADD MSTORE PUSH1 0x1B PUSH1 0x24 DUP3 ADD MSTORE PUSH32 0x4E6F7420656E6F756768206C6F636B6564206C69717569646974790000000000 PUSH1 0x44 DUP3 ADD MSTORE PUSH1 0x64 ADD PUSH2 0x118A JUMP JUMPDEST PUSH2 0x130 SLOAD PUSH2 0x2135 SWAP1 PUSH1 0x1 PUSH1 0x1 PUSH1 0xA0 SHL SUB AND DUP3 PUSH2 0x2348 JUMP JUMPDEST POP PUSH2 0x134 SLOAD PUSH2 0x2144 SWAP1 DUP3 PUSH2 0x354D JUMP JUMPDEST PUSH2 0x134 SSTORE POP PUSH2 0x135 DUP1 SLOAD PUSH1 0xFF NOT AND SWAP1 SSTORE JUMP JUMPDEST PUSH2 0x215E PUSH2 0x2D8C JUMP JUMPDEST PUSH1 0x40 MLOAD PUSH32 0x70A0823100000000000000000000000000000000000000000000000000000000 DUP2 MSTORE ADDRESS PUSH1 0x4 DUP3 ADD MSTORE PUSH1 0x1 PUSH1 0x1 PUSH1 0xA0 SHL SUB DUP3 AND SWAP1 PUSH4 0xA9059CBB SWAP1 DUP5 SWAP1 DUP4 SWAP1 PUSH4 0x70A08231 SWAP1 PUSH1 0x24 ADD PUSH1 0x20 PUSH1 0x40 MLOAD DUP1 DUP4 SUB DUP2 DUP7 GAS STATICCALL ISZERO DUP1 ISZERO PUSH2 0x21C5 JUMPI RETURNDATASIZE PUSH1 0x0 DUP1 RETURNDATACOPY RETURNDATASIZE PUSH1 0x0 REVERT JUMPDEST POP POP POP POP PUSH1 0x40 MLOAD RETURNDATASIZE PUSH1 0x1F NOT PUSH1 0x1F DUP3 ADD AND DUP3 ADD DUP1 PUSH1 0x40 MSTORE POP DUP2 ADD SWAP1 PUSH2 0x21E9 SWAP2 SWAP1 PUSH2 0x4332 JUMP JUMPDEST PUSH1 0x40 MLOAD PUSH32 0xFFFFFFFF00000000000000000000000000000000000000000000000000000000 PUSH1 0xE0 DUP6 SWAP1 SHL AND DUP2 MSTORE PUSH1 0x1 PUSH1 0x1 PUSH1 0xA0 SHL SUB SWAP1 SWAP3 AND PUSH1 0x4 DUP4 ADD MSTORE PUSH1 0x24 DUP3 ADD MSTORE PUSH1 0x44 ADD PUSH1 0x20 PUSH1 0x40 MLOAD DUP1 DUP4 SUB DUP2 PUSH1 0x0 DUP8 GAS CALL ISZERO DUP1 ISZERO PUSH2 0x224C JUMPI RETURNDATASIZE PUSH1 0x0 DUP1 RETURNDATACOPY RETURNDATASIZE PUSH1 0x0 REVERT JUMPDEST POP POP POP POP PUSH1 0x40 MLOAD RETURNDATASIZE PUSH1 0x1F NOT PUSH1 0x1F DUP3 ADD AND DUP3 ADD DUP1 PUSH1 0x40 MSTORE POP DUP2 ADD SWAP1 PUSH2 0x201E SWAP2 SWAP1 PUSH2 0x434B JUMP JUMPDEST PUSH2 0x2278 PUSH2 0x2D8C JUMP JUMPDEST PUSH2 0x135 DUP1 SLOAD SWAP2 ISZERO ISZERO PUSH2 0x100 MUL PUSH2 0xFF00 NOT SWAP1 SWAP3 AND SWAP2 SWAP1 SWAP2 OR SWAP1 SSTORE JUMP JUMPDEST CALLER PUSH1 0x0 DUP2 DUP2 MSTORE PUSH1 0x34 PUSH1 0x20 SWAP1 DUP2 MSTORE PUSH1 0x40 DUP1 DUP4 KECCAK256 PUSH1 0x1 PUSH1 0x1 PUSH1 0xA0 SHL SUB DUP8 AND DUP5 MSTORE SWAP1 SWAP2 MSTORE DUP2 KECCAK256 SLOAD SWAP1 SWAP2 SWAP1 DUP4 DUP2 LT ISZERO PUSH2 0x2330 JUMPI PUSH1 0x40 MLOAD PUSH3 0x461BCD PUSH1 0xE5 SHL DUP2 MSTORE PUSH1 0x20 PUSH1 0x4 DUP3 ADD MSTORE PUSH1 0x25 PUSH1 0x24 DUP3 ADD MSTORE PUSH32 0x45524332303A2064656372656173656420616C6C6F77616E63652062656C6F77 PUSH1 0x44 DUP3 ADD MSTORE PUSH32 0x207A65726F000000000000000000000000000000000000000000000000000000 PUSH1 0x64 DUP3 ADD MSTORE PUSH1 0x84 ADD PUSH2 0x118A JUMP JUMPDEST PUSH2 0x233D DUP3 DUP7 DUP7 DUP5 SUB PUSH2 0x2C34 JUMP JUMPDEST POP PUSH1 0x1 SWAP5 SWAP4 POP POP POP POP JUMP JUMPDEST PUSH1 0x0 PUSH2 0x2352 PUSH2 0x3559 JUMP JUMPDEST CALLER PUSH1 0x0 DUP2 DUP2 MSTORE PUSH2 0x13F PUSH1 0x20 MSTORE PUSH1 0x40 SWAP1 KECCAK256 SLOAD ISZERO DUP1 PUSH2 0x2387 JUMPI POP PUSH1 0x1 PUSH1 0x1 PUSH1 0xA0 SHL SUB DUP2 AND PUSH1 0x0 SWAP1 DUP2 MSTORE PUSH2 0x13F PUSH1 0x20 MSTORE PUSH1 0x40 SWAP1 KECCAK256 SLOAD TIMESTAMP GT JUMPDEST PUSH2 0x23D3 JUMPI PUSH1 0x40 MLOAD PUSH3 0x461BCD PUSH1 0xE5 SHL DUP2 MSTORE PUSH1 0x20 PUSH1 0x4 DUP3 ADD MSTORE PUSH1 0x10 PUSH1 0x24 DUP3 ADD MSTORE PUSH32 0x57616C6C65742069732066726F7A656E00000000000000000000000000000000 PUSH1 0x44 DUP3 ADD MSTORE PUSH1 0x64 ADD PUSH2 0x118A JUMP JUMPDEST CALLER PUSH1 0x0 DUP2 DUP2 MSTORE PUSH2 0x140 PUSH1 0x20 MSTORE PUSH1 0x40 SWAP1 KECCAK256 SLOAD DUP5 SWAP1 PUSH1 0xFF AND PUSH2 0x2493 JUMPI PUSH2 0x131 SLOAD DUP2 LT ISZERO PUSH2 0x2440 JUMPI PUSH1 0x40 MLOAD PUSH3 0x461BCD PUSH1 0xE5 SHL DUP2 MSTORE PUSH1 0x20 PUSH1 0x4 DUP3 ADD MSTORE PUSH1 0x14 PUSH1 0x24 DUP3 ADD MSTORE PUSH32 0x416D6F756E742062656C6F77206D696E696D756D000000000000000000000000 PUSH1 0x44 DUP3 ADD MSTORE PUSH1 0x64 ADD PUSH2 0x118A JUMP JUMPDEST PUSH2 0x132 SLOAD DUP2 GT ISZERO PUSH2 0x2493 JUMPI PUSH1 0x40 MLOAD PUSH3 0x461BCD PUSH1 0xE5 SHL DUP2 MSTORE PUSH1 0x20 PUSH1 0x4 DUP3 ADD MSTORE PUSH1 0x16 PUSH1 0x24 DUP3 ADD MSTORE PUSH32 0x416D6F756E742065786365656473206D6178696D756D00000000000000000000 PUSH1 0x44 DUP3 ADD MSTORE PUSH1 0x64 ADD PUSH2 0x118A JUMP JUMPDEST PUSH2 0x249B PUSH2 0x2DE6 JUMP JUMPDEST CALLER PUSH1 0x0 SWAP1 DUP2 MSTORE PUSH2 0x13D PUSH1 0x20 MSTORE PUSH1 0x40 SWAP1 KECCAK256 SLOAD PUSH1 0xFF AND ISZERO PUSH2 0x24FC JUMPI PUSH1 0x40 MLOAD PUSH3 0x461BCD PUSH1 0xE5 SHL DUP2 MSTORE PUSH1 0x20 PUSH1 0x4 DUP3 ADD MSTORE PUSH1 0x1E PUSH1 0x24 DUP3 ADD MSTORE PUSH32 0x53656E64657227732077616C6C657420697320626C61636B6C69737465640000 PUSH1 0x44 DUP3 ADD MSTORE PUSH1 0x64 ADD PUSH2 0x118A JUMP JUMPDEST CALLER PUSH1 0x0 SWAP1 DUP2 MSTORE PUSH2 0x13E PUSH1 0x20 MSTORE PUSH1 0x40 SWAP1 KECCAK256 SLOAD TIMESTAMP LT ISZERO PUSH2 0x255C JUMPI PUSH1 0x40 MLOAD PUSH3 0x461BCD PUSH1 0xE5 SHL DUP2 MSTORE PUSH1 0x20 PUSH1 0x4 DUP3 ADD MSTORE PUSH1 0x18 PUSH1 0x24 DUP3 ADD MSTORE PUSH32 0x5472616E73666572206E6F7420616C6C6F776564207965740000000000000000 PUSH1 0x44 DUP3 ADD MSTORE PUSH1 0x64 ADD PUSH2 0x118A JUMP JUMPDEST PUSH2 0x133 SLOAD PUSH2 0x256A SWAP1 TIMESTAMP PUSH2 0x4309 JUMP JUMPDEST CALLER PUSH1 0x0 DUP2 DUP2 MSTORE PUSH2 0x13E PUSH1 0x20 MSTORE PUSH1 0x40 SWAP1 KECCAK256 SWAP2 SWAP1 SWAP2 SSTORE PUSH2 0x2589 SWAP1 DUP8 DUP8 PUSH2 0x2ED1 JUMP JUMPDEST PUSH2 0x2594 CALLER DUP8 DUP8 PUSH2 0x2F88 JUMP JUMPDEST PUSH1 0x1 SWAP4 POP PUSH2 0x25A2 PUSH1 0x1 PUSH1 0xFB SSTORE JUMP JUMPDEST POP POP POP SWAP3 SWAP2 POP POP JUMP JUMPDEST PUSH2 0x25B3 PUSH2 0x2D8C JUMP JUMPDEST PUSH2 0x12E SLOAD PUSH1 0x0 SWAP1 DUP2 JUMPDEST DUP2 DUP2 LT ISZERO PUSH2 0x262A JUMPI PUSH2 0x12F PUSH1 0x0 PUSH2 0x12E DUP4 DUP2 SLOAD DUP2 LT PUSH2 0x25DD JUMPI PUSH2 0x25DD PUSH2 0x42DA JUMP JUMPDEST PUSH1 0x0 SWAP2 DUP3 MSTORE PUSH1 0x20 DUP1 DUP4 KECCAK256 SWAP1 SWAP2 ADD SLOAD PUSH1 0x1 PUSH1 0x1 PUSH1 0xA0 SHL SUB AND DUP4 MSTORE DUP3 ADD SWAP3 SWAP1 SWAP3 MSTORE PUSH1 0x40 ADD SWAP1 KECCAK256 SLOAD PUSH1 0xFF AND ISZERO PUSH2 0x2618 JUMPI DUP3 PUSH2 0x2614 DUP2 PUSH2 0x42F0 JUMP JUMPDEST SWAP4 POP POP JUMPDEST DUP1 PUSH2 0x2622 DUP2 PUSH2 0x42F0 JUMP JUMPDEST SWAP2 POP POP PUSH2 0x25BC JUMP JUMPDEST POP DUP2 DUP2 EQ DUP1 PUSH2 0x267B JUMPI PUSH1 0x40 MLOAD PUSH3 0x461BCD PUSH1 0xE5 SHL DUP2 MSTORE PUSH1 0x20 PUSH1 0x4 DUP3 ADD MSTORE PUSH1 0x16 PUSH1 0x24 DUP3 ADD MSTORE PUSH32 0x496E73756666696369656E7420617070726F76616C7300000000000000000000 PUSH1 0x44 DUP3 ADD MSTORE PUSH1 0x64 ADD PUSH2 0x118A JUMP JUMPDEST PUSH2 0x130 DUP1 SLOAD PUSH2 0x12D SLOAD PUSH1 0x1 PUSH1 0x1 PUSH1 0xA0 SHL SUB SWAP1 DUP2 AND PUSH1 0x1 PUSH1 0x1 PUSH1 0xA0 SHL SUB NOT DUP4 AND DUP2 OR SWAP1 SWAP4 SSTORE AND SWAP1 PUSH2 0x26AA DUP2 PUSH2 0x35AC JUMP JUMPDEST PUSH2 0x12D DUP1 SLOAD PUSH1 0x1 PUSH1 0x1 PUSH1 0xA0 SHL SUB NOT AND SWAP1 SSTORE PUSH1 0x0 JUMPDEST DUP5 DUP2 LT ISZERO PUSH2 0x2727 JUMPI PUSH1 0x0 PUSH2 0x12F PUSH1 0x0 PUSH2 0x12E DUP5 DUP2 SLOAD DUP2 LT PUSH2 0x26E1 JUMPI PUSH2 0x26E1 PUSH2 0x42DA JUMP JUMPDEST PUSH1 0x0 SWAP2 DUP3 MSTORE PUSH1 0x20 DUP1 DUP4 KECCAK256 SWAP2 SWAP1 SWAP2 ADD SLOAD PUSH1 0x1 PUSH1 0x1 PUSH1 0xA0 SHL SUB AND DUP4 MSTORE DUP3 ADD SWAP3 SWAP1 SWAP3 MSTORE PUSH1 0x40 ADD SWAP1 KECCAK256 DUP1 SLOAD PUSH1 0xFF NOT AND SWAP2 ISZERO ISZERO SWAP2 SWAP1 SWAP2 OR SWAP1 SSTORE DUP1 PUSH2 0x271F DUP2 PUSH2 0x42F0 JUMP JUMPDEST SWAP2 POP POP PUSH2 0x26BE JUMP JUMPDEST POP DUP1 PUSH1 0x1 PUSH1 0x1 PUSH1 0xA0 SHL SUB AND DUP3 PUSH1 0x1 PUSH1 0x1 PUSH1 0xA0 SHL SUB AND PUSH32 0x8BE0079C531659141344CD1FD0A4F28419497F9722A3DAAFE3B4186F6B6457E0 PUSH1 0x40 MLOAD PUSH1 0x40 MLOAD DUP1 SWAP2 SUB SWAP1 LOG3 POP POP POP POP POP JUMP JUMPDEST PUSH2 0x2777 PUSH2 0x2D8C JUMP JUMPDEST PUSH2 0x131 SSTORE JUMP JUMPDEST PUSH2 0x2785 PUSH2 0x2D8C JUMP JUMPDEST PUSH2 0x143 DUP1 SLOAD PUSH1 0x1 PUSH1 0x1 PUSH1 0xA0 SHL SUB SWAP1 SWAP3 AND PUSH1 0x1 PUSH1 0x1 PUSH1 0xA0 SHL SUB NOT SWAP1 SWAP3 AND DUP3 OR SWAP1 SSTORE PUSH1 0x0 SWAP1 DUP2 MSTORE PUSH2 0x136 PUSH1 0x20 MSTORE PUSH1 0x40 SWAP1 KECCAK256 DUP1 SLOAD PUSH1 0xFF NOT AND PUSH1 0x1 OR SWAP1 SSTORE JUMP JUMPDEST PUSH2 0x27C9 PUSH2 0x2D8C JUMP JUMPDEST PUSH2 0x138 SSTORE JUMP JUMPDEST PUSH2 0x12E DUP2 DUP2 SLOAD DUP2 LT PUSH2 0x27E0 JUMPI PUSH1 0x0 DUP1 REVERT JUMPDEST PUSH1 0x0 SWAP2 DUP3 MSTORE PUSH1 0x20 SWAP1 SWAP2 KECCAK256 ADD SLOAD PUSH1 0x1 PUSH1 0x1 PUSH1 0xA0 SHL SUB AND SWAP1 POP DUP2 JUMP JUMPDEST PUSH2 0x2802 PUSH2 0x2D8C JUMP JUMPDEST PUSH1 0x1 PUSH1 0x1 PUSH1 0xA0 SHL SUB AND PUSH1 0x0 SWAP1 DUP2 MSTORE PUSH2 0x136 PUSH1 0x20 MSTORE PUSH1 0x40 SWAP1 KECCAK256 DUP1 SLOAD PUSH1 0xFF NOT AND SWAP1 SSTORE JUMP JUMPDEST PUSH2 0x282C PUSH2 0x2D8C JUMP JUMPDEST PUSH1 0x1 PUSH1 0x1 PUSH1 0xA0 SHL SUB AND PUSH1 0x0 SWAP1 DUP2 MSTORE PUSH2 0x140 PUSH1 0x20 MSTORE PUSH1 0x40 SWAP1 KECCAK256 DUP1 SLOAD PUSH1 0xFF NOT AND PUSH1 0x1 OR SWAP1 SSTORE JUMP JUMPDEST PUSH2 0x2859 PUSH2 0x2D8C JUMP JUMPDEST PUSH1 0x0 PUSH2 0x138 SSTORE JUMP JUMPDEST PUSH2 0x2869 PUSH2 0x2D8C JUMP JUMPDEST PUSH2 0x13C DUP1 SLOAD PUSH1 0xFF NOT AND SWAP2 ISZERO ISZERO SWAP2 SWAP1 SWAP2 OR SWAP1 SSTORE JUMP JUMPDEST PUSH2 0x2885 PUSH2 0x2D8C JUMP JUMPDEST PUSH1 0x40 MLOAD PUSH3 0x461BCD PUSH1 0xE5 SHL DUP2 MSTORE PUSH1 0x20 PUSH1 0x4 DUP3 ADD MSTORE PUSH1 0x27 PUSH1 0x24 DUP3 ADD MSTORE PUSH32 0x506C656173652043616C6C2046696E616C697A65205472616E73666572204F77 PUSH1 0x44 DUP3 ADD MSTORE PUSH32 0x6E65727368697000000000000000000000000000000000000000000000000000 PUSH1 0x64 DUP3 ADD MSTORE PUSH1 0x84 ADD PUSH2 0x118A JUMP JUMPDEST PUSH1 0x0 SLOAD PUSH2 0x100 SWAP1 DIV PUSH1 0xFF AND ISZERO DUP1 DUP1 ISZERO PUSH2 0x2913 JUMPI POP PUSH1 0x0 SLOAD PUSH1 0x1 PUSH1 0xFF SWAP1 SWAP2 AND LT JUMPDEST DUP1 PUSH2 0x292D JUMPI POP ADDRESS EXTCODESIZE ISZERO DUP1 ISZERO PUSH2 0x292D JUMPI POP PUSH1 0x0 SLOAD PUSH1 0xFF AND PUSH1 0x1 EQ JUMPDEST PUSH2 0x299F JUMPI PUSH1 0x40 MLOAD PUSH3 0x461BCD PUSH1 0xE5 SHL DUP2 MSTORE PUSH1 0x20 PUSH1 0x4 DUP3 ADD MSTORE PUSH1 0x2E PUSH1 0x24 DUP3 ADD MSTORE PUSH32 0x496E697469616C697A61626C653A20636F6E747261637420697320616C726561 PUSH1 0x44 DUP3 ADD MSTORE PUSH32 0x647920696E697469616C697A6564000000000000000000000000000000000000 PUSH1 0x64 DUP3 ADD MSTORE PUSH1 0x84 ADD PUSH2 0x118A JUMP JUMPDEST PUSH1 0x0 DUP1 SLOAD PUSH1 0xFF NOT AND PUSH1 0x1 OR SWAP1 SSTORE DUP1 ISZERO PUSH2 0x29C2 JUMPI PUSH1 0x0 DUP1 SLOAD PUSH2 0xFF00 NOT AND PUSH2 0x100 OR SWAP1 SSTORE JUMPDEST PUSH2 0x130 DUP1 SLOAD PUSH1 0x1 PUSH1 0x1 PUSH1 0xA0 SHL SUB NOT AND CALLER OR SWAP1 SSTORE PUSH2 0x29DF DUP8 DUP8 PUSH2 0x3639 JUMP JUMPDEST PUSH2 0x29E7 PUSH2 0x36AE JUMP JUMPDEST PUSH2 0x29EF PUSH2 0x3719 JUMP JUMPDEST PUSH2 0x29F7 PUSH2 0x378C JUMP JUMPDEST PUSH2 0x29FF PUSH2 0x37FF JUMP JUMPDEST PUSH2 0x13C DUP1 SLOAD PUSH1 0x32 PUSH2 0x137 SSTORE PUSH2 0x1388 PUSH2 0x138 SSTORE PUSH21 0x285E1D847B88056ADD3823C456EE83D37CDD60A01 PUSH32 0xFFFFFFFFFFFFFFFFFFFFFF000000000000000000000000000000000000000000 SWAP1 SWAP2 AND OR SWAP1 SSTORE PUSH2 0x7D0 PUSH2 0x139 SSTORE PUSH2 0x12C PUSH2 0x13A SSTORE PUSH2 0x135 DUP1 SLOAD PUSH2 0xFF00 NOT AND PUSH2 0x100 OR SWAP1 SSTORE PUSH1 0x0 PUSH2 0x131 SSTORE PUSH9 0x56BC75E2D63100000 PUSH2 0x132 SSTORE PUSH2 0x130 SLOAD PUSH2 0x2AAE SWAP1 PUSH1 0x1 PUSH1 0x1 PUSH1 0xA0 SHL SUB AND PUSH2 0x2A9F PUSH1 0xFF DUP9 AND PUSH1 0xA PUSH2 0x444C JUMP JUMPDEST PUSH2 0x2AA9 SWAP1 DUP8 PUSH2 0x42A1 JUMP JUMPDEST PUSH2 0x3392 JUMP JUMPDEST CALLER PUSH1 0x0 SWAP1 DUP2 MSTORE PUSH2 0x13D PUSH1 0x20 SWAP1 DUP2 MSTORE PUSH1 0x40 DUP1 DUP4 KECCAK256 DUP1 SLOAD PUSH1 0xFF NOT SWAP1 DUP2 AND SWAP1 SWAP2 SSTORE PUSH2 0x140 DUP4 MSTORE DUP2 DUP5 KECCAK256 DUP1 SLOAD DUP3 AND PUSH1 0x1 SWAP1 DUP2 OR SWAP1 SWAP2 SSTORE PUSH2 0x13E DUP5 MSTORE DUP3 DUP6 KECCAK256 TIMESTAMP SWAP1 SSTORE PUSH2 0x143 DUP1 SLOAD PUSH1 0x1 PUSH1 0x1 PUSH1 0xA0 SHL SUB NOT AND PUSH1 0x1 PUSH1 0x1 PUSH1 0xA0 SHL SUB DUP11 DUP2 AND SWAP2 SWAP1 SWAP2 OR DUP3 SSTORE ADDRESS DUP8 MSTORE PUSH2 0x136 SWAP1 SWAP6 MSTORE DUP4 DUP7 KECCAK256 DUP1 SLOAD DUP5 AND DUP4 OR SWAP1 SSTORE PUSH12 0x33B2E3C9FD0803CE8000000 PUSH2 0x144 SSTORE SLOAD SWAP1 SWAP4 AND DUP5 MSTORE SWAP1 DUP4 KECCAK256 DUP1 SLOAD SWAP1 SWAP2 AND SWAP1 SWAP2 OR SWAP1 SSTORE JUMPDEST DUP3 MLOAD DUP2 LT ISZERO PUSH2 0x2BAF JUMPI PUSH2 0x12E DUP4 DUP3 DUP2 MLOAD DUP2 LT PUSH2 0x2B62 JUMPI PUSH2 0x2B62 PUSH2 0x42DA JUMP JUMPDEST PUSH1 0x20 SWAP1 DUP2 MUL SWAP2 SWAP1 SWAP2 ADD DUP2 ADD MLOAD DUP3 SLOAD PUSH1 0x1 DUP2 ADD DUP5 SSTORE PUSH1 0x0 SWAP4 DUP5 MSTORE SWAP2 SWAP1 SWAP3 KECCAK256 ADD DUP1 SLOAD PUSH1 0x1 PUSH1 0x1 PUSH1 0xA0 SHL SUB NOT AND PUSH1 0x1 PUSH1 0x1 PUSH1 0xA0 SHL SUB SWAP1 SWAP3 AND SWAP2 SWAP1 SWAP2 OR SWAP1 SSTORE DUP1 PUSH2 0x2BA7 DUP2 PUSH2 0x42F0 JUMP JUMPDEST SWAP2 POP POP PUSH2 0x2B44 JUMP JUMPDEST POP DUP4 ISZERO PUSH2 0x2BE5 JUMPI PUSH2 0x130 SLOAD PUSH1 0x1 PUSH1 0x1 PUSH1 0xA0 SHL SUB AND PUSH1 0x0 SWAP1 DUP2 MSTORE PUSH2 0x145 PUSH1 0x20 MSTORE PUSH1 0x40 SWAP1 KECCAK256 DUP1 SLOAD PUSH1 0xFF NOT AND PUSH1 0x1 SWAP1 DUP2 OR SWAP1 SWAP2 SSTORE PUSH2 0x146 SSTORE JUMPDEST DUP1 ISZERO PUSH2 0x2C2B JUMPI PUSH1 0x0 DUP1 SLOAD PUSH2 0xFF00 NOT AND SWAP1 SSTORE PUSH1 0x40 MLOAD PUSH1 0x1 DUP2 MSTORE PUSH32 0x7F26B83FF96E1F2B6A682F133852F6798A09C465DA95921460CEFB3847402498 SWAP1 PUSH1 0x20 ADD PUSH1 0x40 MLOAD DUP1 SWAP2 SUB SWAP1 LOG1 JUMPDEST POP POP POP POP POP POP POP JUMP JUMPDEST PUSH1 0x1 PUSH1 0x1 PUSH1 0xA0 SHL SUB DUP4 AND PUSH2 0x2CAF JUMPI PUSH1 0x40 MLOAD PUSH3 0x461BCD PUSH1 0xE5 SHL DUP2 MSTORE PUSH1 0x20 PUSH1 0x4 DUP3 ADD MSTORE PUSH1 0x24 DUP1 DUP3 ADD MSTORE PUSH32 0x45524332303A20617070726F76652066726F6D20746865207A65726F20616464 PUSH1 0x44 DUP3 ADD MSTORE PUSH32 0x7265737300000000000000000000000000000000000000000000000000000000 PUSH1 0x64 DUP3 ADD MSTORE PUSH1 0x84 ADD PUSH2 0x118A JUMP JUMPDEST PUSH1 0x1 PUSH1 0x1 PUSH1 0xA0 SHL SUB DUP3 AND PUSH2 0x2D2B JUMPI PUSH1 0x40 MLOAD PUSH3 0x461BCD PUSH1 0xE5 SHL DUP2 MSTORE PUSH1 0x20 PUSH1 0x4 DUP3 ADD MSTORE PUSH1 0x22 PUSH1 0x24 DUP3 ADD MSTORE PUSH32 0x45524332303A20617070726F766520746F20746865207A65726F206164647265 PUSH1 0x44 DUP3 ADD MSTORE PUSH32 0x7373000000000000000000000000000000000000000000000000000000000000 PUSH1 0x64 DUP3 ADD MSTORE PUSH1 0x84 ADD PUSH2 0x118A JUMP JUMPDEST PUSH1 0x1 PUSH1 0x1 PUSH1 0xA0 SHL SUB DUP4 DUP2 AND PUSH1 0x0 DUP2 DUP2 MSTORE PUSH1 0x34 PUSH1 0x20 SWAP1 DUP2 MSTORE PUSH1 0x40 DUP1 DUP4 KECCAK256 SWAP5 DUP8 AND DUP1 DUP5 MSTORE SWAP5 DUP3 MSTORE SWAP2 DUP3 SWAP1 KECCAK256 DUP6 SWAP1 SSTORE SWAP1 MLOAD DUP5 DUP2 MSTORE PUSH32 0x8C5BE1E5EBEC7D5BD14F71427D1E84F3DD0314C0F7B2291E5B200AC8C7C3B925 SWAP2 ADD PUSH1 0x40 MLOAD DUP1 SWAP2 SUB SWAP1 LOG3 POP POP POP JUMP JUMPDEST PUSH1 0x97 SLOAD PUSH1 0x1 PUSH1 0x1 PUSH1 0xA0 SHL SUB AND CALLER EQ PUSH2 0x1881 JUMPI PUSH1 0x40 MLOAD PUSH3 0x461BCD PUSH1 0xE5 SHL DUP2 MSTORE PUSH1 0x20 PUSH1 0x4 DUP3 ADD DUP2 SWAP1 MSTORE PUSH1 0x24 DUP3 ADD MSTORE PUSH32 0x4F776E61626C653A2063616C6C6572206973206E6F7420746865206F776E6572 PUSH1 0x44 DUP3 ADD MSTORE PUSH1 0x64 ADD PUSH2 0x118A JUMP JUMPDEST PUSH1 0x2 PUSH1 0xFB SLOAD SUB PUSH2 0x2E38 JUMPI PUSH1 0x40 MLOAD PUSH3 0x461BCD PUSH1 0xE5 SHL DUP2 MSTORE PUSH1 0x20 PUSH1 0x4 DUP3 ADD MSTORE PUSH1 0x1F PUSH1 0x24 DUP3 ADD MSTORE PUSH32 0x5265656E7472616E637947756172643A207265656E7472616E742063616C6C00 PUSH1 0x44 DUP3 ADD MSTORE PUSH1 0x64 ADD PUSH2 0x118A JUMP JUMPDEST PUSH1 0x2 PUSH1 0xFB SSTORE JUMP JUMPDEST PUSH1 0x1 PUSH1 0x1 PUSH1 0xA0 SHL SUB DUP4 DUP2 AND PUSH1 0x0 SWAP1 DUP2 MSTORE PUSH1 0x34 PUSH1 0x20 SWAP1 DUP2 MSTORE PUSH1 0x40 DUP1 DUP4 KECCAK256 SWAP4 DUP7 AND DUP4 MSTORE SWAP3 SWAP1 MSTORE KECCAK256 SLOAD PUSH1 0x0 NOT DUP2 EQ PUSH2 0x2ECB JUMPI DUP2 DUP2 LT ISZERO PUSH2 0x2EBE JUMPI PUSH1 0x40 MLOAD PUSH3 0x461BCD PUSH1 0xE5 SHL DUP2 MSTORE PUSH1 0x20 PUSH1 0x4 DUP3 ADD MSTORE PUSH1 0x1D PUSH1 0x24 DUP3 ADD MSTORE PUSH32 0x45524332303A20696E73756666696369656E7420616C6C6F77616E6365000000 PUSH1 0x44 DUP3 ADD MSTORE PUSH1 0x64 ADD PUSH2 0x118A JUMP JUMPDEST PUSH2 0x2ECB DUP5 DUP5 DUP5 DUP5 SUB PUSH2 0x2C34 JUMP JUMPDEST POP POP POP POP JUMP JUMPDEST DUP1 PUSH2 0x2EF1 DUP5 PUSH1 0x1 PUSH1 0x1 PUSH1 0xA0 SHL SUB AND PUSH1 0x0 SWAP1 DUP2 MSTORE PUSH1 0x33 PUSH1 0x20 MSTORE PUSH1 0x40 SWAP1 KECCAK256 SLOAD SWAP1 JUMP JUMPDEST SUB PUSH2 0x2F2B JUMPI PUSH1 0x1 PUSH1 0x1 PUSH1 0xA0 SHL SUB DUP4 AND PUSH1 0x0 SWAP1 DUP2 MSTORE PUSH2 0x145 PUSH1 0x20 MSTORE PUSH1 0x40 SWAP1 KECCAK256 DUP1 SLOAD PUSH1 0xFF NOT AND SWAP1 SSTORE PUSH2 0x146 SLOAD PUSH2 0x2F26 SWAP1 PUSH1 0x1 PUSH2 0x354D JUMP JUMPDEST PUSH2 0x146 SSTORE JUMPDEST PUSH1 0x1 PUSH1 0x1 PUSH1 0xA0 SHL SUB DUP3 AND PUSH1 0x0 SWAP1 DUP2 MSTORE PUSH1 0x33 PUSH1 0x20 MSTORE PUSH1 0x40 SWAP1 KECCAK256 SLOAD PUSH1 0x0 SUB PUSH2 0x201E JUMPI PUSH1 0x1 PUSH1 0x1 PUSH1 0xA0 SHL SUB DUP3 AND PUSH1 0x0 SWAP1 DUP2 MSTORE PUSH2 0x145 PUSH1 0x20 MSTORE PUSH1 0x40 SWAP1 KECCAK256 DUP1 SLOAD PUSH1 0xFF NOT AND PUSH1 0x1 SWAP1 DUP2 OR SWAP1 SWAP2 SSTORE PUSH2 0x146 SLOAD PUSH2 0x2F7F SWAP2 PUSH2 0x332D JUMP JUMPDEST PUSH2 0x146 SSTORE POP POP POP JUMP JUMPDEST PUSH1 0x1 PUSH1 0x1 PUSH1 0xA0 SHL SUB DUP4 AND PUSH1 0x0 SWAP1 DUP2 MSTORE PUSH2 0x140 PUSH1 0x20 MSTORE PUSH1 0x40 SWAP1 KECCAK256 SLOAD DUP4 SWAP1 DUP3 SWAP1 PUSH1 0xFF AND PUSH2 0x3053 JUMPI PUSH2 0x131 SLOAD DUP2 LT ISZERO PUSH2 0x3000 JUMPI PUSH1 0x40 MLOAD PUSH3 0x461BCD PUSH1 0xE5 SHL DUP2 MSTORE PUSH1 0x20 PUSH1 0x4 DUP3 ADD MSTORE PUSH1 0x14 PUSH1 0x24 DUP3 ADD MSTORE PUSH32 0x416D6F756E742062656C6F77206D696E696D756D000000000000000000000000 PUSH1 0x44 DUP3 ADD MSTORE PUSH1 0x64 ADD PUSH2 0x118A JUMP JUMPDEST PUSH2 0x132 SLOAD DUP2 GT ISZERO PUSH2 0x3053 JUMPI PUSH1 0x40 MLOAD PUSH3 0x461BCD PUSH1 0xE5 SHL DUP2 MSTORE PUSH1 0x20 PUSH1 0x4 DUP3 ADD MSTORE PUSH1 0x16 PUSH1 0x24 DUP3 ADD MSTORE PUSH32 0x416D6F756E742065786365656473206D6178696D756D00000000000000000000 PUSH1 0x44 DUP3 ADD MSTORE PUSH1 0x64 ADD PUSH2 0x118A JUMP JUMPDEST PUSH1 0x1 PUSH1 0x1 PUSH1 0xA0 SHL SUB DUP6 AND PUSH1 0x0 SWAP1 DUP2 MSTORE PUSH2 0x13D PUSH1 0x20 MSTORE PUSH1 0x40 SWAP1 KECCAK256 SLOAD PUSH1 0xFF AND ISZERO PUSH2 0x30BD JUMPI PUSH1 0x40 MLOAD PUSH3 0x461BCD PUSH1 0xE5 SHL DUP2 MSTORE PUSH1 0x20 PUSH1 0x4 DUP3 ADD MSTORE PUSH1 0x1E PUSH1 0x24 DUP3 ADD MSTORE PUSH32 0x53656E64657227732077616C6C657420697320626C61636B6C69737465640000 PUSH1 0x44 DUP3 ADD MSTORE PUSH1 0x64 ADD PUSH2 0x118A JUMP JUMPDEST PUSH1 0x1 PUSH1 0x1 PUSH1 0xA0 SHL SUB DUP6 AND PUSH2 0x3121 JUMPI PUSH1 0x40 MLOAD PUSH3 0x461BCD PUSH1 0xE5 SHL DUP2 MSTORE PUSH1 0x20 PUSH1 0x4 DUP3 ADD MSTORE PUSH1 0x25 PUSH1 0x24 DUP3 ADD MSTORE PUSH32 0x45524332303A207472616E736665722066726F6D20746865207A65726F206164 PUSH1 0x44 DUP3 ADD MSTORE PUSH5 0x6472657373 PUSH1 0xD8 SHL PUSH1 0x64 DUP3 ADD MSTORE PUSH1 0x84 ADD PUSH2 0x118A JUMP JUMPDEST PUSH1 0x1 PUSH1 0x1 PUSH1 0xA0 SHL SUB DUP5 AND PUSH2 0x3183 JUMPI PUSH1 0x40 MLOAD PUSH3 0x461BCD PUSH1 0xE5 SHL DUP2 MSTORE PUSH1 0x20 PUSH1 0x4 DUP3 ADD MSTORE PUSH1 0x23 PUSH1 0x24 DUP3 ADD MSTORE PUSH32 0x45524332303A207472616E7366657220746F20746865207A65726F2061646472 PUSH1 0x44 DUP3 ADD MSTORE PUSH3 0x657373 PUSH1 0xE8 SHL PUSH1 0x64 DUP3 ADD MSTORE PUSH1 0x84 ADD PUSH2 0x118A JUMP JUMPDEST PUSH1 0x0 DUP4 GT PUSH2 0x31F9 JUMPI PUSH1 0x40 MLOAD PUSH3 0x461BCD PUSH1 0xE5 SHL DUP2 MSTORE PUSH1 0x20 PUSH1 0x4 DUP3 ADD MSTORE PUSH1 0x29 PUSH1 0x24 DUP3 ADD MSTORE PUSH32 0x5472616E7366657220616D6F756E74206D757374206265206772656174657220 PUSH1 0x44 DUP3 ADD MSTORE PUSH32 0x7468616E207A65726F0000000000000000000000000000000000000000000000 PUSH1 0x64 DUP3 ADD MSTORE PUSH1 0x84 ADD PUSH2 0x118A JUMP JUMPDEST PUSH1 0x1 PUSH1 0x1 PUSH1 0xA0 SHL SUB DUP6 AND PUSH1 0x0 SWAP1 DUP2 MSTORE PUSH2 0x136 PUSH1 0x20 MSTORE PUSH1 0x40 SWAP1 KECCAK256 SLOAD DUP4 SWAP1 PUSH1 0xFF AND DUP1 PUSH2 0x323C JUMPI POP PUSH1 0x1 PUSH1 0x1 PUSH1 0xA0 SHL SUB DUP6 AND PUSH1 0x0 SWAP1 DUP2 MSTORE PUSH2 0x136 PUSH1 0x20 MSTORE PUSH1 0x40 SWAP1 KECCAK256 SLOAD PUSH1 0xFF AND JUMPDEST ISZERO PUSH2 0x3252 JUMPI PUSH2 0x324C DUP7 DUP7 DUP7 PUSH2 0x3872 JUMP JUMPDEST POP PUSH2 0x1BEF JUMP JUMPDEST PUSH2 0x135 SLOAD PUSH2 0x100 SWAP1 DIV PUSH1 0xFF AND ISZERO PUSH2 0x329B JUMPI PUSH1 0x0 PUSH2 0x2710 PUSH2 0x137 SLOAD DUP4 PUSH2 0x3277 SWAP2 SWAP1 PUSH2 0x42A1 JUMP JUMPDEST PUSH2 0x3281 SWAP2 SWAP1 PUSH2 0x42B8 JUMP JUMPDEST SWAP1 POP PUSH2 0x328D DUP8 DUP3 PUSH2 0x33F9 JUMP JUMPDEST PUSH2 0x3297 DUP2 DUP7 PUSH2 0x428E JUMP JUMPDEST SWAP5 POP POP JUMPDEST PUSH2 0x13C SLOAD PUSH1 0xFF AND ISZERO PUSH2 0x330B JUMPI PUSH1 0x0 PUSH2 0x2710 DUP3 PUSH2 0x139 SLOAD PUSH2 0x32BB SWAP2 SWAP1 PUSH2 0x42A1 JUMP JUMPDEST PUSH2 0x32C5 SWAP2 SWAP1 PUSH2 0x42B8 JUMP JUMPDEST PUSH2 0x130 SLOAD SWAP1 SWAP2 POP PUSH2 0x32E1 SWAP1 DUP9 SWAP1 PUSH1 0x1 PUSH1 0x1 PUSH1 0xA0 SHL SUB AND DUP4 PUSH2 0x3872 JUMP JUMPDEST PUSH2 0x2710 DUP3 PUSH2 0x139 SLOAD PUSH2 0x32F3 SWAP2 SWAP1 PUSH2 0x42A1 JUMP JUMPDEST PUSH2 0x32FD SWAP2 SWAP1 PUSH2 0x42B8 JUMP JUMPDEST PUSH2 0x3307 SWAP1 DUP7 PUSH2 0x428E JUMP JUMPDEST SWAP5 POP POP JUMPDEST PUSH2 0x3313 PUSH2 0x10B3 JUMP JUMPDEST PUSH2 0x331E DUP7 DUP7 DUP7 PUSH2 0x3872 JUMP JUMPDEST POP POP POP POP POP POP JUMP JUMPDEST PUSH1 0x1 PUSH1 0xFB SSTORE JUMP JUMPDEST PUSH1 0x0 PUSH2 0x3339 DUP3 DUP5 PUSH2 0x4309 JUMP JUMPDEST SWAP4 SWAP3 POP POP POP JUMP JUMPDEST PUSH2 0x3348 PUSH2 0x3A34 JUMP JUMPDEST PUSH1 0xC9 DUP1 SLOAD PUSH1 0xFF NOT AND SWAP1 SSTORE PUSH32 0x5DB9EE0A495BF2E6FF9C91A7834C1BA4FDD244A5E8AA4E537BD38AEAE4B073AA CALLER JUMPDEST PUSH1 0x40 MLOAD PUSH1 0x1 PUSH1 0x1 PUSH1 0xA0 SHL SUB SWAP1 SWAP2 AND DUP2 MSTORE PUSH1 0x20 ADD PUSH1 0x40 MLOAD DUP1 SWAP2 SUB SWAP1 LOG1 JUMP JUMPDEST PUSH2 0x339C DUP3 DUP3 PUSH2 0x3A86 JUMP JUMPDEST PUSH1 0x1 PUSH1 0x1 PUSH1 0xA0 SHL SUB DUP3 AND PUSH1 0x0 SWAP1 DUP2 MSTORE PUSH2 0x145 PUSH1 0x20 MSTORE PUSH1 0x40 SWAP1 KECCAK256 SLOAD PUSH1 0xFF AND PUSH2 0x173F JUMPI PUSH1 0x1 PUSH1 0x1 PUSH1 0xA0 SHL SUB DUP3 AND PUSH1 0x0 SWAP1 DUP2 MSTORE PUSH2 0x145 PUSH1 0x20 MSTORE PUSH1 0x40 SWAP1 KECCAK256 DUP1 SLOAD PUSH1 0xFF NOT AND PUSH1 0x1 SWAP1 DUP2 OR SWAP1 SWAP2 SSTORE PUSH2 0x146 SLOAD PUSH2 0x33F1 SWAP2 PUSH2 0x332D JUMP JUMPDEST PUSH2 0x146 SSTORE POP POP JUMP JUMPDEST PUSH2 0x3403 DUP3 DUP3 PUSH2 0x3B47 JUMP JUMPDEST PUSH1 0x1 PUSH1 0x1 PUSH1 0xA0 SHL SUB DUP3 AND PUSH1 0x0 SWAP1 DUP2 MSTORE PUSH1 0x33 PUSH1 0x20 MSTORE PUSH1 0x40 SWAP1 KECCAK256 SLOAD PUSH1 0x0 SUB PUSH2 0x173F JUMPI PUSH1 0x1 PUSH1 0x1 PUSH1 0xA0 SHL SUB DUP3 AND PUSH1 0x0 SWAP1 DUP2 MSTORE PUSH2 0x145 PUSH1 0x20 MSTORE PUSH1 0x40 SWAP1 KECCAK256 DUP1 SLOAD PUSH1 0xFF NOT AND SWAP1 SSTORE PUSH2 0x146 SLOAD PUSH2 0x33F1 SWAP1 PUSH1 0x1 PUSH2 0x354D JUMP JUMPDEST PUSH1 0x97 DUP1 SLOAD PUSH1 0x1 PUSH1 0x1 PUSH1 0xA0 SHL SUB DUP4 DUP2 AND PUSH1 0x1 PUSH1 0x1 PUSH1 0xA0 SHL SUB NOT DUP4 AND DUP2 OR SWAP1 SWAP4 SSTORE PUSH1 0x40 MLOAD SWAP2 AND SWAP2 SWAP1 DUP3 SWAP1 PUSH32 0x8BE0079C531659141344CD1FD0A4F28419497F9722A3DAAFE3B4186F6B6457E0 SWAP1 PUSH1 0x0 SWAP1 LOG3 POP POP JUMP JUMPDEST PUSH1 0x0 DUP1 JUMPDEST PUSH2 0x12E SLOAD DUP2 LT ISZERO PUSH2 0x3507 JUMPI DUP3 PUSH1 0x1 PUSH1 0x1 PUSH1 0xA0 SHL SUB AND PUSH2 0x12E DUP3 DUP2 SLOAD DUP2 LT PUSH2 0x34D2 JUMPI PUSH2 0x34D2 PUSH2 0x42DA JUMP JUMPDEST PUSH1 0x0 SWAP2 DUP3 MSTORE PUSH1 0x20 SWAP1 SWAP2 KECCAK256 ADD SLOAD PUSH1 0x1 PUSH1 0x1 PUSH1 0xA0 SHL SUB AND SUB PUSH2 0x34F5 JUMPI POP PUSH1 0x1 SWAP3 SWAP2 POP POP JUMP JUMPDEST DUP1 PUSH2 0x34FF DUP2 PUSH2 0x42F0 JUMP JUMPDEST SWAP2 POP POP PUSH2 0x34A9 JUMP JUMPDEST POP PUSH1 0x0 SWAP3 SWAP2 POP POP JUMP JUMPDEST PUSH2 0x3518 PUSH2 0x3559 JUMP JUMPDEST PUSH1 0xC9 DUP1 SLOAD PUSH1 0xFF NOT AND PUSH1 0x1 OR SWAP1 SSTORE PUSH32 0x62E78CEA01BEE320CD4E420270B5EA74000D11B0C9F74754EBDBFC544B05A258 PUSH2 0x3375 CALLER SWAP1 JUMP JUMPDEST PUSH1 0x0 PUSH2 0x3339 DUP3 DUP5 PUSH2 0x428E JUMP JUMPDEST PUSH1 0xC9 SLOAD PUSH1 0xFF AND ISZERO PUSH2 0x1881 JUMPI PUSH1 0x40 MLOAD PUSH3 0x461BCD PUSH1 0xE5 SHL DUP2 MSTORE PUSH1 0x20 PUSH1 0x4 DUP3 ADD MSTORE PUSH1 0x10 PUSH1 0x24 DUP3 ADD MSTORE PUSH32 0x5061757361626C653A2070617573656400000000000000000000000000000000 PUSH1 0x44 DUP3 ADD MSTORE PUSH1 0x64 ADD PUSH2 0x118A JUMP JUMPDEST PUSH2 0x35B4 PUSH2 0x2D8C JUMP JUMPDEST PUSH1 0x1 PUSH1 0x1 PUSH1 0xA0 SHL SUB DUP2 AND PUSH2 0x3630 JUMPI PUSH1 0x40 MLOAD PUSH3 0x461BCD PUSH1 0xE5 SHL DUP2 MSTORE PUSH1 0x20 PUSH1 0x4 DUP3 ADD MSTORE PUSH1 0x26 PUSH1 0x24 DUP3 ADD MSTORE PUSH32 0x4F776E61626C653A206E6577206F776E657220697320746865207A65726F2061 PUSH1 0x44 DUP3 ADD MSTORE PUSH32 0x6464726573730000000000000000000000000000000000000000000000000000 PUSH1 0x64 DUP3 ADD MSTORE PUSH1 0x84 ADD PUSH2 0x118A JUMP JUMPDEST PUSH2 0x112D DUP2 PUSH2 0x3453 JUMP JUMPDEST PUSH1 0x0 SLOAD PUSH2 0x100 SWAP1 DIV PUSH1 0xFF AND PUSH2 0x36A4 JUMPI PUSH1 0x40 MLOAD PUSH3 0x461BCD PUSH1 0xE5 SHL DUP2 MSTORE PUSH1 0x20 PUSH1 0x4 DUP3 ADD MSTORE PUSH1 0x2B PUSH1 0x24 DUP3 ADD MSTORE PUSH32 0x496E697469616C697A61626C653A20636F6E7472616374206973206E6F742069 PUSH1 0x44 DUP3 ADD MSTORE PUSH11 0x6E697469616C697A696E67 PUSH1 0xA8 SHL PUSH1 0x64 DUP3 ADD MSTORE PUSH1 0x84 ADD PUSH2 0x118A JUMP JUMPDEST PUSH2 0x173F DUP3 DUP3 PUSH2 0x3CB2 JUMP JUMPDEST PUSH1 0x0 SLOAD PUSH2 0x100 SWAP1 DIV PUSH1 0xFF AND PUSH2 0x1881 JUMPI PUSH1 0x40 MLOAD PUSH3 0x461BCD PUSH1 0xE5 SHL DUP2 MSTORE PUSH1 0x20 PUSH1 0x4 DUP3 ADD MSTORE PUSH1 0x2B PUSH1 0x24 DUP3 ADD MSTORE PUSH32 0x496E697469616C697A61626C653A20636F6E7472616374206973206E6F742069 PUSH1 0x44 DUP3 ADD MSTORE PUSH11 0x6E697469616C697A696E67 PUSH1 0xA8 SHL PUSH1 0x64 DUP3 ADD MSTORE PUSH1 0x84 ADD PUSH2 0x118A JUMP JUMPDEST PUSH1 0x0 SLOAD PUSH2 0x100 SWAP1 DIV PUSH1 0xFF AND PUSH2 0x3784 JUMPI PUSH1 0x40 MLOAD PUSH3 0x461BCD PUSH1 0xE5 SHL DUP2 MSTORE PUSH1 0x20 PUSH1 0x4 DUP3 ADD MSTORE PUSH1 0x2B PUSH1 0x24 DUP3 ADD MSTORE PUSH32 0x496E697469616C697A61626C653A20636F6E7472616374206973206E6F742069 PUSH1 0x44 DUP3 ADD MSTORE PUSH11 0x6E697469616C697A696E67 PUSH1 0xA8 SHL PUSH1 0x64 DUP3 ADD MSTORE PUSH1 0x84 ADD PUSH2 0x118A JUMP JUMPDEST PUSH2 0x1881 PUSH2 0x3D36 JUMP JUMPDEST PUSH1 0x0 SLOAD PUSH2 0x100 SWAP1 DIV PUSH1 0xFF AND PUSH2 0x37F7 JUMPI PUSH1 0x40 MLOAD PUSH3 0x461BCD PUSH1 0xE5 SHL DUP2 MSTORE PUSH1 0x20 PUSH1 0x4 DUP3 ADD MSTORE PUSH1 0x2B PUSH1 0x24 DUP3 ADD MSTORE PUSH32 0x496E697469616C697A61626C653A20636F6E7472616374206973206E6F742069 PUSH1 0x44 DUP3 ADD MSTORE PUSH11 0x6E697469616C697A696E67 PUSH1 0xA8 SHL PUSH1 0x64 DUP3 ADD MSTORE PUSH1 0x84 ADD PUSH2 0x118A JUMP JUMPDEST PUSH2 0x1881 PUSH2 0x3DAA JUMP JUMPDEST PUSH1 0x0 SLOAD PUSH2 0x100 SWAP1 DIV PUSH1 0xFF AND PUSH2 0x386A JUMPI PUSH1 0x40 MLOAD PUSH3 0x461BCD PUSH1 0xE5 SHL DUP2 MSTORE PUSH1 0x20 PUSH1 0x4 DUP3 ADD MSTORE PUSH1 0x2B PUSH1 0x24 DUP3 ADD MSTORE PUSH32 0x496E697469616C697A61626C653A20636F6E7472616374206973206E6F742069 PUSH1 0x44 DUP3 ADD MSTORE PUSH11 0x6E697469616C697A696E67 PUSH1 0xA8 SHL PUSH1 0x64 DUP3 ADD MSTORE PUSH1 0x84 ADD PUSH2 0x118A JUMP JUMPDEST PUSH2 0x1881 PUSH2 0x3E21 JUMP JUMPDEST PUSH1 0x1 PUSH1 0x1 PUSH1 0xA0 SHL SUB DUP4 AND PUSH2 0x38D6 JUMPI PUSH1 0x40 MLOAD PUSH3 0x461BCD PUSH1 0xE5 SHL DUP2 MSTORE PUSH1 0x20 PUSH1 0x4 DUP3 ADD MSTORE PUSH1 0x25 PUSH1 0x24 DUP3 ADD MSTORE PUSH32 0x45524332303A207472616E736665722066726F6D20746865207A65726F206164 PUSH1 0x44 DUP3 ADD MSTORE PUSH5 0x6472657373 PUSH1 0xD8 SHL PUSH1 0x64 DUP3 ADD MSTORE PUSH1 0x84 ADD PUSH2 0x118A JUMP JUMPDEST PUSH1 0x1 PUSH1 0x1 PUSH1 0xA0 SHL SUB DUP3 AND PUSH2 0x3938 JUMPI PUSH1 0x40 MLOAD PUSH3 0x461BCD PUSH1 0xE5 SHL DUP2 MSTORE PUSH1 0x20 PUSH1 0x4 DUP3 ADD MSTORE PUSH1 0x23 PUSH1 0x24 DUP3 ADD MSTORE PUSH32 0x45524332303A207472616E7366657220746F20746865207A65726F2061646472 PUSH1 0x44 DUP3 ADD MSTORE PUSH3 0x657373 PUSH1 0xE8 SHL PUSH1 0x64 DUP3 ADD MSTORE PUSH1 0x84 ADD PUSH2 0x118A JUMP JUMPDEST PUSH1 0x1 PUSH1 0x1 PUSH1 0xA0 SHL SUB DUP4 AND PUSH1 0x0 SWAP1 DUP2 MSTORE PUSH1 0x33 PUSH1 0x20 MSTORE PUSH1 0x40 SWAP1 KECCAK256 SLOAD DUP2 DUP2 LT ISZERO PUSH2 0x39C7 JUMPI PUSH1 0x40 MLOAD PUSH3 0x461BCD PUSH1 0xE5 SHL DUP2 MSTORE PUSH1 0x20 PUSH1 0x4 DUP3 ADD MSTORE PUSH1 0x26 PUSH1 0x24 DUP3 ADD MSTORE PUSH32 0x45524332303A207472616E7366657220616D6F756E7420657863656564732062 PUSH1 0x44 DUP3 ADD MSTORE PUSH32 0x616C616E63650000000000000000000000000000000000000000000000000000 PUSH1 0x64 DUP3 ADD MSTORE PUSH1 0x84 ADD PUSH2 0x118A JUMP JUMPDEST PUSH1 0x1 PUSH1 0x1 PUSH1 0xA0 SHL SUB DUP1 DUP6 AND PUSH1 0x0 DUP2 DUP2 MSTORE PUSH1 0x33 PUSH1 0x20 MSTORE PUSH1 0x40 DUP1 DUP3 KECCAK256 DUP7 DUP7 SUB SWAP1 SSTORE SWAP3 DUP7 AND DUP1 DUP3 MSTORE SWAP1 DUP4 SWAP1 KECCAK256 DUP1 SLOAD DUP7 ADD SWAP1 SSTORE SWAP2 MLOAD PUSH32 0xDDF252AD1BE2C89B69C2B068FC378DAA952BA7F163C4A11628F55A4DF523B3EF SWAP1 PUSH2 0x3A27 SWAP1 DUP7 DUP2 MSTORE PUSH1 0x20 ADD SWAP1 JUMP JUMPDEST PUSH1 0x40 MLOAD DUP1 SWAP2 SUB SWAP1 LOG3 PUSH2 0x2ECB JUMP JUMPDEST PUSH1 0xC9 SLOAD PUSH1 0xFF AND PUSH2 0x1881 JUMPI PUSH1 0x40 MLOAD PUSH3 0x461BCD PUSH1 0xE5 SHL DUP2 MSTORE PUSH1 0x20 PUSH1 0x4 DUP3 ADD MSTORE PUSH1 0x14 PUSH1 0x24 DUP3 ADD MSTORE PUSH32 0x5061757361626C653A206E6F7420706175736564000000000000000000000000 PUSH1 0x44 DUP3 ADD MSTORE PUSH1 0x64 ADD PUSH2 0x118A JUMP JUMPDEST PUSH1 0x1 PUSH1 0x1 PUSH1 0xA0 SHL SUB DUP3 AND PUSH2 0x3ADC JUMPI PUSH1 0x40 MLOAD PUSH3 0x461BCD PUSH1 0xE5 SHL DUP2 MSTORE PUSH1 0x20 PUSH1 0x4 DUP3 ADD MSTORE PUSH1 0x1F PUSH1 0x24 DUP3 ADD MSTORE PUSH32 0x45524332303A206D696E7420746F20746865207A65726F206164647265737300 PUSH1 0x44 DUP3 ADD MSTORE PUSH1 0x64 ADD PUSH2 0x118A JUMP JUMPDEST DUP1 PUSH1 0x35 PUSH1 0x0 DUP3 DUP3 SLOAD PUSH2 0x3AEE SWAP2 SWAP1 PUSH2 0x4309 JUMP JUMPDEST SWAP1 SWAP2 SSTORE POP POP PUSH1 0x1 PUSH1 0x1 PUSH1 0xA0 SHL SUB DUP3 AND PUSH1 0x0 DUP2 DUP2 MSTORE PUSH1 0x33 PUSH1 0x20 SWAP1 DUP2 MSTORE PUSH1 0x40 DUP1 DUP4 KECCAK256 DUP1 SLOAD DUP7 ADD SWAP1 SSTORE MLOAD DUP5 DUP2 MSTORE PUSH32 0xDDF252AD1BE2C89B69C2B068FC378DAA952BA7F163C4A11628F55A4DF523B3EF SWAP2 ADD PUSH1 0x40 MLOAD DUP1 SWAP2 SUB SWAP1 LOG3 POP POP JUMP JUMPDEST PUSH1 0x1 PUSH1 0x1 PUSH1 0xA0 SHL SUB DUP3 AND PUSH2 0x3BC3 JUMPI PUSH1 0x40 MLOAD PUSH3 0x461BCD PUSH1 0xE5 SHL DUP2 MSTORE PUSH1 0x20 PUSH1 0x4 DUP3 ADD MSTORE PUSH1 0x21 PUSH1 0x24 DUP3 ADD MSTORE PUSH32 0x45524332303A206275726E2066726F6D20746865207A65726F20616464726573 PUSH1 0x44 DUP3 ADD MSTORE PUSH32 0x7300000000000000000000000000000000000000000000000000000000000000 PUSH1 0x64 DUP3 ADD MSTORE PUSH1 0x84 ADD PUSH2 0x118A JUMP JUMPDEST PUSH1 0x1 PUSH1 0x1 PUSH1 0xA0 SHL SUB DUP3 AND PUSH1 0x0 SWAP1 DUP2 MSTORE PUSH1 0x33 PUSH1 0x20 MSTORE PUSH1 0x40 SWAP1 KECCAK256 SLOAD DUP2 DUP2 LT ISZERO PUSH2 0x3C52 JUMPI PUSH1 0x40 MLOAD PUSH3 0x461BCD PUSH1 0xE5 SHL DUP2 MSTORE PUSH1 0x20 PUSH1 0x4 DUP3 ADD MSTORE PUSH1 0x22 PUSH1 0x24 DUP3 ADD MSTORE PUSH32 0x45524332303A206275726E20616D6F756E7420657863656564732062616C616E PUSH1 0x44 DUP3 ADD MSTORE PUSH32 0x6365000000000000000000000000000000000000000000000000000000000000 PUSH1 0x64 DUP3 ADD MSTORE PUSH1 0x84 ADD PUSH2 0x118A JUMP JUMPDEST PUSH1 0x1 PUSH1 0x1 PUSH1 0xA0 SHL SUB DUP4 AND PUSH1 0x0 DUP2 DUP2 MSTORE PUSH1 0x33 PUSH1 0x20 SWAP1 DUP2 MSTORE PUSH1 0x40 DUP1 DUP4 KECCAK256 DUP7 DUP7 SUB SWAP1 SSTORE PUSH1 0x35 DUP1 SLOAD DUP8 SWAP1 SUB SWAP1 SSTORE MLOAD DUP6 DUP2 MSTORE SWAP2 SWAP3 SWAP2 PUSH32 0xDDF252AD1BE2C89B69C2B068FC378DAA952BA7F163C4A11628F55A4DF523B3EF SWAP2 ADD PUSH1 0x40 MLOAD DUP1 SWAP2 SUB SWAP1 LOG3 POP POP POP JUMP JUMPDEST PUSH1 0x0 SLOAD PUSH2 0x100 SWAP1 DIV PUSH1 0xFF AND PUSH2 0x3D1D JUMPI PUSH1 0x40 MLOAD PUSH3 0x461BCD PUSH1 0xE5 SHL DUP2 MSTORE PUSH1 0x20 PUSH1 0x4 DUP3 ADD MSTORE PUSH1 0x2B PUSH1 0x24 DUP3 ADD MSTORE PUSH32 0x496E697469616C697A61626C653A20636F6E7472616374206973206E6F742069 PUSH1 0x44 DUP3 ADD MSTORE PUSH11 0x6E697469616C697A696E67 PUSH1 0xA8 SHL PUSH1 0x64 DUP3 ADD MSTORE PUSH1 0x84 ADD PUSH2 0x118A JUMP JUMPDEST PUSH1 0x36 PUSH2 0x3D29 DUP4 DUP3 PUSH2 0x449E JUMP JUMPDEST POP PUSH1 0x37 PUSH2 0x201E DUP3 DUP3 PUSH2 0x449E JUMP JUMPDEST PUSH1 0x0 SLOAD PUSH2 0x100 SWAP1 DIV PUSH1 0xFF AND PUSH2 0x3DA1 JUMPI PUSH1 0x40 MLOAD PUSH3 0x461BCD PUSH1 0xE5 SHL DUP2 MSTORE PUSH1 0x20 PUSH1 0x4 DUP3 ADD MSTORE PUSH1 0x2B PUSH1 0x24 DUP3 ADD MSTORE PUSH32 0x496E697469616C697A61626C653A20636F6E7472616374206973206E6F742069 PUSH1 0x44 DUP3 ADD MSTORE PUSH11 0x6E697469616C697A696E67 PUSH1 0xA8 SHL PUSH1 0x64 DUP3 ADD MSTORE PUSH1 0x84 ADD PUSH2 0x118A JUMP JUMPDEST PUSH2 0x1881 CALLER PUSH2 0x3453 JUMP JUMPDEST PUSH1 0x0 SLOAD PUSH2 0x100 SWAP1 DIV PUSH1 0xFF AND PUSH2 0x3E15 JUMPI PUSH1 0x40 MLOAD PUSH3 0x461BCD PUSH1 0xE5 SHL DUP2 MSTORE PUSH1 0x20 PUSH1 0x4 DUP3 ADD MSTORE PUSH1 0x2B PUSH1 0x24 DUP3 ADD MSTORE PUSH32 0x496E697469616C697A61626C653A20636F6E7472616374206973206E6F742069 PUSH1 0x44 DUP3 ADD MSTORE PUSH11 0x6E697469616C697A696E67 PUSH1 0xA8 SHL PUSH1 0x64 DUP3 ADD MSTORE PUSH1 0x84 ADD PUSH2 0x118A JUMP JUMPDEST PUSH1 0xC9 DUP1 SLOAD PUSH1 0xFF NOT AND SWAP1 SSTORE JUMP JUMPDEST PUSH1 0x0 SLOAD PUSH2 0x100 SWAP1 DIV PUSH1 0xFF AND PUSH2 0x3326 JUMPI PUSH1 0x40 MLOAD PUSH3 0x461BCD PUSH1 0xE5 SHL DUP2 MSTORE PUSH1 0x20 PUSH1 0x4 DUP3 ADD MSTORE PUSH1 0x2B PUSH1 0x24 DUP3 ADD MSTORE PUSH32 0x496E697469616C697A61626C653A20636F6E7472616374206973206E6F742069 PUSH1 0x44 DUP3 ADD MSTORE PUSH11 0x6E697469616C697A696E67 PUSH1 0xA8 SHL PUSH1 0x64 DUP3 ADD MSTORE PUSH1 0x84 ADD PUSH2 0x118A JUMP JUMPDEST PUSH1 0x0 PUSH1 0x20 DUP1 DUP4 MSTORE DUP4 MLOAD DUP1 DUP3 DUP6 ADD MSTORE PUSH1 0x0 JUMPDEST DUP2 DUP2 LT ISZERO PUSH2 0x3EB9 JUMPI DUP6 DUP2 ADD DUP4 ADD MLOAD DUP6 DUP3 ADD PUSH1 0x40 ADD MSTORE DUP3 ADD PUSH2 0x3E9D JUMP JUMPDEST POP PUSH1 0x0 PUSH1 0x40 DUP3 DUP7 ADD ADD MSTORE PUSH1 0x40 PUSH1 0x1F NOT PUSH1 0x1F DUP4 ADD AND DUP6 ADD ADD SWAP3 POP POP POP SWAP3 SWAP2 POP POP JUMP JUMPDEST PUSH1 0x1 PUSH1 0x1 PUSH1 0xA0 SHL SUB DUP2 AND DUP2 EQ PUSH2 0x112D JUMPI PUSH1 0x0 DUP1 REVERT JUMPDEST DUP1 CALLDATALOAD PUSH2 0x3EFA DUP2 PUSH2 0x3EDA JUMP JUMPDEST SWAP2 SWAP1 POP JUMP JUMPDEST PUSH1 0x0 DUP1 PUSH1 0x40 DUP4 DUP6 SUB SLT ISZERO PUSH2 0x3F12 JUMPI PUSH1 0x0 DUP1 REVERT JUMPDEST DUP3 CALLDATALOAD PUSH2 0x3F1D DUP2 PUSH2 0x3EDA JUMP JUMPDEST SWAP5 PUSH1 0x20 SWAP4 SWAP1 SWAP4 ADD CALLDATALOAD SWAP4 POP POP POP JUMP JUMPDEST PUSH1 0x0 PUSH1 0x20 DUP3 DUP5 SUB SLT ISZERO PUSH2 0x3F3D JUMPI PUSH1 0x0 DUP1 REVERT JUMPDEST DUP2 CALLDATALOAD PUSH2 0x3339 DUP2 PUSH2 0x3EDA JUMP JUMPDEST PUSH1 0x0 DUP1 PUSH1 0x0 PUSH1 0x60 DUP5 DUP7 SUB SLT ISZERO PUSH2 0x3F5D JUMPI PUSH1 0x0 DUP1 REVERT JUMPDEST DUP4 CALLDATALOAD PUSH2 0x3F68 DUP2 PUSH2 0x3EDA JUMP JUMPDEST SWAP3 POP PUSH1 0x20 DUP5 ADD CALLDATALOAD PUSH2 0x3F78 DUP2 PUSH2 0x3EDA JUMP JUMPDEST SWAP3 SWAP6 SWAP3 SWAP5 POP POP POP PUSH1 0x40 SWAP2 SWAP1 SWAP2 ADD CALLDATALOAD SWAP1 JUMP JUMPDEST PUSH1 0x0 DUP1 PUSH1 0x0 DUP1 PUSH1 0x80 DUP6 DUP8 SUB SLT ISZERO PUSH2 0x3F9F JUMPI PUSH1 0x0 DUP1 REVERT JUMPDEST DUP5 CALLDATALOAD PUSH2 0x3FAA DUP2 PUSH2 0x3EDA JUMP JUMPDEST SWAP7 PUSH1 0x20 DUP7 ADD CALLDATALOAD SWAP7 POP PUSH1 0x40 DUP7 ADD CALLDATALOAD SWAP6 PUSH1 0x60 ADD CALLDATALOAD SWAP5 POP SWAP3 POP POP POP JUMP JUMPDEST PUSH1 0x0 PUSH1 0x20 DUP3 DUP5 SUB SLT ISZERO PUSH2 0x3FD6 JUMPI PUSH1 0x0 DUP1 REVERT JUMPDEST POP CALLDATALOAD SWAP2 SWAP1 POP JUMP JUMPDEST DUP1 ISZERO ISZERO DUP2 EQ PUSH2 0x112D JUMPI PUSH1 0x0 DUP1 REVERT JUMPDEST PUSH1 0x0 PUSH1 0x20 DUP3 DUP5 SUB SLT ISZERO PUSH2 0x3FFD JUMPI PUSH1 0x0 DUP1 REVERT JUMPDEST DUP2 CALLDATALOAD PUSH2 0x3339 DUP2 PUSH2 0x3FDD JUMP JUMPDEST PUSH1 0x0 DUP1 PUSH1 0x40 DUP4 DUP6 SUB SLT ISZERO PUSH2 0x401B JUMPI PUSH1 0x0 DUP1 REVERT JUMPDEST DUP3 CALLDATALOAD PUSH2 0x4026 DUP2 PUSH2 0x3EDA JUMP JUMPDEST SWAP2 POP PUSH1 0x20 DUP4 ADD CALLDATALOAD PUSH2 0x4036 DUP2 PUSH2 0x3EDA JUMP JUMPDEST DUP1 SWAP2 POP POP SWAP3 POP SWAP3 SWAP1 POP JUMP JUMPDEST PUSH4 0x4E487B71 PUSH1 0xE0 SHL PUSH1 0x0 MSTORE PUSH1 0x41 PUSH1 0x4 MSTORE PUSH1 0x24 PUSH1 0x0 REVERT JUMPDEST PUSH1 0x40 MLOAD PUSH1 0x1F DUP3 ADD PUSH1 0x1F NOT AND DUP2 ADD PUSH8 0xFFFFFFFFFFFFFFFF DUP2 GT DUP3 DUP3 LT OR ISZERO PUSH2 0x4080 JUMPI PUSH2 0x4080 PUSH2 0x4041 JUMP JUMPDEST PUSH1 0x40 MSTORE SWAP2 SWAP1 POP JUMP JUMPDEST PUSH1 0x0 DUP3 PUSH1 0x1F DUP4 ADD SLT PUSH2 0x4099 JUMPI PUSH1 0x0 DUP1 REVERT JUMPDEST DUP2 CALLDATALOAD PUSH8 0xFFFFFFFFFFFFFFFF DUP2 GT ISZERO PUSH2 0x40B3 JUMPI PUSH2 0x40B3 PUSH2 0x4041 JUMP JUMPDEST PUSH2 0x40C6 PUSH1 0x1F DUP3 ADD PUSH1 0x1F NOT AND PUSH1 0x20 ADD PUSH2 0x4057 JUMP JUMPDEST DUP2 DUP2 MSTORE DUP5 PUSH1 0x20 DUP4 DUP7 ADD ADD GT ISZERO PUSH2 0x40DB JUMPI PUSH1 0x0 DUP1 REVERT JUMPDEST DUP2 PUSH1 0x20 DUP6 ADD PUSH1 0x20 DUP4 ADD CALLDATACOPY PUSH1 0x0 SWAP2 DUP2 ADD PUSH1 0x20 ADD SWAP2 SWAP1 SWAP2 MSTORE SWAP4 SWAP3 POP POP POP JUMP JUMPDEST PUSH1 0x0 DUP3 PUSH1 0x1F DUP4 ADD SLT PUSH2 0x4109 JUMPI PUSH1 0x0 DUP1 REVERT JUMPDEST DUP2 CALLDATALOAD PUSH1 0x20 PUSH8 0xFFFFFFFFFFFFFFFF DUP3 GT ISZERO PUSH2 0x4125 JUMPI PUSH2 0x4125 PUSH2 0x4041 JUMP JUMPDEST DUP2 PUSH1 0x5 SHL PUSH2 0x4134 DUP3 DUP3 ADD PUSH2 0x4057 JUMP JUMPDEST SWAP3 DUP4 MSTORE DUP5 DUP2 ADD DUP3 ADD SWAP3 DUP3 DUP2 ADD SWAP1 DUP8 DUP6 GT ISZERO PUSH2 0x414E JUMPI PUSH1 0x0 DUP1 REVERT JUMPDEST DUP4 DUP8 ADD SWAP3 POP JUMPDEST DUP5 DUP4 LT ISZERO PUSH2 0x4176 JUMPI DUP3 CALLDATALOAD PUSH2 0x4167 DUP2 PUSH2 0x3EDA JUMP JUMPDEST DUP3 MSTORE SWAP2 DUP4 ADD SWAP2 SWAP1 DUP4 ADD SWAP1 PUSH2 0x4154 JUMP JUMPDEST SWAP8 SWAP7 POP POP POP POP POP POP POP JUMP JUMPDEST PUSH1 0x0 DUP1 PUSH1 0x0 DUP1 PUSH1 0x0 DUP1 PUSH1 0xC0 DUP8 DUP10 SUB SLT ISZERO PUSH2 0x419A JUMPI PUSH1 0x0 DUP1 REVERT JUMPDEST DUP7 CALLDATALOAD PUSH8 0xFFFFFFFFFFFFFFFF DUP1 DUP3 GT ISZERO PUSH2 0x41B2 JUMPI PUSH1 0x0 DUP1 REVERT JUMPDEST PUSH2 0x41BE DUP11 DUP4 DUP12 ADD PUSH2 0x4088 JUMP JUMPDEST SWAP8 POP PUSH1 0x20 DUP10 ADD CALLDATALOAD SWAP2 POP DUP1 DUP3 GT ISZERO PUSH2 0x41D4 JUMPI PUSH1 0x0 DUP1 REVERT JUMPDEST PUSH2 0x41E0 DUP11 DUP4 DUP12 ADD PUSH2 0x4088 JUMP JUMPDEST SWAP7 POP PUSH1 0x40 DUP10 ADD CALLDATALOAD SWAP2 POP PUSH1 0xFF DUP3 AND DUP3 EQ PUSH2 0x41F8 JUMPI PUSH1 0x0 DUP1 REVERT JUMPDEST DUP2 SWAP6 POP PUSH1 0x60 DUP10 ADD CALLDATALOAD SWAP5 POP PUSH2 0x420E PUSH1 0x80 DUP11 ADD PUSH2 0x3EEF JUMP JUMPDEST SWAP4 POP PUSH1 0xA0 DUP10 ADD CALLDATALOAD SWAP2 POP DUP1 DUP3 GT ISZERO PUSH2 0x4224 JUMPI PUSH1 0x0 DUP1 REVERT JUMPDEST POP PUSH2 0x4231 DUP10 DUP3 DUP11 ADD PUSH2 0x40F8 JUMP JUMPDEST SWAP2 POP POP SWAP3 SWAP6 POP SWAP3 SWAP6 POP SWAP3 SWAP6 JUMP JUMPDEST PUSH1 0x1 DUP2 DUP2 SHR SWAP1 DUP3 AND DUP1 PUSH2 0x4252 JUMPI PUSH1 0x7F DUP3 AND SWAP2 POP JUMPDEST PUSH1 0x20 DUP3 LT DUP2 SUB PUSH2 0x4272 JUMPI PUSH4 0x4E487B71 PUSH1 0xE0 SHL PUSH1 0x0 MSTORE PUSH1 0x22 PUSH1 0x4 MSTORE PUSH1 0x24 PUSH1 0x0 REVERT JUMPDEST POP SWAP2 SWAP1 POP JUMP JUMPDEST PUSH4 0x4E487B71 PUSH1 0xE0 SHL PUSH1 0x0 MSTORE PUSH1 0x11 PUSH1 0x4 MSTORE PUSH1 0x24 PUSH1 0x0 REVERT JUMPDEST DUP2 DUP2 SUB DUP2 DUP2 GT ISZERO PUSH2 0x10AD JUMPI PUSH2 0x10AD PUSH2 0x4278 JUMP JUMPDEST DUP1 DUP3 MUL DUP2 ISZERO DUP3 DUP3 DIV DUP5 EQ OR PUSH2 0x10AD JUMPI PUSH2 0x10AD PUSH2 0x4278 JUMP JUMPDEST PUSH1 0x0 DUP3 PUSH2 0x42D5 JUMPI PUSH4 0x4E487B71 PUSH1 0xE0 SHL PUSH1 0x0 MSTORE PUSH1 0x12 PUSH1 0x4 MSTORE PUSH1 0x24 PUSH1 0x0 REVERT JUMPDEST POP DIV SWAP1 JUMP JUMPDEST PUSH4 0x4E487B71 PUSH1 0xE0 SHL PUSH1 0x0 MSTORE PUSH1 0x32 PUSH1 0x4 MSTORE PUSH1 0x24 PUSH1 0x0 REVERT JUMPDEST PUSH1 0x0 PUSH1 0x1 DUP3 ADD PUSH2 0x4302 JUMPI PUSH2 0x4302 PUSH2 0x4278 JUMP JUMPDEST POP PUSH1 0x1 ADD SWAP1 JUMP JUMPDEST DUP1 DUP3 ADD DUP1 DUP3 GT ISZERO PUSH2 0x10AD JUMPI PUSH2 0x10AD PUSH2 0x4278 JUMP JUMPDEST PUSH4 0x4E487B71 PUSH1 0xE0 SHL PUSH1 0x0 MSTORE PUSH1 0x31 PUSH1 0x4 MSTORE PUSH1 0x24 PUSH1 0x0 REVERT JUMPDEST PUSH1 0x0 PUSH1 0x20 DUP3 DUP5 SUB SLT ISZERO PUSH2 0x4344 JUMPI PUSH1 0x0 DUP1 REVERT JUMPDEST POP MLOAD SWAP2 SWAP1 POP JUMP JUMPDEST PUSH1 0x0 PUSH1 0x20 DUP3 DUP5 SUB SLT ISZERO PUSH2 0x435D JUMPI PUSH1 0x0 DUP1 REVERT JUMPDEST DUP2 MLOAD PUSH2 0x3339 DUP2 PUSH2 0x3FDD JUMP JUMPDEST PUSH1 0x1 DUP2 DUP2 JUMPDEST DUP1 DUP6 GT ISZERO PUSH2 0x43A3 JUMPI DUP2 PUSH1 0x0 NOT DIV DUP3 GT ISZERO PUSH2 0x4389 JUMPI PUSH2 0x4389 PUSH2 0x4278 JUMP JUMPDEST DUP1 DUP6 AND ISZERO PUSH2 0x4396 JUMPI SWAP2 DUP2 MUL SWAP2 JUMPDEST SWAP4 DUP5 SHR SWAP4 SWAP1 DUP1 MUL SWAP1 PUSH2 0x436D JUMP JUMPDEST POP SWAP3 POP SWAP3 SWAP1 POP JUMP JUMPDEST PUSH1 0x0 DUP3 PUSH2 0x43BA JUMPI POP PUSH1 0x1 PUSH2 0x10AD JUMP JUMPDEST DUP2 PUSH2 0x43C7 JUMPI POP PUSH1 0x0 PUSH2 0x10AD JUMP JUMPDEST DUP2 PUSH1 0x1 DUP2 EQ PUSH2 0x43DD JUMPI PUSH1 0x2 DUP2 EQ PUSH2 0x43E7 JUMPI PUSH2 0x4403 JUMP JUMPDEST PUSH1 0x1 SWAP2 POP POP PUSH2 0x10AD JUMP JUMPDEST PUSH1 0xFF DUP5 GT ISZERO PUSH2 0x43F8 JUMPI PUSH2 0x43F8 PUSH2 0x4278 JUMP JUMPDEST POP POP PUSH1 0x1 DUP3 SHL PUSH2 0x10AD JUMP JUMPDEST POP PUSH1 0x20 DUP4 LT PUSH2 0x133 DUP4 LT AND PUSH1 0x4E DUP5 LT PUSH1 0xB DUP5 LT AND OR ISZERO PUSH2 0x4426 JUMPI POP DUP2 DUP2 EXP PUSH2 0x10AD JUMP JUMPDEST PUSH2 0x4430 DUP4 DUP4 PUSH2 0x4368 JUMP JUMPDEST DUP1 PUSH1 0x0 NOT DIV DUP3 GT ISZERO PUSH2 0x4444 JUMPI PUSH2 0x4444 PUSH2 0x4278 JUMP JUMPDEST MUL SWAP4 SWAP3 POP POP POP JUMP JUMPDEST PUSH1 0x0 PUSH2 0x3339 DUP4 DUP4 PUSH2 0x43AB JUMP JUMPDEST PUSH1 0x1F DUP3 GT ISZERO PUSH2 0x201E JUMPI PUSH1 0x0 DUP2 DUP2 MSTORE PUSH1 0x20 DUP2 KECCAK256 PUSH1 0x1F DUP6 ADD PUSH1 0x5 SHR DUP2 ADD PUSH1 0x20 DUP7 LT ISZERO PUSH2 0x447F JUMPI POP DUP1 JUMPDEST PUSH1 0x1F DUP6 ADD PUSH1 0x5 SHR DUP3 ADD SWAP2 POP JUMPDEST DUP2 DUP2 LT ISZERO PUSH2 0x331E JUMPI DUP3 DUP2 SSTORE PUSH1 0x1 ADD PUSH2 0x448B JUMP JUMPDEST DUP2 MLOAD PUSH8 0xFFFFFFFFFFFFFFFF DUP2 GT ISZERO PUSH2 0x44B8 JUMPI PUSH2 0x44B8 PUSH2 0x4041 JUMP JUMPDEST PUSH2 0x44CC DUP2 PUSH2 0x44C6 DUP5 SLOAD PUSH2 0x423E JUMP JUMPDEST DUP5 PUSH2 0x4458 JUMP JUMPDEST PUSH1 0x20 DUP1 PUSH1 0x1F DUP4 GT PUSH1 0x1 DUP2 EQ PUSH2 0x4501 JUMPI PUSH1 0x0 DUP5 ISZERO PUSH2 0x44E9 JUMPI POP DUP6 DUP4 ADD MLOAD JUMPDEST PUSH1 0x0 NOT PUSH1 0x3 DUP7 SWAP1 SHL SHR NOT AND PUSH1 0x1 DUP6 SWAP1 SHL OR DUP6 SSTORE PUSH2 0x331E JUMP JUMPDEST PUSH1 0x0 DUP6 DUP2 MSTORE PUSH1 0x20 DUP2 KECCAK256 PUSH1 0x1F NOT DUP7 AND SWAP2 JUMPDEST DUP3 DUP2 LT ISZERO PUSH2 0x4530 JUMPI DUP9 DUP7 ADD MLOAD DUP3 SSTORE SWAP5 DUP5 ADD SWAP5 PUSH1 0x1 SWAP1 SWAP2 ADD SWAP1 DUP5 ADD PUSH2 0x4511 JUMP JUMPDEST POP DUP6 DUP3 LT ISZERO PUSH2 0x454E JUMPI DUP8 DUP6 ADD MLOAD PUSH1 0x0 NOT PUSH1 0x3 DUP9 SWAP1 SHL PUSH1 0xF8 AND SHR NOT AND DUP2 SSTORE JUMPDEST POP POP POP POP POP PUSH1 0x1 SWAP1 DUP2 SHL ADD SWAP1 SSTORE POP JUMP INVALID LOG2 PUSH5 0x6970667358 0x22 SLT KECCAK256 0xC3 PUSH29 0xF03F1BDFBED7927E9720FAD6887523DFB5F80A4F79EE40692C9611BD8C 0xAC PUSH5 0x736F6C6343 STOP ADDMOD SGT STOP CALLER "},"methodIdentifiers":{"_frozenWallets(address)":"3eb5cbeb","_owner()":"b2bdfa7b","addToWhitelist(address)":"e43252d7","addVestingSchedule(address,uint256,uint256,uint256)":"24ef8c1b","allowance(address,address)":"dd62ed3e","approve(address,uint256)":"095ea7b3","balanceOf(address)":"70a08231","blackList(address)":"4838d165","burn(uint256)":"42966c68","burnFrom(address,uint256)":"79cc6790","burnableTax()":"d0a1bd44","buySellTaxRate()":"bd0e0acd","cancelOwnershipTransfer()":"23452b9c","castVote(bool)":"7ace48e7","claim()":"4e71d92d","decimals()":"313ce567","decreaseAllowance(address,uint256)":"a457c2d7","decreasingTaxInterval()":"622b67cb","disableBuySellTax(bool)":"f217fdbe","finalizeOwnershipTransfer()":"bf41c2a4","freezeWallet(address,uint256)":"85be583f","graduallyDecreasingTax()":"5e2f16c8","hasVoted(address)":"09eef43e","holdersCount()":"6b4ed21b","includeInTax(address)":"e17c4c74","increaseAllowance(address,uint256)":"39509351","initialize(string,string,uint8,uint256,address,address[])":"f8f1b6c9","isBlackList(address)":"b36d6919","isBuySellTaxEnabled()":"ab8b2f0d","isDeflationary()":"8e8c10a2","isExcludedFromTax(address)":"cb4ca631","isWhitelisted(address)":"3af32abf","lastUpdatedTaxTimestamp()":"760b7e38","liquidityLocked()":"57976fb4","lockLiquidity(uint256)":"2bfbd9cf","lockedLiquidityAmount()":"052c30bc","maxSupply()":"d5abeb01","maxTransactionAmount()":"c8c8ebe4","minTransactionAmount()":"17a5d4df","mint(address,uint256)":"40c10f19","name()":"06fdde03","owner()":"8da5cb5b","pause()":"8456cb59","paused()":"5c975abb","proposeOwnershipTransfer(address)":"21040fc3","proposedOwner()":"d153b60c","removeFromBlacklist(address)":"537df3b6","removeFromWhitelist(address)":"8ab1d681","removeVoter(address)":"86c1ff68","renounceOwnership()":"715018a6","router()":"f887ea40","setBurnableTax(uint256)":"2a32234f","setBuySellTaxRate(uint256)":"8f376fca","setDeflationary(bool)":"a30ff8b6","setGraduallyDecreasingInterval(uint256)":"553ba06c","setGraduallyDecreasingTax(uint256)":"d292059e","setGraduallyDecreasingTaxZero()":"eb60b83f","setIsExcludedFromTax(address)":"7884d888","setMaxTransferAmount(uint256)":"8bf55409","setMinTransactionAmount(uint256)":"bfed5ce3","setRouter(address)":"c0d78655","setTransferDelay(uint256)":"36e8c9b3","setUSDTAddress(address)":"55eba868","signers(address)":"736c0d5b","symbol()":"95d89b41","totalSupply()":"18160ddd","transfer(address,uint256)":"a9059cbb","transferAllowedAt()":"b5c43db4","transferDelay()":"0a702e8d","transferFrom(address,address,uint256)":"23b872dd","transferOwnership(address)":"f2fde38b","unfreezeWallet(address)":"60f588b7","unlockLiquidity(uint256)":"96e83924","unpause()":"3f4ba83a","updateGraduallyDecreasingTax()":"0b4d57f5","usdt()":"2f48ab7d","vestingInfo(address)":"f78e633d","voters(uint256)":"da58c7d9","withdrawDumpToken(address,address)":"99672158","withdrawEth(address)":"25e16063"}},"storageLayout":{"storage":[{"astId":139,"contract":"contracts/cgateToken.sol:CG8","label":"_initialized","offset":0,"slot":"0","type":"t_uint8"},{"astId":142,"contract":"contracts/cgateToken.sol:CG8","label":"_initializing","offset":1,"slot":"0","type":"t_bool"},{"astId":1675,"contract":"contracts/cgateToken.sol:CG8","label":"__gap","offset":0,"slot":"1","type":"t_array(t_uint256)50_storage"},{"astId":534,"contract":"contracts/cgateToken.sol:CG8","label":"_balances","offset":0,"slot":"51","type":"t_mapping(t_address,t_uint256)"},{"astId":540,"contract":"contracts/cgateToken.sol:CG8","label":"_allowances","offset":0,"slot":"52","type":"t_mapping(t_address,t_mapping(t_address,t_uint256))"},{"astId":542,"contract":"contracts/cgateToken.sol:CG8","label":"_totalSupply","offset":0,"slot":"53","type":"t_uint256"},{"astId":544,"contract":"contracts/cgateToken.sol:CG8","label":"_name","offset":0,"slot":"54","type":"t_string_storage"},{"astId":546,"contract":"contracts/cgateToken.sol:CG8","label":"_symbol","offset":0,"slot":"55","type":"t_string_storage"},{"astId":1126,"contract":"contracts/cgateToken.sol:CG8","label":"__gap","offset":0,"slot":"56","type":"t_array(t_uint256)45_storage"},{"astId":1269,"contract":"contracts/cgateToken.sol:CG8","label":"__gap","offset":0,"slot":"101","type":"t_array(t_uint256)50_storage"},{"astId":11,"contract":"contracts/cgateToken.sol:CG8","label":"_owner","offset":0,"slot":"151","type":"t_address"},{"astId":131,"contract":"contracts/cgateToken.sol:CG8","label":"__gap","offset":0,"slot":"152","type":"t_array(t_uint256)49_storage"},{"astId":323,"contract":"contracts/cgateToken.sol:CG8","label":"_paused","offset":0,"slot":"201","type":"t_bool"},{"astId":428,"contract":"contracts/cgateToken.sol:CG8","label":"__gap","offset":0,"slot":"202","type":"t_array(t_uint256)49_storage"},{"astId":444,"contract":"contracts/cgateToken.sol:CG8","label":"_status","offset":0,"slot":"251","type":"t_uint256"},{"astId":513,"contract":"contracts/cgateToken.sol:CG8","label":"__gap","offset":0,"slot":"252","type":"t_array(t_uint256)49_storage"},{"astId":5696,"contract":"contracts/cgateToken.sol:CG8","label":"proposedOwner","offset":0,"slot":"301","type":"t_address"},{"astId":5699,"contract":"contracts/cgateToken.sol:CG8","label":"voters","offset":0,"slot":"302","type":"t_array(t_address)dyn_storage"},{"astId":5703,"contract":"contracts/cgateToken.sol:CG8","label":"hasVoted","offset":0,"slot":"303","type":"t_mapping(t_address,t_bool)"},{"astId":5705,"contract":"contracts/cgateToken.sol:CG8","label":"_owner","offset":0,"slot":"304","type":"t_address"},{"astId":5707,"contract":"contracts/cgateToken.sol:CG8","label":"minTransactionAmount","offset":0,"slot":"305","type":"t_uint256"},{"astId":5709,"contract":"contracts/cgateToken.sol:CG8","label":"maxTransactionAmount","offset":0,"slot":"306","type":"t_uint256"},{"astId":5711,"contract":"contracts/cgateToken.sol:CG8","label":"transferDelay","offset":0,"slot":"307","type":"t_uint256"},{"astId":5713,"contract":"contracts/cgateToken.sol:CG8","label":"lockedLiquidityAmount","offset":0,"slot":"308","type":"t_uint256"},{"astId":5715,"contract":"contracts/cgateToken.sol:CG8","label":"liquidityLocked","offset":0,"slot":"309","type":"t_bool"},{"astId":5717,"contract":"contracts/cgateToken.sol:CG8","label":"isDeflationary","offset":1,"slot":"309","type":"t_bool"},{"astId":5721,"contract":"contracts/cgateToken.sol:CG8","label":"isExcludedFromTax","offset":0,"slot":"310","type":"t_mapping(t_address,t_bool)"},{"astId":5723,"contract":"contracts/cgateToken.sol:CG8","label":"burnableTax","offset":0,"slot":"311","type":"t_uint256"},{"astId":5725,"contract":"contracts/cgateToken.sol:CG8","label":"graduallyDecreasingTax","offset":0,"slot":"312","type":"t_uint256"},{"astId":5727,"contract":"contracts/cgateToken.sol:CG8","label":"buySellTaxRate","offset":0,"slot":"313","type":"t_uint256"},{"astId":5729,"contract":"contracts/cgateToken.sol:CG8","label":"decreasingTaxInterval","offset":0,"slot":"314","type":"t_uint256"},{"astId":5731,"contract":"contracts/cgateToken.sol:CG8","label":"lastUpdatedTaxTimestamp","offset":0,"slot":"315","type":"t_uint256"},{"astId":5733,"contract":"contracts/cgateToken.sol:CG8","label":"isBuySellTaxEnabled","offset":0,"slot":"316","type":"t_bool"},{"astId":5735,"contract":"contracts/cgateToken.sol:CG8","label":"usdt","offset":1,"slot":"316","type":"t_address"},{"astId":5752,"contract":"contracts/cgateToken.sol:CG8","label":"isBlacklisted","offset":0,"slot":"317","type":"t_mapping(t_address,t_bool)"},{"astId":5756,"contract":"contracts/cgateToken.sol:CG8","label":"_transferAllowedAt","offset":0,"slot":"318","type":"t_mapping(t_address,t_uint256)"},{"astId":5760,"contract":"contracts/cgateToken.sol:CG8","label":"_frozenWallets","offset":0,"slot":"319","type":"t_mapping(t_address,t_uint256)"},{"astId":5764,"contract":"contracts/cgateToken.sol:CG8","label":"_whitelistedWallets","offset":0,"slot":"320","type":"t_mapping(t_address,t_bool)"},{"astId":5768,"contract":"contracts/cgateToken.sol:CG8","label":"signers","offset":0,"slot":"321","type":"t_mapping(t_address,t_bool)"},{"astId":5773,"contract":"contracts/cgateToken.sol:CG8","label":"vestingInfo","offset":0,"slot":"322","type":"t_mapping(t_address,t_struct(Vesting)5748_storage)"},{"astId":5775,"contract":"contracts/cgateToken.sol:CG8","label":"router","offset":0,"slot":"323","type":"t_address"},{"astId":5777,"contract":"contracts/cgateToken.sol:CG8","label":"maxSupply","offset":0,"slot":"324","type":"t_uint256"},{"astId":5781,"contract":"contracts/cgateToken.sol:CG8","label":"holders","offset":0,"slot":"325","type":"t_mapping(t_address,t_bool)"},{"astId":5783,"contract":"contracts/cgateToken.sol:CG8","label":"holdersCount","offset":0,"slot":"326","type":"t_uint256"}],"types":{"t_address":{"encoding":"inplace","label":"address","numberOfBytes":"20"},"t_array(t_address)dyn_storage":{"base":"t_address","encoding":"dynamic_array","label":"address[]","numberOfBytes":"32"},"t_array(t_uint256)45_storage":{"base":"t_uint256","encoding":"inplace","label":"uint256[45]","numberOfBytes":"1440"},"t_array(t_uint256)49_storage":{"base":"t_uint256","encoding":"inplace","label":"uint256[49]","numberOfBytes":"1568"},"t_array(t_uint256)50_storage":{"base":"t_uint256","encoding":"inplace","label":"uint256[50]","numberOfBytes":"1600"},"t_bool":{"encoding":"inplace","label":"bool","numberOfBytes":"1"},"t_mapping(t_address,t_bool)":{"encoding":"mapping","key":"t_address","label":"mapping(address => bool)","numberOfBytes":"32","value":"t_bool"},"t_mapping(t_address,t_mapping(t_address,t_uint256))":{"encoding":"mapping","key":"t_address","label":"mapping(address => mapping(address => uint256))","numberOfBytes":"32","value":"t_mapping(t_address,t_uint256)"},"t_mapping(t_address,t_struct(Vesting)5748_storage)":{"encoding":"mapping","key":"t_address","label":"mapping(address => struct CG8.Vesting)","numberOfBytes":"32","value":"t_struct(Vesting)5748_storage"},"t_mapping(t_address,t_uint256)":{"encoding":"mapping","key":"t_address","label":"mapping(address => uint256)","numberOfBytes":"32","value":"t_uint256"},"t_string_storage":{"encoding":"bytes","label":"string","numberOfBytes":"32"},"t_struct(Vesting)5748_storage":{"encoding":"inplace","label":"struct CG8.Vesting","members":[{"astId":5737,"contract":"contracts/cgateToken.sol:CG8","label":"amount","offset":0,"slot":"0","type":"t_uint256"},{"astId":5739,"contract":"contracts/cgateToken.sol:CG8","label":"beneficiary","offset":0,"slot":"1","type":"t_address"},{"astId":5741,"contract":"contracts/cgateToken.sol:CG8","label":"percentageOfTokensToBeReleased","offset":0,"slot":"2","type":"t_uint256"},{"astId":5743,"contract":"contracts/cgateToken.sol:CG8","label":"timeInterval","offset":0,"slot":"3","type":"t_uint256"},{"astId":5745,"contract":"contracts/cgateToken.sol:CG8","label":"lastWithdrawTimestamp","offset":0,"slot":"4","type":"t_uint256"},{"astId":5747,"contract":"contracts/cgateToken.sol:CG8","label":"claimedTokens","offset":0,"slot":"5","type":"t_uint256"}],"numberOfBytes":"192"},"t_uint256":{"encoding":"inplace","label":"uint256","numberOfBytes":"32"},"t_uint8":{"encoding":"inplace","label":"uint8","numberOfBytes":"1"}}}}}}