{"contracts/cgateStaking1.sol":{"StakingPoolV4":{"abi":[{"anonymous":false,"inputs":[{"indexed":false,"internalType":"uint8","name":"version","type":"uint8"}],"name":"Initialized","type":"event"},{"anonymous":false,"inputs":[{"indexed":true,"internalType":"address","name":"newOwner","type":"address"}],"name":"OwnershipTransferProposed","type":"event"},{"anonymous":false,"inputs":[{"indexed":true,"internalType":"address","name":"voter","type":"address"},{"indexed":false,"internalType":"bool","name":"approve","type":"bool"}],"name":"VoteCasted","type":"event"},{"inputs":[],"name":"CG8_TOKEN_ADDRESS","outputs":[{"internalType":"address","name":"","type":"address"}],"stateMutability":"view","type":"function"},{"inputs":[],"name":"PANCAKE_FACTORY_ADDRESS","outputs":[{"internalType":"address","name":"","type":"address"}],"stateMutability":"view","type":"function"},{"inputs":[],"name":"PANCAKE_ROUTER_ADDRESS","outputs":[{"internalType":"address","name":"","type":"address"}],"stateMutability":"view","type":"function"},{"inputs":[],"name":"USDC_TOKEN_ADDRESS","outputs":[{"internalType":"address","name":"","type":"address"}],"stateMutability":"view","type":"function"},{"inputs":[],"name":"admin","outputs":[{"internalType":"address","name":"","type":"address"}],"stateMutability":"view","type":"function"},{"inputs":[],"name":"cancelOwnershipTransfer","outputs":[],"stateMutability":"nonpayable","type":"function"},{"inputs":[{"internalType":"bool","name":"approve","type":"bool"}],"name":"castVote","outputs":[],"stateMutability":"nonpayable","type":"function"},{"inputs":[{"internalType":"uint256","name":"poolId","type":"uint256"},{"internalType":"uint256","name":"stakeId","type":"uint256"}],"name":"claimIndividualReward","outputs":[{"internalType":"uint256","name":"","type":"uint256"}],"stateMutability":"nonpayable","type":"function"},{"inputs":[{"internalType":"uint256","name":"poolId","type":"uint256"}],"name":"claimReward","outputs":[],"stateMutability":"nonpayable","type":"function"},{"inputs":[{"internalType":"uint256","name":"_timePeriod","type":"uint256"},{"internalType":"address","name":"_stakeToken","type":"address"},{"internalType":"address","name":"_rewardToken","type":"address"},{"internalType":"uint256","name":"_rewardPercent","type":"uint256"},{"internalType":"uint256","name":"_referralRewardPercent","type":"uint256"}],"name":"createStakingPool","outputs":[],"stateMutability":"nonpayable","type":"function"},{"inputs":[],"name":"finalizeOwnershipTransfer","outputs":[],"stateMutability":"nonpayable","type":"function"},{"inputs":[],"name":"getCurrentCgatePrice","outputs":[{"internalType":"uint256","name":"","type":"uint256"}],"stateMutability":"view","type":"function"},{"inputs":[{"internalType":"address","name":"tokenA","type":"address"},{"internalType":"address","name":"tokenB","type":"address"}],"name":"getPair","outputs":[{"internalType":"address","name":"","type":"address"}],"stateMutability":"view","type":"function"},{"inputs":[{"internalType":"uint256","name":"poolId","type":"uint256"},{"internalType":"uint256","name":"stakeId","type":"uint256"},{"internalType":"address","name":"user","type":"address"}],"name":"getPendingReward","outputs":[{"internalType":"uint256","name":"","type":"uint256"}],"stateMutability":"view","type":"function"},{"inputs":[],"name":"getPrice","outputs":[{"internalType":"uint256","name":"","type":"uint256"}],"stateMutability":"view","type":"function"},{"inputs":[],"name":"getPriceInverse","outputs":[{"internalType":"uint256","name":"","type":"uint256"}],"stateMutability":"view","type":"function"},{"inputs":[{"internalType":"address","name":"pair","type":"address"}],"name":"getReserves","outputs":[{"internalType":"uint112","name":"reserve0","type":"uint112"},{"internalType":"uint112","name":"reserve1","type":"uint112"}],"stateMutability":"view","type":"function"},{"inputs":[{"internalType":"uint256","name":"poolId","type":"uint256"},{"internalType":"address","name":"user","type":"address"}],"name":"getTotalPendingRewardsForPool","outputs":[{"internalType":"uint256","name":"","type":"uint256"}],"stateMutability":"view","type":"function"},{"inputs":[],"name":"getTotalPoolsCount","outputs":[{"internalType":"uint256","name":"","type":"uint256"}],"stateMutability":"view","type":"function"},{"inputs":[{"internalType":"address","name":"","type":"address"}],"name":"hasVoted","outputs":[{"internalType":"bool","name":"","type":"bool"}],"stateMutability":"view","type":"function"},{"inputs":[{"internalType":"address[]","name":"_initialVoters","type":"address[]"}],"name":"initialize","outputs":[],"stateMutability":"nonpayable","type":"function"},{"inputs":[],"name":"poolAddress","outputs":[{"internalType":"address","name":"","type":"address"}],"stateMutability":"view","type":"function"},{"inputs":[{"internalType":"address","name":"","type":"address"},{"internalType":"uint256","name":"","type":"uint256"}],"name":"poolReferrers","outputs":[{"internalType":"address","name":"","type":"address"}],"stateMutability":"view","type":"function"},{"inputs":[{"internalType":"uint256","name":"","type":"uint256"}],"name":"pools","outputs":[{"internalType":"uint256","name":"timePeriod","type":"uint256"},{"internalType":"address","name":"stakeToken","type":"address"},{"internalType":"address","name":"rewardToken","type":"address"},{"internalType":"uint256","name":"rewardPercentPerStakedTokenPerYear","type":"uint256"},{"internalType":"uint256","name":"referralRewardPercent","type":"uint256"},{"internalType":"bool","name":"isActive","type":"bool"},{"internalType":"uint256","name":"totalStakes","type":"uint256"}],"stateMutability":"view","type":"function"},{"inputs":[{"internalType":"address","name":"newOwner","type":"address"}],"name":"proposeOwnershipTransfer","outputs":[],"stateMutability":"nonpayable","type":"function"},{"inputs":[],"name":"proposedOwner","outputs":[{"internalType":"address","name":"","type":"address"}],"stateMutability":"view","type":"function"},{"inputs":[{"internalType":"address","name":"","type":"address"},{"internalType":"uint256","name":"","type":"uint256"},{"internalType":"uint256","name":"","type":"uint256"}],"name":"referrals","outputs":[{"internalType":"address","name":"","type":"address"}],"stateMutability":"view","type":"function"},{"inputs":[{"internalType":"address","name":"","type":"address"},{"internalType":"address","name":"","type":"address"},{"internalType":"uint256","name":"","type":"uint256"}],"name":"referrerRewards","outputs":[{"internalType":"uint256","name":"","type":"uint256"}],"stateMutability":"view","type":"function"},{"inputs":[{"internalType":"address","name":"","type":"address"}],"name":"referrers","outputs":[{"internalType":"address","name":"","type":"address"}],"stateMutability":"view","type":"function"},{"inputs":[{"internalType":"address","name":"newAdmin","type":"address"}],"name":"setAdmin","outputs":[],"stateMutability":"nonpayable","type":"function"},{"inputs":[{"internalType":"address","name":"_cg8Address","type":"address"}],"name":"setCg8Address","outputs":[],"stateMutability":"nonpayable","type":"function"},{"inputs":[{"internalType":"address","name":"_factory","type":"address"}],"name":"setFactory","outputs":[],"stateMutability":"nonpayable","type":"function"},{"inputs":[{"internalType":"address","name":"_poolAddress","type":"address"}],"name":"setPoolAddress","outputs":[],"stateMutability":"nonpayable","type":"function"},{"inputs":[{"internalType":"uint256","name":"poolId","type":"uint256"},{"internalType":"uint256","name":"newPercentInBIPS","type":"uint256"}],"name":"setReferralRewardPercent","outputs":[],"stateMutability":"nonpayable","type":"function"},{"inputs":[{"internalType":"uint256","name":"poolId","type":"uint256"},{"internalType":"uint256","name":"_newRewardPercentInBIPS","type":"uint256"}],"name":"setRewardPercent","outputs":[],"stateMutability":"nonpayable","type":"function"},{"inputs":[{"internalType":"uint256","name":"poolId","type":"uint256"},{"internalType":"address","name":"_newRewardToken","type":"address"}],"name":"setRewardToken","outputs":[],"stateMutability":"nonpayable","type":"function"},{"inputs":[{"internalType":"address","name":"_router","type":"address"}],"name":"setRouter","outputs":[],"stateMutability":"nonpayable","type":"function"},{"inputs":[{"internalType":"address","name":"_referrer","type":"address"},{"internalType":"uint256","name":"_percentInBIPS","type":"uint256"}],"name":"setSpecialReferrerRewardPercent","outputs":[],"stateMutability":"nonpayable","type":"function"},{"inputs":[{"internalType":"uint256","name":"poolId","type":"uint256"},{"internalType":"uint256","name":"_newTimePeriod","type":"uint256"}],"name":"setTimePeriod","outputs":[],"stateMutability":"nonpayable","type":"function"},{"inputs":[{"internalType":"address","name":"_usdcAddress","type":"address"}],"name":"setUSDCAddress","outputs":[],"stateMutability":"nonpayable","type":"function"},{"inputs":[{"internalType":"address","name":"","type":"address"}],"name":"signers","outputs":[{"internalType":"bool","name":"","type":"bool"}],"stateMutability":"view","type":"function"},{"inputs":[{"internalType":"address","name":"","type":"address"}],"name":"specialReferrersPercents","outputs":[{"internalType":"uint256","name":"","type":"uint256"}],"stateMutability":"view","type":"function"},{"inputs":[{"internalType":"uint256","name":"poolId","type":"uint256"},{"internalType":"uint256","name":"_amount","type":"uint256"},{"internalType":"address","name":"referrer","type":"address"}],"name":"stake","outputs":[],"stateMutability":"nonpayable","type":"function"},{"inputs":[{"internalType":"uint256","name":"poolId","type":"uint256"}],"name":"togglePoolStatus","outputs":[],"stateMutability":"nonpayable","type":"function"},{"inputs":[{"internalType":"address","name":"user","type":"address"},{"internalType":"uint256","name":"poolId","type":"uint256"}],"name":"totalStakeCount","outputs":[{"internalType":"uint256","name":"count","type":"uint256"}],"stateMutability":"view","type":"function"},{"inputs":[{"internalType":"address","name":"user","type":"address"},{"internalType":"uint256","name":"poolId","type":"uint256"}],"name":"totalUnstakeAllowed","outputs":[{"internalType":"uint256","name":"totalWithdrawable","type":"uint256"}],"stateMutability":"view","type":"function"},{"inputs":[{"internalType":"uint256","name":"poolId","type":"uint256"}],"name":"unStake","outputs":[],"stateMutability":"nonpayable","type":"function"},{"inputs":[{"internalType":"uint256","name":"poolId","type":"uint256"},{"internalType":"uint256","name":"_stakeId","type":"uint256"}],"name":"unStakeIndividual","outputs":[],"stateMutability":"nonpayable","type":"function"},{"inputs":[{"internalType":"uint256","name":"newPrice","type":"uint256"}],"name":"updateCurrentCgatePrice","outputs":[],"stateMutability":"nonpayable","type":"function"},{"inputs":[{"internalType":"address","name":"","type":"address"},{"internalType":"uint256","name":"","type":"uint256"},{"internalType":"uint256","name":"","type":"uint256"}],"name":"userStakes","outputs":[{"internalType":"uint256","name":"amount","type":"uint256"},{"internalType":"uint256","name":"lastWithdrawTimestamp","type":"uint256"},{"internalType":"uint256","name":"rewardWithdrawnTillNow","type":"uint256"},{"internalType":"uint256","name":"stakeTime","type":"uint256"},{"internalType":"address","name":"referrer","type":"address"},{"internalType":"uint256","name":"depositedValueInDollars","type":"uint256"}],"stateMutability":"view","type":"function"},{"inputs":[{"internalType":"address","name":"","type":"address"}],"name":"users","outputs":[{"internalType":"uint256","name":"totalStaked","type":"uint256"},{"internalType":"uint256","name":"activeStakes","type":"uint256"},{"internalType":"uint256","name":"totalRewardWithdrawnTillNow","type":"uint256"},{"internalType":"uint256","name":"referralIncomeWithdrawnTillNow","type":"uint256"},{"internalType":"uint256","name":"totalReferrers","type":"uint256"}],"stateMutability":"view","type":"function"},{"inputs":[{"internalType":"address","name":"","type":"address"},{"internalType":"uint256","name":"","type":"uint256"}],"name":"usersStakesPerPool","outputs":[{"internalType":"uint256","name":"","type":"uint256"}],"stateMutability":"view","type":"function"},{"inputs":[{"internalType":"uint256","name":"","type":"uint256"}],"name":"voters","outputs":[{"internalType":"address","name":"","type":"address"}],"stateMutability":"view","type":"function"},{"inputs":[{"internalType":"address","name":"receiver","type":"address"},{"internalType":"contract IERC20","name":"_token","type":"address"}],"name":"withdrawDumpToken","outputs":[],"stateMutability":"nonpayable","type":"function"},{"inputs":[{"internalType":"address payable","name":"_receiver","type":"address"}],"name":"withdrawEth","outputs":[],"stateMutability":"nonpayable","type":"function"}],"evm":{"bytecode":{"linkReferences":{},"object":"608060405234801561001057600080fd5b50613f01806100206000396000f3fe608060405234801561001057600080fd5b506004361061036d5760003560e01c806399672158116101d3578063c0d7865511610104578063e6a43905116100a2578063f43434391161007c578063f434343914610915578063f851a4401461091d578063fa8f683e14610930578063fb58d2cf1461096657600080fd5b8063e6a43905146108cf578063e7ee1233146108e2578063e9e15b4f1461090257600080fd5b8063c79bdb46116100de578063c79bdb4614610883578063d153b60c14610896578063da58c7d9146108a9578063dbe4a261146108bc57600080fd5b8063c0d786551461084a578063c114fcfa1461085d578063c57830cd1461087057600080fd5b8063b3d673d811610171578063bdd13d4a1161014b578063bdd13d4a14610809578063bf2ce8081461081c578063bf41c2a41461082f578063c01b35a11461083757600080fd5b8063b3d673d8146107b8578063b401cdca146107cb578063b820a1cd146107f657600080fd5b8063a87430ba116101ad578063a87430ba1461068f578063aaf5bfc3146106f4578063ac4afa3814610707578063ae169a50146107a557600080fd5b806399672158146106565780639dda7fee14610669578063a224cee71461067c57600080fd5b8063509173a1116102ad578063736c0d5b1161024b5780637ade2642116102255780637ade26421461062b5780637b542a2a14610633578063855c5d461461064657806398d5fdca1461064e57600080fd5b8063736c0d5b146105e25780637628a37d146106055780637ace48e71461061857600080fd5b80635d3eea91116102875780635d3eea9114610575578063686e9222146105885780636b38e049146105bc578063704b6c02146105cf57600080fd5b8063509173a11461053c57806357a8773e1461054f5780635bb478081461056257600080fd5b806325e160631161031a57806334144b0f116102f457806334144b0f1461045f5780633e99c1e4146104a85780634a3b68cc146104e25780634ae77bcf1461050b57600080fd5b806325e160631461041857806328ac7c511461042b57806329a166161461043e57600080fd5b806321040fc31161034b57806321040fc3146103ea578063216b31c1146103fd57806323452b9c1461041057600080fd5b8063047ac00e1461037257806309eef43e146103875780631755ff21146103bf575b600080fd5b61038561038036600461393b565b610979565b005b6103aa610395366004613972565b60396020526000908152604090205460ff1681565b60405190151581526020015b60405180910390f35b6045546103d2906001600160a01b031681565b6040516001600160a01b0390911681526020016103b6565b6103856103f8366004613972565b610c34565b61038561040b36600461398f565b610d26565b610385610ddd565b610385610426366004613972565b610eae565b603a546103d2906001600160a01b031681565b61045161044c3660046139a8565b610f9d565b6040519081526020016103b6565b61047261046d3660046139e1565b61115e565b6040805196875260208701959095529385019290925260608401526001600160a01b0316608083015260a082015260c0016103b6565b6104bb6104b6366004613972565b6111c8565b604080516dffffffffffffffffffffffffffff9384168152929091166020830152016103b6565b6103d26104f0366004613972565b6040602081905260009182529020546001600160a01b031681565b610451610519366004613a16565b604760209081526000938452604080852082529284528284209052825290205481565b603d546103d2906001600160a01b031681565b61038561055d366004613972565b61123d565b610385610570366004613972565b6112b1565b61038561058336600461398f565b611325565b6103d2610596366004613a57565b60486020908152600092835260408084209091529082529020546001600160a01b031681565b6104516105ca36600461393b565b611613565b6103856105dd366004613972565b611a06565b6103aa6105f0366004613972565b60446020526000908152604090205460ff1681565b6103856106133660046139a8565b611a7a565b610385610626366004613a91565b611f56565b610451612064565b61038561064136600461398f565b612166565b603454610451565b6104516121bd565b610385610664366004613aae565b612269565b610451610677366004613a57565b6123e3565b61038561068a366004613b57565b612513565b6106cc61069d366004613972565b604260205260009081526040902080546001820154600283015460038401546004909401549293919290919085565b604080519586526020860194909452928401919091526060830152608082015260a0016103b6565b610385610702366004613972565b612740565b61076261071536600461398f565b603e60205260009081526040902080546001820154600283015460038401546004850154600586015460069096015494956001600160a01b039485169593909416939192909160ff169087565b604080519788526001600160a01b039687166020890152949095169386019390935260608501919091526080840152151560a083015260c082015260e0016103b6565b6103856107b336600461398f565b6127b4565b603c546103d2906001600160a01b031681565b6104516107d9366004613a57565b604360209081526000928352604080842090915290825290205481565b61038561080436600461393b565b612be6565b610385610817366004613c09565b612d35565b61038561082a36600461393b565b612eac565b610385612fae565b6103d26108453660046139e1565b613158565b610385610858366004613972565b61319d565b61045161086b366004613c09565b613211565b603b546103d2906001600160a01b031681565b61038561089136600461393b565b61326a565b6037546103d2906001600160a01b031681565b6103d26108b736600461398f565b6133cc565b6103856108ca366004613a57565b6133f6565b6103d26108dd366004613aae565b613464565b6104516108f0366004613972565b60416020526000908152604090205481565b610385610910366004613972565b6134ff565b610451613573565b6033546103d2906001600160a01b031681565b61045161093e366004613a57565b6001600160a01b03919091166000908152603f60209081526040808320938352929052205490565b610385610974366004613c2e565b613646565b8160345481106109bf5760405162461bcd60e51b815260206004820152600c60248201526b125b9d985b1a5908141bdbdb60a21b60448201526064015b60405180910390fd5b6000838152603e6020526040902060050154839060ff16610a175760405162461bcd60e51b8152602060048201526012602482015271506f6f6c204973204e6f742041637469766560701b60448201526064016109b6565b336000908152603f602090815260408083208784529091528120805485908110610a4357610a43613c80565b60009182526020808320888452603e909152604090922060069091029091019150805460038301544291610a7691613cac565b811015610ac55760405162461bcd60e51b815260206004820152601660248201527f54696d6520706572696f64206e6f74207061737365640000000000000000000060448201526064016109b6565b610acf8787611613565b506001838101829055820154835460405163a9059cbb60e01b815233600482015260248101919091526001600160a01b039091169063a9059cbb906044016020604051808303816000875af1158015610b2c573d6000803e3d6000fd5b505050506040513d601f19601f82011682018060405250810190610b509190613ccf565b610b9c5760405162461bcd60e51b815260206004820152601c60248201527f5374616b656420746f6b656e207472616e73666572206661696c65640000000060448201526064016109b6565b82543360009081526042602052604081206001018054909190610bc0908490613cec565b909155505082543360009081526043602090815260408083208b845290915281208054909190610bf1908490613cec565b909155505082546000888152603e602052604081206006018054909190610c19908490613cec565b90915550506000808455600590930192909255505050505050565b6033546001600160a01b03163314610c865760405162461bcd60e51b81526020600482015260216024820152600080516020613eac8339815191526044820152603760f91b60648201526084016109b6565b6001600160a01b038116610cdc5760405162461bcd60e51b815260206004820181905260248201527f4e6577206f776e65722063616e6e6f74206265207a65726f206164647265737360448201526064016109b6565b603780546001600160a01b0319166001600160a01b0383169081179091556040517ff0c6916d81cd1f899264b5193e3bbe7afd2bcc3d05704bab73d0b8ac9387115890600090a250565b6033546001600160a01b03163314610d785760405162461bcd60e51b81526020600482015260216024820152600080516020613eac8339815191526044820152603760f91b60648201526084016109b6565b806034548110610db95760405162461bcd60e51b815260206004820152600c60248201526b125b9d985b1a5908141bdbdb60a21b60448201526064016109b6565b506000908152603e60205260409020600501805460ff19811660ff90911615179055565b6033546001600160a01b03163314610e2f5760405162461bcd60e51b81526020600482015260216024820152600080516020613eac8339815191526044820152603760f91b60648201526084016109b6565b603780546001600160a01b031916905560005b603854811015610eab5760006039600060388481548110610e6557610e65613c80565b6000918252602080832091909101546001600160a01b031683528201929092526040019020805460ff191691151591909117905580610ea381613cff565b915050610e42565b50565b6033546001600160a01b03163314610f005760405162461bcd60e51b81526020600482015260216024820152600080516020613eac8339815191526044820152603760f91b60648201526084016109b6565b610f0861376f565b6001600160a01b038116610f5e5760405162461bcd60e51b815260206004820152600f60248201527f496e76616c69642061646472657373000000000000000000000000000000000060448201526064016109b6565b6040516001600160a01b038216904780156108fc02916000818181858888f19350505050158015610f93573d6000803e3d6000fd5b50610eab60018055565b6000836034548110610fe05760405162461bcd60e51b815260206004820152600c60248201526b125b9d985b1a5908141bdbdb60a21b60448201526064016109b6565b6000858152603e6020526040902060050154859060ff166110385760405162461bcd60e51b8152602060048201526012602482015271506f6f6c204973204e6f742041637469766560701b60448201526064016109b6565b6001600160a01b0384166000908152603f6020908152604080832089845290915290205485106110aa5760405162461bcd60e51b815260206004820152600f60248201527f55736572204e6f74205374616b6564000000000000000000000000000000000060448201526064016109b6565b6001600160a01b0384166000908152603f6020908152604080832089845290915281208054879081106110df576110df613c80565b600091825260208083208a8452603e90915260408320600692909202016001810154909350909142916111129083613cec565b9050600060355461271085600301548488600501546111319190613d18565b61113b9190613d18565b6111459190613d2f565b61114f9190613d2f565b9b9a5050505050505050505050565b603f602052826000526040600020602052816000526040600020818154811061118657600080fd5b60009182526020909120600690910201805460018201546002830154600384015460048501546005909501549397509195509350916001600160a01b03169086565b600080600080846001600160a01b0316630902f1ac6040518163ffffffff1660e01b8152600401606060405180830381865afa15801561120c573d6000803e3d6000fd5b505050506040513d601f19601f820116820180604052508101906112309190613d83565b5090969095509350505050565b6033546001600160a01b0316331461128f5760405162461bcd60e51b81526020600482015260216024820152600080516020613eac8339815191526044820152603760f91b60648201526084016109b6565b603b80546001600160a01b0319166001600160a01b0392909216919091179055565b6033546001600160a01b031633146113035760405162461bcd60e51b81526020600482015260216024820152600080516020613eac8339815191526044820152603760f91b60648201526084016109b6565b603d80546001600160a01b0319166001600160a01b0392909216919091179055565b8060345481106113665760405162461bcd60e51b815260206004820152600c60248201526b125b9d985b1a5908141bdbdb60a21b60448201526064016109b6565b6000828152603e6020526040902060050154829060ff166113be5760405162461bcd60e51b8152602060048201526012602482015271506f6f6c204973204e6f742041637469766560701b60448201526064016109b6565b6000838152603e60205260408120815b336000908152603f602090815260408083208984529091529020548110156114ec57336000908152603f60209081526040808320898452909152812080548390811061141c5761141c613c80565b906000526020600020906006020190506000429050836000015482600301546114459190613cac565b81106114d75781546114579086613cac565b94506114638884611613565b50600080835560018301829055338152603f602090815260408083208b8452909152902080548490811061149957611499613c80565b6000918252602082206006909102018181556001810182905560028101829055600381018290556004810180546001600160a01b0319169055600501555b505080806114e490613cff565b9150506113ce565b50336000908152604260205260408120600101805484929061150f908490613cec565b90915550503360009081526043602090815260408083208884529091528120805484929061153e908490613cec565b9091555050811561160c57600181015460405163a9059cbb60e01b8152336004820152602481018490526001600160a01b039091169063a9059cbb906044016020604051808303816000875af115801561159c573d6000803e3d6000fd5b505050506040513d601f19601f820116820180604052508101906115c09190613ccf565b61160c5760405162461bcd60e51b815260206004820152601c60248201527f5374616b656420746f6b656e207472616e73666572206661696c65640000000060448201526064016109b6565b5050505050565b60008260345481106116565760405162461bcd60e51b815260206004820152600c60248201526b125b9d985b1a5908141bdbdb60a21b60448201526064016109b6565b6000848152603e6020526040902060050154849060ff166116ae5760405162461bcd60e51b8152602060048201526012602482015271506f6f6c204973204e6f742041637469766560701b60448201526064016109b6565b336000908152603f6020908152604080832088845290915281208054869081106116da576116da613c80565b60009182526020808320898452603e90915260408320600690920201805490935090910361170d576000945050506119fe565b42600061171b898933610f9d565b905080156119f957600283015460405163a9059cbb60e01b8152336004820152602481018390526001600160a01b039091169063a9059cbb906044016020604051808303816000875af1158015611776573d6000803e3d6000fd5b505050506040513d601f19601f8201168201806040525081019061179a9190613ccf565b6117e65760405162461bcd60e51b815260206004820152601660248201527f526577617264207472616e73666572206661696c65640000000000000000000060448201526064016109b6565b60048401546001600160a01b0316156119a957600480840154908501546001600160a01b03166000908152604160205260409020541561183f575060048401546001600160a01b03166000908152604160205260409020545b600061271061184e8385613d18565b6118589190613d2f565b9050801561197257600285015460048781015460405163a9059cbb60e01b81526001600160a01b0391821692810192909252602482018490529091169063a9059cbb906044016020604051808303816000875af11580156118bd573d6000803e3d6000fd5b505050506040513d601f19601f820116820180604052508101906118e19190613ccf565b61192d5760405162461bcd60e51b815260206004820152601f60248201527f526566657272616c20526577617264207472616e73666572206661696c65640060448201526064016109b6565b60048601546001600160a01b0316600090815260476020908152604080832033845282528083208e84529091528120805483929061196c908490613cac565b90915550505b60048601546001600160a01b0316600090815260426020526040812060030180548392906119a1908490613cac565b909155505050505b33600090815260426020526040812060020180548392906119cb908490613cac565b92505081905550808460020160008282546119e69190613cac565b90915550506001909301555092506119fe565b505050505b505092915050565b6033546001600160a01b03163314611a585760405162461bcd60e51b81526020600482015260216024820152600080516020613eac8339815191526044820152603760f91b60648201526084016109b6565b603380546001600160a01b0319166001600160a01b0392909216919091179055565b826034548110611abb5760405162461bcd60e51b815260206004820152600c60248201526b125b9d985b1a5908141bdbdb60a21b60448201526064016109b6565b6000848152603e6020526040902060050154849060ff16611b135760405162461bcd60e51b8152602060048201526012602482015271506f6f6c204973204e6f742041637469766560701b60448201526064016109b6565b60008411611b635760405162461bcd60e51b815260206004820152601d60248201527f416d6f756e74206d7573742062652067726561746572207468616e203000000060448201526064016109b6565b6001600160a01b0383163303611bbb5760405162461bcd60e51b815260206004820152601860248201527f596f752063616e277420726566657220796f757273656c66000000000000000060448201526064016109b6565b6000858152603e602052604090819020600181015491517f23b872dd0000000000000000000000000000000000000000000000000000000081523360048201523060248201526044810187905290916001600160a01b0316906323b872dd906064016020604051808303816000875af1158015611c3c573d6000803e3d6000fd5b505050506040513d601f19601f82011682018060405250810190611c609190613ccf565b611cac5760405162461bcd60e51b815260206004820152601560248201527f546f6b656e207472616e73666572206661696c6564000000000000000000000060448201526064016109b6565b336000908152603f602090815260408083208984528252808320815160c081018352898152429381018490529182019390935260608101919091526001600160a01b038616608082015260a08101670de0b6b3a7640000611d0b613573565b611d15908a613d18565b611d1f9190613d2f565b90528154600180820184556000938452602080852084516006948502909101908155848201519281019290925560408085015160028401556060850151600384015560808501516004840180546001600160a01b0319166001600160a01b0390921691909117905560a090940151600590920191909155898452603e9052908220018054879290611db1908490613cac565b90915550506040805160a081018252336000908152604260205291909120548190611ddd908890613cac565b815233600090815260426020908152604090912060010154910190611e03908890613cac565b815233600081815260426020818152604080842060028101805484890152600382018054848a015260048301805460609a8b015297909652938352875181559187015160019092019190915585015190559183015190915560809091015190556001600160a01b03841615611f1f573360009081526048602090815260408083208984529091529020546001600160a01b0316611f1f573360008181526048602090815260408083208a8452825280832080546001600160a01b038a166001600160a01b03199182168117909255818552604684528285208c8652845282852080546001818101835591875285872001805490921690961790558352604290915281206004018054909190611f19908490613cac565b90915550505b33600090815260436020908152604080832089845290915281208054879290611f49908490613cac565b9091555050505050505050565b611f5f336137ce565b611fab5760405162461bcd60e51b815260206004820152601160248201527f4e6f7420612076616c696420766f74657200000000000000000000000000000060448201526064016109b6565b3360009081526039602052604090205460ff161561200b5760405162461bcd60e51b815260206004820152600d60248201527f416c726561647920766f7465640000000000000000000000000000000000000060448201526064016109b6565b3360008181526039602052604090819020805460ff19166001179055517fa4861c5510bfa99706ed508d728f9c6b365ff27af1a3012e21980952ad2d844f9061205990841515815260200190565b60405180910390a250565b603b54603c546000918291612085916001600160a01b039081169116613464565b90506001600160a01b03811661209d57600091505090565b6000806120a9836111c8565b603a546040517f85f8c259000000000000000000000000000000000000000000000000000000008152670de0b6b3a764000060048201526dffffffffffffffffffffffffffff8084166024830152841660448201529294509092506000916001600160a01b03909116906385f8c25990606401602060405180830381865afa158015612139573d6000803e3d6000fd5b505050506040513d601f19601f8201168201806040525081019061215d9190613dc6565b95945050505050565b6033546001600160a01b031633146121b85760405162461bcd60e51b81526020600482015260216024820152600080516020613eac8339815191526044820152603760f91b60648201526084016109b6565b603655565b60455460408051633850c7bd60e01b815290516000926001600160a01b03169183918391633850c7bd9160048083019260e09291908290030181865afa15801561220b573d6000803e3d6000fd5b505050506040513d601f19601f8201168201806040525081019061222f9190613df1565b5190506001600160a01b0381166000600160c01b61224d8380613d18565b61225f90670de0b6b3a7640000613d18565b61215d9190613d2f565b6033546001600160a01b031633146122bb5760405162461bcd60e51b81526020600482015260216024820152600080516020613eac8339815191526044820152603760f91b60648201526084016109b6565b6122c361376f565b6040517f70a082310000000000000000000000000000000000000000000000000000000081523060048201526001600160a01b0382169063a9059cbb90849083906370a0823190602401602060405180830381865afa15801561232a573d6000803e3d6000fd5b505050506040513d601f19601f8201168201806040525081019061234e9190613dc6565b6040517fffffffff0000000000000000000000000000000000000000000000000000000060e085901b1681526001600160a01b03909216600483015260248201526044016020604051808303816000875af11580156123b1573d6000803e3d6000fd5b505050506040513d601f19601f820116820180604052508101906123d59190613ccf565b506123df60018055565b5050565b6001600160a01b038216600090815260436020908152604080832084845290915281205481901561250a5760005b6001600160a01b0385166000908152603f60209081526040808320878452909152902054811015612508576000848152603e60209081526040808320546001600160a01b0389168452603f83528184208885529092529091208054429291908490811061248057612480613c80565b90600052602060002090600602016003015461249c9190613cac565b116124f6576001600160a01b0385166000908152603f6020908152604080832087845290915290208054829081106124d6576124d6613c80565b906000526020600020906006020160000154826124f39190613cac565b91505b8061250081613cff565b915050612411565b505b90505b92915050565b600054610100900460ff16158080156125335750600054600160ff909116105b8061254d5750303b15801561254d575060005460ff166001145b6125bf5760405162461bcd60e51b815260206004820152602e60248201527f496e697469616c697a61626c653a20636f6e747261637420697320616c72656160448201527f647920696e697469616c697a656400000000000000000000000000000000000060648201526084016109b6565b6000805460ff1916600117905580156125e2576000805461ff0019166101001790555b6125ea613837565b603380546001600160a01b031990811633179091556301e1338060355564e8d4a51000603655603a80548216739ac64cc6e4415144c455bd8e4837fea55603e5c3179055603b80548216739f7b09eb38ed912ab5932dccad0b1f501abfe6fd179055603c8054821673d1fac5ff5d03b70d3383909692d09fc6d97c8219179055603d805490911673b7926c0430afb07aa7defde6da862ae0bde767bc17905560005b82518110156126f65760388382815181106126a9576126a9613c80565b60209081029190910181015182546001810184556000938452919092200180546001600160a01b0319166001600160a01b03909216919091179055806126ee81613cff565b91505061268c565b5080156123df576000805461ff0019169055604051600181527f7f26b83ff96e1f2b6a682f133852f6798a09c465da95921460cefb38474024989060200160405180910390a15050565b6033546001600160a01b031633146127925760405162461bcd60e51b81526020600482015260216024820152600080516020613eac8339815191526044820152603760f91b60648201526084016109b6565b603c80546001600160a01b0319166001600160a01b0392909216919091179055565b8060345481106127f55760405162461bcd60e51b815260206004820152600c60248201526b125b9d985b1a5908141bdbdb60a21b60448201526064016109b6565b6127fd61376f565b6000828152603e6020526040902060050154829060ff166128555760405162461bcd60e51b8152602060048201526012602482015271506f6f6c204973204e6f742041637469766560701b60448201526064016109b6565b6000838152603e6020526040812090805b336000908152603f60209081526040808320898452909152902054811015612b1057336000908152603f6020908152604080832089845290915281208054839081106128b4576128b4613c80565b90600052602060002090600602019050600081600001541115612afd574260006128df898533610f9d565b60048401549091506001600160a01b031615612aa557600480870154908401546001600160a01b03166000908152604160205260409020541561293b575060048301546001600160a01b03166000908152604160205260409020545b600061271061294a8385613d18565b6129549190613d2f565b90508015612aa257600288015460048681015460405163a9059cbb60e01b81526001600160a01b0391821692810192909252602482018490529091169063a9059cbb906044016020604051808303816000875af11580156129b9573d6000803e3d6000fd5b505050506040513d601f19601f820116820180604052508101906129dd9190613ccf565b612a295760405162461bcd60e51b815260206004820152601f60248201527f526566657272616c20526577617264207472616e73666572206661696c65640060448201526064016109b6565b60048501546001600160a01b0316600090815260476020908152604080832033845282528083208e845290915281208054839290612a68908490613cac565b909155505060048501546001600160a01b031660009081526042602052604081206003018054839290612a9c908490613cac565b90915550505b50505b3360009081526042602052604081206002018054839290612ac7908490613cac565b9250508190555080836002016000828254612ae29190613cac565b909155505060018301829055612af88186613cac565b945050505b5080612b0881613cff565b915050612866565b508015612bda57600282015460405163a9059cbb60e01b8152336004820152602481018390526001600160a01b039091169063a9059cbb906044016020604051808303816000875af1158015612b6a573d6000803e3d6000fd5b505050506040513d601f19601f82011682018060405250810190612b8e9190613ccf565b612bda5760405162461bcd60e51b815260206004820152601660248201527f526577617264207472616e73666572206661696c65640000000000000000000060448201526064016109b6565b5050506123df60018055565b6033546001600160a01b03163314612c385760405162461bcd60e51b81526020600482015260216024820152600080516020613eac8339815191526044820152603760f91b60648201526084016109b6565b816034548110612c795760405162461bcd60e51b815260206004820152600c60248201526b125b9d985b1a5908141bdbdb60a21b60448201526064016109b6565b6000838152603e6020526040902060050154839060ff16612cd15760405162461bcd60e51b8152602060048201526012602482015271506f6f6c204973204e6f742041637469766560701b60448201526064016109b6565b600084118015612ce357506034548411155b612d215760405162461bcd60e51b815260206004820152600f60248201526e125b9d985b1a59081c1bdbdb081251608a1b60448201526064016109b6565b50506000918252603e602052604090912055565b6033546001600160a01b03163314612d875760405162461bcd60e51b81526020600482015260216024820152600080516020613eac8339815191526044820152603760f91b60648201526084016109b6565b612d8f61376f565b816034548110612dd05760405162461bcd60e51b815260206004820152600c60248201526b125b9d985b1a5908141bdbdb60a21b60448201526064016109b6565b6000838152603e6020526040902060050154839060ff16612e285760405162461bcd60e51b8152602060048201526012602482015271506f6f6c204973204e6f742041637469766560701b60448201526064016109b6565b600084118015612e3a57506034548411155b612e785760405162461bcd60e51b815260206004820152600f60248201526e125b9d985b1a59081c1bdbdb081251608a1b60448201526064016109b6565b50506000828152603e6020526040902060020180546001600160a01b0319166001600160a01b038316179055600180555050565b6033546001600160a01b03163314612efe5760405162461bcd60e51b81526020600482015260216024820152600080516020613eac8339815191526044820152603760f91b60648201526084016109b6565b816034548110612f3f5760405162461bcd60e51b815260206004820152600c60248201526b125b9d985b1a5908141bdbdb60a21b60448201526064016109b6565b6000838152603e6020526040902060050154839060ff16612f975760405162461bcd60e51b8152602060048201526012602482015271506f6f6c204973204e6f742041637469766560701b60448201526064016109b6565b50506000918252603e602052604090912060040155565b6033546001600160a01b031633146130005760405162461bcd60e51b81526020600482015260216024820152600080516020613eac8339815191526044820152603760f91b60648201526084016109b6565b603854600090815b8181101561307457603960006038838154811061302757613027613c80565b60009182526020808320909101546001600160a01b0316835282019290925260400190205460ff1615613062578261305e81613cff565b9350505b8061306c81613cff565b915050613008565b50818114806130c55760405162461bcd60e51b815260206004820152601660248201527f496e73756666696369656e7420617070726f76616c730000000000000000000060448201526064016109b6565b60378054603380546001600160a01b0383166001600160a01b0319918216811790925590911690915560005b8381101561160c576000603960006038848154811061311257613112613c80565b6000918252602080832091909101546001600160a01b031683528201929092526040019020805460ff19169115159190911790558061315081613cff565b9150506130f1565b6046602052826000526040600020602052816000526040600020818154811061318057600080fd5b6000918252602090912001546001600160a01b0316925083915050565b6033546001600160a01b031633146131ef5760405162461bcd60e51b81526020600482015260216024820152600080516020613eac8339815191526044820152603760f91b60648201526084016109b6565b603a80546001600160a01b0319166001600160a01b0392909216919091179055565b600080805b6001600160a01b0384166000908152603f602090815260408083208884529091529020548110156125085761324c858286610f9d565b6132569083613cac565b91508061326281613cff565b915050613216565b6033546001600160a01b031633146132bc5760405162461bcd60e51b81526020600482015260216024820152600080516020613eac8339815191526044820152603760f91b60648201526084016109b6565b6132c461376f565b8160345481106133055760405162461bcd60e51b815260206004820152600c60248201526b125b9d985b1a5908141bdbdb60a21b60448201526064016109b6565b6000838152603e6020526040902060050154839060ff1661335d5760405162461bcd60e51b8152602060048201526012602482015271506f6f6c204973204e6f742041637469766560701b60448201526064016109b6565b60008411801561336f57506034548411155b6133ad5760405162461bcd60e51b815260206004820152600f60248201526e125b9d985b1a59081c1bdbdb081251608a1b60448201526064016109b6565b50506000828152603e602052604090206003018190556123df60018055565b603881815481106133dc57600080fd5b6000918252602090912001546001600160a01b0316905081565b6033546001600160a01b031633146134485760405162461bcd60e51b81526020600482015260216024820152600080516020613eac8339815191526044820152603760f91b60648201526084016109b6565b6001600160a01b03909116600090815260416020526040902055565b603d546040517fe6a439050000000000000000000000000000000000000000000000000000000081526001600160a01b0384811660048301528381166024830152600092839291169063e6a4390590604401602060405180830381865afa1580156134d3573d6000803e3d6000fd5b505050506040513d601f19601f820116820180604052508101906134f79190613e8e565b949350505050565b6033546001600160a01b031633146135515760405162461bcd60e51b81526020600482015260216024820152600080516020613eac8339815191526044820152603760f91b60648201526084016109b6565b604580546001600160a01b0319166001600160a01b0392909216919091179055565b60455460408051633850c7bd60e01b815290516000926001600160a01b03169183918391633850c7bd9160048083019260e09291908290030181865afa1580156135c1573d6000803e3d6000fd5b505050506040513d601f19601f820116820180604052508101906135e59190613df1565b5190506001600160a01b0381166000600160c01b6136038380613d18565b61361590670de0b6b3a7640000613d18565b61361f9190613d2f565b9050600061363c826ec097ce7bc90715b34b9f1000000000613d2f565b9695505050505050565b6033546001600160a01b031633146136985760405162461bcd60e51b81526020600482015260216024820152600080516020613eac8339815191526044820152603760f91b60648201526084016109b6565b6136a061376f565b6040805160e0810182528681526001600160a01b0380871660208084019182528783168486019081526060850188815260808601888152600160a08801818152600060c08a01818152603480548352603e9098529a812099518a55965191890180549289166001600160a01b031993841617905593516002890180549190981691161790955551600386015592516004850155915160058401805491151560ff19909216919091179055925160069092019190915580549161376183613cff565b919050555061160c60018055565b6002600154036137c15760405162461bcd60e51b815260206004820152601f60248201527f5265656e7472616e637947756172643a207265656e7472616e742063616c6c0060448201526064016109b6565b6002600155565b60018055565b6000805b60385481101561382e57826001600160a01b0316603882815481106137f9576137f9613c80565b6000918252602090912001546001600160a01b03160361381c5750600192915050565b8061382681613cff565b9150506137d2565b50600092915050565b600054610100900460ff166138b45760405162461bcd60e51b815260206004820152602b60248201527f496e697469616c697a61626c653a20636f6e7472616374206973206e6f74206960448201527f6e697469616c697a696e6700000000000000000000000000000000000000000060648201526084016109b6565b6138bc6138be565b565b600054610100900460ff166137c85760405162461bcd60e51b815260206004820152602b60248201527f496e697469616c697a61626c653a20636f6e7472616374206973206e6f74206960448201527f6e697469616c697a696e6700000000000000000000000000000000000000000060648201526084016109b6565b6000806040838503121561394e57600080fd5b50508035926020909101359150565b6001600160a01b0381168114610eab57600080fd5b60006020828403121561398457600080fd5b813561250a8161395d565b6000602082840312156139a157600080fd5b5035919050565b6000806000606084860312156139bd57600080fd5b833592506020840135915060408401356139d68161395d565b809150509250925092565b6000806000606084860312156139f657600080fd5b8335613a018161395d565b95602085013595506040909401359392505050565b600080600060608486031215613a2b57600080fd5b8335613a368161395d565b92506020840135613a468161395d565b929592945050506040919091013590565b60008060408385031215613a6a57600080fd5b8235613a758161395d565b946020939093013593505050565b8015158114610eab57600080fd5b600060208284031215613aa357600080fd5b813561250a81613a83565b60008060408385031215613ac157600080fd5b8235613acc8161395d565b91506020830135613adc8161395d565b809150509250929050565b634e487b7160e01b600052604160045260246000fd5b60405160e0810167ffffffffffffffff81118282101715613b2057613b20613ae7565b60405290565b604051601f8201601f1916810167ffffffffffffffff81118282101715613b4f57613b4f613ae7565b604052919050565b60006020808385031215613b6a57600080fd5b823567ffffffffffffffff80821115613b8257600080fd5b818501915085601f830112613b9657600080fd5b813581811115613ba857613ba8613ae7565b8060051b9150613bb9848301613b26565b8181529183018401918481019088841115613bd357600080fd5b938501935b83851015613bfd5784359250613bed8361395d565b8282529385019390850190613bd8565b98975050505050505050565b60008060408385031215613c1c57600080fd5b823591506020830135613adc8161395d565b600080600080600060a08688031215613c4657600080fd5b853594506020860135613c588161395d565b93506040860135613c688161395d565b94979396509394606081013594506080013592915050565b634e487b7160e01b600052603260045260246000fd5b634e487b7160e01b600052601160045260246000fd5b8082018082111561250d5761250d613c96565b8051613cca81613a83565b919050565b600060208284031215613ce157600080fd5b815161250a81613a83565b8181038181111561250d5761250d613c96565b600060018201613d1157613d11613c96565b5060010190565b808202811582820484141761250d5761250d613c96565b600082613d4c57634e487b7160e01b600052601260045260246000fd5b500490565b80516dffffffffffffffffffffffffffff81168114613cca57600080fd5b805163ffffffff81168114613cca57600080fd5b600080600060608486031215613d9857600080fd5b613da184613d51565b9250613daf60208501613d51565b9150613dbd60408501613d6f565b90509250925092565b600060208284031215613dd857600080fd5b5051919050565b805161ffff81168114613cca57600080fd5b600060e08284031215613e0357600080fd5b613e0b613afd565b8251613e168161395d565b81526020830151600281900b8114613e2d57600080fd5b6020820152613e3e60408401613ddf565b6040820152613e4f60608401613ddf565b6060820152613e6060808401613ddf565b6080820152613e7160a08401613d6f565b60a0820152613e8260c08401613cbf565b60c08201529392505050565b600060208284031215613ea057600080fd5b815161250a8161395d56fe4f6e6c792061646d696e2063616e2063616c6c20746869732066756e6374696fa26469706673582212207b88d118812278bd2e84a2f5d5525b912cc88f6ba349102fa3d512c362a9989e64736f6c63430008130033","opcodes":"PUSH1 0x80 PUSH1 0x40 MSTORE CALLVALUE DUP1 ISZERO PUSH2 0x10 JUMPI PUSH1 0x0 DUP1 REVERT JUMPDEST POP PUSH2 0x3F01 DUP1 PUSH2 0x20 PUSH1 0x0 CODECOPY PUSH1 0x0 RETURN INVALID PUSH1 0x80 PUSH1 0x40 MSTORE CALLVALUE DUP1 ISZERO PUSH2 0x10 JUMPI PUSH1 0x0 DUP1 REVERT JUMPDEST POP PUSH1 0x4 CALLDATASIZE LT PUSH2 0x36D JUMPI PUSH1 0x0 CALLDATALOAD PUSH1 0xE0 SHR DUP1 PUSH4 0x99672158 GT PUSH2 0x1D3 JUMPI DUP1 PUSH4 0xC0D78655 GT PUSH2 0x104 JUMPI DUP1 PUSH4 0xE6A43905 GT PUSH2 0xA2 JUMPI DUP1 PUSH4 0xF4343439 GT PUSH2 0x7C JUMPI DUP1 PUSH4 0xF4343439 EQ PUSH2 0x915 JUMPI DUP1 PUSH4 0xF851A440 EQ PUSH2 0x91D JUMPI DUP1 PUSH4 0xFA8F683E EQ PUSH2 0x930 JUMPI DUP1 PUSH4 0xFB58D2CF EQ PUSH2 0x966 JUMPI PUSH1 0x0 DUP1 REVERT JUMPDEST DUP1 PUSH4 0xE6A43905 EQ PUSH2 0x8CF JUMPI DUP1 PUSH4 0xE7EE1233 EQ PUSH2 0x8E2 JUMPI DUP1 PUSH4 0xE9E15B4F EQ PUSH2 0x902 JUMPI PUSH1 0x0 DUP1 REVERT JUMPDEST DUP1 PUSH4 0xC79BDB46 GT PUSH2 0xDE JUMPI DUP1 PUSH4 0xC79BDB46 EQ PUSH2 0x883 JUMPI DUP1 PUSH4 0xD153B60C EQ PUSH2 0x896 JUMPI DUP1 PUSH4 0xDA58C7D9 EQ PUSH2 0x8A9 JUMPI DUP1 PUSH4 0xDBE4A261 EQ PUSH2 0x8BC JUMPI PUSH1 0x0 DUP1 REVERT JUMPDEST DUP1 PUSH4 0xC0D78655 EQ PUSH2 0x84A JUMPI DUP1 PUSH4 0xC114FCFA EQ PUSH2 0x85D JUMPI DUP1 PUSH4 0xC57830CD EQ PUSH2 0x870 JUMPI PUSH1 0x0 DUP1 REVERT JUMPDEST DUP1 PUSH4 0xB3D673D8 GT PUSH2 0x171 JUMPI DUP1 PUSH4 0xBDD13D4A GT PUSH2 0x14B JUMPI DUP1 PUSH4 0xBDD13D4A EQ PUSH2 0x809 JUMPI DUP1 PUSH4 0xBF2CE808 EQ PUSH2 0x81C JUMPI DUP1 PUSH4 0xBF41C2A4 EQ PUSH2 0x82F JUMPI DUP1 PUSH4 0xC01B35A1 EQ PUSH2 0x837 JUMPI PUSH1 0x0 DUP1 REVERT JUMPDEST DUP1 PUSH4 0xB3D673D8 EQ PUSH2 0x7B8 JUMPI DUP1 PUSH4 0xB401CDCA EQ PUSH2 0x7CB JUMPI DUP1 PUSH4 0xB820A1CD EQ PUSH2 0x7F6 JUMPI PUSH1 0x0 DUP1 REVERT JUMPDEST DUP1 PUSH4 0xA87430BA GT PUSH2 0x1AD JUMPI DUP1 PUSH4 0xA87430BA EQ PUSH2 0x68F JUMPI DUP1 PUSH4 0xAAF5BFC3 EQ PUSH2 0x6F4 JUMPI DUP1 PUSH4 0xAC4AFA38 EQ PUSH2 0x707 JUMPI DUP1 PUSH4 0xAE169A50 EQ PUSH2 0x7A5 JUMPI PUSH1 0x0 DUP1 REVERT JUMPDEST DUP1 PUSH4 0x99672158 EQ PUSH2 0x656 JUMPI DUP1 PUSH4 0x9DDA7FEE EQ PUSH2 0x669 JUMPI DUP1 PUSH4 0xA224CEE7 EQ PUSH2 0x67C JUMPI PUSH1 0x0 DUP1 REVERT JUMPDEST DUP1 PUSH4 0x509173A1 GT PUSH2 0x2AD JUMPI DUP1 PUSH4 0x736C0D5B GT PUSH2 0x24B JUMPI DUP1 PUSH4 0x7ADE2642 GT PUSH2 0x225 JUMPI DUP1 PUSH4 0x7ADE2642 EQ PUSH2 0x62B JUMPI DUP1 PUSH4 0x7B542A2A EQ PUSH2 0x633 JUMPI DUP1 PUSH4 0x855C5D46 EQ PUSH2 0x646 JUMPI DUP1 PUSH4 0x98D5FDCA EQ PUSH2 0x64E JUMPI PUSH1 0x0 DUP1 REVERT JUMPDEST DUP1 PUSH4 0x736C0D5B EQ PUSH2 0x5E2 JUMPI DUP1 PUSH4 0x7628A37D EQ PUSH2 0x605 JUMPI DUP1 PUSH4 0x7ACE48E7 EQ PUSH2 0x618 JUMPI PUSH1 0x0 DUP1 REVERT JUMPDEST DUP1 PUSH4 0x5D3EEA91 GT PUSH2 0x287 JUMPI DUP1 PUSH4 0x5D3EEA91 EQ PUSH2 0x575 JUMPI DUP1 PUSH4 0x686E9222 EQ PUSH2 0x588 JUMPI DUP1 PUSH4 0x6B38E049 EQ PUSH2 0x5BC JUMPI DUP1 PUSH4 0x704B6C02 EQ PUSH2 0x5CF JUMPI PUSH1 0x0 DUP1 REVERT JUMPDEST DUP1 PUSH4 0x509173A1 EQ PUSH2 0x53C JUMPI DUP1 PUSH4 0x57A8773E EQ PUSH2 0x54F JUMPI DUP1 PUSH4 0x5BB47808 EQ PUSH2 0x562 JUMPI PUSH1 0x0 DUP1 REVERT JUMPDEST DUP1 PUSH4 0x25E16063 GT PUSH2 0x31A JUMPI DUP1 PUSH4 0x34144B0F GT PUSH2 0x2F4 JUMPI DUP1 PUSH4 0x34144B0F EQ PUSH2 0x45F JUMPI DUP1 PUSH4 0x3E99C1E4 EQ PUSH2 0x4A8 JUMPI DUP1 PUSH4 0x4A3B68CC EQ PUSH2 0x4E2 JUMPI DUP1 PUSH4 0x4AE77BCF EQ PUSH2 0x50B JUMPI PUSH1 0x0 DUP1 REVERT JUMPDEST DUP1 PUSH4 0x25E16063 EQ PUSH2 0x418 JUMPI DUP1 PUSH4 0x28AC7C51 EQ PUSH2 0x42B JUMPI DUP1 PUSH4 0x29A16616 EQ PUSH2 0x43E JUMPI PUSH1 0x0 DUP1 REVERT JUMPDEST DUP1 PUSH4 0x21040FC3 GT PUSH2 0x34B JUMPI DUP1 PUSH4 0x21040FC3 EQ PUSH2 0x3EA JUMPI DUP1 PUSH4 0x216B31C1 EQ PUSH2 0x3FD JUMPI DUP1 PUSH4 0x23452B9C EQ PUSH2 0x410 JUMPI PUSH1 0x0 DUP1 REVERT JUMPDEST DUP1 PUSH4 0x47AC00E EQ PUSH2 0x372 JUMPI DUP1 PUSH4 0x9EEF43E EQ PUSH2 0x387 JUMPI DUP1 PUSH4 0x1755FF21 EQ PUSH2 0x3BF JUMPI JUMPDEST PUSH1 0x0 DUP1 REVERT JUMPDEST PUSH2 0x385 PUSH2 0x380 CALLDATASIZE PUSH1 0x4 PUSH2 0x393B JUMP JUMPDEST PUSH2 0x979 JUMP JUMPDEST STOP JUMPDEST PUSH2 0x3AA PUSH2 0x395 CALLDATASIZE PUSH1 0x4 PUSH2 0x3972 JUMP JUMPDEST PUSH1 0x39 PUSH1 0x20 MSTORE PUSH1 0x0 SWAP1 DUP2 MSTORE PUSH1 0x40 SWAP1 KECCAK256 SLOAD PUSH1 0xFF AND DUP2 JUMP JUMPDEST PUSH1 0x40 MLOAD SWAP1 ISZERO ISZERO DUP2 MSTORE PUSH1 0x20 ADD JUMPDEST PUSH1 0x40 MLOAD DUP1 SWAP2 SUB SWAP1 RETURN JUMPDEST PUSH1 0x45 SLOAD PUSH2 0x3D2 SWAP1 PUSH1 0x1 PUSH1 0x1 PUSH1 0xA0 SHL SUB AND DUP2 JUMP JUMPDEST PUSH1 0x40 MLOAD PUSH1 0x1 PUSH1 0x1 PUSH1 0xA0 SHL SUB SWAP1 SWAP2 AND DUP2 MSTORE PUSH1 0x20 ADD PUSH2 0x3B6 JUMP JUMPDEST PUSH2 0x385 PUSH2 0x3F8 CALLDATASIZE PUSH1 0x4 PUSH2 0x3972 JUMP JUMPDEST PUSH2 0xC34 JUMP JUMPDEST PUSH2 0x385 PUSH2 0x40B CALLDATASIZE PUSH1 0x4 PUSH2 0x398F JUMP JUMPDEST PUSH2 0xD26 JUMP JUMPDEST PUSH2 0x385 PUSH2 0xDDD JUMP JUMPDEST PUSH2 0x385 PUSH2 0x426 CALLDATASIZE PUSH1 0x4 PUSH2 0x3972 JUMP JUMPDEST PUSH2 0xEAE JUMP JUMPDEST PUSH1 0x3A SLOAD PUSH2 0x3D2 SWAP1 PUSH1 0x1 PUSH1 0x1 PUSH1 0xA0 SHL SUB AND DUP2 JUMP JUMPDEST PUSH2 0x451 PUSH2 0x44C CALLDATASIZE PUSH1 0x4 PUSH2 0x39A8 JUMP JUMPDEST PUSH2 0xF9D JUMP JUMPDEST PUSH1 0x40 MLOAD SWAP1 DUP2 MSTORE PUSH1 0x20 ADD PUSH2 0x3B6 JUMP JUMPDEST PUSH2 0x472 PUSH2 0x46D CALLDATASIZE PUSH1 0x4 PUSH2 0x39E1 JUMP JUMPDEST PUSH2 0x115E JUMP JUMPDEST PUSH1 0x40 DUP1 MLOAD SWAP7 DUP8 MSTORE PUSH1 0x20 DUP8 ADD SWAP6 SWAP1 SWAP6 MSTORE SWAP4 DUP6 ADD SWAP3 SWAP1 SWAP3 MSTORE PUSH1 0x60 DUP5 ADD MSTORE PUSH1 0x1 PUSH1 0x1 PUSH1 0xA0 SHL SUB AND PUSH1 0x80 DUP4 ADD MSTORE PUSH1 0xA0 DUP3 ADD MSTORE PUSH1 0xC0 ADD PUSH2 0x3B6 JUMP JUMPDEST PUSH2 0x4BB PUSH2 0x4B6 CALLDATASIZE PUSH1 0x4 PUSH2 0x3972 JUMP JUMPDEST PUSH2 0x11C8 JUMP JUMPDEST PUSH1 0x40 DUP1 MLOAD PUSH14 0xFFFFFFFFFFFFFFFFFFFFFFFFFFFF SWAP4 DUP5 AND DUP2 MSTORE SWAP3 SWAP1 SWAP2 AND PUSH1 0x20 DUP4 ADD MSTORE ADD PUSH2 0x3B6 JUMP JUMPDEST PUSH2 0x3D2 PUSH2 0x4F0 CALLDATASIZE PUSH1 0x4 PUSH2 0x3972 JUMP JUMPDEST PUSH1 0x40 PUSH1 0x20 DUP2 SWAP1 MSTORE PUSH1 0x0 SWAP2 DUP3 MSTORE SWAP1 KECCAK256 SLOAD PUSH1 0x1 PUSH1 0x1 PUSH1 0xA0 SHL SUB AND DUP2 JUMP JUMPDEST PUSH2 0x451 PUSH2 0x519 CALLDATASIZE PUSH1 0x4 PUSH2 0x3A16 JUMP JUMPDEST PUSH1 0x47 PUSH1 0x20 SWAP1 DUP2 MSTORE PUSH1 0x0 SWAP4 DUP5 MSTORE PUSH1 0x40 DUP1 DUP6 KECCAK256 DUP3 MSTORE SWAP3 DUP5 MSTORE DUP3 DUP5 KECCAK256 SWAP1 MSTORE DUP3 MSTORE SWAP1 KECCAK256 SLOAD DUP2 JUMP JUMPDEST PUSH1 0x3D SLOAD PUSH2 0x3D2 SWAP1 PUSH1 0x1 PUSH1 0x1 PUSH1 0xA0 SHL SUB AND DUP2 JUMP JUMPDEST PUSH2 0x385 PUSH2 0x55D CALLDATASIZE PUSH1 0x4 PUSH2 0x3972 JUMP JUMPDEST PUSH2 0x123D JUMP JUMPDEST PUSH2 0x385 PUSH2 0x570 CALLDATASIZE PUSH1 0x4 PUSH2 0x3972 JUMP JUMPDEST PUSH2 0x12B1 JUMP JUMPDEST PUSH2 0x385 PUSH2 0x583 CALLDATASIZE PUSH1 0x4 PUSH2 0x398F JUMP JUMPDEST PUSH2 0x1325 JUMP JUMPDEST PUSH2 0x3D2 PUSH2 0x596 CALLDATASIZE PUSH1 0x4 PUSH2 0x3A57 JUMP JUMPDEST PUSH1 0x48 PUSH1 0x20 SWAP1 DUP2 MSTORE PUSH1 0x0 SWAP3 DUP4 MSTORE PUSH1 0x40 DUP1 DUP5 KECCAK256 SWAP1 SWAP2 MSTORE SWAP1 DUP3 MSTORE SWAP1 KECCAK256 SLOAD PUSH1 0x1 PUSH1 0x1 PUSH1 0xA0 SHL SUB AND DUP2 JUMP JUMPDEST PUSH2 0x451 PUSH2 0x5CA CALLDATASIZE PUSH1 0x4 PUSH2 0x393B JUMP JUMPDEST PUSH2 0x1613 JUMP JUMPDEST PUSH2 0x385 PUSH2 0x5DD CALLDATASIZE PUSH1 0x4 PUSH2 0x3972 JUMP JUMPDEST PUSH2 0x1A06 JUMP JUMPDEST PUSH2 0x3AA PUSH2 0x5F0 CALLDATASIZE PUSH1 0x4 PUSH2 0x3972 JUMP JUMPDEST PUSH1 0x44 PUSH1 0x20 MSTORE PUSH1 0x0 SWAP1 DUP2 MSTORE PUSH1 0x40 SWAP1 KECCAK256 SLOAD PUSH1 0xFF AND DUP2 JUMP JUMPDEST PUSH2 0x385 PUSH2 0x613 CALLDATASIZE PUSH1 0x4 PUSH2 0x39A8 JUMP JUMPDEST PUSH2 0x1A7A JUMP JUMPDEST PUSH2 0x385 PUSH2 0x626 CALLDATASIZE PUSH1 0x4 PUSH2 0x3A91 JUMP JUMPDEST PUSH2 0x1F56 JUMP JUMPDEST PUSH2 0x451 PUSH2 0x2064 JUMP JUMPDEST PUSH2 0x385 PUSH2 0x641 CALLDATASIZE PUSH1 0x4 PUSH2 0x398F JUMP JUMPDEST PUSH2 0x2166 JUMP JUMPDEST PUSH1 0x34 SLOAD PUSH2 0x451 JUMP JUMPDEST PUSH2 0x451 PUSH2 0x21BD JUMP JUMPDEST PUSH2 0x385 PUSH2 0x664 CALLDATASIZE PUSH1 0x4 PUSH2 0x3AAE JUMP JUMPDEST PUSH2 0x2269 JUMP JUMPDEST PUSH2 0x451 PUSH2 0x677 CALLDATASIZE PUSH1 0x4 PUSH2 0x3A57 JUMP JUMPDEST PUSH2 0x23E3 JUMP JUMPDEST PUSH2 0x385 PUSH2 0x68A CALLDATASIZE PUSH1 0x4 PUSH2 0x3B57 JUMP JUMPDEST PUSH2 0x2513 JUMP JUMPDEST PUSH2 0x6CC PUSH2 0x69D CALLDATASIZE PUSH1 0x4 PUSH2 0x3972 JUMP JUMPDEST PUSH1 0x42 PUSH1 0x20 MSTORE PUSH1 0x0 SWAP1 DUP2 MSTORE PUSH1 0x40 SWAP1 KECCAK256 DUP1 SLOAD PUSH1 0x1 DUP3 ADD SLOAD PUSH1 0x2 DUP4 ADD SLOAD PUSH1 0x3 DUP5 ADD SLOAD PUSH1 0x4 SWAP1 SWAP5 ADD SLOAD SWAP3 SWAP4 SWAP2 SWAP3 SWAP1 SWAP2 SWAP1 DUP6 JUMP JUMPDEST PUSH1 0x40 DUP1 MLOAD SWAP6 DUP7 MSTORE PUSH1 0x20 DUP7 ADD SWAP5 SWAP1 SWAP5 MSTORE SWAP3 DUP5 ADD SWAP2 SWAP1 SWAP2 MSTORE PUSH1 0x60 DUP4 ADD MSTORE PUSH1 0x80 DUP3 ADD MSTORE PUSH1 0xA0 ADD PUSH2 0x3B6 JUMP JUMPDEST PUSH2 0x385 PUSH2 0x702 CALLDATASIZE PUSH1 0x4 PUSH2 0x3972 JUMP JUMPDEST PUSH2 0x2740 JUMP JUMPDEST PUSH2 0x762 PUSH2 0x715 CALLDATASIZE PUSH1 0x4 PUSH2 0x398F JUMP JUMPDEST PUSH1 0x3E PUSH1 0x20 MSTORE PUSH1 0x0 SWAP1 DUP2 MSTORE PUSH1 0x40 SWAP1 KECCAK256 DUP1 SLOAD PUSH1 0x1 DUP3 ADD SLOAD PUSH1 0x2 DUP4 ADD SLOAD PUSH1 0x3 DUP5 ADD SLOAD PUSH1 0x4 DUP6 ADD SLOAD PUSH1 0x5 DUP7 ADD SLOAD PUSH1 0x6 SWAP1 SWAP7 ADD SLOAD SWAP5 SWAP6 PUSH1 0x1 PUSH1 0x1 PUSH1 0xA0 SHL SUB SWAP5 DUP6 AND SWAP6 SWAP4 SWAP1 SWAP5 AND SWAP4 SWAP2 SWAP3 SWAP1 SWAP2 PUSH1 0xFF AND SWAP1 DUP8 JUMP JUMPDEST PUSH1 0x40 DUP1 MLOAD SWAP8 DUP9 MSTORE PUSH1 0x1 PUSH1 0x1 PUSH1 0xA0 SHL SUB SWAP7 DUP8 AND PUSH1 0x20 DUP10 ADD MSTORE SWAP5 SWAP1 SWAP6 AND SWAP4 DUP7 ADD SWAP4 SWAP1 SWAP4 MSTORE PUSH1 0x60 DUP6 ADD SWAP2 SWAP1 SWAP2 MSTORE PUSH1 0x80 DUP5 ADD MSTORE ISZERO ISZERO PUSH1 0xA0 DUP4 ADD MSTORE PUSH1 0xC0 DUP3 ADD MSTORE PUSH1 0xE0 ADD PUSH2 0x3B6 JUMP JUMPDEST PUSH2 0x385 PUSH2 0x7B3 CALLDATASIZE PUSH1 0x4 PUSH2 0x398F JUMP JUMPDEST PUSH2 0x27B4 JUMP JUMPDEST PUSH1 0x3C SLOAD PUSH2 0x3D2 SWAP1 PUSH1 0x1 PUSH1 0x1 PUSH1 0xA0 SHL SUB AND DUP2 JUMP JUMPDEST PUSH2 0x451 PUSH2 0x7D9 CALLDATASIZE PUSH1 0x4 PUSH2 0x3A57 JUMP JUMPDEST PUSH1 0x43 PUSH1 0x20 SWAP1 DUP2 MSTORE PUSH1 0x0 SWAP3 DUP4 MSTORE PUSH1 0x40 DUP1 DUP5 KECCAK256 SWAP1 SWAP2 MSTORE SWAP1 DUP3 MSTORE SWAP1 KECCAK256 SLOAD DUP2 JUMP JUMPDEST PUSH2 0x385 PUSH2 0x804 CALLDATASIZE PUSH1 0x4 PUSH2 0x393B JUMP JUMPDEST PUSH2 0x2BE6 JUMP JUMPDEST PUSH2 0x385 PUSH2 0x817 CALLDATASIZE PUSH1 0x4 PUSH2 0x3C09 JUMP JUMPDEST PUSH2 0x2D35 JUMP JUMPDEST PUSH2 0x385 PUSH2 0x82A CALLDATASIZE PUSH1 0x4 PUSH2 0x393B JUMP JUMPDEST PUSH2 0x2EAC JUMP JUMPDEST PUSH2 0x385 PUSH2 0x2FAE JUMP JUMPDEST PUSH2 0x3D2 PUSH2 0x845 CALLDATASIZE PUSH1 0x4 PUSH2 0x39E1 JUMP JUMPDEST PUSH2 0x3158 JUMP JUMPDEST PUSH2 0x385 PUSH2 0x858 CALLDATASIZE PUSH1 0x4 PUSH2 0x3972 JUMP JUMPDEST PUSH2 0x319D JUMP JUMPDEST PUSH2 0x451 PUSH2 0x86B CALLDATASIZE PUSH1 0x4 PUSH2 0x3C09 JUMP JUMPDEST PUSH2 0x3211 JUMP JUMPDEST PUSH1 0x3B SLOAD PUSH2 0x3D2 SWAP1 PUSH1 0x1 PUSH1 0x1 PUSH1 0xA0 SHL SUB AND DUP2 JUMP JUMPDEST PUSH2 0x385 PUSH2 0x891 CALLDATASIZE PUSH1 0x4 PUSH2 0x393B JUMP JUMPDEST PUSH2 0x326A JUMP JUMPDEST PUSH1 0x37 SLOAD PUSH2 0x3D2 SWAP1 PUSH1 0x1 PUSH1 0x1 PUSH1 0xA0 SHL SUB AND DUP2 JUMP JUMPDEST PUSH2 0x3D2 PUSH2 0x8B7 CALLDATASIZE PUSH1 0x4 PUSH2 0x398F JUMP JUMPDEST PUSH2 0x33CC JUMP JUMPDEST PUSH2 0x385 PUSH2 0x8CA CALLDATASIZE PUSH1 0x4 PUSH2 0x3A57 JUMP JUMPDEST PUSH2 0x33F6 JUMP JUMPDEST PUSH2 0x3D2 PUSH2 0x8DD CALLDATASIZE PUSH1 0x4 PUSH2 0x3AAE JUMP JUMPDEST PUSH2 0x3464 JUMP JUMPDEST PUSH2 0x451 PUSH2 0x8F0 CALLDATASIZE PUSH1 0x4 PUSH2 0x3972 JUMP JUMPDEST PUSH1 0x41 PUSH1 0x20 MSTORE PUSH1 0x0 SWAP1 DUP2 MSTORE PUSH1 0x40 SWAP1 KECCAK256 SLOAD DUP2 JUMP JUMPDEST PUSH2 0x385 PUSH2 0x910 CALLDATASIZE PUSH1 0x4 PUSH2 0x3972 JUMP JUMPDEST PUSH2 0x34FF JUMP JUMPDEST PUSH2 0x451 PUSH2 0x3573 JUMP JUMPDEST PUSH1 0x33 SLOAD PUSH2 0x3D2 SWAP1 PUSH1 0x1 PUSH1 0x1 PUSH1 0xA0 SHL SUB AND DUP2 JUMP JUMPDEST PUSH2 0x451 PUSH2 0x93E CALLDATASIZE PUSH1 0x4 PUSH2 0x3A57 JUMP JUMPDEST PUSH1 0x1 PUSH1 0x1 PUSH1 0xA0 SHL SUB SWAP2 SWAP1 SWAP2 AND PUSH1 0x0 SWAP1 DUP2 MSTORE PUSH1 0x3F PUSH1 0x20 SWAP1 DUP2 MSTORE PUSH1 0x40 DUP1 DUP4 KECCAK256 SWAP4 DUP4 MSTORE SWAP3 SWAP1 MSTORE KECCAK256 SLOAD SWAP1 JUMP JUMPDEST PUSH2 0x385 PUSH2 0x974 CALLDATASIZE PUSH1 0x4 PUSH2 0x3C2E JUMP JUMPDEST PUSH2 0x3646 JUMP JUMPDEST DUP2 PUSH1 0x34 SLOAD DUP2 LT PUSH2 0x9BF JUMPI PUSH1 0x40 MLOAD PUSH3 0x461BCD PUSH1 0xE5 SHL DUP2 MSTORE PUSH1 0x20 PUSH1 0x4 DUP3 ADD MSTORE PUSH1 0xC PUSH1 0x24 DUP3 ADD MSTORE PUSH12 0x125B9D985B1A5908141BDBDB PUSH1 0xA2 SHL PUSH1 0x44 DUP3 ADD MSTORE PUSH1 0x64 ADD JUMPDEST PUSH1 0x40 MLOAD DUP1 SWAP2 SUB SWAP1 REVERT JUMPDEST PUSH1 0x0 DUP4 DUP2 MSTORE PUSH1 0x3E PUSH1 0x20 MSTORE PUSH1 0x40 SWAP1 KECCAK256 PUSH1 0x5 ADD SLOAD DUP4 SWAP1 PUSH1 0xFF AND PUSH2 0xA17 JUMPI PUSH1 0x40 MLOAD PUSH3 0x461BCD PUSH1 0xE5 SHL DUP2 MSTORE PUSH1 0x20 PUSH1 0x4 DUP3 ADD MSTORE PUSH1 0x12 PUSH1 0x24 DUP3 ADD MSTORE PUSH18 0x506F6F6C204973204E6F7420416374697665 PUSH1 0x70 SHL PUSH1 0x44 DUP3 ADD MSTORE PUSH1 0x64 ADD PUSH2 0x9B6 JUMP JUMPDEST CALLER PUSH1 0x0 SWAP1 DUP2 MSTORE PUSH1 0x3F PUSH1 0x20 SWAP1 DUP2 MSTORE PUSH1 0x40 DUP1 DUP4 KECCAK256 DUP8 DUP5 MSTORE SWAP1 SWAP2 MSTORE DUP2 KECCAK256 DUP1 SLOAD DUP6 SWAP1 DUP2 LT PUSH2 0xA43 JUMPI PUSH2 0xA43 PUSH2 0x3C80 JUMP JUMPDEST PUSH1 0x0 SWAP2 DUP3 MSTORE PUSH1 0x20 DUP1 DUP4 KECCAK256 DUP9 DUP5 MSTORE PUSH1 0x3E SWAP1 SWAP2 MSTORE PUSH1 0x40 SWAP1 SWAP3 KECCAK256 PUSH1 0x6 SWAP1 SWAP2 MUL SWAP1 SWAP2 ADD SWAP2 POP DUP1 SLOAD PUSH1 0x3 DUP4 ADD SLOAD TIMESTAMP SWAP2 PUSH2 0xA76 SWAP2 PUSH2 0x3CAC JUMP JUMPDEST DUP2 LT ISZERO PUSH2 0xAC5 JUMPI PUSH1 0x40 MLOAD PUSH3 0x461BCD PUSH1 0xE5 SHL DUP2 MSTORE PUSH1 0x20 PUSH1 0x4 DUP3 ADD MSTORE PUSH1 0x16 PUSH1 0x24 DUP3 ADD MSTORE PUSH32 0x54696D6520706572696F64206E6F742070617373656400000000000000000000 PUSH1 0x44 DUP3 ADD MSTORE PUSH1 0x64 ADD PUSH2 0x9B6 JUMP JUMPDEST PUSH2 0xACF DUP8 DUP8 PUSH2 0x1613 JUMP JUMPDEST POP PUSH1 0x1 DUP4 DUP2 ADD DUP3 SWAP1 SSTORE DUP3 ADD SLOAD DUP4 SLOAD PUSH1 0x40 MLOAD PUSH4 0xA9059CBB PUSH1 0xE0 SHL DUP2 MSTORE CALLER PUSH1 0x4 DUP3 ADD MSTORE PUSH1 0x24 DUP2 ADD SWAP2 SWAP1 SWAP2 MSTORE PUSH1 0x1 PUSH1 0x1 PUSH1 0xA0 SHL SUB SWAP1 SWAP2 AND SWAP1 PUSH4 0xA9059CBB SWAP1 PUSH1 0x44 ADD PUSH1 0x20 PUSH1 0x40 MLOAD DUP1 DUP4 SUB DUP2 PUSH1 0x0 DUP8 GAS CALL ISZERO DUP1 ISZERO PUSH2 0xB2C JUMPI RETURNDATASIZE PUSH1 0x0 DUP1 RETURNDATACOPY RETURNDATASIZE PUSH1 0x0 REVERT JUMPDEST POP POP POP POP PUSH1 0x40 MLOAD RETURNDATASIZE PUSH1 0x1F NOT PUSH1 0x1F DUP3 ADD AND DUP3 ADD DUP1 PUSH1 0x40 MSTORE POP DUP2 ADD SWAP1 PUSH2 0xB50 SWAP2 SWAP1 PUSH2 0x3CCF JUMP JUMPDEST PUSH2 0xB9C JUMPI PUSH1 0x40 MLOAD PUSH3 0x461BCD PUSH1 0xE5 SHL DUP2 MSTORE PUSH1 0x20 PUSH1 0x4 DUP3 ADD MSTORE PUSH1 0x1C PUSH1 0x24 DUP3 ADD MSTORE PUSH32 0x5374616B656420746F6B656E207472616E73666572206661696C656400000000 PUSH1 0x44 DUP3 ADD MSTORE PUSH1 0x64 ADD PUSH2 0x9B6 JUMP JUMPDEST DUP3 SLOAD CALLER PUSH1 0x0 SWAP1 DUP2 MSTORE PUSH1 0x42 PUSH1 0x20 MSTORE PUSH1 0x40 DUP2 KECCAK256 PUSH1 0x1 ADD DUP1 SLOAD SWAP1 SWAP2 SWAP1 PUSH2 0xBC0 SWAP1 DUP5 SWAP1 PUSH2 0x3CEC JUMP JUMPDEST SWAP1 SWAP2 SSTORE POP POP DUP3 SLOAD CALLER PUSH1 0x0 SWAP1 DUP2 MSTORE PUSH1 0x43 PUSH1 0x20 SWAP1 DUP2 MSTORE PUSH1 0x40 DUP1 DUP4 KECCAK256 DUP12 DUP5 MSTORE SWAP1 SWAP2 MSTORE DUP2 KECCAK256 DUP1 SLOAD SWAP1 SWAP2 SWAP1 PUSH2 0xBF1 SWAP1 DUP5 SWAP1 PUSH2 0x3CEC JUMP JUMPDEST SWAP1 SWAP2 SSTORE POP POP DUP3 SLOAD PUSH1 0x0 DUP9 DUP2 MSTORE PUSH1 0x3E PUSH1 0x20 MSTORE PUSH1 0x40 DUP2 KECCAK256 PUSH1 0x6 ADD DUP1 SLOAD SWAP1 SWAP2 SWAP1 PUSH2 0xC19 SWAP1 DUP5 SWAP1 PUSH2 0x3CEC JUMP JUMPDEST SWAP1 SWAP2 SSTORE POP POP PUSH1 0x0 DUP1 DUP5 SSTORE PUSH1 0x5 SWAP1 SWAP4 ADD SWAP3 SWAP1 SWAP3 SSTORE POP POP POP POP POP POP JUMP JUMPDEST PUSH1 0x33 SLOAD PUSH1 0x1 PUSH1 0x1 PUSH1 0xA0 SHL SUB AND CALLER EQ PUSH2 0xC86 JUMPI PUSH1 0x40 MLOAD PUSH3 0x461BCD PUSH1 0xE5 SHL DUP2 MSTORE PUSH1 0x20 PUSH1 0x4 DUP3 ADD MSTORE PUSH1 0x21 PUSH1 0x24 DUP3 ADD MSTORE PUSH1 0x0 DUP1 MLOAD PUSH1 0x20 PUSH2 0x3EAC DUP4 CODECOPY DUP2 MLOAD SWAP2 MSTORE PUSH1 0x44 DUP3 ADD MSTORE PUSH1 0x37 PUSH1 0xF9 SHL PUSH1 0x64 DUP3 ADD MSTORE PUSH1 0x84 ADD PUSH2 0x9B6 JUMP JUMPDEST PUSH1 0x1 PUSH1 0x1 PUSH1 0xA0 SHL SUB DUP2 AND PUSH2 0xCDC JUMPI PUSH1 0x40 MLOAD PUSH3 0x461BCD PUSH1 0xE5 SHL DUP2 MSTORE PUSH1 0x20 PUSH1 0x4 DUP3 ADD DUP2 SWAP1 MSTORE PUSH1 0x24 DUP3 ADD MSTORE PUSH32 0x4E6577206F776E65722063616E6E6F74206265207A65726F2061646472657373 PUSH1 0x44 DUP3 ADD MSTORE PUSH1 0x64 ADD PUSH2 0x9B6 JUMP JUMPDEST PUSH1 0x37 DUP1 SLOAD PUSH1 0x1 PUSH1 0x1 PUSH1 0xA0 SHL SUB NOT AND PUSH1 0x1 PUSH1 0x1 PUSH1 0xA0 SHL SUB DUP4 AND SWAP1 DUP2 OR SWAP1 SWAP2 SSTORE PUSH1 0x40 MLOAD PUSH32 0xF0C6916D81CD1F899264B5193E3BBE7AFD2BCC3D05704BAB73D0B8AC93871158 SWAP1 PUSH1 0x0 SWAP1 LOG2 POP JUMP JUMPDEST PUSH1 0x33 SLOAD PUSH1 0x1 PUSH1 0x1 PUSH1 0xA0 SHL SUB AND CALLER EQ PUSH2 0xD78 JUMPI PUSH1 0x40 MLOAD PUSH3 0x461BCD PUSH1 0xE5 SHL DUP2 MSTORE PUSH1 0x20 PUSH1 0x4 DUP3 ADD MSTORE PUSH1 0x21 PUSH1 0x24 DUP3 ADD MSTORE PUSH1 0x0 DUP1 MLOAD PUSH1 0x20 PUSH2 0x3EAC DUP4 CODECOPY DUP2 MLOAD SWAP2 MSTORE PUSH1 0x44 DUP3 ADD MSTORE PUSH1 0x37 PUSH1 0xF9 SHL PUSH1 0x64 DUP3 ADD MSTORE PUSH1 0x84 ADD PUSH2 0x9B6 JUMP JUMPDEST DUP1 PUSH1 0x34 SLOAD DUP2 LT PUSH2 0xDB9 JUMPI PUSH1 0x40 MLOAD PUSH3 0x461BCD PUSH1 0xE5 SHL DUP2 MSTORE PUSH1 0x20 PUSH1 0x4 DUP3 ADD MSTORE PUSH1 0xC PUSH1 0x24 DUP3 ADD MSTORE PUSH12 0x125B9D985B1A5908141BDBDB PUSH1 0xA2 SHL PUSH1 0x44 DUP3 ADD MSTORE PUSH1 0x64 ADD PUSH2 0x9B6 JUMP JUMPDEST POP PUSH1 0x0 SWAP1 DUP2 MSTORE PUSH1 0x3E PUSH1 0x20 MSTORE PUSH1 0x40 SWAP1 KECCAK256 PUSH1 0x5 ADD DUP1 SLOAD PUSH1 0xFF NOT DUP2 AND PUSH1 0xFF SWAP1 SWAP2 AND ISZERO OR SWAP1 SSTORE JUMP JUMPDEST PUSH1 0x33 SLOAD PUSH1 0x1 PUSH1 0x1 PUSH1 0xA0 SHL SUB AND CALLER EQ PUSH2 0xE2F JUMPI PUSH1 0x40 MLOAD PUSH3 0x461BCD PUSH1 0xE5 SHL DUP2 MSTORE PUSH1 0x20 PUSH1 0x4 DUP3 ADD MSTORE PUSH1 0x21 PUSH1 0x24 DUP3 ADD MSTORE PUSH1 0x0 DUP1 MLOAD PUSH1 0x20 PUSH2 0x3EAC DUP4 CODECOPY DUP2 MLOAD SWAP2 MSTORE PUSH1 0x44 DUP3 ADD MSTORE PUSH1 0x37 PUSH1 0xF9 SHL PUSH1 0x64 DUP3 ADD MSTORE PUSH1 0x84 ADD PUSH2 0x9B6 JUMP JUMPDEST PUSH1 0x37 DUP1 SLOAD PUSH1 0x1 PUSH1 0x1 PUSH1 0xA0 SHL SUB NOT AND SWAP1 SSTORE PUSH1 0x0 JUMPDEST PUSH1 0x38 SLOAD DUP2 LT ISZERO PUSH2 0xEAB JUMPI PUSH1 0x0 PUSH1 0x39 PUSH1 0x0 PUSH1 0x38 DUP5 DUP2 SLOAD DUP2 LT PUSH2 0xE65 JUMPI PUSH2 0xE65 PUSH2 0x3C80 JUMP JUMPDEST PUSH1 0x0 SWAP2 DUP3 MSTORE PUSH1 0x20 DUP1 DUP4 KECCAK256 SWAP2 SWAP1 SWAP2 ADD SLOAD PUSH1 0x1 PUSH1 0x1 PUSH1 0xA0 SHL SUB AND DUP4 MSTORE DUP3 ADD SWAP3 SWAP1 SWAP3 MSTORE PUSH1 0x40 ADD SWAP1 KECCAK256 DUP1 SLOAD PUSH1 0xFF NOT AND SWAP2 ISZERO ISZERO SWAP2 SWAP1 SWAP2 OR SWAP1 SSTORE DUP1 PUSH2 0xEA3 DUP2 PUSH2 0x3CFF JUMP JUMPDEST SWAP2 POP POP PUSH2 0xE42 JUMP JUMPDEST POP JUMP JUMPDEST PUSH1 0x33 SLOAD PUSH1 0x1 PUSH1 0x1 PUSH1 0xA0 SHL SUB AND CALLER EQ PUSH2 0xF00 JUMPI PUSH1 0x40 MLOAD PUSH3 0x461BCD PUSH1 0xE5 SHL DUP2 MSTORE PUSH1 0x20 PUSH1 0x4 DUP3 ADD MSTORE PUSH1 0x21 PUSH1 0x24 DUP3 ADD MSTORE PUSH1 0x0 DUP1 MLOAD PUSH1 0x20 PUSH2 0x3EAC DUP4 CODECOPY DUP2 MLOAD SWAP2 MSTORE PUSH1 0x44 DUP3 ADD MSTORE PUSH1 0x37 PUSH1 0xF9 SHL PUSH1 0x64 DUP3 ADD MSTORE PUSH1 0x84 ADD PUSH2 0x9B6 JUMP JUMPDEST PUSH2 0xF08 PUSH2 0x376F JUMP JUMPDEST PUSH1 0x1 PUSH1 0x1 PUSH1 0xA0 SHL SUB DUP2 AND PUSH2 0xF5E JUMPI PUSH1 0x40 MLOAD PUSH3 0x461BCD PUSH1 0xE5 SHL DUP2 MSTORE PUSH1 0x20 PUSH1 0x4 DUP3 ADD MSTORE PUSH1 0xF PUSH1 0x24 DUP3 ADD MSTORE PUSH32 0x496E76616C696420616464726573730000000000000000000000000000000000 PUSH1 0x44 DUP3 ADD MSTORE PUSH1 0x64 ADD PUSH2 0x9B6 JUMP JUMPDEST PUSH1 0x40 MLOAD PUSH1 0x1 PUSH1 0x1 PUSH1 0xA0 SHL SUB DUP3 AND SWAP1 SELFBALANCE DUP1 ISZERO PUSH2 0x8FC MUL SWAP2 PUSH1 0x0 DUP2 DUP2 DUP2 DUP6 DUP9 DUP9 CALL SWAP4 POP POP POP POP ISZERO DUP1 ISZERO PUSH2 0xF93 JUMPI RETURNDATASIZE PUSH1 0x0 DUP1 RETURNDATACOPY RETURNDATASIZE PUSH1 0x0 REVERT JUMPDEST POP PUSH2 0xEAB PUSH1 0x1 DUP1 SSTORE JUMP JUMPDEST PUSH1 0x0 DUP4 PUSH1 0x34 SLOAD DUP2 LT PUSH2 0xFE0 JUMPI PUSH1 0x40 MLOAD PUSH3 0x461BCD PUSH1 0xE5 SHL DUP2 MSTORE PUSH1 0x20 PUSH1 0x4 DUP3 ADD MSTORE PUSH1 0xC PUSH1 0x24 DUP3 ADD MSTORE PUSH12 0x125B9D985B1A5908141BDBDB PUSH1 0xA2 SHL PUSH1 0x44 DUP3 ADD MSTORE PUSH1 0x64 ADD PUSH2 0x9B6 JUMP JUMPDEST PUSH1 0x0 DUP6 DUP2 MSTORE PUSH1 0x3E PUSH1 0x20 MSTORE PUSH1 0x40 SWAP1 KECCAK256 PUSH1 0x5 ADD SLOAD DUP6 SWAP1 PUSH1 0xFF AND PUSH2 0x1038 JUMPI PUSH1 0x40 MLOAD PUSH3 0x461BCD PUSH1 0xE5 SHL DUP2 MSTORE PUSH1 0x20 PUSH1 0x4 DUP3 ADD MSTORE PUSH1 0x12 PUSH1 0x24 DUP3 ADD MSTORE PUSH18 0x506F6F6C204973204E6F7420416374697665 PUSH1 0x70 SHL PUSH1 0x44 DUP3 ADD MSTORE PUSH1 0x64 ADD PUSH2 0x9B6 JUMP JUMPDEST PUSH1 0x1 PUSH1 0x1 PUSH1 0xA0 SHL SUB DUP5 AND PUSH1 0x0 SWAP1 DUP2 MSTORE PUSH1 0x3F PUSH1 0x20 SWAP1 DUP2 MSTORE PUSH1 0x40 DUP1 DUP4 KECCAK256 DUP10 DUP5 MSTORE SWAP1 SWAP2 MSTORE SWAP1 KECCAK256 SLOAD DUP6 LT PUSH2 0x10AA JUMPI PUSH1 0x40 MLOAD PUSH3 0x461BCD PUSH1 0xE5 SHL DUP2 MSTORE PUSH1 0x20 PUSH1 0x4 DUP3 ADD MSTORE PUSH1 0xF PUSH1 0x24 DUP3 ADD MSTORE PUSH32 0x55736572204E6F74205374616B65640000000000000000000000000000000000 PUSH1 0x44 DUP3 ADD MSTORE PUSH1 0x64 ADD PUSH2 0x9B6 JUMP JUMPDEST PUSH1 0x1 PUSH1 0x1 PUSH1 0xA0 SHL SUB DUP5 AND PUSH1 0x0 SWAP1 DUP2 MSTORE PUSH1 0x3F PUSH1 0x20 SWAP1 DUP2 MSTORE PUSH1 0x40 DUP1 DUP4 KECCAK256 DUP10 DUP5 MSTORE SWAP1 SWAP2 MSTORE DUP2 KECCAK256 DUP1 SLOAD DUP8 SWAP1 DUP2 LT PUSH2 0x10DF JUMPI PUSH2 0x10DF PUSH2 0x3C80 JUMP JUMPDEST PUSH1 0x0 SWAP2 DUP3 MSTORE PUSH1 0x20 DUP1 DUP4 KECCAK256 DUP11 DUP5 MSTORE PUSH1 0x3E SWAP1 SWAP2 MSTORE PUSH1 0x40 DUP4 KECCAK256 PUSH1 0x6 SWAP3 SWAP1 SWAP3 MUL ADD PUSH1 0x1 DUP2 ADD SLOAD SWAP1 SWAP4 POP SWAP1 SWAP2 TIMESTAMP SWAP2 PUSH2 0x1112 SWAP1 DUP4 PUSH2 0x3CEC JUMP JUMPDEST SWAP1 POP PUSH1 0x0 PUSH1 0x35 SLOAD PUSH2 0x2710 DUP6 PUSH1 0x3 ADD SLOAD DUP5 DUP9 PUSH1 0x5 ADD SLOAD PUSH2 0x1131 SWAP2 SWAP1 PUSH2 0x3D18 JUMP JUMPDEST PUSH2 0x113B SWAP2 SWAP1 PUSH2 0x3D18 JUMP JUMPDEST PUSH2 0x1145 SWAP2 SWAP1 PUSH2 0x3D2F JUMP JUMPDEST PUSH2 0x114F SWAP2 SWAP1 PUSH2 0x3D2F JUMP JUMPDEST SWAP12 SWAP11 POP POP POP POP POP POP POP POP POP POP POP JUMP JUMPDEST PUSH1 0x3F PUSH1 0x20 MSTORE DUP3 PUSH1 0x0 MSTORE PUSH1 0x40 PUSH1 0x0 KECCAK256 PUSH1 0x20 MSTORE DUP2 PUSH1 0x0 MSTORE PUSH1 0x40 PUSH1 0x0 KECCAK256 DUP2 DUP2 SLOAD DUP2 LT PUSH2 0x1186 JUMPI PUSH1 0x0 DUP1 REVERT JUMPDEST PUSH1 0x0 SWAP2 DUP3 MSTORE PUSH1 0x20 SWAP1 SWAP2 KECCAK256 PUSH1 0x6 SWAP1 SWAP2 MUL ADD DUP1 SLOAD PUSH1 0x1 DUP3 ADD SLOAD PUSH1 0x2 DUP4 ADD SLOAD PUSH1 0x3 DUP5 ADD SLOAD PUSH1 0x4 DUP6 ADD SLOAD PUSH1 0x5 SWAP1 SWAP6 ADD SLOAD SWAP4 SWAP8 POP SWAP2 SWAP6 POP SWAP4 POP SWAP2 PUSH1 0x1 PUSH1 0x1 PUSH1 0xA0 SHL SUB AND SWAP1 DUP7 JUMP JUMPDEST PUSH1 0x0 DUP1 PUSH1 0x0 DUP1 DUP5 PUSH1 0x1 PUSH1 0x1 PUSH1 0xA0 SHL SUB AND PUSH4 0x902F1AC PUSH1 0x40 MLOAD DUP2 PUSH4 0xFFFFFFFF AND PUSH1 0xE0 SHL DUP2 MSTORE PUSH1 0x4 ADD PUSH1 0x60 PUSH1 0x40 MLOAD DUP1 DUP4 SUB DUP2 DUP7 GAS STATICCALL ISZERO DUP1 ISZERO PUSH2 0x120C JUMPI RETURNDATASIZE PUSH1 0x0 DUP1 RETURNDATACOPY RETURNDATASIZE PUSH1 0x0 REVERT JUMPDEST POP POP POP POP PUSH1 0x40 MLOAD RETURNDATASIZE PUSH1 0x1F NOT PUSH1 0x1F DUP3 ADD AND DUP3 ADD DUP1 PUSH1 0x40 MSTORE POP DUP2 ADD SWAP1 PUSH2 0x1230 SWAP2 SWAP1 PUSH2 0x3D83 JUMP JUMPDEST POP SWAP1 SWAP7 SWAP1 SWAP6 POP SWAP4 POP POP POP POP JUMP JUMPDEST PUSH1 0x33 SLOAD PUSH1 0x1 PUSH1 0x1 PUSH1 0xA0 SHL SUB AND CALLER EQ PUSH2 0x128F JUMPI PUSH1 0x40 MLOAD PUSH3 0x461BCD PUSH1 0xE5 SHL DUP2 MSTORE PUSH1 0x20 PUSH1 0x4 DUP3 ADD MSTORE PUSH1 0x21 PUSH1 0x24 DUP3 ADD MSTORE PUSH1 0x0 DUP1 MLOAD PUSH1 0x20 PUSH2 0x3EAC DUP4 CODECOPY DUP2 MLOAD SWAP2 MSTORE PUSH1 0x44 DUP3 ADD MSTORE PUSH1 0x37 PUSH1 0xF9 SHL PUSH1 0x64 DUP3 ADD MSTORE PUSH1 0x84 ADD PUSH2 0x9B6 JUMP JUMPDEST PUSH1 0x3B DUP1 SLOAD PUSH1 0x1 PUSH1 0x1 PUSH1 0xA0 SHL SUB NOT AND PUSH1 0x1 PUSH1 0x1 PUSH1 0xA0 SHL SUB SWAP3 SWAP1 SWAP3 AND SWAP2 SWAP1 SWAP2 OR SWAP1 SSTORE JUMP JUMPDEST PUSH1 0x33 SLOAD PUSH1 0x1 PUSH1 0x1 PUSH1 0xA0 SHL SUB AND CALLER EQ PUSH2 0x1303 JUMPI PUSH1 0x40 MLOAD PUSH3 0x461BCD PUSH1 0xE5 SHL DUP2 MSTORE PUSH1 0x20 PUSH1 0x4 DUP3 ADD MSTORE PUSH1 0x21 PUSH1 0x24 DUP3 ADD MSTORE PUSH1 0x0 DUP1 MLOAD PUSH1 0x20 PUSH2 0x3EAC DUP4 CODECOPY DUP2 MLOAD SWAP2 MSTORE PUSH1 0x44 DUP3 ADD MSTORE PUSH1 0x37 PUSH1 0xF9 SHL PUSH1 0x64 DUP3 ADD MSTORE PUSH1 0x84 ADD PUSH2 0x9B6 JUMP JUMPDEST PUSH1 0x3D DUP1 SLOAD PUSH1 0x1 PUSH1 0x1 PUSH1 0xA0 SHL SUB NOT AND PUSH1 0x1 PUSH1 0x1 PUSH1 0xA0 SHL SUB SWAP3 SWAP1 SWAP3 AND SWAP2 SWAP1 SWAP2 OR SWAP1 SSTORE JUMP JUMPDEST DUP1 PUSH1 0x34 SLOAD DUP2 LT PUSH2 0x1366 JUMPI PUSH1 0x40 MLOAD PUSH3 0x461BCD PUSH1 0xE5 SHL DUP2 MSTORE PUSH1 0x20 PUSH1 0x4 DUP3 ADD MSTORE PUSH1 0xC PUSH1 0x24 DUP3 ADD MSTORE PUSH12 0x125B9D985B1A5908141BDBDB PUSH1 0xA2 SHL PUSH1 0x44 DUP3 ADD MSTORE PUSH1 0x64 ADD PUSH2 0x9B6 JUMP JUMPDEST PUSH1 0x0 DUP3 DUP2 MSTORE PUSH1 0x3E PUSH1 0x20 MSTORE PUSH1 0x40 SWAP1 KECCAK256 PUSH1 0x5 ADD SLOAD DUP3 SWAP1 PUSH1 0xFF AND PUSH2 0x13BE JUMPI PUSH1 0x40 MLOAD PUSH3 0x461BCD PUSH1 0xE5 SHL DUP2 MSTORE PUSH1 0x20 PUSH1 0x4 DUP3 ADD MSTORE PUSH1 0x12 PUSH1 0x24 DUP3 ADD MSTORE PUSH18 0x506F6F6C204973204E6F7420416374697665 PUSH1 0x70 SHL PUSH1 0x44 DUP3 ADD MSTORE PUSH1 0x64 ADD PUSH2 0x9B6 JUMP JUMPDEST PUSH1 0x0 DUP4 DUP2 MSTORE PUSH1 0x3E PUSH1 0x20 MSTORE PUSH1 0x40 DUP2 KECCAK256 DUP2 JUMPDEST CALLER PUSH1 0x0 SWAP1 DUP2 MSTORE PUSH1 0x3F PUSH1 0x20 SWAP1 DUP2 MSTORE PUSH1 0x40 DUP1 DUP4 KECCAK256 DUP10 DUP5 MSTORE SWAP1 SWAP2 MSTORE SWAP1 KECCAK256 SLOAD DUP2 LT ISZERO PUSH2 0x14EC JUMPI CALLER PUSH1 0x0 SWAP1 DUP2 MSTORE PUSH1 0x3F PUSH1 0x20 SWAP1 DUP2 MSTORE PUSH1 0x40 DUP1 DUP4 KECCAK256 DUP10 DUP5 MSTORE SWAP1 SWAP2 MSTORE DUP2 KECCAK256 DUP1 SLOAD DUP4 SWAP1 DUP2 LT PUSH2 0x141C JUMPI PUSH2 0x141C PUSH2 0x3C80 JUMP JUMPDEST SWAP1 PUSH1 0x0 MSTORE PUSH1 0x20 PUSH1 0x0 KECCAK256 SWAP1 PUSH1 0x6 MUL ADD SWAP1 POP PUSH1 0x0 TIMESTAMP SWAP1 POP DUP4 PUSH1 0x0 ADD SLOAD DUP3 PUSH1 0x3 ADD SLOAD PUSH2 0x1445 SWAP2 SWAP1 PUSH2 0x3CAC JUMP JUMPDEST DUP2 LT PUSH2 0x14D7 JUMPI DUP2 SLOAD PUSH2 0x1457 SWAP1 DUP7 PUSH2 0x3CAC JUMP JUMPDEST SWAP5 POP PUSH2 0x1463 DUP9 DUP5 PUSH2 0x1613 JUMP JUMPDEST POP PUSH1 0x0 DUP1 DUP4 SSTORE PUSH1 0x1 DUP4 ADD DUP3 SWAP1 SSTORE CALLER DUP2 MSTORE PUSH1 0x3F PUSH1 0x20 SWAP1 DUP2 MSTORE PUSH1 0x40 DUP1 DUP4 KECCAK256 DUP12 DUP5 MSTORE SWAP1 SWAP2 MSTORE SWAP1 KECCAK256 DUP1 SLOAD DUP5 SWAP1 DUP2 LT PUSH2 0x1499 JUMPI PUSH2 0x1499 PUSH2 0x3C80 JUMP JUMPDEST PUSH1 0x0 SWAP2 DUP3 MSTORE PUSH1 0x20 DUP3 KECCAK256 PUSH1 0x6 SWAP1 SWAP2 MUL ADD DUP2 DUP2 SSTORE PUSH1 0x1 DUP2 ADD DUP3 SWAP1 SSTORE PUSH1 0x2 DUP2 ADD DUP3 SWAP1 SSTORE PUSH1 0x3 DUP2 ADD DUP3 SWAP1 SSTORE PUSH1 0x4 DUP2 ADD DUP1 SLOAD PUSH1 0x1 PUSH1 0x1 PUSH1 0xA0 SHL SUB NOT AND SWAP1 SSTORE PUSH1 0x5 ADD SSTORE JUMPDEST POP POP DUP1 DUP1 PUSH2 0x14E4 SWAP1 PUSH2 0x3CFF JUMP JUMPDEST SWAP2 POP POP PUSH2 0x13CE JUMP JUMPDEST POP CALLER PUSH1 0x0 SWAP1 DUP2 MSTORE PUSH1 0x42 PUSH1 0x20 MSTORE PUSH1 0x40 DUP2 KECCAK256 PUSH1 0x1 ADD DUP1 SLOAD DUP5 SWAP3 SWAP1 PUSH2 0x150F SWAP1 DUP5 SWAP1 PUSH2 0x3CEC JUMP JUMPDEST SWAP1 SWAP2 SSTORE POP POP CALLER PUSH1 0x0 SWAP1 DUP2 MSTORE PUSH1 0x43 PUSH1 0x20 SWAP1 DUP2 MSTORE PUSH1 0x40 DUP1 DUP4 KECCAK256 DUP9 DUP5 MSTORE SWAP1 SWAP2 MSTORE DUP2 KECCAK256 DUP1 SLOAD DUP5 SWAP3 SWAP1 PUSH2 0x153E SWAP1 DUP5 SWAP1 PUSH2 0x3CEC JUMP JUMPDEST SWAP1 SWAP2 SSTORE POP POP DUP2 ISZERO PUSH2 0x160C JUMPI PUSH1 0x1 DUP2 ADD SLOAD PUSH1 0x40 MLOAD PUSH4 0xA9059CBB PUSH1 0xE0 SHL DUP2 MSTORE CALLER PUSH1 0x4 DUP3 ADD MSTORE PUSH1 0x24 DUP2 ADD DUP5 SWAP1 MSTORE PUSH1 0x1 PUSH1 0x1 PUSH1 0xA0 SHL SUB SWAP1 SWAP2 AND SWAP1 PUSH4 0xA9059CBB SWAP1 PUSH1 0x44 ADD PUSH1 0x20 PUSH1 0x40 MLOAD DUP1 DUP4 SUB DUP2 PUSH1 0x0 DUP8 GAS CALL ISZERO DUP1 ISZERO PUSH2 0x159C JUMPI RETURNDATASIZE PUSH1 0x0 DUP1 RETURNDATACOPY RETURNDATASIZE PUSH1 0x0 REVERT JUMPDEST POP POP POP POP PUSH1 0x40 MLOAD RETURNDATASIZE PUSH1 0x1F NOT PUSH1 0x1F DUP3 ADD AND DUP3 ADD DUP1 PUSH1 0x40 MSTORE POP DUP2 ADD SWAP1 PUSH2 0x15C0 SWAP2 SWAP1 PUSH2 0x3CCF JUMP JUMPDEST PUSH2 0x160C JUMPI PUSH1 0x40 MLOAD PUSH3 0x461BCD PUSH1 0xE5 SHL DUP2 MSTORE PUSH1 0x20 PUSH1 0x4 DUP3 ADD MSTORE PUSH1 0x1C PUSH1 0x24 DUP3 ADD MSTORE PUSH32 0x5374616B656420746F6B656E207472616E73666572206661696C656400000000 PUSH1 0x44 DUP3 ADD MSTORE PUSH1 0x64 ADD PUSH2 0x9B6 JUMP JUMPDEST POP POP POP POP POP JUMP JUMPDEST PUSH1 0x0 DUP3 PUSH1 0x34 SLOAD DUP2 LT PUSH2 0x1656 JUMPI PUSH1 0x40 MLOAD PUSH3 0x461BCD PUSH1 0xE5 SHL DUP2 MSTORE PUSH1 0x20 PUSH1 0x4 DUP3 ADD MSTORE PUSH1 0xC PUSH1 0x24 DUP3 ADD MSTORE PUSH12 0x125B9D985B1A5908141BDBDB PUSH1 0xA2 SHL PUSH1 0x44 DUP3 ADD MSTORE PUSH1 0x64 ADD PUSH2 0x9B6 JUMP JUMPDEST PUSH1 0x0 DUP5 DUP2 MSTORE PUSH1 0x3E PUSH1 0x20 MSTORE PUSH1 0x40 SWAP1 KECCAK256 PUSH1 0x5 ADD SLOAD DUP5 SWAP1 PUSH1 0xFF AND PUSH2 0x16AE JUMPI PUSH1 0x40 MLOAD PUSH3 0x461BCD PUSH1 0xE5 SHL DUP2 MSTORE PUSH1 0x20 PUSH1 0x4 DUP3 ADD MSTORE PUSH1 0x12 PUSH1 0x24 DUP3 ADD MSTORE PUSH18 0x506F6F6C204973204E6F7420416374697665 PUSH1 0x70 SHL PUSH1 0x44 DUP3 ADD MSTORE PUSH1 0x64 ADD PUSH2 0x9B6 JUMP JUMPDEST CALLER PUSH1 0x0 SWAP1 DUP2 MSTORE PUSH1 0x3F PUSH1 0x20 SWAP1 DUP2 MSTORE PUSH1 0x40 DUP1 DUP4 KECCAK256 DUP9 DUP5 MSTORE SWAP1 SWAP2 MSTORE DUP2 KECCAK256 DUP1 SLOAD DUP7 SWAP1 DUP2 LT PUSH2 0x16DA JUMPI PUSH2 0x16DA PUSH2 0x3C80 JUMP JUMPDEST PUSH1 0x0 SWAP2 DUP3 MSTORE PUSH1 0x20 DUP1 DUP4 KECCAK256 DUP10 DUP5 MSTORE PUSH1 0x3E SWAP1 SWAP2 MSTORE PUSH1 0x40 DUP4 KECCAK256 PUSH1 0x6 SWAP1 SWAP3 MUL ADD DUP1 SLOAD SWAP1 SWAP4 POP SWAP1 SWAP2 SUB PUSH2 0x170D JUMPI PUSH1 0x0 SWAP5 POP POP POP PUSH2 0x19FE JUMP JUMPDEST TIMESTAMP PUSH1 0x0 PUSH2 0x171B DUP10 DUP10 CALLER PUSH2 0xF9D JUMP JUMPDEST SWAP1 POP DUP1 ISZERO PUSH2 0x19F9 JUMPI PUSH1 0x2 DUP4 ADD SLOAD PUSH1 0x40 MLOAD PUSH4 0xA9059CBB PUSH1 0xE0 SHL DUP2 MSTORE CALLER PUSH1 0x4 DUP3 ADD MSTORE PUSH1 0x24 DUP2 ADD DUP4 SWAP1 MSTORE PUSH1 0x1 PUSH1 0x1 PUSH1 0xA0 SHL SUB SWAP1 SWAP2 AND SWAP1 PUSH4 0xA9059CBB SWAP1 PUSH1 0x44 ADD PUSH1 0x20 PUSH1 0x40 MLOAD DUP1 DUP4 SUB DUP2 PUSH1 0x0 DUP8 GAS CALL ISZERO DUP1 ISZERO PUSH2 0x1776 JUMPI RETURNDATASIZE PUSH1 0x0 DUP1 RETURNDATACOPY RETURNDATASIZE PUSH1 0x0 REVERT JUMPDEST POP POP POP POP PUSH1 0x40 MLOAD RETURNDATASIZE PUSH1 0x1F NOT PUSH1 0x1F DUP3 ADD AND DUP3 ADD DUP1 PUSH1 0x40 MSTORE POP DUP2 ADD SWAP1 PUSH2 0x179A SWAP2 SWAP1 PUSH2 0x3CCF JUMP JUMPDEST PUSH2 0x17E6 JUMPI PUSH1 0x40 MLOAD PUSH3 0x461BCD PUSH1 0xE5 SHL DUP2 MSTORE PUSH1 0x20 PUSH1 0x4 DUP3 ADD MSTORE PUSH1 0x16 PUSH1 0x24 DUP3 ADD MSTORE PUSH32 0x526577617264207472616E73666572206661696C656400000000000000000000 PUSH1 0x44 DUP3 ADD MSTORE PUSH1 0x64 ADD PUSH2 0x9B6 JUMP JUMPDEST PUSH1 0x4 DUP5 ADD SLOAD PUSH1 0x1 PUSH1 0x1 PUSH1 0xA0 SHL SUB AND ISZERO PUSH2 0x19A9 JUMPI PUSH1 0x4 DUP1 DUP5 ADD SLOAD SWAP1 DUP6 ADD SLOAD PUSH1 0x1 PUSH1 0x1 PUSH1 0xA0 SHL SUB AND PUSH1 0x0 SWAP1 DUP2 MSTORE PUSH1 0x41 PUSH1 0x20 MSTORE PUSH1 0x40 SWAP1 KECCAK256 SLOAD ISZERO PUSH2 0x183F JUMPI POP PUSH1 0x4 DUP5 ADD SLOAD PUSH1 0x1 PUSH1 0x1 PUSH1 0xA0 SHL SUB AND PUSH1 0x0 SWAP1 DUP2 MSTORE PUSH1 0x41 PUSH1 0x20 MSTORE PUSH1 0x40 SWAP1 KECCAK256 SLOAD JUMPDEST PUSH1 0x0 PUSH2 0x2710 PUSH2 0x184E DUP4 DUP6 PUSH2 0x3D18 JUMP JUMPDEST PUSH2 0x1858 SWAP2 SWAP1 PUSH2 0x3D2F JUMP JUMPDEST SWAP1 POP DUP1 ISZERO PUSH2 0x1972 JUMPI PUSH1 0x2 DUP6 ADD SLOAD PUSH1 0x4 DUP8 DUP2 ADD SLOAD PUSH1 0x40 MLOAD PUSH4 0xA9059CBB PUSH1 0xE0 SHL DUP2 MSTORE PUSH1 0x1 PUSH1 0x1 PUSH1 0xA0 SHL SUB SWAP2 DUP3 AND SWAP3 DUP2 ADD SWAP3 SWAP1 SWAP3 MSTORE PUSH1 0x24 DUP3 ADD DUP5 SWAP1 MSTORE SWAP1 SWAP2 AND SWAP1 PUSH4 0xA9059CBB SWAP1 PUSH1 0x44 ADD PUSH1 0x20 PUSH1 0x40 MLOAD DUP1 DUP4 SUB DUP2 PUSH1 0x0 DUP8 GAS CALL ISZERO DUP1 ISZERO PUSH2 0x18BD JUMPI RETURNDATASIZE PUSH1 0x0 DUP1 RETURNDATACOPY RETURNDATASIZE PUSH1 0x0 REVERT JUMPDEST POP POP POP POP PUSH1 0x40 MLOAD RETURNDATASIZE PUSH1 0x1F NOT PUSH1 0x1F DUP3 ADD AND DUP3 ADD DUP1 PUSH1 0x40 MSTORE POP DUP2 ADD SWAP1 PUSH2 0x18E1 SWAP2 SWAP1 PUSH2 0x3CCF JUMP JUMPDEST PUSH2 0x192D JUMPI PUSH1 0x40 MLOAD PUSH3 0x461BCD PUSH1 0xE5 SHL DUP2 MSTORE PUSH1 0x20 PUSH1 0x4 DUP3 ADD MSTORE PUSH1 0x1F PUSH1 0x24 DUP3 ADD MSTORE PUSH32 0x526566657272616C20526577617264207472616E73666572206661696C656400 PUSH1 0x44 DUP3 ADD MSTORE PUSH1 0x64 ADD PUSH2 0x9B6 JUMP JUMPDEST PUSH1 0x4 DUP7 ADD SLOAD PUSH1 0x1 PUSH1 0x1 PUSH1 0xA0 SHL SUB AND PUSH1 0x0 SWAP1 DUP2 MSTORE PUSH1 0x47 PUSH1 0x20 SWAP1 DUP2 MSTORE PUSH1 0x40 DUP1 DUP4 KECCAK256 CALLER DUP5 MSTORE DUP3 MSTORE DUP1 DUP4 KECCAK256 DUP15 DUP5 MSTORE SWAP1 SWAP2 MSTORE DUP2 KECCAK256 DUP1 SLOAD DUP4 SWAP3 SWAP1 PUSH2 0x196C SWAP1 DUP5 SWAP1 PUSH2 0x3CAC JUMP JUMPDEST SWAP1 SWAP2 SSTORE POP POP JUMPDEST PUSH1 0x4 DUP7 ADD SLOAD PUSH1 0x1 PUSH1 0x1 PUSH1 0xA0 SHL SUB AND PUSH1 0x0 SWAP1 DUP2 MSTORE PUSH1 0x42 PUSH1 0x20 MSTORE PUSH1 0x40 DUP2 KECCAK256 PUSH1 0x3 ADD DUP1 SLOAD DUP4 SWAP3 SWAP1 PUSH2 0x19A1 SWAP1 DUP5 SWAP1 PUSH2 0x3CAC JUMP JUMPDEST SWAP1 SWAP2 SSTORE POP POP POP POP JUMPDEST CALLER PUSH1 0x0 SWAP1 DUP2 MSTORE PUSH1 0x42 PUSH1 0x20 MSTORE PUSH1 0x40 DUP2 KECCAK256 PUSH1 0x2 ADD DUP1 SLOAD DUP4 SWAP3 SWAP1 PUSH2 0x19CB SWAP1 DUP5 SWAP1 PUSH2 0x3CAC JUMP JUMPDEST SWAP3 POP POP DUP2 SWAP1 SSTORE POP DUP1 DUP5 PUSH1 0x2 ADD PUSH1 0x0 DUP3 DUP3 SLOAD PUSH2 0x19E6 SWAP2 SWAP1 PUSH2 0x3CAC JUMP JUMPDEST SWAP1 SWAP2 SSTORE POP POP PUSH1 0x1 SWAP1 SWAP4 ADD SSTORE POP SWAP3 POP PUSH2 0x19FE JUMP JUMPDEST POP POP POP POP JUMPDEST POP POP SWAP3 SWAP2 POP POP JUMP JUMPDEST PUSH1 0x33 SLOAD PUSH1 0x1 PUSH1 0x1 PUSH1 0xA0 SHL SUB AND CALLER EQ PUSH2 0x1A58 JUMPI PUSH1 0x40 MLOAD PUSH3 0x461BCD PUSH1 0xE5 SHL DUP2 MSTORE PUSH1 0x20 PUSH1 0x4 DUP3 ADD MSTORE PUSH1 0x21 PUSH1 0x24 DUP3 ADD MSTORE PUSH1 0x0 DUP1 MLOAD PUSH1 0x20 PUSH2 0x3EAC DUP4 CODECOPY DUP2 MLOAD SWAP2 MSTORE PUSH1 0x44 DUP3 ADD MSTORE PUSH1 0x37 PUSH1 0xF9 SHL PUSH1 0x64 DUP3 ADD MSTORE PUSH1 0x84 ADD PUSH2 0x9B6 JUMP JUMPDEST PUSH1 0x33 DUP1 SLOAD PUSH1 0x1 PUSH1 0x1 PUSH1 0xA0 SHL SUB NOT AND PUSH1 0x1 PUSH1 0x1 PUSH1 0xA0 SHL SUB SWAP3 SWAP1 SWAP3 AND SWAP2 SWAP1 SWAP2 OR SWAP1 SSTORE JUMP JUMPDEST DUP3 PUSH1 0x34 SLOAD DUP2 LT PUSH2 0x1ABB JUMPI PUSH1 0x40 MLOAD PUSH3 0x461BCD PUSH1 0xE5 SHL DUP2 MSTORE PUSH1 0x20 PUSH1 0x4 DUP3 ADD MSTORE PUSH1 0xC PUSH1 0x24 DUP3 ADD MSTORE PUSH12 0x125B9D985B1A5908141BDBDB PUSH1 0xA2 SHL PUSH1 0x44 DUP3 ADD MSTORE PUSH1 0x64 ADD PUSH2 0x9B6 JUMP JUMPDEST PUSH1 0x0 DUP5 DUP2 MSTORE PUSH1 0x3E PUSH1 0x20 MSTORE PUSH1 0x40 SWAP1 KECCAK256 PUSH1 0x5 ADD SLOAD DUP5 SWAP1 PUSH1 0xFF AND PUSH2 0x1B13 JUMPI PUSH1 0x40 MLOAD PUSH3 0x461BCD PUSH1 0xE5 SHL DUP2 MSTORE PUSH1 0x20 PUSH1 0x4 DUP3 ADD MSTORE PUSH1 0x12 PUSH1 0x24 DUP3 ADD MSTORE PUSH18 0x506F6F6C204973204E6F7420416374697665 PUSH1 0x70 SHL PUSH1 0x44 DUP3 ADD MSTORE PUSH1 0x64 ADD PUSH2 0x9B6 JUMP JUMPDEST PUSH1 0x0 DUP5 GT PUSH2 0x1B63 JUMPI PUSH1 0x40 MLOAD PUSH3 0x461BCD PUSH1 0xE5 SHL DUP2 MSTORE PUSH1 0x20 PUSH1 0x4 DUP3 ADD MSTORE PUSH1 0x1D PUSH1 0x24 DUP3 ADD MSTORE PUSH32 0x416D6F756E74206D7573742062652067726561746572207468616E2030000000 PUSH1 0x44 DUP3 ADD MSTORE PUSH1 0x64 ADD PUSH2 0x9B6 JUMP JUMPDEST PUSH1 0x1 PUSH1 0x1 PUSH1 0xA0 SHL SUB DUP4 AND CALLER SUB PUSH2 0x1BBB JUMPI PUSH1 0x40 MLOAD PUSH3 0x461BCD PUSH1 0xE5 SHL DUP2 MSTORE PUSH1 0x20 PUSH1 0x4 DUP3 ADD MSTORE PUSH1 0x18 PUSH1 0x24 DUP3 ADD MSTORE PUSH32 0x596F752063616E277420726566657220796F757273656C660000000000000000 PUSH1 0x44 DUP3 ADD MSTORE PUSH1 0x64 ADD PUSH2 0x9B6 JUMP JUMPDEST PUSH1 0x0 DUP6 DUP2 MSTORE PUSH1 0x3E PUSH1 0x20 MSTORE PUSH1 0x40 SWAP1 DUP2 SWAP1 KECCAK256 PUSH1 0x1 DUP2 ADD SLOAD SWAP2 MLOAD PUSH32 0x23B872DD00000000000000000000000000000000000000000000000000000000 DUP2 MSTORE CALLER PUSH1 0x4 DUP3 ADD MSTORE ADDRESS PUSH1 0x24 DUP3 ADD MSTORE PUSH1 0x44 DUP2 ADD DUP8 SWAP1 MSTORE SWAP1 SWAP2 PUSH1 0x1 PUSH1 0x1 PUSH1 0xA0 SHL SUB AND SWAP1 PUSH4 0x23B872DD SWAP1 PUSH1 0x64 ADD PUSH1 0x20 PUSH1 0x40 MLOAD DUP1 DUP4 SUB DUP2 PUSH1 0x0 DUP8 GAS CALL ISZERO DUP1 ISZERO PUSH2 0x1C3C JUMPI RETURNDATASIZE PUSH1 0x0 DUP1 RETURNDATACOPY RETURNDATASIZE PUSH1 0x0 REVERT JUMPDEST POP POP POP POP PUSH1 0x40 MLOAD RETURNDATASIZE PUSH1 0x1F NOT PUSH1 0x1F DUP3 ADD AND DUP3 ADD DUP1 PUSH1 0x40 MSTORE POP DUP2 ADD SWAP1 PUSH2 0x1C60 SWAP2 SWAP1 PUSH2 0x3CCF JUMP JUMPDEST PUSH2 0x1CAC JUMPI PUSH1 0x40 MLOAD PUSH3 0x461BCD PUSH1 0xE5 SHL DUP2 MSTORE PUSH1 0x20 PUSH1 0x4 DUP3 ADD MSTORE PUSH1 0x15 PUSH1 0x24 DUP3 ADD MSTORE PUSH32 0x546F6B656E207472616E73666572206661696C65640000000000000000000000 PUSH1 0x44 DUP3 ADD MSTORE PUSH1 0x64 ADD PUSH2 0x9B6 JUMP JUMPDEST CALLER PUSH1 0x0 SWAP1 DUP2 MSTORE PUSH1 0x3F PUSH1 0x20 SWAP1 DUP2 MSTORE PUSH1 0x40 DUP1 DUP4 KECCAK256 DUP10 DUP5 MSTORE DUP3 MSTORE DUP1 DUP4 KECCAK256 DUP2 MLOAD PUSH1 0xC0 DUP2 ADD DUP4 MSTORE DUP10 DUP2 MSTORE TIMESTAMP SWAP4 DUP2 ADD DUP5 SWAP1 MSTORE SWAP2 DUP3 ADD SWAP4 SWAP1 SWAP4 MSTORE PUSH1 0x60 DUP2 ADD SWAP2 SWAP1 SWAP2 MSTORE PUSH1 0x1 PUSH1 0x1 PUSH1 0xA0 SHL SUB DUP7 AND PUSH1 0x80 DUP3 ADD MSTORE PUSH1 0xA0 DUP2 ADD PUSH8 0xDE0B6B3A7640000 PUSH2 0x1D0B PUSH2 0x3573 JUMP JUMPDEST PUSH2 0x1D15 SWAP1 DUP11 PUSH2 0x3D18 JUMP JUMPDEST PUSH2 0x1D1F SWAP2 SWAP1 PUSH2 0x3D2F JUMP JUMPDEST SWAP1 MSTORE DUP2 SLOAD PUSH1 0x1 DUP1 DUP3 ADD DUP5 SSTORE PUSH1 0x0 SWAP4 DUP5 MSTORE PUSH1 0x20 DUP1 DUP6 KECCAK256 DUP5 MLOAD PUSH1 0x6 SWAP5 DUP6 MUL SWAP1 SWAP2 ADD SWAP1 DUP2 SSTORE DUP5 DUP3 ADD MLOAD SWAP3 DUP2 ADD SWAP3 SWAP1 SWAP3 SSTORE PUSH1 0x40 DUP1 DUP6 ADD MLOAD PUSH1 0x2 DUP5 ADD SSTORE PUSH1 0x60 DUP6 ADD MLOAD PUSH1 0x3 DUP5 ADD SSTORE PUSH1 0x80 DUP6 ADD MLOAD PUSH1 0x4 DUP5 ADD DUP1 SLOAD PUSH1 0x1 PUSH1 0x1 PUSH1 0xA0 SHL SUB NOT AND PUSH1 0x1 PUSH1 0x1 PUSH1 0xA0 SHL SUB SWAP1 SWAP3 AND SWAP2 SWAP1 SWAP2 OR SWAP1 SSTORE PUSH1 0xA0 SWAP1 SWAP5 ADD MLOAD PUSH1 0x5 SWAP1 SWAP3 ADD SWAP2 SWAP1 SWAP2 SSTORE DUP10 DUP5 MSTORE PUSH1 0x3E SWAP1 MSTORE SWAP1 DUP3 KECCAK256 ADD DUP1 SLOAD DUP8 SWAP3 SWAP1 PUSH2 0x1DB1 SWAP1 DUP5 SWAP1 PUSH2 0x3CAC JUMP JUMPDEST SWAP1 SWAP2 SSTORE POP POP PUSH1 0x40 DUP1 MLOAD PUSH1 0xA0 DUP2 ADD DUP3 MSTORE CALLER PUSH1 0x0 SWAP1 DUP2 MSTORE PUSH1 0x42 PUSH1 0x20 MSTORE SWAP2 SWAP1 SWAP2 KECCAK256 SLOAD DUP2 SWAP1 PUSH2 0x1DDD SWAP1 DUP9 SWAP1 PUSH2 0x3CAC JUMP JUMPDEST DUP2 MSTORE CALLER PUSH1 0x0 SWAP1 DUP2 MSTORE PUSH1 0x42 PUSH1 0x20 SWAP1 DUP2 MSTORE PUSH1 0x40 SWAP1 SWAP2 KECCAK256 PUSH1 0x1 ADD SLOAD SWAP2 ADD SWAP1 PUSH2 0x1E03 SWAP1 DUP9 SWAP1 PUSH2 0x3CAC JUMP JUMPDEST DUP2 MSTORE CALLER PUSH1 0x0 DUP2 DUP2 MSTORE PUSH1 0x42 PUSH1 0x20 DUP2 DUP2 MSTORE PUSH1 0x40 DUP1 DUP5 KECCAK256 PUSH1 0x2 DUP2 ADD DUP1 SLOAD DUP5 DUP10 ADD MSTORE PUSH1 0x3 DUP3 ADD DUP1 SLOAD DUP5 DUP11 ADD MSTORE PUSH1 0x4 DUP4 ADD DUP1 SLOAD PUSH1 0x60 SWAP11 DUP12 ADD MSTORE SWAP8 SWAP1 SWAP7 MSTORE SWAP4 DUP4 MSTORE DUP8 MLOAD DUP2 SSTORE SWAP2 DUP8 ADD MLOAD PUSH1 0x1 SWAP1 SWAP3 ADD SWAP2 SWAP1 SWAP2 SSTORE DUP6 ADD MLOAD SWAP1 SSTORE SWAP2 DUP4 ADD MLOAD SWAP1 SWAP2 SSTORE PUSH1 0x80 SWAP1 SWAP2 ADD MLOAD SWAP1 SSTORE PUSH1 0x1 PUSH1 0x1 PUSH1 0xA0 SHL SUB DUP5 AND ISZERO PUSH2 0x1F1F JUMPI CALLER PUSH1 0x0 SWAP1 DUP2 MSTORE PUSH1 0x48 PUSH1 0x20 SWAP1 DUP2 MSTORE PUSH1 0x40 DUP1 DUP4 KECCAK256 DUP10 DUP5 MSTORE SWAP1 SWAP2 MSTORE SWAP1 KECCAK256 SLOAD PUSH1 0x1 PUSH1 0x1 PUSH1 0xA0 SHL SUB AND PUSH2 0x1F1F JUMPI CALLER PUSH1 0x0 DUP2 DUP2 MSTORE PUSH1 0x48 PUSH1 0x20 SWAP1 DUP2 MSTORE PUSH1 0x40 DUP1 DUP4 KECCAK256 DUP11 DUP5 MSTORE DUP3 MSTORE DUP1 DUP4 KECCAK256 DUP1 SLOAD PUSH1 0x1 PUSH1 0x1 PUSH1 0xA0 SHL SUB DUP11 AND PUSH1 0x1 PUSH1 0x1 PUSH1 0xA0 SHL SUB NOT SWAP2 DUP3 AND DUP2 OR SWAP1 SWAP3 SSTORE DUP2 DUP6 MSTORE PUSH1 0x46 DUP5 MSTORE DUP3 DUP6 KECCAK256 DUP13 DUP7 MSTORE DUP5 MSTORE DUP3 DUP6 KECCAK256 DUP1 SLOAD PUSH1 0x1 DUP2 DUP2 ADD DUP4 SSTORE SWAP2 DUP8 MSTORE DUP6 DUP8 KECCAK256 ADD DUP1 SLOAD SWAP1 SWAP3 AND SWAP1 SWAP7 OR SWAP1 SSTORE DUP4 MSTORE PUSH1 0x42 SWAP1 SWAP2 MSTORE DUP2 KECCAK256 PUSH1 0x4 ADD DUP1 SLOAD SWAP1 SWAP2 SWAP1 PUSH2 0x1F19 SWAP1 DUP5 SWAP1 PUSH2 0x3CAC JUMP JUMPDEST SWAP1 SWAP2 SSTORE POP POP JUMPDEST CALLER PUSH1 0x0 SWAP1 DUP2 MSTORE PUSH1 0x43 PUSH1 0x20 SWAP1 DUP2 MSTORE PUSH1 0x40 DUP1 DUP4 KECCAK256 DUP10 DUP5 MSTORE SWAP1 SWAP2 MSTORE DUP2 KECCAK256 DUP1 SLOAD DUP8 SWAP3 SWAP1 PUSH2 0x1F49 SWAP1 DUP5 SWAP1 PUSH2 0x3CAC JUMP JUMPDEST SWAP1 SWAP2 SSTORE POP POP POP POP POP POP POP POP JUMP JUMPDEST PUSH2 0x1F5F CALLER PUSH2 0x37CE JUMP JUMPDEST PUSH2 0x1FAB JUMPI PUSH1 0x40 MLOAD PUSH3 0x461BCD PUSH1 0xE5 SHL DUP2 MSTORE PUSH1 0x20 PUSH1 0x4 DUP3 ADD MSTORE PUSH1 0x11 PUSH1 0x24 DUP3 ADD MSTORE PUSH32 0x4E6F7420612076616C696420766F746572000000000000000000000000000000 PUSH1 0x44 DUP3 ADD MSTORE PUSH1 0x64 ADD PUSH2 0x9B6 JUMP JUMPDEST CALLER PUSH1 0x0 SWAP1 DUP2 MSTORE PUSH1 0x39 PUSH1 0x20 MSTORE PUSH1 0x40 SWAP1 KECCAK256 SLOAD PUSH1 0xFF AND ISZERO PUSH2 0x200B JUMPI PUSH1 0x40 MLOAD PUSH3 0x461BCD PUSH1 0xE5 SHL DUP2 MSTORE PUSH1 0x20 PUSH1 0x4 DUP3 ADD MSTORE PUSH1 0xD PUSH1 0x24 DUP3 ADD MSTORE PUSH32 0x416C726561647920766F74656400000000000000000000000000000000000000 PUSH1 0x44 DUP3 ADD MSTORE PUSH1 0x64 ADD PUSH2 0x9B6 JUMP JUMPDEST CALLER PUSH1 0x0 DUP2 DUP2 MSTORE PUSH1 0x39 PUSH1 0x20 MSTORE PUSH1 0x40 SWAP1 DUP2 SWAP1 KECCAK256 DUP1 SLOAD PUSH1 0xFF NOT AND PUSH1 0x1 OR SWAP1 SSTORE MLOAD PUSH32 0xA4861C5510BFA99706ED508D728F9C6B365FF27AF1A3012E21980952AD2D844F SWAP1 PUSH2 0x2059 SWAP1 DUP5 ISZERO ISZERO DUP2 MSTORE PUSH1 0x20 ADD SWAP1 JUMP JUMPDEST PUSH1 0x40 MLOAD DUP1 SWAP2 SUB SWAP1 LOG2 POP JUMP JUMPDEST PUSH1 0x3B SLOAD PUSH1 0x3C SLOAD PUSH1 0x0 SWAP2 DUP3 SWAP2 PUSH2 0x2085 SWAP2 PUSH1 0x1 PUSH1 0x1 PUSH1 0xA0 SHL SUB SWAP1 DUP2 AND SWAP2 AND PUSH2 0x3464 JUMP JUMPDEST SWAP1 POP PUSH1 0x1 PUSH1 0x1 PUSH1 0xA0 SHL SUB DUP2 AND PUSH2 0x209D JUMPI PUSH1 0x0 SWAP2 POP POP SWAP1 JUMP JUMPDEST PUSH1 0x0 DUP1 PUSH2 0x20A9 DUP4 PUSH2 0x11C8 JUMP JUMPDEST PUSH1 0x3A SLOAD PUSH1 0x40 MLOAD PUSH32 0x85F8C25900000000000000000000000000000000000000000000000000000000 DUP2 MSTORE PUSH8 0xDE0B6B3A7640000 PUSH1 0x4 DUP3 ADD MSTORE PUSH14 0xFFFFFFFFFFFFFFFFFFFFFFFFFFFF DUP1 DUP5 AND PUSH1 0x24 DUP4 ADD MSTORE DUP5 AND PUSH1 0x44 DUP3 ADD MSTORE SWAP3 SWAP5 POP SWAP1 SWAP3 POP PUSH1 0x0 SWAP2 PUSH1 0x1 PUSH1 0x1 PUSH1 0xA0 SHL SUB SWAP1 SWAP2 AND SWAP1 PUSH4 0x85F8C259 SWAP1 PUSH1 0x64 ADD PUSH1 0x20 PUSH1 0x40 MLOAD DUP1 DUP4 SUB DUP2 DUP7 GAS STATICCALL ISZERO DUP1 ISZERO PUSH2 0x2139 JUMPI RETURNDATASIZE PUSH1 0x0 DUP1 RETURNDATACOPY RETURNDATASIZE PUSH1 0x0 REVERT JUMPDEST POP POP POP POP PUSH1 0x40 MLOAD RETURNDATASIZE PUSH1 0x1F NOT PUSH1 0x1F DUP3 ADD AND DUP3 ADD DUP1 PUSH1 0x40 MSTORE POP DUP2 ADD SWAP1 PUSH2 0x215D SWAP2 SWAP1 PUSH2 0x3DC6 JUMP JUMPDEST SWAP6 SWAP5 POP POP POP POP POP JUMP JUMPDEST PUSH1 0x33 SLOAD PUSH1 0x1 PUSH1 0x1 PUSH1 0xA0 SHL SUB AND CALLER EQ PUSH2 0x21B8 JUMPI PUSH1 0x40 MLOAD PUSH3 0x461BCD PUSH1 0xE5 SHL DUP2 MSTORE PUSH1 0x20 PUSH1 0x4 DUP3 ADD MSTORE PUSH1 0x21 PUSH1 0x24 DUP3 ADD MSTORE PUSH1 0x0 DUP1 MLOAD PUSH1 0x20 PUSH2 0x3EAC DUP4 CODECOPY DUP2 MLOAD SWAP2 MSTORE PUSH1 0x44 DUP3 ADD MSTORE PUSH1 0x37 PUSH1 0xF9 SHL PUSH1 0x64 DUP3 ADD MSTORE PUSH1 0x84 ADD PUSH2 0x9B6 JUMP JUMPDEST PUSH1 0x36 SSTORE JUMP JUMPDEST PUSH1 0x45 SLOAD PUSH1 0x40 DUP1 MLOAD PUSH4 0x3850C7BD PUSH1 0xE0 SHL DUP2 MSTORE SWAP1 MLOAD PUSH1 0x0 SWAP3 PUSH1 0x1 PUSH1 0x1 PUSH1 0xA0 SHL SUB AND SWAP2 DUP4 SWAP2 DUP4 SWAP2 PUSH4 0x3850C7BD SWAP2 PUSH1 0x4 DUP1 DUP4 ADD SWAP3 PUSH1 0xE0 SWAP3 SWAP2 SWAP1 DUP3 SWAP1 SUB ADD DUP2 DUP7 GAS STATICCALL ISZERO DUP1 ISZERO PUSH2 0x220B JUMPI RETURNDATASIZE PUSH1 0x0 DUP1 RETURNDATACOPY RETURNDATASIZE PUSH1 0x0 REVERT JUMPDEST POP POP POP POP PUSH1 0x40 MLOAD RETURNDATASIZE PUSH1 0x1F NOT PUSH1 0x1F DUP3 ADD AND DUP3 ADD DUP1 PUSH1 0x40 MSTORE POP DUP2 ADD SWAP1 PUSH2 0x222F SWAP2 SWAP1 PUSH2 0x3DF1 JUMP JUMPDEST MLOAD SWAP1 POP PUSH1 0x1 PUSH1 0x1 PUSH1 0xA0 SHL SUB DUP2 AND PUSH1 0x0 PUSH1 0x1 PUSH1 0xC0 SHL PUSH2 0x224D DUP4 DUP1 PUSH2 0x3D18 JUMP JUMPDEST PUSH2 0x225F SWAP1 PUSH8 0xDE0B6B3A7640000 PUSH2 0x3D18 JUMP JUMPDEST PUSH2 0x215D SWAP2 SWAP1 PUSH2 0x3D2F JUMP JUMPDEST PUSH1 0x33 SLOAD PUSH1 0x1 PUSH1 0x1 PUSH1 0xA0 SHL SUB AND CALLER EQ PUSH2 0x22BB JUMPI PUSH1 0x40 MLOAD PUSH3 0x461BCD PUSH1 0xE5 SHL DUP2 MSTORE PUSH1 0x20 PUSH1 0x4 DUP3 ADD MSTORE PUSH1 0x21 PUSH1 0x24 DUP3 ADD MSTORE PUSH1 0x0 DUP1 MLOAD PUSH1 0x20 PUSH2 0x3EAC DUP4 CODECOPY DUP2 MLOAD SWAP2 MSTORE PUSH1 0x44 DUP3 ADD MSTORE PUSH1 0x37 PUSH1 0xF9 SHL PUSH1 0x64 DUP3 ADD MSTORE PUSH1 0x84 ADD PUSH2 0x9B6 JUMP JUMPDEST PUSH2 0x22C3 PUSH2 0x376F JUMP JUMPDEST PUSH1 0x40 MLOAD PUSH32 0x70A0823100000000000000000000000000000000000000000000000000000000 DUP2 MSTORE ADDRESS PUSH1 0x4 DUP3 ADD MSTORE PUSH1 0x1 PUSH1 0x1 PUSH1 0xA0 SHL SUB DUP3 AND SWAP1 PUSH4 0xA9059CBB SWAP1 DUP5 SWAP1 DUP4 SWAP1 PUSH4 0x70A08231 SWAP1 PUSH1 0x24 ADD PUSH1 0x20 PUSH1 0x40 MLOAD DUP1 DUP4 SUB DUP2 DUP7 GAS STATICCALL ISZERO DUP1 ISZERO PUSH2 0x232A JUMPI RETURNDATASIZE PUSH1 0x0 DUP1 RETURNDATACOPY RETURNDATASIZE PUSH1 0x0 REVERT JUMPDEST POP POP POP POP PUSH1 0x40 MLOAD RETURNDATASIZE PUSH1 0x1F NOT PUSH1 0x1F DUP3 ADD AND DUP3 ADD DUP1 PUSH1 0x40 MSTORE POP DUP2 ADD SWAP1 PUSH2 0x234E SWAP2 SWAP1 PUSH2 0x3DC6 JUMP JUMPDEST PUSH1 0x40 MLOAD PUSH32 0xFFFFFFFF00000000000000000000000000000000000000000000000000000000 PUSH1 0xE0 DUP6 SWAP1 SHL AND DUP2 MSTORE PUSH1 0x1 PUSH1 0x1 PUSH1 0xA0 SHL SUB SWAP1 SWAP3 AND PUSH1 0x4 DUP4 ADD MSTORE PUSH1 0x24 DUP3 ADD MSTORE PUSH1 0x44 ADD PUSH1 0x20 PUSH1 0x40 MLOAD DUP1 DUP4 SUB DUP2 PUSH1 0x0 DUP8 GAS CALL ISZERO DUP1 ISZERO PUSH2 0x23B1 JUMPI RETURNDATASIZE PUSH1 0x0 DUP1 RETURNDATACOPY RETURNDATASIZE PUSH1 0x0 REVERT JUMPDEST POP POP POP POP PUSH1 0x40 MLOAD RETURNDATASIZE PUSH1 0x1F NOT PUSH1 0x1F DUP3 ADD AND DUP3 ADD DUP1 PUSH1 0x40 MSTORE POP DUP2 ADD SWAP1 PUSH2 0x23D5 SWAP2 SWAP1 PUSH2 0x3CCF JUMP JUMPDEST POP PUSH2 0x23DF PUSH1 0x1 DUP1 SSTORE JUMP JUMPDEST POP POP JUMP JUMPDEST PUSH1 0x1 PUSH1 0x1 PUSH1 0xA0 SHL SUB DUP3 AND PUSH1 0x0 SWAP1 DUP2 MSTORE PUSH1 0x43 PUSH1 0x20 SWAP1 DUP2 MSTORE PUSH1 0x40 DUP1 DUP4 KECCAK256 DUP5 DUP5 MSTORE SWAP1 SWAP2 MSTORE DUP2 KECCAK256 SLOAD DUP2 SWAP1 ISZERO PUSH2 0x250A JUMPI PUSH1 0x0 JUMPDEST PUSH1 0x1 PUSH1 0x1 PUSH1 0xA0 SHL SUB DUP6 AND PUSH1 0x0 SWAP1 DUP2 MSTORE PUSH1 0x3F PUSH1 0x20 SWAP1 DUP2 MSTORE PUSH1 0x40 DUP1 DUP4 KECCAK256 DUP8 DUP5 MSTORE SWAP1 SWAP2 MSTORE SWAP1 KECCAK256 SLOAD DUP2 LT ISZERO PUSH2 0x2508 JUMPI PUSH1 0x0 DUP5 DUP2 MSTORE PUSH1 0x3E PUSH1 0x20 SWAP1 DUP2 MSTORE PUSH1 0x40 DUP1 DUP4 KECCAK256 SLOAD PUSH1 0x1 PUSH1 0x1 PUSH1 0xA0 SHL SUB DUP10 AND DUP5 MSTORE PUSH1 0x3F DUP4 MSTORE DUP2 DUP5 KECCAK256 DUP9 DUP6 MSTORE SWAP1 SWAP3 MSTORE SWAP1 SWAP2 KECCAK256 DUP1 SLOAD TIMESTAMP SWAP3 SWAP2 SWAP1 DUP5 SWAP1 DUP2 LT PUSH2 0x2480 JUMPI PUSH2 0x2480 PUSH2 0x3C80 JUMP JUMPDEST SWAP1 PUSH1 0x0 MSTORE PUSH1 0x20 PUSH1 0x0 KECCAK256 SWAP1 PUSH1 0x6 MUL ADD PUSH1 0x3 ADD SLOAD PUSH2 0x249C SWAP2 SWAP1 PUSH2 0x3CAC JUMP JUMPDEST GT PUSH2 0x24F6 JUMPI PUSH1 0x1 PUSH1 0x1 PUSH1 0xA0 SHL SUB DUP6 AND PUSH1 0x0 SWAP1 DUP2 MSTORE PUSH1 0x3F PUSH1 0x20 SWAP1 DUP2 MSTORE PUSH1 0x40 DUP1 DUP4 KECCAK256 DUP8 DUP5 MSTORE SWAP1 SWAP2 MSTORE SWAP1 KECCAK256 DUP1 SLOAD DUP3 SWAP1 DUP2 LT PUSH2 0x24D6 JUMPI PUSH2 0x24D6 PUSH2 0x3C80 JUMP JUMPDEST SWAP1 PUSH1 0x0 MSTORE PUSH1 0x20 PUSH1 0x0 KECCAK256 SWAP1 PUSH1 0x6 MUL ADD PUSH1 0x0 ADD SLOAD DUP3 PUSH2 0x24F3 SWAP2 SWAP1 PUSH2 0x3CAC JUMP JUMPDEST SWAP2 POP JUMPDEST DUP1 PUSH2 0x2500 DUP2 PUSH2 0x3CFF JUMP JUMPDEST SWAP2 POP POP PUSH2 0x2411 JUMP JUMPDEST POP JUMPDEST SWAP1 POP JUMPDEST SWAP3 SWAP2 POP POP JUMP JUMPDEST PUSH1 0x0 SLOAD PUSH2 0x100 SWAP1 DIV PUSH1 0xFF AND ISZERO DUP1 DUP1 ISZERO PUSH2 0x2533 JUMPI POP PUSH1 0x0 SLOAD PUSH1 0x1 PUSH1 0xFF SWAP1 SWAP2 AND LT JUMPDEST DUP1 PUSH2 0x254D JUMPI POP ADDRESS EXTCODESIZE ISZERO DUP1 ISZERO PUSH2 0x254D JUMPI POP PUSH1 0x0 SLOAD PUSH1 0xFF AND PUSH1 0x1 EQ JUMPDEST PUSH2 0x25BF JUMPI PUSH1 0x40 MLOAD PUSH3 0x461BCD PUSH1 0xE5 SHL DUP2 MSTORE PUSH1 0x20 PUSH1 0x4 DUP3 ADD MSTORE PUSH1 0x2E PUSH1 0x24 DUP3 ADD MSTORE PUSH32 0x496E697469616C697A61626C653A20636F6E747261637420697320616C726561 PUSH1 0x44 DUP3 ADD MSTORE PUSH32 0x647920696E697469616C697A6564000000000000000000000000000000000000 PUSH1 0x64 DUP3 ADD MSTORE PUSH1 0x84 ADD PUSH2 0x9B6 JUMP JUMPDEST PUSH1 0x0 DUP1 SLOAD PUSH1 0xFF NOT AND PUSH1 0x1 OR SWAP1 SSTORE DUP1 ISZERO PUSH2 0x25E2 JUMPI PUSH1 0x0 DUP1 SLOAD PUSH2 0xFF00 NOT AND PUSH2 0x100 OR SWAP1 SSTORE JUMPDEST PUSH2 0x25EA PUSH2 0x3837 JUMP JUMPDEST PUSH1 0x33 DUP1 SLOAD PUSH1 0x1 PUSH1 0x1 PUSH1 0xA0 SHL SUB NOT SWAP1 DUP2 AND CALLER OR SWAP1 SWAP2 SSTORE PUSH4 0x1E13380 PUSH1 0x35 SSTORE PUSH5 0xE8D4A51000 PUSH1 0x36 SSTORE PUSH1 0x3A DUP1 SLOAD DUP3 AND PUSH20 0x9AC64CC6E4415144C455BD8E4837FEA55603E5C3 OR SWAP1 SSTORE PUSH1 0x3B DUP1 SLOAD DUP3 AND PUSH20 0x9F7B09EB38ED912AB5932DCCAD0B1F501ABFE6FD OR SWAP1 SSTORE PUSH1 0x3C DUP1 SLOAD DUP3 AND PUSH20 0xD1FAC5FF5D03B70D3383909692D09FC6D97C8219 OR SWAP1 SSTORE PUSH1 0x3D DUP1 SLOAD SWAP1 SWAP2 AND PUSH20 0xB7926C0430AFB07AA7DEFDE6DA862AE0BDE767BC OR SWAP1 SSTORE PUSH1 0x0 JUMPDEST DUP3 MLOAD DUP2 LT ISZERO PUSH2 0x26F6 JUMPI PUSH1 0x38 DUP4 DUP3 DUP2 MLOAD DUP2 LT PUSH2 0x26A9 JUMPI PUSH2 0x26A9 PUSH2 0x3C80 JUMP JUMPDEST PUSH1 0x20 SWAP1 DUP2 MUL SWAP2 SWAP1 SWAP2 ADD DUP2 ADD MLOAD DUP3 SLOAD PUSH1 0x1 DUP2 ADD DUP5 SSTORE PUSH1 0x0 SWAP4 DUP5 MSTORE SWAP2 SWAP1 SWAP3 KECCAK256 ADD DUP1 SLOAD PUSH1 0x1 PUSH1 0x1 PUSH1 0xA0 SHL SUB NOT AND PUSH1 0x1 PUSH1 0x1 PUSH1 0xA0 SHL SUB SWAP1 SWAP3 AND SWAP2 SWAP1 SWAP2 OR SWAP1 SSTORE DUP1 PUSH2 0x26EE DUP2 PUSH2 0x3CFF JUMP JUMPDEST SWAP2 POP POP PUSH2 0x268C JUMP JUMPDEST POP DUP1 ISZERO PUSH2 0x23DF JUMPI PUSH1 0x0 DUP1 SLOAD PUSH2 0xFF00 NOT AND SWAP1 SSTORE PUSH1 0x40 MLOAD PUSH1 0x1 DUP2 MSTORE PUSH32 0x7F26B83FF96E1F2B6A682F133852F6798A09C465DA95921460CEFB3847402498 SWAP1 PUSH1 0x20 ADD PUSH1 0x40 MLOAD DUP1 SWAP2 SUB SWAP1 LOG1 POP POP JUMP JUMPDEST PUSH1 0x33 SLOAD PUSH1 0x1 PUSH1 0x1 PUSH1 0xA0 SHL SUB AND CALLER EQ PUSH2 0x2792 JUMPI PUSH1 0x40 MLOAD PUSH3 0x461BCD PUSH1 0xE5 SHL DUP2 MSTORE PUSH1 0x20 PUSH1 0x4 DUP3 ADD MSTORE PUSH1 0x21 PUSH1 0x24 DUP3 ADD MSTORE PUSH1 0x0 DUP1 MLOAD PUSH1 0x20 PUSH2 0x3EAC DUP4 CODECOPY DUP2 MLOAD SWAP2 MSTORE PUSH1 0x44 DUP3 ADD MSTORE PUSH1 0x37 PUSH1 0xF9 SHL PUSH1 0x64 DUP3 ADD MSTORE PUSH1 0x84 ADD PUSH2 0x9B6 JUMP JUMPDEST PUSH1 0x3C DUP1 SLOAD PUSH1 0x1 PUSH1 0x1 PUSH1 0xA0 SHL SUB NOT AND PUSH1 0x1 PUSH1 0x1 PUSH1 0xA0 SHL SUB SWAP3 SWAP1 SWAP3 AND SWAP2 SWAP1 SWAP2 OR SWAP1 SSTORE JUMP JUMPDEST DUP1 PUSH1 0x34 SLOAD DUP2 LT PUSH2 0x27F5 JUMPI PUSH1 0x40 MLOAD PUSH3 0x461BCD PUSH1 0xE5 SHL DUP2 MSTORE PUSH1 0x20 PUSH1 0x4 DUP3 ADD MSTORE PUSH1 0xC PUSH1 0x24 DUP3 ADD MSTORE PUSH12 0x125B9D985B1A5908141BDBDB PUSH1 0xA2 SHL PUSH1 0x44 DUP3 ADD MSTORE PUSH1 0x64 ADD PUSH2 0x9B6 JUMP JUMPDEST PUSH2 0x27FD PUSH2 0x376F JUMP JUMPDEST PUSH1 0x0 DUP3 DUP2 MSTORE PUSH1 0x3E PUSH1 0x20 MSTORE PUSH1 0x40 SWAP1 KECCAK256 PUSH1 0x5 ADD SLOAD DUP3 SWAP1 PUSH1 0xFF AND PUSH2 0x2855 JUMPI PUSH1 0x40 MLOAD PUSH3 0x461BCD PUSH1 0xE5 SHL DUP2 MSTORE PUSH1 0x20 PUSH1 0x4 DUP3 ADD MSTORE PUSH1 0x12 PUSH1 0x24 DUP3 ADD MSTORE PUSH18 0x506F6F6C204973204E6F7420416374697665 PUSH1 0x70 SHL PUSH1 0x44 DUP3 ADD MSTORE PUSH1 0x64 ADD PUSH2 0x9B6 JUMP JUMPDEST PUSH1 0x0 DUP4 DUP2 MSTORE PUSH1 0x3E PUSH1 0x20 MSTORE PUSH1 0x40 DUP2 KECCAK256 SWAP1 DUP1 JUMPDEST CALLER PUSH1 0x0 SWAP1 DUP2 MSTORE PUSH1 0x3F PUSH1 0x20 SWAP1 DUP2 MSTORE PUSH1 0x40 DUP1 DUP4 KECCAK256 DUP10 DUP5 MSTORE SWAP1 SWAP2 MSTORE SWAP1 KECCAK256 SLOAD DUP2 LT ISZERO PUSH2 0x2B10 JUMPI CALLER PUSH1 0x0 SWAP1 DUP2 MSTORE PUSH1 0x3F PUSH1 0x20 SWAP1 DUP2 MSTORE PUSH1 0x40 DUP1 DUP4 KECCAK256 DUP10 DUP5 MSTORE SWAP1 SWAP2 MSTORE DUP2 KECCAK256 DUP1 SLOAD DUP4 SWAP1 DUP2 LT PUSH2 0x28B4 JUMPI PUSH2 0x28B4 PUSH2 0x3C80 JUMP JUMPDEST SWAP1 PUSH1 0x0 MSTORE PUSH1 0x20 PUSH1 0x0 KECCAK256 SWAP1 PUSH1 0x6 MUL ADD SWAP1 POP PUSH1 0x0 DUP2 PUSH1 0x0 ADD SLOAD GT ISZERO PUSH2 0x2AFD JUMPI TIMESTAMP PUSH1 0x0 PUSH2 0x28DF DUP10 DUP6 CALLER PUSH2 0xF9D JUMP JUMPDEST PUSH1 0x4 DUP5 ADD SLOAD SWAP1 SWAP2 POP PUSH1 0x1 PUSH1 0x1 PUSH1 0xA0 SHL SUB AND ISZERO PUSH2 0x2AA5 JUMPI PUSH1 0x4 DUP1 DUP8 ADD SLOAD SWAP1 DUP5 ADD SLOAD PUSH1 0x1 PUSH1 0x1 PUSH1 0xA0 SHL SUB AND PUSH1 0x0 SWAP1 DUP2 MSTORE PUSH1 0x41 PUSH1 0x20 MSTORE PUSH1 0x40 SWAP1 KECCAK256 SLOAD ISZERO PUSH2 0x293B JUMPI POP PUSH1 0x4 DUP4 ADD SLOAD PUSH1 0x1 PUSH1 0x1 PUSH1 0xA0 SHL SUB AND PUSH1 0x0 SWAP1 DUP2 MSTORE PUSH1 0x41 PUSH1 0x20 MSTORE PUSH1 0x40 SWAP1 KECCAK256 SLOAD JUMPDEST PUSH1 0x0 PUSH2 0x2710 PUSH2 0x294A DUP4 DUP6 PUSH2 0x3D18 JUMP JUMPDEST PUSH2 0x2954 SWAP2 SWAP1 PUSH2 0x3D2F JUMP JUMPDEST SWAP1 POP DUP1 ISZERO PUSH2 0x2AA2 JUMPI PUSH1 0x2 DUP9 ADD SLOAD PUSH1 0x4 DUP7 DUP2 ADD SLOAD PUSH1 0x40 MLOAD PUSH4 0xA9059CBB PUSH1 0xE0 SHL DUP2 MSTORE PUSH1 0x1 PUSH1 0x1 PUSH1 0xA0 SHL SUB SWAP2 DUP3 AND SWAP3 DUP2 ADD SWAP3 SWAP1 SWAP3 MSTORE PUSH1 0x24 DUP3 ADD DUP5 SWAP1 MSTORE SWAP1 SWAP2 AND SWAP1 PUSH4 0xA9059CBB SWAP1 PUSH1 0x44 ADD PUSH1 0x20 PUSH1 0x40 MLOAD DUP1 DUP4 SUB DUP2 PUSH1 0x0 DUP8 GAS CALL ISZERO DUP1 ISZERO PUSH2 0x29B9 JUMPI RETURNDATASIZE PUSH1 0x0 DUP1 RETURNDATACOPY RETURNDATASIZE PUSH1 0x0 REVERT JUMPDEST POP POP POP POP PUSH1 0x40 MLOAD RETURNDATASIZE PUSH1 0x1F NOT PUSH1 0x1F DUP3 ADD AND DUP3 ADD DUP1 PUSH1 0x40 MSTORE POP DUP2 ADD SWAP1 PUSH2 0x29DD SWAP2 SWAP1 PUSH2 0x3CCF JUMP JUMPDEST PUSH2 0x2A29 JUMPI PUSH1 0x40 MLOAD PUSH3 0x461BCD PUSH1 0xE5 SHL DUP2 MSTORE PUSH1 0x20 PUSH1 0x4 DUP3 ADD MSTORE PUSH1 0x1F PUSH1 0x24 DUP3 ADD MSTORE PUSH32 0x526566657272616C20526577617264207472616E73666572206661696C656400 PUSH1 0x44 DUP3 ADD MSTORE PUSH1 0x64 ADD PUSH2 0x9B6 JUMP JUMPDEST PUSH1 0x4 DUP6 ADD SLOAD PUSH1 0x1 PUSH1 0x1 PUSH1 0xA0 SHL SUB AND PUSH1 0x0 SWAP1 DUP2 MSTORE PUSH1 0x47 PUSH1 0x20 SWAP1 DUP2 MSTORE PUSH1 0x40 DUP1 DUP4 KECCAK256 CALLER DUP5 MSTORE DUP3 MSTORE DUP1 DUP4 KECCAK256 DUP15 DUP5 MSTORE SWAP1 SWAP2 MSTORE DUP2 KECCAK256 DUP1 SLOAD DUP4 SWAP3 SWAP1 PUSH2 0x2A68 SWAP1 DUP5 SWAP1 PUSH2 0x3CAC JUMP JUMPDEST SWAP1 SWAP2 SSTORE POP POP PUSH1 0x4 DUP6 ADD SLOAD PUSH1 0x1 PUSH1 0x1 PUSH1 0xA0 SHL SUB AND PUSH1 0x0 SWAP1 DUP2 MSTORE PUSH1 0x42 PUSH1 0x20 MSTORE PUSH1 0x40 DUP2 KECCAK256 PUSH1 0x3 ADD DUP1 SLOAD DUP4 SWAP3 SWAP1 PUSH2 0x2A9C SWAP1 DUP5 SWAP1 PUSH2 0x3CAC JUMP JUMPDEST SWAP1 SWAP2 SSTORE POP POP JUMPDEST POP POP JUMPDEST CALLER PUSH1 0x0 SWAP1 DUP2 MSTORE PUSH1 0x42 PUSH1 0x20 MSTORE PUSH1 0x40 DUP2 KECCAK256 PUSH1 0x2 ADD DUP1 SLOAD DUP4 SWAP3 SWAP1 PUSH2 0x2AC7 SWAP1 DUP5 SWAP1 PUSH2 0x3CAC JUMP JUMPDEST SWAP3 POP POP DUP2 SWAP1 SSTORE POP DUP1 DUP4 PUSH1 0x2 ADD PUSH1 0x0 DUP3 DUP3 SLOAD PUSH2 0x2AE2 SWAP2 SWAP1 PUSH2 0x3CAC JUMP JUMPDEST SWAP1 SWAP2 SSTORE POP POP PUSH1 0x1 DUP4 ADD DUP3 SWAP1 SSTORE PUSH2 0x2AF8 DUP2 DUP7 PUSH2 0x3CAC JUMP JUMPDEST SWAP5 POP POP POP JUMPDEST POP DUP1 PUSH2 0x2B08 DUP2 PUSH2 0x3CFF JUMP JUMPDEST SWAP2 POP POP PUSH2 0x2866 JUMP JUMPDEST POP DUP1 ISZERO PUSH2 0x2BDA JUMPI PUSH1 0x2 DUP3 ADD SLOAD PUSH1 0x40 MLOAD PUSH4 0xA9059CBB PUSH1 0xE0 SHL DUP2 MSTORE CALLER PUSH1 0x4 DUP3 ADD MSTORE PUSH1 0x24 DUP2 ADD DUP4 SWAP1 MSTORE PUSH1 0x1 PUSH1 0x1 PUSH1 0xA0 SHL SUB SWAP1 SWAP2 AND SWAP1 PUSH4 0xA9059CBB SWAP1 PUSH1 0x44 ADD PUSH1 0x20 PUSH1 0x40 MLOAD DUP1 DUP4 SUB DUP2 PUSH1 0x0 DUP8 GAS CALL ISZERO DUP1 ISZERO PUSH2 0x2B6A JUMPI RETURNDATASIZE PUSH1 0x0 DUP1 RETURNDATACOPY RETURNDATASIZE PUSH1 0x0 REVERT JUMPDEST POP POP POP POP PUSH1 0x40 MLOAD RETURNDATASIZE PUSH1 0x1F NOT PUSH1 0x1F DUP3 ADD AND DUP3 ADD DUP1 PUSH1 0x40 MSTORE POP DUP2 ADD SWAP1 PUSH2 0x2B8E SWAP2 SWAP1 PUSH2 0x3CCF JUMP JUMPDEST PUSH2 0x2BDA JUMPI PUSH1 0x40 MLOAD PUSH3 0x461BCD PUSH1 0xE5 SHL DUP2 MSTORE PUSH1 0x20 PUSH1 0x4 DUP3 ADD MSTORE PUSH1 0x16 PUSH1 0x24 DUP3 ADD MSTORE PUSH32 0x526577617264207472616E73666572206661696C656400000000000000000000 PUSH1 0x44 DUP3 ADD MSTORE PUSH1 0x64 ADD PUSH2 0x9B6 JUMP JUMPDEST POP POP POP PUSH2 0x23DF PUSH1 0x1 DUP1 SSTORE JUMP JUMPDEST PUSH1 0x33 SLOAD PUSH1 0x1 PUSH1 0x1 PUSH1 0xA0 SHL SUB AND CALLER EQ PUSH2 0x2C38 JUMPI PUSH1 0x40 MLOAD PUSH3 0x461BCD PUSH1 0xE5 SHL DUP2 MSTORE PUSH1 0x20 PUSH1 0x4 DUP3 ADD MSTORE PUSH1 0x21 PUSH1 0x24 DUP3 ADD MSTORE PUSH1 0x0 DUP1 MLOAD PUSH1 0x20 PUSH2 0x3EAC DUP4 CODECOPY DUP2 MLOAD SWAP2 MSTORE PUSH1 0x44 DUP3 ADD MSTORE PUSH1 0x37 PUSH1 0xF9 SHL PUSH1 0x64 DUP3 ADD MSTORE PUSH1 0x84 ADD PUSH2 0x9B6 JUMP JUMPDEST DUP2 PUSH1 0x34 SLOAD DUP2 LT PUSH2 0x2C79 JUMPI PUSH1 0x40 MLOAD PUSH3 0x461BCD PUSH1 0xE5 SHL DUP2 MSTORE PUSH1 0x20 PUSH1 0x4 DUP3 ADD MSTORE PUSH1 0xC PUSH1 0x24 DUP3 ADD MSTORE PUSH12 0x125B9D985B1A5908141BDBDB PUSH1 0xA2 SHL PUSH1 0x44 DUP3 ADD MSTORE PUSH1 0x64 ADD PUSH2 0x9B6 JUMP JUMPDEST PUSH1 0x0 DUP4 DUP2 MSTORE PUSH1 0x3E PUSH1 0x20 MSTORE PUSH1 0x40 SWAP1 KECCAK256 PUSH1 0x5 ADD SLOAD DUP4 SWAP1 PUSH1 0xFF AND PUSH2 0x2CD1 JUMPI PUSH1 0x40 MLOAD PUSH3 0x461BCD PUSH1 0xE5 SHL DUP2 MSTORE PUSH1 0x20 PUSH1 0x4 DUP3 ADD MSTORE PUSH1 0x12 PUSH1 0x24 DUP3 ADD MSTORE PUSH18 0x506F6F6C204973204E6F7420416374697665 PUSH1 0x70 SHL PUSH1 0x44 DUP3 ADD MSTORE PUSH1 0x64 ADD PUSH2 0x9B6 JUMP JUMPDEST PUSH1 0x0 DUP5 GT DUP1 ISZERO PUSH2 0x2CE3 JUMPI POP PUSH1 0x34 SLOAD DUP5 GT ISZERO JUMPDEST PUSH2 0x2D21 JUMPI PUSH1 0x40 MLOAD PUSH3 0x461BCD PUSH1 0xE5 SHL DUP2 MSTORE PUSH1 0x20 PUSH1 0x4 DUP3 ADD MSTORE PUSH1 0xF PUSH1 0x24 DUP3 ADD MSTORE PUSH15 0x125B9D985B1A59081C1BDBDB081251 PUSH1 0x8A SHL PUSH1 0x44 DUP3 ADD MSTORE PUSH1 0x64 ADD PUSH2 0x9B6 JUMP JUMPDEST POP POP PUSH1 0x0 SWAP2 DUP3 MSTORE PUSH1 0x3E PUSH1 0x20 MSTORE PUSH1 0x40 SWAP1 SWAP2 KECCAK256 SSTORE JUMP JUMPDEST PUSH1 0x33 SLOAD PUSH1 0x1 PUSH1 0x1 PUSH1 0xA0 SHL SUB AND CALLER EQ PUSH2 0x2D87 JUMPI PUSH1 0x40 MLOAD PUSH3 0x461BCD PUSH1 0xE5 SHL DUP2 MSTORE PUSH1 0x20 PUSH1 0x4 DUP3 ADD MSTORE PUSH1 0x21 PUSH1 0x24 DUP3 ADD MSTORE PUSH1 0x0 DUP1 MLOAD PUSH1 0x20 PUSH2 0x3EAC DUP4 CODECOPY DUP2 MLOAD SWAP2 MSTORE PUSH1 0x44 DUP3 ADD MSTORE PUSH1 0x37 PUSH1 0xF9 SHL PUSH1 0x64 DUP3 ADD MSTORE PUSH1 0x84 ADD PUSH2 0x9B6 JUMP JUMPDEST PUSH2 0x2D8F PUSH2 0x376F JUMP JUMPDEST DUP2 PUSH1 0x34 SLOAD DUP2 LT PUSH2 0x2DD0 JUMPI PUSH1 0x40 MLOAD PUSH3 0x461BCD PUSH1 0xE5 SHL DUP2 MSTORE PUSH1 0x20 PUSH1 0x4 DUP3 ADD MSTORE PUSH1 0xC PUSH1 0x24 DUP3 ADD MSTORE PUSH12 0x125B9D985B1A5908141BDBDB PUSH1 0xA2 SHL PUSH1 0x44 DUP3 ADD MSTORE PUSH1 0x64 ADD PUSH2 0x9B6 JUMP JUMPDEST PUSH1 0x0 DUP4 DUP2 MSTORE PUSH1 0x3E PUSH1 0x20 MSTORE PUSH1 0x40 SWAP1 KECCAK256 PUSH1 0x5 ADD SLOAD DUP4 SWAP1 PUSH1 0xFF AND PUSH2 0x2E28 JUMPI PUSH1 0x40 MLOAD PUSH3 0x461BCD PUSH1 0xE5 SHL DUP2 MSTORE PUSH1 0x20 PUSH1 0x4 DUP3 ADD MSTORE PUSH1 0x12 PUSH1 0x24 DUP3 ADD MSTORE PUSH18 0x506F6F6C204973204E6F7420416374697665 PUSH1 0x70 SHL PUSH1 0x44 DUP3 ADD MSTORE PUSH1 0x64 ADD PUSH2 0x9B6 JUMP JUMPDEST PUSH1 0x0 DUP5 GT DUP1 ISZERO PUSH2 0x2E3A JUMPI POP PUSH1 0x34 SLOAD DUP5 GT ISZERO JUMPDEST PUSH2 0x2E78 JUMPI PUSH1 0x40 MLOAD PUSH3 0x461BCD PUSH1 0xE5 SHL DUP2 MSTORE PUSH1 0x20 PUSH1 0x4 DUP3 ADD MSTORE PUSH1 0xF PUSH1 0x24 DUP3 ADD MSTORE PUSH15 0x125B9D985B1A59081C1BDBDB081251 PUSH1 0x8A SHL PUSH1 0x44 DUP3 ADD MSTORE PUSH1 0x64 ADD PUSH2 0x9B6 JUMP JUMPDEST POP POP PUSH1 0x0 DUP3 DUP2 MSTORE PUSH1 0x3E PUSH1 0x20 MSTORE PUSH1 0x40 SWAP1 KECCAK256 PUSH1 0x2 ADD DUP1 SLOAD PUSH1 0x1 PUSH1 0x1 PUSH1 0xA0 SHL SUB NOT AND PUSH1 0x1 PUSH1 0x1 PUSH1 0xA0 SHL SUB DUP4 AND OR SWAP1 SSTORE PUSH1 0x1 DUP1 SSTORE POP POP JUMP JUMPDEST PUSH1 0x33 SLOAD PUSH1 0x1 PUSH1 0x1 PUSH1 0xA0 SHL SUB AND CALLER EQ PUSH2 0x2EFE JUMPI PUSH1 0x40 MLOAD PUSH3 0x461BCD PUSH1 0xE5 SHL DUP2 MSTORE PUSH1 0x20 PUSH1 0x4 DUP3 ADD MSTORE PUSH1 0x21 PUSH1 0x24 DUP3 ADD MSTORE PUSH1 0x0 DUP1 MLOAD PUSH1 0x20 PUSH2 0x3EAC DUP4 CODECOPY DUP2 MLOAD SWAP2 MSTORE PUSH1 0x44 DUP3 ADD MSTORE PUSH1 0x37 PUSH1 0xF9 SHL PUSH1 0x64 DUP3 ADD MSTORE PUSH1 0x84 ADD PUSH2 0x9B6 JUMP JUMPDEST DUP2 PUSH1 0x34 SLOAD DUP2 LT PUSH2 0x2F3F JUMPI PUSH1 0x40 MLOAD PUSH3 0x461BCD PUSH1 0xE5 SHL DUP2 MSTORE PUSH1 0x20 PUSH1 0x4 DUP3 ADD MSTORE PUSH1 0xC PUSH1 0x24 DUP3 ADD MSTORE PUSH12 0x125B9D985B1A5908141BDBDB PUSH1 0xA2 SHL PUSH1 0x44 DUP3 ADD MSTORE PUSH1 0x64 ADD PUSH2 0x9B6 JUMP JUMPDEST PUSH1 0x0 DUP4 DUP2 MSTORE PUSH1 0x3E PUSH1 0x20 MSTORE PUSH1 0x40 SWAP1 KECCAK256 PUSH1 0x5 ADD SLOAD DUP4 SWAP1 PUSH1 0xFF AND PUSH2 0x2F97 JUMPI PUSH1 0x40 MLOAD PUSH3 0x461BCD PUSH1 0xE5 SHL DUP2 MSTORE PUSH1 0x20 PUSH1 0x4 DUP3 ADD MSTORE PUSH1 0x12 PUSH1 0x24 DUP3 ADD MSTORE PUSH18 0x506F6F6C204973204E6F7420416374697665 PUSH1 0x70 SHL PUSH1 0x44 DUP3 ADD MSTORE PUSH1 0x64 ADD PUSH2 0x9B6 JUMP JUMPDEST POP POP PUSH1 0x0 SWAP2 DUP3 MSTORE PUSH1 0x3E PUSH1 0x20 MSTORE PUSH1 0x40 SWAP1 SWAP2 KECCAK256 PUSH1 0x4 ADD SSTORE JUMP JUMPDEST PUSH1 0x33 SLOAD PUSH1 0x1 PUSH1 0x1 PUSH1 0xA0 SHL SUB AND CALLER EQ PUSH2 0x3000 JUMPI PUSH1 0x40 MLOAD PUSH3 0x461BCD PUSH1 0xE5 SHL DUP2 MSTORE PUSH1 0x20 PUSH1 0x4 DUP3 ADD MSTORE PUSH1 0x21 PUSH1 0x24 DUP3 ADD MSTORE PUSH1 0x0 DUP1 MLOAD PUSH1 0x20 PUSH2 0x3EAC DUP4 CODECOPY DUP2 MLOAD SWAP2 MSTORE PUSH1 0x44 DUP3 ADD MSTORE PUSH1 0x37 PUSH1 0xF9 SHL PUSH1 0x64 DUP3 ADD MSTORE PUSH1 0x84 ADD PUSH2 0x9B6 JUMP JUMPDEST PUSH1 0x38 SLOAD PUSH1 0x0 SWAP1 DUP2 JUMPDEST DUP2 DUP2 LT ISZERO PUSH2 0x3074 JUMPI PUSH1 0x39 PUSH1 0x0 PUSH1 0x38 DUP4 DUP2 SLOAD DUP2 LT PUSH2 0x3027 JUMPI PUSH2 0x3027 PUSH2 0x3C80 JUMP JUMPDEST PUSH1 0x0 SWAP2 DUP3 MSTORE PUSH1 0x20 DUP1 DUP4 KECCAK256 SWAP1 SWAP2 ADD SLOAD PUSH1 0x1 PUSH1 0x1 PUSH1 0xA0 SHL SUB AND DUP4 MSTORE DUP3 ADD SWAP3 SWAP1 SWAP3 MSTORE PUSH1 0x40 ADD SWAP1 KECCAK256 SLOAD PUSH1 0xFF AND ISZERO PUSH2 0x3062 JUMPI DUP3 PUSH2 0x305E DUP2 PUSH2 0x3CFF JUMP JUMPDEST SWAP4 POP POP JUMPDEST DUP1 PUSH2 0x306C DUP2 PUSH2 0x3CFF JUMP JUMPDEST SWAP2 POP POP PUSH2 0x3008 JUMP JUMPDEST POP DUP2 DUP2 EQ DUP1 PUSH2 0x30C5 JUMPI PUSH1 0x40 MLOAD PUSH3 0x461BCD PUSH1 0xE5 SHL DUP2 MSTORE PUSH1 0x20 PUSH1 0x4 DUP3 ADD MSTORE PUSH1 0x16 PUSH1 0x24 DUP3 ADD MSTORE PUSH32 0x496E73756666696369656E7420617070726F76616C7300000000000000000000 PUSH1 0x44 DUP3 ADD MSTORE PUSH1 0x64 ADD PUSH2 0x9B6 JUMP JUMPDEST PUSH1 0x37 DUP1 SLOAD PUSH1 0x33 DUP1 SLOAD PUSH1 0x1 PUSH1 0x1 PUSH1 0xA0 SHL SUB DUP4 AND PUSH1 0x1 PUSH1 0x1 PUSH1 0xA0 SHL SUB NOT SWAP2 DUP3 AND DUP2 OR SWAP1 SWAP3 SSTORE SWAP1 SWAP2 AND SWAP1 SWAP2 SSTORE PUSH1 0x0 JUMPDEST DUP4 DUP2 LT ISZERO PUSH2 0x160C JUMPI PUSH1 0x0 PUSH1 0x39 PUSH1 0x0 PUSH1 0x38 DUP5 DUP2 SLOAD DUP2 LT PUSH2 0x3112 JUMPI PUSH2 0x3112 PUSH2 0x3C80 JUMP JUMPDEST PUSH1 0x0 SWAP2 DUP3 MSTORE PUSH1 0x20 DUP1 DUP4 KECCAK256 SWAP2 SWAP1 SWAP2 ADD SLOAD PUSH1 0x1 PUSH1 0x1 PUSH1 0xA0 SHL SUB AND DUP4 MSTORE DUP3 ADD SWAP3 SWAP1 SWAP3 MSTORE PUSH1 0x40 ADD SWAP1 KECCAK256 DUP1 SLOAD PUSH1 0xFF NOT AND SWAP2 ISZERO ISZERO SWAP2 SWAP1 SWAP2 OR SWAP1 SSTORE DUP1 PUSH2 0x3150 DUP2 PUSH2 0x3CFF JUMP JUMPDEST SWAP2 POP POP PUSH2 0x30F1 JUMP JUMPDEST PUSH1 0x46 PUSH1 0x20 MSTORE DUP3 PUSH1 0x0 MSTORE PUSH1 0x40 PUSH1 0x0 KECCAK256 PUSH1 0x20 MSTORE DUP2 PUSH1 0x0 MSTORE PUSH1 0x40 PUSH1 0x0 KECCAK256 DUP2 DUP2 SLOAD DUP2 LT PUSH2 0x3180 JUMPI PUSH1 0x0 DUP1 REVERT JUMPDEST PUSH1 0x0 SWAP2 DUP3 MSTORE PUSH1 0x20 SWAP1 SWAP2 KECCAK256 ADD SLOAD PUSH1 0x1 PUSH1 0x1 PUSH1 0xA0 SHL SUB AND SWAP3 POP DUP4 SWAP2 POP POP JUMP JUMPDEST PUSH1 0x33 SLOAD PUSH1 0x1 PUSH1 0x1 PUSH1 0xA0 SHL SUB AND CALLER EQ PUSH2 0x31EF JUMPI PUSH1 0x40 MLOAD PUSH3 0x461BCD PUSH1 0xE5 SHL DUP2 MSTORE PUSH1 0x20 PUSH1 0x4 DUP3 ADD MSTORE PUSH1 0x21 PUSH1 0x24 DUP3 ADD MSTORE PUSH1 0x0 DUP1 MLOAD PUSH1 0x20 PUSH2 0x3EAC DUP4 CODECOPY DUP2 MLOAD SWAP2 MSTORE PUSH1 0x44 DUP3 ADD MSTORE PUSH1 0x37 PUSH1 0xF9 SHL PUSH1 0x64 DUP3 ADD MSTORE PUSH1 0x84 ADD PUSH2 0x9B6 JUMP JUMPDEST PUSH1 0x3A DUP1 SLOAD PUSH1 0x1 PUSH1 0x1 PUSH1 0xA0 SHL SUB NOT AND PUSH1 0x1 PUSH1 0x1 PUSH1 0xA0 SHL SUB SWAP3 SWAP1 SWAP3 AND SWAP2 SWAP1 SWAP2 OR SWAP1 SSTORE JUMP JUMPDEST PUSH1 0x0 DUP1 DUP1 JUMPDEST PUSH1 0x1 PUSH1 0x1 PUSH1 0xA0 SHL SUB DUP5 AND PUSH1 0x0 SWAP1 DUP2 MSTORE PUSH1 0x3F PUSH1 0x20 SWAP1 DUP2 MSTORE PUSH1 0x40 DUP1 DUP4 KECCAK256 DUP9 DUP5 MSTORE SWAP1 SWAP2 MSTORE SWAP1 KECCAK256 SLOAD DUP2 LT ISZERO PUSH2 0x2508 JUMPI PUSH2 0x324C DUP6 DUP3 DUP7 PUSH2 0xF9D JUMP JUMPDEST PUSH2 0x3256 SWAP1 DUP4 PUSH2 0x3CAC JUMP JUMPDEST SWAP2 POP DUP1 PUSH2 0x3262 DUP2 PUSH2 0x3CFF JUMP JUMPDEST SWAP2 POP POP PUSH2 0x3216 JUMP JUMPDEST PUSH1 0x33 SLOAD PUSH1 0x1 PUSH1 0x1 PUSH1 0xA0 SHL SUB AND CALLER EQ PUSH2 0x32BC JUMPI PUSH1 0x40 MLOAD PUSH3 0x461BCD PUSH1 0xE5 SHL DUP2 MSTORE PUSH1 0x20 PUSH1 0x4 DUP3 ADD MSTORE PUSH1 0x21 PUSH1 0x24 DUP3 ADD MSTORE PUSH1 0x0 DUP1 MLOAD PUSH1 0x20 PUSH2 0x3EAC DUP4 CODECOPY DUP2 MLOAD SWAP2 MSTORE PUSH1 0x44 DUP3 ADD MSTORE PUSH1 0x37 PUSH1 0xF9 SHL PUSH1 0x64 DUP3 ADD MSTORE PUSH1 0x84 ADD PUSH2 0x9B6 JUMP JUMPDEST PUSH2 0x32C4 PUSH2 0x376F JUMP JUMPDEST DUP2 PUSH1 0x34 SLOAD DUP2 LT PUSH2 0x3305 JUMPI PUSH1 0x40 MLOAD PUSH3 0x461BCD PUSH1 0xE5 SHL DUP2 MSTORE PUSH1 0x20 PUSH1 0x4 DUP3 ADD MSTORE PUSH1 0xC PUSH1 0x24 DUP3 ADD MSTORE PUSH12 0x125B9D985B1A5908141BDBDB PUSH1 0xA2 SHL PUSH1 0x44 DUP3 ADD MSTORE PUSH1 0x64 ADD PUSH2 0x9B6 JUMP JUMPDEST PUSH1 0x0 DUP4 DUP2 MSTORE PUSH1 0x3E PUSH1 0x20 MSTORE PUSH1 0x40 SWAP1 KECCAK256 PUSH1 0x5 ADD SLOAD DUP4 SWAP1 PUSH1 0xFF AND PUSH2 0x335D JUMPI PUSH1 0x40 MLOAD PUSH3 0x461BCD PUSH1 0xE5 SHL DUP2 MSTORE PUSH1 0x20 PUSH1 0x4 DUP3 ADD MSTORE PUSH1 0x12 PUSH1 0x24 DUP3 ADD MSTORE PUSH18 0x506F6F6C204973204E6F7420416374697665 PUSH1 0x70 SHL PUSH1 0x44 DUP3 ADD MSTORE PUSH1 0x64 ADD PUSH2 0x9B6 JUMP JUMPDEST PUSH1 0x0 DUP5 GT DUP1 ISZERO PUSH2 0x336F JUMPI POP PUSH1 0x34 SLOAD DUP5 GT ISZERO JUMPDEST PUSH2 0x33AD JUMPI PUSH1 0x40 MLOAD PUSH3 0x461BCD PUSH1 0xE5 SHL DUP2 MSTORE PUSH1 0x20 PUSH1 0x4 DUP3 ADD MSTORE PUSH1 0xF PUSH1 0x24 DUP3 ADD MSTORE PUSH15 0x125B9D985B1A59081C1BDBDB081251 PUSH1 0x8A SHL PUSH1 0x44 DUP3 ADD MSTORE PUSH1 0x64 ADD PUSH2 0x9B6 JUMP JUMPDEST POP POP PUSH1 0x0 DUP3 DUP2 MSTORE PUSH1 0x3E PUSH1 0x20 MSTORE PUSH1 0x40 SWAP1 KECCAK256 PUSH1 0x3 ADD DUP2 SWAP1 SSTORE PUSH2 0x23DF PUSH1 0x1 DUP1 SSTORE JUMP JUMPDEST PUSH1 0x38 DUP2 DUP2 SLOAD DUP2 LT PUSH2 0x33DC JUMPI PUSH1 0x0 DUP1 REVERT JUMPDEST PUSH1 0x0 SWAP2 DUP3 MSTORE PUSH1 0x20 SWAP1 SWAP2 KECCAK256 ADD SLOAD PUSH1 0x1 PUSH1 0x1 PUSH1 0xA0 SHL SUB AND SWAP1 POP DUP2 JUMP JUMPDEST PUSH1 0x33 SLOAD PUSH1 0x1 PUSH1 0x1 PUSH1 0xA0 SHL SUB AND CALLER EQ PUSH2 0x3448 JUMPI PUSH1 0x40 MLOAD PUSH3 0x461BCD PUSH1 0xE5 SHL DUP2 MSTORE PUSH1 0x20 PUSH1 0x4 DUP3 ADD MSTORE PUSH1 0x21 PUSH1 0x24 DUP3 ADD MSTORE PUSH1 0x0 DUP1 MLOAD PUSH1 0x20 PUSH2 0x3EAC DUP4 CODECOPY DUP2 MLOAD SWAP2 MSTORE PUSH1 0x44 DUP3 ADD MSTORE PUSH1 0x37 PUSH1 0xF9 SHL PUSH1 0x64 DUP3 ADD MSTORE PUSH1 0x84 ADD PUSH2 0x9B6 JUMP JUMPDEST PUSH1 0x1 PUSH1 0x1 PUSH1 0xA0 SHL SUB SWAP1 SWAP2 AND PUSH1 0x0 SWAP1 DUP2 MSTORE PUSH1 0x41 PUSH1 0x20 MSTORE PUSH1 0x40 SWAP1 KECCAK256 SSTORE JUMP JUMPDEST PUSH1 0x3D SLOAD PUSH1 0x40 MLOAD PUSH32 0xE6A4390500000000000000000000000000000000000000000000000000000000 DUP2 MSTORE PUSH1 0x1 PUSH1 0x1 PUSH1 0xA0 SHL SUB DUP5 DUP2 AND PUSH1 0x4 DUP4 ADD MSTORE DUP4 DUP2 AND PUSH1 0x24 DUP4 ADD MSTORE PUSH1 0x0 SWAP3 DUP4 SWAP3 SWAP2 AND SWAP1 PUSH4 0xE6A43905 SWAP1 PUSH1 0x44 ADD PUSH1 0x20 PUSH1 0x40 MLOAD DUP1 DUP4 SUB DUP2 DUP7 GAS STATICCALL ISZERO DUP1 ISZERO PUSH2 0x34D3 JUMPI RETURNDATASIZE PUSH1 0x0 DUP1 RETURNDATACOPY RETURNDATASIZE PUSH1 0x0 REVERT JUMPDEST POP POP POP POP PUSH1 0x40 MLOAD RETURNDATASIZE PUSH1 0x1F NOT PUSH1 0x1F DUP3 ADD AND DUP3 ADD DUP1 PUSH1 0x40 MSTORE POP DUP2 ADD SWAP1 PUSH2 0x34F7 SWAP2 SWAP1 PUSH2 0x3E8E JUMP JUMPDEST SWAP5 SWAP4 POP POP POP POP JUMP JUMPDEST PUSH1 0x33 SLOAD PUSH1 0x1 PUSH1 0x1 PUSH1 0xA0 SHL SUB AND CALLER EQ PUSH2 0x3551 JUMPI PUSH1 0x40 MLOAD PUSH3 0x461BCD PUSH1 0xE5 SHL DUP2 MSTORE PUSH1 0x20 PUSH1 0x4 DUP3 ADD MSTORE PUSH1 0x21 PUSH1 0x24 DUP3 ADD MSTORE PUSH1 0x0 DUP1 MLOAD PUSH1 0x20 PUSH2 0x3EAC DUP4 CODECOPY DUP2 MLOAD SWAP2 MSTORE PUSH1 0x44 DUP3 ADD MSTORE PUSH1 0x37 PUSH1 0xF9 SHL PUSH1 0x64 DUP3 ADD MSTORE PUSH1 0x84 ADD PUSH2 0x9B6 JUMP JUMPDEST PUSH1 0x45 DUP1 SLOAD PUSH1 0x1 PUSH1 0x1 PUSH1 0xA0 SHL SUB NOT AND PUSH1 0x1 PUSH1 0x1 PUSH1 0xA0 SHL SUB SWAP3 SWAP1 SWAP3 AND SWAP2 SWAP1 SWAP2 OR SWAP1 SSTORE JUMP JUMPDEST PUSH1 0x45 SLOAD PUSH1 0x40 DUP1 MLOAD PUSH4 0x3850C7BD PUSH1 0xE0 SHL DUP2 MSTORE SWAP1 MLOAD PUSH1 0x0 SWAP3 PUSH1 0x1 PUSH1 0x1 PUSH1 0xA0 SHL SUB AND SWAP2 DUP4 SWAP2 DUP4 SWAP2 PUSH4 0x3850C7BD SWAP2 PUSH1 0x4 DUP1 DUP4 ADD SWAP3 PUSH1 0xE0 SWAP3 SWAP2 SWAP1 DUP3 SWAP1 SUB ADD DUP2 DUP7 GAS STATICCALL ISZERO DUP1 ISZERO PUSH2 0x35C1 JUMPI RETURNDATASIZE PUSH1 0x0 DUP1 RETURNDATACOPY RETURNDATASIZE PUSH1 0x0 REVERT JUMPDEST POP POP POP POP PUSH1 0x40 MLOAD RETURNDATASIZE PUSH1 0x1F NOT PUSH1 0x1F DUP3 ADD AND DUP3 ADD DUP1 PUSH1 0x40 MSTORE POP DUP2 ADD SWAP1 PUSH2 0x35E5 SWAP2 SWAP1 PUSH2 0x3DF1 JUMP JUMPDEST MLOAD SWAP1 POP PUSH1 0x1 PUSH1 0x1 PUSH1 0xA0 SHL SUB DUP2 AND PUSH1 0x0 PUSH1 0x1 PUSH1 0xC0 SHL PUSH2 0x3603 DUP4 DUP1 PUSH2 0x3D18 JUMP JUMPDEST PUSH2 0x3615 SWAP1 PUSH8 0xDE0B6B3A7640000 PUSH2 0x3D18 JUMP JUMPDEST PUSH2 0x361F SWAP2 SWAP1 PUSH2 0x3D2F JUMP JUMPDEST SWAP1 POP PUSH1 0x0 PUSH2 0x363C DUP3 PUSH15 0xC097CE7BC90715B34B9F1000000000 PUSH2 0x3D2F JUMP JUMPDEST SWAP7 SWAP6 POP POP POP POP POP POP JUMP JUMPDEST PUSH1 0x33 SLOAD PUSH1 0x1 PUSH1 0x1 PUSH1 0xA0 SHL SUB AND CALLER EQ PUSH2 0x3698 JUMPI PUSH1 0x40 MLOAD PUSH3 0x461BCD PUSH1 0xE5 SHL DUP2 MSTORE PUSH1 0x20 PUSH1 0x4 DUP3 ADD MSTORE PUSH1 0x21 PUSH1 0x24 DUP3 ADD MSTORE PUSH1 0x0 DUP1 MLOAD PUSH1 0x20 PUSH2 0x3EAC DUP4 CODECOPY DUP2 MLOAD SWAP2 MSTORE PUSH1 0x44 DUP3 ADD MSTORE PUSH1 0x37 PUSH1 0xF9 SHL PUSH1 0x64 DUP3 ADD MSTORE PUSH1 0x84 ADD PUSH2 0x9B6 JUMP JUMPDEST PUSH2 0x36A0 PUSH2 0x376F JUMP JUMPDEST PUSH1 0x40 DUP1 MLOAD PUSH1 0xE0 DUP2 ADD DUP3 MSTORE DUP7 DUP2 MSTORE PUSH1 0x1 PUSH1 0x1 PUSH1 0xA0 SHL SUB DUP1 DUP8 AND PUSH1 0x20 DUP1 DUP5 ADD SWAP2 DUP3 MSTORE DUP8 DUP4 AND DUP5 DUP7 ADD SWAP1 DUP2 MSTORE PUSH1 0x60 DUP6 ADD DUP9 DUP2 MSTORE PUSH1 0x80 DUP7 ADD DUP9 DUP2 MSTORE PUSH1 0x1 PUSH1 0xA0 DUP9 ADD DUP2 DUP2 MSTORE PUSH1 0x0 PUSH1 0xC0 DUP11 ADD DUP2 DUP2 MSTORE PUSH1 0x34 DUP1 SLOAD DUP4 MSTORE PUSH1 0x3E SWAP1 SWAP9 MSTORE SWAP11 DUP2 KECCAK256 SWAP10 MLOAD DUP11 SSTORE SWAP7 MLOAD SWAP2 DUP10 ADD DUP1 SLOAD SWAP3 DUP10 AND PUSH1 0x1 PUSH1 0x1 PUSH1 0xA0 SHL SUB NOT SWAP4 DUP5 AND OR SWAP1 SSTORE SWAP4 MLOAD PUSH1 0x2 DUP10 ADD DUP1 SLOAD SWAP2 SWAP1 SWAP9 AND SWAP2 AND OR SWAP1 SWAP6 SSTORE MLOAD PUSH1 0x3 DUP7 ADD SSTORE SWAP3 MLOAD PUSH1 0x4 DUP6 ADD SSTORE SWAP2 MLOAD PUSH1 0x5 DUP5 ADD DUP1 SLOAD SWAP2 ISZERO ISZERO PUSH1 0xFF NOT SWAP1 SWAP3 AND SWAP2 SWAP1 SWAP2 OR SWAP1 SSTORE SWAP3 MLOAD PUSH1 0x6 SWAP1 SWAP3 ADD SWAP2 SWAP1 SWAP2 SSTORE DUP1 SLOAD SWAP2 PUSH2 0x3761 DUP4 PUSH2 0x3CFF JUMP JUMPDEST SWAP2 SWAP1 POP SSTORE POP PUSH2 0x160C PUSH1 0x1 DUP1 SSTORE JUMP JUMPDEST PUSH1 0x2 PUSH1 0x1 SLOAD SUB PUSH2 0x37C1 JUMPI PUSH1 0x40 MLOAD PUSH3 0x461BCD PUSH1 0xE5 SHL DUP2 MSTORE PUSH1 0x20 PUSH1 0x4 DUP3 ADD MSTORE PUSH1 0x1F PUSH1 0x24 DUP3 ADD MSTORE PUSH32 0x5265656E7472616E637947756172643A207265656E7472616E742063616C6C00 PUSH1 0x44 DUP3 ADD MSTORE PUSH1 0x64 ADD PUSH2 0x9B6 JUMP JUMPDEST PUSH1 0x2 PUSH1 0x1 SSTORE JUMP JUMPDEST PUSH1 0x1 DUP1 SSTORE JUMP JUMPDEST PUSH1 0x0 DUP1 JUMPDEST PUSH1 0x38 SLOAD DUP2 LT ISZERO PUSH2 0x382E JUMPI DUP3 PUSH1 0x1 PUSH1 0x1 PUSH1 0xA0 SHL SUB AND PUSH1 0x38 DUP3 DUP2 SLOAD DUP2 LT PUSH2 0x37F9 JUMPI PUSH2 0x37F9 PUSH2 0x3C80 JUMP JUMPDEST PUSH1 0x0 SWAP2 DUP3 MSTORE PUSH1 0x20 SWAP1 SWAP2 KECCAK256 ADD SLOAD PUSH1 0x1 PUSH1 0x1 PUSH1 0xA0 SHL SUB AND SUB PUSH2 0x381C JUMPI POP PUSH1 0x1 SWAP3 SWAP2 POP POP JUMP JUMPDEST DUP1 PUSH2 0x3826 DUP2 PUSH2 0x3CFF JUMP JUMPDEST SWAP2 POP POP PUSH2 0x37D2 JUMP JUMPDEST POP PUSH1 0x0 SWAP3 SWAP2 POP POP JUMP JUMPDEST PUSH1 0x0 SLOAD PUSH2 0x100 SWAP1 DIV PUSH1 0xFF AND PUSH2 0x38B4 JUMPI PUSH1 0x40 MLOAD PUSH3 0x461BCD PUSH1 0xE5 SHL DUP2 MSTORE PUSH1 0x20 PUSH1 0x4 DUP3 ADD MSTORE PUSH1 0x2B PUSH1 0x24 DUP3 ADD MSTORE PUSH32 0x496E697469616C697A61626C653A20636F6E7472616374206973206E6F742069 PUSH1 0x44 DUP3 ADD MSTORE PUSH32 0x6E697469616C697A696E67000000000000000000000000000000000000000000 PUSH1 0x64 DUP3 ADD MSTORE PUSH1 0x84 ADD PUSH2 0x9B6 JUMP JUMPDEST PUSH2 0x38BC PUSH2 0x38BE JUMP JUMPDEST JUMP JUMPDEST PUSH1 0x0 SLOAD PUSH2 0x100 SWAP1 DIV PUSH1 0xFF AND PUSH2 0x37C8 JUMPI PUSH1 0x40 MLOAD PUSH3 0x461BCD PUSH1 0xE5 SHL DUP2 MSTORE PUSH1 0x20 PUSH1 0x4 DUP3 ADD MSTORE PUSH1 0x2B PUSH1 0x24 DUP3 ADD MSTORE PUSH32 0x496E697469616C697A61626C653A20636F6E7472616374206973206E6F742069 PUSH1 0x44 DUP3 ADD MSTORE PUSH32 0x6E697469616C697A696E67000000000000000000000000000000000000000000 PUSH1 0x64 DUP3 ADD MSTORE PUSH1 0x84 ADD PUSH2 0x9B6 JUMP JUMPDEST PUSH1 0x0 DUP1 PUSH1 0x40 DUP4 DUP6 SUB SLT ISZERO PUSH2 0x394E JUMPI PUSH1 0x0 DUP1 REVERT JUMPDEST POP POP DUP1 CALLDATALOAD SWAP3 PUSH1 0x20 SWAP1 SWAP2 ADD CALLDATALOAD SWAP2 POP JUMP JUMPDEST PUSH1 0x1 PUSH1 0x1 PUSH1 0xA0 SHL SUB DUP2 AND DUP2 EQ PUSH2 0xEAB JUMPI PUSH1 0x0 DUP1 REVERT JUMPDEST PUSH1 0x0 PUSH1 0x20 DUP3 DUP5 SUB SLT ISZERO PUSH2 0x3984 JUMPI PUSH1 0x0 DUP1 REVERT JUMPDEST DUP2 CALLDATALOAD PUSH2 0x250A DUP2 PUSH2 0x395D JUMP JUMPDEST PUSH1 0x0 PUSH1 0x20 DUP3 DUP5 SUB SLT ISZERO PUSH2 0x39A1 JUMPI PUSH1 0x0 DUP1 REVERT JUMPDEST POP CALLDATALOAD SWAP2 SWAP1 POP JUMP JUMPDEST PUSH1 0x0 DUP1 PUSH1 0x0 PUSH1 0x60 DUP5 DUP7 SUB SLT ISZERO PUSH2 0x39BD JUMPI PUSH1 0x0 DUP1 REVERT JUMPDEST DUP4 CALLDATALOAD SWAP3 POP PUSH1 0x20 DUP5 ADD CALLDATALOAD SWAP2 POP PUSH1 0x40 DUP5 ADD CALLDATALOAD PUSH2 0x39D6 DUP2 PUSH2 0x395D JUMP JUMPDEST DUP1 SWAP2 POP POP SWAP3 POP SWAP3 POP SWAP3 JUMP JUMPDEST PUSH1 0x0 DUP1 PUSH1 0x0 PUSH1 0x60 DUP5 DUP7 SUB SLT ISZERO PUSH2 0x39F6 JUMPI PUSH1 0x0 DUP1 REVERT JUMPDEST DUP4 CALLDATALOAD PUSH2 0x3A01 DUP2 PUSH2 0x395D JUMP JUMPDEST SWAP6 PUSH1 0x20 DUP6 ADD CALLDATALOAD SWAP6 POP PUSH1 0x40 SWAP1 SWAP5 ADD CALLDATALOAD SWAP4 SWAP3 POP POP POP JUMP JUMPDEST PUSH1 0x0 DUP1 PUSH1 0x0 PUSH1 0x60 DUP5 DUP7 SUB SLT ISZERO PUSH2 0x3A2B JUMPI PUSH1 0x0 DUP1 REVERT JUMPDEST DUP4 CALLDATALOAD PUSH2 0x3A36 DUP2 PUSH2 0x395D JUMP JUMPDEST SWAP3 POP PUSH1 0x20 DUP5 ADD CALLDATALOAD PUSH2 0x3A46 DUP2 PUSH2 0x395D JUMP JUMPDEST SWAP3 SWAP6 SWAP3 SWAP5 POP POP POP PUSH1 0x40 SWAP2 SWAP1 SWAP2 ADD CALLDATALOAD SWAP1 JUMP JUMPDEST PUSH1 0x0 DUP1 PUSH1 0x40 DUP4 DUP6 SUB SLT ISZERO PUSH2 0x3A6A JUMPI PUSH1 0x0 DUP1 REVERT JUMPDEST DUP3 CALLDATALOAD PUSH2 0x3A75 DUP2 PUSH2 0x395D JUMP JUMPDEST SWAP5 PUSH1 0x20 SWAP4 SWAP1 SWAP4 ADD CALLDATALOAD SWAP4 POP POP POP JUMP JUMPDEST DUP1 ISZERO ISZERO DUP2 EQ PUSH2 0xEAB JUMPI PUSH1 0x0 DUP1 REVERT JUMPDEST PUSH1 0x0 PUSH1 0x20 DUP3 DUP5 SUB SLT ISZERO PUSH2 0x3AA3 JUMPI PUSH1 0x0 DUP1 REVERT JUMPDEST DUP2 CALLDATALOAD PUSH2 0x250A DUP2 PUSH2 0x3A83 JUMP JUMPDEST PUSH1 0x0 DUP1 PUSH1 0x40 DUP4 DUP6 SUB SLT ISZERO PUSH2 0x3AC1 JUMPI PUSH1 0x0 DUP1 REVERT JUMPDEST DUP3 CALLDATALOAD PUSH2 0x3ACC DUP2 PUSH2 0x395D JUMP JUMPDEST SWAP2 POP PUSH1 0x20 DUP4 ADD CALLDATALOAD PUSH2 0x3ADC DUP2 PUSH2 0x395D JUMP JUMPDEST DUP1 SWAP2 POP POP SWAP3 POP SWAP3 SWAP1 POP JUMP JUMPDEST PUSH4 0x4E487B71 PUSH1 0xE0 SHL PUSH1 0x0 MSTORE PUSH1 0x41 PUSH1 0x4 MSTORE PUSH1 0x24 PUSH1 0x0 REVERT JUMPDEST PUSH1 0x40 MLOAD PUSH1 0xE0 DUP2 ADD PUSH8 0xFFFFFFFFFFFFFFFF DUP2 GT DUP3 DUP3 LT OR ISZERO PUSH2 0x3B20 JUMPI PUSH2 0x3B20 PUSH2 0x3AE7 JUMP JUMPDEST PUSH1 0x40 MSTORE SWAP1 JUMP JUMPDEST PUSH1 0x40 MLOAD PUSH1 0x1F DUP3 ADD PUSH1 0x1F NOT AND DUP2 ADD PUSH8 0xFFFFFFFFFFFFFFFF DUP2 GT DUP3 DUP3 LT OR ISZERO PUSH2 0x3B4F JUMPI PUSH2 0x3B4F PUSH2 0x3AE7 JUMP JUMPDEST PUSH1 0x40 MSTORE SWAP2 SWAP1 POP JUMP JUMPDEST PUSH1 0x0 PUSH1 0x20 DUP1 DUP4 DUP6 SUB SLT ISZERO PUSH2 0x3B6A JUMPI PUSH1 0x0 DUP1 REVERT JUMPDEST DUP3 CALLDATALOAD PUSH8 0xFFFFFFFFFFFFFFFF DUP1 DUP3 GT ISZERO PUSH2 0x3B82 JUMPI PUSH1 0x0 DUP1 REVERT JUMPDEST DUP2 DUP6 ADD SWAP2 POP DUP6 PUSH1 0x1F DUP4 ADD SLT PUSH2 0x3B96 JUMPI PUSH1 0x0 DUP1 REVERT JUMPDEST DUP2 CALLDATALOAD DUP2 DUP2 GT ISZERO PUSH2 0x3BA8 JUMPI PUSH2 0x3BA8 PUSH2 0x3AE7 JUMP JUMPDEST DUP1 PUSH1 0x5 SHL SWAP2 POP PUSH2 0x3BB9 DUP5 DUP4 ADD PUSH2 0x3B26 JUMP JUMPDEST DUP2 DUP2 MSTORE SWAP2 DUP4 ADD DUP5 ADD SWAP2 DUP5 DUP2 ADD SWAP1 DUP9 DUP5 GT ISZERO PUSH2 0x3BD3 JUMPI PUSH1 0x0 DUP1 REVERT JUMPDEST SWAP4 DUP6 ADD SWAP4 JUMPDEST DUP4 DUP6 LT ISZERO PUSH2 0x3BFD JUMPI DUP5 CALLDATALOAD SWAP3 POP PUSH2 0x3BED DUP4 PUSH2 0x395D JUMP JUMPDEST DUP3 DUP3 MSTORE SWAP4 DUP6 ADD SWAP4 SWAP1 DUP6 ADD SWAP1 PUSH2 0x3BD8 JUMP JUMPDEST SWAP9 SWAP8 POP POP POP POP POP POP POP POP JUMP JUMPDEST PUSH1 0x0 DUP1 PUSH1 0x40 DUP4 DUP6 SUB SLT ISZERO PUSH2 0x3C1C JUMPI PUSH1 0x0 DUP1 REVERT JUMPDEST DUP3 CALLDATALOAD SWAP2 POP PUSH1 0x20 DUP4 ADD CALLDATALOAD PUSH2 0x3ADC DUP2 PUSH2 0x395D JUMP JUMPDEST PUSH1 0x0 DUP1 PUSH1 0x0 DUP1 PUSH1 0x0 PUSH1 0xA0 DUP7 DUP9 SUB SLT ISZERO PUSH2 0x3C46 JUMPI PUSH1 0x0 DUP1 REVERT JUMPDEST DUP6 CALLDATALOAD SWAP5 POP PUSH1 0x20 DUP7 ADD CALLDATALOAD PUSH2 0x3C58 DUP2 PUSH2 0x395D JUMP JUMPDEST SWAP4 POP PUSH1 0x40 DUP7 ADD CALLDATALOAD PUSH2 0x3C68 DUP2 PUSH2 0x395D JUMP JUMPDEST SWAP5 SWAP8 SWAP4 SWAP7 POP SWAP4 SWAP5 PUSH1 0x60 DUP2 ADD CALLDATALOAD SWAP5 POP PUSH1 0x80 ADD CALLDATALOAD SWAP3 SWAP2 POP POP JUMP JUMPDEST PUSH4 0x4E487B71 PUSH1 0xE0 SHL PUSH1 0x0 MSTORE PUSH1 0x32 PUSH1 0x4 MSTORE PUSH1 0x24 PUSH1 0x0 REVERT JUMPDEST PUSH4 0x4E487B71 PUSH1 0xE0 SHL PUSH1 0x0 MSTORE PUSH1 0x11 PUSH1 0x4 MSTORE PUSH1 0x24 PUSH1 0x0 REVERT JUMPDEST DUP1 DUP3 ADD DUP1 DUP3 GT ISZERO PUSH2 0x250D JUMPI PUSH2 0x250D PUSH2 0x3C96 JUMP JUMPDEST DUP1 MLOAD PUSH2 0x3CCA DUP2 PUSH2 0x3A83 JUMP JUMPDEST SWAP2 SWAP1 POP JUMP JUMPDEST PUSH1 0x0 PUSH1 0x20 DUP3 DUP5 SUB SLT ISZERO PUSH2 0x3CE1 JUMPI PUSH1 0x0 DUP1 REVERT JUMPDEST DUP2 MLOAD PUSH2 0x250A DUP2 PUSH2 0x3A83 JUMP JUMPDEST DUP2 DUP2 SUB DUP2 DUP2 GT ISZERO PUSH2 0x250D JUMPI PUSH2 0x250D PUSH2 0x3C96 JUMP JUMPDEST PUSH1 0x0 PUSH1 0x1 DUP3 ADD PUSH2 0x3D11 JUMPI PUSH2 0x3D11 PUSH2 0x3C96 JUMP JUMPDEST POP PUSH1 0x1 ADD SWAP1 JUMP JUMPDEST DUP1 DUP3 MUL DUP2 ISZERO DUP3 DUP3 DIV DUP5 EQ OR PUSH2 0x250D JUMPI PUSH2 0x250D PUSH2 0x3C96 JUMP JUMPDEST PUSH1 0x0 DUP3 PUSH2 0x3D4C JUMPI PUSH4 0x4E487B71 PUSH1 0xE0 SHL PUSH1 0x0 MSTORE PUSH1 0x12 PUSH1 0x4 MSTORE PUSH1 0x24 PUSH1 0x0 REVERT JUMPDEST POP DIV SWAP1 JUMP JUMPDEST DUP1 MLOAD PUSH14 0xFFFFFFFFFFFFFFFFFFFFFFFFFFFF DUP2 AND DUP2 EQ PUSH2 0x3CCA JUMPI PUSH1 0x0 DUP1 REVERT JUMPDEST DUP1 MLOAD PUSH4 0xFFFFFFFF DUP2 AND DUP2 EQ PUSH2 0x3CCA JUMPI PUSH1 0x0 DUP1 REVERT JUMPDEST PUSH1 0x0 DUP1 PUSH1 0x0 PUSH1 0x60 DUP5 DUP7 SUB SLT ISZERO PUSH2 0x3D98 JUMPI PUSH1 0x0 DUP1 REVERT JUMPDEST PUSH2 0x3DA1 DUP5 PUSH2 0x3D51 JUMP JUMPDEST SWAP3 POP PUSH2 0x3DAF PUSH1 0x20 DUP6 ADD PUSH2 0x3D51 JUMP JUMPDEST SWAP2 POP PUSH2 0x3DBD PUSH1 0x40 DUP6 ADD PUSH2 0x3D6F JUMP JUMPDEST SWAP1 POP SWAP3 POP SWAP3 POP SWAP3 JUMP JUMPDEST PUSH1 0x0 PUSH1 0x20 DUP3 DUP5 SUB SLT ISZERO PUSH2 0x3DD8 JUMPI PUSH1 0x0 DUP1 REVERT JUMPDEST POP MLOAD SWAP2 SWAP1 POP JUMP JUMPDEST DUP1 MLOAD PUSH2 0xFFFF DUP2 AND DUP2 EQ PUSH2 0x3CCA JUMPI PUSH1 0x0 DUP1 REVERT JUMPDEST PUSH1 0x0 PUSH1 0xE0 DUP3 DUP5 SUB SLT ISZERO PUSH2 0x3E03 JUMPI PUSH1 0x0 DUP1 REVERT JUMPDEST PUSH2 0x3E0B PUSH2 0x3AFD JUMP JUMPDEST DUP3 MLOAD PUSH2 0x3E16 DUP2 PUSH2 0x395D JUMP JUMPDEST DUP2 MSTORE PUSH1 0x20 DUP4 ADD MLOAD PUSH1 0x2 DUP2 SWAP1 SIGNEXTEND DUP2 EQ PUSH2 0x3E2D JUMPI PUSH1 0x0 DUP1 REVERT JUMPDEST PUSH1 0x20 DUP3 ADD MSTORE PUSH2 0x3E3E PUSH1 0x40 DUP5 ADD PUSH2 0x3DDF JUMP JUMPDEST PUSH1 0x40 DUP3 ADD MSTORE PUSH2 0x3E4F PUSH1 0x60 DUP5 ADD PUSH2 0x3DDF JUMP JUMPDEST PUSH1 0x60 DUP3 ADD MSTORE PUSH2 0x3E60 PUSH1 0x80 DUP5 ADD PUSH2 0x3DDF JUMP JUMPDEST PUSH1 0x80 DUP3 ADD MSTORE PUSH2 0x3E71 PUSH1 0xA0 DUP5 ADD PUSH2 0x3D6F JUMP JUMPDEST PUSH1 0xA0 DUP3 ADD MSTORE PUSH2 0x3E82 PUSH1 0xC0 DUP5 ADD PUSH2 0x3CBF JUMP JUMPDEST PUSH1 0xC0 DUP3 ADD MSTORE SWAP4 SWAP3 POP POP POP JUMP JUMPDEST PUSH1 0x0 PUSH1 0x20 DUP3 DUP5 SUB SLT ISZERO PUSH2 0x3EA0 JUMPI PUSH1 0x0 DUP1 REVERT JUMPDEST DUP2 MLOAD PUSH2 0x250A DUP2 PUSH2 0x395D JUMP INVALID 0x4F PUSH15 0x6C792061646D696E2063616E206361 PUSH13 0x6C20746869732066756E637469 PUSH16 0xA26469706673582212207B88D1188122 PUSH25 0xBD2E84A2F5D5525B912CC88F6BA349102FA3D512C362A9989E PUSH5 0x736F6C6343 STOP ADDMOD SGT STOP CALLER "},"methodIdentifiers":{"CG8_TOKEN_ADDRESS()":"c57830cd","PANCAKE_FACTORY_ADDRESS()":"509173a1","PANCAKE_ROUTER_ADDRESS()":"28ac7c51","USDC_TOKEN_ADDRESS()":"b3d673d8","admin()":"f851a440","cancelOwnershipTransfer()":"23452b9c","castVote(bool)":"7ace48e7","claimIndividualReward(uint256,uint256)":"6b38e049","claimReward(uint256)":"ae169a50","createStakingPool(uint256,address,address,uint256,uint256)":"fb58d2cf","finalizeOwnershipTransfer()":"bf41c2a4","getCurrentCgatePrice()":"7ade2642","getPair(address,address)":"e6a43905","getPendingReward(uint256,uint256,address)":"29a16616","getPrice()":"98d5fdca","getPriceInverse()":"f4343439","getReserves(address)":"3e99c1e4","getTotalPendingRewardsForPool(uint256,address)":"c114fcfa","getTotalPoolsCount()":"855c5d46","hasVoted(address)":"09eef43e","initialize(address[])":"a224cee7","poolAddress()":"1755ff21","poolReferrers(address,uint256)":"686e9222","pools(uint256)":"ac4afa38","proposeOwnershipTransfer(address)":"21040fc3","proposedOwner()":"d153b60c","referrals(address,uint256,uint256)":"c01b35a1","referrerRewards(address,address,uint256)":"4ae77bcf","referrers(address)":"4a3b68cc","setAdmin(address)":"704b6c02","setCg8Address(address)":"57a8773e","setFactory(address)":"5bb47808","setPoolAddress(address)":"e9e15b4f","setReferralRewardPercent(uint256,uint256)":"bf2ce808","setRewardPercent(uint256,uint256)":"c79bdb46","setRewardToken(uint256,address)":"bdd13d4a","setRouter(address)":"c0d78655","setSpecialReferrerRewardPercent(address,uint256)":"dbe4a261","setTimePeriod(uint256,uint256)":"b820a1cd","setUSDCAddress(address)":"aaf5bfc3","signers(address)":"736c0d5b","specialReferrersPercents(address)":"e7ee1233","stake(uint256,uint256,address)":"7628a37d","togglePoolStatus(uint256)":"216b31c1","totalStakeCount(address,uint256)":"fa8f683e","totalUnstakeAllowed(address,uint256)":"9dda7fee","unStake(uint256)":"5d3eea91","unStakeIndividual(uint256,uint256)":"047ac00e","updateCurrentCgatePrice(uint256)":"7b542a2a","userStakes(address,uint256,uint256)":"34144b0f","users(address)":"a87430ba","usersStakesPerPool(address,uint256)":"b401cdca","voters(uint256)":"da58c7d9","withdrawDumpToken(address,address)":"99672158","withdrawEth(address)":"25e16063"}},"storageLayout":{"storage":[{"astId":6,"contract":"contracts/cgateStaking1.sol:StakingPoolV4","label":"_initialized","offset":0,"slot":"0","type":"t_uint8"},{"astId":9,"contract":"contracts/cgateStaking1.sol:StakingPoolV4","label":"_initializing","offset":1,"slot":"0","type":"t_bool"},{"astId":183,"contract":"contracts/cgateStaking1.sol:StakingPoolV4","label":"_status","offset":0,"slot":"1","type":"t_uint256"},{"astId":252,"contract":"contracts/cgateStaking1.sol:StakingPoolV4","label":"__gap","offset":0,"slot":"2","type":"t_array(t_uint256)49_storage"},{"astId":1473,"contract":"contracts/cgateStaking1.sol:StakingPoolV4","label":"admin","offset":0,"slot":"51","type":"t_address"},{"astId":1475,"contract":"contracts/cgateStaking1.sol:StakingPoolV4","label":"poolIdCounter","offset":0,"slot":"52","type":"t_uint256"},{"astId":1477,"contract":"contracts/cgateStaking1.sol:StakingPoolV4","label":"oneYear","offset":0,"slot":"53","type":"t_uint256"},{"astId":1479,"contract":"contracts/cgateStaking1.sol:StakingPoolV4","label":"price","offset":0,"slot":"54","type":"t_uint256"},{"astId":1481,"contract":"contracts/cgateStaking1.sol:StakingPoolV4","label":"proposedOwner","offset":0,"slot":"55","type":"t_address"},{"astId":1484,"contract":"contracts/cgateStaking1.sol:StakingPoolV4","label":"voters","offset":0,"slot":"56","type":"t_array(t_address)dyn_storage"},{"astId":1488,"contract":"contracts/cgateStaking1.sol:StakingPoolV4","label":"hasVoted","offset":0,"slot":"57","type":"t_mapping(t_address,t_bool)"},{"astId":1490,"contract":"contracts/cgateStaking1.sol:StakingPoolV4","label":"PANCAKE_ROUTER_ADDRESS","offset":0,"slot":"58","type":"t_address"},{"astId":1492,"contract":"contracts/cgateStaking1.sol:StakingPoolV4","label":"CG8_TOKEN_ADDRESS","offset":0,"slot":"59","type":"t_address"},{"astId":1494,"contract":"contracts/cgateStaking1.sol:StakingPoolV4","label":"USDC_TOKEN_ADDRESS","offset":0,"slot":"60","type":"t_address"},{"astId":1496,"contract":"contracts/cgateStaking1.sol:StakingPoolV4","label":"PANCAKE_FACTORY_ADDRESS","offset":0,"slot":"61","type":"t_address"},{"astId":1540,"contract":"contracts/cgateStaking1.sol:StakingPoolV4","label":"pools","offset":0,"slot":"62","type":"t_mapping(t_uint256,t_struct(Pool)1511_storage)"},{"astId":1548,"contract":"contracts/cgateStaking1.sol:StakingPoolV4","label":"userStakes","offset":0,"slot":"63","type":"t_mapping(t_address,t_mapping(t_uint256,t_array(t_struct(UserStake)1535_storage)dyn_storage))"},{"astId":1552,"contract":"contracts/cgateStaking1.sol:StakingPoolV4","label":"referrers","offset":0,"slot":"64","type":"t_mapping(t_address,t_address)"},{"astId":1556,"contract":"contracts/cgateStaking1.sol:StakingPoolV4","label":"specialReferrersPercents","offset":0,"slot":"65","type":"t_mapping(t_address,t_uint256)"},{"astId":1561,"contract":"contracts/cgateStaking1.sol:StakingPoolV4","label":"users","offset":0,"slot":"66","type":"t_mapping(t_address,t_struct(UserInfo)1522_storage)"},{"astId":1567,"contract":"contracts/cgateStaking1.sol:StakingPoolV4","label":"usersStakesPerPool","offset":0,"slot":"67","type":"t_mapping(t_address,t_mapping(t_uint256,t_uint256))"},{"astId":1571,"contract":"contracts/cgateStaking1.sol:StakingPoolV4","label":"signers","offset":0,"slot":"68","type":"t_mapping(t_address,t_bool)"},{"astId":1573,"contract":"contracts/cgateStaking1.sol:StakingPoolV4","label":"poolAddress","offset":0,"slot":"69","type":"t_address"},{"astId":1580,"contract":"contracts/cgateStaking1.sol:StakingPoolV4","label":"referrals","offset":0,"slot":"70","type":"t_mapping(t_address,t_mapping(t_uint256,t_array(t_address)dyn_storage))"},{"astId":1588,"contract":"contracts/cgateStaking1.sol:StakingPoolV4","label":"referrerRewards","offset":0,"slot":"71","type":"t_mapping(t_address,t_mapping(t_address,t_mapping(t_uint256,t_uint256)))"},{"astId":1594,"contract":"contracts/cgateStaking1.sol:StakingPoolV4","label":"poolReferrers","offset":0,"slot":"72","type":"t_mapping(t_address,t_mapping(t_uint256,t_address))"}],"types":{"t_address":{"encoding":"inplace","label":"address","numberOfBytes":"20"},"t_array(t_address)dyn_storage":{"base":"t_address","encoding":"dynamic_array","label":"address[]","numberOfBytes":"32"},"t_array(t_struct(UserStake)1535_storage)dyn_storage":{"base":"t_struct(UserStake)1535_storage","encoding":"dynamic_array","label":"struct StakingPoolV4.UserStake[]","numberOfBytes":"32"},"t_array(t_uint256)49_storage":{"base":"t_uint256","encoding":"inplace","label":"uint256[49]","numberOfBytes":"1568"},"t_bool":{"encoding":"inplace","label":"bool","numberOfBytes":"1"},"t_mapping(t_address,t_address)":{"encoding":"mapping","key":"t_address","label":"mapping(address => address)","numberOfBytes":"32","value":"t_address"},"t_mapping(t_address,t_bool)":{"encoding":"mapping","key":"t_address","label":"mapping(address => bool)","numberOfBytes":"32","value":"t_bool"},"t_mapping(t_address,t_mapping(t_address,t_mapping(t_uint256,t_uint256)))":{"encoding":"mapping","key":"t_address","label":"mapping(address => mapping(address => mapping(uint256 => uint256)))","numberOfBytes":"32","value":"t_mapping(t_address,t_mapping(t_uint256,t_uint256))"},"t_mapping(t_address,t_mapping(t_uint256,t_address))":{"encoding":"mapping","key":"t_address","label":"mapping(address => mapping(uint256 => address))","numberOfBytes":"32","value":"t_mapping(t_uint256,t_address)"},"t_mapping(t_address,t_mapping(t_uint256,t_array(t_address)dyn_storage))":{"encoding":"mapping","key":"t_address","label":"mapping(address => mapping(uint256 => address[]))","numberOfBytes":"32","value":"t_mapping(t_uint256,t_array(t_address)dyn_storage)"},"t_mapping(t_address,t_mapping(t_uint256,t_array(t_struct(UserStake)1535_storage)dyn_storage))":{"encoding":"mapping","key":"t_address","label":"mapping(address => mapping(uint256 => struct StakingPoolV4.UserStake[]))","numberOfBytes":"32","value":"t_mapping(t_uint256,t_array(t_struct(UserStake)1535_storage)dyn_storage)"},"t_mapping(t_address,t_mapping(t_uint256,t_uint256))":{"encoding":"mapping","key":"t_address","label":"mapping(address => mapping(uint256 => uint256))","numberOfBytes":"32","value":"t_mapping(t_uint256,t_uint256)"},"t_mapping(t_address,t_struct(UserInfo)1522_storage)":{"encoding":"mapping","key":"t_address","label":"mapping(address => struct StakingPoolV4.UserInfo)","numberOfBytes":"32","value":"t_struct(UserInfo)1522_storage"},"t_mapping(t_address,t_uint256)":{"encoding":"mapping","key":"t_address","label":"mapping(address => uint256)","numberOfBytes":"32","value":"t_uint256"},"t_mapping(t_uint256,t_address)":{"encoding":"mapping","key":"t_uint256","label":"mapping(uint256 => address)","numberOfBytes":"32","value":"t_address"},"t_mapping(t_uint256,t_array(t_address)dyn_storage)":{"encoding":"mapping","key":"t_uint256","label":"mapping(uint256 => address[])","numberOfBytes":"32","value":"t_array(t_address)dyn_storage"},"t_mapping(t_uint256,t_array(t_struct(UserStake)1535_storage)dyn_storage)":{"encoding":"mapping","key":"t_uint256","label":"mapping(uint256 => struct StakingPoolV4.UserStake[])","numberOfBytes":"32","value":"t_array(t_struct(UserStake)1535_storage)dyn_storage"},"t_mapping(t_uint256,t_struct(Pool)1511_storage)":{"encoding":"mapping","key":"t_uint256","label":"mapping(uint256 => struct StakingPoolV4.Pool)","numberOfBytes":"32","value":"t_struct(Pool)1511_storage"},"t_mapping(t_uint256,t_uint256)":{"encoding":"mapping","key":"t_uint256","label":"mapping(uint256 => uint256)","numberOfBytes":"32","value":"t_uint256"},"t_struct(Pool)1511_storage":{"encoding":"inplace","label":"struct StakingPoolV4.Pool","members":[{"astId":1498,"contract":"contracts/cgateStaking1.sol:StakingPoolV4","label":"timePeriod","offset":0,"slot":"0","type":"t_uint256"},{"astId":1500,"contract":"contracts/cgateStaking1.sol:StakingPoolV4","label":"stakeToken","offset":0,"slot":"1","type":"t_address"},{"astId":1502,"contract":"contracts/cgateStaking1.sol:StakingPoolV4","label":"rewardToken","offset":0,"slot":"2","type":"t_address"},{"astId":1504,"contract":"contracts/cgateStaking1.sol:StakingPoolV4","label":"rewardPercentPerStakedTokenPerYear","offset":0,"slot":"3","type":"t_uint256"},{"astId":1506,"contract":"contracts/cgateStaking1.sol:StakingPoolV4","label":"referralRewardPercent","offset":0,"slot":"4","type":"t_uint256"},{"astId":1508,"contract":"contracts/cgateStaking1.sol:StakingPoolV4","label":"isActive","offset":0,"slot":"5","type":"t_bool"},{"astId":1510,"contract":"contracts/cgateStaking1.sol:StakingPoolV4","label":"totalStakes","offset":0,"slot":"6","type":"t_uint256"}],"numberOfBytes":"224"},"t_struct(UserInfo)1522_storage":{"encoding":"inplace","label":"struct StakingPoolV4.UserInfo","members":[{"astId":1513,"contract":"contracts/cgateStaking1.sol:StakingPoolV4","label":"totalStaked","offset":0,"slot":"0","type":"t_uint256"},{"astId":1515,"contract":"contracts/cgateStaking1.sol:StakingPoolV4","label":"activeStakes","offset":0,"slot":"1","type":"t_uint256"},{"astId":1517,"contract":"contracts/cgateStaking1.sol:StakingPoolV4","label":"totalRewardWithdrawnTillNow","offset":0,"slot":"2","type":"t_uint256"},{"astId":1519,"contract":"contracts/cgateStaking1.sol:StakingPoolV4","label":"referralIncomeWithdrawnTillNow","offset":0,"slot":"3","type":"t_uint256"},{"astId":1521,"contract":"contracts/cgateStaking1.sol:StakingPoolV4","label":"totalReferrers","offset":0,"slot":"4","type":"t_uint256"}],"numberOfBytes":"160"},"t_struct(UserStake)1535_storage":{"encoding":"inplace","label":"struct StakingPoolV4.UserStake","members":[{"astId":1524,"contract":"contracts/cgateStaking1.sol:StakingPoolV4","label":"amount","offset":0,"slot":"0","type":"t_uint256"},{"astId":1526,"contract":"contracts/cgateStaking1.sol:StakingPoolV4","label":"lastWithdrawTimestamp","offset":0,"slot":"1","type":"t_uint256"},{"astId":1528,"contract":"contracts/cgateStaking1.sol:StakingPoolV4","label":"rewardWithdrawnTillNow","offset":0,"slot":"2","type":"t_uint256"},{"astId":1530,"contract":"contracts/cgateStaking1.sol:StakingPoolV4","label":"stakeTime","offset":0,"slot":"3","type":"t_uint256"},{"astId":1532,"contract":"contracts/cgateStaking1.sol:StakingPoolV4","label":"referrer","offset":0,"slot":"4","type":"t_address"},{"astId":1534,"contract":"contracts/cgateStaking1.sol:StakingPoolV4","label":"depositedValueInDollars","offset":0,"slot":"5","type":"t_uint256"}],"numberOfBytes":"192"},"t_uint256":{"encoding":"inplace","label":"uint256","numberOfBytes":"32"},"t_uint8":{"encoding":"inplace","label":"uint8","numberOfBytes":"1"}}}}}}