{"contracts/cgateStaking.sol":{"StakingPoolV3":{"abi":[{"anonymous":false,"inputs":[{"indexed":false,"internalType":"uint8","name":"version","type":"uint8"}],"name":"Initialized","type":"event"},{"anonymous":false,"inputs":[{"indexed":true,"internalType":"address","name":"newOwner","type":"address"}],"name":"OwnershipTransferProposed","type":"event"},{"anonymous":false,"inputs":[{"indexed":true,"internalType":"address","name":"voter","type":"address"},{"indexed":false,"internalType":"bool","name":"approve","type":"bool"}],"name":"VoteCasted","type":"event"},{"inputs":[],"name":"CG8_TOKEN_ADDRESS","outputs":[{"internalType":"address","name":"","type":"address"}],"stateMutability":"view","type":"function"},{"inputs":[],"name":"PANCAKE_FACTORY_ADDRESS","outputs":[{"internalType":"address","name":"","type":"address"}],"stateMutability":"view","type":"function"},{"inputs":[],"name":"PANCAKE_ROUTER_ADDRESS","outputs":[{"internalType":"address","name":"","type":"address"}],"stateMutability":"view","type":"function"},{"inputs":[],"name":"USDC_TOKEN_ADDRESS","outputs":[{"internalType":"address","name":"","type":"address"}],"stateMutability":"view","type":"function"},{"inputs":[],"name":"admin","outputs":[{"internalType":"address","name":"","type":"address"}],"stateMutability":"view","type":"function"},{"inputs":[],"name":"cancelOwnershipTransfer","outputs":[],"stateMutability":"nonpayable","type":"function"},{"inputs":[{"internalType":"bool","name":"approve","type":"bool"}],"name":"castVote","outputs":[],"stateMutability":"nonpayable","type":"function"},{"inputs":[{"internalType":"uint256","name":"poolId","type":"uint256"},{"internalType":"uint256","name":"stakeId","type":"uint256"}],"name":"claimIndividualReward","outputs":[{"internalType":"uint256","name":"","type":"uint256"}],"stateMutability":"nonpayable","type":"function"},{"inputs":[{"internalType":"uint256","name":"poolId","type":"uint256"}],"name":"claimReward","outputs":[],"stateMutability":"nonpayable","type":"function"},{"inputs":[{"internalType":"uint256","name":"_timePeriod","type":"uint256"},{"internalType":"address","name":"_stakeToken","type":"address"},{"internalType":"address","name":"_rewardToken","type":"address"},{"internalType":"uint256","name":"_rewardPercent","type":"uint256"},{"internalType":"uint256","name":"_referralRewardPercent","type":"uint256"}],"name":"createStakingPool","outputs":[],"stateMutability":"nonpayable","type":"function"},{"inputs":[],"name":"finalizeOwnershipTransfer","outputs":[],"stateMutability":"nonpayable","type":"function"},{"inputs":[],"name":"getCurrentCgatePrice","outputs":[{"internalType":"uint256","name":"","type":"uint256"}],"stateMutability":"view","type":"function"},{"inputs":[{"internalType":"address","name":"tokenA","type":"address"},{"internalType":"address","name":"tokenB","type":"address"}],"name":"getPair","outputs":[{"internalType":"address","name":"","type":"address"}],"stateMutability":"view","type":"function"},{"inputs":[{"internalType":"uint256","name":"poolId","type":"uint256"},{"internalType":"uint256","name":"stakeId","type":"uint256"},{"internalType":"address","name":"user","type":"address"}],"name":"getPendingReward","outputs":[{"internalType":"uint256","name":"","type":"uint256"}],"stateMutability":"view","type":"function"},{"inputs":[],"name":"getPrice","outputs":[{"internalType":"uint256","name":"","type":"uint256"}],"stateMutability":"view","type":"function"},{"inputs":[],"name":"getPriceInverse","outputs":[{"internalType":"uint256","name":"","type":"uint256"}],"stateMutability":"view","type":"function"},{"inputs":[{"internalType":"address","name":"user","type":"address"},{"internalType":"uint256","name":"poolId","type":"uint256"}],"name":"getReferrals","outputs":[{"internalType":"address[]","name":"","type":"address[]"}],"stateMutability":"view","type":"function"},{"inputs":[{"internalType":"address","name":"pair","type":"address"}],"name":"getReserves","outputs":[{"internalType":"uint112","name":"reserve0","type":"uint112"},{"internalType":"uint112","name":"reserve1","type":"uint112"}],"stateMutability":"view","type":"function"},{"inputs":[{"internalType":"uint256","name":"poolId","type":"uint256"},{"internalType":"address","name":"user","type":"address"}],"name":"getTotalPendingRewardsForPool","outputs":[{"internalType":"uint256","name":"","type":"uint256"}],"stateMutability":"view","type":"function"},{"inputs":[],"name":"getTotalPoolsCount","outputs":[{"internalType":"uint256","name":"","type":"uint256"}],"stateMutability":"view","type":"function"},{"inputs":[{"internalType":"address","name":"user","type":"address"},{"internalType":"address","name":"referrer","type":"address"}],"name":"getTotalReferralRewardByReferrer","outputs":[{"internalType":"uint256","name":"","type":"uint256"}],"stateMutability":"view","type":"function"},{"inputs":[{"internalType":"address","name":"user","type":"address"}],"name":"getTotalReferralRewards","outputs":[{"internalType":"uint256","name":"","type":"uint256"}],"stateMutability":"view","type":"function"},{"inputs":[{"internalType":"address","name":"","type":"address"}],"name":"hasVoted","outputs":[{"internalType":"bool","name":"","type":"bool"}],"stateMutability":"view","type":"function"},{"inputs":[{"internalType":"address[]","name":"_initialVoters","type":"address[]"}],"name":"initialize","outputs":[],"stateMutability":"nonpayable","type":"function"},{"inputs":[],"name":"poolAddress","outputs":[{"internalType":"address","name":"","type":"address"}],"stateMutability":"view","type":"function"},{"inputs":[{"internalType":"address","name":"","type":"address"},{"internalType":"uint256","name":"","type":"uint256"}],"name":"poolReferrers","outputs":[{"internalType":"address","name":"","type":"address"}],"stateMutability":"view","type":"function"},{"inputs":[{"internalType":"uint256","name":"","type":"uint256"}],"name":"pools","outputs":[{"internalType":"uint256","name":"timePeriod","type":"uint256"},{"internalType":"address","name":"stakeToken","type":"address"},{"internalType":"address","name":"rewardToken","type":"address"},{"internalType":"uint256","name":"rewardPercentPerStakedTokenPerYear","type":"uint256"},{"internalType":"uint256","name":"referralRewardPercent","type":"uint256"},{"internalType":"bool","name":"isActive","type":"bool"},{"internalType":"uint256","name":"totalStakes","type":"uint256"}],"stateMutability":"view","type":"function"},{"inputs":[{"internalType":"address","name":"newOwner","type":"address"}],"name":"proposeOwnershipTransfer","outputs":[],"stateMutability":"nonpayable","type":"function"},{"inputs":[],"name":"proposedOwner","outputs":[{"internalType":"address","name":"","type":"address"}],"stateMutability":"view","type":"function"},{"inputs":[{"internalType":"address","name":"","type":"address"},{"internalType":"uint256","name":"","type":"uint256"},{"internalType":"uint256","name":"","type":"uint256"}],"name":"referrals","outputs":[{"internalType":"address","name":"","type":"address"}],"stateMutability":"view","type":"function"},{"inputs":[{"internalType":"address","name":"","type":"address"},{"internalType":"address","name":"","type":"address"},{"internalType":"uint256","name":"","type":"uint256"}],"name":"referrerRewards","outputs":[{"internalType":"uint256","name":"","type":"uint256"}],"stateMutability":"view","type":"function"},{"inputs":[{"internalType":"address","name":"","type":"address"}],"name":"referrers","outputs":[{"internalType":"address","name":"","type":"address"}],"stateMutability":"view","type":"function"},{"inputs":[{"internalType":"address","name":"newAdmin","type":"address"}],"name":"setAdmin","outputs":[],"stateMutability":"nonpayable","type":"function"},{"inputs":[{"internalType":"address","name":"_cg8Address","type":"address"}],"name":"setCg8Address","outputs":[],"stateMutability":"nonpayable","type":"function"},{"inputs":[{"internalType":"address","name":"_factory","type":"address"}],"name":"setFactory","outputs":[],"stateMutability":"nonpayable","type":"function"},{"inputs":[{"internalType":"address","name":"_poolAddress","type":"address"}],"name":"setPoolAddress","outputs":[],"stateMutability":"nonpayable","type":"function"},{"inputs":[{"internalType":"uint256","name":"poolId","type":"uint256"},{"internalType":"uint256","name":"newPercentInBIPS","type":"uint256"}],"name":"setReferralRewardPercent","outputs":[],"stateMutability":"nonpayable","type":"function"},{"inputs":[{"internalType":"uint256","name":"poolId","type":"uint256"},{"internalType":"uint256","name":"_newRewardPercentInBIPS","type":"uint256"}],"name":"setRewardPercent","outputs":[],"stateMutability":"nonpayable","type":"function"},{"inputs":[{"internalType":"uint256","name":"poolId","type":"uint256"},{"internalType":"address","name":"_newRewardToken","type":"address"}],"name":"setRewardToken","outputs":[],"stateMutability":"nonpayable","type":"function"},{"inputs":[{"internalType":"address","name":"_router","type":"address"}],"name":"setRouter","outputs":[],"stateMutability":"nonpayable","type":"function"},{"inputs":[{"internalType":"address","name":"_referrer","type":"address"},{"internalType":"uint256","name":"_percentInBIPS","type":"uint256"}],"name":"setSpecialReferrerRewardPercent","outputs":[],"stateMutability":"nonpayable","type":"function"},{"inputs":[{"internalType":"uint256","name":"poolId","type":"uint256"},{"internalType":"uint256","name":"_newTimePeriod","type":"uint256"}],"name":"setTimePeriod","outputs":[],"stateMutability":"nonpayable","type":"function"},{"inputs":[{"internalType":"address","name":"_usdcAddress","type":"address"}],"name":"setUSDCAddress","outputs":[],"stateMutability":"nonpayable","type":"function"},{"inputs":[{"internalType":"address","name":"","type":"address"}],"name":"signers","outputs":[{"internalType":"bool","name":"","type":"bool"}],"stateMutability":"view","type":"function"},{"inputs":[{"internalType":"address","name":"","type":"address"}],"name":"specialReferrersPercents","outputs":[{"internalType":"uint256","name":"","type":"uint256"}],"stateMutability":"view","type":"function"},{"inputs":[{"internalType":"uint256","name":"poolId","type":"uint256"},{"internalType":"uint256","name":"_amount","type":"uint256"},{"internalType":"address","name":"referrer","type":"address"}],"name":"stake","outputs":[],"stateMutability":"nonpayable","type":"function"},{"inputs":[{"internalType":"uint256","name":"poolId","type":"uint256"}],"name":"togglePoolStatus","outputs":[],"stateMutability":"nonpayable","type":"function"},{"inputs":[{"internalType":"address","name":"user","type":"address"},{"internalType":"uint256","name":"poolId","type":"uint256"}],"name":"totalStakeCount","outputs":[{"internalType":"uint256","name":"count","type":"uint256"}],"stateMutability":"view","type":"function"},{"inputs":[{"internalType":"address","name":"user","type":"address"},{"internalType":"uint256","name":"poolId","type":"uint256"}],"name":"totalUnstakeAllowed","outputs":[{"internalType":"uint256","name":"totalWithdrawable","type":"uint256"}],"stateMutability":"view","type":"function"},{"inputs":[{"internalType":"uint256","name":"poolId","type":"uint256"}],"name":"unStake","outputs":[],"stateMutability":"nonpayable","type":"function"},{"inputs":[{"internalType":"uint256","name":"poolId","type":"uint256"},{"internalType":"uint256","name":"_stakeId","type":"uint256"}],"name":"unStakeIndividual","outputs":[],"stateMutability":"nonpayable","type":"function"},{"inputs":[{"internalType":"uint256","name":"newPrice","type":"uint256"}],"name":"updateCurrentCgatePrice","outputs":[],"stateMutability":"nonpayable","type":"function"},{"inputs":[{"internalType":"address","name":"","type":"address"},{"internalType":"uint256","name":"","type":"uint256"},{"internalType":"uint256","name":"","type":"uint256"}],"name":"userStakes","outputs":[{"internalType":"uint256","name":"amount","type":"uint256"},{"internalType":"uint256","name":"lastWithdrawTimestamp","type":"uint256"},{"internalType":"uint256","name":"rewardWithdrawnTillNow","type":"uint256"},{"internalType":"uint256","name":"stakeTime","type":"uint256"},{"internalType":"address","name":"referrer","type":"address"},{"internalType":"uint256","name":"depositedValueInDollars","type":"uint256"}],"stateMutability":"view","type":"function"},{"inputs":[{"internalType":"address","name":"","type":"address"}],"name":"users","outputs":[{"internalType":"uint256","name":"totalStaked","type":"uint256"},{"internalType":"uint256","name":"activeStakes","type":"uint256"},{"internalType":"uint256","name":"totalRewardWithdrawnTillNow","type":"uint256"},{"internalType":"uint256","name":"referralIncomeWithdrawnTillNow","type":"uint256"},{"internalType":"uint256","name":"totalReferrers","type":"uint256"}],"stateMutability":"view","type":"function"},{"inputs":[{"internalType":"address","name":"","type":"address"},{"internalType":"uint256","name":"","type":"uint256"}],"name":"usersStakesPerPool","outputs":[{"internalType":"uint256","name":"","type":"uint256"}],"stateMutability":"view","type":"function"},{"inputs":[{"internalType":"uint256","name":"","type":"uint256"}],"name":"voters","outputs":[{"internalType":"address","name":"","type":"address"}],"stateMutability":"view","type":"function"},{"inputs":[{"internalType":"address","name":"receiver","type":"address"},{"internalType":"contract IERC20","name":"_token","type":"address"}],"name":"withdrawDumpToken","outputs":[],"stateMutability":"nonpayable","type":"function"},{"inputs":[{"internalType":"address payable","name":"_receiver","type":"address"}],"name":"withdrawEth","outputs":[],"stateMutability":"nonpayable","type":"function"}],"evm":{"bytecode":{"linkReferences":{},"object":"608060405234801561001057600080fd5b50614178806100206000396000f3fe608060405234801561001057600080fd5b506004361061038e5760003560e01c806398d5fdca116101de578063c01b35a11161010f578063dbe4a261116100ad578063f43434391161007c578063f43434391461097c578063f851a44014610984578063fa8f683e14610997578063fb58d2cf146109cd57600080fd5b8063dbe4a26114610923578063e6a4390514610936578063e7ee123314610949578063e9e15b4f1461096957600080fd5b8063c57830cd116100e9578063c57830cd146108d7578063c79bdb46146108ea578063d153b60c146108fd578063da58c7d91461091057600080fd5b8063c01b35a11461089e578063c0d78655146108b1578063c114fcfa146108c457600080fd5b8063ae169a501161017c578063b820a1cd11610156578063b820a1cd1461085d578063bdd13d4a14610870578063bf2ce80814610883578063bf41c2a41461089657600080fd5b8063ae169a501461080c578063b3d673d81461081f578063b401cdca1461083257600080fd5b8063a224cee7116101b8578063a224cee7146106e3578063a87430ba146106f6578063aaf5bfc31461075b578063ac4afa381461076e57600080fd5b806398d5fdca146106b557806399672158146106bd5780639dda7fee146106d057600080fd5b8063509173a1116102c3578063704b6c02116102615780637ade2642116102305780637ade26421461067f5780637b542a2a14610687578063855c5d461461069a5780638cd05ecb146106a257600080fd5b8063704b6c0214610623578063736c0d5b146106365780637628a37d146106595780637ace48e71461066c57600080fd5b80635bb478081161029d5780635bb47808146105b65780635d3eea91146105c9578063686e9222146105dc5780636b38e0491461061057600080fd5b8063509173a11461057d57806353a640911461059057806357a8773e146105a357600080fd5b806328ac7c511161033057806334144b0f1161030a57806334144b0f146104a05780633e99c1e4146104e95780634a3b68cc146105235780634ae77bcf1461054c57600080fd5b806328ac7c511461044c57806329a166161461045f57806332a00d8e1461048057600080fd5b806321040fc31161036c57806321040fc31461040b578063216b31c11461041e57806323452b9c1461043157806325e160631461043957600080fd5b8063047ac00e1461039357806309eef43e146103a85780631755ff21146103e0575b600080fd5b6103a66103a1366004613b65565b6109e0565b005b6103cb6103b6366004613b9c565b60396020526000908152604090205460ff1681565b60405190151581526020015b60405180910390f35b6045546103f3906001600160a01b031681565b6040516001600160a01b0390911681526020016103d7565b6103a6610419366004613b9c565b610c9b565b6103a661042c366004613bb9565b610d8d565b6103a6610e44565b6103a6610447366004613b9c565b610f15565b603a546103f3906001600160a01b031681565b61047261046d366004613bd2565b611004565b6040519081526020016103d7565b61049361048e366004613c0b565b6111c5565b6040516103d79190613c37565b6104b36104ae366004613c84565b611245565b6040805196875260208701959095529385019290925260608401526001600160a01b0316608083015260a082015260c0016103d7565b6104fc6104f7366004613b9c565b6112af565b604080516dffffffffffffffffffffffffffff9384168152929091166020830152016103d7565b6103f3610531366004613b9c565b6040602081905260009182529020546001600160a01b031681565b61047261055a366004613cb9565b604760209081526000938452604080852082529284528284209052825290205481565b603d546103f3906001600160a01b031681565b61047261059e366004613cfa565b611324565b6103a66105b1366004613b9c565b611387565b6103a66105c4366004613b9c565b6113fb565b6103a66105d7366004613bb9565b61146f565b6103f36105ea366004613c0b565b60486020908152600092835260408084209091529082529020546001600160a01b031681565b61047261061e366004613b65565b61175d565b6103a6610631366004613b9c565b611b50565b6103cb610644366004613b9c565b60446020526000908152604090205460ff1681565b6103a6610667366004613bd2565b611bc4565b6103a661067a366004613d41565b6120a0565b6104726121ae565b6103a6610695366004613bb9565b6122b0565b603454610472565b6104726106b0366004613b9c565b612307565b6104726123eb565b6103a66106cb366004613cfa565b612497565b6104726106de366004613c0b565b612611565b6103a66106f1366004613dce565b61273d565b610733610704366004613b9c565b604260205260009081526040902080546001820154600283015460038401546004909401549293919290919085565b604080519586526020860194909452928401919091526060830152608082015260a0016103d7565b6103a6610769366004613b9c565b61296a565b6107c961077c366004613bb9565b603e60205260009081526040902080546001820154600283015460038401546004850154600586015460069096015494956001600160a01b039485169593909416939192909160ff169087565b604080519788526001600160a01b039687166020890152949095169386019390935260608501919091526080840152151560a083015260c082015260e0016103d7565b6103a661081a366004613bb9565b6129de565b603c546103f3906001600160a01b031681565b610472610840366004613c0b565b604360209081526000928352604080842090915290825290205481565b6103a661086b366004613b65565b612e10565b6103a661087e366004613e80565b612f5f565b6103a6610891366004613b65565b6130d6565b6103a66131d8565b6103f36108ac366004613c84565b613382565b6103a66108bf366004613b9c565b6133c7565b6104726108d2366004613e80565b61343b565b603b546103f3906001600160a01b031681565b6103a66108f8366004613b65565b613494565b6037546103f3906001600160a01b031681565b6103f361091e366004613bb9565b6135f6565b6103a6610931366004613c0b565b613620565b6103f3610944366004613cfa565b61368e565b610472610957366004613b9c565b60416020526000908152604090205481565b6103a6610977366004613b9c565b613729565b61047261379d565b6033546103f3906001600160a01b031681565b6104726109a5366004613c0b565b6001600160a01b03919091166000908152603f60209081526040808320938352929052205490565b6103a66109db366004613ea5565b613870565b816034548110610a265760405162461bcd60e51b815260206004820152600c60248201526b125b9d985b1a5908141bdbdb60a21b60448201526064015b60405180910390fd5b6000838152603e6020526040902060050154839060ff16610a7e5760405162461bcd60e51b8152602060048201526012602482015271506f6f6c204973204e6f742041637469766560701b6044820152606401610a1d565b336000908152603f602090815260408083208784529091528120805485908110610aaa57610aaa613ef7565b60009182526020808320888452603e909152604090922060069091029091019150805460038301544291610add91613f23565b811015610b2c5760405162461bcd60e51b815260206004820152601660248201527f54696d6520706572696f64206e6f7420706173736564000000000000000000006044820152606401610a1d565b610b36878761175d565b506001838101829055820154835460405163a9059cbb60e01b815233600482015260248101919091526001600160a01b039091169063a9059cbb906044016020604051808303816000875af1158015610b93573d6000803e3d6000fd5b505050506040513d601f19601f82011682018060405250810190610bb79190613f46565b610c035760405162461bcd60e51b815260206004820152601c60248201527f5374616b656420746f6b656e207472616e73666572206661696c6564000000006044820152606401610a1d565b82543360009081526042602052604081206001018054909190610c27908490613f63565b909155505082543360009081526043602090815260408083208b845290915281208054909190610c58908490613f63565b909155505082546000888152603e602052604081206006018054909190610c80908490613f63565b90915550506000808455600590930192909255505050505050565b6033546001600160a01b03163314610ced5760405162461bcd60e51b815260206004820152602160248201526000805160206141238339815191526044820152603760f91b6064820152608401610a1d565b6001600160a01b038116610d435760405162461bcd60e51b815260206004820181905260248201527f4e6577206f776e65722063616e6e6f74206265207a65726f20616464726573736044820152606401610a1d565b603780546001600160a01b0319166001600160a01b0383169081179091556040517ff0c6916d81cd1f899264b5193e3bbe7afd2bcc3d05704bab73d0b8ac9387115890600090a250565b6033546001600160a01b03163314610ddf5760405162461bcd60e51b815260206004820152602160248201526000805160206141238339815191526044820152603760f91b6064820152608401610a1d565b806034548110610e205760405162461bcd60e51b815260206004820152600c60248201526b125b9d985b1a5908141bdbdb60a21b6044820152606401610a1d565b506000908152603e60205260409020600501805460ff19811660ff90911615179055565b6033546001600160a01b03163314610e965760405162461bcd60e51b815260206004820152602160248201526000805160206141238339815191526044820152603760f91b6064820152608401610a1d565b603780546001600160a01b031916905560005b603854811015610f125760006039600060388481548110610ecc57610ecc613ef7565b6000918252602080832091909101546001600160a01b031683528201929092526040019020805460ff191691151591909117905580610f0a81613f76565b915050610ea9565b50565b6033546001600160a01b03163314610f675760405162461bcd60e51b815260206004820152602160248201526000805160206141238339815191526044820152603760f91b6064820152608401610a1d565b610f6f613999565b6001600160a01b038116610fc55760405162461bcd60e51b815260206004820152600f60248201527f496e76616c6964206164647265737300000000000000000000000000000000006044820152606401610a1d565b6040516001600160a01b038216904780156108fc02916000818181858888f19350505050158015610ffa573d6000803e3d6000fd5b50610f1260018055565b60008360345481106110475760405162461bcd60e51b815260206004820152600c60248201526b125b9d985b1a5908141bdbdb60a21b6044820152606401610a1d565b6000858152603e6020526040902060050154859060ff1661109f5760405162461bcd60e51b8152602060048201526012602482015271506f6f6c204973204e6f742041637469766560701b6044820152606401610a1d565b6001600160a01b0384166000908152603f6020908152604080832089845290915290205485106111115760405162461bcd60e51b815260206004820152600f60248201527f55736572204e6f74205374616b656400000000000000000000000000000000006044820152606401610a1d565b6001600160a01b0384166000908152603f60209081526040808320898452909152812080548790811061114657611146613ef7565b600091825260208083208a8452603e90915260408320600692909202016001810154909350909142916111799083613f63565b9050600060355461271085600301548488600501546111989190613f8f565b6111a29190613f8f565b6111ac9190613fa6565b6111b69190613fa6565b9b9a5050505050505050505050565b6001600160a01b038216600090815260466020908152604080832084845282529182902080548351818402810184019094528084526060939283018282801561123757602002820191906000526020600020905b81546001600160a01b03168152600190910190602001808311611219575b505050505090505b92915050565b603f602052826000526040600020602052816000526040600020818154811061126d57600080fd5b60009182526020909120600690910201805460018201546002830154600384015460048501546005909501549397509195509350916001600160a01b03169086565b600080600080846001600160a01b0316630902f1ac6040518163ffffffff1660e01b8152600401606060405180830381865afa1580156112f3573d6000803e3d6000fd5b505050506040513d601f19601f820116820180604052508101906113179190613ffa565b5090969095509350505050565b600080805b60345481101561137f576001600160a01b03808516600090815260476020908152604080832093891683529281528282208483529052205461136b9083613f23565b91508061137781613f76565b915050611329565b509392505050565b6033546001600160a01b031633146113d95760405162461bcd60e51b815260206004820152602160248201526000805160206141238339815191526044820152603760f91b6064820152608401610a1d565b603b80546001600160a01b0319166001600160a01b0392909216919091179055565b6033546001600160a01b0316331461144d5760405162461bcd60e51b815260206004820152602160248201526000805160206141238339815191526044820152603760f91b6064820152608401610a1d565b603d80546001600160a01b0319166001600160a01b0392909216919091179055565b8060345481106114b05760405162461bcd60e51b815260206004820152600c60248201526b125b9d985b1a5908141bdbdb60a21b6044820152606401610a1d565b6000828152603e6020526040902060050154829060ff166115085760405162461bcd60e51b8152602060048201526012602482015271506f6f6c204973204e6f742041637469766560701b6044820152606401610a1d565b6000838152603e60205260408120815b336000908152603f6020908152604080832089845290915290205481101561163657336000908152603f60209081526040808320898452909152812080548390811061156657611566613ef7565b9060005260206000209060060201905060004290508360000154826003015461158f9190613f23565b81106116215781546115a19086613f23565b94506115ad888461175d565b50600080835560018301829055338152603f602090815260408083208b845290915290208054849081106115e3576115e3613ef7565b6000918252602082206006909102018181556001810182905560028101829055600381018290556004810180546001600160a01b0319169055600501555b5050808061162e90613f76565b915050611518565b503360009081526042602052604081206001018054849290611659908490613f63565b909155505033600090815260436020908152604080832088845290915281208054849290611688908490613f63565b9091555050811561175657600181015460405163a9059cbb60e01b8152336004820152602481018490526001600160a01b039091169063a9059cbb906044016020604051808303816000875af11580156116e6573d6000803e3d6000fd5b505050506040513d601f19601f8201168201806040525081019061170a9190613f46565b6117565760405162461bcd60e51b815260206004820152601c60248201527f5374616b656420746f6b656e207472616e73666572206661696c6564000000006044820152606401610a1d565b5050505050565b60008260345481106117a05760405162461bcd60e51b815260206004820152600c60248201526b125b9d985b1a5908141bdbdb60a21b6044820152606401610a1d565b6000848152603e6020526040902060050154849060ff166117f85760405162461bcd60e51b8152602060048201526012602482015271506f6f6c204973204e6f742041637469766560701b6044820152606401610a1d565b336000908152603f60209081526040808320888452909152812080548690811061182457611824613ef7565b60009182526020808320898452603e90915260408320600690920201805490935090910361185757600094505050611b48565b426000611865898933611004565b90508015611b4357600283015460405163a9059cbb60e01b8152336004820152602481018390526001600160a01b039091169063a9059cbb906044016020604051808303816000875af11580156118c0573d6000803e3d6000fd5b505050506040513d601f19601f820116820180604052508101906118e49190613f46565b6119305760405162461bcd60e51b815260206004820152601660248201527f526577617264207472616e73666572206661696c6564000000000000000000006044820152606401610a1d565b60048401546001600160a01b031615611af357600480840154908501546001600160a01b031660009081526041602052604090205415611989575060048401546001600160a01b03166000908152604160205260409020545b60006127106119988385613f8f565b6119a29190613fa6565b90508015611abc57600285015460048781015460405163a9059cbb60e01b81526001600160a01b0391821692810192909252602482018490529091169063a9059cbb906044016020604051808303816000875af1158015611a07573d6000803e3d6000fd5b505050506040513d601f19601f82011682018060405250810190611a2b9190613f46565b611a775760405162461bcd60e51b815260206004820152601f60248201527f526566657272616c20526577617264207472616e73666572206661696c6564006044820152606401610a1d565b60048601546001600160a01b0316600090815260476020908152604080832033845282528083208e845290915281208054839290611ab6908490613f23565b90915550505b60048601546001600160a01b031660009081526042602052604081206003018054839290611aeb908490613f23565b909155505050505b3360009081526042602052604081206002018054839290611b15908490613f23565b9250508190555080846002016000828254611b309190613f23565b9091555050600190930155509250611b48565b505050505b505092915050565b6033546001600160a01b03163314611ba25760405162461bcd60e51b815260206004820152602160248201526000805160206141238339815191526044820152603760f91b6064820152608401610a1d565b603380546001600160a01b0319166001600160a01b0392909216919091179055565b826034548110611c055760405162461bcd60e51b815260206004820152600c60248201526b125b9d985b1a5908141bdbdb60a21b6044820152606401610a1d565b6000848152603e6020526040902060050154849060ff16611c5d5760405162461bcd60e51b8152602060048201526012602482015271506f6f6c204973204e6f742041637469766560701b6044820152606401610a1d565b60008411611cad5760405162461bcd60e51b815260206004820152601d60248201527f416d6f756e74206d7573742062652067726561746572207468616e20300000006044820152606401610a1d565b6001600160a01b0383163303611d055760405162461bcd60e51b815260206004820152601860248201527f596f752063616e277420726566657220796f757273656c6600000000000000006044820152606401610a1d565b6000858152603e602052604090819020600181015491517f23b872dd0000000000000000000000000000000000000000000000000000000081523360048201523060248201526044810187905290916001600160a01b0316906323b872dd906064016020604051808303816000875af1158015611d86573d6000803e3d6000fd5b505050506040513d601f19601f82011682018060405250810190611daa9190613f46565b611df65760405162461bcd60e51b815260206004820152601560248201527f546f6b656e207472616e73666572206661696c656400000000000000000000006044820152606401610a1d565b336000908152603f602090815260408083208984528252808320815160c081018352898152429381018490529182019390935260608101919091526001600160a01b038616608082015260a08101670de0b6b3a7640000611e5561379d565b611e5f908a613f8f565b611e699190613fa6565b90528154600180820184556000938452602080852084516006948502909101908155848201519281019290925560408085015160028401556060850151600384015560808501516004840180546001600160a01b0319166001600160a01b0390921691909117905560a090940151600590920191909155898452603e9052908220018054879290611efb908490613f23565b90915550506040805160a081018252336000908152604260205291909120548190611f27908890613f23565b815233600090815260426020908152604090912060010154910190611f4d908890613f23565b815233600081815260426020818152604080842060028101805484890152600382018054848a015260048301805460609a8b015297909652938352875181559187015160019092019190915585015190559183015190915560809091015190556001600160a01b03841615612069573360009081526048602090815260408083208984529091529020546001600160a01b0316612069573360008181526048602090815260408083208a8452825280832080546001600160a01b038a166001600160a01b03199182168117909255818552604684528285208c8652845282852080546001818101835591875285872001805490921690961790558352604290915281206004018054909190612063908490613f23565b90915550505b33600090815260436020908152604080832089845290915281208054879290612093908490613f23565b9091555050505050505050565b6120a9336139f8565b6120f55760405162461bcd60e51b815260206004820152601160248201527f4e6f7420612076616c696420766f7465720000000000000000000000000000006044820152606401610a1d565b3360009081526039602052604090205460ff16156121555760405162461bcd60e51b815260206004820152600d60248201527f416c726561647920766f746564000000000000000000000000000000000000006044820152606401610a1d565b3360008181526039602052604090819020805460ff19166001179055517fa4861c5510bfa99706ed508d728f9c6b365ff27af1a3012e21980952ad2d844f906121a390841515815260200190565b60405180910390a250565b603b54603c5460009182916121cf916001600160a01b03908116911661368e565b90506001600160a01b0381166121e757600091505090565b6000806121f3836112af565b603a546040517f85f8c259000000000000000000000000000000000000000000000000000000008152670de0b6b3a764000060048201526dffffffffffffffffffffffffffff8084166024830152841660448201529294509092506000916001600160a01b03909116906385f8c25990606401602060405180830381865afa158015612283573d6000803e3d6000fd5b505050506040513d601f19601f820116820180604052508101906122a7919061403d565b95945050505050565b6033546001600160a01b031633146123025760405162461bcd60e51b815260206004820152602160248201526000805160206141238339815191526044820152603760f91b6064820152608401610a1d565b603655565b600080805b6034548110156123e45760005b6001600160a01b03851660009081526046602090815260408083208584529091529020548110156123d1576001600160a01b038516600090815260476020908152604080832060468352818420868552909252822080549192918490811061238357612383613ef7565b60009182526020808320909101546001600160a01b0316835282810193909352604091820181208582529092529020546123bd9084613f23565b9250806123c981613f76565b915050612319565b50806123dc81613f76565b91505061230c565b5092915050565b60455460408051633850c7bd60e01b815290516000926001600160a01b03169183918391633850c7bd9160048083019260e09291908290030181865afa158015612439573d6000803e3d6000fd5b505050506040513d601f19601f8201168201806040525081019061245d9190614068565b5190506001600160a01b0381166000600160c01b61247b8380613f8f565b61248d90670de0b6b3a7640000613f8f565b6122a79190613fa6565b6033546001600160a01b031633146124e95760405162461bcd60e51b815260206004820152602160248201526000805160206141238339815191526044820152603760f91b6064820152608401610a1d565b6124f1613999565b6040517f70a082310000000000000000000000000000000000000000000000000000000081523060048201526001600160a01b0382169063a9059cbb90849083906370a0823190602401602060405180830381865afa158015612558573d6000803e3d6000fd5b505050506040513d601f19601f8201168201806040525081019061257c919061403d565b6040517fffffffff0000000000000000000000000000000000000000000000000000000060e085901b1681526001600160a01b03909216600483015260248201526044016020604051808303816000875af11580156125df573d6000803e3d6000fd5b505050506040513d601f19601f820116820180604052508101906126039190613f46565b5061260d60018055565b5050565b6001600160a01b03821660009081526043602090815260408083208484529091528120548190156127365760005b6001600160a01b0385166000908152603f6020908152604080832087845290915290205481101561137f576000848152603e60209081526040808320546001600160a01b0389168452603f8352818420888552909252909120805442929190849081106126ae576126ae613ef7565b9060005260206000209060060201600301546126ca9190613f23565b11612724576001600160a01b0385166000908152603f60209081526040808320878452909152902080548290811061270457612704613ef7565b906000526020600020906006020160000154826127219190613f23565b91505b8061272e81613f76565b91505061263f565b9392505050565b600054610100900460ff161580801561275d5750600054600160ff909116105b806127775750303b158015612777575060005460ff166001145b6127e95760405162461bcd60e51b815260206004820152602e60248201527f496e697469616c697a61626c653a20636f6e747261637420697320616c72656160448201527f647920696e697469616c697a65640000000000000000000000000000000000006064820152608401610a1d565b6000805460ff19166001179055801561280c576000805461ff0019166101001790555b612814613a61565b603380546001600160a01b031990811633179091556301e1338060355564e8d4a51000603655603a80548216739ac64cc6e4415144c455bd8e4837fea55603e5c3179055603b80548216739f7b09eb38ed912ab5932dccad0b1f501abfe6fd179055603c8054821673d1fac5ff5d03b70d3383909692d09fc6d97c8219179055603d805490911673b7926c0430afb07aa7defde6da862ae0bde767bc17905560005b82518110156129205760388382815181106128d3576128d3613ef7565b60209081029190910181015182546001810184556000938452919092200180546001600160a01b0319166001600160a01b039092169190911790558061291881613f76565b9150506128b6565b50801561260d576000805461ff0019169055604051600181527f7f26b83ff96e1f2b6a682f133852f6798a09c465da95921460cefb38474024989060200160405180910390a15050565b6033546001600160a01b031633146129bc5760405162461bcd60e51b815260206004820152602160248201526000805160206141238339815191526044820152603760f91b6064820152608401610a1d565b603c80546001600160a01b0319166001600160a01b0392909216919091179055565b806034548110612a1f5760405162461bcd60e51b815260206004820152600c60248201526b125b9d985b1a5908141bdbdb60a21b6044820152606401610a1d565b612a27613999565b6000828152603e6020526040902060050154829060ff16612a7f5760405162461bcd60e51b8152602060048201526012602482015271506f6f6c204973204e6f742041637469766560701b6044820152606401610a1d565b6000838152603e6020526040812090805b336000908152603f60209081526040808320898452909152902054811015612d3a57336000908152603f602090815260408083208984529091528120805483908110612ade57612ade613ef7565b90600052602060002090600602019050600081600001541115612d2757426000612b09898533611004565b60048401549091506001600160a01b031615612ccf57600480870154908401546001600160a01b031660009081526041602052604090205415612b65575060048301546001600160a01b03166000908152604160205260409020545b6000612710612b748385613f8f565b612b7e9190613fa6565b90508015612ccc57600288015460048681015460405163a9059cbb60e01b81526001600160a01b0391821692810192909252602482018490529091169063a9059cbb906044016020604051808303816000875af1158015612be3573d6000803e3d6000fd5b505050506040513d601f19601f82011682018060405250810190612c079190613f46565b612c535760405162461bcd60e51b815260206004820152601f60248201527f526566657272616c20526577617264207472616e73666572206661696c6564006044820152606401610a1d565b60048501546001600160a01b0316600090815260476020908152604080832033845282528083208e845290915281208054839290612c92908490613f23565b909155505060048501546001600160a01b031660009081526042602052604081206003018054839290612cc6908490613f23565b90915550505b50505b3360009081526042602052604081206002018054839290612cf1908490613f23565b9250508190555080836002016000828254612d0c9190613f23565b909155505060018301829055612d228186613f23565b945050505b5080612d3281613f76565b915050612a90565b508015612e0457600282015460405163a9059cbb60e01b8152336004820152602481018390526001600160a01b039091169063a9059cbb906044016020604051808303816000875af1158015612d94573d6000803e3d6000fd5b505050506040513d601f19601f82011682018060405250810190612db89190613f46565b612e045760405162461bcd60e51b815260206004820152601660248201527f526577617264207472616e73666572206661696c6564000000000000000000006044820152606401610a1d565b50505061260d60018055565b6033546001600160a01b03163314612e625760405162461bcd60e51b815260206004820152602160248201526000805160206141238339815191526044820152603760f91b6064820152608401610a1d565b816034548110612ea35760405162461bcd60e51b815260206004820152600c60248201526b125b9d985b1a5908141bdbdb60a21b6044820152606401610a1d565b6000838152603e6020526040902060050154839060ff16612efb5760405162461bcd60e51b8152602060048201526012602482015271506f6f6c204973204e6f742041637469766560701b6044820152606401610a1d565b600084118015612f0d57506034548411155b612f4b5760405162461bcd60e51b815260206004820152600f60248201526e125b9d985b1a59081c1bdbdb081251608a1b6044820152606401610a1d565b50506000918252603e602052604090912055565b6033546001600160a01b03163314612fb15760405162461bcd60e51b815260206004820152602160248201526000805160206141238339815191526044820152603760f91b6064820152608401610a1d565b612fb9613999565b816034548110612ffa5760405162461bcd60e51b815260206004820152600c60248201526b125b9d985b1a5908141bdbdb60a21b6044820152606401610a1d565b6000838152603e6020526040902060050154839060ff166130525760405162461bcd60e51b8152602060048201526012602482015271506f6f6c204973204e6f742041637469766560701b6044820152606401610a1d565b60008411801561306457506034548411155b6130a25760405162461bcd60e51b815260206004820152600f60248201526e125b9d985b1a59081c1bdbdb081251608a1b6044820152606401610a1d565b50506000828152603e6020526040902060020180546001600160a01b0319166001600160a01b038316179055600180555050565b6033546001600160a01b031633146131285760405162461bcd60e51b815260206004820152602160248201526000805160206141238339815191526044820152603760f91b6064820152608401610a1d565b8160345481106131695760405162461bcd60e51b815260206004820152600c60248201526b125b9d985b1a5908141bdbdb60a21b6044820152606401610a1d565b6000838152603e6020526040902060050154839060ff166131c15760405162461bcd60e51b8152602060048201526012602482015271506f6f6c204973204e6f742041637469766560701b6044820152606401610a1d565b50506000918252603e602052604090912060040155565b6033546001600160a01b0316331461322a5760405162461bcd60e51b815260206004820152602160248201526000805160206141238339815191526044820152603760f91b6064820152608401610a1d565b603854600090815b8181101561329e57603960006038838154811061325157613251613ef7565b60009182526020808320909101546001600160a01b0316835282019290925260400190205460ff161561328c578261328881613f76565b9350505b8061329681613f76565b915050613232565b50818114806132ef5760405162461bcd60e51b815260206004820152601660248201527f496e73756666696369656e7420617070726f76616c73000000000000000000006044820152606401610a1d565b60378054603380546001600160a01b0383166001600160a01b0319918216811790925590911690915560005b83811015611756576000603960006038848154811061333c5761333c613ef7565b6000918252602080832091909101546001600160a01b031683528201929092526040019020805460ff19169115159190911790558061337a81613f76565b91505061331b565b604660205282600052604060002060205281600052604060002081815481106133aa57600080fd5b6000918252602090912001546001600160a01b0316925083915050565b6033546001600160a01b031633146134195760405162461bcd60e51b815260206004820152602160248201526000805160206141238339815191526044820152603760f91b6064820152608401610a1d565b603a80546001600160a01b0319166001600160a01b0392909216919091179055565b600080805b6001600160a01b0384166000908152603f6020908152604080832088845290915290205481101561137f57613476858286611004565b6134809083613f23565b91508061348c81613f76565b915050613440565b6033546001600160a01b031633146134e65760405162461bcd60e51b815260206004820152602160248201526000805160206141238339815191526044820152603760f91b6064820152608401610a1d565b6134ee613999565b81603454811061352f5760405162461bcd60e51b815260206004820152600c60248201526b125b9d985b1a5908141bdbdb60a21b6044820152606401610a1d565b6000838152603e6020526040902060050154839060ff166135875760405162461bcd60e51b8152602060048201526012602482015271506f6f6c204973204e6f742041637469766560701b6044820152606401610a1d565b60008411801561359957506034548411155b6135d75760405162461bcd60e51b815260206004820152600f60248201526e125b9d985b1a59081c1bdbdb081251608a1b6044820152606401610a1d565b50506000828152603e6020526040902060030181905561260d60018055565b6038818154811061360657600080fd5b6000918252602090912001546001600160a01b0316905081565b6033546001600160a01b031633146136725760405162461bcd60e51b815260206004820152602160248201526000805160206141238339815191526044820152603760f91b6064820152608401610a1d565b6001600160a01b03909116600090815260416020526040902055565b603d546040517fe6a439050000000000000000000000000000000000000000000000000000000081526001600160a01b0384811660048301528381166024830152600092839291169063e6a4390590604401602060405180830381865afa1580156136fd573d6000803e3d6000fd5b505050506040513d601f19601f820116820180604052508101906137219190614105565b949350505050565b6033546001600160a01b0316331461377b5760405162461bcd60e51b815260206004820152602160248201526000805160206141238339815191526044820152603760f91b6064820152608401610a1d565b604580546001600160a01b0319166001600160a01b0392909216919091179055565b60455460408051633850c7bd60e01b815290516000926001600160a01b03169183918391633850c7bd9160048083019260e09291908290030181865afa1580156137eb573d6000803e3d6000fd5b505050506040513d601f19601f8201168201806040525081019061380f9190614068565b5190506001600160a01b0381166000600160c01b61382d8380613f8f565b61383f90670de0b6b3a7640000613f8f565b6138499190613fa6565b90506000613866826ec097ce7bc90715b34b9f1000000000613fa6565b9695505050505050565b6033546001600160a01b031633146138c25760405162461bcd60e51b815260206004820152602160248201526000805160206141238339815191526044820152603760f91b6064820152608401610a1d565b6138ca613999565b6040805160e0810182528681526001600160a01b0380871660208084019182528783168486019081526060850188815260808601888152600160a08801818152600060c08a01818152603480548352603e9098529a812099518a55965191890180549289166001600160a01b031993841617905593516002890180549190981691161790955551600386015592516004850155915160058401805491151560ff19909216919091179055925160069092019190915580549161398b83613f76565b919050555061175660018055565b6002600154036139eb5760405162461bcd60e51b815260206004820152601f60248201527f5265656e7472616e637947756172643a207265656e7472616e742063616c6c006044820152606401610a1d565b6002600155565b60018055565b6000805b603854811015613a5857826001600160a01b031660388281548110613a2357613a23613ef7565b6000918252602090912001546001600160a01b031603613a465750600192915050565b80613a5081613f76565b9150506139fc565b50600092915050565b600054610100900460ff16613ade5760405162461bcd60e51b815260206004820152602b60248201527f496e697469616c697a61626c653a20636f6e7472616374206973206e6f74206960448201527f6e697469616c697a696e670000000000000000000000000000000000000000006064820152608401610a1d565b613ae6613ae8565b565b600054610100900460ff166139f25760405162461bcd60e51b815260206004820152602b60248201527f496e697469616c697a61626c653a20636f6e7472616374206973206e6f74206960448201527f6e697469616c697a696e670000000000000000000000000000000000000000006064820152608401610a1d565b60008060408385031215613b7857600080fd5b50508035926020909101359150565b6001600160a01b0381168114610f1257600080fd5b600060208284031215613bae57600080fd5b813561273681613b87565b600060208284031215613bcb57600080fd5b5035919050565b600080600060608486031215613be757600080fd5b83359250602084013591506040840135613c0081613b87565b809150509250925092565b60008060408385031215613c1e57600080fd5b8235613c2981613b87565b946020939093013593505050565b6020808252825182820181905260009190848201906040850190845b81811015613c785783516001600160a01b031683529284019291840191600101613c53565b50909695505050505050565b600080600060608486031215613c9957600080fd5b8335613ca481613b87565b95602085013595506040909401359392505050565b600080600060608486031215613cce57600080fd5b8335613cd981613b87565b92506020840135613ce981613b87565b929592945050506040919091013590565b60008060408385031215613d0d57600080fd5b8235613d1881613b87565b91506020830135613d2881613b87565b809150509250929050565b8015158114610f1257600080fd5b600060208284031215613d5357600080fd5b813561273681613d33565b634e487b7160e01b600052604160045260246000fd5b60405160e0810167ffffffffffffffff81118282101715613d9757613d97613d5e565b60405290565b604051601f8201601f1916810167ffffffffffffffff81118282101715613dc657613dc6613d5e565b604052919050565b60006020808385031215613de157600080fd5b823567ffffffffffffffff80821115613df957600080fd5b818501915085601f830112613e0d57600080fd5b813581811115613e1f57613e1f613d5e565b8060051b9150613e30848301613d9d565b8181529183018401918481019088841115613e4a57600080fd5b938501935b83851015613e745784359250613e6483613b87565b8282529385019390850190613e4f565b98975050505050505050565b60008060408385031215613e9357600080fd5b823591506020830135613d2881613b87565b600080600080600060a08688031215613ebd57600080fd5b853594506020860135613ecf81613b87565b93506040860135613edf81613b87565b94979396509394606081013594506080013592915050565b634e487b7160e01b600052603260045260246000fd5b634e487b7160e01b600052601160045260246000fd5b8082018082111561123f5761123f613f0d565b8051613f4181613d33565b919050565b600060208284031215613f5857600080fd5b815161273681613d33565b8181038181111561123f5761123f613f0d565b600060018201613f8857613f88613f0d565b5060010190565b808202811582820484141761123f5761123f613f0d565b600082613fc357634e487b7160e01b600052601260045260246000fd5b500490565b80516dffffffffffffffffffffffffffff81168114613f4157600080fd5b805163ffffffff81168114613f4157600080fd5b60008060006060848603121561400f57600080fd5b61401884613fc8565b925061402660208501613fc8565b915061403460408501613fe6565b90509250925092565b60006020828403121561404f57600080fd5b5051919050565b805161ffff81168114613f4157600080fd5b600060e0828403121561407a57600080fd5b614082613d74565b825161408d81613b87565b81526020830151600281900b81146140a457600080fd5b60208201526140b560408401614056565b60408201526140c660608401614056565b60608201526140d760808401614056565b60808201526140e860a08401613fe6565b60a08201526140f960c08401613f36565b60c08201529392505050565b60006020828403121561411757600080fd5b815161273681613b8756fe4f6e6c792061646d696e2063616e2063616c6c20746869732066756e6374696fa2646970667358221220f0a0727ab0269395fb4e728620355087eae9b01448eb8310c068de2155fdd39f64736f6c63430008130033","opcodes":"PUSH1 0x80 PUSH1 0x40 MSTORE CALLVALUE DUP1 ISZERO PUSH2 0x10 JUMPI PUSH1 0x0 DUP1 REVERT JUMPDEST POP PUSH2 0x4178 DUP1 PUSH2 0x20 PUSH1 0x0 CODECOPY PUSH1 0x0 RETURN INVALID PUSH1 0x80 PUSH1 0x40 MSTORE CALLVALUE DUP1 ISZERO PUSH2 0x10 JUMPI PUSH1 0x0 DUP1 REVERT JUMPDEST POP PUSH1 0x4 CALLDATASIZE LT PUSH2 0x38E JUMPI PUSH1 0x0 CALLDATALOAD PUSH1 0xE0 SHR DUP1 PUSH4 0x98D5FDCA GT PUSH2 0x1DE JUMPI DUP1 PUSH4 0xC01B35A1 GT PUSH2 0x10F JUMPI DUP1 PUSH4 0xDBE4A261 GT PUSH2 0xAD JUMPI DUP1 PUSH4 0xF4343439 GT PUSH2 0x7C JUMPI DUP1 PUSH4 0xF4343439 EQ PUSH2 0x97C JUMPI DUP1 PUSH4 0xF851A440 EQ PUSH2 0x984 JUMPI DUP1 PUSH4 0xFA8F683E EQ PUSH2 0x997 JUMPI DUP1 PUSH4 0xFB58D2CF EQ PUSH2 0x9CD JUMPI PUSH1 0x0 DUP1 REVERT JUMPDEST DUP1 PUSH4 0xDBE4A261 EQ PUSH2 0x923 JUMPI DUP1 PUSH4 0xE6A43905 EQ PUSH2 0x936 JUMPI DUP1 PUSH4 0xE7EE1233 EQ PUSH2 0x949 JUMPI DUP1 PUSH4 0xE9E15B4F EQ PUSH2 0x969 JUMPI PUSH1 0x0 DUP1 REVERT JUMPDEST DUP1 PUSH4 0xC57830CD GT PUSH2 0xE9 JUMPI DUP1 PUSH4 0xC57830CD EQ PUSH2 0x8D7 JUMPI DUP1 PUSH4 0xC79BDB46 EQ PUSH2 0x8EA JUMPI DUP1 PUSH4 0xD153B60C EQ PUSH2 0x8FD JUMPI DUP1 PUSH4 0xDA58C7D9 EQ PUSH2 0x910 JUMPI PUSH1 0x0 DUP1 REVERT JUMPDEST DUP1 PUSH4 0xC01B35A1 EQ PUSH2 0x89E JUMPI DUP1 PUSH4 0xC0D78655 EQ PUSH2 0x8B1 JUMPI DUP1 PUSH4 0xC114FCFA EQ PUSH2 0x8C4 JUMPI PUSH1 0x0 DUP1 REVERT JUMPDEST DUP1 PUSH4 0xAE169A50 GT PUSH2 0x17C JUMPI DUP1 PUSH4 0xB820A1CD GT PUSH2 0x156 JUMPI DUP1 PUSH4 0xB820A1CD EQ PUSH2 0x85D JUMPI DUP1 PUSH4 0xBDD13D4A EQ PUSH2 0x870 JUMPI DUP1 PUSH4 0xBF2CE808 EQ PUSH2 0x883 JUMPI DUP1 PUSH4 0xBF41C2A4 EQ PUSH2 0x896 JUMPI PUSH1 0x0 DUP1 REVERT JUMPDEST DUP1 PUSH4 0xAE169A50 EQ PUSH2 0x80C JUMPI DUP1 PUSH4 0xB3D673D8 EQ PUSH2 0x81F JUMPI DUP1 PUSH4 0xB401CDCA EQ PUSH2 0x832 JUMPI PUSH1 0x0 DUP1 REVERT JUMPDEST DUP1 PUSH4 0xA224CEE7 GT PUSH2 0x1B8 JUMPI DUP1 PUSH4 0xA224CEE7 EQ PUSH2 0x6E3 JUMPI DUP1 PUSH4 0xA87430BA EQ PUSH2 0x6F6 JUMPI DUP1 PUSH4 0xAAF5BFC3 EQ PUSH2 0x75B JUMPI DUP1 PUSH4 0xAC4AFA38 EQ PUSH2 0x76E JUMPI PUSH1 0x0 DUP1 REVERT JUMPDEST DUP1 PUSH4 0x98D5FDCA EQ PUSH2 0x6B5 JUMPI DUP1 PUSH4 0x99672158 EQ PUSH2 0x6BD JUMPI DUP1 PUSH4 0x9DDA7FEE EQ PUSH2 0x6D0 JUMPI PUSH1 0x0 DUP1 REVERT JUMPDEST DUP1 PUSH4 0x509173A1 GT PUSH2 0x2C3 JUMPI DUP1 PUSH4 0x704B6C02 GT PUSH2 0x261 JUMPI DUP1 PUSH4 0x7ADE2642 GT PUSH2 0x230 JUMPI DUP1 PUSH4 0x7ADE2642 EQ PUSH2 0x67F JUMPI DUP1 PUSH4 0x7B542A2A EQ PUSH2 0x687 JUMPI DUP1 PUSH4 0x855C5D46 EQ PUSH2 0x69A JUMPI DUP1 PUSH4 0x8CD05ECB EQ PUSH2 0x6A2 JUMPI PUSH1 0x0 DUP1 REVERT JUMPDEST DUP1 PUSH4 0x704B6C02 EQ PUSH2 0x623 JUMPI DUP1 PUSH4 0x736C0D5B EQ PUSH2 0x636 JUMPI DUP1 PUSH4 0x7628A37D EQ PUSH2 0x659 JUMPI DUP1 PUSH4 0x7ACE48E7 EQ PUSH2 0x66C JUMPI PUSH1 0x0 DUP1 REVERT JUMPDEST DUP1 PUSH4 0x5BB47808 GT PUSH2 0x29D JUMPI DUP1 PUSH4 0x5BB47808 EQ PUSH2 0x5B6 JUMPI DUP1 PUSH4 0x5D3EEA91 EQ PUSH2 0x5C9 JUMPI DUP1 PUSH4 0x686E9222 EQ PUSH2 0x5DC JUMPI DUP1 PUSH4 0x6B38E049 EQ PUSH2 0x610 JUMPI PUSH1 0x0 DUP1 REVERT JUMPDEST DUP1 PUSH4 0x509173A1 EQ PUSH2 0x57D JUMPI DUP1 PUSH4 0x53A64091 EQ PUSH2 0x590 JUMPI DUP1 PUSH4 0x57A8773E EQ PUSH2 0x5A3 JUMPI PUSH1 0x0 DUP1 REVERT JUMPDEST DUP1 PUSH4 0x28AC7C51 GT PUSH2 0x330 JUMPI DUP1 PUSH4 0x34144B0F GT PUSH2 0x30A JUMPI DUP1 PUSH4 0x34144B0F EQ PUSH2 0x4A0 JUMPI DUP1 PUSH4 0x3E99C1E4 EQ PUSH2 0x4E9 JUMPI DUP1 PUSH4 0x4A3B68CC EQ PUSH2 0x523 JUMPI DUP1 PUSH4 0x4AE77BCF EQ PUSH2 0x54C JUMPI PUSH1 0x0 DUP1 REVERT JUMPDEST DUP1 PUSH4 0x28AC7C51 EQ PUSH2 0x44C JUMPI DUP1 PUSH4 0x29A16616 EQ PUSH2 0x45F JUMPI DUP1 PUSH4 0x32A00D8E EQ PUSH2 0x480 JUMPI PUSH1 0x0 DUP1 REVERT JUMPDEST DUP1 PUSH4 0x21040FC3 GT PUSH2 0x36C JUMPI DUP1 PUSH4 0x21040FC3 EQ PUSH2 0x40B JUMPI DUP1 PUSH4 0x216B31C1 EQ PUSH2 0x41E JUMPI DUP1 PUSH4 0x23452B9C EQ PUSH2 0x431 JUMPI DUP1 PUSH4 0x25E16063 EQ PUSH2 0x439 JUMPI PUSH1 0x0 DUP1 REVERT JUMPDEST DUP1 PUSH4 0x47AC00E EQ PUSH2 0x393 JUMPI DUP1 PUSH4 0x9EEF43E EQ PUSH2 0x3A8 JUMPI DUP1 PUSH4 0x1755FF21 EQ PUSH2 0x3E0 JUMPI JUMPDEST PUSH1 0x0 DUP1 REVERT JUMPDEST PUSH2 0x3A6 PUSH2 0x3A1 CALLDATASIZE PUSH1 0x4 PUSH2 0x3B65 JUMP JUMPDEST PUSH2 0x9E0 JUMP JUMPDEST STOP JUMPDEST PUSH2 0x3CB PUSH2 0x3B6 CALLDATASIZE PUSH1 0x4 PUSH2 0x3B9C JUMP JUMPDEST PUSH1 0x39 PUSH1 0x20 MSTORE PUSH1 0x0 SWAP1 DUP2 MSTORE PUSH1 0x40 SWAP1 KECCAK256 SLOAD PUSH1 0xFF AND DUP2 JUMP JUMPDEST PUSH1 0x40 MLOAD SWAP1 ISZERO ISZERO DUP2 MSTORE PUSH1 0x20 ADD JUMPDEST PUSH1 0x40 MLOAD DUP1 SWAP2 SUB SWAP1 RETURN JUMPDEST PUSH1 0x45 SLOAD PUSH2 0x3F3 SWAP1 PUSH1 0x1 PUSH1 0x1 PUSH1 0xA0 SHL SUB AND DUP2 JUMP JUMPDEST PUSH1 0x40 MLOAD PUSH1 0x1 PUSH1 0x1 PUSH1 0xA0 SHL SUB SWAP1 SWAP2 AND DUP2 MSTORE PUSH1 0x20 ADD PUSH2 0x3D7 JUMP JUMPDEST PUSH2 0x3A6 PUSH2 0x419 CALLDATASIZE PUSH1 0x4 PUSH2 0x3B9C JUMP JUMPDEST PUSH2 0xC9B JUMP JUMPDEST PUSH2 0x3A6 PUSH2 0x42C CALLDATASIZE PUSH1 0x4 PUSH2 0x3BB9 JUMP JUMPDEST PUSH2 0xD8D JUMP JUMPDEST PUSH2 0x3A6 PUSH2 0xE44 JUMP JUMPDEST PUSH2 0x3A6 PUSH2 0x447 CALLDATASIZE PUSH1 0x4 PUSH2 0x3B9C JUMP JUMPDEST PUSH2 0xF15 JUMP JUMPDEST PUSH1 0x3A SLOAD PUSH2 0x3F3 SWAP1 PUSH1 0x1 PUSH1 0x1 PUSH1 0xA0 SHL SUB AND DUP2 JUMP JUMPDEST PUSH2 0x472 PUSH2 0x46D CALLDATASIZE PUSH1 0x4 PUSH2 0x3BD2 JUMP JUMPDEST PUSH2 0x1004 JUMP JUMPDEST PUSH1 0x40 MLOAD SWAP1 DUP2 MSTORE PUSH1 0x20 ADD PUSH2 0x3D7 JUMP JUMPDEST PUSH2 0x493 PUSH2 0x48E CALLDATASIZE PUSH1 0x4 PUSH2 0x3C0B JUMP JUMPDEST PUSH2 0x11C5 JUMP JUMPDEST PUSH1 0x40 MLOAD PUSH2 0x3D7 SWAP2 SWAP1 PUSH2 0x3C37 JUMP JUMPDEST PUSH2 0x4B3 PUSH2 0x4AE CALLDATASIZE PUSH1 0x4 PUSH2 0x3C84 JUMP JUMPDEST PUSH2 0x1245 JUMP JUMPDEST PUSH1 0x40 DUP1 MLOAD SWAP7 DUP8 MSTORE PUSH1 0x20 DUP8 ADD SWAP6 SWAP1 SWAP6 MSTORE SWAP4 DUP6 ADD SWAP3 SWAP1 SWAP3 MSTORE PUSH1 0x60 DUP5 ADD MSTORE PUSH1 0x1 PUSH1 0x1 PUSH1 0xA0 SHL SUB AND PUSH1 0x80 DUP4 ADD MSTORE PUSH1 0xA0 DUP3 ADD MSTORE PUSH1 0xC0 ADD PUSH2 0x3D7 JUMP JUMPDEST PUSH2 0x4FC PUSH2 0x4F7 CALLDATASIZE PUSH1 0x4 PUSH2 0x3B9C JUMP JUMPDEST PUSH2 0x12AF JUMP JUMPDEST PUSH1 0x40 DUP1 MLOAD PUSH14 0xFFFFFFFFFFFFFFFFFFFFFFFFFFFF SWAP4 DUP5 AND DUP2 MSTORE SWAP3 SWAP1 SWAP2 AND PUSH1 0x20 DUP4 ADD MSTORE ADD PUSH2 0x3D7 JUMP JUMPDEST PUSH2 0x3F3 PUSH2 0x531 CALLDATASIZE PUSH1 0x4 PUSH2 0x3B9C JUMP JUMPDEST PUSH1 0x40 PUSH1 0x20 DUP2 SWAP1 MSTORE PUSH1 0x0 SWAP2 DUP3 MSTORE SWAP1 KECCAK256 SLOAD PUSH1 0x1 PUSH1 0x1 PUSH1 0xA0 SHL SUB AND DUP2 JUMP JUMPDEST PUSH2 0x472 PUSH2 0x55A CALLDATASIZE PUSH1 0x4 PUSH2 0x3CB9 JUMP JUMPDEST PUSH1 0x47 PUSH1 0x20 SWAP1 DUP2 MSTORE PUSH1 0x0 SWAP4 DUP5 MSTORE PUSH1 0x40 DUP1 DUP6 KECCAK256 DUP3 MSTORE SWAP3 DUP5 MSTORE DUP3 DUP5 KECCAK256 SWAP1 MSTORE DUP3 MSTORE SWAP1 KECCAK256 SLOAD DUP2 JUMP JUMPDEST PUSH1 0x3D SLOAD PUSH2 0x3F3 SWAP1 PUSH1 0x1 PUSH1 0x1 PUSH1 0xA0 SHL SUB AND DUP2 JUMP JUMPDEST PUSH2 0x472 PUSH2 0x59E CALLDATASIZE PUSH1 0x4 PUSH2 0x3CFA JUMP JUMPDEST PUSH2 0x1324 JUMP JUMPDEST PUSH2 0x3A6 PUSH2 0x5B1 CALLDATASIZE PUSH1 0x4 PUSH2 0x3B9C JUMP JUMPDEST PUSH2 0x1387 JUMP JUMPDEST PUSH2 0x3A6 PUSH2 0x5C4 CALLDATASIZE PUSH1 0x4 PUSH2 0x3B9C JUMP JUMPDEST PUSH2 0x13FB JUMP JUMPDEST PUSH2 0x3A6 PUSH2 0x5D7 CALLDATASIZE PUSH1 0x4 PUSH2 0x3BB9 JUMP JUMPDEST PUSH2 0x146F JUMP JUMPDEST PUSH2 0x3F3 PUSH2 0x5EA CALLDATASIZE PUSH1 0x4 PUSH2 0x3C0B JUMP JUMPDEST PUSH1 0x48 PUSH1 0x20 SWAP1 DUP2 MSTORE PUSH1 0x0 SWAP3 DUP4 MSTORE PUSH1 0x40 DUP1 DUP5 KECCAK256 SWAP1 SWAP2 MSTORE SWAP1 DUP3 MSTORE SWAP1 KECCAK256 SLOAD PUSH1 0x1 PUSH1 0x1 PUSH1 0xA0 SHL SUB AND DUP2 JUMP JUMPDEST PUSH2 0x472 PUSH2 0x61E CALLDATASIZE PUSH1 0x4 PUSH2 0x3B65 JUMP JUMPDEST PUSH2 0x175D JUMP JUMPDEST PUSH2 0x3A6 PUSH2 0x631 CALLDATASIZE PUSH1 0x4 PUSH2 0x3B9C JUMP JUMPDEST PUSH2 0x1B50 JUMP JUMPDEST PUSH2 0x3CB PUSH2 0x644 CALLDATASIZE PUSH1 0x4 PUSH2 0x3B9C JUMP JUMPDEST PUSH1 0x44 PUSH1 0x20 MSTORE PUSH1 0x0 SWAP1 DUP2 MSTORE PUSH1 0x40 SWAP1 KECCAK256 SLOAD PUSH1 0xFF AND DUP2 JUMP JUMPDEST PUSH2 0x3A6 PUSH2 0x667 CALLDATASIZE PUSH1 0x4 PUSH2 0x3BD2 JUMP JUMPDEST PUSH2 0x1BC4 JUMP JUMPDEST PUSH2 0x3A6 PUSH2 0x67A CALLDATASIZE PUSH1 0x4 PUSH2 0x3D41 JUMP JUMPDEST PUSH2 0x20A0 JUMP JUMPDEST PUSH2 0x472 PUSH2 0x21AE JUMP JUMPDEST PUSH2 0x3A6 PUSH2 0x695 CALLDATASIZE PUSH1 0x4 PUSH2 0x3BB9 JUMP JUMPDEST PUSH2 0x22B0 JUMP JUMPDEST PUSH1 0x34 SLOAD PUSH2 0x472 JUMP JUMPDEST PUSH2 0x472 PUSH2 0x6B0 CALLDATASIZE PUSH1 0x4 PUSH2 0x3B9C JUMP JUMPDEST PUSH2 0x2307 JUMP JUMPDEST PUSH2 0x472 PUSH2 0x23EB JUMP JUMPDEST PUSH2 0x3A6 PUSH2 0x6CB CALLDATASIZE PUSH1 0x4 PUSH2 0x3CFA JUMP JUMPDEST PUSH2 0x2497 JUMP JUMPDEST PUSH2 0x472 PUSH2 0x6DE CALLDATASIZE PUSH1 0x4 PUSH2 0x3C0B JUMP JUMPDEST PUSH2 0x2611 JUMP JUMPDEST PUSH2 0x3A6 PUSH2 0x6F1 CALLDATASIZE PUSH1 0x4 PUSH2 0x3DCE JUMP JUMPDEST PUSH2 0x273D JUMP JUMPDEST PUSH2 0x733 PUSH2 0x704 CALLDATASIZE PUSH1 0x4 PUSH2 0x3B9C JUMP JUMPDEST PUSH1 0x42 PUSH1 0x20 MSTORE PUSH1 0x0 SWAP1 DUP2 MSTORE PUSH1 0x40 SWAP1 KECCAK256 DUP1 SLOAD PUSH1 0x1 DUP3 ADD SLOAD PUSH1 0x2 DUP4 ADD SLOAD PUSH1 0x3 DUP5 ADD SLOAD PUSH1 0x4 SWAP1 SWAP5 ADD SLOAD SWAP3 SWAP4 SWAP2 SWAP3 SWAP1 SWAP2 SWAP1 DUP6 JUMP JUMPDEST PUSH1 0x40 DUP1 MLOAD SWAP6 DUP7 MSTORE PUSH1 0x20 DUP7 ADD SWAP5 SWAP1 SWAP5 MSTORE SWAP3 DUP5 ADD SWAP2 SWAP1 SWAP2 MSTORE PUSH1 0x60 DUP4 ADD MSTORE PUSH1 0x80 DUP3 ADD MSTORE PUSH1 0xA0 ADD PUSH2 0x3D7 JUMP JUMPDEST PUSH2 0x3A6 PUSH2 0x769 CALLDATASIZE PUSH1 0x4 PUSH2 0x3B9C JUMP JUMPDEST PUSH2 0x296A JUMP JUMPDEST PUSH2 0x7C9 PUSH2 0x77C CALLDATASIZE PUSH1 0x4 PUSH2 0x3BB9 JUMP JUMPDEST PUSH1 0x3E PUSH1 0x20 MSTORE PUSH1 0x0 SWAP1 DUP2 MSTORE PUSH1 0x40 SWAP1 KECCAK256 DUP1 SLOAD PUSH1 0x1 DUP3 ADD SLOAD PUSH1 0x2 DUP4 ADD SLOAD PUSH1 0x3 DUP5 ADD SLOAD PUSH1 0x4 DUP6 ADD SLOAD PUSH1 0x5 DUP7 ADD SLOAD PUSH1 0x6 SWAP1 SWAP7 ADD SLOAD SWAP5 SWAP6 PUSH1 0x1 PUSH1 0x1 PUSH1 0xA0 SHL SUB SWAP5 DUP6 AND SWAP6 SWAP4 SWAP1 SWAP5 AND SWAP4 SWAP2 SWAP3 SWAP1 SWAP2 PUSH1 0xFF AND SWAP1 DUP8 JUMP JUMPDEST PUSH1 0x40 DUP1 MLOAD SWAP8 DUP9 MSTORE PUSH1 0x1 PUSH1 0x1 PUSH1 0xA0 SHL SUB SWAP7 DUP8 AND PUSH1 0x20 DUP10 ADD MSTORE SWAP5 SWAP1 SWAP6 AND SWAP4 DUP7 ADD SWAP4 SWAP1 SWAP4 MSTORE PUSH1 0x60 DUP6 ADD SWAP2 SWAP1 SWAP2 MSTORE PUSH1 0x80 DUP5 ADD MSTORE ISZERO ISZERO PUSH1 0xA0 DUP4 ADD MSTORE PUSH1 0xC0 DUP3 ADD MSTORE PUSH1 0xE0 ADD PUSH2 0x3D7 JUMP JUMPDEST PUSH2 0x3A6 PUSH2 0x81A CALLDATASIZE PUSH1 0x4 PUSH2 0x3BB9 JUMP JUMPDEST PUSH2 0x29DE JUMP JUMPDEST PUSH1 0x3C SLOAD PUSH2 0x3F3 SWAP1 PUSH1 0x1 PUSH1 0x1 PUSH1 0xA0 SHL SUB AND DUP2 JUMP JUMPDEST PUSH2 0x472 PUSH2 0x840 CALLDATASIZE PUSH1 0x4 PUSH2 0x3C0B JUMP JUMPDEST PUSH1 0x43 PUSH1 0x20 SWAP1 DUP2 MSTORE PUSH1 0x0 SWAP3 DUP4 MSTORE PUSH1 0x40 DUP1 DUP5 KECCAK256 SWAP1 SWAP2 MSTORE SWAP1 DUP3 MSTORE SWAP1 KECCAK256 SLOAD DUP2 JUMP JUMPDEST PUSH2 0x3A6 PUSH2 0x86B CALLDATASIZE PUSH1 0x4 PUSH2 0x3B65 JUMP JUMPDEST PUSH2 0x2E10 JUMP JUMPDEST PUSH2 0x3A6 PUSH2 0x87E CALLDATASIZE PUSH1 0x4 PUSH2 0x3E80 JUMP JUMPDEST PUSH2 0x2F5F JUMP JUMPDEST PUSH2 0x3A6 PUSH2 0x891 CALLDATASIZE PUSH1 0x4 PUSH2 0x3B65 JUMP JUMPDEST PUSH2 0x30D6 JUMP JUMPDEST PUSH2 0x3A6 PUSH2 0x31D8 JUMP JUMPDEST PUSH2 0x3F3 PUSH2 0x8AC CALLDATASIZE PUSH1 0x4 PUSH2 0x3C84 JUMP JUMPDEST PUSH2 0x3382 JUMP JUMPDEST PUSH2 0x3A6 PUSH2 0x8BF CALLDATASIZE PUSH1 0x4 PUSH2 0x3B9C JUMP JUMPDEST PUSH2 0x33C7 JUMP JUMPDEST PUSH2 0x472 PUSH2 0x8D2 CALLDATASIZE PUSH1 0x4 PUSH2 0x3E80 JUMP JUMPDEST PUSH2 0x343B JUMP JUMPDEST PUSH1 0x3B SLOAD PUSH2 0x3F3 SWAP1 PUSH1 0x1 PUSH1 0x1 PUSH1 0xA0 SHL SUB AND DUP2 JUMP JUMPDEST PUSH2 0x3A6 PUSH2 0x8F8 CALLDATASIZE PUSH1 0x4 PUSH2 0x3B65 JUMP JUMPDEST PUSH2 0x3494 JUMP JUMPDEST PUSH1 0x37 SLOAD PUSH2 0x3F3 SWAP1 PUSH1 0x1 PUSH1 0x1 PUSH1 0xA0 SHL SUB AND DUP2 JUMP JUMPDEST PUSH2 0x3F3 PUSH2 0x91E CALLDATASIZE PUSH1 0x4 PUSH2 0x3BB9 JUMP JUMPDEST PUSH2 0x35F6 JUMP JUMPDEST PUSH2 0x3A6 PUSH2 0x931 CALLDATASIZE PUSH1 0x4 PUSH2 0x3C0B JUMP JUMPDEST PUSH2 0x3620 JUMP JUMPDEST PUSH2 0x3F3 PUSH2 0x944 CALLDATASIZE PUSH1 0x4 PUSH2 0x3CFA JUMP JUMPDEST PUSH2 0x368E JUMP JUMPDEST PUSH2 0x472 PUSH2 0x957 CALLDATASIZE PUSH1 0x4 PUSH2 0x3B9C JUMP JUMPDEST PUSH1 0x41 PUSH1 0x20 MSTORE PUSH1 0x0 SWAP1 DUP2 MSTORE PUSH1 0x40 SWAP1 KECCAK256 SLOAD DUP2 JUMP JUMPDEST PUSH2 0x3A6 PUSH2 0x977 CALLDATASIZE PUSH1 0x4 PUSH2 0x3B9C JUMP JUMPDEST PUSH2 0x3729 JUMP JUMPDEST PUSH2 0x472 PUSH2 0x379D JUMP JUMPDEST PUSH1 0x33 SLOAD PUSH2 0x3F3 SWAP1 PUSH1 0x1 PUSH1 0x1 PUSH1 0xA0 SHL SUB AND DUP2 JUMP JUMPDEST PUSH2 0x472 PUSH2 0x9A5 CALLDATASIZE PUSH1 0x4 PUSH2 0x3C0B JUMP JUMPDEST PUSH1 0x1 PUSH1 0x1 PUSH1 0xA0 SHL SUB SWAP2 SWAP1 SWAP2 AND PUSH1 0x0 SWAP1 DUP2 MSTORE PUSH1 0x3F PUSH1 0x20 SWAP1 DUP2 MSTORE PUSH1 0x40 DUP1 DUP4 KECCAK256 SWAP4 DUP4 MSTORE SWAP3 SWAP1 MSTORE KECCAK256 SLOAD SWAP1 JUMP JUMPDEST PUSH2 0x3A6 PUSH2 0x9DB CALLDATASIZE PUSH1 0x4 PUSH2 0x3EA5 JUMP JUMPDEST PUSH2 0x3870 JUMP JUMPDEST DUP2 PUSH1 0x34 SLOAD DUP2 LT PUSH2 0xA26 JUMPI PUSH1 0x40 MLOAD PUSH3 0x461BCD PUSH1 0xE5 SHL DUP2 MSTORE PUSH1 0x20 PUSH1 0x4 DUP3 ADD MSTORE PUSH1 0xC PUSH1 0x24 DUP3 ADD MSTORE PUSH12 0x125B9D985B1A5908141BDBDB PUSH1 0xA2 SHL PUSH1 0x44 DUP3 ADD MSTORE PUSH1 0x64 ADD JUMPDEST PUSH1 0x40 MLOAD DUP1 SWAP2 SUB SWAP1 REVERT JUMPDEST PUSH1 0x0 DUP4 DUP2 MSTORE PUSH1 0x3E PUSH1 0x20 MSTORE PUSH1 0x40 SWAP1 KECCAK256 PUSH1 0x5 ADD SLOAD DUP4 SWAP1 PUSH1 0xFF AND PUSH2 0xA7E JUMPI PUSH1 0x40 MLOAD PUSH3 0x461BCD PUSH1 0xE5 SHL DUP2 MSTORE PUSH1 0x20 PUSH1 0x4 DUP3 ADD MSTORE PUSH1 0x12 PUSH1 0x24 DUP3 ADD MSTORE PUSH18 0x506F6F6C204973204E6F7420416374697665 PUSH1 0x70 SHL PUSH1 0x44 DUP3 ADD MSTORE PUSH1 0x64 ADD PUSH2 0xA1D JUMP JUMPDEST CALLER PUSH1 0x0 SWAP1 DUP2 MSTORE PUSH1 0x3F PUSH1 0x20 SWAP1 DUP2 MSTORE PUSH1 0x40 DUP1 DUP4 KECCAK256 DUP8 DUP5 MSTORE SWAP1 SWAP2 MSTORE DUP2 KECCAK256 DUP1 SLOAD DUP6 SWAP1 DUP2 LT PUSH2 0xAAA JUMPI PUSH2 0xAAA PUSH2 0x3EF7 JUMP JUMPDEST PUSH1 0x0 SWAP2 DUP3 MSTORE PUSH1 0x20 DUP1 DUP4 KECCAK256 DUP9 DUP5 MSTORE PUSH1 0x3E SWAP1 SWAP2 MSTORE PUSH1 0x40 SWAP1 SWAP3 KECCAK256 PUSH1 0x6 SWAP1 SWAP2 MUL SWAP1 SWAP2 ADD SWAP2 POP DUP1 SLOAD PUSH1 0x3 DUP4 ADD SLOAD TIMESTAMP SWAP2 PUSH2 0xADD SWAP2 PUSH2 0x3F23 JUMP JUMPDEST DUP2 LT ISZERO PUSH2 0xB2C JUMPI PUSH1 0x40 MLOAD PUSH3 0x461BCD PUSH1 0xE5 SHL DUP2 MSTORE PUSH1 0x20 PUSH1 0x4 DUP3 ADD MSTORE PUSH1 0x16 PUSH1 0x24 DUP3 ADD MSTORE PUSH32 0x54696D6520706572696F64206E6F742070617373656400000000000000000000 PUSH1 0x44 DUP3 ADD MSTORE PUSH1 0x64 ADD PUSH2 0xA1D JUMP JUMPDEST PUSH2 0xB36 DUP8 DUP8 PUSH2 0x175D JUMP JUMPDEST POP PUSH1 0x1 DUP4 DUP2 ADD DUP3 SWAP1 SSTORE DUP3 ADD SLOAD DUP4 SLOAD PUSH1 0x40 MLOAD PUSH4 0xA9059CBB PUSH1 0xE0 SHL DUP2 MSTORE CALLER PUSH1 0x4 DUP3 ADD MSTORE PUSH1 0x24 DUP2 ADD SWAP2 SWAP1 SWAP2 MSTORE PUSH1 0x1 PUSH1 0x1 PUSH1 0xA0 SHL SUB SWAP1 SWAP2 AND SWAP1 PUSH4 0xA9059CBB SWAP1 PUSH1 0x44 ADD PUSH1 0x20 PUSH1 0x40 MLOAD DUP1 DUP4 SUB DUP2 PUSH1 0x0 DUP8 GAS CALL ISZERO DUP1 ISZERO PUSH2 0xB93 JUMPI RETURNDATASIZE PUSH1 0x0 DUP1 RETURNDATACOPY RETURNDATASIZE PUSH1 0x0 REVERT JUMPDEST POP POP POP POP PUSH1 0x40 MLOAD RETURNDATASIZE PUSH1 0x1F NOT PUSH1 0x1F DUP3 ADD AND DUP3 ADD DUP1 PUSH1 0x40 MSTORE POP DUP2 ADD SWAP1 PUSH2 0xBB7 SWAP2 SWAP1 PUSH2 0x3F46 JUMP JUMPDEST PUSH2 0xC03 JUMPI PUSH1 0x40 MLOAD PUSH3 0x461BCD PUSH1 0xE5 SHL DUP2 MSTORE PUSH1 0x20 PUSH1 0x4 DUP3 ADD MSTORE PUSH1 0x1C PUSH1 0x24 DUP3 ADD MSTORE PUSH32 0x5374616B656420746F6B656E207472616E73666572206661696C656400000000 PUSH1 0x44 DUP3 ADD MSTORE PUSH1 0x64 ADD PUSH2 0xA1D JUMP JUMPDEST DUP3 SLOAD CALLER PUSH1 0x0 SWAP1 DUP2 MSTORE PUSH1 0x42 PUSH1 0x20 MSTORE PUSH1 0x40 DUP2 KECCAK256 PUSH1 0x1 ADD DUP1 SLOAD SWAP1 SWAP2 SWAP1 PUSH2 0xC27 SWAP1 DUP5 SWAP1 PUSH2 0x3F63 JUMP JUMPDEST SWAP1 SWAP2 SSTORE POP POP DUP3 SLOAD CALLER PUSH1 0x0 SWAP1 DUP2 MSTORE PUSH1 0x43 PUSH1 0x20 SWAP1 DUP2 MSTORE PUSH1 0x40 DUP1 DUP4 KECCAK256 DUP12 DUP5 MSTORE SWAP1 SWAP2 MSTORE DUP2 KECCAK256 DUP1 SLOAD SWAP1 SWAP2 SWAP1 PUSH2 0xC58 SWAP1 DUP5 SWAP1 PUSH2 0x3F63 JUMP JUMPDEST SWAP1 SWAP2 SSTORE POP POP DUP3 SLOAD PUSH1 0x0 DUP9 DUP2 MSTORE PUSH1 0x3E PUSH1 0x20 MSTORE PUSH1 0x40 DUP2 KECCAK256 PUSH1 0x6 ADD DUP1 SLOAD SWAP1 SWAP2 SWAP1 PUSH2 0xC80 SWAP1 DUP5 SWAP1 PUSH2 0x3F63 JUMP JUMPDEST SWAP1 SWAP2 SSTORE POP POP PUSH1 0x0 DUP1 DUP5 SSTORE PUSH1 0x5 SWAP1 SWAP4 ADD SWAP3 SWAP1 SWAP3 SSTORE POP POP POP POP POP POP JUMP JUMPDEST PUSH1 0x33 SLOAD PUSH1 0x1 PUSH1 0x1 PUSH1 0xA0 SHL SUB AND CALLER EQ PUSH2 0xCED JUMPI PUSH1 0x40 MLOAD PUSH3 0x461BCD PUSH1 0xE5 SHL DUP2 MSTORE PUSH1 0x20 PUSH1 0x4 DUP3 ADD MSTORE PUSH1 0x21 PUSH1 0x24 DUP3 ADD MSTORE PUSH1 0x0 DUP1 MLOAD PUSH1 0x20 PUSH2 0x4123 DUP4 CODECOPY DUP2 MLOAD SWAP2 MSTORE PUSH1 0x44 DUP3 ADD MSTORE PUSH1 0x37 PUSH1 0xF9 SHL PUSH1 0x64 DUP3 ADD MSTORE PUSH1 0x84 ADD PUSH2 0xA1D JUMP JUMPDEST PUSH1 0x1 PUSH1 0x1 PUSH1 0xA0 SHL SUB DUP2 AND PUSH2 0xD43 JUMPI PUSH1 0x40 MLOAD PUSH3 0x461BCD PUSH1 0xE5 SHL DUP2 MSTORE PUSH1 0x20 PUSH1 0x4 DUP3 ADD DUP2 SWAP1 MSTORE PUSH1 0x24 DUP3 ADD MSTORE PUSH32 0x4E6577206F776E65722063616E6E6F74206265207A65726F2061646472657373 PUSH1 0x44 DUP3 ADD MSTORE PUSH1 0x64 ADD PUSH2 0xA1D JUMP JUMPDEST PUSH1 0x37 DUP1 SLOAD PUSH1 0x1 PUSH1 0x1 PUSH1 0xA0 SHL SUB NOT AND PUSH1 0x1 PUSH1 0x1 PUSH1 0xA0 SHL SUB DUP4 AND SWAP1 DUP2 OR SWAP1 SWAP2 SSTORE PUSH1 0x40 MLOAD PUSH32 0xF0C6916D81CD1F899264B5193E3BBE7AFD2BCC3D05704BAB73D0B8AC93871158 SWAP1 PUSH1 0x0 SWAP1 LOG2 POP JUMP JUMPDEST PUSH1 0x33 SLOAD PUSH1 0x1 PUSH1 0x1 PUSH1 0xA0 SHL SUB AND CALLER EQ PUSH2 0xDDF JUMPI PUSH1 0x40 MLOAD PUSH3 0x461BCD PUSH1 0xE5 SHL DUP2 MSTORE PUSH1 0x20 PUSH1 0x4 DUP3 ADD MSTORE PUSH1 0x21 PUSH1 0x24 DUP3 ADD MSTORE PUSH1 0x0 DUP1 MLOAD PUSH1 0x20 PUSH2 0x4123 DUP4 CODECOPY DUP2 MLOAD SWAP2 MSTORE PUSH1 0x44 DUP3 ADD MSTORE PUSH1 0x37 PUSH1 0xF9 SHL PUSH1 0x64 DUP3 ADD MSTORE PUSH1 0x84 ADD PUSH2 0xA1D JUMP JUMPDEST DUP1 PUSH1 0x34 SLOAD DUP2 LT PUSH2 0xE20 JUMPI PUSH1 0x40 MLOAD PUSH3 0x461BCD PUSH1 0xE5 SHL DUP2 MSTORE PUSH1 0x20 PUSH1 0x4 DUP3 ADD MSTORE PUSH1 0xC PUSH1 0x24 DUP3 ADD MSTORE PUSH12 0x125B9D985B1A5908141BDBDB PUSH1 0xA2 SHL PUSH1 0x44 DUP3 ADD MSTORE PUSH1 0x64 ADD PUSH2 0xA1D JUMP JUMPDEST POP PUSH1 0x0 SWAP1 DUP2 MSTORE PUSH1 0x3E PUSH1 0x20 MSTORE PUSH1 0x40 SWAP1 KECCAK256 PUSH1 0x5 ADD DUP1 SLOAD PUSH1 0xFF NOT DUP2 AND PUSH1 0xFF SWAP1 SWAP2 AND ISZERO OR SWAP1 SSTORE JUMP JUMPDEST PUSH1 0x33 SLOAD PUSH1 0x1 PUSH1 0x1 PUSH1 0xA0 SHL SUB AND CALLER EQ PUSH2 0xE96 JUMPI PUSH1 0x40 MLOAD PUSH3 0x461BCD PUSH1 0xE5 SHL DUP2 MSTORE PUSH1 0x20 PUSH1 0x4 DUP3 ADD MSTORE PUSH1 0x21 PUSH1 0x24 DUP3 ADD MSTORE PUSH1 0x0 DUP1 MLOAD PUSH1 0x20 PUSH2 0x4123 DUP4 CODECOPY DUP2 MLOAD SWAP2 MSTORE PUSH1 0x44 DUP3 ADD MSTORE PUSH1 0x37 PUSH1 0xF9 SHL PUSH1 0x64 DUP3 ADD MSTORE PUSH1 0x84 ADD PUSH2 0xA1D JUMP JUMPDEST PUSH1 0x37 DUP1 SLOAD PUSH1 0x1 PUSH1 0x1 PUSH1 0xA0 SHL SUB NOT AND SWAP1 SSTORE PUSH1 0x0 JUMPDEST PUSH1 0x38 SLOAD DUP2 LT ISZERO PUSH2 0xF12 JUMPI PUSH1 0x0 PUSH1 0x39 PUSH1 0x0 PUSH1 0x38 DUP5 DUP2 SLOAD DUP2 LT PUSH2 0xECC JUMPI PUSH2 0xECC PUSH2 0x3EF7 JUMP JUMPDEST PUSH1 0x0 SWAP2 DUP3 MSTORE PUSH1 0x20 DUP1 DUP4 KECCAK256 SWAP2 SWAP1 SWAP2 ADD SLOAD PUSH1 0x1 PUSH1 0x1 PUSH1 0xA0 SHL SUB AND DUP4 MSTORE DUP3 ADD SWAP3 SWAP1 SWAP3 MSTORE PUSH1 0x40 ADD SWAP1 KECCAK256 DUP1 SLOAD PUSH1 0xFF NOT AND SWAP2 ISZERO ISZERO SWAP2 SWAP1 SWAP2 OR SWAP1 SSTORE DUP1 PUSH2 0xF0A DUP2 PUSH2 0x3F76 JUMP JUMPDEST SWAP2 POP POP PUSH2 0xEA9 JUMP JUMPDEST POP JUMP JUMPDEST PUSH1 0x33 SLOAD PUSH1 0x1 PUSH1 0x1 PUSH1 0xA0 SHL SUB AND CALLER EQ PUSH2 0xF67 JUMPI PUSH1 0x40 MLOAD PUSH3 0x461BCD PUSH1 0xE5 SHL DUP2 MSTORE PUSH1 0x20 PUSH1 0x4 DUP3 ADD MSTORE PUSH1 0x21 PUSH1 0x24 DUP3 ADD MSTORE PUSH1 0x0 DUP1 MLOAD PUSH1 0x20 PUSH2 0x4123 DUP4 CODECOPY DUP2 MLOAD SWAP2 MSTORE PUSH1 0x44 DUP3 ADD MSTORE PUSH1 0x37 PUSH1 0xF9 SHL PUSH1 0x64 DUP3 ADD MSTORE PUSH1 0x84 ADD PUSH2 0xA1D JUMP JUMPDEST PUSH2 0xF6F PUSH2 0x3999 JUMP JUMPDEST PUSH1 0x1 PUSH1 0x1 PUSH1 0xA0 SHL SUB DUP2 AND PUSH2 0xFC5 JUMPI PUSH1 0x40 MLOAD PUSH3 0x461BCD PUSH1 0xE5 SHL DUP2 MSTORE PUSH1 0x20 PUSH1 0x4 DUP3 ADD MSTORE PUSH1 0xF PUSH1 0x24 DUP3 ADD MSTORE PUSH32 0x496E76616C696420616464726573730000000000000000000000000000000000 PUSH1 0x44 DUP3 ADD MSTORE PUSH1 0x64 ADD PUSH2 0xA1D JUMP JUMPDEST PUSH1 0x40 MLOAD PUSH1 0x1 PUSH1 0x1 PUSH1 0xA0 SHL SUB DUP3 AND SWAP1 SELFBALANCE DUP1 ISZERO PUSH2 0x8FC MUL SWAP2 PUSH1 0x0 DUP2 DUP2 DUP2 DUP6 DUP9 DUP9 CALL SWAP4 POP POP POP POP ISZERO DUP1 ISZERO PUSH2 0xFFA JUMPI RETURNDATASIZE PUSH1 0x0 DUP1 RETURNDATACOPY RETURNDATASIZE PUSH1 0x0 REVERT JUMPDEST POP PUSH2 0xF12 PUSH1 0x1 DUP1 SSTORE JUMP JUMPDEST PUSH1 0x0 DUP4 PUSH1 0x34 SLOAD DUP2 LT PUSH2 0x1047 JUMPI PUSH1 0x40 MLOAD PUSH3 0x461BCD PUSH1 0xE5 SHL DUP2 MSTORE PUSH1 0x20 PUSH1 0x4 DUP3 ADD MSTORE PUSH1 0xC PUSH1 0x24 DUP3 ADD MSTORE PUSH12 0x125B9D985B1A5908141BDBDB PUSH1 0xA2 SHL PUSH1 0x44 DUP3 ADD MSTORE PUSH1 0x64 ADD PUSH2 0xA1D JUMP JUMPDEST PUSH1 0x0 DUP6 DUP2 MSTORE PUSH1 0x3E PUSH1 0x20 MSTORE PUSH1 0x40 SWAP1 KECCAK256 PUSH1 0x5 ADD SLOAD DUP6 SWAP1 PUSH1 0xFF AND PUSH2 0x109F JUMPI PUSH1 0x40 MLOAD PUSH3 0x461BCD PUSH1 0xE5 SHL DUP2 MSTORE PUSH1 0x20 PUSH1 0x4 DUP3 ADD MSTORE PUSH1 0x12 PUSH1 0x24 DUP3 ADD MSTORE PUSH18 0x506F6F6C204973204E6F7420416374697665 PUSH1 0x70 SHL PUSH1 0x44 DUP3 ADD MSTORE PUSH1 0x64 ADD PUSH2 0xA1D JUMP JUMPDEST PUSH1 0x1 PUSH1 0x1 PUSH1 0xA0 SHL SUB DUP5 AND PUSH1 0x0 SWAP1 DUP2 MSTORE PUSH1 0x3F PUSH1 0x20 SWAP1 DUP2 MSTORE PUSH1 0x40 DUP1 DUP4 KECCAK256 DUP10 DUP5 MSTORE SWAP1 SWAP2 MSTORE SWAP1 KECCAK256 SLOAD DUP6 LT PUSH2 0x1111 JUMPI PUSH1 0x40 MLOAD PUSH3 0x461BCD PUSH1 0xE5 SHL DUP2 MSTORE PUSH1 0x20 PUSH1 0x4 DUP3 ADD MSTORE PUSH1 0xF PUSH1 0x24 DUP3 ADD MSTORE PUSH32 0x55736572204E6F74205374616B65640000000000000000000000000000000000 PUSH1 0x44 DUP3 ADD MSTORE PUSH1 0x64 ADD PUSH2 0xA1D JUMP JUMPDEST PUSH1 0x1 PUSH1 0x1 PUSH1 0xA0 SHL SUB DUP5 AND PUSH1 0x0 SWAP1 DUP2 MSTORE PUSH1 0x3F PUSH1 0x20 SWAP1 DUP2 MSTORE PUSH1 0x40 DUP1 DUP4 KECCAK256 DUP10 DUP5 MSTORE SWAP1 SWAP2 MSTORE DUP2 KECCAK256 DUP1 SLOAD DUP8 SWAP1 DUP2 LT PUSH2 0x1146 JUMPI PUSH2 0x1146 PUSH2 0x3EF7 JUMP JUMPDEST PUSH1 0x0 SWAP2 DUP3 MSTORE PUSH1 0x20 DUP1 DUP4 KECCAK256 DUP11 DUP5 MSTORE PUSH1 0x3E SWAP1 SWAP2 MSTORE PUSH1 0x40 DUP4 KECCAK256 PUSH1 0x6 SWAP3 SWAP1 SWAP3 MUL ADD PUSH1 0x1 DUP2 ADD SLOAD SWAP1 SWAP4 POP SWAP1 SWAP2 TIMESTAMP SWAP2 PUSH2 0x1179 SWAP1 DUP4 PUSH2 0x3F63 JUMP JUMPDEST SWAP1 POP PUSH1 0x0 PUSH1 0x35 SLOAD PUSH2 0x2710 DUP6 PUSH1 0x3 ADD SLOAD DUP5 DUP9 PUSH1 0x5 ADD SLOAD PUSH2 0x1198 SWAP2 SWAP1 PUSH2 0x3F8F JUMP JUMPDEST PUSH2 0x11A2 SWAP2 SWAP1 PUSH2 0x3F8F JUMP JUMPDEST PUSH2 0x11AC SWAP2 SWAP1 PUSH2 0x3FA6 JUMP JUMPDEST PUSH2 0x11B6 SWAP2 SWAP1 PUSH2 0x3FA6 JUMP JUMPDEST SWAP12 SWAP11 POP POP POP POP POP POP POP POP POP POP POP JUMP JUMPDEST PUSH1 0x1 PUSH1 0x1 PUSH1 0xA0 SHL SUB DUP3 AND PUSH1 0x0 SWAP1 DUP2 MSTORE PUSH1 0x46 PUSH1 0x20 SWAP1 DUP2 MSTORE PUSH1 0x40 DUP1 DUP4 KECCAK256 DUP5 DUP5 MSTORE DUP3 MSTORE SWAP2 DUP3 SWAP1 KECCAK256 DUP1 SLOAD DUP4 MLOAD DUP2 DUP5 MUL DUP2 ADD DUP5 ADD SWAP1 SWAP5 MSTORE DUP1 DUP5 MSTORE PUSH1 0x60 SWAP4 SWAP3 DUP4 ADD DUP3 DUP3 DUP1 ISZERO PUSH2 0x1237 JUMPI PUSH1 0x20 MUL DUP3 ADD SWAP2 SWAP1 PUSH1 0x0 MSTORE PUSH1 0x20 PUSH1 0x0 KECCAK256 SWAP1 JUMPDEST DUP2 SLOAD PUSH1 0x1 PUSH1 0x1 PUSH1 0xA0 SHL SUB AND DUP2 MSTORE PUSH1 0x1 SWAP1 SWAP2 ADD SWAP1 PUSH1 0x20 ADD DUP1 DUP4 GT PUSH2 0x1219 JUMPI JUMPDEST POP POP POP POP POP SWAP1 POP JUMPDEST SWAP3 SWAP2 POP POP JUMP JUMPDEST PUSH1 0x3F PUSH1 0x20 MSTORE DUP3 PUSH1 0x0 MSTORE PUSH1 0x40 PUSH1 0x0 KECCAK256 PUSH1 0x20 MSTORE DUP2 PUSH1 0x0 MSTORE PUSH1 0x40 PUSH1 0x0 KECCAK256 DUP2 DUP2 SLOAD DUP2 LT PUSH2 0x126D JUMPI PUSH1 0x0 DUP1 REVERT JUMPDEST PUSH1 0x0 SWAP2 DUP3 MSTORE PUSH1 0x20 SWAP1 SWAP2 KECCAK256 PUSH1 0x6 SWAP1 SWAP2 MUL ADD DUP1 SLOAD PUSH1 0x1 DUP3 ADD SLOAD PUSH1 0x2 DUP4 ADD SLOAD PUSH1 0x3 DUP5 ADD SLOAD PUSH1 0x4 DUP6 ADD SLOAD PUSH1 0x5 SWAP1 SWAP6 ADD SLOAD SWAP4 SWAP8 POP SWAP2 SWAP6 POP SWAP4 POP SWAP2 PUSH1 0x1 PUSH1 0x1 PUSH1 0xA0 SHL SUB AND SWAP1 DUP7 JUMP JUMPDEST PUSH1 0x0 DUP1 PUSH1 0x0 DUP1 DUP5 PUSH1 0x1 PUSH1 0x1 PUSH1 0xA0 SHL SUB AND PUSH4 0x902F1AC PUSH1 0x40 MLOAD DUP2 PUSH4 0xFFFFFFFF AND PUSH1 0xE0 SHL DUP2 MSTORE PUSH1 0x4 ADD PUSH1 0x60 PUSH1 0x40 MLOAD DUP1 DUP4 SUB DUP2 DUP7 GAS STATICCALL ISZERO DUP1 ISZERO PUSH2 0x12F3 JUMPI RETURNDATASIZE PUSH1 0x0 DUP1 RETURNDATACOPY RETURNDATASIZE PUSH1 0x0 REVERT JUMPDEST POP POP POP POP PUSH1 0x40 MLOAD RETURNDATASIZE PUSH1 0x1F NOT PUSH1 0x1F DUP3 ADD AND DUP3 ADD DUP1 PUSH1 0x40 MSTORE POP DUP2 ADD SWAP1 PUSH2 0x1317 SWAP2 SWAP1 PUSH2 0x3FFA JUMP JUMPDEST POP SWAP1 SWAP7 SWAP1 SWAP6 POP SWAP4 POP POP POP POP JUMP JUMPDEST PUSH1 0x0 DUP1 DUP1 JUMPDEST PUSH1 0x34 SLOAD DUP2 LT ISZERO PUSH2 0x137F JUMPI PUSH1 0x1 PUSH1 0x1 PUSH1 0xA0 SHL SUB DUP1 DUP6 AND PUSH1 0x0 SWAP1 DUP2 MSTORE PUSH1 0x47 PUSH1 0x20 SWAP1 DUP2 MSTORE PUSH1 0x40 DUP1 DUP4 KECCAK256 SWAP4 DUP10 AND DUP4 MSTORE SWAP3 DUP2 MSTORE DUP3 DUP3 KECCAK256 DUP5 DUP4 MSTORE SWAP1 MSTORE KECCAK256 SLOAD PUSH2 0x136B SWAP1 DUP4 PUSH2 0x3F23 JUMP JUMPDEST SWAP2 POP DUP1 PUSH2 0x1377 DUP2 PUSH2 0x3F76 JUMP JUMPDEST SWAP2 POP POP PUSH2 0x1329 JUMP JUMPDEST POP SWAP4 SWAP3 POP POP POP JUMP JUMPDEST PUSH1 0x33 SLOAD PUSH1 0x1 PUSH1 0x1 PUSH1 0xA0 SHL SUB AND CALLER EQ PUSH2 0x13D9 JUMPI PUSH1 0x40 MLOAD PUSH3 0x461BCD PUSH1 0xE5 SHL DUP2 MSTORE PUSH1 0x20 PUSH1 0x4 DUP3 ADD MSTORE PUSH1 0x21 PUSH1 0x24 DUP3 ADD MSTORE PUSH1 0x0 DUP1 MLOAD PUSH1 0x20 PUSH2 0x4123 DUP4 CODECOPY DUP2 MLOAD SWAP2 MSTORE PUSH1 0x44 DUP3 ADD MSTORE PUSH1 0x37 PUSH1 0xF9 SHL PUSH1 0x64 DUP3 ADD MSTORE PUSH1 0x84 ADD PUSH2 0xA1D JUMP JUMPDEST PUSH1 0x3B DUP1 SLOAD PUSH1 0x1 PUSH1 0x1 PUSH1 0xA0 SHL SUB NOT AND PUSH1 0x1 PUSH1 0x1 PUSH1 0xA0 SHL SUB SWAP3 SWAP1 SWAP3 AND SWAP2 SWAP1 SWAP2 OR SWAP1 SSTORE JUMP JUMPDEST PUSH1 0x33 SLOAD PUSH1 0x1 PUSH1 0x1 PUSH1 0xA0 SHL SUB AND CALLER EQ PUSH2 0x144D JUMPI PUSH1 0x40 MLOAD PUSH3 0x461BCD PUSH1 0xE5 SHL DUP2 MSTORE PUSH1 0x20 PUSH1 0x4 DUP3 ADD MSTORE PUSH1 0x21 PUSH1 0x24 DUP3 ADD MSTORE PUSH1 0x0 DUP1 MLOAD PUSH1 0x20 PUSH2 0x4123 DUP4 CODECOPY DUP2 MLOAD SWAP2 MSTORE PUSH1 0x44 DUP3 ADD MSTORE PUSH1 0x37 PUSH1 0xF9 SHL PUSH1 0x64 DUP3 ADD MSTORE PUSH1 0x84 ADD PUSH2 0xA1D JUMP JUMPDEST PUSH1 0x3D DUP1 SLOAD PUSH1 0x1 PUSH1 0x1 PUSH1 0xA0 SHL SUB NOT AND PUSH1 0x1 PUSH1 0x1 PUSH1 0xA0 SHL SUB SWAP3 SWAP1 SWAP3 AND SWAP2 SWAP1 SWAP2 OR SWAP1 SSTORE JUMP JUMPDEST DUP1 PUSH1 0x34 SLOAD DUP2 LT PUSH2 0x14B0 JUMPI PUSH1 0x40 MLOAD PUSH3 0x461BCD PUSH1 0xE5 SHL DUP2 MSTORE PUSH1 0x20 PUSH1 0x4 DUP3 ADD MSTORE PUSH1 0xC PUSH1 0x24 DUP3 ADD MSTORE PUSH12 0x125B9D985B1A5908141BDBDB PUSH1 0xA2 SHL PUSH1 0x44 DUP3 ADD MSTORE PUSH1 0x64 ADD PUSH2 0xA1D JUMP JUMPDEST PUSH1 0x0 DUP3 DUP2 MSTORE PUSH1 0x3E PUSH1 0x20 MSTORE PUSH1 0x40 SWAP1 KECCAK256 PUSH1 0x5 ADD SLOAD DUP3 SWAP1 PUSH1 0xFF AND PUSH2 0x1508 JUMPI PUSH1 0x40 MLOAD PUSH3 0x461BCD PUSH1 0xE5 SHL DUP2 MSTORE PUSH1 0x20 PUSH1 0x4 DUP3 ADD MSTORE PUSH1 0x12 PUSH1 0x24 DUP3 ADD MSTORE PUSH18 0x506F6F6C204973204E6F7420416374697665 PUSH1 0x70 SHL PUSH1 0x44 DUP3 ADD MSTORE PUSH1 0x64 ADD PUSH2 0xA1D JUMP JUMPDEST PUSH1 0x0 DUP4 DUP2 MSTORE PUSH1 0x3E PUSH1 0x20 MSTORE PUSH1 0x40 DUP2 KECCAK256 DUP2 JUMPDEST CALLER PUSH1 0x0 SWAP1 DUP2 MSTORE PUSH1 0x3F PUSH1 0x20 SWAP1 DUP2 MSTORE PUSH1 0x40 DUP1 DUP4 KECCAK256 DUP10 DUP5 MSTORE SWAP1 SWAP2 MSTORE SWAP1 KECCAK256 SLOAD DUP2 LT ISZERO PUSH2 0x1636 JUMPI CALLER PUSH1 0x0 SWAP1 DUP2 MSTORE PUSH1 0x3F PUSH1 0x20 SWAP1 DUP2 MSTORE PUSH1 0x40 DUP1 DUP4 KECCAK256 DUP10 DUP5 MSTORE SWAP1 SWAP2 MSTORE DUP2 KECCAK256 DUP1 SLOAD DUP4 SWAP1 DUP2 LT PUSH2 0x1566 JUMPI PUSH2 0x1566 PUSH2 0x3EF7 JUMP JUMPDEST SWAP1 PUSH1 0x0 MSTORE PUSH1 0x20 PUSH1 0x0 KECCAK256 SWAP1 PUSH1 0x6 MUL ADD SWAP1 POP PUSH1 0x0 TIMESTAMP SWAP1 POP DUP4 PUSH1 0x0 ADD SLOAD DUP3 PUSH1 0x3 ADD SLOAD PUSH2 0x158F SWAP2 SWAP1 PUSH2 0x3F23 JUMP JUMPDEST DUP2 LT PUSH2 0x1621 JUMPI DUP2 SLOAD PUSH2 0x15A1 SWAP1 DUP7 PUSH2 0x3F23 JUMP JUMPDEST SWAP5 POP PUSH2 0x15AD DUP9 DUP5 PUSH2 0x175D JUMP JUMPDEST POP PUSH1 0x0 DUP1 DUP4 SSTORE PUSH1 0x1 DUP4 ADD DUP3 SWAP1 SSTORE CALLER DUP2 MSTORE PUSH1 0x3F PUSH1 0x20 SWAP1 DUP2 MSTORE PUSH1 0x40 DUP1 DUP4 KECCAK256 DUP12 DUP5 MSTORE SWAP1 SWAP2 MSTORE SWAP1 KECCAK256 DUP1 SLOAD DUP5 SWAP1 DUP2 LT PUSH2 0x15E3 JUMPI PUSH2 0x15E3 PUSH2 0x3EF7 JUMP JUMPDEST PUSH1 0x0 SWAP2 DUP3 MSTORE PUSH1 0x20 DUP3 KECCAK256 PUSH1 0x6 SWAP1 SWAP2 MUL ADD DUP2 DUP2 SSTORE PUSH1 0x1 DUP2 ADD DUP3 SWAP1 SSTORE PUSH1 0x2 DUP2 ADD DUP3 SWAP1 SSTORE PUSH1 0x3 DUP2 ADD DUP3 SWAP1 SSTORE PUSH1 0x4 DUP2 ADD DUP1 SLOAD PUSH1 0x1 PUSH1 0x1 PUSH1 0xA0 SHL SUB NOT AND SWAP1 SSTORE PUSH1 0x5 ADD SSTORE JUMPDEST POP POP DUP1 DUP1 PUSH2 0x162E SWAP1 PUSH2 0x3F76 JUMP JUMPDEST SWAP2 POP POP PUSH2 0x1518 JUMP JUMPDEST POP CALLER PUSH1 0x0 SWAP1 DUP2 MSTORE PUSH1 0x42 PUSH1 0x20 MSTORE PUSH1 0x40 DUP2 KECCAK256 PUSH1 0x1 ADD DUP1 SLOAD DUP5 SWAP3 SWAP1 PUSH2 0x1659 SWAP1 DUP5 SWAP1 PUSH2 0x3F63 JUMP JUMPDEST SWAP1 SWAP2 SSTORE POP POP CALLER PUSH1 0x0 SWAP1 DUP2 MSTORE PUSH1 0x43 PUSH1 0x20 SWAP1 DUP2 MSTORE PUSH1 0x40 DUP1 DUP4 KECCAK256 DUP9 DUP5 MSTORE SWAP1 SWAP2 MSTORE DUP2 KECCAK256 DUP1 SLOAD DUP5 SWAP3 SWAP1 PUSH2 0x1688 SWAP1 DUP5 SWAP1 PUSH2 0x3F63 JUMP JUMPDEST SWAP1 SWAP2 SSTORE POP POP DUP2 ISZERO PUSH2 0x1756 JUMPI PUSH1 0x1 DUP2 ADD SLOAD PUSH1 0x40 MLOAD PUSH4 0xA9059CBB PUSH1 0xE0 SHL DUP2 MSTORE CALLER PUSH1 0x4 DUP3 ADD MSTORE PUSH1 0x24 DUP2 ADD DUP5 SWAP1 MSTORE PUSH1 0x1 PUSH1 0x1 PUSH1 0xA0 SHL SUB SWAP1 SWAP2 AND SWAP1 PUSH4 0xA9059CBB SWAP1 PUSH1 0x44 ADD PUSH1 0x20 PUSH1 0x40 MLOAD DUP1 DUP4 SUB DUP2 PUSH1 0x0 DUP8 GAS CALL ISZERO DUP1 ISZERO PUSH2 0x16E6 JUMPI RETURNDATASIZE PUSH1 0x0 DUP1 RETURNDATACOPY RETURNDATASIZE PUSH1 0x0 REVERT JUMPDEST POP POP POP POP PUSH1 0x40 MLOAD RETURNDATASIZE PUSH1 0x1F NOT PUSH1 0x1F DUP3 ADD AND DUP3 ADD DUP1 PUSH1 0x40 MSTORE POP DUP2 ADD SWAP1 PUSH2 0x170A SWAP2 SWAP1 PUSH2 0x3F46 JUMP JUMPDEST PUSH2 0x1756 JUMPI PUSH1 0x40 MLOAD PUSH3 0x461BCD PUSH1 0xE5 SHL DUP2 MSTORE PUSH1 0x20 PUSH1 0x4 DUP3 ADD MSTORE PUSH1 0x1C PUSH1 0x24 DUP3 ADD MSTORE PUSH32 0x5374616B656420746F6B656E207472616E73666572206661696C656400000000 PUSH1 0x44 DUP3 ADD MSTORE PUSH1 0x64 ADD PUSH2 0xA1D JUMP JUMPDEST POP POP POP POP POP JUMP JUMPDEST PUSH1 0x0 DUP3 PUSH1 0x34 SLOAD DUP2 LT PUSH2 0x17A0 JUMPI PUSH1 0x40 MLOAD PUSH3 0x461BCD PUSH1 0xE5 SHL DUP2 MSTORE PUSH1 0x20 PUSH1 0x4 DUP3 ADD MSTORE PUSH1 0xC PUSH1 0x24 DUP3 ADD MSTORE PUSH12 0x125B9D985B1A5908141BDBDB PUSH1 0xA2 SHL PUSH1 0x44 DUP3 ADD MSTORE PUSH1 0x64 ADD PUSH2 0xA1D JUMP JUMPDEST PUSH1 0x0 DUP5 DUP2 MSTORE PUSH1 0x3E PUSH1 0x20 MSTORE PUSH1 0x40 SWAP1 KECCAK256 PUSH1 0x5 ADD SLOAD DUP5 SWAP1 PUSH1 0xFF AND PUSH2 0x17F8 JUMPI PUSH1 0x40 MLOAD PUSH3 0x461BCD PUSH1 0xE5 SHL DUP2 MSTORE PUSH1 0x20 PUSH1 0x4 DUP3 ADD MSTORE PUSH1 0x12 PUSH1 0x24 DUP3 ADD MSTORE PUSH18 0x506F6F6C204973204E6F7420416374697665 PUSH1 0x70 SHL PUSH1 0x44 DUP3 ADD MSTORE PUSH1 0x64 ADD PUSH2 0xA1D JUMP JUMPDEST CALLER PUSH1 0x0 SWAP1 DUP2 MSTORE PUSH1 0x3F PUSH1 0x20 SWAP1 DUP2 MSTORE PUSH1 0x40 DUP1 DUP4 KECCAK256 DUP9 DUP5 MSTORE SWAP1 SWAP2 MSTORE DUP2 KECCAK256 DUP1 SLOAD DUP7 SWAP1 DUP2 LT PUSH2 0x1824 JUMPI PUSH2 0x1824 PUSH2 0x3EF7 JUMP JUMPDEST PUSH1 0x0 SWAP2 DUP3 MSTORE PUSH1 0x20 DUP1 DUP4 KECCAK256 DUP10 DUP5 MSTORE PUSH1 0x3E SWAP1 SWAP2 MSTORE PUSH1 0x40 DUP4 KECCAK256 PUSH1 0x6 SWAP1 SWAP3 MUL ADD DUP1 SLOAD SWAP1 SWAP4 POP SWAP1 SWAP2 SUB PUSH2 0x1857 JUMPI PUSH1 0x0 SWAP5 POP POP POP PUSH2 0x1B48 JUMP JUMPDEST TIMESTAMP PUSH1 0x0 PUSH2 0x1865 DUP10 DUP10 CALLER PUSH2 0x1004 JUMP JUMPDEST SWAP1 POP DUP1 ISZERO PUSH2 0x1B43 JUMPI PUSH1 0x2 DUP4 ADD SLOAD PUSH1 0x40 MLOAD PUSH4 0xA9059CBB PUSH1 0xE0 SHL DUP2 MSTORE CALLER PUSH1 0x4 DUP3 ADD MSTORE PUSH1 0x24 DUP2 ADD DUP4 SWAP1 MSTORE PUSH1 0x1 PUSH1 0x1 PUSH1 0xA0 SHL SUB SWAP1 SWAP2 AND SWAP1 PUSH4 0xA9059CBB SWAP1 PUSH1 0x44 ADD PUSH1 0x20 PUSH1 0x40 MLOAD DUP1 DUP4 SUB DUP2 PUSH1 0x0 DUP8 GAS CALL ISZERO DUP1 ISZERO PUSH2 0x18C0 JUMPI RETURNDATASIZE PUSH1 0x0 DUP1 RETURNDATACOPY RETURNDATASIZE PUSH1 0x0 REVERT JUMPDEST POP POP POP POP PUSH1 0x40 MLOAD RETURNDATASIZE PUSH1 0x1F NOT PUSH1 0x1F DUP3 ADD AND DUP3 ADD DUP1 PUSH1 0x40 MSTORE POP DUP2 ADD SWAP1 PUSH2 0x18E4 SWAP2 SWAP1 PUSH2 0x3F46 JUMP JUMPDEST PUSH2 0x1930 JUMPI PUSH1 0x40 MLOAD PUSH3 0x461BCD PUSH1 0xE5 SHL DUP2 MSTORE PUSH1 0x20 PUSH1 0x4 DUP3 ADD MSTORE PUSH1 0x16 PUSH1 0x24 DUP3 ADD MSTORE PUSH32 0x526577617264207472616E73666572206661696C656400000000000000000000 PUSH1 0x44 DUP3 ADD MSTORE PUSH1 0x64 ADD PUSH2 0xA1D JUMP JUMPDEST PUSH1 0x4 DUP5 ADD SLOAD PUSH1 0x1 PUSH1 0x1 PUSH1 0xA0 SHL SUB AND ISZERO PUSH2 0x1AF3 JUMPI PUSH1 0x4 DUP1 DUP5 ADD SLOAD SWAP1 DUP6 ADD SLOAD PUSH1 0x1 PUSH1 0x1 PUSH1 0xA0 SHL SUB AND PUSH1 0x0 SWAP1 DUP2 MSTORE PUSH1 0x41 PUSH1 0x20 MSTORE PUSH1 0x40 SWAP1 KECCAK256 SLOAD ISZERO PUSH2 0x1989 JUMPI POP PUSH1 0x4 DUP5 ADD SLOAD PUSH1 0x1 PUSH1 0x1 PUSH1 0xA0 SHL SUB AND PUSH1 0x0 SWAP1 DUP2 MSTORE PUSH1 0x41 PUSH1 0x20 MSTORE PUSH1 0x40 SWAP1 KECCAK256 SLOAD JUMPDEST PUSH1 0x0 PUSH2 0x2710 PUSH2 0x1998 DUP4 DUP6 PUSH2 0x3F8F JUMP JUMPDEST PUSH2 0x19A2 SWAP2 SWAP1 PUSH2 0x3FA6 JUMP JUMPDEST SWAP1 POP DUP1 ISZERO PUSH2 0x1ABC JUMPI PUSH1 0x2 DUP6 ADD SLOAD PUSH1 0x4 DUP8 DUP2 ADD SLOAD PUSH1 0x40 MLOAD PUSH4 0xA9059CBB PUSH1 0xE0 SHL DUP2 MSTORE PUSH1 0x1 PUSH1 0x1 PUSH1 0xA0 SHL SUB SWAP2 DUP3 AND SWAP3 DUP2 ADD SWAP3 SWAP1 SWAP3 MSTORE PUSH1 0x24 DUP3 ADD DUP5 SWAP1 MSTORE SWAP1 SWAP2 AND SWAP1 PUSH4 0xA9059CBB SWAP1 PUSH1 0x44 ADD PUSH1 0x20 PUSH1 0x40 MLOAD DUP1 DUP4 SUB DUP2 PUSH1 0x0 DUP8 GAS CALL ISZERO DUP1 ISZERO PUSH2 0x1A07 JUMPI RETURNDATASIZE PUSH1 0x0 DUP1 RETURNDATACOPY RETURNDATASIZE PUSH1 0x0 REVERT JUMPDEST POP POP POP POP PUSH1 0x40 MLOAD RETURNDATASIZE PUSH1 0x1F NOT PUSH1 0x1F DUP3 ADD AND DUP3 ADD DUP1 PUSH1 0x40 MSTORE POP DUP2 ADD SWAP1 PUSH2 0x1A2B SWAP2 SWAP1 PUSH2 0x3F46 JUMP JUMPDEST PUSH2 0x1A77 JUMPI PUSH1 0x40 MLOAD PUSH3 0x461BCD PUSH1 0xE5 SHL DUP2 MSTORE PUSH1 0x20 PUSH1 0x4 DUP3 ADD MSTORE PUSH1 0x1F PUSH1 0x24 DUP3 ADD MSTORE PUSH32 0x526566657272616C20526577617264207472616E73666572206661696C656400 PUSH1 0x44 DUP3 ADD MSTORE PUSH1 0x64 ADD PUSH2 0xA1D JUMP JUMPDEST PUSH1 0x4 DUP7 ADD SLOAD PUSH1 0x1 PUSH1 0x1 PUSH1 0xA0 SHL SUB AND PUSH1 0x0 SWAP1 DUP2 MSTORE PUSH1 0x47 PUSH1 0x20 SWAP1 DUP2 MSTORE PUSH1 0x40 DUP1 DUP4 KECCAK256 CALLER DUP5 MSTORE DUP3 MSTORE DUP1 DUP4 KECCAK256 DUP15 DUP5 MSTORE SWAP1 SWAP2 MSTORE DUP2 KECCAK256 DUP1 SLOAD DUP4 SWAP3 SWAP1 PUSH2 0x1AB6 SWAP1 DUP5 SWAP1 PUSH2 0x3F23 JUMP JUMPDEST SWAP1 SWAP2 SSTORE POP POP JUMPDEST PUSH1 0x4 DUP7 ADD SLOAD PUSH1 0x1 PUSH1 0x1 PUSH1 0xA0 SHL SUB AND PUSH1 0x0 SWAP1 DUP2 MSTORE PUSH1 0x42 PUSH1 0x20 MSTORE PUSH1 0x40 DUP2 KECCAK256 PUSH1 0x3 ADD DUP1 SLOAD DUP4 SWAP3 SWAP1 PUSH2 0x1AEB SWAP1 DUP5 SWAP1 PUSH2 0x3F23 JUMP JUMPDEST SWAP1 SWAP2 SSTORE POP POP POP POP JUMPDEST CALLER PUSH1 0x0 SWAP1 DUP2 MSTORE PUSH1 0x42 PUSH1 0x20 MSTORE PUSH1 0x40 DUP2 KECCAK256 PUSH1 0x2 ADD DUP1 SLOAD DUP4 SWAP3 SWAP1 PUSH2 0x1B15 SWAP1 DUP5 SWAP1 PUSH2 0x3F23 JUMP JUMPDEST SWAP3 POP POP DUP2 SWAP1 SSTORE POP DUP1 DUP5 PUSH1 0x2 ADD PUSH1 0x0 DUP3 DUP3 SLOAD PUSH2 0x1B30 SWAP2 SWAP1 PUSH2 0x3F23 JUMP JUMPDEST SWAP1 SWAP2 SSTORE POP POP PUSH1 0x1 SWAP1 SWAP4 ADD SSTORE POP SWAP3 POP PUSH2 0x1B48 JUMP JUMPDEST POP POP POP POP JUMPDEST POP POP SWAP3 SWAP2 POP POP JUMP JUMPDEST PUSH1 0x33 SLOAD PUSH1 0x1 PUSH1 0x1 PUSH1 0xA0 SHL SUB AND CALLER EQ PUSH2 0x1BA2 JUMPI PUSH1 0x40 MLOAD PUSH3 0x461BCD PUSH1 0xE5 SHL DUP2 MSTORE PUSH1 0x20 PUSH1 0x4 DUP3 ADD MSTORE PUSH1 0x21 PUSH1 0x24 DUP3 ADD MSTORE PUSH1 0x0 DUP1 MLOAD PUSH1 0x20 PUSH2 0x4123 DUP4 CODECOPY DUP2 MLOAD SWAP2 MSTORE PUSH1 0x44 DUP3 ADD MSTORE PUSH1 0x37 PUSH1 0xF9 SHL PUSH1 0x64 DUP3 ADD MSTORE PUSH1 0x84 ADD PUSH2 0xA1D JUMP JUMPDEST PUSH1 0x33 DUP1 SLOAD PUSH1 0x1 PUSH1 0x1 PUSH1 0xA0 SHL SUB NOT AND PUSH1 0x1 PUSH1 0x1 PUSH1 0xA0 SHL SUB SWAP3 SWAP1 SWAP3 AND SWAP2 SWAP1 SWAP2 OR SWAP1 SSTORE JUMP JUMPDEST DUP3 PUSH1 0x34 SLOAD DUP2 LT PUSH2 0x1C05 JUMPI PUSH1 0x40 MLOAD PUSH3 0x461BCD PUSH1 0xE5 SHL DUP2 MSTORE PUSH1 0x20 PUSH1 0x4 DUP3 ADD MSTORE PUSH1 0xC PUSH1 0x24 DUP3 ADD MSTORE PUSH12 0x125B9D985B1A5908141BDBDB PUSH1 0xA2 SHL PUSH1 0x44 DUP3 ADD MSTORE PUSH1 0x64 ADD PUSH2 0xA1D JUMP JUMPDEST PUSH1 0x0 DUP5 DUP2 MSTORE PUSH1 0x3E PUSH1 0x20 MSTORE PUSH1 0x40 SWAP1 KECCAK256 PUSH1 0x5 ADD SLOAD DUP5 SWAP1 PUSH1 0xFF AND PUSH2 0x1C5D JUMPI PUSH1 0x40 MLOAD PUSH3 0x461BCD PUSH1 0xE5 SHL DUP2 MSTORE PUSH1 0x20 PUSH1 0x4 DUP3 ADD MSTORE PUSH1 0x12 PUSH1 0x24 DUP3 ADD MSTORE PUSH18 0x506F6F6C204973204E6F7420416374697665 PUSH1 0x70 SHL PUSH1 0x44 DUP3 ADD MSTORE PUSH1 0x64 ADD PUSH2 0xA1D JUMP JUMPDEST PUSH1 0x0 DUP5 GT PUSH2 0x1CAD JUMPI PUSH1 0x40 MLOAD PUSH3 0x461BCD PUSH1 0xE5 SHL DUP2 MSTORE PUSH1 0x20 PUSH1 0x4 DUP3 ADD MSTORE PUSH1 0x1D PUSH1 0x24 DUP3 ADD MSTORE PUSH32 0x416D6F756E74206D7573742062652067726561746572207468616E2030000000 PUSH1 0x44 DUP3 ADD MSTORE PUSH1 0x64 ADD PUSH2 0xA1D JUMP JUMPDEST PUSH1 0x1 PUSH1 0x1 PUSH1 0xA0 SHL SUB DUP4 AND CALLER SUB PUSH2 0x1D05 JUMPI PUSH1 0x40 MLOAD PUSH3 0x461BCD PUSH1 0xE5 SHL DUP2 MSTORE PUSH1 0x20 PUSH1 0x4 DUP3 ADD MSTORE PUSH1 0x18 PUSH1 0x24 DUP3 ADD MSTORE PUSH32 0x596F752063616E277420726566657220796F757273656C660000000000000000 PUSH1 0x44 DUP3 ADD MSTORE PUSH1 0x64 ADD PUSH2 0xA1D JUMP JUMPDEST PUSH1 0x0 DUP6 DUP2 MSTORE PUSH1 0x3E PUSH1 0x20 MSTORE PUSH1 0x40 SWAP1 DUP2 SWAP1 KECCAK256 PUSH1 0x1 DUP2 ADD SLOAD SWAP2 MLOAD PUSH32 0x23B872DD00000000000000000000000000000000000000000000000000000000 DUP2 MSTORE CALLER PUSH1 0x4 DUP3 ADD MSTORE ADDRESS PUSH1 0x24 DUP3 ADD MSTORE PUSH1 0x44 DUP2 ADD DUP8 SWAP1 MSTORE SWAP1 SWAP2 PUSH1 0x1 PUSH1 0x1 PUSH1 0xA0 SHL SUB AND SWAP1 PUSH4 0x23B872DD SWAP1 PUSH1 0x64 ADD PUSH1 0x20 PUSH1 0x40 MLOAD DUP1 DUP4 SUB DUP2 PUSH1 0x0 DUP8 GAS CALL ISZERO DUP1 ISZERO PUSH2 0x1D86 JUMPI RETURNDATASIZE PUSH1 0x0 DUP1 RETURNDATACOPY RETURNDATASIZE PUSH1 0x0 REVERT JUMPDEST POP POP POP POP PUSH1 0x40 MLOAD RETURNDATASIZE PUSH1 0x1F NOT PUSH1 0x1F DUP3 ADD AND DUP3 ADD DUP1 PUSH1 0x40 MSTORE POP DUP2 ADD SWAP1 PUSH2 0x1DAA SWAP2 SWAP1 PUSH2 0x3F46 JUMP JUMPDEST PUSH2 0x1DF6 JUMPI PUSH1 0x40 MLOAD PUSH3 0x461BCD PUSH1 0xE5 SHL DUP2 MSTORE PUSH1 0x20 PUSH1 0x4 DUP3 ADD MSTORE PUSH1 0x15 PUSH1 0x24 DUP3 ADD MSTORE PUSH32 0x546F6B656E207472616E73666572206661696C65640000000000000000000000 PUSH1 0x44 DUP3 ADD MSTORE PUSH1 0x64 ADD PUSH2 0xA1D JUMP JUMPDEST CALLER PUSH1 0x0 SWAP1 DUP2 MSTORE PUSH1 0x3F PUSH1 0x20 SWAP1 DUP2 MSTORE PUSH1 0x40 DUP1 DUP4 KECCAK256 DUP10 DUP5 MSTORE DUP3 MSTORE DUP1 DUP4 KECCAK256 DUP2 MLOAD PUSH1 0xC0 DUP2 ADD DUP4 MSTORE DUP10 DUP2 MSTORE TIMESTAMP SWAP4 DUP2 ADD DUP5 SWAP1 MSTORE SWAP2 DUP3 ADD SWAP4 SWAP1 SWAP4 MSTORE PUSH1 0x60 DUP2 ADD SWAP2 SWAP1 SWAP2 MSTORE PUSH1 0x1 PUSH1 0x1 PUSH1 0xA0 SHL SUB DUP7 AND PUSH1 0x80 DUP3 ADD MSTORE PUSH1 0xA0 DUP2 ADD PUSH8 0xDE0B6B3A7640000 PUSH2 0x1E55 PUSH2 0x379D JUMP JUMPDEST PUSH2 0x1E5F SWAP1 DUP11 PUSH2 0x3F8F JUMP JUMPDEST PUSH2 0x1E69 SWAP2 SWAP1 PUSH2 0x3FA6 JUMP JUMPDEST SWAP1 MSTORE DUP2 SLOAD PUSH1 0x1 DUP1 DUP3 ADD DUP5 SSTORE PUSH1 0x0 SWAP4 DUP5 MSTORE PUSH1 0x20 DUP1 DUP6 KECCAK256 DUP5 MLOAD PUSH1 0x6 SWAP5 DUP6 MUL SWAP1 SWAP2 ADD SWAP1 DUP2 SSTORE DUP5 DUP3 ADD MLOAD SWAP3 DUP2 ADD SWAP3 SWAP1 SWAP3 SSTORE PUSH1 0x40 DUP1 DUP6 ADD MLOAD PUSH1 0x2 DUP5 ADD SSTORE PUSH1 0x60 DUP6 ADD MLOAD PUSH1 0x3 DUP5 ADD SSTORE PUSH1 0x80 DUP6 ADD MLOAD PUSH1 0x4 DUP5 ADD DUP1 SLOAD PUSH1 0x1 PUSH1 0x1 PUSH1 0xA0 SHL SUB NOT AND PUSH1 0x1 PUSH1 0x1 PUSH1 0xA0 SHL SUB SWAP1 SWAP3 AND SWAP2 SWAP1 SWAP2 OR SWAP1 SSTORE PUSH1 0xA0 SWAP1 SWAP5 ADD MLOAD PUSH1 0x5 SWAP1 SWAP3 ADD SWAP2 SWAP1 SWAP2 SSTORE DUP10 DUP5 MSTORE PUSH1 0x3E SWAP1 MSTORE SWAP1 DUP3 KECCAK256 ADD DUP1 SLOAD DUP8 SWAP3 SWAP1 PUSH2 0x1EFB SWAP1 DUP5 SWAP1 PUSH2 0x3F23 JUMP JUMPDEST SWAP1 SWAP2 SSTORE POP POP PUSH1 0x40 DUP1 MLOAD PUSH1 0xA0 DUP2 ADD DUP3 MSTORE CALLER PUSH1 0x0 SWAP1 DUP2 MSTORE PUSH1 0x42 PUSH1 0x20 MSTORE SWAP2 SWAP1 SWAP2 KECCAK256 SLOAD DUP2 SWAP1 PUSH2 0x1F27 SWAP1 DUP9 SWAP1 PUSH2 0x3F23 JUMP JUMPDEST DUP2 MSTORE CALLER PUSH1 0x0 SWAP1 DUP2 MSTORE PUSH1 0x42 PUSH1 0x20 SWAP1 DUP2 MSTORE PUSH1 0x40 SWAP1 SWAP2 KECCAK256 PUSH1 0x1 ADD SLOAD SWAP2 ADD SWAP1 PUSH2 0x1F4D SWAP1 DUP9 SWAP1 PUSH2 0x3F23 JUMP JUMPDEST DUP2 MSTORE CALLER PUSH1 0x0 DUP2 DUP2 MSTORE PUSH1 0x42 PUSH1 0x20 DUP2 DUP2 MSTORE PUSH1 0x40 DUP1 DUP5 KECCAK256 PUSH1 0x2 DUP2 ADD DUP1 SLOAD DUP5 DUP10 ADD MSTORE PUSH1 0x3 DUP3 ADD DUP1 SLOAD DUP5 DUP11 ADD MSTORE PUSH1 0x4 DUP4 ADD DUP1 SLOAD PUSH1 0x60 SWAP11 DUP12 ADD MSTORE SWAP8 SWAP1 SWAP7 MSTORE SWAP4 DUP4 MSTORE DUP8 MLOAD DUP2 SSTORE SWAP2 DUP8 ADD MLOAD PUSH1 0x1 SWAP1 SWAP3 ADD SWAP2 SWAP1 SWAP2 SSTORE DUP6 ADD MLOAD SWAP1 SSTORE SWAP2 DUP4 ADD MLOAD SWAP1 SWAP2 SSTORE PUSH1 0x80 SWAP1 SWAP2 ADD MLOAD SWAP1 SSTORE PUSH1 0x1 PUSH1 0x1 PUSH1 0xA0 SHL SUB DUP5 AND ISZERO PUSH2 0x2069 JUMPI CALLER PUSH1 0x0 SWAP1 DUP2 MSTORE PUSH1 0x48 PUSH1 0x20 SWAP1 DUP2 MSTORE PUSH1 0x40 DUP1 DUP4 KECCAK256 DUP10 DUP5 MSTORE SWAP1 SWAP2 MSTORE SWAP1 KECCAK256 SLOAD PUSH1 0x1 PUSH1 0x1 PUSH1 0xA0 SHL SUB AND PUSH2 0x2069 JUMPI CALLER PUSH1 0x0 DUP2 DUP2 MSTORE PUSH1 0x48 PUSH1 0x20 SWAP1 DUP2 MSTORE PUSH1 0x40 DUP1 DUP4 KECCAK256 DUP11 DUP5 MSTORE DUP3 MSTORE DUP1 DUP4 KECCAK256 DUP1 SLOAD PUSH1 0x1 PUSH1 0x1 PUSH1 0xA0 SHL SUB DUP11 AND PUSH1 0x1 PUSH1 0x1 PUSH1 0xA0 SHL SUB NOT SWAP2 DUP3 AND DUP2 OR SWAP1 SWAP3 SSTORE DUP2 DUP6 MSTORE PUSH1 0x46 DUP5 MSTORE DUP3 DUP6 KECCAK256 DUP13 DUP7 MSTORE DUP5 MSTORE DUP3 DUP6 KECCAK256 DUP1 SLOAD PUSH1 0x1 DUP2 DUP2 ADD DUP4 SSTORE SWAP2 DUP8 MSTORE DUP6 DUP8 KECCAK256 ADD DUP1 SLOAD SWAP1 SWAP3 AND SWAP1 SWAP7 OR SWAP1 SSTORE DUP4 MSTORE PUSH1 0x42 SWAP1 SWAP2 MSTORE DUP2 KECCAK256 PUSH1 0x4 ADD DUP1 SLOAD SWAP1 SWAP2 SWAP1 PUSH2 0x2063 SWAP1 DUP5 SWAP1 PUSH2 0x3F23 JUMP JUMPDEST SWAP1 SWAP2 SSTORE POP POP JUMPDEST CALLER PUSH1 0x0 SWAP1 DUP2 MSTORE PUSH1 0x43 PUSH1 0x20 SWAP1 DUP2 MSTORE PUSH1 0x40 DUP1 DUP4 KECCAK256 DUP10 DUP5 MSTORE SWAP1 SWAP2 MSTORE DUP2 KECCAK256 DUP1 SLOAD DUP8 SWAP3 SWAP1 PUSH2 0x2093 SWAP1 DUP5 SWAP1 PUSH2 0x3F23 JUMP JUMPDEST SWAP1 SWAP2 SSTORE POP POP POP POP POP POP POP POP JUMP JUMPDEST PUSH2 0x20A9 CALLER PUSH2 0x39F8 JUMP JUMPDEST PUSH2 0x20F5 JUMPI PUSH1 0x40 MLOAD PUSH3 0x461BCD PUSH1 0xE5 SHL DUP2 MSTORE PUSH1 0x20 PUSH1 0x4 DUP3 ADD MSTORE PUSH1 0x11 PUSH1 0x24 DUP3 ADD MSTORE PUSH32 0x4E6F7420612076616C696420766F746572000000000000000000000000000000 PUSH1 0x44 DUP3 ADD MSTORE PUSH1 0x64 ADD PUSH2 0xA1D JUMP JUMPDEST CALLER PUSH1 0x0 SWAP1 DUP2 MSTORE PUSH1 0x39 PUSH1 0x20 MSTORE PUSH1 0x40 SWAP1 KECCAK256 SLOAD PUSH1 0xFF AND ISZERO PUSH2 0x2155 JUMPI PUSH1 0x40 MLOAD PUSH3 0x461BCD PUSH1 0xE5 SHL DUP2 MSTORE PUSH1 0x20 PUSH1 0x4 DUP3 ADD MSTORE PUSH1 0xD PUSH1 0x24 DUP3 ADD MSTORE PUSH32 0x416C726561647920766F74656400000000000000000000000000000000000000 PUSH1 0x44 DUP3 ADD MSTORE PUSH1 0x64 ADD PUSH2 0xA1D JUMP JUMPDEST CALLER PUSH1 0x0 DUP2 DUP2 MSTORE PUSH1 0x39 PUSH1 0x20 MSTORE PUSH1 0x40 SWAP1 DUP2 SWAP1 KECCAK256 DUP1 SLOAD PUSH1 0xFF NOT AND PUSH1 0x1 OR SWAP1 SSTORE MLOAD PUSH32 0xA4861C5510BFA99706ED508D728F9C6B365FF27AF1A3012E21980952AD2D844F SWAP1 PUSH2 0x21A3 SWAP1 DUP5 ISZERO ISZERO DUP2 MSTORE PUSH1 0x20 ADD SWAP1 JUMP JUMPDEST PUSH1 0x40 MLOAD DUP1 SWAP2 SUB SWAP1 LOG2 POP JUMP JUMPDEST PUSH1 0x3B SLOAD PUSH1 0x3C SLOAD PUSH1 0x0 SWAP2 DUP3 SWAP2 PUSH2 0x21CF SWAP2 PUSH1 0x1 PUSH1 0x1 PUSH1 0xA0 SHL SUB SWAP1 DUP2 AND SWAP2 AND PUSH2 0x368E JUMP JUMPDEST SWAP1 POP PUSH1 0x1 PUSH1 0x1 PUSH1 0xA0 SHL SUB DUP2 AND PUSH2 0x21E7 JUMPI PUSH1 0x0 SWAP2 POP POP SWAP1 JUMP JUMPDEST PUSH1 0x0 DUP1 PUSH2 0x21F3 DUP4 PUSH2 0x12AF JUMP JUMPDEST PUSH1 0x3A SLOAD PUSH1 0x40 MLOAD PUSH32 0x85F8C25900000000000000000000000000000000000000000000000000000000 DUP2 MSTORE PUSH8 0xDE0B6B3A7640000 PUSH1 0x4 DUP3 ADD MSTORE PUSH14 0xFFFFFFFFFFFFFFFFFFFFFFFFFFFF DUP1 DUP5 AND PUSH1 0x24 DUP4 ADD MSTORE DUP5 AND PUSH1 0x44 DUP3 ADD MSTORE SWAP3 SWAP5 POP SWAP1 SWAP3 POP PUSH1 0x0 SWAP2 PUSH1 0x1 PUSH1 0x1 PUSH1 0xA0 SHL SUB SWAP1 SWAP2 AND SWAP1 PUSH4 0x85F8C259 SWAP1 PUSH1 0x64 ADD PUSH1 0x20 PUSH1 0x40 MLOAD DUP1 DUP4 SUB DUP2 DUP7 GAS STATICCALL ISZERO DUP1 ISZERO PUSH2 0x2283 JUMPI RETURNDATASIZE PUSH1 0x0 DUP1 RETURNDATACOPY RETURNDATASIZE PUSH1 0x0 REVERT JUMPDEST POP POP POP POP PUSH1 0x40 MLOAD RETURNDATASIZE PUSH1 0x1F NOT PUSH1 0x1F DUP3 ADD AND DUP3 ADD DUP1 PUSH1 0x40 MSTORE POP DUP2 ADD SWAP1 PUSH2 0x22A7 SWAP2 SWAP1 PUSH2 0x403D JUMP JUMPDEST SWAP6 SWAP5 POP POP POP POP POP JUMP JUMPDEST PUSH1 0x33 SLOAD PUSH1 0x1 PUSH1 0x1 PUSH1 0xA0 SHL SUB AND CALLER EQ PUSH2 0x2302 JUMPI PUSH1 0x40 MLOAD PUSH3 0x461BCD PUSH1 0xE5 SHL DUP2 MSTORE PUSH1 0x20 PUSH1 0x4 DUP3 ADD MSTORE PUSH1 0x21 PUSH1 0x24 DUP3 ADD MSTORE PUSH1 0x0 DUP1 MLOAD PUSH1 0x20 PUSH2 0x4123 DUP4 CODECOPY DUP2 MLOAD SWAP2 MSTORE PUSH1 0x44 DUP3 ADD MSTORE PUSH1 0x37 PUSH1 0xF9 SHL PUSH1 0x64 DUP3 ADD MSTORE PUSH1 0x84 ADD PUSH2 0xA1D JUMP JUMPDEST PUSH1 0x36 SSTORE JUMP JUMPDEST PUSH1 0x0 DUP1 DUP1 JUMPDEST PUSH1 0x34 SLOAD DUP2 LT ISZERO PUSH2 0x23E4 JUMPI PUSH1 0x0 JUMPDEST PUSH1 0x1 PUSH1 0x1 PUSH1 0xA0 SHL SUB DUP6 AND PUSH1 0x0 SWAP1 DUP2 MSTORE PUSH1 0x46 PUSH1 0x20 SWAP1 DUP2 MSTORE PUSH1 0x40 DUP1 DUP4 KECCAK256 DUP6 DUP5 MSTORE SWAP1 SWAP2 MSTORE SWAP1 KECCAK256 SLOAD DUP2 LT ISZERO PUSH2 0x23D1 JUMPI PUSH1 0x1 PUSH1 0x1 PUSH1 0xA0 SHL SUB DUP6 AND PUSH1 0x0 SWAP1 DUP2 MSTORE PUSH1 0x47 PUSH1 0x20 SWAP1 DUP2 MSTORE PUSH1 0x40 DUP1 DUP4 KECCAK256 PUSH1 0x46 DUP4 MSTORE DUP2 DUP5 KECCAK256 DUP7 DUP6 MSTORE SWAP1 SWAP3 MSTORE DUP3 KECCAK256 DUP1 SLOAD SWAP2 SWAP3 SWAP2 DUP5 SWAP1 DUP2 LT PUSH2 0x2383 JUMPI PUSH2 0x2383 PUSH2 0x3EF7 JUMP JUMPDEST PUSH1 0x0 SWAP2 DUP3 MSTORE PUSH1 0x20 DUP1 DUP4 KECCAK256 SWAP1 SWAP2 ADD SLOAD PUSH1 0x1 PUSH1 0x1 PUSH1 0xA0 SHL SUB AND DUP4 MSTORE DUP3 DUP2 ADD SWAP4 SWAP1 SWAP4 MSTORE PUSH1 0x40 SWAP2 DUP3 ADD DUP2 KECCAK256 DUP6 DUP3 MSTORE SWAP1 SWAP3 MSTORE SWAP1 KECCAK256 SLOAD PUSH2 0x23BD SWAP1 DUP5 PUSH2 0x3F23 JUMP JUMPDEST SWAP3 POP DUP1 PUSH2 0x23C9 DUP2 PUSH2 0x3F76 JUMP JUMPDEST SWAP2 POP POP PUSH2 0x2319 JUMP JUMPDEST POP DUP1 PUSH2 0x23DC DUP2 PUSH2 0x3F76 JUMP JUMPDEST SWAP2 POP POP PUSH2 0x230C JUMP JUMPDEST POP SWAP3 SWAP2 POP POP JUMP JUMPDEST PUSH1 0x45 SLOAD PUSH1 0x40 DUP1 MLOAD PUSH4 0x3850C7BD PUSH1 0xE0 SHL DUP2 MSTORE SWAP1 MLOAD PUSH1 0x0 SWAP3 PUSH1 0x1 PUSH1 0x1 PUSH1 0xA0 SHL SUB AND SWAP2 DUP4 SWAP2 DUP4 SWAP2 PUSH4 0x3850C7BD SWAP2 PUSH1 0x4 DUP1 DUP4 ADD SWAP3 PUSH1 0xE0 SWAP3 SWAP2 SWAP1 DUP3 SWAP1 SUB ADD DUP2 DUP7 GAS STATICCALL ISZERO DUP1 ISZERO PUSH2 0x2439 JUMPI RETURNDATASIZE PUSH1 0x0 DUP1 RETURNDATACOPY RETURNDATASIZE PUSH1 0x0 REVERT JUMPDEST POP POP POP POP PUSH1 0x40 MLOAD RETURNDATASIZE PUSH1 0x1F NOT PUSH1 0x1F DUP3 ADD AND DUP3 ADD DUP1 PUSH1 0x40 MSTORE POP DUP2 ADD SWAP1 PUSH2 0x245D SWAP2 SWAP1 PUSH2 0x4068 JUMP JUMPDEST MLOAD SWAP1 POP PUSH1 0x1 PUSH1 0x1 PUSH1 0xA0 SHL SUB DUP2 AND PUSH1 0x0 PUSH1 0x1 PUSH1 0xC0 SHL PUSH2 0x247B DUP4 DUP1 PUSH2 0x3F8F JUMP JUMPDEST PUSH2 0x248D SWAP1 PUSH8 0xDE0B6B3A7640000 PUSH2 0x3F8F JUMP JUMPDEST PUSH2 0x22A7 SWAP2 SWAP1 PUSH2 0x3FA6 JUMP JUMPDEST PUSH1 0x33 SLOAD PUSH1 0x1 PUSH1 0x1 PUSH1 0xA0 SHL SUB AND CALLER EQ PUSH2 0x24E9 JUMPI PUSH1 0x40 MLOAD PUSH3 0x461BCD PUSH1 0xE5 SHL DUP2 MSTORE PUSH1 0x20 PUSH1 0x4 DUP3 ADD MSTORE PUSH1 0x21 PUSH1 0x24 DUP3 ADD MSTORE PUSH1 0x0 DUP1 MLOAD PUSH1 0x20 PUSH2 0x4123 DUP4 CODECOPY DUP2 MLOAD SWAP2 MSTORE PUSH1 0x44 DUP3 ADD MSTORE PUSH1 0x37 PUSH1 0xF9 SHL PUSH1 0x64 DUP3 ADD MSTORE PUSH1 0x84 ADD PUSH2 0xA1D JUMP JUMPDEST PUSH2 0x24F1 PUSH2 0x3999 JUMP JUMPDEST PUSH1 0x40 MLOAD PUSH32 0x70A0823100000000000000000000000000000000000000000000000000000000 DUP2 MSTORE ADDRESS PUSH1 0x4 DUP3 ADD MSTORE PUSH1 0x1 PUSH1 0x1 PUSH1 0xA0 SHL SUB DUP3 AND SWAP1 PUSH4 0xA9059CBB SWAP1 DUP5 SWAP1 DUP4 SWAP1 PUSH4 0x70A08231 SWAP1 PUSH1 0x24 ADD PUSH1 0x20 PUSH1 0x40 MLOAD DUP1 DUP4 SUB DUP2 DUP7 GAS STATICCALL ISZERO DUP1 ISZERO PUSH2 0x2558 JUMPI RETURNDATASIZE PUSH1 0x0 DUP1 RETURNDATACOPY RETURNDATASIZE PUSH1 0x0 REVERT JUMPDEST POP POP POP POP PUSH1 0x40 MLOAD RETURNDATASIZE PUSH1 0x1F NOT PUSH1 0x1F DUP3 ADD AND DUP3 ADD DUP1 PUSH1 0x40 MSTORE POP DUP2 ADD SWAP1 PUSH2 0x257C SWAP2 SWAP1 PUSH2 0x403D JUMP JUMPDEST PUSH1 0x40 MLOAD PUSH32 0xFFFFFFFF00000000000000000000000000000000000000000000000000000000 PUSH1 0xE0 DUP6 SWAP1 SHL AND DUP2 MSTORE PUSH1 0x1 PUSH1 0x1 PUSH1 0xA0 SHL SUB SWAP1 SWAP3 AND PUSH1 0x4 DUP4 ADD MSTORE PUSH1 0x24 DUP3 ADD MSTORE PUSH1 0x44 ADD PUSH1 0x20 PUSH1 0x40 MLOAD DUP1 DUP4 SUB DUP2 PUSH1 0x0 DUP8 GAS CALL ISZERO DUP1 ISZERO PUSH2 0x25DF JUMPI RETURNDATASIZE PUSH1 0x0 DUP1 RETURNDATACOPY RETURNDATASIZE PUSH1 0x0 REVERT JUMPDEST POP POP POP POP PUSH1 0x40 MLOAD RETURNDATASIZE PUSH1 0x1F NOT PUSH1 0x1F DUP3 ADD AND DUP3 ADD DUP1 PUSH1 0x40 MSTORE POP DUP2 ADD SWAP1 PUSH2 0x2603 SWAP2 SWAP1 PUSH2 0x3F46 JUMP JUMPDEST POP PUSH2 0x260D PUSH1 0x1 DUP1 SSTORE JUMP JUMPDEST POP POP JUMP JUMPDEST PUSH1 0x1 PUSH1 0x1 PUSH1 0xA0 SHL SUB DUP3 AND PUSH1 0x0 SWAP1 DUP2 MSTORE PUSH1 0x43 PUSH1 0x20 SWAP1 DUP2 MSTORE PUSH1 0x40 DUP1 DUP4 KECCAK256 DUP5 DUP5 MSTORE SWAP1 SWAP2 MSTORE DUP2 KECCAK256 SLOAD DUP2 SWAP1 ISZERO PUSH2 0x2736 JUMPI PUSH1 0x0 JUMPDEST PUSH1 0x1 PUSH1 0x1 PUSH1 0xA0 SHL SUB DUP6 AND PUSH1 0x0 SWAP1 DUP2 MSTORE PUSH1 0x3F PUSH1 0x20 SWAP1 DUP2 MSTORE PUSH1 0x40 DUP1 DUP4 KECCAK256 DUP8 DUP5 MSTORE SWAP1 SWAP2 MSTORE SWAP1 KECCAK256 SLOAD DUP2 LT ISZERO PUSH2 0x137F JUMPI PUSH1 0x0 DUP5 DUP2 MSTORE PUSH1 0x3E PUSH1 0x20 SWAP1 DUP2 MSTORE PUSH1 0x40 DUP1 DUP4 KECCAK256 SLOAD PUSH1 0x1 PUSH1 0x1 PUSH1 0xA0 SHL SUB DUP10 AND DUP5 MSTORE PUSH1 0x3F DUP4 MSTORE DUP2 DUP5 KECCAK256 DUP9 DUP6 MSTORE SWAP1 SWAP3 MSTORE SWAP1 SWAP2 KECCAK256 DUP1 SLOAD TIMESTAMP SWAP3 SWAP2 SWAP1 DUP5 SWAP1 DUP2 LT PUSH2 0x26AE JUMPI PUSH2 0x26AE PUSH2 0x3EF7 JUMP JUMPDEST SWAP1 PUSH1 0x0 MSTORE PUSH1 0x20 PUSH1 0x0 KECCAK256 SWAP1 PUSH1 0x6 MUL ADD PUSH1 0x3 ADD SLOAD PUSH2 0x26CA SWAP2 SWAP1 PUSH2 0x3F23 JUMP JUMPDEST GT PUSH2 0x2724 JUMPI PUSH1 0x1 PUSH1 0x1 PUSH1 0xA0 SHL SUB DUP6 AND PUSH1 0x0 SWAP1 DUP2 MSTORE PUSH1 0x3F PUSH1 0x20 SWAP1 DUP2 MSTORE PUSH1 0x40 DUP1 DUP4 KECCAK256 DUP8 DUP5 MSTORE SWAP1 SWAP2 MSTORE SWAP1 KECCAK256 DUP1 SLOAD DUP3 SWAP1 DUP2 LT PUSH2 0x2704 JUMPI PUSH2 0x2704 PUSH2 0x3EF7 JUMP JUMPDEST SWAP1 PUSH1 0x0 MSTORE PUSH1 0x20 PUSH1 0x0 KECCAK256 SWAP1 PUSH1 0x6 MUL ADD PUSH1 0x0 ADD SLOAD DUP3 PUSH2 0x2721 SWAP2 SWAP1 PUSH2 0x3F23 JUMP JUMPDEST SWAP2 POP JUMPDEST DUP1 PUSH2 0x272E DUP2 PUSH2 0x3F76 JUMP JUMPDEST SWAP2 POP POP PUSH2 0x263F JUMP JUMPDEST SWAP4 SWAP3 POP POP POP JUMP JUMPDEST PUSH1 0x0 SLOAD PUSH2 0x100 SWAP1 DIV PUSH1 0xFF AND ISZERO DUP1 DUP1 ISZERO PUSH2 0x275D JUMPI POP PUSH1 0x0 SLOAD PUSH1 0x1 PUSH1 0xFF SWAP1 SWAP2 AND LT JUMPDEST DUP1 PUSH2 0x2777 JUMPI POP ADDRESS EXTCODESIZE ISZERO DUP1 ISZERO PUSH2 0x2777 JUMPI POP PUSH1 0x0 SLOAD PUSH1 0xFF AND PUSH1 0x1 EQ JUMPDEST PUSH2 0x27E9 JUMPI PUSH1 0x40 MLOAD PUSH3 0x461BCD PUSH1 0xE5 SHL DUP2 MSTORE PUSH1 0x20 PUSH1 0x4 DUP3 ADD MSTORE PUSH1 0x2E PUSH1 0x24 DUP3 ADD MSTORE PUSH32 0x496E697469616C697A61626C653A20636F6E747261637420697320616C726561 PUSH1 0x44 DUP3 ADD MSTORE PUSH32 0x647920696E697469616C697A6564000000000000000000000000000000000000 PUSH1 0x64 DUP3 ADD MSTORE PUSH1 0x84 ADD PUSH2 0xA1D JUMP JUMPDEST PUSH1 0x0 DUP1 SLOAD PUSH1 0xFF NOT AND PUSH1 0x1 OR SWAP1 SSTORE DUP1 ISZERO PUSH2 0x280C JUMPI PUSH1 0x0 DUP1 SLOAD PUSH2 0xFF00 NOT AND PUSH2 0x100 OR SWAP1 SSTORE JUMPDEST PUSH2 0x2814 PUSH2 0x3A61 JUMP JUMPDEST PUSH1 0x33 DUP1 SLOAD PUSH1 0x1 PUSH1 0x1 PUSH1 0xA0 SHL SUB NOT SWAP1 DUP2 AND CALLER OR SWAP1 SWAP2 SSTORE PUSH4 0x1E13380 PUSH1 0x35 SSTORE PUSH5 0xE8D4A51000 PUSH1 0x36 SSTORE PUSH1 0x3A DUP1 SLOAD DUP3 AND PUSH20 0x9AC64CC6E4415144C455BD8E4837FEA55603E5C3 OR SWAP1 SSTORE PUSH1 0x3B DUP1 SLOAD DUP3 AND PUSH20 0x9F7B09EB38ED912AB5932DCCAD0B1F501ABFE6FD OR SWAP1 SSTORE PUSH1 0x3C DUP1 SLOAD DUP3 AND PUSH20 0xD1FAC5FF5D03B70D3383909692D09FC6D97C8219 OR SWAP1 SSTORE PUSH1 0x3D DUP1 SLOAD SWAP1 SWAP2 AND PUSH20 0xB7926C0430AFB07AA7DEFDE6DA862AE0BDE767BC OR SWAP1 SSTORE PUSH1 0x0 JUMPDEST DUP3 MLOAD DUP2 LT ISZERO PUSH2 0x2920 JUMPI PUSH1 0x38 DUP4 DUP3 DUP2 MLOAD DUP2 LT PUSH2 0x28D3 JUMPI PUSH2 0x28D3 PUSH2 0x3EF7 JUMP JUMPDEST PUSH1 0x20 SWAP1 DUP2 MUL SWAP2 SWAP1 SWAP2 ADD DUP2 ADD MLOAD DUP3 SLOAD PUSH1 0x1 DUP2 ADD DUP5 SSTORE PUSH1 0x0 SWAP4 DUP5 MSTORE SWAP2 SWAP1 SWAP3 KECCAK256 ADD DUP1 SLOAD PUSH1 0x1 PUSH1 0x1 PUSH1 0xA0 SHL SUB NOT AND PUSH1 0x1 PUSH1 0x1 PUSH1 0xA0 SHL SUB SWAP1 SWAP3 AND SWAP2 SWAP1 SWAP2 OR SWAP1 SSTORE DUP1 PUSH2 0x2918 DUP2 PUSH2 0x3F76 JUMP JUMPDEST SWAP2 POP POP PUSH2 0x28B6 JUMP JUMPDEST POP DUP1 ISZERO PUSH2 0x260D JUMPI PUSH1 0x0 DUP1 SLOAD PUSH2 0xFF00 NOT AND SWAP1 SSTORE PUSH1 0x40 MLOAD PUSH1 0x1 DUP2 MSTORE PUSH32 0x7F26B83FF96E1F2B6A682F133852F6798A09C465DA95921460CEFB3847402498 SWAP1 PUSH1 0x20 ADD PUSH1 0x40 MLOAD DUP1 SWAP2 SUB SWAP1 LOG1 POP POP JUMP JUMPDEST PUSH1 0x33 SLOAD PUSH1 0x1 PUSH1 0x1 PUSH1 0xA0 SHL SUB AND CALLER EQ PUSH2 0x29BC JUMPI PUSH1 0x40 MLOAD PUSH3 0x461BCD PUSH1 0xE5 SHL DUP2 MSTORE PUSH1 0x20 PUSH1 0x4 DUP3 ADD MSTORE PUSH1 0x21 PUSH1 0x24 DUP3 ADD MSTORE PUSH1 0x0 DUP1 MLOAD PUSH1 0x20 PUSH2 0x4123 DUP4 CODECOPY DUP2 MLOAD SWAP2 MSTORE PUSH1 0x44 DUP3 ADD MSTORE PUSH1 0x37 PUSH1 0xF9 SHL PUSH1 0x64 DUP3 ADD MSTORE PUSH1 0x84 ADD PUSH2 0xA1D JUMP JUMPDEST PUSH1 0x3C DUP1 SLOAD PUSH1 0x1 PUSH1 0x1 PUSH1 0xA0 SHL SUB NOT AND PUSH1 0x1 PUSH1 0x1 PUSH1 0xA0 SHL SUB SWAP3 SWAP1 SWAP3 AND SWAP2 SWAP1 SWAP2 OR SWAP1 SSTORE JUMP JUMPDEST DUP1 PUSH1 0x34 SLOAD DUP2 LT PUSH2 0x2A1F JUMPI PUSH1 0x40 MLOAD PUSH3 0x461BCD PUSH1 0xE5 SHL DUP2 MSTORE PUSH1 0x20 PUSH1 0x4 DUP3 ADD MSTORE PUSH1 0xC PUSH1 0x24 DUP3 ADD MSTORE PUSH12 0x125B9D985B1A5908141BDBDB PUSH1 0xA2 SHL PUSH1 0x44 DUP3 ADD MSTORE PUSH1 0x64 ADD PUSH2 0xA1D JUMP JUMPDEST PUSH2 0x2A27 PUSH2 0x3999 JUMP JUMPDEST PUSH1 0x0 DUP3 DUP2 MSTORE PUSH1 0x3E PUSH1 0x20 MSTORE PUSH1 0x40 SWAP1 KECCAK256 PUSH1 0x5 ADD SLOAD DUP3 SWAP1 PUSH1 0xFF AND PUSH2 0x2A7F JUMPI PUSH1 0x40 MLOAD PUSH3 0x461BCD PUSH1 0xE5 SHL DUP2 MSTORE PUSH1 0x20 PUSH1 0x4 DUP3 ADD MSTORE PUSH1 0x12 PUSH1 0x24 DUP3 ADD MSTORE PUSH18 0x506F6F6C204973204E6F7420416374697665 PUSH1 0x70 SHL PUSH1 0x44 DUP3 ADD MSTORE PUSH1 0x64 ADD PUSH2 0xA1D JUMP JUMPDEST PUSH1 0x0 DUP4 DUP2 MSTORE PUSH1 0x3E PUSH1 0x20 MSTORE PUSH1 0x40 DUP2 KECCAK256 SWAP1 DUP1 JUMPDEST CALLER PUSH1 0x0 SWAP1 DUP2 MSTORE PUSH1 0x3F PUSH1 0x20 SWAP1 DUP2 MSTORE PUSH1 0x40 DUP1 DUP4 KECCAK256 DUP10 DUP5 MSTORE SWAP1 SWAP2 MSTORE SWAP1 KECCAK256 SLOAD DUP2 LT ISZERO PUSH2 0x2D3A JUMPI CALLER PUSH1 0x0 SWAP1 DUP2 MSTORE PUSH1 0x3F PUSH1 0x20 SWAP1 DUP2 MSTORE PUSH1 0x40 DUP1 DUP4 KECCAK256 DUP10 DUP5 MSTORE SWAP1 SWAP2 MSTORE DUP2 KECCAK256 DUP1 SLOAD DUP4 SWAP1 DUP2 LT PUSH2 0x2ADE JUMPI PUSH2 0x2ADE PUSH2 0x3EF7 JUMP JUMPDEST SWAP1 PUSH1 0x0 MSTORE PUSH1 0x20 PUSH1 0x0 KECCAK256 SWAP1 PUSH1 0x6 MUL ADD SWAP1 POP PUSH1 0x0 DUP2 PUSH1 0x0 ADD SLOAD GT ISZERO PUSH2 0x2D27 JUMPI TIMESTAMP PUSH1 0x0 PUSH2 0x2B09 DUP10 DUP6 CALLER PUSH2 0x1004 JUMP JUMPDEST PUSH1 0x4 DUP5 ADD SLOAD SWAP1 SWAP2 POP PUSH1 0x1 PUSH1 0x1 PUSH1 0xA0 SHL SUB AND ISZERO PUSH2 0x2CCF JUMPI PUSH1 0x4 DUP1 DUP8 ADD SLOAD SWAP1 DUP5 ADD SLOAD PUSH1 0x1 PUSH1 0x1 PUSH1 0xA0 SHL SUB AND PUSH1 0x0 SWAP1 DUP2 MSTORE PUSH1 0x41 PUSH1 0x20 MSTORE PUSH1 0x40 SWAP1 KECCAK256 SLOAD ISZERO PUSH2 0x2B65 JUMPI POP PUSH1 0x4 DUP4 ADD SLOAD PUSH1 0x1 PUSH1 0x1 PUSH1 0xA0 SHL SUB AND PUSH1 0x0 SWAP1 DUP2 MSTORE PUSH1 0x41 PUSH1 0x20 MSTORE PUSH1 0x40 SWAP1 KECCAK256 SLOAD JUMPDEST PUSH1 0x0 PUSH2 0x2710 PUSH2 0x2B74 DUP4 DUP6 PUSH2 0x3F8F JUMP JUMPDEST PUSH2 0x2B7E SWAP2 SWAP1 PUSH2 0x3FA6 JUMP JUMPDEST SWAP1 POP DUP1 ISZERO PUSH2 0x2CCC JUMPI PUSH1 0x2 DUP9 ADD SLOAD PUSH1 0x4 DUP7 DUP2 ADD SLOAD PUSH1 0x40 MLOAD PUSH4 0xA9059CBB PUSH1 0xE0 SHL DUP2 MSTORE PUSH1 0x1 PUSH1 0x1 PUSH1 0xA0 SHL SUB SWAP2 DUP3 AND SWAP3 DUP2 ADD SWAP3 SWAP1 SWAP3 MSTORE PUSH1 0x24 DUP3 ADD DUP5 SWAP1 MSTORE SWAP1 SWAP2 AND SWAP1 PUSH4 0xA9059CBB SWAP1 PUSH1 0x44 ADD PUSH1 0x20 PUSH1 0x40 MLOAD DUP1 DUP4 SUB DUP2 PUSH1 0x0 DUP8 GAS CALL ISZERO DUP1 ISZERO PUSH2 0x2BE3 JUMPI RETURNDATASIZE PUSH1 0x0 DUP1 RETURNDATACOPY RETURNDATASIZE PUSH1 0x0 REVERT JUMPDEST POP POP POP POP PUSH1 0x40 MLOAD RETURNDATASIZE PUSH1 0x1F NOT PUSH1 0x1F DUP3 ADD AND DUP3 ADD DUP1 PUSH1 0x40 MSTORE POP DUP2 ADD SWAP1 PUSH2 0x2C07 SWAP2 SWAP1 PUSH2 0x3F46 JUMP JUMPDEST PUSH2 0x2C53 JUMPI PUSH1 0x40 MLOAD PUSH3 0x461BCD PUSH1 0xE5 SHL DUP2 MSTORE PUSH1 0x20 PUSH1 0x4 DUP3 ADD MSTORE PUSH1 0x1F PUSH1 0x24 DUP3 ADD MSTORE PUSH32 0x526566657272616C20526577617264207472616E73666572206661696C656400 PUSH1 0x44 DUP3 ADD MSTORE PUSH1 0x64 ADD PUSH2 0xA1D JUMP JUMPDEST PUSH1 0x4 DUP6 ADD SLOAD PUSH1 0x1 PUSH1 0x1 PUSH1 0xA0 SHL SUB AND PUSH1 0x0 SWAP1 DUP2 MSTORE PUSH1 0x47 PUSH1 0x20 SWAP1 DUP2 MSTORE PUSH1 0x40 DUP1 DUP4 KECCAK256 CALLER DUP5 MSTORE DUP3 MSTORE DUP1 DUP4 KECCAK256 DUP15 DUP5 MSTORE SWAP1 SWAP2 MSTORE DUP2 KECCAK256 DUP1 SLOAD DUP4 SWAP3 SWAP1 PUSH2 0x2C92 SWAP1 DUP5 SWAP1 PUSH2 0x3F23 JUMP JUMPDEST SWAP1 SWAP2 SSTORE POP POP PUSH1 0x4 DUP6 ADD SLOAD PUSH1 0x1 PUSH1 0x1 PUSH1 0xA0 SHL SUB AND PUSH1 0x0 SWAP1 DUP2 MSTORE PUSH1 0x42 PUSH1 0x20 MSTORE PUSH1 0x40 DUP2 KECCAK256 PUSH1 0x3 ADD DUP1 SLOAD DUP4 SWAP3 SWAP1 PUSH2 0x2CC6 SWAP1 DUP5 SWAP1 PUSH2 0x3F23 JUMP JUMPDEST SWAP1 SWAP2 SSTORE POP POP JUMPDEST POP POP JUMPDEST CALLER PUSH1 0x0 SWAP1 DUP2 MSTORE PUSH1 0x42 PUSH1 0x20 MSTORE PUSH1 0x40 DUP2 KECCAK256 PUSH1 0x2 ADD DUP1 SLOAD DUP4 SWAP3 SWAP1 PUSH2 0x2CF1 SWAP1 DUP5 SWAP1 PUSH2 0x3F23 JUMP JUMPDEST SWAP3 POP POP DUP2 SWAP1 SSTORE POP DUP1 DUP4 PUSH1 0x2 ADD PUSH1 0x0 DUP3 DUP3 SLOAD PUSH2 0x2D0C SWAP2 SWAP1 PUSH2 0x3F23 JUMP JUMPDEST SWAP1 SWAP2 SSTORE POP POP PUSH1 0x1 DUP4 ADD DUP3 SWAP1 SSTORE PUSH2 0x2D22 DUP2 DUP7 PUSH2 0x3F23 JUMP JUMPDEST SWAP5 POP POP POP JUMPDEST POP DUP1 PUSH2 0x2D32 DUP2 PUSH2 0x3F76 JUMP JUMPDEST SWAP2 POP POP PUSH2 0x2A90 JUMP JUMPDEST POP DUP1 ISZERO PUSH2 0x2E04 JUMPI PUSH1 0x2 DUP3 ADD SLOAD PUSH1 0x40 MLOAD PUSH4 0xA9059CBB PUSH1 0xE0 SHL DUP2 MSTORE CALLER PUSH1 0x4 DUP3 ADD MSTORE PUSH1 0x24 DUP2 ADD DUP4 SWAP1 MSTORE PUSH1 0x1 PUSH1 0x1 PUSH1 0xA0 SHL SUB SWAP1 SWAP2 AND SWAP1 PUSH4 0xA9059CBB SWAP1 PUSH1 0x44 ADD PUSH1 0x20 PUSH1 0x40 MLOAD DUP1 DUP4 SUB DUP2 PUSH1 0x0 DUP8 GAS CALL ISZERO DUP1 ISZERO PUSH2 0x2D94 JUMPI RETURNDATASIZE PUSH1 0x0 DUP1 RETURNDATACOPY RETURNDATASIZE PUSH1 0x0 REVERT JUMPDEST POP POP POP POP PUSH1 0x40 MLOAD RETURNDATASIZE PUSH1 0x1F NOT PUSH1 0x1F DUP3 ADD AND DUP3 ADD DUP1 PUSH1 0x40 MSTORE POP DUP2 ADD SWAP1 PUSH2 0x2DB8 SWAP2 SWAP1 PUSH2 0x3F46 JUMP JUMPDEST PUSH2 0x2E04 JUMPI PUSH1 0x40 MLOAD PUSH3 0x461BCD PUSH1 0xE5 SHL DUP2 MSTORE PUSH1 0x20 PUSH1 0x4 DUP3 ADD MSTORE PUSH1 0x16 PUSH1 0x24 DUP3 ADD MSTORE PUSH32 0x526577617264207472616E73666572206661696C656400000000000000000000 PUSH1 0x44 DUP3 ADD MSTORE PUSH1 0x64 ADD PUSH2 0xA1D JUMP JUMPDEST POP POP POP PUSH2 0x260D PUSH1 0x1 DUP1 SSTORE JUMP JUMPDEST PUSH1 0x33 SLOAD PUSH1 0x1 PUSH1 0x1 PUSH1 0xA0 SHL SUB AND CALLER EQ PUSH2 0x2E62 JUMPI PUSH1 0x40 MLOAD PUSH3 0x461BCD PUSH1 0xE5 SHL DUP2 MSTORE PUSH1 0x20 PUSH1 0x4 DUP3 ADD MSTORE PUSH1 0x21 PUSH1 0x24 DUP3 ADD MSTORE PUSH1 0x0 DUP1 MLOAD PUSH1 0x20 PUSH2 0x4123 DUP4 CODECOPY DUP2 MLOAD SWAP2 MSTORE PUSH1 0x44 DUP3 ADD MSTORE PUSH1 0x37 PUSH1 0xF9 SHL PUSH1 0x64 DUP3 ADD MSTORE PUSH1 0x84 ADD PUSH2 0xA1D JUMP JUMPDEST DUP2 PUSH1 0x34 SLOAD DUP2 LT PUSH2 0x2EA3 JUMPI PUSH1 0x40 MLOAD PUSH3 0x461BCD PUSH1 0xE5 SHL DUP2 MSTORE PUSH1 0x20 PUSH1 0x4 DUP3 ADD MSTORE PUSH1 0xC PUSH1 0x24 DUP3 ADD MSTORE PUSH12 0x125B9D985B1A5908141BDBDB PUSH1 0xA2 SHL PUSH1 0x44 DUP3 ADD MSTORE PUSH1 0x64 ADD PUSH2 0xA1D JUMP JUMPDEST PUSH1 0x0 DUP4 DUP2 MSTORE PUSH1 0x3E PUSH1 0x20 MSTORE PUSH1 0x40 SWAP1 KECCAK256 PUSH1 0x5 ADD SLOAD DUP4 SWAP1 PUSH1 0xFF AND PUSH2 0x2EFB JUMPI PUSH1 0x40 MLOAD PUSH3 0x461BCD PUSH1 0xE5 SHL DUP2 MSTORE PUSH1 0x20 PUSH1 0x4 DUP3 ADD MSTORE PUSH1 0x12 PUSH1 0x24 DUP3 ADD MSTORE PUSH18 0x506F6F6C204973204E6F7420416374697665 PUSH1 0x70 SHL PUSH1 0x44 DUP3 ADD MSTORE PUSH1 0x64 ADD PUSH2 0xA1D JUMP JUMPDEST PUSH1 0x0 DUP5 GT DUP1 ISZERO PUSH2 0x2F0D JUMPI POP PUSH1 0x34 SLOAD DUP5 GT ISZERO JUMPDEST PUSH2 0x2F4B JUMPI PUSH1 0x40 MLOAD PUSH3 0x461BCD PUSH1 0xE5 SHL DUP2 MSTORE PUSH1 0x20 PUSH1 0x4 DUP3 ADD MSTORE PUSH1 0xF PUSH1 0x24 DUP3 ADD MSTORE PUSH15 0x125B9D985B1A59081C1BDBDB081251 PUSH1 0x8A SHL PUSH1 0x44 DUP3 ADD MSTORE PUSH1 0x64 ADD PUSH2 0xA1D JUMP JUMPDEST POP POP PUSH1 0x0 SWAP2 DUP3 MSTORE PUSH1 0x3E PUSH1 0x20 MSTORE PUSH1 0x40 SWAP1 SWAP2 KECCAK256 SSTORE JUMP JUMPDEST PUSH1 0x33 SLOAD PUSH1 0x1 PUSH1 0x1 PUSH1 0xA0 SHL SUB AND CALLER EQ PUSH2 0x2FB1 JUMPI PUSH1 0x40 MLOAD PUSH3 0x461BCD PUSH1 0xE5 SHL DUP2 MSTORE PUSH1 0x20 PUSH1 0x4 DUP3 ADD MSTORE PUSH1 0x21 PUSH1 0x24 DUP3 ADD MSTORE PUSH1 0x0 DUP1 MLOAD PUSH1 0x20 PUSH2 0x4123 DUP4 CODECOPY DUP2 MLOAD SWAP2 MSTORE PUSH1 0x44 DUP3 ADD MSTORE PUSH1 0x37 PUSH1 0xF9 SHL PUSH1 0x64 DUP3 ADD MSTORE PUSH1 0x84 ADD PUSH2 0xA1D JUMP JUMPDEST PUSH2 0x2FB9 PUSH2 0x3999 JUMP JUMPDEST DUP2 PUSH1 0x34 SLOAD DUP2 LT PUSH2 0x2FFA JUMPI PUSH1 0x40 MLOAD PUSH3 0x461BCD PUSH1 0xE5 SHL DUP2 MSTORE PUSH1 0x20 PUSH1 0x4 DUP3 ADD MSTORE PUSH1 0xC PUSH1 0x24 DUP3 ADD MSTORE PUSH12 0x125B9D985B1A5908141BDBDB PUSH1 0xA2 SHL PUSH1 0x44 DUP3 ADD MSTORE PUSH1 0x64 ADD PUSH2 0xA1D JUMP JUMPDEST PUSH1 0x0 DUP4 DUP2 MSTORE PUSH1 0x3E PUSH1 0x20 MSTORE PUSH1 0x40 SWAP1 KECCAK256 PUSH1 0x5 ADD SLOAD DUP4 SWAP1 PUSH1 0xFF AND PUSH2 0x3052 JUMPI PUSH1 0x40 MLOAD PUSH3 0x461BCD PUSH1 0xE5 SHL DUP2 MSTORE PUSH1 0x20 PUSH1 0x4 DUP3 ADD MSTORE PUSH1 0x12 PUSH1 0x24 DUP3 ADD MSTORE PUSH18 0x506F6F6C204973204E6F7420416374697665 PUSH1 0x70 SHL PUSH1 0x44 DUP3 ADD MSTORE PUSH1 0x64 ADD PUSH2 0xA1D JUMP JUMPDEST PUSH1 0x0 DUP5 GT DUP1 ISZERO PUSH2 0x3064 JUMPI POP PUSH1 0x34 SLOAD DUP5 GT ISZERO JUMPDEST PUSH2 0x30A2 JUMPI PUSH1 0x40 MLOAD PUSH3 0x461BCD PUSH1 0xE5 SHL DUP2 MSTORE PUSH1 0x20 PUSH1 0x4 DUP3 ADD MSTORE PUSH1 0xF PUSH1 0x24 DUP3 ADD MSTORE PUSH15 0x125B9D985B1A59081C1BDBDB081251 PUSH1 0x8A SHL PUSH1 0x44 DUP3 ADD MSTORE PUSH1 0x64 ADD PUSH2 0xA1D JUMP JUMPDEST POP POP PUSH1 0x0 DUP3 DUP2 MSTORE PUSH1 0x3E PUSH1 0x20 MSTORE PUSH1 0x40 SWAP1 KECCAK256 PUSH1 0x2 ADD DUP1 SLOAD PUSH1 0x1 PUSH1 0x1 PUSH1 0xA0 SHL SUB NOT AND PUSH1 0x1 PUSH1 0x1 PUSH1 0xA0 SHL SUB DUP4 AND OR SWAP1 SSTORE PUSH1 0x1 DUP1 SSTORE POP POP JUMP JUMPDEST PUSH1 0x33 SLOAD PUSH1 0x1 PUSH1 0x1 PUSH1 0xA0 SHL SUB AND CALLER EQ PUSH2 0x3128 JUMPI PUSH1 0x40 MLOAD PUSH3 0x461BCD PUSH1 0xE5 SHL DUP2 MSTORE PUSH1 0x20 PUSH1 0x4 DUP3 ADD MSTORE PUSH1 0x21 PUSH1 0x24 DUP3 ADD MSTORE PUSH1 0x0 DUP1 MLOAD PUSH1 0x20 PUSH2 0x4123 DUP4 CODECOPY DUP2 MLOAD SWAP2 MSTORE PUSH1 0x44 DUP3 ADD MSTORE PUSH1 0x37 PUSH1 0xF9 SHL PUSH1 0x64 DUP3 ADD MSTORE PUSH1 0x84 ADD PUSH2 0xA1D JUMP JUMPDEST DUP2 PUSH1 0x34 SLOAD DUP2 LT PUSH2 0x3169 JUMPI PUSH1 0x40 MLOAD PUSH3 0x461BCD PUSH1 0xE5 SHL DUP2 MSTORE PUSH1 0x20 PUSH1 0x4 DUP3 ADD MSTORE PUSH1 0xC PUSH1 0x24 DUP3 ADD MSTORE PUSH12 0x125B9D985B1A5908141BDBDB PUSH1 0xA2 SHL PUSH1 0x44 DUP3 ADD MSTORE PUSH1 0x64 ADD PUSH2 0xA1D JUMP JUMPDEST PUSH1 0x0 DUP4 DUP2 MSTORE PUSH1 0x3E PUSH1 0x20 MSTORE PUSH1 0x40 SWAP1 KECCAK256 PUSH1 0x5 ADD SLOAD DUP4 SWAP1 PUSH1 0xFF AND PUSH2 0x31C1 JUMPI PUSH1 0x40 MLOAD PUSH3 0x461BCD PUSH1 0xE5 SHL DUP2 MSTORE PUSH1 0x20 PUSH1 0x4 DUP3 ADD MSTORE PUSH1 0x12 PUSH1 0x24 DUP3 ADD MSTORE PUSH18 0x506F6F6C204973204E6F7420416374697665 PUSH1 0x70 SHL PUSH1 0x44 DUP3 ADD MSTORE PUSH1 0x64 ADD PUSH2 0xA1D JUMP JUMPDEST POP POP PUSH1 0x0 SWAP2 DUP3 MSTORE PUSH1 0x3E PUSH1 0x20 MSTORE PUSH1 0x40 SWAP1 SWAP2 KECCAK256 PUSH1 0x4 ADD SSTORE JUMP JUMPDEST PUSH1 0x33 SLOAD PUSH1 0x1 PUSH1 0x1 PUSH1 0xA0 SHL SUB AND CALLER EQ PUSH2 0x322A JUMPI PUSH1 0x40 MLOAD PUSH3 0x461BCD PUSH1 0xE5 SHL DUP2 MSTORE PUSH1 0x20 PUSH1 0x4 DUP3 ADD MSTORE PUSH1 0x21 PUSH1 0x24 DUP3 ADD MSTORE PUSH1 0x0 DUP1 MLOAD PUSH1 0x20 PUSH2 0x4123 DUP4 CODECOPY DUP2 MLOAD SWAP2 MSTORE PUSH1 0x44 DUP3 ADD MSTORE PUSH1 0x37 PUSH1 0xF9 SHL PUSH1 0x64 DUP3 ADD MSTORE PUSH1 0x84 ADD PUSH2 0xA1D JUMP JUMPDEST PUSH1 0x38 SLOAD PUSH1 0x0 SWAP1 DUP2 JUMPDEST DUP2 DUP2 LT ISZERO PUSH2 0x329E JUMPI PUSH1 0x39 PUSH1 0x0 PUSH1 0x38 DUP4 DUP2 SLOAD DUP2 LT PUSH2 0x3251 JUMPI PUSH2 0x3251 PUSH2 0x3EF7 JUMP JUMPDEST PUSH1 0x0 SWAP2 DUP3 MSTORE PUSH1 0x20 DUP1 DUP4 KECCAK256 SWAP1 SWAP2 ADD SLOAD PUSH1 0x1 PUSH1 0x1 PUSH1 0xA0 SHL SUB AND DUP4 MSTORE DUP3 ADD SWAP3 SWAP1 SWAP3 MSTORE PUSH1 0x40 ADD SWAP1 KECCAK256 SLOAD PUSH1 0xFF AND ISZERO PUSH2 0x328C JUMPI DUP3 PUSH2 0x3288 DUP2 PUSH2 0x3F76 JUMP JUMPDEST SWAP4 POP POP JUMPDEST DUP1 PUSH2 0x3296 DUP2 PUSH2 0x3F76 JUMP JUMPDEST SWAP2 POP POP PUSH2 0x3232 JUMP JUMPDEST POP DUP2 DUP2 EQ DUP1 PUSH2 0x32EF JUMPI PUSH1 0x40 MLOAD PUSH3 0x461BCD PUSH1 0xE5 SHL DUP2 MSTORE PUSH1 0x20 PUSH1 0x4 DUP3 ADD MSTORE PUSH1 0x16 PUSH1 0x24 DUP3 ADD MSTORE PUSH32 0x496E73756666696369656E7420617070726F76616C7300000000000000000000 PUSH1 0x44 DUP3 ADD MSTORE PUSH1 0x64 ADD PUSH2 0xA1D JUMP JUMPDEST PUSH1 0x37 DUP1 SLOAD PUSH1 0x33 DUP1 SLOAD PUSH1 0x1 PUSH1 0x1 PUSH1 0xA0 SHL SUB DUP4 AND PUSH1 0x1 PUSH1 0x1 PUSH1 0xA0 SHL SUB NOT SWAP2 DUP3 AND DUP2 OR SWAP1 SWAP3 SSTORE SWAP1 SWAP2 AND SWAP1 SWAP2 SSTORE PUSH1 0x0 JUMPDEST DUP4 DUP2 LT ISZERO PUSH2 0x1756 JUMPI PUSH1 0x0 PUSH1 0x39 PUSH1 0x0 PUSH1 0x38 DUP5 DUP2 SLOAD DUP2 LT PUSH2 0x333C JUMPI PUSH2 0x333C PUSH2 0x3EF7 JUMP JUMPDEST PUSH1 0x0 SWAP2 DUP3 MSTORE PUSH1 0x20 DUP1 DUP4 KECCAK256 SWAP2 SWAP1 SWAP2 ADD SLOAD PUSH1 0x1 PUSH1 0x1 PUSH1 0xA0 SHL SUB AND DUP4 MSTORE DUP3 ADD SWAP3 SWAP1 SWAP3 MSTORE PUSH1 0x40 ADD SWAP1 KECCAK256 DUP1 SLOAD PUSH1 0xFF NOT AND SWAP2 ISZERO ISZERO SWAP2 SWAP1 SWAP2 OR SWAP1 SSTORE DUP1 PUSH2 0x337A DUP2 PUSH2 0x3F76 JUMP JUMPDEST SWAP2 POP POP PUSH2 0x331B JUMP JUMPDEST PUSH1 0x46 PUSH1 0x20 MSTORE DUP3 PUSH1 0x0 MSTORE PUSH1 0x40 PUSH1 0x0 KECCAK256 PUSH1 0x20 MSTORE DUP2 PUSH1 0x0 MSTORE PUSH1 0x40 PUSH1 0x0 KECCAK256 DUP2 DUP2 SLOAD DUP2 LT PUSH2 0x33AA JUMPI PUSH1 0x0 DUP1 REVERT JUMPDEST PUSH1 0x0 SWAP2 DUP3 MSTORE PUSH1 0x20 SWAP1 SWAP2 KECCAK256 ADD SLOAD PUSH1 0x1 PUSH1 0x1 PUSH1 0xA0 SHL SUB AND SWAP3 POP DUP4 SWAP2 POP POP JUMP JUMPDEST PUSH1 0x33 SLOAD PUSH1 0x1 PUSH1 0x1 PUSH1 0xA0 SHL SUB AND CALLER EQ PUSH2 0x3419 JUMPI PUSH1 0x40 MLOAD PUSH3 0x461BCD PUSH1 0xE5 SHL DUP2 MSTORE PUSH1 0x20 PUSH1 0x4 DUP3 ADD MSTORE PUSH1 0x21 PUSH1 0x24 DUP3 ADD MSTORE PUSH1 0x0 DUP1 MLOAD PUSH1 0x20 PUSH2 0x4123 DUP4 CODECOPY DUP2 MLOAD SWAP2 MSTORE PUSH1 0x44 DUP3 ADD MSTORE PUSH1 0x37 PUSH1 0xF9 SHL PUSH1 0x64 DUP3 ADD MSTORE PUSH1 0x84 ADD PUSH2 0xA1D JUMP JUMPDEST PUSH1 0x3A DUP1 SLOAD PUSH1 0x1 PUSH1 0x1 PUSH1 0xA0 SHL SUB NOT AND PUSH1 0x1 PUSH1 0x1 PUSH1 0xA0 SHL SUB SWAP3 SWAP1 SWAP3 AND SWAP2 SWAP1 SWAP2 OR SWAP1 SSTORE JUMP JUMPDEST PUSH1 0x0 DUP1 DUP1 JUMPDEST PUSH1 0x1 PUSH1 0x1 PUSH1 0xA0 SHL SUB DUP5 AND PUSH1 0x0 SWAP1 DUP2 MSTORE PUSH1 0x3F PUSH1 0x20 SWAP1 DUP2 MSTORE PUSH1 0x40 DUP1 DUP4 KECCAK256 DUP9 DUP5 MSTORE SWAP1 SWAP2 MSTORE SWAP1 KECCAK256 SLOAD DUP2 LT ISZERO PUSH2 0x137F JUMPI PUSH2 0x3476 DUP6 DUP3 DUP7 PUSH2 0x1004 JUMP JUMPDEST PUSH2 0x3480 SWAP1 DUP4 PUSH2 0x3F23 JUMP JUMPDEST SWAP2 POP DUP1 PUSH2 0x348C DUP2 PUSH2 0x3F76 JUMP JUMPDEST SWAP2 POP POP PUSH2 0x3440 JUMP JUMPDEST PUSH1 0x33 SLOAD PUSH1 0x1 PUSH1 0x1 PUSH1 0xA0 SHL SUB AND CALLER EQ PUSH2 0x34E6 JUMPI PUSH1 0x40 MLOAD PUSH3 0x461BCD PUSH1 0xE5 SHL DUP2 MSTORE PUSH1 0x20 PUSH1 0x4 DUP3 ADD MSTORE PUSH1 0x21 PUSH1 0x24 DUP3 ADD MSTORE PUSH1 0x0 DUP1 MLOAD PUSH1 0x20 PUSH2 0x4123 DUP4 CODECOPY DUP2 MLOAD SWAP2 MSTORE PUSH1 0x44 DUP3 ADD MSTORE PUSH1 0x37 PUSH1 0xF9 SHL PUSH1 0x64 DUP3 ADD MSTORE PUSH1 0x84 ADD PUSH2 0xA1D JUMP JUMPDEST PUSH2 0x34EE PUSH2 0x3999 JUMP JUMPDEST DUP2 PUSH1 0x34 SLOAD DUP2 LT PUSH2 0x352F JUMPI PUSH1 0x40 MLOAD PUSH3 0x461BCD PUSH1 0xE5 SHL DUP2 MSTORE PUSH1 0x20 PUSH1 0x4 DUP3 ADD MSTORE PUSH1 0xC PUSH1 0x24 DUP3 ADD MSTORE PUSH12 0x125B9D985B1A5908141BDBDB PUSH1 0xA2 SHL PUSH1 0x44 DUP3 ADD MSTORE PUSH1 0x64 ADD PUSH2 0xA1D JUMP JUMPDEST PUSH1 0x0 DUP4 DUP2 MSTORE PUSH1 0x3E PUSH1 0x20 MSTORE PUSH1 0x40 SWAP1 KECCAK256 PUSH1 0x5 ADD SLOAD DUP4 SWAP1 PUSH1 0xFF AND PUSH2 0x3587 JUMPI PUSH1 0x40 MLOAD PUSH3 0x461BCD PUSH1 0xE5 SHL DUP2 MSTORE PUSH1 0x20 PUSH1 0x4 DUP3 ADD MSTORE PUSH1 0x12 PUSH1 0x24 DUP3 ADD MSTORE PUSH18 0x506F6F6C204973204E6F7420416374697665 PUSH1 0x70 SHL PUSH1 0x44 DUP3 ADD MSTORE PUSH1 0x64 ADD PUSH2 0xA1D JUMP JUMPDEST PUSH1 0x0 DUP5 GT DUP1 ISZERO PUSH2 0x3599 JUMPI POP PUSH1 0x34 SLOAD DUP5 GT ISZERO JUMPDEST PUSH2 0x35D7 JUMPI PUSH1 0x40 MLOAD PUSH3 0x461BCD PUSH1 0xE5 SHL DUP2 MSTORE PUSH1 0x20 PUSH1 0x4 DUP3 ADD MSTORE PUSH1 0xF PUSH1 0x24 DUP3 ADD MSTORE PUSH15 0x125B9D985B1A59081C1BDBDB081251 PUSH1 0x8A SHL PUSH1 0x44 DUP3 ADD MSTORE PUSH1 0x64 ADD PUSH2 0xA1D JUMP JUMPDEST POP POP PUSH1 0x0 DUP3 DUP2 MSTORE PUSH1 0x3E PUSH1 0x20 MSTORE PUSH1 0x40 SWAP1 KECCAK256 PUSH1 0x3 ADD DUP2 SWAP1 SSTORE PUSH2 0x260D PUSH1 0x1 DUP1 SSTORE JUMP JUMPDEST PUSH1 0x38 DUP2 DUP2 SLOAD DUP2 LT PUSH2 0x3606 JUMPI PUSH1 0x0 DUP1 REVERT JUMPDEST PUSH1 0x0 SWAP2 DUP3 MSTORE PUSH1 0x20 SWAP1 SWAP2 KECCAK256 ADD SLOAD PUSH1 0x1 PUSH1 0x1 PUSH1 0xA0 SHL SUB AND SWAP1 POP DUP2 JUMP JUMPDEST PUSH1 0x33 SLOAD PUSH1 0x1 PUSH1 0x1 PUSH1 0xA0 SHL SUB AND CALLER EQ PUSH2 0x3672 JUMPI PUSH1 0x40 MLOAD PUSH3 0x461BCD PUSH1 0xE5 SHL DUP2 MSTORE PUSH1 0x20 PUSH1 0x4 DUP3 ADD MSTORE PUSH1 0x21 PUSH1 0x24 DUP3 ADD MSTORE PUSH1 0x0 DUP1 MLOAD PUSH1 0x20 PUSH2 0x4123 DUP4 CODECOPY DUP2 MLOAD SWAP2 MSTORE PUSH1 0x44 DUP3 ADD MSTORE PUSH1 0x37 PUSH1 0xF9 SHL PUSH1 0x64 DUP3 ADD MSTORE PUSH1 0x84 ADD PUSH2 0xA1D JUMP JUMPDEST PUSH1 0x1 PUSH1 0x1 PUSH1 0xA0 SHL SUB SWAP1 SWAP2 AND PUSH1 0x0 SWAP1 DUP2 MSTORE PUSH1 0x41 PUSH1 0x20 MSTORE PUSH1 0x40 SWAP1 KECCAK256 SSTORE JUMP JUMPDEST PUSH1 0x3D SLOAD PUSH1 0x40 MLOAD PUSH32 0xE6A4390500000000000000000000000000000000000000000000000000000000 DUP2 MSTORE PUSH1 0x1 PUSH1 0x1 PUSH1 0xA0 SHL SUB DUP5 DUP2 AND PUSH1 0x4 DUP4 ADD MSTORE DUP4 DUP2 AND PUSH1 0x24 DUP4 ADD MSTORE PUSH1 0x0 SWAP3 DUP4 SWAP3 SWAP2 AND SWAP1 PUSH4 0xE6A43905 SWAP1 PUSH1 0x44 ADD PUSH1 0x20 PUSH1 0x40 MLOAD DUP1 DUP4 SUB DUP2 DUP7 GAS STATICCALL ISZERO DUP1 ISZERO PUSH2 0x36FD JUMPI RETURNDATASIZE PUSH1 0x0 DUP1 RETURNDATACOPY RETURNDATASIZE PUSH1 0x0 REVERT JUMPDEST POP POP POP POP PUSH1 0x40 MLOAD RETURNDATASIZE PUSH1 0x1F NOT PUSH1 0x1F DUP3 ADD AND DUP3 ADD DUP1 PUSH1 0x40 MSTORE POP DUP2 ADD SWAP1 PUSH2 0x3721 SWAP2 SWAP1 PUSH2 0x4105 JUMP JUMPDEST SWAP5 SWAP4 POP POP POP POP JUMP JUMPDEST PUSH1 0x33 SLOAD PUSH1 0x1 PUSH1 0x1 PUSH1 0xA0 SHL SUB AND CALLER EQ PUSH2 0x377B JUMPI PUSH1 0x40 MLOAD PUSH3 0x461BCD PUSH1 0xE5 SHL DUP2 MSTORE PUSH1 0x20 PUSH1 0x4 DUP3 ADD MSTORE PUSH1 0x21 PUSH1 0x24 DUP3 ADD MSTORE PUSH1 0x0 DUP1 MLOAD PUSH1 0x20 PUSH2 0x4123 DUP4 CODECOPY DUP2 MLOAD SWAP2 MSTORE PUSH1 0x44 DUP3 ADD MSTORE PUSH1 0x37 PUSH1 0xF9 SHL PUSH1 0x64 DUP3 ADD MSTORE PUSH1 0x84 ADD PUSH2 0xA1D JUMP JUMPDEST PUSH1 0x45 DUP1 SLOAD PUSH1 0x1 PUSH1 0x1 PUSH1 0xA0 SHL SUB NOT AND PUSH1 0x1 PUSH1 0x1 PUSH1 0xA0 SHL SUB SWAP3 SWAP1 SWAP3 AND SWAP2 SWAP1 SWAP2 OR SWAP1 SSTORE JUMP JUMPDEST PUSH1 0x45 SLOAD PUSH1 0x40 DUP1 MLOAD PUSH4 0x3850C7BD PUSH1 0xE0 SHL DUP2 MSTORE SWAP1 MLOAD PUSH1 0x0 SWAP3 PUSH1 0x1 PUSH1 0x1 PUSH1 0xA0 SHL SUB AND SWAP2 DUP4 SWAP2 DUP4 SWAP2 PUSH4 0x3850C7BD SWAP2 PUSH1 0x4 DUP1 DUP4 ADD SWAP3 PUSH1 0xE0 SWAP3 SWAP2 SWAP1 DUP3 SWAP1 SUB ADD DUP2 DUP7 GAS STATICCALL ISZERO DUP1 ISZERO PUSH2 0x37EB JUMPI RETURNDATASIZE PUSH1 0x0 DUP1 RETURNDATACOPY RETURNDATASIZE PUSH1 0x0 REVERT JUMPDEST POP POP POP POP PUSH1 0x40 MLOAD RETURNDATASIZE PUSH1 0x1F NOT PUSH1 0x1F DUP3 ADD AND DUP3 ADD DUP1 PUSH1 0x40 MSTORE POP DUP2 ADD SWAP1 PUSH2 0x380F SWAP2 SWAP1 PUSH2 0x4068 JUMP JUMPDEST MLOAD SWAP1 POP PUSH1 0x1 PUSH1 0x1 PUSH1 0xA0 SHL SUB DUP2 AND PUSH1 0x0 PUSH1 0x1 PUSH1 0xC0 SHL PUSH2 0x382D DUP4 DUP1 PUSH2 0x3F8F JUMP JUMPDEST PUSH2 0x383F SWAP1 PUSH8 0xDE0B6B3A7640000 PUSH2 0x3F8F JUMP JUMPDEST PUSH2 0x3849 SWAP2 SWAP1 PUSH2 0x3FA6 JUMP JUMPDEST SWAP1 POP PUSH1 0x0 PUSH2 0x3866 DUP3 PUSH15 0xC097CE7BC90715B34B9F1000000000 PUSH2 0x3FA6 JUMP JUMPDEST SWAP7 SWAP6 POP POP POP POP POP POP JUMP JUMPDEST PUSH1 0x33 SLOAD PUSH1 0x1 PUSH1 0x1 PUSH1 0xA0 SHL SUB AND CALLER EQ PUSH2 0x38C2 JUMPI PUSH1 0x40 MLOAD PUSH3 0x461BCD PUSH1 0xE5 SHL DUP2 MSTORE PUSH1 0x20 PUSH1 0x4 DUP3 ADD MSTORE PUSH1 0x21 PUSH1 0x24 DUP3 ADD MSTORE PUSH1 0x0 DUP1 MLOAD PUSH1 0x20 PUSH2 0x4123 DUP4 CODECOPY DUP2 MLOAD SWAP2 MSTORE PUSH1 0x44 DUP3 ADD MSTORE PUSH1 0x37 PUSH1 0xF9 SHL PUSH1 0x64 DUP3 ADD MSTORE PUSH1 0x84 ADD PUSH2 0xA1D JUMP JUMPDEST PUSH2 0x38CA PUSH2 0x3999 JUMP JUMPDEST PUSH1 0x40 DUP1 MLOAD PUSH1 0xE0 DUP2 ADD DUP3 MSTORE DUP7 DUP2 MSTORE PUSH1 0x1 PUSH1 0x1 PUSH1 0xA0 SHL SUB DUP1 DUP8 AND PUSH1 0x20 DUP1 DUP5 ADD SWAP2 DUP3 MSTORE DUP8 DUP4 AND DUP5 DUP7 ADD SWAP1 DUP2 MSTORE PUSH1 0x60 DUP6 ADD DUP9 DUP2 MSTORE PUSH1 0x80 DUP7 ADD DUP9 DUP2 MSTORE PUSH1 0x1 PUSH1 0xA0 DUP9 ADD DUP2 DUP2 MSTORE PUSH1 0x0 PUSH1 0xC0 DUP11 ADD DUP2 DUP2 MSTORE PUSH1 0x34 DUP1 SLOAD DUP4 MSTORE PUSH1 0x3E SWAP1 SWAP9 MSTORE SWAP11 DUP2 KECCAK256 SWAP10 MLOAD DUP11 SSTORE SWAP7 MLOAD SWAP2 DUP10 ADD DUP1 SLOAD SWAP3 DUP10 AND PUSH1 0x1 PUSH1 0x1 PUSH1 0xA0 SHL SUB NOT SWAP4 DUP5 AND OR SWAP1 SSTORE SWAP4 MLOAD PUSH1 0x2 DUP10 ADD DUP1 SLOAD SWAP2 SWAP1 SWAP9 AND SWAP2 AND OR SWAP1 SWAP6 SSTORE MLOAD PUSH1 0x3 DUP7 ADD SSTORE SWAP3 MLOAD PUSH1 0x4 DUP6 ADD SSTORE SWAP2 MLOAD PUSH1 0x5 DUP5 ADD DUP1 SLOAD SWAP2 ISZERO ISZERO PUSH1 0xFF NOT SWAP1 SWAP3 AND SWAP2 SWAP1 SWAP2 OR SWAP1 SSTORE SWAP3 MLOAD PUSH1 0x6 SWAP1 SWAP3 ADD SWAP2 SWAP1 SWAP2 SSTORE DUP1 SLOAD SWAP2 PUSH2 0x398B DUP4 PUSH2 0x3F76 JUMP JUMPDEST SWAP2 SWAP1 POP SSTORE POP PUSH2 0x1756 PUSH1 0x1 DUP1 SSTORE JUMP JUMPDEST PUSH1 0x2 PUSH1 0x1 SLOAD SUB PUSH2 0x39EB JUMPI PUSH1 0x40 MLOAD PUSH3 0x461BCD PUSH1 0xE5 SHL DUP2 MSTORE PUSH1 0x20 PUSH1 0x4 DUP3 ADD MSTORE PUSH1 0x1F PUSH1 0x24 DUP3 ADD MSTORE PUSH32 0x5265656E7472616E637947756172643A207265656E7472616E742063616C6C00 PUSH1 0x44 DUP3 ADD MSTORE PUSH1 0x64 ADD PUSH2 0xA1D JUMP JUMPDEST PUSH1 0x2 PUSH1 0x1 SSTORE JUMP JUMPDEST PUSH1 0x1 DUP1 SSTORE JUMP JUMPDEST PUSH1 0x0 DUP1 JUMPDEST PUSH1 0x38 SLOAD DUP2 LT ISZERO PUSH2 0x3A58 JUMPI DUP3 PUSH1 0x1 PUSH1 0x1 PUSH1 0xA0 SHL SUB AND PUSH1 0x38 DUP3 DUP2 SLOAD DUP2 LT PUSH2 0x3A23 JUMPI PUSH2 0x3A23 PUSH2 0x3EF7 JUMP JUMPDEST PUSH1 0x0 SWAP2 DUP3 MSTORE PUSH1 0x20 SWAP1 SWAP2 KECCAK256 ADD SLOAD PUSH1 0x1 PUSH1 0x1 PUSH1 0xA0 SHL SUB AND SUB PUSH2 0x3A46 JUMPI POP PUSH1 0x1 SWAP3 SWAP2 POP POP JUMP JUMPDEST DUP1 PUSH2 0x3A50 DUP2 PUSH2 0x3F76 JUMP JUMPDEST SWAP2 POP POP PUSH2 0x39FC JUMP JUMPDEST POP PUSH1 0x0 SWAP3 SWAP2 POP POP JUMP JUMPDEST PUSH1 0x0 SLOAD PUSH2 0x100 SWAP1 DIV PUSH1 0xFF AND PUSH2 0x3ADE JUMPI PUSH1 0x40 MLOAD PUSH3 0x461BCD PUSH1 0xE5 SHL DUP2 MSTORE PUSH1 0x20 PUSH1 0x4 DUP3 ADD MSTORE PUSH1 0x2B PUSH1 0x24 DUP3 ADD MSTORE PUSH32 0x496E697469616C697A61626C653A20636F6E7472616374206973206E6F742069 PUSH1 0x44 DUP3 ADD MSTORE PUSH32 0x6E697469616C697A696E67000000000000000000000000000000000000000000 PUSH1 0x64 DUP3 ADD MSTORE PUSH1 0x84 ADD PUSH2 0xA1D JUMP JUMPDEST PUSH2 0x3AE6 PUSH2 0x3AE8 JUMP JUMPDEST JUMP JUMPDEST PUSH1 0x0 SLOAD PUSH2 0x100 SWAP1 DIV PUSH1 0xFF AND PUSH2 0x39F2 JUMPI PUSH1 0x40 MLOAD PUSH3 0x461BCD PUSH1 0xE5 SHL DUP2 MSTORE PUSH1 0x20 PUSH1 0x4 DUP3 ADD MSTORE PUSH1 0x2B PUSH1 0x24 DUP3 ADD MSTORE PUSH32 0x496E697469616C697A61626C653A20636F6E7472616374206973206E6F742069 PUSH1 0x44 DUP3 ADD MSTORE PUSH32 0x6E697469616C697A696E67000000000000000000000000000000000000000000 PUSH1 0x64 DUP3 ADD MSTORE PUSH1 0x84 ADD PUSH2 0xA1D JUMP JUMPDEST PUSH1 0x0 DUP1 PUSH1 0x40 DUP4 DUP6 SUB SLT ISZERO PUSH2 0x3B78 JUMPI PUSH1 0x0 DUP1 REVERT JUMPDEST POP POP DUP1 CALLDATALOAD SWAP3 PUSH1 0x20 SWAP1 SWAP2 ADD CALLDATALOAD SWAP2 POP JUMP JUMPDEST PUSH1 0x1 PUSH1 0x1 PUSH1 0xA0 SHL SUB DUP2 AND DUP2 EQ PUSH2 0xF12 JUMPI PUSH1 0x0 DUP1 REVERT JUMPDEST PUSH1 0x0 PUSH1 0x20 DUP3 DUP5 SUB SLT ISZERO PUSH2 0x3BAE JUMPI PUSH1 0x0 DUP1 REVERT JUMPDEST DUP2 CALLDATALOAD PUSH2 0x2736 DUP2 PUSH2 0x3B87 JUMP JUMPDEST PUSH1 0x0 PUSH1 0x20 DUP3 DUP5 SUB SLT ISZERO PUSH2 0x3BCB JUMPI PUSH1 0x0 DUP1 REVERT JUMPDEST POP CALLDATALOAD SWAP2 SWAP1 POP JUMP JUMPDEST PUSH1 0x0 DUP1 PUSH1 0x0 PUSH1 0x60 DUP5 DUP7 SUB SLT ISZERO PUSH2 0x3BE7 JUMPI PUSH1 0x0 DUP1 REVERT JUMPDEST DUP4 CALLDATALOAD SWAP3 POP PUSH1 0x20 DUP5 ADD CALLDATALOAD SWAP2 POP PUSH1 0x40 DUP5 ADD CALLDATALOAD PUSH2 0x3C00 DUP2 PUSH2 0x3B87 JUMP JUMPDEST DUP1 SWAP2 POP POP SWAP3 POP SWAP3 POP SWAP3 JUMP JUMPDEST PUSH1 0x0 DUP1 PUSH1 0x40 DUP4 DUP6 SUB SLT ISZERO PUSH2 0x3C1E JUMPI PUSH1 0x0 DUP1 REVERT JUMPDEST DUP3 CALLDATALOAD PUSH2 0x3C29 DUP2 PUSH2 0x3B87 JUMP JUMPDEST SWAP5 PUSH1 0x20 SWAP4 SWAP1 SWAP4 ADD CALLDATALOAD SWAP4 POP POP POP JUMP JUMPDEST PUSH1 0x20 DUP1 DUP3 MSTORE DUP3 MLOAD DUP3 DUP3 ADD DUP2 SWAP1 MSTORE PUSH1 0x0 SWAP2 SWAP1 DUP5 DUP3 ADD SWAP1 PUSH1 0x40 DUP6 ADD SWAP1 DUP5 JUMPDEST DUP2 DUP2 LT ISZERO PUSH2 0x3C78 JUMPI DUP4 MLOAD PUSH1 0x1 PUSH1 0x1 PUSH1 0xA0 SHL SUB AND DUP4 MSTORE SWAP3 DUP5 ADD SWAP3 SWAP2 DUP5 ADD SWAP2 PUSH1 0x1 ADD PUSH2 0x3C53 JUMP JUMPDEST POP SWAP1 SWAP7 SWAP6 POP POP POP POP POP POP JUMP JUMPDEST PUSH1 0x0 DUP1 PUSH1 0x0 PUSH1 0x60 DUP5 DUP7 SUB SLT ISZERO PUSH2 0x3C99 JUMPI PUSH1 0x0 DUP1 REVERT JUMPDEST DUP4 CALLDATALOAD PUSH2 0x3CA4 DUP2 PUSH2 0x3B87 JUMP JUMPDEST SWAP6 PUSH1 0x20 DUP6 ADD CALLDATALOAD SWAP6 POP PUSH1 0x40 SWAP1 SWAP5 ADD CALLDATALOAD SWAP4 SWAP3 POP POP POP JUMP JUMPDEST PUSH1 0x0 DUP1 PUSH1 0x0 PUSH1 0x60 DUP5 DUP7 SUB SLT ISZERO PUSH2 0x3CCE JUMPI PUSH1 0x0 DUP1 REVERT JUMPDEST DUP4 CALLDATALOAD PUSH2 0x3CD9 DUP2 PUSH2 0x3B87 JUMP JUMPDEST SWAP3 POP PUSH1 0x20 DUP5 ADD CALLDATALOAD PUSH2 0x3CE9 DUP2 PUSH2 0x3B87 JUMP JUMPDEST SWAP3 SWAP6 SWAP3 SWAP5 POP POP POP PUSH1 0x40 SWAP2 SWAP1 SWAP2 ADD CALLDATALOAD SWAP1 JUMP JUMPDEST PUSH1 0x0 DUP1 PUSH1 0x40 DUP4 DUP6 SUB SLT ISZERO PUSH2 0x3D0D JUMPI PUSH1 0x0 DUP1 REVERT JUMPDEST DUP3 CALLDATALOAD PUSH2 0x3D18 DUP2 PUSH2 0x3B87 JUMP JUMPDEST SWAP2 POP PUSH1 0x20 DUP4 ADD CALLDATALOAD PUSH2 0x3D28 DUP2 PUSH2 0x3B87 JUMP JUMPDEST DUP1 SWAP2 POP POP SWAP3 POP SWAP3 SWAP1 POP JUMP JUMPDEST DUP1 ISZERO ISZERO DUP2 EQ PUSH2 0xF12 JUMPI PUSH1 0x0 DUP1 REVERT JUMPDEST PUSH1 0x0 PUSH1 0x20 DUP3 DUP5 SUB SLT ISZERO PUSH2 0x3D53 JUMPI PUSH1 0x0 DUP1 REVERT JUMPDEST DUP2 CALLDATALOAD PUSH2 0x2736 DUP2 PUSH2 0x3D33 JUMP JUMPDEST PUSH4 0x4E487B71 PUSH1 0xE0 SHL PUSH1 0x0 MSTORE PUSH1 0x41 PUSH1 0x4 MSTORE PUSH1 0x24 PUSH1 0x0 REVERT JUMPDEST PUSH1 0x40 MLOAD PUSH1 0xE0 DUP2 ADD PUSH8 0xFFFFFFFFFFFFFFFF DUP2 GT DUP3 DUP3 LT OR ISZERO PUSH2 0x3D97 JUMPI PUSH2 0x3D97 PUSH2 0x3D5E JUMP JUMPDEST PUSH1 0x40 MSTORE SWAP1 JUMP JUMPDEST PUSH1 0x40 MLOAD PUSH1 0x1F DUP3 ADD PUSH1 0x1F NOT AND DUP2 ADD PUSH8 0xFFFFFFFFFFFFFFFF DUP2 GT DUP3 DUP3 LT OR ISZERO PUSH2 0x3DC6 JUMPI PUSH2 0x3DC6 PUSH2 0x3D5E JUMP JUMPDEST PUSH1 0x40 MSTORE SWAP2 SWAP1 POP JUMP JUMPDEST PUSH1 0x0 PUSH1 0x20 DUP1 DUP4 DUP6 SUB SLT ISZERO PUSH2 0x3DE1 JUMPI PUSH1 0x0 DUP1 REVERT JUMPDEST DUP3 CALLDATALOAD PUSH8 0xFFFFFFFFFFFFFFFF DUP1 DUP3 GT ISZERO PUSH2 0x3DF9 JUMPI PUSH1 0x0 DUP1 REVERT JUMPDEST DUP2 DUP6 ADD SWAP2 POP DUP6 PUSH1 0x1F DUP4 ADD SLT PUSH2 0x3E0D JUMPI PUSH1 0x0 DUP1 REVERT JUMPDEST DUP2 CALLDATALOAD DUP2 DUP2 GT ISZERO PUSH2 0x3E1F JUMPI PUSH2 0x3E1F PUSH2 0x3D5E JUMP JUMPDEST DUP1 PUSH1 0x5 SHL SWAP2 POP PUSH2 0x3E30 DUP5 DUP4 ADD PUSH2 0x3D9D JUMP JUMPDEST DUP2 DUP2 MSTORE SWAP2 DUP4 ADD DUP5 ADD SWAP2 DUP5 DUP2 ADD SWAP1 DUP9 DUP5 GT ISZERO PUSH2 0x3E4A JUMPI PUSH1 0x0 DUP1 REVERT JUMPDEST SWAP4 DUP6 ADD SWAP4 JUMPDEST DUP4 DUP6 LT ISZERO PUSH2 0x3E74 JUMPI DUP5 CALLDATALOAD SWAP3 POP PUSH2 0x3E64 DUP4 PUSH2 0x3B87 JUMP JUMPDEST DUP3 DUP3 MSTORE SWAP4 DUP6 ADD SWAP4 SWAP1 DUP6 ADD SWAP1 PUSH2 0x3E4F JUMP JUMPDEST SWAP9 SWAP8 POP POP POP POP POP POP POP POP JUMP JUMPDEST PUSH1 0x0 DUP1 PUSH1 0x40 DUP4 DUP6 SUB SLT ISZERO PUSH2 0x3E93 JUMPI PUSH1 0x0 DUP1 REVERT JUMPDEST DUP3 CALLDATALOAD SWAP2 POP PUSH1 0x20 DUP4 ADD CALLDATALOAD PUSH2 0x3D28 DUP2 PUSH2 0x3B87 JUMP JUMPDEST PUSH1 0x0 DUP1 PUSH1 0x0 DUP1 PUSH1 0x0 PUSH1 0xA0 DUP7 DUP9 SUB SLT ISZERO PUSH2 0x3EBD JUMPI PUSH1 0x0 DUP1 REVERT JUMPDEST DUP6 CALLDATALOAD SWAP5 POP PUSH1 0x20 DUP7 ADD CALLDATALOAD PUSH2 0x3ECF DUP2 PUSH2 0x3B87 JUMP JUMPDEST SWAP4 POP PUSH1 0x40 DUP7 ADD CALLDATALOAD PUSH2 0x3EDF DUP2 PUSH2 0x3B87 JUMP JUMPDEST SWAP5 SWAP8 SWAP4 SWAP7 POP SWAP4 SWAP5 PUSH1 0x60 DUP2 ADD CALLDATALOAD SWAP5 POP PUSH1 0x80 ADD CALLDATALOAD SWAP3 SWAP2 POP POP JUMP JUMPDEST PUSH4 0x4E487B71 PUSH1 0xE0 SHL PUSH1 0x0 MSTORE PUSH1 0x32 PUSH1 0x4 MSTORE PUSH1 0x24 PUSH1 0x0 REVERT JUMPDEST PUSH4 0x4E487B71 PUSH1 0xE0 SHL PUSH1 0x0 MSTORE PUSH1 0x11 PUSH1 0x4 MSTORE PUSH1 0x24 PUSH1 0x0 REVERT JUMPDEST DUP1 DUP3 ADD DUP1 DUP3 GT ISZERO PUSH2 0x123F JUMPI PUSH2 0x123F PUSH2 0x3F0D JUMP JUMPDEST DUP1 MLOAD PUSH2 0x3F41 DUP2 PUSH2 0x3D33 JUMP JUMPDEST SWAP2 SWAP1 POP JUMP JUMPDEST PUSH1 0x0 PUSH1 0x20 DUP3 DUP5 SUB SLT ISZERO PUSH2 0x3F58 JUMPI PUSH1 0x0 DUP1 REVERT JUMPDEST DUP2 MLOAD PUSH2 0x2736 DUP2 PUSH2 0x3D33 JUMP JUMPDEST DUP2 DUP2 SUB DUP2 DUP2 GT ISZERO PUSH2 0x123F JUMPI PUSH2 0x123F PUSH2 0x3F0D JUMP JUMPDEST PUSH1 0x0 PUSH1 0x1 DUP3 ADD PUSH2 0x3F88 JUMPI PUSH2 0x3F88 PUSH2 0x3F0D JUMP JUMPDEST POP PUSH1 0x1 ADD SWAP1 JUMP JUMPDEST DUP1 DUP3 MUL DUP2 ISZERO DUP3 DUP3 DIV DUP5 EQ OR PUSH2 0x123F JUMPI PUSH2 0x123F PUSH2 0x3F0D JUMP JUMPDEST PUSH1 0x0 DUP3 PUSH2 0x3FC3 JUMPI PUSH4 0x4E487B71 PUSH1 0xE0 SHL PUSH1 0x0 MSTORE PUSH1 0x12 PUSH1 0x4 MSTORE PUSH1 0x24 PUSH1 0x0 REVERT JUMPDEST POP DIV SWAP1 JUMP JUMPDEST DUP1 MLOAD PUSH14 0xFFFFFFFFFFFFFFFFFFFFFFFFFFFF DUP2 AND DUP2 EQ PUSH2 0x3F41 JUMPI PUSH1 0x0 DUP1 REVERT JUMPDEST DUP1 MLOAD PUSH4 0xFFFFFFFF DUP2 AND DUP2 EQ PUSH2 0x3F41 JUMPI PUSH1 0x0 DUP1 REVERT JUMPDEST PUSH1 0x0 DUP1 PUSH1 0x0 PUSH1 0x60 DUP5 DUP7 SUB SLT ISZERO PUSH2 0x400F JUMPI PUSH1 0x0 DUP1 REVERT JUMPDEST PUSH2 0x4018 DUP5 PUSH2 0x3FC8 JUMP JUMPDEST SWAP3 POP PUSH2 0x4026 PUSH1 0x20 DUP6 ADD PUSH2 0x3FC8 JUMP JUMPDEST SWAP2 POP PUSH2 0x4034 PUSH1 0x40 DUP6 ADD PUSH2 0x3FE6 JUMP JUMPDEST SWAP1 POP SWAP3 POP SWAP3 POP SWAP3 JUMP JUMPDEST PUSH1 0x0 PUSH1 0x20 DUP3 DUP5 SUB SLT ISZERO PUSH2 0x404F JUMPI PUSH1 0x0 DUP1 REVERT JUMPDEST POP MLOAD SWAP2 SWAP1 POP JUMP JUMPDEST DUP1 MLOAD PUSH2 0xFFFF DUP2 AND DUP2 EQ PUSH2 0x3F41 JUMPI PUSH1 0x0 DUP1 REVERT JUMPDEST PUSH1 0x0 PUSH1 0xE0 DUP3 DUP5 SUB SLT ISZERO PUSH2 0x407A JUMPI PUSH1 0x0 DUP1 REVERT JUMPDEST PUSH2 0x4082 PUSH2 0x3D74 JUMP JUMPDEST DUP3 MLOAD PUSH2 0x408D DUP2 PUSH2 0x3B87 JUMP JUMPDEST DUP2 MSTORE PUSH1 0x20 DUP4 ADD MLOAD PUSH1 0x2 DUP2 SWAP1 SIGNEXTEND DUP2 EQ PUSH2 0x40A4 JUMPI PUSH1 0x0 DUP1 REVERT JUMPDEST PUSH1 0x20 DUP3 ADD MSTORE PUSH2 0x40B5 PUSH1 0x40 DUP5 ADD PUSH2 0x4056 JUMP JUMPDEST PUSH1 0x40 DUP3 ADD MSTORE PUSH2 0x40C6 PUSH1 0x60 DUP5 ADD PUSH2 0x4056 JUMP JUMPDEST PUSH1 0x60 DUP3 ADD MSTORE PUSH2 0x40D7 PUSH1 0x80 DUP5 ADD PUSH2 0x4056 JUMP JUMPDEST PUSH1 0x80 DUP3 ADD MSTORE PUSH2 0x40E8 PUSH1 0xA0 DUP5 ADD PUSH2 0x3FE6 JUMP JUMPDEST PUSH1 0xA0 DUP3 ADD MSTORE PUSH2 0x40F9 PUSH1 0xC0 DUP5 ADD PUSH2 0x3F36 JUMP JUMPDEST PUSH1 0xC0 DUP3 ADD MSTORE SWAP4 SWAP3 POP POP POP JUMP JUMPDEST PUSH1 0x0 PUSH1 0x20 DUP3 DUP5 SUB SLT ISZERO PUSH2 0x4117 JUMPI PUSH1 0x0 DUP1 REVERT JUMPDEST DUP2 MLOAD PUSH2 0x2736 DUP2 PUSH2 0x3B87 JUMP INVALID 0x4F PUSH15 0x6C792061646D696E2063616E206361 PUSH13 0x6C20746869732066756E637469 PUSH16 0xA2646970667358221220F0A0727AB026 SWAP4 SWAP6 0xFB 0x4E PUSH19 0x8620355087EAE9B01448EB8310C068DE2155FD 0xD3 SWAP16 PUSH5 0x736F6C6343 STOP ADDMOD SGT STOP CALLER "},"methodIdentifiers":{"CG8_TOKEN_ADDRESS()":"c57830cd","PANCAKE_FACTORY_ADDRESS()":"509173a1","PANCAKE_ROUTER_ADDRESS()":"28ac7c51","USDC_TOKEN_ADDRESS()":"b3d673d8","admin()":"f851a440","cancelOwnershipTransfer()":"23452b9c","castVote(bool)":"7ace48e7","claimIndividualReward(uint256,uint256)":"6b38e049","claimReward(uint256)":"ae169a50","createStakingPool(uint256,address,address,uint256,uint256)":"fb58d2cf","finalizeOwnershipTransfer()":"bf41c2a4","getCurrentCgatePrice()":"7ade2642","getPair(address,address)":"e6a43905","getPendingReward(uint256,uint256,address)":"29a16616","getPrice()":"98d5fdca","getPriceInverse()":"f4343439","getReferrals(address,uint256)":"32a00d8e","getReserves(address)":"3e99c1e4","getTotalPendingRewardsForPool(uint256,address)":"c114fcfa","getTotalPoolsCount()":"855c5d46","getTotalReferralRewardByReferrer(address,address)":"53a64091","getTotalReferralRewards(address)":"8cd05ecb","hasVoted(address)":"09eef43e","initialize(address[])":"a224cee7","poolAddress()":"1755ff21","poolReferrers(address,uint256)":"686e9222","pools(uint256)":"ac4afa38","proposeOwnershipTransfer(address)":"21040fc3","proposedOwner()":"d153b60c","referrals(address,uint256,uint256)":"c01b35a1","referrerRewards(address,address,uint256)":"4ae77bcf","referrers(address)":"4a3b68cc","setAdmin(address)":"704b6c02","setCg8Address(address)":"57a8773e","setFactory(address)":"5bb47808","setPoolAddress(address)":"e9e15b4f","setReferralRewardPercent(uint256,uint256)":"bf2ce808","setRewardPercent(uint256,uint256)":"c79bdb46","setRewardToken(uint256,address)":"bdd13d4a","setRouter(address)":"c0d78655","setSpecialReferrerRewardPercent(address,uint256)":"dbe4a261","setTimePeriod(uint256,uint256)":"b820a1cd","setUSDCAddress(address)":"aaf5bfc3","signers(address)":"736c0d5b","specialReferrersPercents(address)":"e7ee1233","stake(uint256,uint256,address)":"7628a37d","togglePoolStatus(uint256)":"216b31c1","totalStakeCount(address,uint256)":"fa8f683e","totalUnstakeAllowed(address,uint256)":"9dda7fee","unStake(uint256)":"5d3eea91","unStakeIndividual(uint256,uint256)":"047ac00e","updateCurrentCgatePrice(uint256)":"7b542a2a","userStakes(address,uint256,uint256)":"34144b0f","users(address)":"a87430ba","usersStakesPerPool(address,uint256)":"b401cdca","voters(uint256)":"da58c7d9","withdrawDumpToken(address,address)":"99672158","withdrawEth(address)":"25e16063"}},"storageLayout":{"storage":[{"astId":6,"contract":"contracts/cgateStaking.sol:StakingPoolV3","label":"_initialized","offset":0,"slot":"0","type":"t_uint8"},{"astId":9,"contract":"contracts/cgateStaking.sol:StakingPoolV3","label":"_initializing","offset":1,"slot":"0","type":"t_bool"},{"astId":183,"contract":"contracts/cgateStaking.sol:StakingPoolV3","label":"_status","offset":0,"slot":"1","type":"t_uint256"},{"astId":252,"contract":"contracts/cgateStaking.sol:StakingPoolV3","label":"__gap","offset":0,"slot":"2","type":"t_array(t_uint256)49_storage"},{"astId":1473,"contract":"contracts/cgateStaking.sol:StakingPoolV3","label":"admin","offset":0,"slot":"51","type":"t_address"},{"astId":1475,"contract":"contracts/cgateStaking.sol:StakingPoolV3","label":"poolIdCounter","offset":0,"slot":"52","type":"t_uint256"},{"astId":1477,"contract":"contracts/cgateStaking.sol:StakingPoolV3","label":"oneYear","offset":0,"slot":"53","type":"t_uint256"},{"astId":1479,"contract":"contracts/cgateStaking.sol:StakingPoolV3","label":"price","offset":0,"slot":"54","type":"t_uint256"},{"astId":1481,"contract":"contracts/cgateStaking.sol:StakingPoolV3","label":"proposedOwner","offset":0,"slot":"55","type":"t_address"},{"astId":1484,"contract":"contracts/cgateStaking.sol:StakingPoolV3","label":"voters","offset":0,"slot":"56","type":"t_array(t_address)dyn_storage"},{"astId":1488,"contract":"contracts/cgateStaking.sol:StakingPoolV3","label":"hasVoted","offset":0,"slot":"57","type":"t_mapping(t_address,t_bool)"},{"astId":1490,"contract":"contracts/cgateStaking.sol:StakingPoolV3","label":"PANCAKE_ROUTER_ADDRESS","offset":0,"slot":"58","type":"t_address"},{"astId":1492,"contract":"contracts/cgateStaking.sol:StakingPoolV3","label":"CG8_TOKEN_ADDRESS","offset":0,"slot":"59","type":"t_address"},{"astId":1494,"contract":"contracts/cgateStaking.sol:StakingPoolV3","label":"USDC_TOKEN_ADDRESS","offset":0,"slot":"60","type":"t_address"},{"astId":1496,"contract":"contracts/cgateStaking.sol:StakingPoolV3","label":"PANCAKE_FACTORY_ADDRESS","offset":0,"slot":"61","type":"t_address"},{"astId":1540,"contract":"contracts/cgateStaking.sol:StakingPoolV3","label":"pools","offset":0,"slot":"62","type":"t_mapping(t_uint256,t_struct(Pool)1511_storage)"},{"astId":1548,"contract":"contracts/cgateStaking.sol:StakingPoolV3","label":"userStakes","offset":0,"slot":"63","type":"t_mapping(t_address,t_mapping(t_uint256,t_array(t_struct(UserStake)1535_storage)dyn_storage))"},{"astId":1552,"contract":"contracts/cgateStaking.sol:StakingPoolV3","label":"referrers","offset":0,"slot":"64","type":"t_mapping(t_address,t_address)"},{"astId":1556,"contract":"contracts/cgateStaking.sol:StakingPoolV3","label":"specialReferrersPercents","offset":0,"slot":"65","type":"t_mapping(t_address,t_uint256)"},{"astId":1561,"contract":"contracts/cgateStaking.sol:StakingPoolV3","label":"users","offset":0,"slot":"66","type":"t_mapping(t_address,t_struct(UserInfo)1522_storage)"},{"astId":1567,"contract":"contracts/cgateStaking.sol:StakingPoolV3","label":"usersStakesPerPool","offset":0,"slot":"67","type":"t_mapping(t_address,t_mapping(t_uint256,t_uint256))"},{"astId":1571,"contract":"contracts/cgateStaking.sol:StakingPoolV3","label":"signers","offset":0,"slot":"68","type":"t_mapping(t_address,t_bool)"},{"astId":1573,"contract":"contracts/cgateStaking.sol:StakingPoolV3","label":"poolAddress","offset":0,"slot":"69","type":"t_address"},{"astId":1580,"contract":"contracts/cgateStaking.sol:StakingPoolV3","label":"referrals","offset":0,"slot":"70","type":"t_mapping(t_address,t_mapping(t_uint256,t_array(t_address)dyn_storage))"},{"astId":1588,"contract":"contracts/cgateStaking.sol:StakingPoolV3","label":"referrerRewards","offset":0,"slot":"71","type":"t_mapping(t_address,t_mapping(t_address,t_mapping(t_uint256,t_uint256)))"},{"astId":1594,"contract":"contracts/cgateStaking.sol:StakingPoolV3","label":"poolReferrers","offset":0,"slot":"72","type":"t_mapping(t_address,t_mapping(t_uint256,t_address))"}],"types":{"t_address":{"encoding":"inplace","label":"address","numberOfBytes":"20"},"t_array(t_address)dyn_storage":{"base":"t_address","encoding":"dynamic_array","label":"address[]","numberOfBytes":"32"},"t_array(t_struct(UserStake)1535_storage)dyn_storage":{"base":"t_struct(UserStake)1535_storage","encoding":"dynamic_array","label":"struct StakingPoolV3.UserStake[]","numberOfBytes":"32"},"t_array(t_uint256)49_storage":{"base":"t_uint256","encoding":"inplace","label":"uint256[49]","numberOfBytes":"1568"},"t_bool":{"encoding":"inplace","label":"bool","numberOfBytes":"1"},"t_mapping(t_address,t_address)":{"encoding":"mapping","key":"t_address","label":"mapping(address => address)","numberOfBytes":"32","value":"t_address"},"t_mapping(t_address,t_bool)":{"encoding":"mapping","key":"t_address","label":"mapping(address => bool)","numberOfBytes":"32","value":"t_bool"},"t_mapping(t_address,t_mapping(t_address,t_mapping(t_uint256,t_uint256)))":{"encoding":"mapping","key":"t_address","label":"mapping(address => mapping(address => mapping(uint256 => uint256)))","numberOfBytes":"32","value":"t_mapping(t_address,t_mapping(t_uint256,t_uint256))"},"t_mapping(t_address,t_mapping(t_uint256,t_address))":{"encoding":"mapping","key":"t_address","label":"mapping(address => mapping(uint256 => address))","numberOfBytes":"32","value":"t_mapping(t_uint256,t_address)"},"t_mapping(t_address,t_mapping(t_uint256,t_array(t_address)dyn_storage))":{"encoding":"mapping","key":"t_address","label":"mapping(address => mapping(uint256 => address[]))","numberOfBytes":"32","value":"t_mapping(t_uint256,t_array(t_address)dyn_storage)"},"t_mapping(t_address,t_mapping(t_uint256,t_array(t_struct(UserStake)1535_storage)dyn_storage))":{"encoding":"mapping","key":"t_address","label":"mapping(address => mapping(uint256 => struct StakingPoolV3.UserStake[]))","numberOfBytes":"32","value":"t_mapping(t_uint256,t_array(t_struct(UserStake)1535_storage)dyn_storage)"},"t_mapping(t_address,t_mapping(t_uint256,t_uint256))":{"encoding":"mapping","key":"t_address","label":"mapping(address => mapping(uint256 => uint256))","numberOfBytes":"32","value":"t_mapping(t_uint256,t_uint256)"},"t_mapping(t_address,t_struct(UserInfo)1522_storage)":{"encoding":"mapping","key":"t_address","label":"mapping(address => struct StakingPoolV3.UserInfo)","numberOfBytes":"32","value":"t_struct(UserInfo)1522_storage"},"t_mapping(t_address,t_uint256)":{"encoding":"mapping","key":"t_address","label":"mapping(address => uint256)","numberOfBytes":"32","value":"t_uint256"},"t_mapping(t_uint256,t_address)":{"encoding":"mapping","key":"t_uint256","label":"mapping(uint256 => address)","numberOfBytes":"32","value":"t_address"},"t_mapping(t_uint256,t_array(t_address)dyn_storage)":{"encoding":"mapping","key":"t_uint256","label":"mapping(uint256 => address[])","numberOfBytes":"32","value":"t_array(t_address)dyn_storage"},"t_mapping(t_uint256,t_array(t_struct(UserStake)1535_storage)dyn_storage)":{"encoding":"mapping","key":"t_uint256","label":"mapping(uint256 => struct StakingPoolV3.UserStake[])","numberOfBytes":"32","value":"t_array(t_struct(UserStake)1535_storage)dyn_storage"},"t_mapping(t_uint256,t_struct(Pool)1511_storage)":{"encoding":"mapping","key":"t_uint256","label":"mapping(uint256 => struct StakingPoolV3.Pool)","numberOfBytes":"32","value":"t_struct(Pool)1511_storage"},"t_mapping(t_uint256,t_uint256)":{"encoding":"mapping","key":"t_uint256","label":"mapping(uint256 => uint256)","numberOfBytes":"32","value":"t_uint256"},"t_struct(Pool)1511_storage":{"encoding":"inplace","label":"struct StakingPoolV3.Pool","members":[{"astId":1498,"contract":"contracts/cgateStaking.sol:StakingPoolV3","label":"timePeriod","offset":0,"slot":"0","type":"t_uint256"},{"astId":1500,"contract":"contracts/cgateStaking.sol:StakingPoolV3","label":"stakeToken","offset":0,"slot":"1","type":"t_address"},{"astId":1502,"contract":"contracts/cgateStaking.sol:StakingPoolV3","label":"rewardToken","offset":0,"slot":"2","type":"t_address"},{"astId":1504,"contract":"contracts/cgateStaking.sol:StakingPoolV3","label":"rewardPercentPerStakedTokenPerYear","offset":0,"slot":"3","type":"t_uint256"},{"astId":1506,"contract":"contracts/cgateStaking.sol:StakingPoolV3","label":"referralRewardPercent","offset":0,"slot":"4","type":"t_uint256"},{"astId":1508,"contract":"contracts/cgateStaking.sol:StakingPoolV3","label":"isActive","offset":0,"slot":"5","type":"t_bool"},{"astId":1510,"contract":"contracts/cgateStaking.sol:StakingPoolV3","label":"totalStakes","offset":0,"slot":"6","type":"t_uint256"}],"numberOfBytes":"224"},"t_struct(UserInfo)1522_storage":{"encoding":"inplace","label":"struct StakingPoolV3.UserInfo","members":[{"astId":1513,"contract":"contracts/cgateStaking.sol:StakingPoolV3","label":"totalStaked","offset":0,"slot":"0","type":"t_uint256"},{"astId":1515,"contract":"contracts/cgateStaking.sol:StakingPoolV3","label":"activeStakes","offset":0,"slot":"1","type":"t_uint256"},{"astId":1517,"contract":"contracts/cgateStaking.sol:StakingPoolV3","label":"totalRewardWithdrawnTillNow","offset":0,"slot":"2","type":"t_uint256"},{"astId":1519,"contract":"contracts/cgateStaking.sol:StakingPoolV3","label":"referralIncomeWithdrawnTillNow","offset":0,"slot":"3","type":"t_uint256"},{"astId":1521,"contract":"contracts/cgateStaking.sol:StakingPoolV3","label":"totalReferrers","offset":0,"slot":"4","type":"t_uint256"}],"numberOfBytes":"160"},"t_struct(UserStake)1535_storage":{"encoding":"inplace","label":"struct StakingPoolV3.UserStake","members":[{"astId":1524,"contract":"contracts/cgateStaking.sol:StakingPoolV3","label":"amount","offset":0,"slot":"0","type":"t_uint256"},{"astId":1526,"contract":"contracts/cgateStaking.sol:StakingPoolV3","label":"lastWithdrawTimestamp","offset":0,"slot":"1","type":"t_uint256"},{"astId":1528,"contract":"contracts/cgateStaking.sol:StakingPoolV3","label":"rewardWithdrawnTillNow","offset":0,"slot":"2","type":"t_uint256"},{"astId":1530,"contract":"contracts/cgateStaking.sol:StakingPoolV3","label":"stakeTime","offset":0,"slot":"3","type":"t_uint256"},{"astId":1532,"contract":"contracts/cgateStaking.sol:StakingPoolV3","label":"referrer","offset":0,"slot":"4","type":"t_address"},{"astId":1534,"contract":"contracts/cgateStaking.sol:StakingPoolV3","label":"depositedValueInDollars","offset":0,"slot":"5","type":"t_uint256"}],"numberOfBytes":"192"},"t_uint256":{"encoding":"inplace","label":"uint256","numberOfBytes":"32"},"t_uint8":{"encoding":"inplace","label":"uint8","numberOfBytes":"1"}}}}}}